{
  "_format": "hh3-artifact-1",
  "contractName": "TimeLockVesting",
  "sourceName": "contracts/core/TimeLockVesting.sol",
  "abi": [
    {
      "inputs": [],
      "name": "AlreadyRevoked",
      "type": "error"
    },
    {
      "inputs": [],
      "name": "CliffNotReached",
      "type": "error"
    },
    {
      "inputs": [],
      "name": "InvalidDuration",
      "type": "error"
    },
    {
      "inputs": [],
      "name": "NotBeneficiary",
      "type": "error"
    },
    {
      "inputs": [],
      "name": "NotRevoker",
      "type": "error"
    },
    {
      "inputs": [],
      "name": "NothingToRelease",
      "type": "error"
    },
    {
      "inputs": [],
      "name": "TransferFailed",
      "type": "error"
    },
    {
      "anonymous": false,
      "inputs": [
        {
          "indexed": true,
          "internalType": "uint256",
          "name": "scheduleId",
          "type": "uint256"
        },
        {
          "indexed": false,
          "internalType": "uint256",
          "name": "amount",
          "type": "uint256"
        }
      ],
      "name": "Released",
      "type": "event"
    },
    {
      "anonymous": false,
      "inputs": [
        {
          "indexed": true,
          "internalType": "uint256",
          "name": "scheduleId",
          "type": "uint256"
        },
        {
          "indexed": false,
          "internalType": "uint256",
          "name": "remaining",
          "type": "uint256"
        }
      ],
      "name": "Revoked",
      "type": "event"
    },
    {
      "anonymous": false,
      "inputs": [
        {
          "indexed": true,
          "internalType": "uint256",
          "name": "scheduleId",
          "type": "uint256"
        },
        {
          "indexed": true,
          "internalType": "address",
          "name": "beneficiary",
          "type": "address"
        },
        {
          "indexed": false,
          "internalType": "address",
          "name": "asset",
          "type": "address"
        },
        {
          "indexed": false,
          "internalType": "uint256",
          "name": "totalAmount",
          "type": "uint256"
        },
        {
          "indexed": false,
          "internalType": "uint256",
          "name": "startTime",
          "type": "uint256"
        },
        {
          "indexed": false,
          "internalType": "uint256",
          "name": "cliff",
          "type": "uint256"
        },
        {
          "indexed": false,
          "internalType": "uint256",
          "name": "duration",
          "type": "uint256"
        }
      ],
      "name": "ScheduleCreated",
      "type": "event"
    },
    {
      "inputs": [
        {
          "internalType": "address",
          "name": "beneficiary",
          "type": "address"
        },
        {
          "internalType": "address",
          "name": "asset",
          "type": "address"
        },
        {
          "internalType": "uint256",
          "name": "totalAmount",
          "type": "uint256"
        },
        {
          "internalType": "uint256",
          "name": "startTime",
          "type": "uint256"
        },
        {
          "internalType": "uint256",
          "name": "cliff",
          "type": "uint256"
        },
        {
          "internalType": "uint256",
          "name": "duration",
          "type": "uint256"
        },
        {
          "internalType": "bool",
          "name": "revocable",
          "type": "bool"
        },
        {
          "internalType": "address",
          "name": "revoker",
          "type": "address"
        }
      ],
      "name": "createSchedule",
      "outputs": [
        {
          "internalType": "uint256",
          "name": "scheduleId",
          "type": "uint256"
        }
      ],
      "stateMutability": "payable",
      "type": "function"
    },
    {
      "inputs": [],
      "name": "nextScheduleId",
      "outputs": [
        {
          "internalType": "uint256",
          "name": "",
          "type": "uint256"
        }
      ],
      "stateMutability": "view",
      "type": "function"
    },
    {
      "inputs": [
        {
          "internalType": "uint256",
          "name": "scheduleId",
          "type": "uint256"
        }
      ],
      "name": "releasable",
      "outputs": [
        {
          "internalType": "uint256",
          "name": "",
          "type": "uint256"
        }
      ],
      "stateMutability": "view",
      "type": "function"
    },
    {
      "inputs": [
        {
          "internalType": "uint256",
          "name": "scheduleId",
          "type": "uint256"
        }
      ],
      "name": "release",
      "outputs": [],
      "stateMutability": "nonpayable",
      "type": "function"
    },
    {
      "inputs": [
        {
          "internalType": "uint256",
          "name": "scheduleId",
          "type": "uint256"
        }
      ],
      "name": "revoke",
      "outputs": [],
      "stateMutability": "nonpayable",
      "type": "function"
    },
    {
      "inputs": [
        {
          "internalType": "uint256",
          "name": "",
          "type": "uint256"
        }
      ],
      "name": "schedules",
      "outputs": [
        {
          "internalType": "address",
          "name": "beneficiary",
          "type": "address"
        },
        {
          "internalType": "address",
          "name": "asset",
          "type": "address"
        },
        {
          "internalType": "uint256",
          "name": "totalAmount",
          "type": "uint256"
        },
        {
          "internalType": "uint256",
          "name": "startTime",
          "type": "uint256"
        },
        {
          "internalType": "uint256",
          "name": "cliff",
          "type": "uint256"
        },
        {
          "internalType": "uint256",
          "name": "duration",
          "type": "uint256"
        },
        {
          "internalType": "uint256",
          "name": "released",
          "type": "uint256"
        },
        {
          "internalType": "bool",
          "name": "revocable",
          "type": "bool"
        },
        {
          "internalType": "bool",
          "name": "revoked",
          "type": "bool"
        },
        {
          "internalType": "address",
          "name": "revoker",
          "type": "address"
        }
      ],
      "stateMutability": "view",
      "type": "function"
    },
    {
      "stateMutability": "payable",
      "type": "receive"
    }
  ],
  "bytecode": "0x6080604052348015600e575f5ffd5b50610a5b8061001c5f395ff3fe608060405260043610610057575f3560e01c80630f038d41146100625780631031d18f1461008a57806320c5429b1461009d57806337bdc99b146100be578063bdc6d9ab146100dd578063e4bf01a8146101b9575f5ffd5b3661005e57005b5f5ffd5b34801561006d575f5ffd5b5061007760015481565b6040519081526020015b60405180910390f35b6100776100983660046108e6565b6101d8565b3480156100a8575f5ffd5b506100bc6100b736600461095e565b6104d0565b005b3480156100c9575f5ffd5b506100bc6100d836600461095e565b6105ef565b3480156100e8575f5ffd5b5061015c6100f736600461095e565b5f60208190529081526040902080546001820154600283015460038401546004850154600586015460068701546007909701546001600160a01b039687169795871696949593949293919260ff8083169261010081049091169162010000909104168a565b604080516001600160a01b039b8c168152998b1660208b01528901979097526060880195909552608087019390935260a086019190915260c0850152151560e0840152151561010083015290911661012082015261014001610081565b3480156101c4575f5ffd5b506100776101d336600461095e565b6106e5565b5f8315806101e557508385115b1561020357604051637616640160e01b815260040160405180910390fd5b6001600160a01b038816610258578634146102535760405162461bcd60e51b815260206004820152600c60248201526b08aa890be9a92a69a82a886960a31b604482015260640160405180910390fd5b6102ce565b6040516323b872dd60e01b8152336004820152306024820152604481018890526001600160a01b038916906323b872dd906064016020604051808303815f875af11580156102a8573d5f5f3e3d5ffd5b505050506040513d601f19601f820116820180604052508101906102cc9190610975565b505b60018054905f6102dd836109ab565b9190505590506040518061014001604052808a6001600160a01b03168152602001896001600160a01b031681526020018881526020018781526020018681526020018581526020015f815260200184151581526020015f15158152602001836001600160a01b03168152505f5f8381526020019081526020015f205f820151815f015f6101000a8154816001600160a01b0302191690836001600160a01b031602179055506020820151816001015f6101000a8154816001600160a01b0302191690836001600160a01b0316021790555060408201518160020155606082015181600301556080820151816004015560a0820151816005015560c0820151816006015560e0820151816007015f6101000a81548160ff0219169083151502179055506101008201518160070160016101000a81548160ff0219169083151502179055506101208201518160070160026101000a8154816001600160a01b0302191690836001600160a01b03160217905550905050886001600160a01b0316817fcc0d6e1355c255fcd002259c1b6ed991322161e4f554f7b98bb1547644db73be8a8a8a8a8a6040516104bc9594939291906001600160a01b03959095168552602085019390935260408401919091526060830152608082015260a00190565b60405180910390a398975050505050505050565b5f818152602081905260409020600781015460ff1661050257604051632ad3d44f60e01b815260040160405180910390fd5b60078101546201000090046001600160a01b0316331461053557604051632ad3d44f60e01b815260040160405180910390fd5b6007810154610100900460ff16156105605760405163905e710760e01b815260040160405180910390fd5b60078101805461ff001916610100179055600681015460028201545f91610586916109c3565b600783015460018401549192506105b0916001600160a01b036201000090920482169116836107a4565b827f9512e2d66d9b885c324382c80570578a239c21840d3ce4e7607e9583440f49c9826040516105e291815260200190565b60405180910390a2505050565b5f81815260208190526040902080546001600160a01b031633146106265760405163644d871f60e01b815260040160405180910390fd5b6007810154610100900460ff16156106515760405163905e710760e01b815260040160405180910390fd5b5f61065b836106e5565b9050805f0361067d5760405163b10205ed60e01b815260040160405180910390fd5b80826006015f82825461069091906109dc565b9091555050815460018301546106b3916001600160a01b039081169116836107a4565b827fd5840651550c173a8bf246eede440a59253bc61eadb2e8887168faad2fad631d826040516105e291815260200190565b5f8181526020819052604081206004810154600382015461070691906109dc565b42101561071557505f92915050565b6007810154610100900460ff161561072f57505f92915050565b5f81600301544261074091906109c3565b905081600501548110610769578160060154826002015461076191906109c3565b949350505050565b5f826005015482846002015461077f91906109ef565b6107899190610a06565b905082600601548161079b91906109c3565b95945050505050565b6001600160a01b038216610828575f836001600160a01b0316826040515f6040518083038185875af1925050503d805f81146107fb576040519150601f19603f3d011682016040523d82523d5f602084013e610800565b606091505b5050905080610822576040516312171d8360e31b815260040160405180910390fd5b50505050565b60405163a9059cbb60e01b81526001600160a01b038481166004830152602482018390525f919084169063a9059cbb906044016020604051808303815f875af1158015610877573d5f5f3e3d5ffd5b505050506040513d601f19601f8201168201806040525081019061089b9190610975565b905080610822576040516312171d8360e31b815260040160405180910390fd5b80356001600160a01b03811681146108d1575f5ffd5b919050565b80151581146108e3575f5ffd5b50565b5f5f5f5f5f5f5f5f610100898b0312156108fe575f5ffd5b610907896108bb565b975061091560208a016108bb565b965060408901359550606089013594506080890135935060a0890135925060c0890135610941816108d6565b915061094f60e08a016108bb565b90509295985092959890939650565b5f6020828403121561096e575f5ffd5b5035919050565b5f60208284031215610985575f5ffd5b8151610990816108d6565b9392505050565b634e487b7160e01b5f52601160045260245ffd5b5f600182016109bc576109bc610997565b5060010190565b818103818111156109d6576109d6610997565b92915050565b808201808211156109d6576109d6610997565b80820281158282048414176109d6576109d6610997565b5f82610a2057634e487b7160e01b5f52601260045260245ffd5b50049056fea2646970667358221220ce2b5c0beb9774e68cb1da887c4f9d89eeabbf0148efc16cd8581405841abcc464736f6c634300081c0033",
  "linkReferences": {},
  "deployedLinkReferences": {},
  "immutableReferences": {},
  "inputSourceName": "project/contracts/core/TimeLockVesting.sol",
  "buildInfoId": "solc-0_8_28-a7b10f17812b6a4fd363a80c855bc620268549eb"
}