{
  "_format": "hh3-artifact-1",
  "contractName": "RuleItemERC721",
  "sourceName": "contracts/core/RuleItemERC721.sol",
  "abi": [
    {
      "inputs": [
        {
          "internalType": "string",
          "name": "name",
          "type": "string"
        },
        {
          "internalType": "string",
          "name": "symbol",
          "type": "string"
        }
      ],
      "stateMutability": "nonpayable",
      "type": "constructor"
    },
    {
      "inputs": [],
      "name": "AccessControlBadConfirmation",
      "type": "error"
    },
    {
      "inputs": [
        {
          "internalType": "address",
          "name": "account",
          "type": "address"
        },
        {
          "internalType": "bytes32",
          "name": "neededRole",
          "type": "bytes32"
        }
      ],
      "name": "AccessControlUnauthorizedAccount",
      "type": "error"
    },
    {
      "inputs": [],
      "name": "AlreadyInitialized",
      "type": "error"
    },
    {
      "inputs": [
        {
          "internalType": "address",
          "name": "sender",
          "type": "address"
        },
        {
          "internalType": "uint256",
          "name": "tokenId",
          "type": "uint256"
        },
        {
          "internalType": "address",
          "name": "owner",
          "type": "address"
        }
      ],
      "name": "ERC721IncorrectOwner",
      "type": "error"
    },
    {
      "inputs": [
        {
          "internalType": "address",
          "name": "operator",
          "type": "address"
        },
        {
          "internalType": "uint256",
          "name": "tokenId",
          "type": "uint256"
        }
      ],
      "name": "ERC721InsufficientApproval",
      "type": "error"
    },
    {
      "inputs": [
        {
          "internalType": "address",
          "name": "approver",
          "type": "address"
        }
      ],
      "name": "ERC721InvalidApprover",
      "type": "error"
    },
    {
      "inputs": [
        {
          "internalType": "address",
          "name": "operator",
          "type": "address"
        }
      ],
      "name": "ERC721InvalidOperator",
      "type": "error"
    },
    {
      "inputs": [
        {
          "internalType": "address",
          "name": "owner",
          "type": "address"
        }
      ],
      "name": "ERC721InvalidOwner",
      "type": "error"
    },
    {
      "inputs": [
        {
          "internalType": "address",
          "name": "receiver",
          "type": "address"
        }
      ],
      "name": "ERC721InvalidReceiver",
      "type": "error"
    },
    {
      "inputs": [
        {
          "internalType": "address",
          "name": "sender",
          "type": "address"
        }
      ],
      "name": "ERC721InvalidSender",
      "type": "error"
    },
    {
      "inputs": [
        {
          "internalType": "uint256",
          "name": "tokenId",
          "type": "uint256"
        }
      ],
      "name": "ERC721NonexistentToken",
      "type": "error"
    },
    {
      "inputs": [],
      "name": "EnforcedPause",
      "type": "error"
    },
    {
      "inputs": [],
      "name": "ExpectedPause",
      "type": "error"
    },
    {
      "inputs": [],
      "name": "ZeroAddress",
      "type": "error"
    },
    {
      "anonymous": false,
      "inputs": [
        {
          "indexed": true,
          "internalType": "address",
          "name": "owner",
          "type": "address"
        },
        {
          "indexed": true,
          "internalType": "address",
          "name": "approved",
          "type": "address"
        },
        {
          "indexed": true,
          "internalType": "uint256",
          "name": "tokenId",
          "type": "uint256"
        }
      ],
      "name": "Approval",
      "type": "event"
    },
    {
      "anonymous": false,
      "inputs": [
        {
          "indexed": true,
          "internalType": "address",
          "name": "owner",
          "type": "address"
        },
        {
          "indexed": true,
          "internalType": "address",
          "name": "operator",
          "type": "address"
        },
        {
          "indexed": false,
          "internalType": "bool",
          "name": "approved",
          "type": "bool"
        }
      ],
      "name": "ApprovalForAll",
      "type": "event"
    },
    {
      "anonymous": false,
      "inputs": [
        {
          "indexed": false,
          "internalType": "uint256",
          "name": "_fromTokenId",
          "type": "uint256"
        },
        {
          "indexed": false,
          "internalType": "uint256",
          "name": "_toTokenId",
          "type": "uint256"
        }
      ],
      "name": "BatchMetadataUpdate",
      "type": "event"
    },
    {
      "anonymous": false,
      "inputs": [
        {
          "indexed": true,
          "internalType": "address",
          "name": "admin",
          "type": "address"
        },
        {
          "indexed": true,
          "internalType": "address",
          "name": "oracle",
          "type": "address"
        }
      ],
      "name": "Initialized",
      "type": "event"
    },
    {
      "anonymous": false,
      "inputs": [
        {
          "indexed": false,
          "internalType": "uint256",
          "name": "_tokenId",
          "type": "uint256"
        }
      ],
      "name": "MetadataUpdate",
      "type": "event"
    },
    {
      "anonymous": false,
      "inputs": [
        {
          "indexed": true,
          "internalType": "address",
          "name": "oldFeed",
          "type": "address"
        },
        {
          "indexed": true,
          "internalType": "address",
          "name": "newFeed",
          "type": "address"
        }
      ],
      "name": "OracleUpdated",
      "type": "event"
    },
    {
      "anonymous": false,
      "inputs": [
        {
          "indexed": false,
          "internalType": "address",
          "name": "account",
          "type": "address"
        }
      ],
      "name": "Paused",
      "type": "event"
    },
    {
      "anonymous": false,
      "inputs": [
        {
          "indexed": true,
          "internalType": "bytes32",
          "name": "role",
          "type": "bytes32"
        },
        {
          "indexed": true,
          "internalType": "bytes32",
          "name": "previousAdminRole",
          "type": "bytes32"
        },
        {
          "indexed": true,
          "internalType": "bytes32",
          "name": "newAdminRole",
          "type": "bytes32"
        }
      ],
      "name": "RoleAdminChanged",
      "type": "event"
    },
    {
      "anonymous": false,
      "inputs": [
        {
          "indexed": true,
          "internalType": "bytes32",
          "name": "role",
          "type": "bytes32"
        },
        {
          "indexed": true,
          "internalType": "address",
          "name": "account",
          "type": "address"
        },
        {
          "indexed": true,
          "internalType": "address",
          "name": "sender",
          "type": "address"
        }
      ],
      "name": "RoleGranted",
      "type": "event"
    },
    {
      "anonymous": false,
      "inputs": [
        {
          "indexed": true,
          "internalType": "bytes32",
          "name": "role",
          "type": "bytes32"
        },
        {
          "indexed": true,
          "internalType": "address",
          "name": "account",
          "type": "address"
        },
        {
          "indexed": true,
          "internalType": "address",
          "name": "sender",
          "type": "address"
        }
      ],
      "name": "RoleRevoked",
      "type": "event"
    },
    {
      "anonymous": false,
      "inputs": [
        {
          "indexed": true,
          "internalType": "uint256",
          "name": "ruleId",
          "type": "uint256"
        },
        {
          "indexed": true,
          "internalType": "uint256",
          "name": "tokenId",
          "type": "uint256"
        }
      ],
      "name": "RuleActivated",
      "type": "event"
    },
    {
      "anonymous": false,
      "inputs": [
        {
          "indexed": true,
          "internalType": "uint256",
          "name": "ruleId",
          "type": "uint256"
        },
        {
          "indexed": true,
          "internalType": "uint256",
          "name": "rootRuleId",
          "type": "uint256"
        },
        {
          "indexed": true,
          "internalType": "uint256",
          "name": "parentRuleId",
          "type": "uint256"
        },
        {
          "indexed": false,
          "internalType": "uint16",
          "name": "version",
          "type": "uint16"
        }
      ],
      "name": "RuleCreated",
      "type": "event"
    },
    {
      "anonymous": false,
      "inputs": [
        {
          "indexed": true,
          "internalType": "uint256",
          "name": "ruleId",
          "type": "uint256"
        }
      ],
      "name": "RuleDeprecated",
      "type": "event"
    },
    {
      "anonymous": false,
      "inputs": [
        {
          "indexed": true,
          "internalType": "uint256",
          "name": "tokenId",
          "type": "uint256"
        },
        {
          "indexed": false,
          "internalType": "uint256",
          "name": "newExpiry",
          "type": "uint256"
        }
      ],
      "name": "RuleExpiryExtended",
      "type": "event"
    },
    {
      "anonymous": false,
      "inputs": [
        {
          "indexed": true,
          "internalType": "address",
          "name": "user",
          "type": "address"
        },
        {
          "indexed": false,
          "internalType": "uint256",
          "name": "expiry",
          "type": "uint256"
        }
      ],
      "name": "Subscribed",
      "type": "event"
    },
    {
      "anonymous": false,
      "inputs": [
        {
          "indexed": false,
          "internalType": "uint256",
          "name": "newCents",
          "type": "uint256"
        }
      ],
      "name": "SubscriptionUsdCentsUpdated",
      "type": "event"
    },
    {
      "anonymous": false,
      "inputs": [
        {
          "indexed": true,
          "internalType": "address",
          "name": "from",
          "type": "address"
        },
        {
          "indexed": true,
          "internalType": "address",
          "name": "to",
          "type": "address"
        },
        {
          "indexed": true,
          "internalType": "uint256",
          "name": "tokenId",
          "type": "uint256"
        }
      ],
      "name": "Transfer",
      "type": "event"
    },
    {
      "anonymous": false,
      "inputs": [
        {
          "indexed": true,
          "internalType": "address",
          "name": "to",
          "type": "address"
        },
        {
          "indexed": false,
          "internalType": "uint256",
          "name": "amount",
          "type": "uint256"
        }
      ],
      "name": "TreasuryWithdrawn",
      "type": "event"
    },
    {
      "anonymous": false,
      "inputs": [
        {
          "indexed": false,
          "internalType": "address",
          "name": "account",
          "type": "address"
        }
      ],
      "name": "Unpaused",
      "type": "event"
    },
    {
      "inputs": [],
      "name": "DEFAULT_ADMIN_ROLE",
      "outputs": [
        {
          "internalType": "bytes32",
          "name": "",
          "type": "bytes32"
        }
      ],
      "stateMutability": "view",
      "type": "function"
    },
    {
      "inputs": [],
      "name": "MAX_SLOT",
      "outputs": [
        {
          "internalType": "uint8",
          "name": "",
          "type": "uint8"
        }
      ],
      "stateMutability": "view",
      "type": "function"
    },
    {
      "inputs": [],
      "name": "SUB_DURATION",
      "outputs": [
        {
          "internalType": "uint256",
          "name": "",
          "type": "uint256"
        }
      ],
      "stateMutability": "view",
      "type": "function"
    },
    {
      "inputs": [
        {
          "internalType": "uint256",
          "name": "ruleId",
          "type": "uint256"
        }
      ],
      "name": "activateRule",
      "outputs": [
        {
          "internalType": "uint256",
          "name": "tokenId",
          "type": "uint256"
        }
      ],
      "stateMutability": "nonpayable",
      "type": "function"
    },
    {
      "inputs": [
        {
          "internalType": "uint256",
          "name": "",
          "type": "uint256"
        }
      ],
      "name": "activeRuleOf",
      "outputs": [
        {
          "internalType": "uint256",
          "name": "",
          "type": "uint256"
        }
      ],
      "stateMutability": "view",
      "type": "function"
    },
    {
      "inputs": [
        {
          "internalType": "address",
          "name": "to",
          "type": "address"
        },
        {
          "internalType": "uint256",
          "name": "tokenId",
          "type": "uint256"
        }
      ],
      "name": "approve",
      "outputs": [],
      "stateMutability": "nonpayable",
      "type": "function"
    },
    {
      "inputs": [
        {
          "internalType": "address",
          "name": "owner",
          "type": "address"
        }
      ],
      "name": "balanceOf",
      "outputs": [
        {
          "internalType": "uint256",
          "name": "",
          "type": "uint256"
        }
      ],
      "stateMutability": "view",
      "type": "function"
    },
    {
      "inputs": [
        {
          "internalType": "uint256",
          "name": "tokenId",
          "type": "uint256"
        }
      ],
      "name": "burnExpired",
      "outputs": [],
      "stateMutability": "nonpayable",
      "type": "function"
    },
    {
      "inputs": [
        {
          "internalType": "bytes32",
          "name": "ruleHash",
          "type": "bytes32"
        },
        {
          "internalType": "string",
          "name": "uri",
          "type": "string"
        }
      ],
      "name": "createRule",
      "outputs": [
        {
          "internalType": "uint256",
          "name": "ruleId",
          "type": "uint256"
        }
      ],
      "stateMutability": "nonpayable",
      "type": "function"
    },
    {
      "inputs": [
        {
          "internalType": "uint256",
          "name": "parentRuleId",
          "type": "uint256"
        },
        {
          "internalType": "bytes32",
          "name": "newHash",
          "type": "bytes32"
        },
        {
          "internalType": "string",
          "name": "newUri",
          "type": "string"
        }
      ],
      "name": "createRuleVersion",
      "outputs": [
        {
          "internalType": "uint256",
          "name": "ruleId",
          "type": "uint256"
        }
      ],
      "stateMutability": "nonpayable",
      "type": "function"
    },
    {
      "inputs": [],
      "name": "deployer",
      "outputs": [
        {
          "internalType": "address",
          "name": "",
          "type": "address"
        }
      ],
      "stateMutability": "view",
      "type": "function"
    },
    {
      "inputs": [],
      "name": "ethUsdFeed",
      "outputs": [
        {
          "internalType": "contract IAggregatorV3",
          "name": "",
          "type": "address"
        }
      ],
      "stateMutability": "view",
      "type": "function"
    },
    {
      "inputs": [
        {
          "internalType": "uint256",
          "name": "tokenId",
          "type": "uint256"
        },
        {
          "internalType": "uint256",
          "name": "newExpiry",
          "type": "uint256"
        }
      ],
      "name": "extendRuleExpiry",
      "outputs": [],
      "stateMutability": "payable",
      "type": "function"
    },
    {
      "inputs": [
        {
          "internalType": "uint256",
          "name": "tokenId",
          "type": "uint256"
        }
      ],
      "name": "getApproved",
      "outputs": [
        {
          "internalType": "address",
          "name": "",
          "type": "address"
        }
      ],
      "stateMutability": "view",
      "type": "function"
    },
    {
      "inputs": [
        {
          "internalType": "bytes32",
          "name": "role",
          "type": "bytes32"
        }
      ],
      "name": "getRoleAdmin",
      "outputs": [
        {
          "internalType": "bytes32",
          "name": "",
          "type": "bytes32"
        }
      ],
      "stateMutability": "view",
      "type": "function"
    },
    {
      "inputs": [
        {
          "internalType": "uint256",
          "name": "ruleId",
          "type": "uint256"
        }
      ],
      "name": "getRule",
      "outputs": [
        {
          "internalType": "bytes32",
          "name": "hash",
          "type": "bytes32"
        },
        {
          "internalType": "string",
          "name": "uri",
          "type": "string"
        },
        {
          "internalType": "address",
          "name": "creator",
          "type": "address"
        },
        {
          "internalType": "uint256",
          "name": "rootRuleId",
          "type": "uint256"
        },
        {
          "internalType": "uint16",
          "name": "version",
          "type": "uint16"
        },
        {
          "internalType": "bool",
          "name": "deprecated",
          "type": "bool"
        },
        {
          "internalType": "bool",
          "name": "active",
          "type": "bool"
        }
      ],
      "stateMutability": "view",
      "type": "function"
    },
    {
      "inputs": [
        {
          "internalType": "bytes32",
          "name": "role",
          "type": "bytes32"
        },
        {
          "internalType": "address",
          "name": "account",
          "type": "address"
        }
      ],
      "name": "grantRole",
      "outputs": [],
      "stateMutability": "nonpayable",
      "type": "function"
    },
    {
      "inputs": [
        {
          "internalType": "bytes32",
          "name": "role",
          "type": "bytes32"
        },
        {
          "internalType": "address",
          "name": "account",
          "type": "address"
        }
      ],
      "name": "hasRole",
      "outputs": [
        {
          "internalType": "bool",
          "name": "",
          "type": "bool"
        }
      ],
      "stateMutability": "view",
      "type": "function"
    },
    {
      "inputs": [
        {
          "internalType": "address",
          "name": "user",
          "type": "address"
        }
      ],
      "name": "hasSubscription",
      "outputs": [
        {
          "internalType": "bool",
          "name": "",
          "type": "bool"
        }
      ],
      "stateMutability": "view",
      "type": "function"
    },
    {
      "inputs": [
        {
          "internalType": "address",
          "name": "admin",
          "type": "address"
        },
        {
          "internalType": "address",
          "name": "oracle",
          "type": "address"
        }
      ],
      "name": "initialize",
      "outputs": [],
      "stateMutability": "nonpayable",
      "type": "function"
    },
    {
      "inputs": [
        {
          "internalType": "address",
          "name": "owner",
          "type": "address"
        },
        {
          "internalType": "address",
          "name": "operator",
          "type": "address"
        }
      ],
      "name": "isApprovedForAll",
      "outputs": [
        {
          "internalType": "bool",
          "name": "",
          "type": "bool"
        }
      ],
      "stateMutability": "view",
      "type": "function"
    },
    {
      "inputs": [],
      "name": "isInitialized",
      "outputs": [
        {
          "internalType": "bool",
          "name": "",
          "type": "bool"
        }
      ],
      "stateMutability": "view",
      "type": "function"
    },
    {
      "inputs": [
        {
          "internalType": "address",
          "name": "",
          "type": "address"
        }
      ],
      "name": "logicalRuleCount",
      "outputs": [
        {
          "internalType": "uint8",
          "name": "",
          "type": "uint8"
        }
      ],
      "stateMutability": "view",
      "type": "function"
    },
    {
      "inputs": [],
      "name": "name",
      "outputs": [
        {
          "internalType": "string",
          "name": "",
          "type": "string"
        }
      ],
      "stateMutability": "view",
      "type": "function"
    },
    {
      "inputs": [],
      "name": "nextRuleId",
      "outputs": [
        {
          "internalType": "uint256",
          "name": "",
          "type": "uint256"
        }
      ],
      "stateMutability": "view",
      "type": "function"
    },
    {
      "inputs": [],
      "name": "nextTokenId",
      "outputs": [
        {
          "internalType": "uint256",
          "name": "",
          "type": "uint256"
        }
      ],
      "stateMutability": "view",
      "type": "function"
    },
    {
      "inputs": [
        {
          "internalType": "uint256",
          "name": "tokenId",
          "type": "uint256"
        }
      ],
      "name": "ownerOf",
      "outputs": [
        {
          "internalType": "address",
          "name": "",
          "type": "address"
        }
      ],
      "stateMutability": "view",
      "type": "function"
    },
    {
      "inputs": [],
      "name": "pause",
      "outputs": [],
      "stateMutability": "nonpayable",
      "type": "function"
    },
    {
      "inputs": [],
      "name": "paused",
      "outputs": [
        {
          "internalType": "bool",
          "name": "",
          "type": "bool"
        }
      ],
      "stateMutability": "view",
      "type": "function"
    },
    {
      "inputs": [
        {
          "internalType": "bytes32",
          "name": "role",
          "type": "bytes32"
        },
        {
          "internalType": "address",
          "name": "callerConfirmation",
          "type": "address"
        }
      ],
      "name": "renounceRole",
      "outputs": [],
      "stateMutability": "nonpayable",
      "type": "function"
    },
    {
      "inputs": [
        {
          "internalType": "bytes32",
          "name": "role",
          "type": "bytes32"
        },
        {
          "internalType": "address",
          "name": "account",
          "type": "address"
        }
      ],
      "name": "revokeRole",
      "outputs": [],
      "stateMutability": "nonpayable",
      "type": "function"
    },
    {
      "inputs": [
        {
          "internalType": "uint256",
          "name": "",
          "type": "uint256"
        }
      ],
      "name": "rootRuleOf",
      "outputs": [
        {
          "internalType": "uint256",
          "name": "",
          "type": "uint256"
        }
      ],
      "stateMutability": "view",
      "type": "function"
    },
    {
      "inputs": [
        {
          "internalType": "uint256",
          "name": "",
          "type": "uint256"
        }
      ],
      "name": "ruleExpiry",
      "outputs": [
        {
          "internalType": "uint256",
          "name": "",
          "type": "uint256"
        }
      ],
      "stateMutability": "view",
      "type": "function"
    },
    {
      "inputs": [
        {
          "internalType": "uint256",
          "name": "",
          "type": "uint256"
        }
      ],
      "name": "ruleTokenId",
      "outputs": [
        {
          "internalType": "uint256",
          "name": "",
          "type": "uint256"
        }
      ],
      "stateMutability": "view",
      "type": "function"
    },
    {
      "inputs": [
        {
          "internalType": "uint256",
          "name": "",
          "type": "uint256"
        }
      ],
      "name": "rules",
      "outputs": [
        {
          "internalType": "bytes32",
          "name": "ruleHash",
          "type": "bytes32"
        },
        {
          "internalType": "string",
          "name": "uri",
          "type": "string"
        },
        {
          "internalType": "address",
          "name": "creator",
          "type": "address"
        },
        {
          "internalType": "uint256",
          "name": "parentRuleId",
          "type": "uint256"
        },
        {
          "internalType": "uint16",
          "name": "version",
          "type": "uint16"
        },
        {
          "internalType": "bool",
          "name": "deprecated",
          "type": "bool"
        },
        {
          "internalType": "uint256",
          "name": "tokenId",
          "type": "uint256"
        }
      ],
      "stateMutability": "view",
      "type": "function"
    },
    {
      "inputs": [
        {
          "internalType": "address",
          "name": "from",
          "type": "address"
        },
        {
          "internalType": "address",
          "name": "to",
          "type": "address"
        },
        {
          "internalType": "uint256",
          "name": "tokenId",
          "type": "uint256"
        }
      ],
      "name": "safeTransferFrom",
      "outputs": [],
      "stateMutability": "nonpayable",
      "type": "function"
    },
    {
      "inputs": [
        {
          "internalType": "address",
          "name": "from",
          "type": "address"
        },
        {
          "internalType": "address",
          "name": "to",
          "type": "address"
        },
        {
          "internalType": "uint256",
          "name": "tokenId",
          "type": "uint256"
        },
        {
          "internalType": "bytes",
          "name": "data",
          "type": "bytes"
        }
      ],
      "name": "safeTransferFrom",
      "outputs": [],
      "stateMutability": "nonpayable",
      "type": "function"
    },
    {
      "inputs": [
        {
          "internalType": "address",
          "name": "operator",
          "type": "address"
        },
        {
          "internalType": "bool",
          "name": "approved",
          "type": "bool"
        }
      ],
      "name": "setApprovalForAll",
      "outputs": [],
      "stateMutability": "nonpayable",
      "type": "function"
    },
    {
      "inputs": [
        {
          "internalType": "address",
          "name": "newFeed",
          "type": "address"
        }
      ],
      "name": "setOracle",
      "outputs": [],
      "stateMutability": "nonpayable",
      "type": "function"
    },
    {
      "inputs": [
        {
          "internalType": "uint256",
          "name": "newCents",
          "type": "uint256"
        }
      ],
      "name": "setSubscriptionUsdCents",
      "outputs": [],
      "stateMutability": "nonpayable",
      "type": "function"
    },
    {
      "inputs": [],
      "name": "subscribe",
      "outputs": [],
      "stateMutability": "payable",
      "type": "function"
    },
    {
      "inputs": [
        {
          "internalType": "address",
          "name": "",
          "type": "address"
        }
      ],
      "name": "subscriptionExpiry",
      "outputs": [
        {
          "internalType": "uint256",
          "name": "",
          "type": "uint256"
        }
      ],
      "stateMutability": "view",
      "type": "function"
    },
    {
      "inputs": [],
      "name": "subscriptionPriceETH",
      "outputs": [
        {
          "internalType": "uint256",
          "name": "",
          "type": "uint256"
        }
      ],
      "stateMutability": "view",
      "type": "function"
    },
    {
      "inputs": [],
      "name": "subscriptionUsdCents",
      "outputs": [
        {
          "internalType": "uint256",
          "name": "",
          "type": "uint256"
        }
      ],
      "stateMutability": "view",
      "type": "function"
    },
    {
      "inputs": [
        {
          "internalType": "bytes4",
          "name": "interfaceId",
          "type": "bytes4"
        }
      ],
      "name": "supportsInterface",
      "outputs": [
        {
          "internalType": "bool",
          "name": "",
          "type": "bool"
        }
      ],
      "stateMutability": "view",
      "type": "function"
    },
    {
      "inputs": [],
      "name": "symbol",
      "outputs": [
        {
          "internalType": "string",
          "name": "",
          "type": "string"
        }
      ],
      "stateMutability": "view",
      "type": "function"
    },
    {
      "inputs": [
        {
          "internalType": "uint256",
          "name": "",
          "type": "uint256"
        }
      ],
      "name": "tokenRule",
      "outputs": [
        {
          "internalType": "uint256",
          "name": "",
          "type": "uint256"
        }
      ],
      "stateMutability": "view",
      "type": "function"
    },
    {
      "inputs": [
        {
          "internalType": "uint256",
          "name": "tokenId",
          "type": "uint256"
        }
      ],
      "name": "tokenURI",
      "outputs": [
        {
          "internalType": "string",
          "name": "",
          "type": "string"
        }
      ],
      "stateMutability": "view",
      "type": "function"
    },
    {
      "inputs": [
        {
          "internalType": "address",
          "name": "from",
          "type": "address"
        },
        {
          "internalType": "address",
          "name": "to",
          "type": "address"
        },
        {
          "internalType": "uint256",
          "name": "tokenId",
          "type": "uint256"
        }
      ],
      "name": "transferFrom",
      "outputs": [],
      "stateMutability": "nonpayable",
      "type": "function"
    },
    {
      "inputs": [],
      "name": "treasuryBalance",
      "outputs": [
        {
          "internalType": "uint256",
          "name": "",
          "type": "uint256"
        }
      ],
      "stateMutability": "view",
      "type": "function"
    },
    {
      "inputs": [],
      "name": "unpause",
      "outputs": [],
      "stateMutability": "nonpayable",
      "type": "function"
    },
    {
      "inputs": [
        {
          "internalType": "address",
          "name": "to",
          "type": "address"
        }
      ],
      "name": "withdrawAllTreasury",
      "outputs": [],
      "stateMutability": "nonpayable",
      "type": "function"
    },
    {
      "inputs": [
        {
          "internalType": "address",
          "name": "to",
          "type": "address"
        },
        {
          "internalType": "uint256",
          "name": "amount",
          "type": "uint256"
        }
      ],
      "name": "withdrawTreasury",
      "outputs": [],
      "stateMutability": "nonpayable",
      "type": "function"
    }
  ],
  "bytecode": "0x60a06040526023600955348015610014575f5ffd5b50604051613a6b380380613a6b833981016040819052610033916100f9565b81815f61004083826101e2565b50600161004d82826101e2565b5050336080525061029c915050565b634e487b7160e01b5f52604160045260245ffd5b5f82601f83011261007f575f5ffd5b81516001600160401b038111156100985761009861005c565b604051601f8201601f19908116603f011681016001600160401b03811182821017156100c6576100c661005c565b6040528181528382016020018510156100dd575f5ffd5b8160208501602083015e5f918101602001919091529392505050565b5f5f6040838503121561010a575f5ffd5b82516001600160401b0381111561011f575f5ffd5b61012b85828601610070565b602085015190935090506001600160401b03811115610148575f5ffd5b61015485828601610070565b9150509250929050565b600181811c9082168061017257607f821691505b60208210810361019057634e487b7160e01b5f52602260045260245ffd5b50919050565b601f8211156101dd57805f5260205f20601f840160051c810160208510156101bb5750805b601f840160051c820191505b818110156101da575f81556001016101c7565b50505b505050565b81516001600160401b038111156101fb576101fb61005c565b61020f81610209845461015e565b84610196565b6020601f821160018114610241575f831561022a5750848201515b5f19600385901b1c1916600184901b1784556101da565b5f84815260208120601f198516915b828110156102705787850151825560209485019460019092019101610250565b508482101561028d57868401515f19600387901b60f8161c191681555b50505050600190811b01905550565b6080516137b06102bb5f395f81816108ec015261217d01526137b05ff3fe60806040526004361061030d575f3560e01c80637514e80e116101a3578063b88d4fde116100f2578063d5f3948811610092578063e3d583611161006d578063e3d5836114610979578063e985e9c51461098c578063f4a96d22146109ab578063f4f7596a146109bf575f5ffd5b8063d5f39488146108db578063d60d36b61461090e578063d90190201461094e575f5ffd5b8063d098769b116100cd578063d098769b14610873578063d2f2970714610892578063d36013ce146108a8578063d547741f146108bc575f5ffd5b8063b88d4fde1461080a578063c40df85414610829578063c87b56dd14610854575f5ffd5b80638f449a051161015d5780639f6d7884116101385780639f6d788414610782578063a217fddf146107ad578063a22cb465146107c0578063a28f6260146107df575f5ffd5b80638f449a051461074757806391d148541461074f57806395d89b411461076e575f5ffd5b80637514e80e1461068a57806375794a3c146106c15780637adbf973146106d65780638009b7bd146106f55780638456cb591461071457806388d6b10e14610728575f5ffd5b8063313dab201161025f578063485cc955116102195780636352211e116101f45780636352211e1461061857806370a082311461063757806370f047b01461065657806374cdfa511461066b575f5ffd5b8063485cc955146105b75780635c975abb146105d657806360a85ef5146105ed575f5ffd5b8063313dab201461050757806336568abe1461051c578063392e53cd1461053b5780633f4ba83a1461055257806342842e0e146105665780634846203714610585575f5ffd5b80630d86419a116102ca578063248a9ca3116102a5578063248a9ca3146104865780632b942d5b146104b45780632bca0efb146104d35780632f2ff15d146104e8575f5ffd5b80630d86419a1461042957806323b872dd1461044857806323f889fc14610467575f5ffd5b806301ffc9a71461031157806304d6ded41461034557806305a891191461037757806306fdde03146103b0578063081812fc146103d1578063095ea7b314610408575b5f5ffd5b34801561031c575f5ffd5b5061033061032b36600461303a565b6109de565b60405190151581526020015b60405180910390f35b348015610350575f5ffd5b5061036461035f366004613055565b6109ee565b60405161033c979695949392919061309a565b348015610382575f5ffd5b506103a2610391366004613055565b60116020525f908152604090205481565b60405190815260200161033c565b3480156103bb575f5ffd5b506103c4610ac3565b60405161033c91906130eb565b3480156103dc575f5ffd5b506103f06103eb366004613055565b610b52565b6040516001600160a01b03909116815260200161033c565b348015610413575f5ffd5b50610427610422366004613118565b610b79565b005b348015610434575f5ffd5b50610427610443366004613118565b610b88565b348015610453575f5ffd5b50610427610462366004613140565b610d43565b348015610472575f5ffd5b506103a26104813660046131bf565b610dcc565b348015610491575f5ffd5b506103a26104a0366004613055565b5f9081526007602052604090206001015490565b3480156104bf575f5ffd5b506103a26104ce366004613055565b611034565b3480156104de575f5ffd5b506103a260095481565b3480156104f3575f5ffd5b50610427610502366004613207565b61137b565b348015610512575f5ffd5b506103a260175481565b348015610527575f5ffd5b50610427610536366004613207565b61139f565b348015610546575f5ffd5b50600d5460ff16610330565b34801561055d575f5ffd5b506104276113d7565b348015610571575f5ffd5b50610427610580366004613140565b61140c565b348015610590575f5ffd5b506105a461059f366004613055565b611426565b60405161033c9796959493929190613231565b3480156105c2575f5ffd5b506104276105d1366004613284565b6115b8565b3480156105e1575f5ffd5b5060085460ff16610330565b3480156105f8575f5ffd5b506103a26106073660046132ac565b60136020525f908152604090205481565b348015610623575f5ffd5b506103f0610632366004613055565b6116c1565b348015610642575f5ffd5b506103a26106513660046132ac565b6116cb565b348015610661575f5ffd5b506103a2600b5481565b348015610676575f5ffd5b50610427610685366004613055565b611710565b348015610695575f5ffd5b506103306106a43660046132ac565b6001600160a01b03165f9081526013602052604090205442111590565b3480156106cc575f5ffd5b506103a2600c5481565b3480156106e1575f5ffd5b506104276106f03660046132ac565b6117a3565b348015610700575f5ffd5b50600a546103f0906001600160a01b031681565b34801561071f575f5ffd5b5061042761193a565b348015610733575f5ffd5b506103a26107423660046132c5565b61196c565b610427611c38565b34801561075a575f5ffd5b50610330610769366004613207565b611d74565b348015610779575f5ffd5b506103c4611d9e565b34801561078d575f5ffd5b506103a261079c366004613055565b60106020525f908152604090205481565b3480156107b8575f5ffd5b506103a25f81565b3480156107cb575f5ffd5b506104276107da366004613314565b611dad565b3480156107ea575f5ffd5b506103a26107f9366004613055565b600f6020525f908152604090205481565b348015610815575f5ffd5b50610427610824366004613361565b611db8565b348015610834575f5ffd5b506103a2610843366004613055565b60156020525f908152604090205481565b34801561085f575f5ffd5b506103c461086e366004613055565b611dd0565b34801561087e575f5ffd5b5061042761088d366004613055565b611ddb565b34801561089d575f5ffd5b506103a262278d0081565b3480156108b3575f5ffd5b506103a2611ef9565b3480156108c7575f5ffd5b506104276108d6366004613207565b612002565b3480156108e6575f5ffd5b506103f07f000000000000000000000000000000000000000000000000000000000000000081565b348015610919575f5ffd5b5061093c6109283660046132ac565b60126020525f908152604090205460ff1681565b60405160ff909116815260200161033c565b348015610959575f5ffd5b506103a2610968366004613055565b60146020525f908152604090205481565b61042761098736600461343e565b612026565b348015610997575f5ffd5b506103306109a6366004613284565b6122a3565b3480156109b6575f5ffd5b5061093c600381565b3480156109ca575f5ffd5b506104276109d93660046132ac565b6122d0565b5f6109e882612419565b92915050565b600e6020525f908152604090208054600182018054919291610a0f9061345e565b80601f0160208091040260200160405190810160405280929190818152602001828054610a3b9061345e565b8015610a865780601f10610a5d57610100808354040283529160200191610a86565b820191905f5260205f20905b815481529060010190602001808311610a6957829003601f168201915b5050505060028301546003840154600485015460059095015493946001600160a01b039092169390925061ffff82169162010000900460ff169087565b60605f8054610ad19061345e565b80601f0160208091040260200160405190810160405280929190818152602001828054610afd9061345e565b8015610b485780601f10610b1f57610100808354040283529160200191610b48565b820191905f5260205f20905b815481529060010190602001808311610b2b57829003601f168201915b5050505050905090565b5f610b5c8261243d565b505f828152600460205260409020546001600160a01b03166109e8565b610b84828233612475565b5050565b5f51602061375b5f395f51905f52610b9f81612482565b6001600160a01b038316610bce5760405162461bcd60e51b8152600401610bc590613496565b60405180910390fd5b5f8211610c0b5760405162461bcd60e51b815260206004820152600b60248201526a16915493d7d05353d5539560aa1b6044820152606401610bc5565b601754821115610c545760405162461bcd60e51b8152602060048201526014602482015273494e53554646494349454e545f42414c414e434560601b6044820152606401610bc5565b8160175f828254610c6591906134d0565b90915550506040515f906001600160a01b0385169084908381818185875af1925050503d805f8114610cb2576040519150601f19603f3d011682016040523d82523d5f602084013e610cb7565b606091505b5050905080610cfa5760405162461bcd60e51b815260206004820152600f60248201526e15d2551211149055d7d19052531151608a1b6044820152606401610bc5565b836001600160a01b03167f41fdd680478135993bc53fb2ffaf9560951b57ef62ff6badd02b61e018b4f17f84604051610d3591815260200190565b60405180910390a250505050565b6001600160a01b038216610d6c57604051633250574960e11b81525f6004820152602401610bc5565b5f610d7883833361248c565b9050836001600160a01b0316816001600160a01b031614610dc6576040516364283d7b60e01b81526001600160a01b0380861660048301526024820184905282166044820152606401610bc5565b50505050565b5f610dd5612561565b83610e165760405162461bcd60e51b81526020600482015260116024820152700929cac82989288bea4aa988abe9082a69607b1b6044820152606401610bc5565b335f90815260136020526040812054421115610e33576001610e36565b60035b335f9081526012602052604090205490915060ff808316911610610e8d5760405162461bcd60e51b815260206004820152600e60248201526d1495531157d4d313d517d195531360921b6044820152606401610bc5565b600b5f8154610e9b906134e3565b91905081905591506040518060e0016040528086815260200185858080601f0160208091040260200160405190810160405280939291908181526020018383808284375f92018290525093855250503360208085019190915260408085018490526001606086018190526080860185905260a0909501849052878452600e825290922084518155918401519192830191610f3691508261353f565b506040828101516002830180546001600160a01b0319166001600160a01b0390921691909117905560608301516003830155608083015160048301805460a086015161ffff90931662ffffff1990911617620100009215159290920291909117905560c0909201516005909101555f8381526010602090815282822085905533825260129052908120805460ff1691610fce836135fa565b91906101000a81548160ff021916908360ff160217905550505f82837f89985676d0f40810abbe2cd55f254fd631b1f8eff9cf8cf89ad8af64c77f87b26001604051611024919061ffff91909116815260200190565b60405180910390a4509392505050565b5f61103d612561565b5f828152600e6020526040902060028101546001600160a01b031633146110945760405162461bcd60e51b815260206004820152600b60248201526a2727aa2fa1a922a0aa27a960a91b6044820152606401610bc5565b600481015462010000900460ff16156110e15760405162461bcd60e51b815260206004820152600f60248201526e1495531157d11154149150d0551151608a1b6044820152606401610bc5565b6005810154156111245760405162461bcd60e51b815260206004820152600e60248201526d414c52454144595f41435449564560901b6044820152606401610bc5565b5f8381526010602090815260408083205480845260119092529091205480156111dd575f818152600e6020526040902060050154801561118e575f818152601660205260409020805460ff1916600117905561117f81612587565b5f818152600f60205260408120555b5f828152600e602052604080822060058101839055600401805462ff00001916620100001790555183917f4816cbba0986a3746458b30f61c423197d79c8128a41811424e7d2cf0459ea7691a2505b335f908152601360205260409020544211156112475760405162461bcd60e51b8152602060048201526024808201527f535542534352495054494f4e5f52455155495245445f464f525f4143544956416044820152632a24a7a760e11b6064820152608401610bc5565b600c5f8154611255906134e3565b9182905550600584018190555f818152600f6020908152604080832089905585835260118252808320899055338084526013835281842054858552601484528285205589845260159092529091208290559094506112b390856125bf565b611347848460010180546112c69061345e565b80601f01602080910402602001604051908101604052809291908181526020018280546112f29061345e565b801561133d5780601f106113145761010080835404028352916020019161133d565b820191905f5260205f20905b81548152906001019060200180831161132057829003601f168201915b5050505050612620565b604051849086907f3db37d72ecec2a06bb99792c387585563a848046fa9f0698dfd52bdd41c2a97b905f90a3505050919050565b5f8281526007602052604090206001015461139581612482565b610dc68383612668565b6001600160a01b03811633146113c85760405163334bd91960e11b815260040160405180910390fd5b6113d282826126f9565b505050565b7f65d7a28e3265b37a6474929f336521b332c1681b933f6cb9f3376673440d862a61140181612482565b611409612764565b50565b6113d283838360405180602001604052805f815250611db8565b5f60605f5f5f5f5f5f600e5f8a81526020019081526020015f206040518060e00160405290815f82015481526020016001820180546114649061345e565b80601f01602080910402602001604051908101604052809291908181526020018280546114909061345e565b80156114db5780601f106114b2576101008083540402835291602001916114db565b820191905f5260205f20905b8154815290600101906020018083116114be57829003601f168201915b505050918352505060028201546001600160a01b0316602082015260038201546040820152600482015461ffff8116606083015262010000900460ff161515608082015260059091015460a090910152805190915061156d5760405162461bcd60e51b815260206004820152600e60248201526d1495531157d393d517d1561254d560921b6044820152606401610bc5565b5f8981526010602090815260408083205480845260118352928190205484519285015191850151608086015160a090960151939e929d909c50939a5093985090965091149350915050565b600d5460ff16156115db5760405162dc149f60e41b815260040160405180910390fd5b6001600160a01b03821615806115f857506001600160a01b038116155b156116165760405163d92e233d60e01b815260040160405180910390fd5b600d805460ff1916600117905561162d5f83612668565b506116455f51602061375b5f395f51905f5283612668565b506116707f65d7a28e3265b37a6474929f336521b332c1681b933f6cb9f3376673440d862a83612668565b50600a80546001600160a01b0319166001600160a01b0383811691821790925560405190918416907f3cd5ec01b1ae7cfec6ca1863e2cd6aa25d6d1702825803ff2b7cc95010fffdc2905f90a35050565b5f6109e88261243d565b5f6001600160a01b0382166116f5576040516322718ad960e21b81525f6004820152602401610bc5565b506001600160a01b03165f9081526003602052604090205490565b5f51602061375b5f395f51905f5261172781612482565b5f82116117665760405162461bcd60e51b815260206004820152600d60248201526c494e56414c49445f505249434560981b6044820152606401610bc5565b60098290556040518281527fd63a50efec61ddcfce992b3211881fcbb051071209192d1ae21d600ee686565f906020015b60405180910390a15050565b5f51602061375b5f395f51905f526117ba81612482565b6001600160a01b0382166117e05760405162461bcd60e51b8152600401610bc590613496565b816001600160a01b031663feaf968c6040518163ffffffff1660e01b815260040160a060405180830381865afa92505050801561183a575060408051601f3d908101601f1916820190925261183791810190613631565b60015b61187c5760405162461bcd60e51b81526020600482015260136024820152724f5241434c455f4e4f545f43414c4c41424c4560681b6044820152606401610bc5565b6402540be40084121580156118975750655af3107a40008413155b6118e35760405162461bcd60e51b815260206004820152601960248201527f4f5241434c455f50524943455f4f55545f4f465f52414e4745000000000000006044820152606401610bc5565b5050505050600a80546001600160a01b038481166001600160a01b0319831681179093556040519116919082907f078c3b417dadf69374a59793b829c52001247130433427049317bde56607b1b7905f90a3505050565b7f65d7a28e3265b37a6474929f336521b332c1681b933f6cb9f3376673440d862a61196481612482565b6114096127b6565b5f611975612561565b5f858152600e6020526040902060028101546001600160a01b031633146119cc5760405162461bcd60e51b815260206004820152600b60248201526a2727aa2fa1a922a0aa27a960a91b6044820152606401610bc5565b600481015462010000900460ff1615611a1b5760405162461bcd60e51b815260206004820152601160248201527014105491539517d11154149150d0551151607a1b6044820152606401610bc5565b84611a5c5760405162461bcd60e51b81526020600482015260116024820152700929cac82989288bea4aa988abe9082a69607b1b6044820152606401610bc5565b5f86815260106020526040812054600b805491929091611a7b906134e3565b91905081905592506040518060e0016040528087815260200186868080601f0160208091040260200160405190810160405280939291908181526020018383808284375f92019190915250505090825250336020820152604081018990526004840154606090910190611af39061ffff16600161367f565b61ffff1681525f60208083018290526040928301829052868252600e815291902082518155908201516001820190611b2b908261353f565b506040828101516002830180546001600160a01b0319166001600160a01b039092169190911790556060830151600383015560808301516004808401805460a087015161ffff90941662ffffff199091161762010000931515840217905560c0909401516005909301929092555f8681526010602052818120859055928501805462ff000019169092179091555188917f4816cbba0986a3746458b30f61c423197d79c8128a41811424e7d2cf0459ea7691a25f838152600e602090815260409182902060040154915161ffff90921682528891839186917f89985676d0f40810abbe2cd55f254fd631b1f8eff9cf8cf89ad8af64c77f87b2910160405180910390a45050949350505050565b611c40612561565b5f611c49611ef9565b905080341015611c925760405162461bcd60e51b8152602060048201526014602482015273125394d551919250d251539517d410565351539560621b6044820152606401610bc5565b335f90815260136020526040902054428110611cba57611cb562278d0082613699565b611cc7565b611cc762278d0042613699565b335f9081526013602052604081209190915560178054849290611ceb908490613699565b909155505034821015611d2d57336108fc611d0684346134d0565b6040518115909202915f818181858888f19350505050158015611d2b573d5f5f3e3d5ffd5b505b335f818152601360209081526040918290205491519182527f4b90d6788928d63c1821907a6a8b95f40d26562d8fe41b105f7489db9966dfcb910160405180910390a25050565b5f9182526007602090815260408084206001600160a01b0393909316845291905290205460ff1690565b606060018054610ad19061345e565b610b843383836127f3565b611dc3848484610d43565b610dc63385858585612891565b60606109e8826129b9565b5f818152600260205260409020546001600160a01b031680611e2b5760405162461bcd60e51b81526020600482015260096024820152681393d517d1561254d560ba1b6044820152606401610bc5565b5f828152601460205260409020544211611e755760405162461bcd60e51b815260206004820152600b60248201526a1393d517d156141254915160aa1b6044820152606401610bc5565b5f828152600f6020908152604080832054808452601083528184205486855260169093529220805460ff19166001179055611eaf84612587565b5f848152600f602090815260408083208390558383526011909152902054829003611ee3575f818152601160205260408120555b505f908152600e60205260408120600501555050565b600a5460408051633fabe5a360e21b815290515f926001600160a01b03169163feaf968c9160048083019260a09291908290030181865afa925050508015611f5e575060408051601f3d908101601f19168201909252611f5b91810190613631565b60015b611f6d5750655af3107a400090565b6402540be400841280611f855750655af3107a400084135b80611f9a5750610e10611f9883426134d0565b115b15611fb057655af3107a40009550505050505090565b5f611fbc8560646136ac565b600954611fd39069d3c21bcecceda10000006136ac565b611fdd91906136c3565b9050805f03611ff857655af3107a4000965050505050505090565b9695505050505050565b5f8281526007602052604090206001015461201c81612482565b610dc683836126f9565b33612030836116c1565b6001600160a01b0316146120775760405162461bcd60e51b815260206004820152600e60248201526d2727aa2fa92aa622afa7aba722a960911b6044820152606401610bc5565b5f8281526014602052604090205481116120c95760405162461bcd60e51b815260206004820152601360248201527211561412549657d393d517d156151153911151606a1b6044820152606401610bc5565b6120d7426301e13380613699565b8111156121175760405162461bcd60e51b815260206004820152600e60248201526d22ac2824a92cafaa27a7afa320a960911b6044820152606401610bc5565b5f612120611ef9565b9050803410156121695760405162461bcd60e51b8152602060048201526014602482015273125394d551919250d251539517d410565351539560621b6044820152606401610bc5565b5f83815260146020526040808220849055517f00000000000000000000000000000000000000000000000000000000000000006001600160a01b03169083908381818185875af1925050503d805f81146121de576040519150601f19603f3d011682016040523d82523d5f602084013e6121e3565b606091505b50509050806122345760405162461bcd60e51b815260206004820152601860248201527f4445504c4f5945525f5452414e534645525f4641494c454400000000000000006044820152606401610bc5565b8134111561227157336108fc61224a84346134d0565b6040518115909202915f818181858888f1935050505015801561226f573d5f5f3e3d5ffd5b505b837f864ca413e692b7d7abe57fb4de7f98d30188cd4f03419a82b0b8ff7986e06a9484604051610d3591815260200190565b6001600160a01b039182165f90815260056020908152604080832093909416825291909152205460ff1690565b5f51602061375b5f395f51905f526122e781612482565b6001600160a01b03821661230d5760405162461bcd60e51b8152600401610bc590613496565b6017548061234a5760405162461bcd60e51b815260206004820152600a6024820152694e4f5f42414c414e434560b01b6044820152606401610bc5565b5f60178190556040516001600160a01b0385169083908381818185875af1925050503d805f8114612396576040519150601f19603f3d011682016040523d82523d5f602084013e61239b565b606091505b50509050806123de5760405162461bcd60e51b815260206004820152600f60248201526e15d2551211149055d7d19052531151608a1b6044820152606401610bc5565b836001600160a01b03167f41fdd680478135993bc53fb2ffaf9560951b57ef62ff6badd02b61e018b4f17f83604051610d3591815260200190565b5f6001600160e01b03198216637965db0b60e01b14806109e857506109e882612ac4565b5f818152600260205260408120546001600160a01b0316806109e857604051637e27328960e01b815260048101849052602401610bc5565b6113d28383836001612ae8565b6114098133612bec565b5f612495612561565b6124a0848484612c25565b90506001600160a01b038416612532575f8381526016602052604090205460ff166125185760405162461bcd60e51b815260206004820152602260248201527f4255524e5f4f4e4c595f5649415f4558504952595f4f525f414354495641544960448201526127a760f11b6064820152608401610bc5565b5f838152601660205260409020805460ff1916905561255a565b6001600160a01b0384165f908152601360209081526040808320548684526014909252909120555b9392505050565b60085460ff16156125855760405163d93c066560e01b815260040160405180910390fd5b565b5f6125935f835f61248c565b90506001600160a01b038116610b8457604051637e27328960e01b815260048101839052602401610bc5565b6001600160a01b0382166125e857604051633250574960e11b81525f6004820152602401610bc5565b5f6125f483835f61248c565b90506001600160a01b038116156113d2576040516339e3563760e11b81525f6004820152602401610bc5565b5f828152600660205260409020612637828261353f565b506040518281527ff8e1a15aba9398e019f0b49df1a4fde98ee17ae345cb5f6b5e2c27f5033e8ce790602001611797565b5f6126738383611d74565b6126f2575f8381526007602090815260408083206001600160a01b03861684529091529020805460ff191660011790556126aa3390565b6001600160a01b0316826001600160a01b0316847f2f8788117e7eff1d82e926ec794901d17c78024a50270940304540a733656f0d60405160405180910390a45060016109e8565b505f6109e8565b5f6127048383611d74565b156126f2575f8381526007602090815260408083206001600160a01b0386168085529252808320805460ff1916905551339286917ff6391f5c32d9c69d2a47ea670b442974b53935d1edc7fd64eb21e047a839171b9190a45060016109e8565b61276c612d17565b6008805460ff191690557f5db9ee0a495bf2e6ff9c91a7834c1ba4fdd244a5e8aa4e537bd38aeae4b073aa335b6040516001600160a01b03909116815260200160405180910390a1565b6127be612561565b6008805460ff191660011790557f62e78cea01bee320cd4e420270b5ea74000d11b0c9f74754ebdbfc544b05a2586127993390565b6001600160a01b03821661282557604051630b61174360e31b81526001600160a01b0383166004820152602401610bc5565b6001600160a01b038381165f81815260056020908152604080832094871680845294825291829020805460ff191686151590811790915591519182527f17307eab39ab6107e8899845ad3d59bd9653f200f220920489ca2b5937696c31910160405180910390a3505050565b6001600160a01b0383163b156129b257604051630a85bd0160e11b81526001600160a01b0384169063150b7a02906128d39088908890879087906004016136e2565b6020604051808303815f875af192505050801561290d575060408051601f3d908101601f1916820190925261290a91810190613714565b60015b612974573d80801561293a576040519150601f19603f3d011682016040523d82523d5f602084013e61293f565b606091505b5080515f0361296c57604051633250574960e11b81526001600160a01b0385166004820152602401610bc5565b805160208201fd5b6001600160e01b03198116630a85bd0160e11b146129b057604051633250574960e11b81526001600160a01b0385166004820152602401610bc5565b505b5050505050565b60606129c48261243d565b505f82815260066020526040812080546129dd9061345e565b80601f0160208091040260200160405190810160405280929190818152602001828054612a099061345e565b8015612a545780601f10612a2b57610100808354040283529160200191612a54565b820191905f5260205f20905b815481529060010190602001808311612a3757829003601f168201915b505050505090505f612a7060408051602081019091525f815290565b905080515f03612a81575092915050565b815115612ab3578082604051602001612a9b929190613746565b60405160208183030381529060405292505050919050565b612abc84612d3a565b949350505050565b5f6001600160e01b03198216632483248360e11b14806109e857506109e882612daa565b8080612afc57506001600160a01b03821615155b15612bbd575f612b0b8461243d565b90506001600160a01b03831615801590612b375750826001600160a01b0316816001600160a01b031614155b8015612b4a5750612b4881846122a3565b155b15612b735760405163a9fbf51f60e01b81526001600160a01b0384166004820152602401610bc5565b8115612bbb5783856001600160a01b0316826001600160a01b03167f8c5be1e5ebec7d5bd14f71427d1e84f3dd0314c0f7b2291e5b200ac8c7c3b92560405160405180910390a45b505b50505f90815260046020526040902080546001600160a01b0319166001600160a01b0392909216919091179055565b612bf68282611d74565b610b845760405163e2517d3f60e01b81526001600160a01b038216600482015260248101839052604401610bc5565b5f828152600260205260408120546001600160a01b0390811690831615612c5157612c51818486612df9565b6001600160a01b03811615612c8b57612c6c5f855f5f612ae8565b6001600160a01b0381165f90815260036020526040902080545f190190555b6001600160a01b03851615612cb9576001600160a01b0385165f908152600360205260409020805460010190555b5f8481526002602052604080822080546001600160a01b0319166001600160a01b0389811691821790925591518793918516917fddf252ad1be2c89b69c2b068fc378daa952ba7f163c4a11628f55a4df523b3ef91a4949350505050565b60085460ff1661258557604051638dfc202b60e01b815260040160405180910390fd5b6060612d458261243d565b505f612d5b60408051602081019091525f815290565b90505f815111612d795760405180602001604052805f81525061255a565b80612d8384612e5d565b604051602001612d94929190613746565b6040516020818303038152906040529392505050565b5f6001600160e01b031982166380ac58cd60e01b1480612dda57506001600160e01b03198216635b5e139f60e01b145b806109e857506301ffc9a760e01b6001600160e01b03198316146109e8565b612e04838383612eed565b6113d2576001600160a01b038316612e3257604051637e27328960e01b815260048101829052602401610bc5565b60405163177e802f60e01b81526001600160a01b038316600482015260248101829052604401610bc5565b60605f612e6983612f4e565b60010190505f8167ffffffffffffffff811115612e8857612e8861334d565b6040519080825280601f01601f191660200182016040528015612eb2576020820181803683370190505b5090508181016020015b5f19016f181899199a1a9b1b9c1cb0b131b232b360811b600a86061a8153600a8504945084612ebc57509392505050565b5f6001600160a01b03831615801590612abc5750826001600160a01b0316846001600160a01b03161480612f265750612f2684846122a3565b80612abc5750505f908152600460205260409020546001600160a01b03908116911614919050565b5f8072184f03e93ff9f4daa797ed6e38ed64bf6a1f0160401b8310612f8c5772184f03e93ff9f4daa797ed6e38ed64bf6a1f0160401b830492506040015b6d04ee2d6d415b85acef81000000008310612fb8576d04ee2d6d415b85acef8100000000830492506020015b662386f26fc100008310612fd657662386f26fc10000830492506010015b6305f5e1008310612fee576305f5e100830492506008015b612710831061300257612710830492506004015b60648310613014576064830492506002015b600a83106109e85760010192915050565b6001600160e01b031981168114611409575f5ffd5b5f6020828403121561304a575f5ffd5b813561255a81613025565b5f60208284031215613065575f5ffd5b5035919050565b5f81518084528060208401602086015e5f602082860101526020601f19601f83011685010191505092915050565b87815260e060208201525f6130b260e083018961306c565b6001600160a01b0397909716604083015250606081019490945261ffff929092166080840152151560a083015260c09091015292915050565b602081525f61255a602083018461306c565b80356001600160a01b0381168114613113575f5ffd5b919050565b5f5f60408385031215613129575f5ffd5b613132836130fd565b946020939093013593505050565b5f5f5f60608486031215613152575f5ffd5b61315b846130fd565b9250613169602085016130fd565b929592945050506040919091013590565b5f5f83601f84011261318a575f5ffd5b50813567ffffffffffffffff8111156131a1575f5ffd5b6020830191508360208285010111156131b8575f5ffd5b9250929050565b5f5f5f604084860312156131d1575f5ffd5b83359250602084013567ffffffffffffffff8111156131ee575f5ffd5b6131fa8682870161317a565b9497909650939450505050565b5f5f60408385031215613218575f5ffd5b82359150613228602084016130fd565b90509250929050565b87815260e060208201525f61324960e083018961306c565b6001600160a01b0397909716604083015250606081019490945261ffff929092166080840152151560a0830152151560c09091015292915050565b5f5f60408385031215613295575f5ffd5b61329e836130fd565b9150613228602084016130fd565b5f602082840312156132bc575f5ffd5b61255a826130fd565b5f5f5f5f606085870312156132d8575f5ffd5b8435935060208501359250604085013567ffffffffffffffff8111156132fc575f5ffd5b6133088782880161317a565b95989497509550505050565b5f5f60408385031215613325575f5ffd5b61332e836130fd565b915060208301358015158114613342575f5ffd5b809150509250929050565b634e487b7160e01b5f52604160045260245ffd5b5f5f5f5f60808587031215613374575f5ffd5b61337d856130fd565b935061338b602086016130fd565b925060408501359150606085013567ffffffffffffffff8111156133ad575f5ffd5b8501601f810187136133bd575f5ffd5b803567ffffffffffffffff8111156133d7576133d761334d565b604051601f8201601f19908116603f0116810167ffffffffffffffff811182821017156134065761340661334d565b60405281815282820160200189101561341d575f5ffd5b816020840160208301375f6020838301015280935050505092959194509250565b5f5f6040838503121561344f575f5ffd5b50508035926020909101359150565b600181811c9082168061347257607f821691505b60208210810361349057634e487b7160e01b5f52602260045260245ffd5b50919050565b6020808252600c908201526b5a45524f5f4144445245535360a01b604082015260600190565b634e487b7160e01b5f52601160045260245ffd5b818103818111156109e8576109e86134bc565b5f600182016134f4576134f46134bc565b5060010190565b601f8211156113d257805f5260205f20601f840160051c810160208510156135205750805b601f840160051c820191505b818110156129b2575f815560010161352c565b815167ffffffffffffffff8111156135595761355961334d565b61356d81613567845461345e565b846134fb565b6020601f82116001811461359f575f83156135885750848201515b5f19600385901b1c1916600184901b1784556129b2565b5f84815260208120601f198516915b828110156135ce57878501518255602094850194600190920191016135ae565b50848210156135eb57868401515f19600387901b60f8161c191681555b50505050600190811b01905550565b5f60ff821660ff810361360f5761360f6134bc565b60010192915050565b805169ffffffffffffffffffff81168114613113575f5ffd5b5f5f5f5f5f60a08688031215613645575f5ffd5b61364e86613618565b6020870151604088015160608901519297509095509350915061367360808701613618565b90509295509295909350565b61ffff81811683821601908111156109e8576109e86134bc565b808201808211156109e8576109e86134bc565b80820281158282048414176109e8576109e86134bc565b5f826136dd57634e487b7160e01b5f52601260045260245ffd5b500490565b6001600160a01b03858116825284166020820152604081018390526080606082018190525f90611ff89083018461306c565b5f60208284031215613724575f5ffd5b815161255a81613025565b5f81518060208401855e5f93019283525090919050565b5f612abc613754838661372f565b8461372f56fea49807205ce4d355092ef5a8a18f56e8913cf4a201fbe287825b095693c21775a264697066735822122018fe09ca914c139199157b86721a7d58031e8c01a1ec67cc74750c0af1c41bcc64736f6c634300081c0033",
  "linkReferences": {},
  "deployedLinkReferences": {},
  "immutableReferences": {
    "7103": [
      {
        "length": 32,
        "start": 2284
      },
      {
        "length": 32,
        "start": 8573
      }
    ]
  },
  "inputSourceName": "project/contracts/core/RuleItemERC721.sol",
  "buildInfoId": "solc-0_8_28-43d031720fa82657db574e287d636a8e158fcd40"
}