{
  "_format": "hh3-artifact-1",
  "contractName": "VindexRegistry",
  "sourceName": "contracts/core/VindexRegistry.sol",
  "abi": [
    {
      "inputs": [],
      "name": "AccessControlBadConfirmation",
      "type": "error"
    },
    {
      "inputs": [
        {
          "internalType": "address",
          "name": "account",
          "type": "address"
        },
        {
          "internalType": "bytes32",
          "name": "neededRole",
          "type": "bytes32"
        }
      ],
      "name": "AccessControlUnauthorizedAccount",
      "type": "error"
    },
    {
      "inputs": [],
      "name": "ReentrancyGuardReentrantCall",
      "type": "error"
    },
    {
      "anonymous": false,
      "inputs": [
        {
          "indexed": true,
          "internalType": "address",
          "name": "account",
          "type": "address"
        },
        {
          "indexed": false,
          "internalType": "uint256",
          "name": "reportId",
          "type": "uint256"
        },
        {
          "indexed": false,
          "internalType": "string",
          "name": "evidenceHash",
          "type": "string"
        }
      ],
      "name": "Blacklisted",
      "type": "event"
    },
    {
      "anonymous": false,
      "inputs": [
        {
          "indexed": false,
          "internalType": "uint8",
          "name": "oldValue",
          "type": "uint8"
        },
        {
          "indexed": false,
          "internalType": "uint8",
          "name": "newValue",
          "type": "uint8"
        }
      ],
      "name": "ConsensusThresholdUpdated",
      "type": "event"
    },
    {
      "anonymous": false,
      "inputs": [
        {
          "indexed": false,
          "internalType": "uint256",
          "name": "oldValue",
          "type": "uint256"
        },
        {
          "indexed": false,
          "internalType": "uint256",
          "name": "newValue",
          "type": "uint256"
        }
      ],
      "name": "MinStakeUpdated",
      "type": "event"
    },
    {
      "anonymous": false,
      "inputs": [
        {
          "indexed": true,
          "internalType": "uint256",
          "name": "reportId",
          "type": "uint256"
        },
        {
          "indexed": true,
          "internalType": "address",
          "name": "confirmer",
          "type": "address"
        }
      ],
      "name": "ReportConfirmed",
      "type": "event"
    },
    {
      "anonymous": false,
      "inputs": [
        {
          "indexed": true,
          "internalType": "uint256",
          "name": "reportId",
          "type": "uint256"
        },
        {
          "indexed": false,
          "internalType": "bool",
          "name": "valid",
          "type": "bool"
        },
        {
          "indexed": false,
          "internalType": "uint16",
          "name": "reputationDelta",
          "type": "uint16"
        }
      ],
      "name": "ReportResolved",
      "type": "event"
    },
    {
      "anonymous": false,
      "inputs": [
        {
          "indexed": true,
          "internalType": "uint256",
          "name": "reportId",
          "type": "uint256"
        },
        {
          "indexed": true,
          "internalType": "address",
          "name": "target",
          "type": "address"
        },
        {
          "indexed": true,
          "internalType": "address",
          "name": "reporter",
          "type": "address"
        },
        {
          "indexed": false,
          "internalType": "string",
          "name": "evidenceHash",
          "type": "string"
        },
        {
          "indexed": false,
          "internalType": "uint256",
          "name": "stake",
          "type": "uint256"
        }
      ],
      "name": "ReportSubmitted",
      "type": "event"
    },
    {
      "anonymous": false,
      "inputs": [
        {
          "indexed": true,
          "internalType": "address",
          "name": "account",
          "type": "address"
        },
        {
          "indexed": false,
          "internalType": "uint16",
          "name": "oldScore",
          "type": "uint16"
        },
        {
          "indexed": false,
          "internalType": "uint16",
          "name": "newScore",
          "type": "uint16"
        },
        {
          "indexed": false,
          "internalType": "string",
          "name": "reason",
          "type": "string"
        }
      ],
      "name": "ReputationUpdated",
      "type": "event"
    },
    {
      "anonymous": false,
      "inputs": [
        {
          "indexed": true,
          "internalType": "bytes32",
          "name": "role",
          "type": "bytes32"
        },
        {
          "indexed": true,
          "internalType": "bytes32",
          "name": "previousAdminRole",
          "type": "bytes32"
        },
        {
          "indexed": true,
          "internalType": "bytes32",
          "name": "newAdminRole",
          "type": "bytes32"
        }
      ],
      "name": "RoleAdminChanged",
      "type": "event"
    },
    {
      "anonymous": false,
      "inputs": [
        {
          "indexed": true,
          "internalType": "bytes32",
          "name": "role",
          "type": "bytes32"
        },
        {
          "indexed": true,
          "internalType": "address",
          "name": "account",
          "type": "address"
        },
        {
          "indexed": true,
          "internalType": "address",
          "name": "sender",
          "type": "address"
        }
      ],
      "name": "RoleGranted",
      "type": "event"
    },
    {
      "anonymous": false,
      "inputs": [
        {
          "indexed": true,
          "internalType": "bytes32",
          "name": "role",
          "type": "bytes32"
        },
        {
          "indexed": true,
          "internalType": "address",
          "name": "account",
          "type": "address"
        },
        {
          "indexed": true,
          "internalType": "address",
          "name": "sender",
          "type": "address"
        }
      ],
      "name": "RoleRevoked",
      "type": "event"
    },
    {
      "anonymous": false,
      "inputs": [
        {
          "indexed": true,
          "internalType": "address",
          "name": "account",
          "type": "address"
        },
        {
          "indexed": false,
          "internalType": "string",
          "name": "reason",
          "type": "string"
        }
      ],
      "name": "Unblacklisted",
      "type": "event"
    },
    {
      "inputs": [],
      "name": "DEFAULT_ADMIN_ROLE",
      "outputs": [
        {
          "internalType": "bytes32",
          "name": "",
          "type": "bytes32"
        }
      ],
      "stateMutability": "view",
      "type": "function"
    },
    {
      "inputs": [
        {
          "internalType": "address",
          "name": "account",
          "type": "address"
        },
        {
          "internalType": "uint16",
          "name": "newScore",
          "type": "uint16"
        },
        {
          "internalType": "string",
          "name": "reason",
          "type": "string"
        }
      ],
      "name": "adjustReputation",
      "outputs": [],
      "stateMutability": "nonpayable",
      "type": "function"
    },
    {
      "inputs": [
        {
          "internalType": "address[]",
          "name": "accounts",
          "type": "address[]"
        },
        {
          "internalType": "uint16[]",
          "name": "scores",
          "type": "uint16[]"
        },
        {
          "internalType": "string",
          "name": "reason",
          "type": "string"
        }
      ],
      "name": "batchAdjustReputation",
      "outputs": [],
      "stateMutability": "nonpayable",
      "type": "function"
    },
    {
      "inputs": [
        {
          "internalType": "address",
          "name": "account",
          "type": "address"
        },
        {
          "internalType": "uint256",
          "name": "reportId",
          "type": "uint256"
        },
        {
          "internalType": "string",
          "name": "evidenceHash",
          "type": "string"
        }
      ],
      "name": "blacklist",
      "outputs": [],
      "stateMutability": "nonpayable",
      "type": "function"
    },
    {
      "inputs": [
        {
          "internalType": "uint256",
          "name": "reportId",
          "type": "uint256"
        }
      ],
      "name": "confirmReport",
      "outputs": [],
      "stateMutability": "nonpayable",
      "type": "function"
    },
    {
      "inputs": [],
      "name": "consensusThreshold",
      "outputs": [
        {
          "internalType": "uint8",
          "name": "",
          "type": "uint8"
        }
      ],
      "stateMutability": "view",
      "type": "function"
    },
    {
      "inputs": [
        {
          "internalType": "address",
          "name": "target",
          "type": "address"
        }
      ],
      "name": "getReportsAgainst",
      "outputs": [
        {
          "internalType": "uint256[]",
          "name": "",
          "type": "uint256[]"
        }
      ],
      "stateMutability": "view",
      "type": "function"
    },
    {
      "inputs": [
        {
          "internalType": "address",
          "name": "account",
          "type": "address"
        }
      ],
      "name": "getReputation",
      "outputs": [
        {
          "internalType": "uint16",
          "name": "",
          "type": "uint16"
        }
      ],
      "stateMutability": "view",
      "type": "function"
    },
    {
      "inputs": [
        {
          "internalType": "bytes32",
          "name": "role",
          "type": "bytes32"
        }
      ],
      "name": "getRoleAdmin",
      "outputs": [
        {
          "internalType": "bytes32",
          "name": "",
          "type": "bytes32"
        }
      ],
      "stateMutability": "view",
      "type": "function"
    },
    {
      "inputs": [
        {
          "internalType": "bytes32",
          "name": "role",
          "type": "bytes32"
        },
        {
          "internalType": "address",
          "name": "account",
          "type": "address"
        }
      ],
      "name": "grantRole",
      "outputs": [],
      "stateMutability": "nonpayable",
      "type": "function"
    },
    {
      "inputs": [
        {
          "internalType": "address",
          "name": "",
          "type": "address"
        },
        {
          "internalType": "address",
          "name": "",
          "type": "address"
        }
      ],
      "name": "hasConfirmed",
      "outputs": [
        {
          "internalType": "bool",
          "name": "",
          "type": "bool"
        }
      ],
      "stateMutability": "view",
      "type": "function"
    },
    {
      "inputs": [
        {
          "internalType": "bytes32",
          "name": "role",
          "type": "bytes32"
        },
        {
          "internalType": "address",
          "name": "account",
          "type": "address"
        }
      ],
      "name": "hasRole",
      "outputs": [
        {
          "internalType": "bool",
          "name": "",
          "type": "bool"
        }
      ],
      "stateMutability": "view",
      "type": "function"
    },
    {
      "inputs": [
        {
          "internalType": "address",
          "name": "admin",
          "type": "address"
        }
      ],
      "name": "initialize",
      "outputs": [],
      "stateMutability": "nonpayable",
      "type": "function"
    },
    {
      "inputs": [
        {
          "internalType": "address",
          "name": "",
          "type": "address"
        }
      ],
      "name": "isBlacklisted",
      "outputs": [
        {
          "internalType": "bool",
          "name": "",
          "type": "bool"
        }
      ],
      "stateMutability": "view",
      "type": "function"
    },
    {
      "inputs": [
        {
          "internalType": "address",
          "name": "account",
          "type": "address"
        },
        {
          "internalType": "uint16",
          "name": "threshold",
          "type": "uint16"
        }
      ],
      "name": "isTrusted",
      "outputs": [
        {
          "internalType": "bool",
          "name": "",
          "type": "bool"
        }
      ],
      "stateMutability": "view",
      "type": "function"
    },
    {
      "inputs": [],
      "name": "minReporterReputation",
      "outputs": [
        {
          "internalType": "uint16",
          "name": "",
          "type": "uint16"
        }
      ],
      "stateMutability": "view",
      "type": "function"
    },
    {
      "inputs": [],
      "name": "minStake",
      "outputs": [
        {
          "internalType": "uint256",
          "name": "",
          "type": "uint256"
        }
      ],
      "stateMutability": "view",
      "type": "function"
    },
    {
      "inputs": [
        {
          "internalType": "bytes32",
          "name": "role",
          "type": "bytes32"
        },
        {
          "internalType": "address",
          "name": "callerConfirmation",
          "type": "address"
        }
      ],
      "name": "renounceRole",
      "outputs": [],
      "stateMutability": "nonpayable",
      "type": "function"
    },
    {
      "inputs": [],
      "name": "reportCount",
      "outputs": [
        {
          "internalType": "uint256",
          "name": "",
          "type": "uint256"
        }
      ],
      "stateMutability": "view",
      "type": "function"
    },
    {
      "inputs": [
        {
          "internalType": "uint256",
          "name": "",
          "type": "uint256"
        }
      ],
      "name": "reports",
      "outputs": [
        {
          "internalType": "address",
          "name": "target",
          "type": "address"
        },
        {
          "internalType": "address",
          "name": "reporter",
          "type": "address"
        },
        {
          "internalType": "string",
          "name": "evidenceHash",
          "type": "string"
        },
        {
          "internalType": "uint256",
          "name": "stake",
          "type": "uint256"
        },
        {
          "internalType": "uint256",
          "name": "timestamp",
          "type": "uint256"
        },
        {
          "internalType": "uint8",
          "name": "confirmations",
          "type": "uint8"
        },
        {
          "internalType": "bool",
          "name": "resolved",
          "type": "bool"
        },
        {
          "internalType": "bool",
          "name": "valid",
          "type": "bool"
        }
      ],
      "stateMutability": "view",
      "type": "function"
    },
    {
      "inputs": [
        {
          "internalType": "address",
          "name": "",
          "type": "address"
        },
        {
          "internalType": "uint256",
          "name": "",
          "type": "uint256"
        }
      ],
      "name": "reportsAgainst",
      "outputs": [
        {
          "internalType": "uint256",
          "name": "",
          "type": "uint256"
        }
      ],
      "stateMutability": "view",
      "type": "function"
    },
    {
      "inputs": [
        {
          "internalType": "address",
          "name": "",
          "type": "address"
        }
      ],
      "name": "reputationOf",
      "outputs": [
        {
          "internalType": "uint16",
          "name": "",
          "type": "uint16"
        }
      ],
      "stateMutability": "view",
      "type": "function"
    },
    {
      "inputs": [
        {
          "internalType": "uint256",
          "name": "reportId",
          "type": "uint256"
        },
        {
          "internalType": "bool",
          "name": "valid",
          "type": "bool"
        }
      ],
      "name": "resolveReport",
      "outputs": [],
      "stateMutability": "nonpayable",
      "type": "function"
    },
    {
      "inputs": [
        {
          "internalType": "bytes32",
          "name": "role",
          "type": "bytes32"
        },
        {
          "internalType": "address",
          "name": "account",
          "type": "address"
        }
      ],
      "name": "revokeRole",
      "outputs": [],
      "stateMutability": "nonpayable",
      "type": "function"
    },
    {
      "inputs": [
        {
          "internalType": "uint8",
          "name": "newThreshold",
          "type": "uint8"
        }
      ],
      "name": "setConsensusThreshold",
      "outputs": [],
      "stateMutability": "nonpayable",
      "type": "function"
    },
    {
      "inputs": [
        {
          "internalType": "uint256",
          "name": "newStake",
          "type": "uint256"
        }
      ],
      "name": "setMinStake",
      "outputs": [],
      "stateMutability": "nonpayable",
      "type": "function"
    },
    {
      "inputs": [
        {
          "internalType": "uint256",
          "name": "reportId",
          "type": "uint256"
        }
      ],
      "name": "slashReporter",
      "outputs": [],
      "stateMutability": "nonpayable",
      "type": "function"
    },
    {
      "inputs": [
        {
          "internalType": "address",
          "name": "target",
          "type": "address"
        },
        {
          "internalType": "string",
          "name": "evidenceHash",
          "type": "string"
        }
      ],
      "name": "submitReport",
      "outputs": [],
      "stateMutability": "payable",
      "type": "function"
    },
    {
      "inputs": [
        {
          "internalType": "address",
          "name": "",
          "type": "address"
        }
      ],
      "name": "successfulReports",
      "outputs": [
        {
          "internalType": "uint256",
          "name": "",
          "type": "uint256"
        }
      ],
      "stateMutability": "view",
      "type": "function"
    },
    {
      "inputs": [
        {
          "internalType": "bytes4",
          "name": "interfaceId",
          "type": "bytes4"
        }
      ],
      "name": "supportsInterface",
      "outputs": [
        {
          "internalType": "bool",
          "name": "",
          "type": "bool"
        }
      ],
      "stateMutability": "view",
      "type": "function"
    },
    {
      "inputs": [
        {
          "internalType": "address",
          "name": "account",
          "type": "address"
        },
        {
          "internalType": "string",
          "name": "reason",
          "type": "string"
        }
      ],
      "name": "unblacklist",
      "outputs": [],
      "stateMutability": "nonpayable",
      "type": "function"
    },
    {
      "stateMutability": "payable",
      "type": "receive"
    }
  ],
  "bytecode": "0x608060405266038d7ea4c680006003556004805462ffffff19166202bc03179055348015602a575f5ffd5b50600180556127c28061003c5f395ff3fe6080604052600436106101d3575f3560e01c8063a217fddf116100fd578063dad780d511610092578063e6876ecc11610062578063e6876ecc14610595578063f2beda3b146105b4578063f9b0b5b9146105d3578063fe575a87146105fe575f5ffd5b8063dad780d514610508578063db89c0441461051b578063dd15452f1461054a578063e5e7ab1414610576575f5ffd5b8063c4d66de8116100cd578063c4d66de814610478578063c942adf714610497578063d1e6c30c146104ca578063d547741f146104e9575f5ffd5b8063a217fddf14610408578063a6f5765b1461041b578063b78eed831461043a578063bb7db0c114610459575f5ffd5b8063375b3c0a116101735780638c80fd90116101435780638c80fd901461038c5780638d4dbc52146103ab57806391d14854146103ca5780639c89a0e2146103e9575f5ffd5b8063375b3c0a146102ed5780634f45249a146103025780636c0464f41461033b5780638b7ecdc01461036d575f5ffd5b8063248a9ca3116101ae578063248a9ca3146102565780632ea45e5a146102845780632f2ff15d146102af57806336568abe146102ce575f5ffd5b806301ffc9a7146101de5780630d87709714610212578063185c6f8414610233575f5ffd5b366101da57005b5f5ffd5b3480156101e9575f5ffd5b506101fd6101f8366004611f10565b61062c565b60405190151581526020015b60405180910390f35b34801561021d575f5ffd5b5061023161022c366004611f37565b610662565b005b34801561023e575f5ffd5b5061024860075481565b604051908152602001610209565b348015610261575f5ffd5b50610248610270366004611f37565b5f9081526020819052604090206001015490565b34801561028f575f5ffd5b5061024861029e366004611f69565b600b6020525f908152604090205481565b3480156102ba575f5ffd5b506102316102c9366004611f82565b610852565b3480156102d9575f5ffd5b506102316102e8366004611f82565b61087c565b3480156102f8575f5ffd5b5061024860035481565b34801561030d575f5ffd5b506101fd61031c366004611fac565b600a60209081525f928352604080842090915290825290205460ff1681565b348015610346575f5ffd5b5060045461035a90610100900461ffff1681565b60405161ffff9091168152602001610209565b348015610378575f5ffd5b50610231610387366004612019565b6108b4565b348015610397575f5ffd5b506102316103a6366004611f37565b61097d565b3480156103b6575f5ffd5b506102486103c536600461206f565b610a0b565b3480156103d5575f5ffd5b506101fd6103e4366004611f82565b610a36565b3480156103f4575f5ffd5b5061035a610403366004611f69565b610a5e565b348015610413575f5ffd5b506102485f81565b348015610426575f5ffd5b50610231610435366004612097565b610a91565b348015610445575f5ffd5b5061023161045436600461210a565b610b04565b348015610464575f5ffd5b506101fd6104733660046121b8565b610da6565b348015610483575f5ffd5b50610231610492366004611f69565b610e42565b3480156104a2575f5ffd5b506104b66104b1366004611f37565b610ec4565b604051610209989796959493929190612210565b3480156104d5575f5ffd5b506102316104e436600461226e565b610fa2565b3480156104f4575f5ffd5b50610231610503366004611f82565b611048565b61023161051636600461226e565b61106c565b348015610526575f5ffd5b5061035a610535366004611f69565b60056020525f908152604090205461ffff1681565b348015610555575f5ffd5b50610569610564366004611f69565b6113e4565b60405161020991906122bd565b348015610581575f5ffd5b506102316105903660046122ff565b61144d565b3480156105a0575f5ffd5b506102316105af366004611f37565b61157f565b3480156105bf575f5ffd5b506102316105ce366004612346565b611886565b3480156105de575f5ffd5b506004546105ec9060ff1681565b60405160ff9091168152602001610209565b348015610609575f5ffd5b506101fd610618366004611f69565b60066020525f908152604090205460ff1681565b5f6001600160e01b03198216637965db0b60e01b148061065c57506301ffc9a760e01b6001600160e01b03198316145b92915050565b61066a61191c565b60025460ff166106955760405162461bcd60e51b815260040161068c90612366565b60405180910390fd5b6106ac5f51602061276d5f395f51905f5233610a36565b806106bc57506106bc5f33610a36565b6106d85760405162461bcd60e51b815260040161068c90612395565b5f8181526008602052604090206005810154610100900460ff1615806107095750600581015462010000900460ff16155b6107555760405162461bcd60e51b815260206004820152601f60248201527f5652414e3a2063616e6e6f7420736c6173682076616c6964207265706f727400604482015260640161068c565b805460038201546040515f926001600160a01b031691908381818185875af1925050503d805f81146107a2576040519150601f19603f3d011682016040523d82523d5f602084013e6107a7565b606091505b50509050806107ee5760405162461bcd60e51b8152602060048201526013602482015272159490538e881c99599d5b990819985a5b1959606a1b604482015260640161068c565b600182015460408051808201909152601481527311985b1cd9481c995c1bdc9d081cdb185cda195960621b6020820152610834916001600160a01b031690606490611946565b50600501805462ffff00191661010017905561084f60018055565b50565b5f8281526020819052604090206001015461086c816119b3565b61087683836119bd565b50505050565b6001600160a01b03811633146108a55760405163334bd91960e11b815260040160405180910390fd5b6108af8282611a4c565b505050565b60025460ff166108d65760405162461bcd60e51b815260040161068c90612366565b6108ed5f51602061276d5f395f51905f5233610a36565b806108fd57506108fd5f33610a36565b6109195760405162461bcd60e51b815260040161068c90612395565b6001600160a01b0384165f8181526006602052604090819020805460ff19166001179055517f8d010263441c54071621d310da89df966422793ea2a3e32584fbbbf9d7d3e5b29061096f908690869086906123e9565b60405180910390a250505050565b60025460ff1661099f5760405162461bcd60e51b815260040161068c90612366565b6109a95f33610a36565b6109c55760405162461bcd60e51b815260040161068c9061240b565b600380549082905560408051828152602081018490527f171aabb8815c02fd00303450a77058600e3661eb75ce2e77972c0f080bc7099d91015b60405180910390a15050565b6009602052815f5260405f208181548110610a24575f80fd5b905f5260205f20015f91509150505481565b5f918252602082815260408084206001600160a01b0393909316845291905290205460ff1690565b6001600160a01b0381165f9081526005602052604081205461ffff168015610a865780610a8a565b6101f45b9392505050565b60025460ff16610ab35760405162461bcd60e51b815260040161068c90612366565b610aca5f51602061276d5f395f51905f5233610a36565b80610ada5750610ada5f33610a36565b610af65760405162461bcd60e51b815260040161068c90612395565b610b008282611ab5565b5050565b60025460ff16610b265760405162461bcd60e51b815260040161068c90612366565b610b3d5f51602061276d5f395f51905f5233610a36565b610b7c5760405162461bcd60e51b815260206004820152601060248201526f5652414e3a206e6f7420656e67696e6560801b604482015260640161068c565b848314610bc35760405162461bcd60e51b81526020600482015260156024820152740aca4829c7440d8cadccee8d040dad2e6dac2e8c6d605b1b604482015260640161068c565b5f5b85811015610d9d576103e8858583818110610be257610be2612434565b9050602002016020810190610bf79190612448565b61ffff161115610c3a5760405162461bcd60e51b815260206004820152600e60248201526d05652414e3a206d617820313030360941b604482015260640161068c565b5f60055f898985818110610c5057610c50612434565b9050602002016020810190610c659190611f69565b6001600160a01b0316815260208101919091526040015f205461ffff169050858583818110610c9657610c96612434565b9050602002016020810190610cab9190612448565b60055f8a8a86818110610cc057610cc0612434565b9050602002016020810190610cd59190611f69565b6001600160a01b0316815260208101919091526040015f20805461ffff191661ffff92909216919091179055878783818110610d1357610d13612434565b9050602002016020810190610d289190611f69565b6001600160a01b03167fd5b257df55c7b9c882313949f722d803cf7854cee4e4c1be1218aee7ebfccfc982888886818110610d6557610d65612434565b9050602002016020810190610d7a9190612448565b8787604051610d8c9493929190612463565b60405180910390a250600101610bc5565b50505050505050565b6001600160a01b0382165f9081526006602052604081205460ff16158015610a8a5750604051634e44d07160e11b81526001600160a01b038416600482015261ffff8316903090639c89a0e290602401602060405180830381865afa158015610e11573d5f5f3e3d5ffd5b505050506040513d601f19601f82011682018060405250810190610e359190612494565b61ffff1610159392505050565b60025460ff1615610e955760405162461bcd60e51b815260206004820152601960248201527f5652414e3a20616c726561647920696e697469616c697a656400000000000000604482015260640161068c565b6002805460ff19166001179055610eac5f826119bd565b50610b005f51602061276d5f395f51905f52826119bd565b60086020525f90815260409020805460018201546002830180546001600160a01b03938416949290931692610ef8906124af565b80601f0160208091040260200160405190810160405280929190818152602001828054610f24906124af565b8015610f6f5780601f10610f4657610100808354040283529160200191610f6f565b820191905f5260205f20905b815481529060010190602001808311610f5257829003601f168201915b505050600384015460048501546005909501549394909390925060ff808216925061010082048116916201000090041688565b60025460ff16610fc45760405162461bcd60e51b815260040161068c90612366565b610fce5f33610a36565b610fea5760405162461bcd60e51b815260040161068c9061240b565b6001600160a01b0383165f8181526006602052604090819020805460ff19169055517ff108549d16b64478c331db7bf05d2f18412e9c0507340811569166b58bc9188e9061103b90859085906124e7565b60405180910390a2505050565b5f82815260208190526040902060010154611062816119b3565b6108768383611a4c565b61107461191c565b60025460ff166110965760405162461bcd60e51b815260040161068c90612366565b6003543410156110e85760405162461bcd60e51b815260206004820152601860248201527f5652414e3a20696e73756666696369656e74207374616b650000000000000000604482015260640161068c565b336001600160a01b038416036111405760405162461bcd60e51b815260206004820152601860248201527f5652414e3a2063616e6e6f742073656c662d7265706f72740000000000000000604482015260640161068c565b8061118d5760405162461bcd60e51b815260206004820152601760248201527f5652414e3a2065766964656e6365207265717569726564000000000000000000604482015260640161068c565b5f60075f815461119c90612516565b9190508190559050604051806101000160405280856001600160a01b03168152602001336001600160a01b0316815260200184848080601f0160208091040260200160405190810160405280939291908181526020018383808284375f920182905250938552505034602080850191909152426040808601919091526001606086018190526080860185905260a09095018490528684526008825292839020855181546001600160a01b03199081166001600160a01b039283161783559287015195820180549093169516949094179055508201516002820190611280908261258d565b50606082015160038201556080820151600482015560a08201516005909101805460c084015160e0909401511515620100000262ff0000199415156101000261ffff1990921660ff9094169390931717929092161790556001600160a01b0384165f818152600960209081526040808320805460018101825590845291909220018390555133919083907f34eaa275389aceab266f97a68ac3e573cc4922564ce181cc6322febf12cd8aca9061133b90889088903490612648565b60405180910390a460048054604051634e44d07160e11b81523392810192909252610100900461ffff16903090639c89a0e290602401602060405180830381865afa15801561138c573d5f5f3e3d5ffd5b505050506040513d601f19601f820116820180604052508101906113b09190612494565b61ffff16101580156113ca5750600454600160ff90911611155b156113da576113da816001611ab5565b506108af60018055565b6001600160a01b0381165f9081526009602090815260409182902080548351818402810184019094528084526060939283018282801561144157602002820191905f5260205f20905b81548152602001906001019080831161142d575b50505050509050919050565b60025460ff1661146f5760405162461bcd60e51b815260040161068c90612366565b6114865f51602061276d5f395f51905f5233610a36565b6114c55760405162461bcd60e51b815260206004820152601060248201526f5652414e3a206e6f7420656e67696e6560801b604482015260640161068c565b6103e88361ffff16111561150c5760405162461bcd60e51b815260206004820152600e60248201526d05652414e3a206d617820313030360941b604482015260640161068c565b6001600160a01b0384165f8181526005602052604090819020805461ffff87811661ffff198316179092559151911691907fd5b257df55c7b9c882313949f722d803cf7854cee4e4c1be1218aee7ebfccfc990611570908490889088908890612463565b60405180910390a25050505050565b60025460ff166115a15760405162461bcd60e51b815260040161068c90612366565b5f81815260086020526040902080546001600160a01b03166115fe5760405162461bcd60e51b8152602060048201526016602482015275159490538e881c995c1bdc9d081b9bdd08199bdd5b9960521b604482015260640161068c565b6005810154610100900460ff16156116515760405162461bcd60e51b8152602060048201526016602482015275159490538e88185b1c9958591e481c995cdbdb1d995960521b604482015260640161068c565b6001810154336001600160a01b03909116036116af5760405162461bcd60e51b815260206004820152601860248201527f5652414e3a2063616e6e6f7420636f6e6669726d206f776e0000000000000000604482015260640161068c565b80546001600160a01b03165f908152600a6020908152604080832033845290915290205460ff16156117235760405162461bcd60e51b815260206004820152601760248201527f5652414e3a20616c726561647920636f6e6669726d6564000000000000000000604482015260640161068c565b604051634e44d07160e11b81523360048201525f903090639c89a0e290602401602060405180830381865afa15801561175e573d5f5f3e3d5ffd5b505050506040513d601f19601f820116820180604052508101906117829190612494565b60045490915061ffff610100909104811690821610156117d85760405162461bcd60e51b81526020600482015260116024820152705652414e3a2072657020746f6f206c6f7760781b604482015260640161068c565b600582018054600191905f906117f290849060ff1661266b565b825460ff9182166101009390930a92830291909202199091161790555081546001600160a01b03165f908152600a60209081526040808320338085529252808320805460ff1916600117905551909185917fe09aedab03b4b039e5a8f05e7f84180e8e1362d73f489d23ef49d83c9e62b9ff9190a3600454600583015460ff9182169116106108af576108af836001611ab5565b60025460ff166118a85760405162461bcd60e51b815260040161068c90612366565b6118b25f33610a36565b6118ce5760405162461bcd60e51b815260040161068c9061240b565b6004805460ff83811660ff1983168117909355604080519190921680825260208201939093527f55795c0eda35967c550bd381b76edf26a4af258d35b3876a3fb1607071b6c03d91016109ff565b60026001540361193f57604051633ee5aeb560e01b815260040160405180910390fd5b6002600155565b6001600160a01b0383165f818152600560205260409020805461ffff85811661ffff1983161790925516907fd5b257df55c7b9c882313949f722d803cf7854cee4e4c1be1218aee7ebfccfc9821561199e57826119a2565b6101f45b858560405161096f93929190612684565b61084f8133611ed7565b5f6119c88383610a36565b611a45575f838152602081815260408083206001600160a01b03861684529091529020805460ff191660011790556119fd3390565b6001600160a01b0316826001600160a01b0316847f2f8788117e7eff1d82e926ec794901d17c78024a50270940304540a733656f0d60405160405180910390a450600161065c565b505f61065c565b5f611a578383610a36565b15611a45575f838152602081815260408083206001600160a01b0386168085529252808320805460ff1916905551339286917ff6391f5c32d9c69d2a47ea670b442974b53935d1edc7fd64eb21e047a839171b9190a450600161065c565b5f8281526008602052604090206005810154610100900460ff1615611ad957505050565b60058101805483158015620100000262ffff00199092169190911761010017909155611dfa578054604051634e44d07160e11b81526001600160a01b0390911660048201525f903090639c89a0e290602401602060405180830381865afa158015611b46573d5f5f3e3d5ffd5b505050506040513d601f19601f82011682018060405250810190611b6a9190612494565b90505f60c88261ffff1611611b7f5781611b82565b60c85b90505f611b8f82846126aa565b845460408051808201909152601081526f14995c1bdc9d0818dbdb999a5c9b595960821b6020820152919250611bd2916001600160a01b03909116908390611946565b60018401546001600160a01b03165f908152600b60205260408120805491611bf983612516565b90915550506001840154604051634e44d07160e11b81526001600160a01b0390911660048201525f90610384903090639c89a0e290602401602060405180830381865afa158015611c4c573d5f5f3e3d5ffd5b505050506040513d601f19601f82011682018060405250810190611c709190612494565b61ffff1610611c7f575f611c82565b600a5b60ff1690508015611d3c576001850154604051634e44d07160e11b81526001600160a01b0390911660048201819052611d3c9183903090639c89a0e290602401602060405180830381865afa158015611cdd573d5f5f3e3d5ffd5b505050506040513d601f19601f82011682018060405250810190611d019190612494565b611d0b91906126c4565b6040518060400160405280601381526020017215985b1a59081c995c1bdc9d081c995dd85c99606a1b815250611946565b60648261ffff161015611db25784546001600160a01b039081165f9081526006602052604090819020805460ff19166001179055865490519116907f8d010263441c54071621d310da89df966422793ea2a3e32584fbbbf9d7d3e5b290611da9908a9060028a01906126de565b60405180910390a25b604080516001815261ffff8516602082015288917f2e33f5e0acf11389119d250831e70f318effddf13753dbf9b6900ac66e3b814e910160405180910390a250505050505050565b600181015460038201546040515f926001600160a01b031691908381818185875af1925050503d805f8114611e4a576040519150601f19603f3d011682016040523d82523d5f602084013e611e4f565b606091505b5050905080611ea05760405162461bcd60e51b815260206004820152601960248201527f5652414e3a207374616b6520726566756e64206661696c656400000000000000604482015260640161068c565b604080515f808252602082015285917f2e33f5e0acf11389119d250831e70f318effddf13753dbf9b6900ac66e3b814e910161096f565b611ee18282610a36565b610b005760405163e2517d3f60e01b81526001600160a01b03821660048201526024810183905260440161068c565b5f60208284031215611f20575f5ffd5b81356001600160e01b031981168114610a8a575f5ffd5b5f60208284031215611f47575f5ffd5b5035919050565b80356001600160a01b0381168114611f64575f5ffd5b919050565b5f60208284031215611f79575f5ffd5b610a8a82611f4e565b5f5f60408385031215611f93575f5ffd5b82359150611fa360208401611f4e565b90509250929050565b5f5f60408385031215611fbd575f5ffd5b611fc683611f4e565b9150611fa360208401611f4e565b5f5f83601f840112611fe4575f5ffd5b50813567ffffffffffffffff811115611ffb575f5ffd5b602083019150836020828501011115612012575f5ffd5b9250929050565b5f5f5f5f6060858703121561202c575f5ffd5b61203585611f4e565b935060208501359250604085013567ffffffffffffffff811115612057575f5ffd5b61206387828801611fd4565b95989497509550505050565b5f5f60408385031215612080575f5ffd5b61208983611f4e565b946020939093013593505050565b5f5f604083850312156120a8575f5ffd5b82359150602083013580151581146120be575f5ffd5b809150509250929050565b5f5f83601f8401126120d9575f5ffd5b50813567ffffffffffffffff8111156120f0575f5ffd5b6020830191508360208260051b8501011115612012575f5ffd5b5f5f5f5f5f5f6060878903121561211f575f5ffd5b863567ffffffffffffffff811115612135575f5ffd5b61214189828a016120c9565b909750955050602087013567ffffffffffffffff811115612160575f5ffd5b61216c89828a016120c9565b909550935050604087013567ffffffffffffffff81111561218b575f5ffd5b61219789828a01611fd4565b979a9699509497509295939492505050565b61ffff8116811461084f575f5ffd5b5f5f604083850312156121c9575f5ffd5b6121d283611f4e565b915060208301356120be816121a9565b5f81518084528060208401602086015e5f602082860101526020601f19601f83011685010191505092915050565b6001600160a01b03898116825288166020820152610100604082018190525f9061223c908301896121e2565b606083019790975250608081019490945260ff9290921660a0840152151560c0830152151560e0909101529392505050565b5f5f5f60408486031215612280575f5ffd5b61228984611f4e565b9250602084013567ffffffffffffffff8111156122a4575f5ffd5b6122b086828701611fd4565b9497909650939450505050565b602080825282518282018190525f918401906040840190835b818110156122f45783518352602093840193909201916001016122d6565b509095945050505050565b5f5f5f5f60608587031215612312575f5ffd5b61231b85611f4e565b9350602085013561232b816121a9565b9250604085013567ffffffffffffffff811115612057575f5ffd5b5f60208284031215612356575f5ffd5b813560ff81168114610a8a575f5ffd5b602080825260159082015274159490538e881b9bdd081a5b9a5d1a585b1a5e9959605a1b604082015260600190565b602080825260129082015271159490538e881d5b985d5d1a1bdc9a5e995960721b604082015260600190565b81835281816020850137505f828201602090810191909152601f909101601f19169091010190565b838152604060208201525f6124026040830184866123c1565b95945050505050565b6020808252600f908201526e2b2920a71d103737ba1030b236b4b760891b604082015260600190565b634e487b7160e01b5f52603260045260245ffd5b5f60208284031215612458575f5ffd5b8135610a8a816121a9565b61ffff8516815261ffff84166020820152606060408201525f61248a6060830184866123c1565b9695505050505050565b5f602082840312156124a4575f5ffd5b8151610a8a816121a9565b600181811c908216806124c357607f821691505b6020821081036124e157634e487b7160e01b5f52602260045260245ffd5b50919050565b602081525f6124fa6020830184866123c1565b949350505050565b634e487b7160e01b5f52601160045260245ffd5b5f6001820161252757612527612502565b5060010190565b634e487b7160e01b5f52604160045260245ffd5b601f8211156108af57805f5260205f20601f840160051c810160208510156125675750805b601f840160051c820191505b81811015612586575f8155600101612573565b5050505050565b815167ffffffffffffffff8111156125a7576125a761252e565b6125bb816125b584546124af565b84612542565b6020601f8211600181146125ed575f83156125d65750848201515b5f19600385901b1c1916600184901b178455612586565b5f84815260208120601f198516915b8281101561261c57878501518255602094850194600190920191016125fc565b508482101561263957868401515f19600387901b60f8161c191681555b50505050600190811b01905550565b604081525f61265b6040830185876123c1565b9050826020830152949350505050565b60ff818116838216019081111561065c5761065c612502565b61ffff8416815261ffff83166020820152606060408201525f61240260608301846121e2565b61ffff828116828216039081111561065c5761065c612502565b61ffff818116838216019081111561065c5761065c612502565b828152604060208201525f5f83546126f5816124af565b806040860152600182165f8114612713576001811461272f57612760565b60ff1983166060870152606082151560051b8701019350612760565b865f5260205f205f5b8381101561275757815488820160600152600190910190602001612738565b87016060019450505b5091969550505050505056fe5d0c23b505d97686a7eb149c2db3c9cdda71d0f1778515d411985ce042bf17a1a2646970667358221220ffc3ad2095486a7c1a03adc69ac7cbcfc7be324604c389a269a996b94c33dd2d64736f6c634300081c0033",
  "linkReferences": {},
  "deployedLinkReferences": {},
  "immutableReferences": {},
  "inputSourceName": "project/contracts/core/VindexRegistry.sol",
  "buildInfoId": "solc-0_8_28-fe3ba60a165702574140af0908ea767d2904cdc0"
}