{
  "_format": "hh3-artifact-1",
  "contractName": "PayWithPayID",
  "sourceName": "contracts/core/PayWithPayID.sol",
  "abi": [
    {
      "inputs": [],
      "stateMutability": "nonpayable",
      "type": "constructor"
    },
    {
      "inputs": [],
      "name": "AlreadyInitialized",
      "type": "error"
    },
    {
      "inputs": [],
      "name": "NotInitialized",
      "type": "error"
    },
    {
      "inputs": [],
      "name": "ReentrancyGuardReentrantCall",
      "type": "error"
    },
    {
      "inputs": [],
      "name": "ZeroAddress",
      "type": "error"
    },
    {
      "anonymous": false,
      "inputs": [
        {
          "indexed": true,
          "internalType": "address",
          "name": "verifier",
          "type": "address"
        },
        {
          "indexed": true,
          "internalType": "address",
          "name": "attestationVerifier",
          "type": "address"
        }
      ],
      "name": "Initialized",
      "type": "event"
    },
    {
      "anonymous": false,
      "inputs": [
        {
          "indexed": true,
          "internalType": "address",
          "name": "payer",
          "type": "address"
        },
        {
          "indexed": true,
          "internalType": "address",
          "name": "receiver",
          "type": "address"
        },
        {
          "indexed": true,
          "internalType": "address",
          "name": "asset",
          "type": "address"
        },
        {
          "indexed": false,
          "internalType": "uint256",
          "name": "amount",
          "type": "uint256"
        },
        {
          "indexed": false,
          "internalType": "bytes32",
          "name": "payId",
          "type": "bytes32"
        },
        {
          "indexed": false,
          "internalType": "bytes32",
          "name": "nonce",
          "type": "bytes32"
        }
      ],
      "name": "PaymentERC20",
      "type": "event"
    },
    {
      "anonymous": false,
      "inputs": [
        {
          "indexed": true,
          "internalType": "address",
          "name": "payer",
          "type": "address"
        },
        {
          "indexed": true,
          "internalType": "address",
          "name": "receiver",
          "type": "address"
        },
        {
          "indexed": false,
          "internalType": "uint256",
          "name": "amount",
          "type": "uint256"
        },
        {
          "indexed": false,
          "internalType": "bytes32",
          "name": "payId",
          "type": "bytes32"
        },
        {
          "indexed": false,
          "internalType": "bytes32",
          "name": "nonce",
          "type": "bytes32"
        }
      ],
      "name": "PaymentETH",
      "type": "event"
    },
    {
      "inputs": [],
      "name": "attestationVerifier",
      "outputs": [
        {
          "internalType": "contract AttestationVerifier",
          "name": "",
          "type": "address"
        }
      ],
      "stateMutability": "view",
      "type": "function"
    },
    {
      "inputs": [
        {
          "internalType": "address",
          "name": "verifier_",
          "type": "address"
        },
        {
          "internalType": "address",
          "name": "attestationVerifier_",
          "type": "address"
        }
      ],
      "name": "initialize",
      "outputs": [],
      "stateMutability": "nonpayable",
      "type": "function"
    },
    {
      "inputs": [],
      "name": "isInitialized",
      "outputs": [
        {
          "internalType": "bool",
          "name": "",
          "type": "bool"
        }
      ],
      "stateMutability": "view",
      "type": "function"
    },
    {
      "inputs": [
        {
          "components": [
            {
              "internalType": "bytes32",
              "name": "version",
              "type": "bytes32"
            },
            {
              "internalType": "bytes32",
              "name": "payId",
              "type": "bytes32"
            },
            {
              "internalType": "address",
              "name": "payer",
              "type": "address"
            },
            {
              "internalType": "address",
              "name": "receiver",
              "type": "address"
            },
            {
              "internalType": "address",
              "name": "asset",
              "type": "address"
            },
            {
              "internalType": "uint256",
              "name": "amount",
              "type": "uint256"
            },
            {
              "internalType": "bytes32",
              "name": "contextHash",
              "type": "bytes32"
            },
            {
              "internalType": "bytes32",
              "name": "ruleSetHash",
              "type": "bytes32"
            },
            {
              "internalType": "address",
              "name": "ruleAuthority",
              "type": "address"
            },
            {
              "internalType": "uint64",
              "name": "issuedAt",
              "type": "uint64"
            },
            {
              "internalType": "uint64",
              "name": "expiresAt",
              "type": "uint64"
            },
            {
              "internalType": "bytes32",
              "name": "nonce",
              "type": "bytes32"
            },
            {
              "internalType": "bool",
              "name": "requiresAttestation",
              "type": "bool"
            },
            {
              "internalType": "bytes32",
              "name": "attestationUIDsHash",
              "type": "bytes32"
            }
          ],
          "internalType": "struct PayIDVerifier.Decision",
          "name": "d",
          "type": "tuple"
        },
        {
          "internalType": "bytes",
          "name": "sig",
          "type": "bytes"
        },
        {
          "internalType": "bytes32[]",
          "name": "attestationUIDs",
          "type": "bytes32[]"
        }
      ],
      "name": "payERC20",
      "outputs": [],
      "stateMutability": "nonpayable",
      "type": "function"
    },
    {
      "inputs": [
        {
          "components": [
            {
              "internalType": "bytes32",
              "name": "version",
              "type": "bytes32"
            },
            {
              "internalType": "bytes32",
              "name": "payId",
              "type": "bytes32"
            },
            {
              "internalType": "address",
              "name": "payer",
              "type": "address"
            },
            {
              "internalType": "address",
              "name": "receiver",
              "type": "address"
            },
            {
              "internalType": "address",
              "name": "asset",
              "type": "address"
            },
            {
              "internalType": "uint256",
              "name": "amount",
              "type": "uint256"
            },
            {
              "internalType": "bytes32",
              "name": "contextHash",
              "type": "bytes32"
            },
            {
              "internalType": "bytes32",
              "name": "ruleSetHash",
              "type": "bytes32"
            },
            {
              "internalType": "address",
              "name": "ruleAuthority",
              "type": "address"
            },
            {
              "internalType": "uint64",
              "name": "issuedAt",
              "type": "uint64"
            },
            {
              "internalType": "uint64",
              "name": "expiresAt",
              "type": "uint64"
            },
            {
              "internalType": "bytes32",
              "name": "nonce",
              "type": "bytes32"
            },
            {
              "internalType": "bool",
              "name": "requiresAttestation",
              "type": "bool"
            },
            {
              "internalType": "bytes32",
              "name": "attestationUIDsHash",
              "type": "bytes32"
            }
          ],
          "internalType": "struct PayIDVerifier.Decision",
          "name": "d",
          "type": "tuple"
        },
        {
          "internalType": "bytes",
          "name": "sig",
          "type": "bytes"
        },
        {
          "internalType": "bytes32[]",
          "name": "attestationUIDs",
          "type": "bytes32[]"
        },
        {
          "internalType": "address",
          "name": "tokenPriceOracle",
          "type": "address"
        },
        {
          "internalType": "uint256",
          "name": "minUsdValue",
          "type": "uint256"
        },
        {
          "internalType": "uint8",
          "name": "tokenDecimals",
          "type": "uint8"
        }
      ],
      "name": "payERC20WithOracleGuard",
      "outputs": [],
      "stateMutability": "nonpayable",
      "type": "function"
    },
    {
      "inputs": [
        {
          "components": [
            {
              "internalType": "bytes32",
              "name": "version",
              "type": "bytes32"
            },
            {
              "internalType": "bytes32",
              "name": "payId",
              "type": "bytes32"
            },
            {
              "internalType": "address",
              "name": "payer",
              "type": "address"
            },
            {
              "internalType": "address",
              "name": "receiver",
              "type": "address"
            },
            {
              "internalType": "address",
              "name": "asset",
              "type": "address"
            },
            {
              "internalType": "uint256",
              "name": "amount",
              "type": "uint256"
            },
            {
              "internalType": "bytes32",
              "name": "contextHash",
              "type": "bytes32"
            },
            {
              "internalType": "bytes32",
              "name": "ruleSetHash",
              "type": "bytes32"
            },
            {
              "internalType": "address",
              "name": "ruleAuthority",
              "type": "address"
            },
            {
              "internalType": "uint64",
              "name": "issuedAt",
              "type": "uint64"
            },
            {
              "internalType": "uint64",
              "name": "expiresAt",
              "type": "uint64"
            },
            {
              "internalType": "bytes32",
              "name": "nonce",
              "type": "bytes32"
            },
            {
              "internalType": "bool",
              "name": "requiresAttestation",
              "type": "bool"
            },
            {
              "internalType": "bytes32",
              "name": "attestationUIDsHash",
              "type": "bytes32"
            }
          ],
          "internalType": "struct PayIDVerifier.Decision",
          "name": "d",
          "type": "tuple"
        },
        {
          "internalType": "bytes",
          "name": "sig",
          "type": "bytes"
        },
        {
          "internalType": "bytes32[]",
          "name": "attestationUIDs",
          "type": "bytes32[]"
        }
      ],
      "name": "payNative",
      "outputs": [],
      "stateMutability": "payable",
      "type": "function"
    },
    {
      "inputs": [],
      "name": "verifier",
      "outputs": [
        {
          "internalType": "contract PayIDVerifier",
          "name": "",
          "type": "address"
        }
      ],
      "stateMutability": "view",
      "type": "function"
    }
  ],
  "bytecode": "0x6080604052348015600e575f5ffd5b5060017f9b779b17422d0df92223018b32b4d1fa46e071723d6817e2486d003becc55f0055611610806100405f395ff3fe60806040526004361061006e575f3560e01c80636f3d898e1161004c5780636f3d898e146100f757806370305415146101165780638f8c2f9514610129578063b4b3c5a014610148575f5ffd5b80632b7ac3f314610072578063392e53cd146100ad578063485cc955146100d6575b5f5ffd5b34801561007d575f5ffd5b505f54610090906001600160a01b031681565b6040516001600160a01b0390911681526020015b60405180910390f35b3480156100b8575f5ffd5b50600154600160a01b900460ff1660405190151581526020016100a4565b3480156100e1575f5ffd5b506100f56100f0366004610f40565b610167565b005b348015610102575f5ffd5b506100f561011136600461100e565b610248565b6100f56101243660046110c7565b6107dd565b348015610134575f5ffd5b506100f56101433660046110c7565b610b4b565b348015610153575f5ffd5b50600154610090906001600160a01b031681565b600154600160a01b900460ff16156101915760405162dc149f60e41b815260040160405180910390fd5b6001600160a01b0382166101b85760405163d92e233d60e01b815260040160405180910390fd5b6001600160a01b0381166101df5760405163d92e233d60e01b815260040160405180910390fd5b600180545f80546001600160a01b038087166001600160a01b03199092168217835585166001600160a81b03199093168317600160a01b179093556040519192917f3cd5ec01b1ae7cfec6ca1863e2cd6aa25d6d1702825803ff2b7cc95010fffdc29190a35050565b600154600160a01b900460ff16610272576040516321c4e35760e21b815260040160405180910390fd5b61027a610ed9565b5f61028b60a08a0160808b0161114b565b6001600160a01b0316036102d85760405162461bcd60e51b815260206004820152600f60248201526e041535345545f4e4f545f455243323608c1b60448201526064015b60405180910390fd5b6001600160a01b038316158015906102ef57505f82115b156104d0575f5f5f5f866001600160a01b031663feaf968c6040518163ffffffff1660e01b815260040160a060405180830381865afa158015610334573d5f5f3e3d5ffd5b505050506040513d601f19601f820116820180604052508101906103589190611184565b9450945050935093505f83136103a75760405162461bcd60e51b8152602060048201526014602482015273494e56414c49445f4f5241434c455f505249434560601b60448201526064016102cf565b8369ffffffffffffffffffff168169ffffffffffffffffffff1610156104035760405162461bcd60e51b81526020600482015260116024820152705354414c455f4f5241434c455f4441544160781b60448201526064016102cf565b610e1061041083426111e6565b11156104535760405162461bcd60e51b81526020600482015260126024820152714f5241434c455f50524943455f5354414c4560701b60448201526064016102cf565b5f61045f8660086111ff565b61046a90600a6112fb565b848e60a0013561047a9190611309565b6104849190611320565b9050868110156104ca5760405162461bcd60e51b815260206004820152601160248201527042454c4f575f5553445f4d494e494d554d60781b60448201526064016102cf565b50505050505b6104e26101a089016101808a0161135a565b156105be57836105045760405162461bcd60e51b81526004016102cf90611375565b876101a00135858560405160200161051d9291906113d3565b60405160208183030381529060405280519060200120146105505760405162461bcd60e51b81526004016102cf906113ee565b6001546001600160a01b031663cc600a9a868661057360608d0160408e0161114b565b6040518463ffffffff1660e01b815260040161059193929190611418565b5f6040518083038186803b1580156105a7575f5ffd5b505afa1580156105b9573d5f5f3e3d5ffd5b505050505b5f5460405163343e74a760e01b81526001600160a01b039091169063343e74a7906105f1908b908b908b90600401611482565b5f604051808303815f87803b158015610608575f5ffd5b505af115801561061a573d5f5f3e3d5ffd5b505f925061063191505060a08a0160808b0161114b565b6001600160a01b03166323b872dd61064f60608c0160408d0161114b565b61065f60808d0160608e0161114b565b6040516001600160e01b031960e085901b1681526001600160a01b0392831660048201529116602482015260a08c013560448201526064016020604051808303815f875af11580156106b3573d5f5f3e3d5ffd5b505050506040513d601f19601f820116820180604052508101906106d7919061159f565b9050806107185760405162461bcd60e51b815260206004820152600f60248201526e1514905394d1915497d19052531151608a1b60448201526064016102cf565b61072860a08a0160808b0161114b565b6001600160a01b031661074160808b0160608c0161114b565b6001600160a01b031661075a60608c0160408d0161114b565b6001600160a01b03167f0fffc78c87834dc5e7ba16e472767d7cde8dc6fd91db1cf448a929627dbe26388c60a001358d602001358e61016001356040516107b4939291909283526020830191909152604082015260600190565b60405180910390a4506107d360015f5160206115bb5f395f51905f5255565b5050505050505050565b600154600160a01b900460ff16610807576040516321c4e35760e21b815260040160405180910390fd5b61080f610ed9565b5f61082060a087016080880161114b565b6001600160a01b0316146108695760405162461bcd60e51b815260206004820152601060248201526f41535345545f4e4f545f4e415449564560801b60448201526064016102cf565b8460a0013534146108ae5760405162461bcd60e51b815260206004820152600f60248201526e0829a9eaa9ca8be9a92a69a82a8869608b1b60448201526064016102cf565b6108c06101a08601610180870161135a565b1561099c57806108e25760405162461bcd60e51b81526004016102cf90611375565b846101a0013582826040516020016108fb9291906113d3565b604051602081830303815290604052805190602001201461092e5760405162461bcd60e51b81526004016102cf906113ee565b6001546001600160a01b031663cc600a9a838361095160608a0160408b0161114b565b6040518463ffffffff1660e01b815260040161096f93929190611418565b5f6040518083038186803b158015610985575f5ffd5b505afa158015610997573d5f5f3e3d5ffd5b505050505b5f5460405163343e74a760e01b81526001600160a01b039091169063343e74a7906109cf90889088908890600401611482565b5f604051808303815f87803b1580156109e6575f5ffd5b505af11580156109f8573d5f5f3e3d5ffd5b505f9250610a0f915050608087016060880161114b565b6001600160a01b0316346040515f6040518083038185875af1925050503d805f8114610a56576040519150601f19603f3d011682016040523d82523d5f602084013e610a5b565b606091505b5050905080610aa25760405162461bcd60e51b815260206004820152601360248201527211551217d514905394d1915497d19052531151606a1b60448201526064016102cf565b610ab2608087016060880161114b565b6001600160a01b0316610acb606088016040890161114b565b6001600160a01b03167f024c9755552d5294bffc9fdfb51320404678375c011c29e4195dd33bd8de90718860a0013589602001358a6101600135604051610b25939291909283526020830191909152604082015260600190565b60405180910390a350610b4460015f5160206115bb5f395f51905f5255565b5050505050565b600154600160a01b900460ff16610b75576040516321c4e35760e21b815260040160405180910390fd5b610b7d610ed9565b5f610b8e60a087016080880161114b565b6001600160a01b031603610bd65760405162461bcd60e51b815260206004820152600f60248201526e041535345545f4e4f545f455243323608c1b60448201526064016102cf565b610be86101a08601610180870161135a565b15610cc45780610c0a5760405162461bcd60e51b81526004016102cf90611375565b846101a001358282604051602001610c239291906113d3565b6040516020818303038152906040528051906020012014610c565760405162461bcd60e51b81526004016102cf906113ee565b6001546001600160a01b031663cc600a9a8383610c7960608a0160408b0161114b565b6040518463ffffffff1660e01b8152600401610c9793929190611418565b5f6040518083038186803b158015610cad575f5ffd5b505afa158015610cbf573d5f5f3e3d5ffd5b505050505b5f5460405163343e74a760e01b81526001600160a01b039091169063343e74a790610cf790889088908890600401611482565b5f604051808303815f87803b158015610d0e575f5ffd5b505af1158015610d20573d5f5f3e3d5ffd5b505f9250610d3791505060a087016080880161114b565b6001600160a01b03166323b872dd610d556060890160408a0161114b565b610d6560808a0160608b0161114b565b6040516001600160e01b031960e085901b1681526001600160a01b0392831660048201529116602482015260a089013560448201526064016020604051808303815f875af1158015610db9573d5f5f3e3d5ffd5b505050506040513d601f19601f82011682018060405250810190610ddd919061159f565b905080610e1e5760405162461bcd60e51b815260206004820152600f60248201526e1514905394d1915497d19052531151608a1b60448201526064016102cf565b610e2e60a087016080880161114b565b6001600160a01b0316610e47608088016060890161114b565b6001600160a01b0316610e606060890160408a0161114b565b6001600160a01b03167f0fffc78c87834dc5e7ba16e472767d7cde8dc6fd91db1cf448a929627dbe26388960a001358a602001358b6101600135604051610eba939291909283526020830191909152604082015260600190565b60405180910390a450610b4460015f5160206115bb5f395f51905f5255565b610ee1610ef4565b60025f5160206115bb5f395f51905f5255565b5f5160206115bb5f395f51905f5254600203610f2357604051633ee5aeb560e01b815260040160405180910390fd5b565b80356001600160a01b0381168114610f3b575f5ffd5b919050565b5f5f60408385031215610f51575f5ffd5b610f5a83610f25565b9150610f6860208401610f25565b90509250929050565b5f6101c08284031215610f82575f5ffd5b50919050565b5f5f83601f840112610f98575f5ffd5b50813567ffffffffffffffff811115610faf575f5ffd5b602083019150836020828501011115610fc6575f5ffd5b9250929050565b5f5f83601f840112610fdd575f5ffd5b50813567ffffffffffffffff811115610ff4575f5ffd5b6020830191508360208260051b8501011115610fc6575f5ffd5b5f5f5f5f5f5f5f5f610260898b031215611026575f5ffd5b6110308a8a610f71565b97506101c089013567ffffffffffffffff81111561104c575f5ffd5b6110588b828c01610f88565b9098509650506101e089013567ffffffffffffffff811115611078575f5ffd5b6110848b828c01610fcd565b909650945061109890506102008a01610f25565b9250610220890135915061024089013560ff811681146110b6575f5ffd5b809150509295985092959890939650565b5f5f5f5f5f61020086880312156110dc575f5ffd5b6110e68787610f71565b94506101c086013567ffffffffffffffff811115611102575f5ffd5b61110e88828901610f88565b9095509350506101e086013567ffffffffffffffff81111561112e575f5ffd5b61113a88828901610fcd565b969995985093965092949392505050565b5f6020828403121561115b575f5ffd5b61116482610f25565b9392505050565b805169ffffffffffffffffffff81168114610f3b575f5ffd5b5f5f5f5f5f60a08688031215611198575f5ffd5b6111a18661116b565b602087015160408801516060890151929750909550935091506111c66080870161116b565b90509295509295909350565b634e487b7160e01b5f52601160045260245ffd5b818103818111156111f9576111f96111d2565b92915050565b60ff81811683821601908111156111f9576111f96111d2565b6001815b600184111561125357808504811115611237576112376111d2565b600184161561124557908102905b60019390931c92800261121c565b935093915050565b5f82611269575060016111f9565b8161127557505f6111f9565b816001811461128b5760028114611295576112b1565b60019150506111f9565b60ff8411156112a6576112a66111d2565b50506001821b6111f9565b5060208310610133831016604e8410600b84101617156112d4575081810a6111f9565b6112e05f198484611218565b805f19048211156112f3576112f36111d2565b029392505050565b5f61116460ff84168361125b565b80820281158282048414176111f9576111f96111d2565b5f8261133a57634e487b7160e01b5f52601260045260245ffd5b500490565b801515811461134c575f5ffd5b50565b8035610f3b8161133f565b5f6020828403121561136a575f5ffd5b81356111648161133f565b6020808252601490820152731055151154d510551253d397d49154555254915160621b604082015260600190565b8183525f6001600160fb1b038311156113ba575f5ffd5b8260051b80836020870137939093016020019392505050565b602081525f6113e66020830184866113a3565b949350505050565b60208082526010908201526f0929cac82989288beaa9288be9082a6960831b604082015260600190565b604081525f61142b6040830185876113a3565b905060018060a01b0383166020830152949350505050565b803567ffffffffffffffff81168114610f3b575f5ffd5b81835281816020850137505f828201602090810191909152601f909101601f19169091010190565b83358152602080850135908201525f61149d60408601610f25565b6001600160a01b031660408301526114b760608601610f25565b6001600160a01b031660608301526114d160808601610f25565b6001600160a01b0316608083015260a0858101359083015260c0808601359083015260e0808601359083015261150a6101008601610f25565b6001600160a01b03166101008301526115266101208601611443565b67ffffffffffffffff166101208301526115436101408601611443565b67ffffffffffffffff16610140830152610160858101359083015261156b610180860161134f565b15156101808301526101a085810135908301526101e06101c08301819052611596908301848661145a565b95945050505050565b5f602082840312156115af575f5ffd5b81516111648161133f56fe9b779b17422d0df92223018b32b4d1fa46e071723d6817e2486d003becc55f00a26469706673582212207ddd623454c362713bdb0d69a0d97bdc71c240ef7a386d4d33f743865e33fdd564736f6c634300081c0033",
  "linkReferences": {},
  "deployedLinkReferences": {},
  "immutableReferences": {},
  "inputSourceName": "project/contracts/core/PayWithPayID.sol",
  "buildInfoId": "solc-0_8_28-bb8b5aff873f90fe5d4543bc6f825b2c0a523a7d"
}