{
  "_format": "hh3-artifact-1",
  "contractName": "RuleItemERC721",
  "sourceName": "contracts/core/RuleItemERC721.sol",
  "abi": [
    {
      "inputs": [
        {
          "internalType": "string",
          "name": "name",
          "type": "string"
        },
        {
          "internalType": "string",
          "name": "symbol",
          "type": "string"
        }
      ],
      "stateMutability": "nonpayable",
      "type": "constructor"
    },
    {
      "inputs": [],
      "name": "AccessControlBadConfirmation",
      "type": "error"
    },
    {
      "inputs": [
        {
          "internalType": "address",
          "name": "account",
          "type": "address"
        },
        {
          "internalType": "bytes32",
          "name": "neededRole",
          "type": "bytes32"
        }
      ],
      "name": "AccessControlUnauthorizedAccount",
      "type": "error"
    },
    {
      "inputs": [],
      "name": "AlreadyInitialized",
      "type": "error"
    },
    {
      "inputs": [
        {
          "internalType": "address",
          "name": "sender",
          "type": "address"
        },
        {
          "internalType": "uint256",
          "name": "tokenId",
          "type": "uint256"
        },
        {
          "internalType": "address",
          "name": "owner",
          "type": "address"
        }
      ],
      "name": "ERC721IncorrectOwner",
      "type": "error"
    },
    {
      "inputs": [
        {
          "internalType": "address",
          "name": "operator",
          "type": "address"
        },
        {
          "internalType": "uint256",
          "name": "tokenId",
          "type": "uint256"
        }
      ],
      "name": "ERC721InsufficientApproval",
      "type": "error"
    },
    {
      "inputs": [
        {
          "internalType": "address",
          "name": "approver",
          "type": "address"
        }
      ],
      "name": "ERC721InvalidApprover",
      "type": "error"
    },
    {
      "inputs": [
        {
          "internalType": "address",
          "name": "operator",
          "type": "address"
        }
      ],
      "name": "ERC721InvalidOperator",
      "type": "error"
    },
    {
      "inputs": [
        {
          "internalType": "address",
          "name": "owner",
          "type": "address"
        }
      ],
      "name": "ERC721InvalidOwner",
      "type": "error"
    },
    {
      "inputs": [
        {
          "internalType": "address",
          "name": "receiver",
          "type": "address"
        }
      ],
      "name": "ERC721InvalidReceiver",
      "type": "error"
    },
    {
      "inputs": [
        {
          "internalType": "address",
          "name": "sender",
          "type": "address"
        }
      ],
      "name": "ERC721InvalidSender",
      "type": "error"
    },
    {
      "inputs": [
        {
          "internalType": "uint256",
          "name": "tokenId",
          "type": "uint256"
        }
      ],
      "name": "ERC721NonexistentToken",
      "type": "error"
    },
    {
      "inputs": [],
      "name": "EnforcedPause",
      "type": "error"
    },
    {
      "inputs": [],
      "name": "ExpectedPause",
      "type": "error"
    },
    {
      "inputs": [],
      "name": "ZeroAddress",
      "type": "error"
    },
    {
      "anonymous": false,
      "inputs": [
        {
          "indexed": true,
          "internalType": "address",
          "name": "owner",
          "type": "address"
        },
        {
          "indexed": true,
          "internalType": "address",
          "name": "approved",
          "type": "address"
        },
        {
          "indexed": true,
          "internalType": "uint256",
          "name": "tokenId",
          "type": "uint256"
        }
      ],
      "name": "Approval",
      "type": "event"
    },
    {
      "anonymous": false,
      "inputs": [
        {
          "indexed": true,
          "internalType": "address",
          "name": "owner",
          "type": "address"
        },
        {
          "indexed": true,
          "internalType": "address",
          "name": "operator",
          "type": "address"
        },
        {
          "indexed": false,
          "internalType": "bool",
          "name": "approved",
          "type": "bool"
        }
      ],
      "name": "ApprovalForAll",
      "type": "event"
    },
    {
      "anonymous": false,
      "inputs": [
        {
          "indexed": false,
          "internalType": "uint256",
          "name": "_fromTokenId",
          "type": "uint256"
        },
        {
          "indexed": false,
          "internalType": "uint256",
          "name": "_toTokenId",
          "type": "uint256"
        }
      ],
      "name": "BatchMetadataUpdate",
      "type": "event"
    },
    {
      "anonymous": false,
      "inputs": [
        {
          "indexed": true,
          "internalType": "address",
          "name": "admin",
          "type": "address"
        },
        {
          "indexed": true,
          "internalType": "address",
          "name": "oracle",
          "type": "address"
        }
      ],
      "name": "Initialized",
      "type": "event"
    },
    {
      "anonymous": false,
      "inputs": [
        {
          "indexed": false,
          "internalType": "uint256",
          "name": "_tokenId",
          "type": "uint256"
        }
      ],
      "name": "MetadataUpdate",
      "type": "event"
    },
    {
      "anonymous": false,
      "inputs": [
        {
          "indexed": true,
          "internalType": "address",
          "name": "oldFeed",
          "type": "address"
        },
        {
          "indexed": true,
          "internalType": "address",
          "name": "newFeed",
          "type": "address"
        }
      ],
      "name": "OracleUpdated",
      "type": "event"
    },
    {
      "anonymous": false,
      "inputs": [
        {
          "indexed": false,
          "internalType": "address",
          "name": "account",
          "type": "address"
        }
      ],
      "name": "Paused",
      "type": "event"
    },
    {
      "anonymous": false,
      "inputs": [
        {
          "indexed": true,
          "internalType": "bytes32",
          "name": "role",
          "type": "bytes32"
        },
        {
          "indexed": true,
          "internalType": "bytes32",
          "name": "previousAdminRole",
          "type": "bytes32"
        },
        {
          "indexed": true,
          "internalType": "bytes32",
          "name": "newAdminRole",
          "type": "bytes32"
        }
      ],
      "name": "RoleAdminChanged",
      "type": "event"
    },
    {
      "anonymous": false,
      "inputs": [
        {
          "indexed": true,
          "internalType": "bytes32",
          "name": "role",
          "type": "bytes32"
        },
        {
          "indexed": true,
          "internalType": "address",
          "name": "account",
          "type": "address"
        },
        {
          "indexed": true,
          "internalType": "address",
          "name": "sender",
          "type": "address"
        }
      ],
      "name": "RoleGranted",
      "type": "event"
    },
    {
      "anonymous": false,
      "inputs": [
        {
          "indexed": true,
          "internalType": "bytes32",
          "name": "role",
          "type": "bytes32"
        },
        {
          "indexed": true,
          "internalType": "address",
          "name": "account",
          "type": "address"
        },
        {
          "indexed": true,
          "internalType": "address",
          "name": "sender",
          "type": "address"
        }
      ],
      "name": "RoleRevoked",
      "type": "event"
    },
    {
      "anonymous": false,
      "inputs": [
        {
          "indexed": true,
          "internalType": "uint256",
          "name": "ruleId",
          "type": "uint256"
        },
        {
          "indexed": true,
          "internalType": "uint256",
          "name": "tokenId",
          "type": "uint256"
        }
      ],
      "name": "RuleActivated",
      "type": "event"
    },
    {
      "anonymous": false,
      "inputs": [
        {
          "indexed": true,
          "internalType": "uint256",
          "name": "ruleId",
          "type": "uint256"
        },
        {
          "indexed": true,
          "internalType": "uint256",
          "name": "rootRuleId",
          "type": "uint256"
        },
        {
          "indexed": true,
          "internalType": "uint256",
          "name": "parentRuleId",
          "type": "uint256"
        },
        {
          "indexed": false,
          "internalType": "uint16",
          "name": "version",
          "type": "uint16"
        }
      ],
      "name": "RuleCreated",
      "type": "event"
    },
    {
      "anonymous": false,
      "inputs": [
        {
          "indexed": true,
          "internalType": "uint256",
          "name": "ruleId",
          "type": "uint256"
        }
      ],
      "name": "RuleDeprecated",
      "type": "event"
    },
    {
      "anonymous": false,
      "inputs": [
        {
          "indexed": true,
          "internalType": "uint256",
          "name": "tokenId",
          "type": "uint256"
        },
        {
          "indexed": false,
          "internalType": "uint256",
          "name": "newExpiry",
          "type": "uint256"
        }
      ],
      "name": "RuleExpiryExtended",
      "type": "event"
    },
    {
      "anonymous": false,
      "inputs": [
        {
          "indexed": true,
          "internalType": "address",
          "name": "user",
          "type": "address"
        },
        {
          "indexed": false,
          "internalType": "uint256",
          "name": "expiry",
          "type": "uint256"
        }
      ],
      "name": "Subscribed",
      "type": "event"
    },
    {
      "anonymous": false,
      "inputs": [
        {
          "indexed": false,
          "internalType": "uint256",
          "name": "newCents",
          "type": "uint256"
        }
      ],
      "name": "SubscriptionUsdCentsUpdated",
      "type": "event"
    },
    {
      "anonymous": false,
      "inputs": [
        {
          "indexed": true,
          "internalType": "address",
          "name": "from",
          "type": "address"
        },
        {
          "indexed": true,
          "internalType": "address",
          "name": "to",
          "type": "address"
        },
        {
          "indexed": true,
          "internalType": "uint256",
          "name": "tokenId",
          "type": "uint256"
        }
      ],
      "name": "Transfer",
      "type": "event"
    },
    {
      "anonymous": false,
      "inputs": [
        {
          "indexed": true,
          "internalType": "address",
          "name": "to",
          "type": "address"
        },
        {
          "indexed": false,
          "internalType": "uint256",
          "name": "amount",
          "type": "uint256"
        }
      ],
      "name": "TreasuryWithdrawn",
      "type": "event"
    },
    {
      "anonymous": false,
      "inputs": [
        {
          "indexed": false,
          "internalType": "address",
          "name": "account",
          "type": "address"
        }
      ],
      "name": "Unpaused",
      "type": "event"
    },
    {
      "inputs": [],
      "name": "DEFAULT_ADMIN_ROLE",
      "outputs": [
        {
          "internalType": "bytes32",
          "name": "",
          "type": "bytes32"
        }
      ],
      "stateMutability": "view",
      "type": "function"
    },
    {
      "inputs": [],
      "name": "MAX_SLOT",
      "outputs": [
        {
          "internalType": "uint8",
          "name": "",
          "type": "uint8"
        }
      ],
      "stateMutability": "view",
      "type": "function"
    },
    {
      "inputs": [],
      "name": "SUB_DURATION",
      "outputs": [
        {
          "internalType": "uint256",
          "name": "",
          "type": "uint256"
        }
      ],
      "stateMutability": "view",
      "type": "function"
    },
    {
      "inputs": [
        {
          "internalType": "uint256",
          "name": "ruleId",
          "type": "uint256"
        }
      ],
      "name": "activateRule",
      "outputs": [
        {
          "internalType": "uint256",
          "name": "tokenId",
          "type": "uint256"
        }
      ],
      "stateMutability": "nonpayable",
      "type": "function"
    },
    {
      "inputs": [
        {
          "internalType": "uint256",
          "name": "",
          "type": "uint256"
        }
      ],
      "name": "activeRuleOf",
      "outputs": [
        {
          "internalType": "uint256",
          "name": "",
          "type": "uint256"
        }
      ],
      "stateMutability": "view",
      "type": "function"
    },
    {
      "inputs": [
        {
          "internalType": "address",
          "name": "to",
          "type": "address"
        },
        {
          "internalType": "uint256",
          "name": "tokenId",
          "type": "uint256"
        }
      ],
      "name": "approve",
      "outputs": [],
      "stateMutability": "nonpayable",
      "type": "function"
    },
    {
      "inputs": [
        {
          "internalType": "address",
          "name": "owner",
          "type": "address"
        }
      ],
      "name": "balanceOf",
      "outputs": [
        {
          "internalType": "uint256",
          "name": "",
          "type": "uint256"
        }
      ],
      "stateMutability": "view",
      "type": "function"
    },
    {
      "inputs": [
        {
          "internalType": "uint256",
          "name": "tokenId",
          "type": "uint256"
        }
      ],
      "name": "burnExpired",
      "outputs": [],
      "stateMutability": "nonpayable",
      "type": "function"
    },
    {
      "inputs": [
        {
          "internalType": "bytes32",
          "name": "ruleHash",
          "type": "bytes32"
        },
        {
          "internalType": "string",
          "name": "uri",
          "type": "string"
        }
      ],
      "name": "createRule",
      "outputs": [
        {
          "internalType": "uint256",
          "name": "ruleId",
          "type": "uint256"
        }
      ],
      "stateMutability": "nonpayable",
      "type": "function"
    },
    {
      "inputs": [
        {
          "internalType": "uint256",
          "name": "parentRuleId",
          "type": "uint256"
        },
        {
          "internalType": "bytes32",
          "name": "newHash",
          "type": "bytes32"
        },
        {
          "internalType": "string",
          "name": "newUri",
          "type": "string"
        }
      ],
      "name": "createRuleVersion",
      "outputs": [
        {
          "internalType": "uint256",
          "name": "ruleId",
          "type": "uint256"
        }
      ],
      "stateMutability": "nonpayable",
      "type": "function"
    },
    {
      "inputs": [
        {
          "internalType": "uint256",
          "name": "ruleId",
          "type": "uint256"
        }
      ],
      "name": "deactivateRule",
      "outputs": [],
      "stateMutability": "nonpayable",
      "type": "function"
    },
    {
      "inputs": [],
      "name": "deployer",
      "outputs": [
        {
          "internalType": "address",
          "name": "",
          "type": "address"
        }
      ],
      "stateMutability": "view",
      "type": "function"
    },
    {
      "inputs": [],
      "name": "ethUsdFeed",
      "outputs": [
        {
          "internalType": "contract IAggregatorV3",
          "name": "",
          "type": "address"
        }
      ],
      "stateMutability": "view",
      "type": "function"
    },
    {
      "inputs": [
        {
          "internalType": "uint256",
          "name": "tokenId",
          "type": "uint256"
        },
        {
          "internalType": "uint256",
          "name": "newExpiry",
          "type": "uint256"
        }
      ],
      "name": "extendRuleExpiry",
      "outputs": [],
      "stateMutability": "payable",
      "type": "function"
    },
    {
      "inputs": [
        {
          "internalType": "uint256",
          "name": "tokenId",
          "type": "uint256"
        }
      ],
      "name": "getApproved",
      "outputs": [
        {
          "internalType": "address",
          "name": "",
          "type": "address"
        }
      ],
      "stateMutability": "view",
      "type": "function"
    },
    {
      "inputs": [
        {
          "internalType": "bytes32",
          "name": "role",
          "type": "bytes32"
        }
      ],
      "name": "getRoleAdmin",
      "outputs": [
        {
          "internalType": "bytes32",
          "name": "",
          "type": "bytes32"
        }
      ],
      "stateMutability": "view",
      "type": "function"
    },
    {
      "inputs": [
        {
          "internalType": "uint256",
          "name": "ruleId",
          "type": "uint256"
        }
      ],
      "name": "getRule",
      "outputs": [
        {
          "internalType": "bytes32",
          "name": "hash",
          "type": "bytes32"
        },
        {
          "internalType": "string",
          "name": "uri",
          "type": "string"
        },
        {
          "internalType": "address",
          "name": "creator",
          "type": "address"
        },
        {
          "internalType": "uint256",
          "name": "rootRuleId",
          "type": "uint256"
        },
        {
          "internalType": "uint16",
          "name": "version",
          "type": "uint16"
        },
        {
          "internalType": "bool",
          "name": "deprecated",
          "type": "bool"
        },
        {
          "internalType": "bool",
          "name": "active",
          "type": "bool"
        }
      ],
      "stateMutability": "view",
      "type": "function"
    },
    {
      "inputs": [
        {
          "internalType": "bytes32",
          "name": "role",
          "type": "bytes32"
        },
        {
          "internalType": "address",
          "name": "account",
          "type": "address"
        }
      ],
      "name": "grantRole",
      "outputs": [],
      "stateMutability": "nonpayable",
      "type": "function"
    },
    {
      "inputs": [
        {
          "internalType": "bytes32",
          "name": "role",
          "type": "bytes32"
        },
        {
          "internalType": "address",
          "name": "account",
          "type": "address"
        }
      ],
      "name": "hasRole",
      "outputs": [
        {
          "internalType": "bool",
          "name": "",
          "type": "bool"
        }
      ],
      "stateMutability": "view",
      "type": "function"
    },
    {
      "inputs": [
        {
          "internalType": "address",
          "name": "user",
          "type": "address"
        }
      ],
      "name": "hasSubscription",
      "outputs": [
        {
          "internalType": "bool",
          "name": "",
          "type": "bool"
        }
      ],
      "stateMutability": "view",
      "type": "function"
    },
    {
      "inputs": [
        {
          "internalType": "address",
          "name": "admin",
          "type": "address"
        },
        {
          "internalType": "address",
          "name": "oracle",
          "type": "address"
        }
      ],
      "name": "initialize",
      "outputs": [],
      "stateMutability": "nonpayable",
      "type": "function"
    },
    {
      "inputs": [
        {
          "internalType": "address",
          "name": "owner",
          "type": "address"
        },
        {
          "internalType": "address",
          "name": "operator",
          "type": "address"
        }
      ],
      "name": "isApprovedForAll",
      "outputs": [
        {
          "internalType": "bool",
          "name": "",
          "type": "bool"
        }
      ],
      "stateMutability": "view",
      "type": "function"
    },
    {
      "inputs": [],
      "name": "isInitialized",
      "outputs": [
        {
          "internalType": "bool",
          "name": "",
          "type": "bool"
        }
      ],
      "stateMutability": "view",
      "type": "function"
    },
    {
      "inputs": [
        {
          "internalType": "address",
          "name": "",
          "type": "address"
        }
      ],
      "name": "logicalRuleCount",
      "outputs": [
        {
          "internalType": "uint8",
          "name": "",
          "type": "uint8"
        }
      ],
      "stateMutability": "view",
      "type": "function"
    },
    {
      "inputs": [],
      "name": "name",
      "outputs": [
        {
          "internalType": "string",
          "name": "",
          "type": "string"
        }
      ],
      "stateMutability": "view",
      "type": "function"
    },
    {
      "inputs": [],
      "name": "nextRuleId",
      "outputs": [
        {
          "internalType": "uint256",
          "name": "",
          "type": "uint256"
        }
      ],
      "stateMutability": "view",
      "type": "function"
    },
    {
      "inputs": [],
      "name": "nextTokenId",
      "outputs": [
        {
          "internalType": "uint256",
          "name": "",
          "type": "uint256"
        }
      ],
      "stateMutability": "view",
      "type": "function"
    },
    {
      "inputs": [
        {
          "internalType": "uint256",
          "name": "tokenId",
          "type": "uint256"
        }
      ],
      "name": "ownerOf",
      "outputs": [
        {
          "internalType": "address",
          "name": "",
          "type": "address"
        }
      ],
      "stateMutability": "view",
      "type": "function"
    },
    {
      "inputs": [],
      "name": "pause",
      "outputs": [],
      "stateMutability": "nonpayable",
      "type": "function"
    },
    {
      "inputs": [],
      "name": "paused",
      "outputs": [
        {
          "internalType": "bool",
          "name": "",
          "type": "bool"
        }
      ],
      "stateMutability": "view",
      "type": "function"
    },
    {
      "inputs": [
        {
          "internalType": "bytes32",
          "name": "role",
          "type": "bytes32"
        },
        {
          "internalType": "address",
          "name": "callerConfirmation",
          "type": "address"
        }
      ],
      "name": "renounceRole",
      "outputs": [],
      "stateMutability": "nonpayable",
      "type": "function"
    },
    {
      "inputs": [
        {
          "internalType": "bytes32",
          "name": "role",
          "type": "bytes32"
        },
        {
          "internalType": "address",
          "name": "account",
          "type": "address"
        }
      ],
      "name": "revokeRole",
      "outputs": [],
      "stateMutability": "nonpayable",
      "type": "function"
    },
    {
      "inputs": [
        {
          "internalType": "uint256",
          "name": "",
          "type": "uint256"
        }
      ],
      "name": "rootRuleOf",
      "outputs": [
        {
          "internalType": "uint256",
          "name": "",
          "type": "uint256"
        }
      ],
      "stateMutability": "view",
      "type": "function"
    },
    {
      "inputs": [
        {
          "internalType": "uint256",
          "name": "",
          "type": "uint256"
        }
      ],
      "name": "ruleExpiry",
      "outputs": [
        {
          "internalType": "uint256",
          "name": "",
          "type": "uint256"
        }
      ],
      "stateMutability": "view",
      "type": "function"
    },
    {
      "inputs": [
        {
          "internalType": "uint256",
          "name": "",
          "type": "uint256"
        }
      ],
      "name": "ruleTokenId",
      "outputs": [
        {
          "internalType": "uint256",
          "name": "",
          "type": "uint256"
        }
      ],
      "stateMutability": "view",
      "type": "function"
    },
    {
      "inputs": [
        {
          "internalType": "uint256",
          "name": "",
          "type": "uint256"
        }
      ],
      "name": "rules",
      "outputs": [
        {
          "internalType": "bytes32",
          "name": "ruleHash",
          "type": "bytes32"
        },
        {
          "internalType": "string",
          "name": "uri",
          "type": "string"
        },
        {
          "internalType": "address",
          "name": "creator",
          "type": "address"
        },
        {
          "internalType": "uint256",
          "name": "parentRuleId",
          "type": "uint256"
        },
        {
          "internalType": "uint16",
          "name": "version",
          "type": "uint16"
        },
        {
          "internalType": "bool",
          "name": "deprecated",
          "type": "bool"
        },
        {
          "internalType": "uint256",
          "name": "tokenId",
          "type": "uint256"
        }
      ],
      "stateMutability": "view",
      "type": "function"
    },
    {
      "inputs": [
        {
          "internalType": "address",
          "name": "from",
          "type": "address"
        },
        {
          "internalType": "address",
          "name": "to",
          "type": "address"
        },
        {
          "internalType": "uint256",
          "name": "tokenId",
          "type": "uint256"
        }
      ],
      "name": "safeTransferFrom",
      "outputs": [],
      "stateMutability": "nonpayable",
      "type": "function"
    },
    {
      "inputs": [
        {
          "internalType": "address",
          "name": "from",
          "type": "address"
        },
        {
          "internalType": "address",
          "name": "to",
          "type": "address"
        },
        {
          "internalType": "uint256",
          "name": "tokenId",
          "type": "uint256"
        },
        {
          "internalType": "bytes",
          "name": "data",
          "type": "bytes"
        }
      ],
      "name": "safeTransferFrom",
      "outputs": [],
      "stateMutability": "nonpayable",
      "type": "function"
    },
    {
      "inputs": [
        {
          "internalType": "address",
          "name": "operator",
          "type": "address"
        },
        {
          "internalType": "bool",
          "name": "approved",
          "type": "bool"
        }
      ],
      "name": "setApprovalForAll",
      "outputs": [],
      "stateMutability": "nonpayable",
      "type": "function"
    },
    {
      "inputs": [
        {
          "internalType": "address",
          "name": "newFeed",
          "type": "address"
        }
      ],
      "name": "setOracle",
      "outputs": [],
      "stateMutability": "nonpayable",
      "type": "function"
    },
    {
      "inputs": [
        {
          "internalType": "uint256",
          "name": "newCents",
          "type": "uint256"
        }
      ],
      "name": "setSubscriptionUsdCents",
      "outputs": [],
      "stateMutability": "nonpayable",
      "type": "function"
    },
    {
      "inputs": [],
      "name": "subscribe",
      "outputs": [],
      "stateMutability": "payable",
      "type": "function"
    },
    {
      "inputs": [
        {
          "internalType": "address",
          "name": "",
          "type": "address"
        }
      ],
      "name": "subscriptionExpiry",
      "outputs": [
        {
          "internalType": "uint256",
          "name": "",
          "type": "uint256"
        }
      ],
      "stateMutability": "view",
      "type": "function"
    },
    {
      "inputs": [],
      "name": "subscriptionPriceETH",
      "outputs": [
        {
          "internalType": "uint256",
          "name": "",
          "type": "uint256"
        }
      ],
      "stateMutability": "view",
      "type": "function"
    },
    {
      "inputs": [],
      "name": "subscriptionUsdCents",
      "outputs": [
        {
          "internalType": "uint256",
          "name": "",
          "type": "uint256"
        }
      ],
      "stateMutability": "view",
      "type": "function"
    },
    {
      "inputs": [
        {
          "internalType": "bytes4",
          "name": "interfaceId",
          "type": "bytes4"
        }
      ],
      "name": "supportsInterface",
      "outputs": [
        {
          "internalType": "bool",
          "name": "",
          "type": "bool"
        }
      ],
      "stateMutability": "view",
      "type": "function"
    },
    {
      "inputs": [],
      "name": "symbol",
      "outputs": [
        {
          "internalType": "string",
          "name": "",
          "type": "string"
        }
      ],
      "stateMutability": "view",
      "type": "function"
    },
    {
      "inputs": [
        {
          "internalType": "uint256",
          "name": "",
          "type": "uint256"
        }
      ],
      "name": "tokenRule",
      "outputs": [
        {
          "internalType": "uint256",
          "name": "",
          "type": "uint256"
        }
      ],
      "stateMutability": "view",
      "type": "function"
    },
    {
      "inputs": [
        {
          "internalType": "uint256",
          "name": "tokenId",
          "type": "uint256"
        }
      ],
      "name": "tokenURI",
      "outputs": [
        {
          "internalType": "string",
          "name": "",
          "type": "string"
        }
      ],
      "stateMutability": "view",
      "type": "function"
    },
    {
      "inputs": [
        {
          "internalType": "address",
          "name": "from",
          "type": "address"
        },
        {
          "internalType": "address",
          "name": "to",
          "type": "address"
        },
        {
          "internalType": "uint256",
          "name": "tokenId",
          "type": "uint256"
        }
      ],
      "name": "transferFrom",
      "outputs": [],
      "stateMutability": "nonpayable",
      "type": "function"
    },
    {
      "inputs": [],
      "name": "treasuryBalance",
      "outputs": [
        {
          "internalType": "uint256",
          "name": "",
          "type": "uint256"
        }
      ],
      "stateMutability": "view",
      "type": "function"
    },
    {
      "inputs": [],
      "name": "unpause",
      "outputs": [],
      "stateMutability": "nonpayable",
      "type": "function"
    },
    {
      "inputs": [
        {
          "internalType": "address",
          "name": "to",
          "type": "address"
        }
      ],
      "name": "withdrawAllTreasury",
      "outputs": [],
      "stateMutability": "nonpayable",
      "type": "function"
    },
    {
      "inputs": [
        {
          "internalType": "address",
          "name": "to",
          "type": "address"
        },
        {
          "internalType": "uint256",
          "name": "amount",
          "type": "uint256"
        }
      ],
      "name": "withdrawTreasury",
      "outputs": [],
      "stateMutability": "nonpayable",
      "type": "function"
    }
  ],
  "bytecode": "0x60a06040526023600955348015610014575f5ffd5b50604051613d75380380613d75833981016040819052610033916100f9565b81815f61004083826101e2565b50600161004d82826101e2565b5050336080525061029c915050565b634e487b7160e01b5f52604160045260245ffd5b5f82601f83011261007f575f5ffd5b81516001600160401b038111156100985761009861005c565b604051601f8201601f19908116603f011681016001600160401b03811182821017156100c6576100c661005c565b6040528181528382016020018510156100dd575f5ffd5b8160208501602083015e5f918101602001919091529392505050565b5f5f6040838503121561010a575f5ffd5b82516001600160401b0381111561011f575f5ffd5b61012b85828601610070565b602085015190935090506001600160401b03811115610148575f5ffd5b61015485828601610070565b9150509250929050565b600181811c9082168061017257607f821691505b60208210810361019057634e487b7160e01b5f52602260045260245ffd5b50919050565b601f8211156101dd57805f5260205f20601f840160051c810160208510156101bb5750805b601f840160051c820191505b818110156101da575f81556001016101c7565b50505b505050565b81516001600160401b038111156101fb576101fb61005c565b61020f81610209845461015e565b84610196565b6020601f821160018114610241575f831561022a5750848201515b5f19600385901b1c1916600184901b1784556101da565b5f84815260208120601f198516915b828110156102705787850151825560209485019460019092019101610250565b508482101561028d57868401515f19600387901b60f8161c191681555b50505050600190811b01905550565b608051613aba6102bb5f395f818161092501526124090152613aba5ff3fe608060405260043610610327575f3560e01c80637514e80e116101a3578063b88d4fde116100f2578063d5f3948811610092578063e3d583611161006d578063e3d58361146109b2578063e985e9c5146109c5578063f4a96d22146109e4578063f4f7596a146109f8575f5ffd5b8063d5f3948814610914578063d60d36b614610947578063d901902014610987575f5ffd5b8063d098769b116100cd578063d098769b146108ac578063d2f29707146108cb578063d36013ce146108e1578063d547741f146108f5575f5ffd5b8063b88d4fde14610843578063c40df85414610862578063c87b56dd1461088d575f5ffd5b80638f449a051161015d5780639f6d7884116101385780639f6d7884146107bb578063a217fddf146107e6578063a22cb465146107f9578063a28f626014610818575f5ffd5b80638f449a051461078057806391d148541461078857806395d89b41146107a7575f5ffd5b80637514e80e146106c357806375794a3c146106fa5780637adbf9731461070f5780638009b7bd1461072e5780638456cb591461074d57806388d6b10e14610761575f5ffd5b8063313dab2011610279578063485cc955116102195780636352211e116101f45780636352211e1461065157806370a082311461067057806370f047b01461068f57806374cdfa51146106a4575f5ffd5b8063485cc955146105f05780635c975abb1461060f57806360a85ef514610626575f5ffd5b80633a758ccc116102545780633a758ccc1461056c5780633f4ba83a1461058b57806342842e0e1461059f57806348462037146105be575f5ffd5b8063313dab201461052157806336568abe14610536578063392e53cd14610555575f5ffd5b80630d86419a116102e4578063248a9ca3116102bf578063248a9ca3146104a05780632b942d5b146104ce5780632bca0efb146104ed5780632f2ff15d14610502575f5ffd5b80630d86419a1461044357806323b872dd1461046257806323f889fc14610481575f5ffd5b806301ffc9a71461032b57806304d6ded41461035f57806305a891191461039157806306fdde03146103ca578063081812fc146103eb578063095ea7b314610422575b5f5ffd5b348015610336575f5ffd5b5061034a610345366004613304565b610a17565b60405190151581526020015b60405180910390f35b34801561036a575f5ffd5b5061037e61037936600461331f565b610a27565b6040516103569796959493929190613364565b34801561039c575f5ffd5b506103bc6103ab36600461331f565b60116020525f908152604090205481565b604051908152602001610356565b3480156103d5575f5ffd5b506103de610afc565b60405161035691906133b5565b3480156103f6575f5ffd5b5061040a61040536600461331f565b610b8b565b6040516001600160a01b039091168152602001610356565b34801561042d575f5ffd5b5061044161043c3660046133e2565b610bb2565b005b34801561044e575f5ffd5b5061044161045d3660046133e2565b610bc1565b34801561046d575f5ffd5b5061044161047c36600461340a565b610d7c565b34801561048c575f5ffd5b506103bc61049b366004613489565b610e05565b3480156104ab575f5ffd5b506103bc6104ba36600461331f565b5f9081526007602052604090206001015490565b3480156104d9575f5ffd5b506103bc6104e836600461331f565b610fb5565b3480156104f8575f5ffd5b506103bc60095481565b34801561050d575f5ffd5b5061044161051c3660046134d1565b6113a5565b34801561052c575f5ffd5b506103bc60175481565b348015610541575f5ffd5b506104416105503660046134d1565b6113c9565b348015610560575f5ffd5b50600d5460ff1661034a565b348015610577575f5ffd5b5061044161058636600461331f565b611401565b348015610596575f5ffd5b50610441611620565b3480156105aa575f5ffd5b506104416105b936600461340a565b611655565b3480156105c9575f5ffd5b506105dd6105d836600461331f565b61166f565b60405161035697969594939291906134fb565b3480156105fb575f5ffd5b5061044161060a36600461354e565b611801565b34801561061a575f5ffd5b5060085460ff1661034a565b348015610631575f5ffd5b506103bc610640366004613576565b60136020525f908152604090205481565b34801561065c575f5ffd5b5061040a61066b36600461331f565b61190a565b34801561067b575f5ffd5b506103bc61068a366004613576565b611914565b34801561069a575f5ffd5b506103bc600b5481565b3480156106af575f5ffd5b506104416106be36600461331f565b611959565b3480156106ce575f5ffd5b5061034a6106dd366004613576565b6001600160a01b03165f9081526013602052604090205442111590565b348015610705575f5ffd5b506103bc600c5481565b34801561071a575f5ffd5b50610441610729366004613576565b6119ec565b348015610739575f5ffd5b50600a5461040a906001600160a01b031681565b348015610758575f5ffd5b50610441611b83565b34801561076c575f5ffd5b506103bc61077b36600461358f565b611bb5565b610441611e63565b348015610793575f5ffd5b5061034a6107a23660046134d1565b611f9f565b3480156107b2575f5ffd5b506103de611fc9565b3480156107c6575f5ffd5b506103bc6107d536600461331f565b60106020525f908152604090205481565b3480156107f1575f5ffd5b506103bc5f81565b348015610804575f5ffd5b506104416108133660046135de565b611fd8565b348015610823575f5ffd5b506103bc61083236600461331f565b600f6020525f908152604090205481565b34801561084e575f5ffd5b5061044161085d36600461362b565b611fe3565b34801561086d575f5ffd5b506103bc61087c36600461331f565b60156020525f908152604090205481565b348015610898575f5ffd5b506103de6108a736600461331f565b611ffb565b3480156108b7575f5ffd5b506104416108c636600461331f565b612006565b3480156108d6575f5ffd5b506103bc62278d0081565b3480156108ec575f5ffd5b506103bc612185565b348015610900575f5ffd5b5061044161090f3660046134d1565b61228e565b34801561091f575f5ffd5b5061040a7f000000000000000000000000000000000000000000000000000000000000000081565b348015610952575f5ffd5b50610975610961366004613576565b60126020525f908152604090205460ff1681565b60405160ff9091168152602001610356565b348015610992575f5ffd5b506103bc6109a136600461331f565b60146020525f908152604090205481565b6104416109c0366004613708565b6122b2565b3480156109d0575f5ffd5b5061034a6109df36600461354e565b61252f565b3480156109ef575f5ffd5b50610975600381565b348015610a03575f5ffd5b50610441610a12366004613576565b61255c565b5f610a21826126a5565b92915050565b600e6020525f908152604090208054600182018054919291610a4890613728565b80601f0160208091040260200160405190810160405280929190818152602001828054610a7490613728565b8015610abf5780601f10610a9657610100808354040283529160200191610abf565b820191905f5260205f20905b815481529060010190602001808311610aa257829003601f168201915b5050505060028301546003840154600485015460059095015493946001600160a01b039092169390925061ffff82169162010000900460ff169087565b60605f8054610b0a90613728565b80601f0160208091040260200160405190810160405280929190818152602001828054610b3690613728565b8015610b815780601f10610b5857610100808354040283529160200191610b81565b820191905f5260205f20905b815481529060010190602001808311610b6457829003601f168201915b5050505050905090565b5f610b95826126c9565b505f828152600460205260409020546001600160a01b0316610a21565b610bbd828233612701565b5050565b5f516020613a655f395f51905f52610bd88161270e565b6001600160a01b038316610c075760405162461bcd60e51b8152600401610bfe90613760565b60405180910390fd5b5f8211610c445760405162461bcd60e51b815260206004820152600b60248201526a16915493d7d05353d5539560aa1b6044820152606401610bfe565b601754821115610c8d5760405162461bcd60e51b8152602060048201526014602482015273494e53554646494349454e545f42414c414e434560601b6044820152606401610bfe565b8160175f828254610c9e919061379a565b90915550506040515f906001600160a01b0385169084908381818185875af1925050503d805f8114610ceb576040519150601f19603f3d011682016040523d82523d5f602084013e610cf0565b606091505b5050905080610d335760405162461bcd60e51b815260206004820152600f60248201526e15d2551211149055d7d19052531151608a1b6044820152606401610bfe565b836001600160a01b03167f41fdd680478135993bc53fb2ffaf9560951b57ef62ff6badd02b61e018b4f17f84604051610d6e91815260200190565b60405180910390a250505050565b6001600160a01b038216610da557604051633250574960e11b81525f6004820152602401610bfe565b5f610db1838333612718565b9050836001600160a01b0316816001600160a01b031614610dff576040516364283d7b60e01b81526001600160a01b0380861660048301526024820184905282166044820152606401610bfe565b50505050565b5f610e0e6127ed565b83610e4f5760405162461bcd60e51b81526020600482015260116024820152700929cac82989288bea4aa988abe9082a69607b1b6044820152606401610bfe565b600b5f8154610e5d906137ad565b91905081905590506040518060e0016040528085815260200184848080601f0160208091040260200160405190810160405280939291908181526020018383808284375f92018290525093855250503360208085019190915260408085018490526001606086018190526080860185905260a0909501849052868452600e825290922084518155918401519192830191610ef8915082613809565b506040828101516002830180546001600160a01b0319166001600160a01b0390921691909117905560608301516003830155608083015160048301805460a086015161ffff90931662ffffff1990911617620100009215159290920291909117905560c0909201516005909101555f828152601060209081528282208490559151600181529091839182917f89985676d0f40810abbe2cd55f254fd631b1f8eff9cf8cf89ad8af64c77f87b2910160405180910390a49392505050565b5f610fbe6127ed565b5f828152600e6020526040902060028101546001600160a01b03163314610ff75760405162461bcd60e51b8152600401610bfe906138c4565b600481015462010000900460ff16156110445760405162461bcd60e51b815260206004820152600f60248201526e1495531157d11154149150d0551151608a1b6044820152606401610bfe565b6005810154156110875760405162461bcd60e51b815260206004820152600e60248201526d414c52454144595f41435449564560901b6044820152606401610bfe565b5f838152601060209081526040808320548084526011909252909120548015611177575f818152600e60205260409020600501548015611128575f818152601660205260409020805460ff191660011790556110e281612813565b5f818152600f6020908152604080832083905533835260129091528120805460ff169161110e836138e9565b91906101000a81548160ff021916908360ff160217905550505b5f828152600e602052604080822060058101839055600401805462ff00001916620100001790555183917f4816cbba0986a3746458b30f61c423197d79c8128a41811424e7d2cf0459ea7691a2505b335f90815260126020908152604080832054601390925282205460ff90911691904211156111a65760016111a9565b60035b90508060ff168260ff161061120c5760405162461bcd60e51b8152602060048201526024808201527f535542534352495054494f4e5f52455155495245445f464f525f4143544956416044820152632a24a7a760e11b6064820152608401610bfe565b600c5f815461121a906137ad565b9182905550600586018190555f818152600f602090815260408083208b9055878352601182528083208b9055338352601390915290205490965042111561126e57611269426301e13380613904565b61127e565b335f908152601360205260409020545b5f878152601460209081526040808320939093558982526015815282822089905533825260129052908120805460ff16916112b883613917565b91906101000a81548160ff021916908360ff160217905550506112db338761284b565b61136f868660010180546112ee90613728565b80601f016020809104026020016040519081016040528092919081815260200182805461131a90613728565b80156113655780601f1061133c57610100808354040283529160200191611365565b820191905f5260205f20905b81548152906001019060200180831161134857829003601f168201915b50505050506128ac565b604051869088907f3db37d72ecec2a06bb99792c387585563a848046fa9f0698dfd52bdd41c2a97b905f90a35050505050919050565b5f828152600760205260409020600101546113bf8161270e565b610dff83836128f4565b6001600160a01b03811633146113f25760405163334bd91960e11b815260040160405180910390fd5b6113fc8282612985565b505050565b6114096127ed565b5f818152600e6020526040902060028101546001600160a01b031633146114425760405162461bcd60e51b8152600401610bfe906138c4565b600481015462010000900460ff161561148f5760405162461bcd60e51b815260206004820152600f60248201526e1495531157d11154149150d0551151608a1b6044820152606401610bfe565b80600501545f036114cf5760405162461bcd60e51b815260206004820152600a6024820152694e4f545f41435449564560b01b6044820152606401610bfe565b60058101545f818152600260205260409020546001600160a01b031633146115255760405162461bcd60e51b81526020600482015260096024820152682727aa2fa7aba722a960b91b6044820152606401610bfe565b5f838152601060209081526040808320548484526016909252909120805460ff1916600117905561155582612813565b5f828152600f602090815260408083208390558383526011909152902054849003611589575f818152601160205260408120555b5f6005840181905560048401805462ff00001916620100001790553381526012602052604090205460ff16156115f057335f908152601260205260408120805460ff16916115d6836138e9565b91906101000a81548160ff021916908360ff160217905550505b60405184907f4816cbba0986a3746458b30f61c423197d79c8128a41811424e7d2cf0459ea76905f90a250505050565b7f65d7a28e3265b37a6474929f336521b332c1681b933f6cb9f3376673440d862a61164a8161270e565b6116526129f0565b50565b6113fc83838360405180602001604052805f815250611fe3565b5f60605f5f5f5f5f5f600e5f8a81526020019081526020015f206040518060e00160405290815f82015481526020016001820180546116ad90613728565b80601f01602080910402602001604051908101604052809291908181526020018280546116d990613728565b80156117245780601f106116fb57610100808354040283529160200191611724565b820191905f5260205f20905b81548152906001019060200180831161170757829003601f168201915b505050918352505060028201546001600160a01b0316602082015260038201546040820152600482015461ffff8116606083015262010000900460ff161515608082015260059091015460a09091015280519091506117b65760405162461bcd60e51b815260206004820152600e60248201526d1495531157d393d517d1561254d560921b6044820152606401610bfe565b5f8981526010602090815260408083205480845260118352928190205484519285015191850151608086015160a090960151939e929d909c50939a5093985090965091149350915050565b600d5460ff16156118245760405162dc149f60e41b815260040160405180910390fd5b6001600160a01b038216158061184157506001600160a01b038116155b1561185f5760405163d92e233d60e01b815260040160405180910390fd5b600d805460ff191660011790556118765f836128f4565b5061188e5f516020613a655f395f51905f52836128f4565b506118b97f65d7a28e3265b37a6474929f336521b332c1681b933f6cb9f3376673440d862a836128f4565b50600a80546001600160a01b0319166001600160a01b0383811691821790925560405190918416907f3cd5ec01b1ae7cfec6ca1863e2cd6aa25d6d1702825803ff2b7cc95010fffdc2905f90a35050565b5f610a21826126c9565b5f6001600160a01b03821661193e576040516322718ad960e21b81525f6004820152602401610bfe565b506001600160a01b03165f9081526003602052604090205490565b5f516020613a655f395f51905f526119708161270e565b5f82116119af5760405162461bcd60e51b815260206004820152600d60248201526c494e56414c49445f505249434560981b6044820152606401610bfe565b60098290556040518281527fd63a50efec61ddcfce992b3211881fcbb051071209192d1ae21d600ee686565f906020015b60405180910390a15050565b5f516020613a655f395f51905f52611a038161270e565b6001600160a01b038216611a295760405162461bcd60e51b8152600401610bfe90613760565b816001600160a01b031663feaf968c6040518163ffffffff1660e01b815260040160a060405180830381865afa925050508015611a83575060408051601f3d908101601f19168201909252611a809181019061394e565b60015b611ac55760405162461bcd60e51b81526020600482015260136024820152724f5241434c455f4e4f545f43414c4c41424c4560681b6044820152606401610bfe565b6402540be4008412158015611ae05750655af3107a40008413155b611b2c5760405162461bcd60e51b815260206004820152601960248201527f4f5241434c455f50524943455f4f55545f4f465f52414e4745000000000000006044820152606401610bfe565b5050505050600a80546001600160a01b038481166001600160a01b0319831681179093556040519116919082907f078c3b417dadf69374a59793b829c52001247130433427049317bde56607b1b7905f90a3505050565b7f65d7a28e3265b37a6474929f336521b332c1681b933f6cb9f3376673440d862a611bad8161270e565b611652612a42565b5f611bbe6127ed565b5f858152600e6020526040902060028101546001600160a01b03163314611bf75760405162461bcd60e51b8152600401610bfe906138c4565b600481015462010000900460ff1615611c465760405162461bcd60e51b815260206004820152601160248201527014105491539517d11154149150d0551151607a1b6044820152606401610bfe565b84611c875760405162461bcd60e51b81526020600482015260116024820152700929cac82989288bea4aa988abe9082a69607b1b6044820152606401610bfe565b5f86815260106020526040812054600b805491929091611ca6906137ad565b91905081905592506040518060e0016040528087815260200186868080601f0160208091040260200160405190810160405280939291908181526020018383808284375f92019190915250505090825250336020820152604081018990526004840154606090910190611d1e9061ffff16600161399c565b61ffff1681525f60208083018290526040928301829052868252600e815291902082518155908201516001820190611d569082613809565b506040828101516002830180546001600160a01b0319166001600160a01b039092169190911790556060830151600383015560808301516004808401805460a087015161ffff90941662ffffff199091161762010000931515840217905560c0909401516005909301929092555f8681526010602052818120859055928501805462ff000019169092179091555188917f4816cbba0986a3746458b30f61c423197d79c8128a41811424e7d2cf0459ea7691a25f838152600e602090815260409182902060040154915161ffff90921682528891839186917f89985676d0f40810abbe2cd55f254fd631b1f8eff9cf8cf89ad8af64c77f87b2910160405180910390a45050949350505050565b611e6b6127ed565b5f611e74612185565b905080341015611ebd5760405162461bcd60e51b8152602060048201526014602482015273125394d551919250d251539517d410565351539560621b6044820152606401610bfe565b335f90815260136020526040902054428110611ee557611ee062278d0082613904565b611ef2565b611ef262278d0042613904565b335f9081526013602052604081209190915560178054849290611f16908490613904565b909155505034821015611f5857336108fc611f31843461379a565b6040518115909202915f818181858888f19350505050158015611f56573d5f5f3e3d5ffd5b505b335f818152601360209081526040918290205491519182527f4b90d6788928d63c1821907a6a8b95f40d26562d8fe41b105f7489db9966dfcb910160405180910390a25050565b5f9182526007602090815260408084206001600160a01b0393909316845291905290205460ff1690565b606060018054610b0a90613728565b610bbd338383612a7f565b611fee848484610d7c565b610dff3385858585612b46565b6060610a2182612c6e565b5f818152600260205260409020546001600160a01b0316806120565760405162461bcd60e51b81526020600482015260096024820152681393d517d1561254d560ba1b6044820152606401610bfe565b5f8281526014602052604090205442116120a05760405162461bcd60e51b815260206004820152600b60248201526a1393d517d156141254915160aa1b6044820152606401610bfe565b5f828152600f6020908152604080832054808452601083528184205486855260169093529220805460ff191660011790556120da84612813565b5f848152600f60209081526040808320839055838352601190915290205482900361210e575f818152601160205260408120555b5f828152600e602090815260408083206005018390556001600160a01b0386168352601290915290205460ff1615610dff576001600160a01b0383165f908152601260205260408120805460ff1691612166836138e9565b91906101000a81548160ff021916908360ff1602179055505050505050565b600a5460408051633fabe5a360e21b815290515f926001600160a01b03169163feaf968c9160048083019260a09291908290030181865afa9250505080156121ea575060408051601f3d908101601f191682019092526121e79181019061394e565b60015b6121f95750655af3107a400090565b6402540be4008412806122115750655af3107a400084135b806122265750610e10612224834261379a565b115b1561223c57655af3107a40009550505050505090565b5f6122488560646139b6565b60095461225f9069d3c21bcecceda10000006139b6565b61226991906139cd565b9050805f0361228457655af3107a4000965050505050505090565b9695505050505050565b5f828152600760205260409020600101546122a88161270e565b610dff8383612985565b336122bc8361190a565b6001600160a01b0316146123035760405162461bcd60e51b815260206004820152600e60248201526d2727aa2fa92aa622afa7aba722a960911b6044820152606401610bfe565b5f8281526014602052604090205481116123555760405162461bcd60e51b815260206004820152601360248201527211561412549657d393d517d156151153911151606a1b6044820152606401610bfe565b612363426301e13380613904565b8111156123a35760405162461bcd60e51b815260206004820152600e60248201526d22ac2824a92cafaa27a7afa320a960911b6044820152606401610bfe565b5f6123ac612185565b9050803410156123f55760405162461bcd60e51b8152602060048201526014602482015273125394d551919250d251539517d410565351539560621b6044820152606401610bfe565b5f83815260146020526040808220849055517f00000000000000000000000000000000000000000000000000000000000000006001600160a01b03169083908381818185875af1925050503d805f811461246a576040519150601f19603f3d011682016040523d82523d5f602084013e61246f565b606091505b50509050806124c05760405162461bcd60e51b815260206004820152601860248201527f4445504c4f5945525f5452414e534645525f4641494c454400000000000000006044820152606401610bfe565b813411156124fd57336108fc6124d6843461379a565b6040518115909202915f818181858888f193505050501580156124fb573d5f5f3e3d5ffd5b505b837f864ca413e692b7d7abe57fb4de7f98d30188cd4f03419a82b0b8ff7986e06a9484604051610d6e91815260200190565b6001600160a01b039182165f90815260056020908152604080832093909416825291909152205460ff1690565b5f516020613a655f395f51905f526125738161270e565b6001600160a01b0382166125995760405162461bcd60e51b8152600401610bfe90613760565b601754806125d65760405162461bcd60e51b815260206004820152600a6024820152694e4f5f42414c414e434560b01b6044820152606401610bfe565b5f60178190556040516001600160a01b0385169083908381818185875af1925050503d805f8114612622576040519150601f19603f3d011682016040523d82523d5f602084013e612627565b606091505b505090508061266a5760405162461bcd60e51b815260206004820152600f60248201526e15d2551211149055d7d19052531151608a1b6044820152606401610bfe565b836001600160a01b03167f41fdd680478135993bc53fb2ffaf9560951b57ef62ff6badd02b61e018b4f17f83604051610d6e91815260200190565b5f6001600160e01b03198216637965db0b60e01b1480610a215750610a2182612cef565b5f818152600260205260408120546001600160a01b031680610a2157604051637e27328960e01b815260048101849052602401610bfe565b6113fc8383836001612d13565b6116528133612e17565b5f6127216127ed565b61272c848484612e50565b90506001600160a01b0384166127be575f8381526016602052604090205460ff166127a45760405162461bcd60e51b815260206004820152602260248201527f4255524e5f4f4e4c595f5649415f4558504952595f4f525f414354495641544960448201526127a760f11b6064820152608401610bfe565b5f838152601660205260409020805460ff191690556127e6565b6001600160a01b0384165f908152601360209081526040808320548684526014909252909120555b9392505050565b60085460ff16156128115760405163d93c066560e01b815260040160405180910390fd5b565b5f61281f5f835f612718565b90506001600160a01b038116610bbd57604051637e27328960e01b815260048101839052602401610bfe565b6001600160a01b03821661287457604051633250574960e11b81525f6004820152602401610bfe565b5f61288083835f612718565b90506001600160a01b038116156113fc576040516339e3563760e11b81525f6004820152602401610bfe565b5f8281526006602052604090206128c38282613809565b506040518281527ff8e1a15aba9398e019f0b49df1a4fde98ee17ae345cb5f6b5e2c27f5033e8ce7906020016119e0565b5f6128ff8383611f9f565b61297e575f8381526007602090815260408083206001600160a01b03861684529091529020805460ff191660011790556129363390565b6001600160a01b0316826001600160a01b0316847f2f8788117e7eff1d82e926ec794901d17c78024a50270940304540a733656f0d60405160405180910390a4506001610a21565b505f610a21565b5f6129908383611f9f565b1561297e575f8381526007602090815260408083206001600160a01b0386168085529252808320805460ff1916905551339286917ff6391f5c32d9c69d2a47ea670b442974b53935d1edc7fd64eb21e047a839171b9190a4506001610a21565b6129f8612f42565b6008805460ff191690557f5db9ee0a495bf2e6ff9c91a7834c1ba4fdd244a5e8aa4e537bd38aeae4b073aa335b6040516001600160a01b03909116815260200160405180910390a1565b612a4a6127ed565b6008805460ff191660011790557f62e78cea01bee320cd4e420270b5ea74000d11b0c9f74754ebdbfc544b05a258612a253390565b6001600160a01b038316612aa85760405163a9fbf51f60e01b81525f6004820152602401610bfe565b6001600160a01b038216612ada57604051630b61174360e31b81526001600160a01b0383166004820152602401610bfe565b6001600160a01b038381165f81815260056020908152604080832094871680845294825291829020805460ff191686151590811790915591519182527f17307eab39ab6107e8899845ad3d59bd9653f200f220920489ca2b5937696c31910160405180910390a3505050565b6001600160a01b0383163b15612c6757604051630a85bd0160e11b81526001600160a01b0384169063150b7a0290612b889088908890879087906004016139ec565b6020604051808303815f875af1925050508015612bc2575060408051601f3d908101601f19168201909252612bbf91810190613a1e565b60015b612c29573d808015612bef576040519150601f19603f3d011682016040523d82523d5f602084013e612bf4565b606091505b5080515f03612c2157604051633250574960e11b81526001600160a01b0385166004820152602401610bfe565b805160208201fd5b6001600160e01b03198116630a85bd0160e11b14612c6557604051633250574960e11b81526001600160a01b0385166004820152602401610bfe565b505b5050505050565b6060612c79826126c9565b505f612c8f60408051602081019091525f815290565b90505f612c9b84612f65565b905081515f03612cac579392505050565b805115612cde578181604051602001612cc6929190613a50565b60405160208183030381529060405292505050919050565b612ce784613004565b949350505050565b5f6001600160e01b03198216632483248360e11b1480610a215750610a2182613074565b8080612d2757506001600160a01b03821615155b15612de8575f612d36846126c9565b90506001600160a01b03831615801590612d625750826001600160a01b0316816001600160a01b031614155b8015612d755750612d73818461252f565b155b15612d9e5760405163a9fbf51f60e01b81526001600160a01b0384166004820152602401610bfe565b8115612de65783856001600160a01b0316826001600160a01b03167f8c5be1e5ebec7d5bd14f71427d1e84f3dd0314c0f7b2291e5b200ac8c7c3b92560405160405180910390a45b505b50505f90815260046020526040902080546001600160a01b0319166001600160a01b0392909216919091179055565b612e218282611f9f565b610bbd5760405163e2517d3f60e01b81526001600160a01b038216600482015260248101839052604401610bfe565b5f828152600260205260408120546001600160a01b0390811690831615612e7c57612e7c8184866130c3565b6001600160a01b03811615612eb657612e975f855f5f612d13565b6001600160a01b0381165f90815260036020526040902080545f190190555b6001600160a01b03851615612ee4576001600160a01b0385165f908152600360205260409020805460010190555b5f8481526002602052604080822080546001600160a01b0319166001600160a01b0389811691821790925591518793918516917fddf252ad1be2c89b69c2b068fc378daa952ba7f163c4a11628f55a4df523b3ef91a4949350505050565b60085460ff1661281157604051638dfc202b60e01b815260040160405180910390fd5b5f818152600660205260409020805460609190612f8190613728565b80601f0160208091040260200160405190810160405280929190818152602001828054612fad90613728565b8015612ff85780601f10612fcf57610100808354040283529160200191612ff8565b820191905f5260205f20905b815481529060010190602001808311612fdb57829003601f168201915b50505050509050919050565b606061300f826126c9565b505f61302560408051602081019091525f815290565b90505f8151116130435760405180602001604052805f8152506127e6565b8061304d84613127565b60405160200161305e929190613a50565b6040516020818303038152906040529392505050565b5f6001600160e01b031982166380ac58cd60e01b14806130a457506001600160e01b03198216635b5e139f60e01b145b80610a2157506301ffc9a760e01b6001600160e01b0319831614610a21565b6130ce8383836131b7565b6113fc576001600160a01b0383166130fc57604051637e27328960e01b815260048101829052602401610bfe565b60405163177e802f60e01b81526001600160a01b038316600482015260248101829052604401610bfe565b60605f61313383613218565b60010190505f8167ffffffffffffffff81111561315257613152613617565b6040519080825280601f01601f19166020018201604052801561317c576020820181803683370190505b5090508181016020015b5f19016f181899199a1a9b1b9c1cb0b131b232b360811b600a86061a8153600a850494508461318657509392505050565b5f6001600160a01b03831615801590612ce75750826001600160a01b0316846001600160a01b031614806131f057506131f0848461252f565b80612ce75750505f908152600460205260409020546001600160a01b03908116911614919050565b5f8072184f03e93ff9f4daa797ed6e38ed64bf6a1f0160401b83106132565772184f03e93ff9f4daa797ed6e38ed64bf6a1f0160401b830492506040015b6d04ee2d6d415b85acef81000000008310613282576d04ee2d6d415b85acef8100000000830492506020015b662386f26fc1000083106132a057662386f26fc10000830492506010015b6305f5e10083106132b8576305f5e100830492506008015b61271083106132cc57612710830492506004015b606483106132de576064830492506002015b600a8310610a215760010192915050565b6001600160e01b031981168114611652575f5ffd5b5f60208284031215613314575f5ffd5b81356127e6816132ef565b5f6020828403121561332f575f5ffd5b5035919050565b5f81518084528060208401602086015e5f602082860101526020601f19601f83011685010191505092915050565b87815260e060208201525f61337c60e0830189613336565b6001600160a01b0397909716604083015250606081019490945261ffff929092166080840152151560a083015260c09091015292915050565b602081525f6127e66020830184613336565b80356001600160a01b03811681146133dd575f5ffd5b919050565b5f5f604083850312156133f3575f5ffd5b6133fc836133c7565b946020939093013593505050565b5f5f5f6060848603121561341c575f5ffd5b613425846133c7565b9250613433602085016133c7565b929592945050506040919091013590565b5f5f83601f840112613454575f5ffd5b50813567ffffffffffffffff81111561346b575f5ffd5b602083019150836020828501011115613482575f5ffd5b9250929050565b5f5f5f6040848603121561349b575f5ffd5b83359250602084013567ffffffffffffffff8111156134b8575f5ffd5b6134c486828701613444565b9497909650939450505050565b5f5f604083850312156134e2575f5ffd5b823591506134f2602084016133c7565b90509250929050565b87815260e060208201525f61351360e0830189613336565b6001600160a01b0397909716604083015250606081019490945261ffff929092166080840152151560a0830152151560c09091015292915050565b5f5f6040838503121561355f575f5ffd5b613568836133c7565b91506134f2602084016133c7565b5f60208284031215613586575f5ffd5b6127e6826133c7565b5f5f5f5f606085870312156135a2575f5ffd5b8435935060208501359250604085013567ffffffffffffffff8111156135c6575f5ffd5b6135d287828801613444565b95989497509550505050565b5f5f604083850312156135ef575f5ffd5b6135f8836133c7565b91506020830135801515811461360c575f5ffd5b809150509250929050565b634e487b7160e01b5f52604160045260245ffd5b5f5f5f5f6080858703121561363e575f5ffd5b613647856133c7565b9350613655602086016133c7565b925060408501359150606085013567ffffffffffffffff811115613677575f5ffd5b8501601f81018713613687575f5ffd5b803567ffffffffffffffff8111156136a1576136a1613617565b604051601f8201601f19908116603f0116810167ffffffffffffffff811182821017156136d0576136d0613617565b6040528181528282016020018910156136e7575f5ffd5b816020840160208301375f6020838301015280935050505092959194509250565b5f5f60408385031215613719575f5ffd5b50508035926020909101359150565b600181811c9082168061373c57607f821691505b60208210810361375a57634e487b7160e01b5f52602260045260245ffd5b50919050565b6020808252600c908201526b5a45524f5f4144445245535360a01b604082015260600190565b634e487b7160e01b5f52601160045260245ffd5b81810381811115610a2157610a21613786565b5f600182016137be576137be613786565b5060010190565b601f8211156113fc57805f5260205f20601f840160051c810160208510156137ea5750805b601f840160051c820191505b81811015612c67575f81556001016137f6565b815167ffffffffffffffff81111561382357613823613617565b613837816138318454613728565b846137c5565b6020601f821160018114613869575f83156138525750848201515b5f19600385901b1c1916600184901b178455612c67565b5f84815260208120601f198516915b828110156138985787850151825560209485019460019092019101613878565b50848210156138b557868401515f19600387901b60f8161c191681555b50505050600190811b01905550565b6020808252600b908201526a2727aa2fa1a922a0aa27a960a91b604082015260600190565b5f60ff8216806138fb576138fb613786565b5f190192915050565b80820180821115610a2157610a21613786565b5f60ff821660ff810361392c5761392c613786565b60010192915050565b805169ffffffffffffffffffff811681146133dd575f5ffd5b5f5f5f5f5f60a08688031215613962575f5ffd5b61396b86613935565b6020870151604088015160608901519297509095509350915061399060808701613935565b90509295509295909350565b61ffff8181168382160190811115610a2157610a21613786565b8082028115828204841417610a2157610a21613786565b5f826139e757634e487b7160e01b5f52601260045260245ffd5b500490565b6001600160a01b03858116825284166020820152604081018390526080606082018190525f9061228490830184613336565b5f60208284031215613a2e575f5ffd5b81516127e6816132ef565b5f81518060208401855e5f93019283525090919050565b5f612ce7613a5e8386613a39565b84613a3956fea49807205ce4d355092ef5a8a18f56e8913cf4a201fbe287825b095693c21775a26469706673582212205261d4ebc240a15936da909a5276161f5981d8242a51b6b498a471a2098249d364736f6c634300081c0033",
  "linkReferences": {},
  "deployedLinkReferences": {},
  "immutableReferences": {
    "8070": [
      {
        "length": 32,
        "start": 2341
      },
      {
        "length": 32,
        "start": 9225
      }
    ]
  },
  "inputSourceName": "project/contracts/core/RuleItemERC721.sol",
  "buildInfoId": "solc-0_8_28-5533d442cafb3daa30999c3260b48efb1b9c57ac"
}