{
  "_format": "hh3-artifact-1",
  "contractName": "CombinedRuleStorage",
  "sourceName": "contracts/CombinedRuleStorage.sol",
  "abi": [
    {
      "anonymous": false,
      "inputs": [
        {
          "indexed": true,
          "internalType": "bytes32",
          "name": "ruleSetHash",
          "type": "bytes32"
        }
      ],
      "name": "RuleDeactivated",
      "type": "event"
    },
    {
      "anonymous": false,
      "inputs": [
        {
          "indexed": true,
          "internalType": "bytes32",
          "name": "ruleSetHash",
          "type": "bytes32"
        },
        {
          "indexed": true,
          "internalType": "address",
          "name": "owner",
          "type": "address"
        },
        {
          "indexed": false,
          "internalType": "address",
          "name": "ruleNFT",
          "type": "address"
        },
        {
          "indexed": false,
          "internalType": "uint256",
          "name": "tokenId",
          "type": "uint256"
        },
        {
          "indexed": false,
          "internalType": "uint64",
          "name": "version",
          "type": "uint64"
        }
      ],
      "name": "RuleRegistered",
      "type": "event"
    },
    {
      "anonymous": false,
      "inputs": [
        {
          "indexed": true,
          "internalType": "bytes32",
          "name": "ruleSetHash",
          "type": "bytes32"
        },
        {
          "indexed": true,
          "internalType": "address",
          "name": "oldOwner",
          "type": "address"
        },
        {
          "indexed": true,
          "internalType": "address",
          "name": "newOwner",
          "type": "address"
        }
      ],
      "name": "RuleTransferred",
      "type": "event"
    },
    {
      "inputs": [
        {
          "internalType": "bytes32",
          "name": "ruleSetHash",
          "type": "bytes32"
        }
      ],
      "name": "deactivateRule",
      "outputs": [],
      "stateMutability": "nonpayable",
      "type": "function"
    },
    {
      "inputs": [
        {
          "internalType": "bytes32",
          "name": "ruleSetHash",
          "type": "bytes32"
        }
      ],
      "name": "getRuleByHash",
      "outputs": [
        {
          "internalType": "address",
          "name": "owner",
          "type": "address"
        },
        {
          "internalType": "address",
          "name": "ruleNFT",
          "type": "address"
        },
        {
          "internalType": "uint256",
          "name": "tokenId",
          "type": "uint256"
        }
      ],
      "stateMutability": "view",
      "type": "function"
    },
    {
      "inputs": [
        {
          "internalType": "bytes32",
          "name": "ruleSetHash",
          "type": "bytes32"
        }
      ],
      "name": "isActive",
      "outputs": [
        {
          "internalType": "bool",
          "name": "",
          "type": "bool"
        }
      ],
      "stateMutability": "view",
      "type": "function"
    },
    {
      "inputs": [
        {
          "internalType": "bytes32",
          "name": "ruleSetHash",
          "type": "bytes32"
        },
        {
          "internalType": "address",
          "name": "ruleNFT",
          "type": "address"
        },
        {
          "internalType": "uint256",
          "name": "tokenId",
          "type": "uint256"
        },
        {
          "internalType": "uint64",
          "name": "version",
          "type": "uint64"
        }
      ],
      "name": "registerRule",
      "outputs": [],
      "stateMutability": "nonpayable",
      "type": "function"
    },
    {
      "inputs": [
        {
          "internalType": "bytes32",
          "name": "ruleSetHash",
          "type": "bytes32"
        }
      ],
      "name": "syncOwner",
      "outputs": [],
      "stateMutability": "nonpayable",
      "type": "function"
    }
  ],
  "bytecode": "0x6080604052348015600e575f5ffd5b506107778061001c5f395ff3fe608060405234801561000f575f5ffd5b5060043610610055575f3560e01c80630eb7798a1461005957806330c27641146100975780635c36901c146100ac5780635f7cd4e6146100e857806381be9160146100fb575b5f5ffd5b61006c610067366004610675565b61010e565b604080516001600160a01b039485168152939092166020840152908201526060015b60405180910390f35b6100aa6100a5366004610675565b6101c1565b005b6100d86100ba366004610675565b5f90815260208190526040902060040154600160401b900460ff1690565b604051901515815260200161008e565b6100aa6100f63660046106a3565b61032f565b6100aa610109366004610675565b6105b6565b5f81815260208181526040808320815160c08101835281546001600160a01b039081168252600183015494820194909452600282015490931691830191909152600381015460608301526004015467ffffffffffffffff81166080830152600160401b900460ff16151560a08201819052829182916101a85760405162461bcd60e51b815260040161019f906106f6565b60405180910390fd5b8051604082015160609092015190969195509350915050565b5f8181526020819052604090206004810154600160401b900460ff166101f95760405162461bcd60e51b815260040161019f906106f6565b60028101546001600160a01b03161561032b57600281015460038201546040516331a9108f60e11b815260048101919091525f916001600160a01b031690636352211e90602401602060405180830381865afa15801561025b573d5f5f3e3d5ffd5b505050506040513d601f19601f8201168201806040525081019061027f919061071f565b90506001600160a01b0381166102c75760405162461bcd60e51b815260206004820152600d60248201526c24a72b20a624a22fa7aba722a960991b604482015260640161019f565b81546001600160a01b038281169116146103295781546001600160a01b031981166001600160a01b038381169182178555604051921691829086907fd08928404522f2d89c0cdc6d86fa9b08ff053f18a6b1c16f89cf67cf0d4d11f0905f90a4505b505b5050565b8361036b5760405162461bcd60e51b815260206004820152600c60248201526b0929cac82989288be9082a6960a31b604482015260640161019f565b6001600160a01b0383161561042d576040516331a9108f60e11b81526004810183905233906001600160a01b03851690636352211e90602401602060405180830381865afa1580156103bf573d5f5f3e3d5ffd5b505050506040513d601f19601f820116820180604052508101906103e3919061071f565b6001600160a01b03161461042d5760405162461bcd60e51b81526020600482015260116024820152702727aa2fa624a1a2a729a2afa7aba722a960791b604482015260640161019f565b6040518060c00160405280336001600160a01b03168152602001858152602001846001600160a01b031681526020018381526020018267ffffffffffffffff168152602001600115158152505f5f8681526020019081526020015f205f820151815f015f6101000a8154816001600160a01b0302191690836001600160a01b03160217905550602082015181600101556040820151816002015f6101000a8154816001600160a01b0302191690836001600160a01b03160217905550606082015181600301556080820151816004015f6101000a81548167ffffffffffffffff021916908367ffffffffffffffff16021790555060a08201518160040160086101000a81548160ff021916908315150217905550905050336001600160a01b0316847f2860e7e6e4be0329685b6e234ec1575a6da986d2c465c30d595b54c96f69c2558585856040516105a8939291906001600160a01b03939093168352602083019190915267ffffffffffffffff16604082015260600190565b60405180910390a350505050565b5f8181526020819052604090206004810154600160401b900460ff166105ee5760405162461bcd60e51b815260040161019f906106f6565b80546001600160a01b031633146106335760405162461bcd60e51b81526020600482015260096024820152682727aa2fa7aba722a960b91b604482015260640161019f565b60048101805468ff00000000000000001916905560405182907fd66eebe2fcbcf3a9fa173a01ed8f813c9a9b867c4cc2a8529bc8e0c56c110410905f90a25050565b5f60208284031215610685575f5ffd5b5035919050565b6001600160a01b03811681146106a0575f5ffd5b50565b5f5f5f5f608085870312156106b6575f5ffd5b8435935060208501356106c88161068c565b925060408501359150606085013567ffffffffffffffff811681146106eb575f5ffd5b939692955090935050565b6020808252600f908201526e52554c455f4e4f545f41435449564560881b604082015260600190565b5f6020828403121561072f575f5ffd5b815161073a8161068c565b939250505056fea26469706673582212207e770df0a015501c6676a2aa8b81a27e14c56a8ad47697e6718ffdcadc88b8f064736f6c634300081c0033",
  "linkReferences": {},
  "deployedLinkReferences": {},
  "immutableReferences": {},
  "inputSourceName": "project/contracts/CombinedRuleStorage.sol",
  "buildInfoId": "solc-0_8_28-624670cb1169b74fabb27fca3561c5e4960ce764"
}