{
  "_format": "hh3-artifact-1",
  "contractName": "PayIDVerifier",
  "sourceName": "contracts/PayIDVerifier.sol",
  "abi": [
    {
      "inputs": [
        {
          "internalType": "address",
          "name": "combinedRuleStorage_",
          "type": "address"
        }
      ],
      "stateMutability": "nonpayable",
      "type": "constructor"
    },
    {
      "inputs": [],
      "name": "ECDSAInvalidSignature",
      "type": "error"
    },
    {
      "inputs": [
        {
          "internalType": "uint256",
          "name": "length",
          "type": "uint256"
        }
      ],
      "name": "ECDSAInvalidSignatureLength",
      "type": "error"
    },
    {
      "inputs": [
        {
          "internalType": "bytes32",
          "name": "s",
          "type": "bytes32"
        }
      ],
      "name": "ECDSAInvalidSignatureS",
      "type": "error"
    },
    {
      "inputs": [],
      "name": "InvalidShortString",
      "type": "error"
    },
    {
      "inputs": [
        {
          "internalType": "string",
          "name": "str",
          "type": "string"
        }
      ],
      "name": "StringTooLong",
      "type": "error"
    },
    {
      "anonymous": false,
      "inputs": [],
      "name": "EIP712DomainChanged",
      "type": "event"
    },
    {
      "inputs": [],
      "name": "DECISION_TYPEHASH",
      "outputs": [
        {
          "internalType": "bytes32",
          "name": "",
          "type": "bytes32"
        }
      ],
      "stateMutability": "view",
      "type": "function"
    },
    {
      "inputs": [],
      "name": "SIGNATURE_VERSION",
      "outputs": [
        {
          "internalType": "string",
          "name": "",
          "type": "string"
        }
      ],
      "stateMutability": "view",
      "type": "function"
    },
    {
      "inputs": [],
      "name": "SIGNING_DOMAIN",
      "outputs": [
        {
          "internalType": "string",
          "name": "",
          "type": "string"
        }
      ],
      "stateMutability": "view",
      "type": "function"
    },
    {
      "inputs": [],
      "name": "combinedRuleStorage",
      "outputs": [
        {
          "internalType": "contract ICombinedRuleStorage",
          "name": "",
          "type": "address"
        }
      ],
      "stateMutability": "view",
      "type": "function"
    },
    {
      "inputs": [],
      "name": "eip712Domain",
      "outputs": [
        {
          "internalType": "bytes1",
          "name": "fields",
          "type": "bytes1"
        },
        {
          "internalType": "string",
          "name": "name",
          "type": "string"
        },
        {
          "internalType": "string",
          "name": "version",
          "type": "string"
        },
        {
          "internalType": "uint256",
          "name": "chainId",
          "type": "uint256"
        },
        {
          "internalType": "address",
          "name": "verifyingContract",
          "type": "address"
        },
        {
          "internalType": "bytes32",
          "name": "salt",
          "type": "bytes32"
        },
        {
          "internalType": "uint256[]",
          "name": "extensions",
          "type": "uint256[]"
        }
      ],
      "stateMutability": "view",
      "type": "function"
    },
    {
      "inputs": [
        {
          "components": [
            {
              "internalType": "bytes32",
              "name": "version",
              "type": "bytes32"
            },
            {
              "internalType": "bytes32",
              "name": "payId",
              "type": "bytes32"
            },
            {
              "internalType": "address",
              "name": "payer",
              "type": "address"
            },
            {
              "internalType": "address",
              "name": "receiver",
              "type": "address"
            },
            {
              "internalType": "address",
              "name": "asset",
              "type": "address"
            },
            {
              "internalType": "uint256",
              "name": "amount",
              "type": "uint256"
            },
            {
              "internalType": "bytes32",
              "name": "contextHash",
              "type": "bytes32"
            },
            {
              "internalType": "bytes32",
              "name": "ruleSetHash",
              "type": "bytes32"
            },
            {
              "internalType": "uint64",
              "name": "issuedAt",
              "type": "uint64"
            },
            {
              "internalType": "uint64",
              "name": "expiresAt",
              "type": "uint64"
            },
            {
              "internalType": "bytes32",
              "name": "nonce",
              "type": "bytes32"
            }
          ],
          "internalType": "struct PayIDVerifier.Decision",
          "name": "d",
          "type": "tuple"
        }
      ],
      "name": "hashDecision",
      "outputs": [
        {
          "internalType": "bytes32",
          "name": "",
          "type": "bytes32"
        }
      ],
      "stateMutability": "view",
      "type": "function"
    },
    {
      "inputs": [
        {
          "components": [
            {
              "internalType": "bytes32",
              "name": "version",
              "type": "bytes32"
            },
            {
              "internalType": "bytes32",
              "name": "payId",
              "type": "bytes32"
            },
            {
              "internalType": "address",
              "name": "payer",
              "type": "address"
            },
            {
              "internalType": "address",
              "name": "receiver",
              "type": "address"
            },
            {
              "internalType": "address",
              "name": "asset",
              "type": "address"
            },
            {
              "internalType": "uint256",
              "name": "amount",
              "type": "uint256"
            },
            {
              "internalType": "bytes32",
              "name": "contextHash",
              "type": "bytes32"
            },
            {
              "internalType": "bytes32",
              "name": "ruleSetHash",
              "type": "bytes32"
            },
            {
              "internalType": "uint64",
              "name": "issuedAt",
              "type": "uint64"
            },
            {
              "internalType": "uint64",
              "name": "expiresAt",
              "type": "uint64"
            },
            {
              "internalType": "bytes32",
              "name": "nonce",
              "type": "bytes32"
            }
          ],
          "internalType": "struct PayIDVerifier.Decision",
          "name": "d",
          "type": "tuple"
        },
        {
          "internalType": "bytes",
          "name": "sig",
          "type": "bytes"
        }
      ],
      "name": "requireAllowed",
      "outputs": [],
      "stateMutability": "nonpayable",
      "type": "function"
    },
    {
      "inputs": [
        {
          "internalType": "address",
          "name": "",
          "type": "address"
        },
        {
          "internalType": "bytes32",
          "name": "",
          "type": "bytes32"
        }
      ],
      "name": "usedNonce",
      "outputs": [
        {
          "internalType": "bool",
          "name": "",
          "type": "bool"
        }
      ],
      "stateMutability": "view",
      "type": "function"
    },
    {
      "inputs": [
        {
          "components": [
            {
              "internalType": "bytes32",
              "name": "version",
              "type": "bytes32"
            },
            {
              "internalType": "bytes32",
              "name": "payId",
              "type": "bytes32"
            },
            {
              "internalType": "address",
              "name": "payer",
              "type": "address"
            },
            {
              "internalType": "address",
              "name": "receiver",
              "type": "address"
            },
            {
              "internalType": "address",
              "name": "asset",
              "type": "address"
            },
            {
              "internalType": "uint256",
              "name": "amount",
              "type": "uint256"
            },
            {
              "internalType": "bytes32",
              "name": "contextHash",
              "type": "bytes32"
            },
            {
              "internalType": "bytes32",
              "name": "ruleSetHash",
              "type": "bytes32"
            },
            {
              "internalType": "uint64",
              "name": "issuedAt",
              "type": "uint64"
            },
            {
              "internalType": "uint64",
              "name": "expiresAt",
              "type": "uint64"
            },
            {
              "internalType": "bytes32",
              "name": "nonce",
              "type": "bytes32"
            }
          ],
          "internalType": "struct PayIDVerifier.Decision",
          "name": "d",
          "type": "tuple"
        },
        {
          "internalType": "bytes",
          "name": "sig",
          "type": "bytes"
        }
      ],
      "name": "verifyDecision",
      "outputs": [
        {
          "internalType": "bool",
          "name": "",
          "type": "bool"
        }
      ],
      "stateMutability": "view",
      "type": "function"
    }
  ],
  "bytecode": "0x610180604052348015610010575f5ffd5b5060405161139338038061139383398101604081905261002f916101f8565b604080518082018252600f81526e2820ac9724a2102232b1b4b9b4b7b760891b602080830191909152825180840190935260018352601960f91b9083015290610078825f610189565b61012052610087816001610189565b61014052815160208084019190912060e052815190820120610100524660a05261011360e05161010051604080517f8b73c3c69bb8fe3d512ecc4cf759cc79239f7b179b0ffacaa9a75d522b39400f60208201529081019290925260608201524660808201523060a08201525f9060c00160405160208183030381529060405280519060200120905090565b60805250503060c0526001600160a01b0381166101775760405162461bcd60e51b815260206004820152601460248201527f494e56414c49445f52554c455f53544f5241474500000000000000000000000060448201526064015b60405180910390fd5b6001600160a01b0316610160526103cf565b5f6020835110156101a45761019d836101bb565b90506101b5565b816101af84826102bd565b5060ff90505b92915050565b5f5f829050601f815111156101e5578260405163305a27a960e01b815260040161016e9190610377565b80516101f0826103ac565b179392505050565b5f60208284031215610208575f5ffd5b81516001600160a01b038116811461021e575f5ffd5b9392505050565b634e487b7160e01b5f52604160045260245ffd5b600181811c9082168061024d57607f821691505b60208210810361026b57634e487b7160e01b5f52602260045260245ffd5b50919050565b601f8211156102b857805f5260205f20601f840160051c810160208510156102965750805b601f840160051c820191505b818110156102b5575f81556001016102a2565b50505b505050565b81516001600160401b038111156102d6576102d6610225565b6102ea816102e48454610239565b84610271565b6020601f82116001811461031c575f83156103055750848201515b5f19600385901b1c1916600184901b1784556102b5565b5f84815260208120601f198516915b8281101561034b578785015182556020948501946001909201910161032b565b508482101561036857868401515f19600387901b60f8161c191681555b50505050600190811b01905550565b602081525f82518060208401528060208501604085015e5f604082850101526040601f19601f83011684010191505092915050565b8051602080830151919081101561026b575f1960209190910360031b1b16919050565b60805160a05160c05160e05161010051610120516101405161016051610f626104315f395f8181610193015261057301525f61083e01525f61080d01525f610a4201525f610a1a01525f61097501525f61099f01525f6109c90152610f625ff3fe608060405234801561000f575f5ffd5b5060043610610090575f3560e01c806384b0196e1161006357806384b0196e146101195780638f9f07db14610134578063a415729614610161578063bdf4aeb41461018e578063e3faad94146101cd575f5ffd5b8063405c576e146100945780634b80b6bc146100bc5780634dd4a168146100dd578063569fdf3714610104575b5f5ffd5b6100a76100a2366004610c7e565b6101fb565b60405190151581526020015b60405180910390f35b6100cf6100ca366004610cff565b610304565b6040519081526020016100b3565b6100cf7f1a533b278b148f1ff94fcd94b594d1eb7df8684a79da789c7a3c667e01e0f0ce81565b610117610112366004610c7e565b61042e565b005b610121610770565b6040516100b39796959493929190610d48565b6100a7610142366004610df5565b600260209081525f928352604080842090915290825290205460ff1681565b610181604051806040016040528060018152602001601960f91b81525081565b6040516100b39190610e1f565b6101b57f000000000000000000000000000000000000000000000000000000000000000081565b6040516001600160a01b0390911681526020016100b3565b6101816040518060400160405280600f81526020016e2820ac9724a2102232b1b4b9b4b7b760891b81525081565b5f61020e61014085016101208601610e31565b67ffffffffffffffff1642111561022657505f6102fd565b4261023961012086016101008701610e31565b67ffffffffffffffff16111561025057505f6102fd565b8360a001355f0361026257505f6102fd565b5f6102736080860160608701610e58565b6001600160a01b03160361028857505f6102fd565b5f6102d384848080601f0160208091040260200160405190810160405280939291908181526020018383808284375f920191909152506102cd92508991506103049050565b906107b2565b90506102e56060860160408701610e58565b6001600160a01b0316816001600160a01b0316149150505b9392505050565b5f6104287f1a533b278b148f1ff94fcd94b594d1eb7df8684a79da789c7a3c667e01e0f0ce833560208501356103406060870160408801610e58565b6103506080880160608901610e58565b61036060a0890160808a01610e58565b60a089013560c08a013560e08b01356103816101208d016101008e01610e31565b6103936101408e016101208f01610e31565b60408051602081019c909c528b019990995260608a01979097526001600160a01b0395861660808a015293851660a08901529390911660c087015260e086015261010085019190915261012084015267ffffffffffffffff9081166101408481019190915291166101608301528401356101808201526101a001604051602081830303815290604052805190602001206107da565b92915050565b6104398383836101fb565b6104815760405162461bcd60e51b81526020600482015260146024820152732820aca4a21d1024a72b20a624a22fa82927a7a360611b60448201526064015b60405180910390fd5b60025f6104946060860160408701610e58565b6001600160a01b0316815260208082019290925260409081015f908120610140870135825290925290205460ff16156105045760405162461bcd60e51b81526020600482015260126024820152711393d390d157d053149150511657d554d15160721b6044820152606401610478565b600160025f6105196060870160408801610e58565b6001600160a01b03908116825260208083019390935260409182015f9081206101408901358252909352818320805460ff1916941515949094179093555163075bbcc560e11b815260e086013560048201529091829182917f00000000000000000000000000000000000000000000000000000000000000001690630eb7798a90602401606060405180830381865afa1580156105b8573d5f5f3e3d5ffd5b505050506040513d601f19601f820116820180604052508101906105dc9190610e73565b919450925090506001600160a01b03821615610768576040516306c80c8160e51b8152600481018290525f906001600160a01b0384169063d901902090602401602060405180830381865afa158015610637573d5f5f3e3d5ffd5b505050506040513d601f19601f8201168201806040525081019061065b9190610eb4565b9050428110156106a45760405162461bcd60e51b81526020600482015260146024820152731495531157d31250d15394d157d156141254915160621b6044820152606401610478565b6040516331a9108f60e11b8152600481018390526001600160a01b038086169190851690636352211e90602401602060405180830381865afa1580156106ec573d5f5f3e3d5ffd5b505050506040513d601f19601f820116820180604052508101906107109190610ecb565b6001600160a01b0316146107665760405162461bcd60e51b815260206004820152601a60248201527f52554c455f4c4943454e53455f4f574e45525f4348414e4745440000000000006044820152606401610478565b505b505050505050565b5f6060805f5f5f6060610781610806565b610789610837565b604080515f80825260208201909252600f60f81b9b939a50919850469750309650945092509050565b5f5f5f5f6107c08686610864565b9250925092506107d082826108ad565b5090949350505050565b5f6104286107e6610969565b8360405161190160f01b8152600281019290925260228201526042902090565b60606108327f00000000000000000000000000000000000000000000000000000000000000005f610a92565b905090565b60606108327f00000000000000000000000000000000000000000000000000000000000000006001610a92565b5f5f5f835160410361089b576020840151604085015160608601515f1a61088d88828585610b3b565b9550955095505050506108a6565b505081515f91506002905b9250925092565b5f8260038111156108c0576108c0610ee6565b036108c9575050565b60018260038111156108dd576108dd610ee6565b036108fb5760405163f645eedf60e01b815260040160405180910390fd5b600282600381111561090f5761090f610ee6565b036109305760405163fce698f760e01b815260048101829052602401610478565b600382600381111561094457610944610ee6565b03610965576040516335e2f38360e21b815260048101829052602401610478565b5050565b5f306001600160a01b037f0000000000000000000000000000000000000000000000000000000000000000161480156109c157507f000000000000000000000000000000000000000000000000000000000000000046145b156109eb57507f000000000000000000000000000000000000000000000000000000000000000090565b610832604080517f8b73c3c69bb8fe3d512ecc4cf759cc79239f7b179b0ffacaa9a75d522b39400f60208201527f0000000000000000000000000000000000000000000000000000000000000000918101919091527f000000000000000000000000000000000000000000000000000000000000000060608201524660808201523060a08201525f9060c00160405160208183030381529060405280519060200120905090565b606060ff8314610aac57610aa583610c03565b9050610428565b818054610ab890610efa565b80601f0160208091040260200160405190810160405280929190818152602001828054610ae490610efa565b8015610b2f5780601f10610b0657610100808354040283529160200191610b2f565b820191905f5260205f20905b815481529060010190602001808311610b1257829003601f168201915b50505050509050610428565b5f80807f7fffffffffffffffffffffffffffffff5d576e7357a4501ddfe92f46681b20a0841115610b7457505f91506003905082610bf9565b604080515f808252602082018084528a905260ff891692820192909252606081018790526080810186905260019060a0016020604051602081039080840390855afa158015610bc5573d5f5f3e3d5ffd5b5050604051601f1901519150506001600160a01b038116610bf057505f925060019150829050610bf9565b92505f91508190505b9450945094915050565b60605f610c0f83610c40565b6040805160208082528183019092529192505f91906020820181803683375050509182525060208101929092525090565b5f60ff8216601f81111561042857604051632cd44ac360e21b815260040160405180910390fd5b5f6101608284031215610c78575f5ffd5b50919050565b5f5f5f6101808486031215610c91575f5ffd5b610c9b8585610c67565b925061016084013567ffffffffffffffff811115610cb7575f5ffd5b8401601f81018613610cc7575f5ffd5b803567ffffffffffffffff811115610cdd575f5ffd5b866020828401011115610cee575f5ffd5b939660209190910195509293505050565b5f6101608284031215610d10575f5ffd5b6102fd8383610c67565b5f81518084528060208401602086015e5f602082860101526020601f19601f83011685010191505092915050565b60ff60f81b8816815260e060208201525f610d6660e0830189610d1a565b8281036040840152610d788189610d1a565b606084018890526001600160a01b038716608085015260a0840186905283810360c0850152845180825260208087019350909101905f5b81811015610dcd578351835260209384019390920191600101610daf565b50909b9a5050505050505050505050565b6001600160a01b0381168114610df2575f5ffd5b50565b5f5f60408385031215610e06575f5ffd5b8235610e1181610dde565b946020939093013593505050565b602081525f6102fd6020830184610d1a565b5f60208284031215610e41575f5ffd5b813567ffffffffffffffff811681146102fd575f5ffd5b5f60208284031215610e68575f5ffd5b81356102fd81610dde565b5f5f5f60608486031215610e85575f5ffd5b8351610e9081610dde565b6020850151909350610ea181610dde565b6040949094015192959394509192915050565b5f60208284031215610ec4575f5ffd5b5051919050565b5f60208284031215610edb575f5ffd5b81516102fd81610dde565b634e487b7160e01b5f52602160045260245ffd5b600181811c90821680610f0e57607f821691505b602082108103610c7857634e487b7160e01b5f52602260045260245ffdfea2646970667358221220083c2adff74460e177c27bd1b0796b418f83e2e9cdc1a41d507c80e5550455bb64736f6c634300081c0033",
  "linkReferences": {},
  "deployedLinkReferences": {},
  "immutableReferences": {
    "2188": [
      {
        "length": 32,
        "start": 2505
      }
    ],
    "2190": [
      {
        "length": 32,
        "start": 2463
      }
    ],
    "2192": [
      {
        "length": 32,
        "start": 2421
      }
    ],
    "2194": [
      {
        "length": 32,
        "start": 2586
      }
    ],
    "2196": [
      {
        "length": 32,
        "start": 2626
      }
    ],
    "2199": [
      {
        "length": 32,
        "start": 2061
      }
    ],
    "2202": [
      {
        "length": 32,
        "start": 2110
      }
    ],
    "6060": [
      {
        "length": 32,
        "start": 403
      },
      {
        "length": 32,
        "start": 1395
      }
    ]
  },
  "inputSourceName": "project/contracts/PayIDVerifier.sol",
  "buildInfoId": "solc-0_8_28-d551bd9c2c2bf0f22b7438f0d3e8b788feae2d9f"
}