{
  "_format": "hh3-artifact-1",
  "contractName": "PayIDVerifier",
  "sourceName": "contracts/PayIDVerifier.sol",
  "abi": [
    {
      "inputs": [
        {
          "internalType": "address",
          "name": "combinedRuleStorage_",
          "type": "address"
        }
      ],
      "stateMutability": "nonpayable",
      "type": "constructor"
    },
    {
      "inputs": [],
      "name": "ECDSAInvalidSignature",
      "type": "error"
    },
    {
      "inputs": [
        {
          "internalType": "uint256",
          "name": "length",
          "type": "uint256"
        }
      ],
      "name": "ECDSAInvalidSignatureLength",
      "type": "error"
    },
    {
      "inputs": [
        {
          "internalType": "bytes32",
          "name": "s",
          "type": "bytes32"
        }
      ],
      "name": "ECDSAInvalidSignatureS",
      "type": "error"
    },
    {
      "inputs": [],
      "name": "InvalidShortString",
      "type": "error"
    },
    {
      "inputs": [
        {
          "internalType": "string",
          "name": "str",
          "type": "string"
        }
      ],
      "name": "StringTooLong",
      "type": "error"
    },
    {
      "anonymous": false,
      "inputs": [],
      "name": "EIP712DomainChanged",
      "type": "event"
    },
    {
      "inputs": [],
      "name": "DECISION_TYPEHASH",
      "outputs": [
        {
          "internalType": "bytes32",
          "name": "",
          "type": "bytes32"
        }
      ],
      "stateMutability": "view",
      "type": "function"
    },
    {
      "inputs": [],
      "name": "SIGNATURE_VERSION",
      "outputs": [
        {
          "internalType": "string",
          "name": "",
          "type": "string"
        }
      ],
      "stateMutability": "view",
      "type": "function"
    },
    {
      "inputs": [],
      "name": "SIGNING_DOMAIN",
      "outputs": [
        {
          "internalType": "string",
          "name": "",
          "type": "string"
        }
      ],
      "stateMutability": "view",
      "type": "function"
    },
    {
      "inputs": [],
      "name": "combinedRuleStorage",
      "outputs": [
        {
          "internalType": "contract ICombinedRuleStorage",
          "name": "",
          "type": "address"
        }
      ],
      "stateMutability": "view",
      "type": "function"
    },
    {
      "inputs": [],
      "name": "eip712Domain",
      "outputs": [
        {
          "internalType": "bytes1",
          "name": "fields",
          "type": "bytes1"
        },
        {
          "internalType": "string",
          "name": "name",
          "type": "string"
        },
        {
          "internalType": "string",
          "name": "version",
          "type": "string"
        },
        {
          "internalType": "uint256",
          "name": "chainId",
          "type": "uint256"
        },
        {
          "internalType": "address",
          "name": "verifyingContract",
          "type": "address"
        },
        {
          "internalType": "bytes32",
          "name": "salt",
          "type": "bytes32"
        },
        {
          "internalType": "uint256[]",
          "name": "extensions",
          "type": "uint256[]"
        }
      ],
      "stateMutability": "view",
      "type": "function"
    },
    {
      "inputs": [
        {
          "components": [
            {
              "internalType": "bytes32",
              "name": "version",
              "type": "bytes32"
            },
            {
              "internalType": "bytes32",
              "name": "payId",
              "type": "bytes32"
            },
            {
              "internalType": "address",
              "name": "payer",
              "type": "address"
            },
            {
              "internalType": "address",
              "name": "receiver",
              "type": "address"
            },
            {
              "internalType": "address",
              "name": "asset",
              "type": "address"
            },
            {
              "internalType": "uint256",
              "name": "amount",
              "type": "uint256"
            },
            {
              "internalType": "bytes32",
              "name": "contextHash",
              "type": "bytes32"
            },
            {
              "internalType": "bytes32",
              "name": "ruleSetHash",
              "type": "bytes32"
            },
            {
              "internalType": "uint64",
              "name": "issuedAt",
              "type": "uint64"
            },
            {
              "internalType": "uint64",
              "name": "expiresAt",
              "type": "uint64"
            },
            {
              "internalType": "bytes32",
              "name": "nonce",
              "type": "bytes32"
            }
          ],
          "internalType": "struct PayIDVerifier.Decision",
          "name": "d",
          "type": "tuple"
        }
      ],
      "name": "hashDecision",
      "outputs": [
        {
          "internalType": "bytes32",
          "name": "",
          "type": "bytes32"
        }
      ],
      "stateMutability": "view",
      "type": "function"
    },
    {
      "inputs": [
        {
          "components": [
            {
              "internalType": "bytes32",
              "name": "version",
              "type": "bytes32"
            },
            {
              "internalType": "bytes32",
              "name": "payId",
              "type": "bytes32"
            },
            {
              "internalType": "address",
              "name": "payer",
              "type": "address"
            },
            {
              "internalType": "address",
              "name": "receiver",
              "type": "address"
            },
            {
              "internalType": "address",
              "name": "asset",
              "type": "address"
            },
            {
              "internalType": "uint256",
              "name": "amount",
              "type": "uint256"
            },
            {
              "internalType": "bytes32",
              "name": "contextHash",
              "type": "bytes32"
            },
            {
              "internalType": "bytes32",
              "name": "ruleSetHash",
              "type": "bytes32"
            },
            {
              "internalType": "uint64",
              "name": "issuedAt",
              "type": "uint64"
            },
            {
              "internalType": "uint64",
              "name": "expiresAt",
              "type": "uint64"
            },
            {
              "internalType": "bytes32",
              "name": "nonce",
              "type": "bytes32"
            }
          ],
          "internalType": "struct PayIDVerifier.Decision",
          "name": "d",
          "type": "tuple"
        },
        {
          "internalType": "bytes",
          "name": "sig",
          "type": "bytes"
        }
      ],
      "name": "requireAllowed",
      "outputs": [],
      "stateMutability": "nonpayable",
      "type": "function"
    },
    {
      "inputs": [
        {
          "internalType": "address",
          "name": "",
          "type": "address"
        },
        {
          "internalType": "bytes32",
          "name": "",
          "type": "bytes32"
        }
      ],
      "name": "usedNonce",
      "outputs": [
        {
          "internalType": "bool",
          "name": "",
          "type": "bool"
        }
      ],
      "stateMutability": "view",
      "type": "function"
    },
    {
      "inputs": [
        {
          "components": [
            {
              "internalType": "bytes32",
              "name": "version",
              "type": "bytes32"
            },
            {
              "internalType": "bytes32",
              "name": "payId",
              "type": "bytes32"
            },
            {
              "internalType": "address",
              "name": "payer",
              "type": "address"
            },
            {
              "internalType": "address",
              "name": "receiver",
              "type": "address"
            },
            {
              "internalType": "address",
              "name": "asset",
              "type": "address"
            },
            {
              "internalType": "uint256",
              "name": "amount",
              "type": "uint256"
            },
            {
              "internalType": "bytes32",
              "name": "contextHash",
              "type": "bytes32"
            },
            {
              "internalType": "bytes32",
              "name": "ruleSetHash",
              "type": "bytes32"
            },
            {
              "internalType": "uint64",
              "name": "issuedAt",
              "type": "uint64"
            },
            {
              "internalType": "uint64",
              "name": "expiresAt",
              "type": "uint64"
            },
            {
              "internalType": "bytes32",
              "name": "nonce",
              "type": "bytes32"
            }
          ],
          "internalType": "struct PayIDVerifier.Decision",
          "name": "d",
          "type": "tuple"
        },
        {
          "internalType": "bytes",
          "name": "sig",
          "type": "bytes"
        }
      ],
      "name": "verifyDecision",
      "outputs": [
        {
          "internalType": "bool",
          "name": "",
          "type": "bool"
        }
      ],
      "stateMutability": "view",
      "type": "function"
    }
  ],
  "bytecode": "0x610180604052348015610010575f5ffd5b5060405161159838038061159883398101604081905261002f916101f8565b604080518082018252600f81526e2820ac9724a2102232b1b4b9b4b7b760891b602080830191909152825180840190935260018352601960f91b9083015290610078825f610189565b61012052610087816001610189565b61014052815160208084019190912060e052815190820120610100524660a05261011360e05161010051604080517f8b73c3c69bb8fe3d512ecc4cf759cc79239f7b179b0ffacaa9a75d522b39400f60208201529081019290925260608201524660808201523060a08201525f9060c00160405160208183030381529060405280519060200120905090565b60805250503060c0526001600160a01b0381166101775760405162461bcd60e51b815260206004820152601460248201527f494e56414c49445f52554c455f53544f5241474500000000000000000000000060448201526064015b60405180910390fd5b6001600160a01b0316610160526103cf565b5f6020835110156101a45761019d836101bb565b90506101b5565b816101af84826102bd565b5060ff90505b92915050565b5f5f829050601f815111156101e5578260405163305a27a960e01b815260040161016e9190610377565b80516101f0826103ac565b179392505050565b5f60208284031215610208575f5ffd5b81516001600160a01b038116811461021e575f5ffd5b9392505050565b634e487b7160e01b5f52604160045260245ffd5b600181811c9082168061024d57607f821691505b60208210810361026b57634e487b7160e01b5f52602260045260245ffd5b50919050565b601f8211156102b857805f5260205f20601f840160051c810160208510156102965750805b601f840160051c820191505b818110156102b5575f81556001016102a2565b50505b505050565b81516001600160401b038111156102d6576102d6610225565b6102ea816102e48454610239565b84610271565b6020601f82116001811461031c575f83156103055750848201515b5f19600385901b1c1916600184901b1784556102b5565b5f84815260208120601f198516915b8281101561034b578785015182556020948501946001909201910161032b565b508482101561036857868401515f19600387901b60f8161c191681555b50505050600190811b01905550565b602081525f82518060208401528060208501604085015e5f604082850101526040601f19601f83011684010191505092915050565b8051602080830151919081101561026b575f1960209190910360031b1b16919050565b60805160a05160c05160e051610100516101205161014051610160516111676104315f395f8181610193015261057101525f6108eb01525f6108ba01525f610aef01525f610ac701525f610a2201525f610a4c01525f610a7601526111675ff3fe608060405234801561000f575f5ffd5b5060043610610090575f3560e01c806384b0196e1161006357806384b0196e146101195780638f9f07db14610134578063a415729614610161578063bdf4aeb41461018e578063e3faad94146101cd575f5ffd5b8063405c576e146100945780634b80b6bc146100bc5780634dd4a168146100dd578063569fdf3714610104575b5f5ffd5b6100a76100a2366004610d2b565b6101fb565b60405190151581526020015b60405180910390f35b6100cf6100ca366004610dac565b610304565b6040519081526020016100b3565b6100cf7f1a533b278b148f1ff94fcd94b594d1eb7df8684a79da789c7a3c667e01e0f0ce81565b610117610112366004610d2b565b61042e565b005b61012161081d565b6040516100b39796959493929190610df5565b6100a7610142366004610ea2565b600260209081525f928352604080842090915290825290205460ff1681565b610181604051806040016040528060018152602001601960f91b81525081565b6040516100b39190610ecc565b6101b57f000000000000000000000000000000000000000000000000000000000000000081565b6040516001600160a01b0390911681526020016100b3565b6101816040518060400160405280600f81526020016e2820ac9724a2102232b1b4b9b4b7b760891b81525081565b5f61020e61014085016101208601610ef3565b67ffffffffffffffff1642111561022657505f6102fd565b4261023961012086016101008701610ef3565b67ffffffffffffffff16111561025057505f6102fd565b8360a001355f0361026257505f6102fd565b5f6102736080860160608701610f0e565b6001600160a01b03160361028857505f6102fd565b5f6102d384848080601f0160208091040260200160405190810160405280939291908181526020018383808284375f920191909152506102cd92508991506103049050565b9061085f565b90506102e56060860160408701610f0e565b6001600160a01b0316816001600160a01b0316149150505b9392505050565b5f6104287f1a533b278b148f1ff94fcd94b594d1eb7df8684a79da789c7a3c667e01e0f0ce833560208501356103406060870160408801610f0e565b6103506080880160608901610f0e565b61036060a0890160808a01610f0e565b60a089013560c08a013560e08b01356103816101208d016101008e01610ef3565b6103936101408e016101208f01610ef3565b60408051602081019c909c528b019990995260608a01979097526001600160a01b0395861660808a015293851660a08901529390911660c087015260e086015261010085019190915261012084015267ffffffffffffffff9081166101408481019190915291166101608301528401356101808201526101a00160405160208183030381529060405280519060200120610887565b92915050565b6104398383836101fb565b6104815760405162461bcd60e51b81526020600482015260146024820152732820aca4a21d1024a72b20a624a22fa82927a7a360611b60448201526064015b60405180910390fd5b60025f6104946060860160408701610f0e565b6001600160a01b0316815260208082019290925260409081015f908120610140870135825290925290205460ff16156105045760405162461bcd60e51b81526020600482015260126024820152711393d390d157d053149150511657d554d15160721b6044820152606401610478565b600160025f6105196060870160408801610f0e565b6001600160a01b03908116825260208083019390935260409182015f9081206101408901358252909352818320805460ff1916941515949094179093555163075bbcc560e11b815260e08601356004820152909182917f000000000000000000000000000000000000000000000000000000000000000090911690630eb7798a906024015f60405180830381865afa1580156105b7573d5f5f3e3d5ffd5b505050506040513d5f823e601f3d908101601f191682016040526105de9190810190610fa7565b5090925090506105f46080860160608701610f0e565b6001600160a01b0316826001600160a01b03161461064a5760405162461bcd60e51b81526020600482015260136024820152720a4aa988abe9eae9c8aa4be9a92a69a82a8869606b1b6044820152606401610478565b5f5b8151811015610815575f828281518110610668576106686110a5565b60200260200101515f015190505f838381518110610688576106886110a5565b602002602001015160200151905042826001600160a01b031663d9019020836040518263ffffffff1660e01b81526004016106c591815260200190565b602060405180830381865afa1580156106e0573d5f5f3e3d5ffd5b505050506040513d601f19601f8201168201806040525081019061070491906110b9565b10156107495760405162461bcd60e51b81526020600482015260146024820152731495531157d31250d15394d157d156141254915160621b6044820152606401610478565b6040516331a9108f60e11b8152600481018290526001600160a01b038087169190841690636352211e90602401602060405180830381865afa158015610791573d5f5f3e3d5ffd5b505050506040513d601f19601f820116820180604052508101906107b591906110d0565b6001600160a01b03161461080b5760405162461bcd60e51b815260206004820152601a60248201527f52554c455f4c4943454e53455f4f574e45525f4348414e4745440000000000006044820152606401610478565b505060010161064c565b505050505050565b5f6060805f5f5f606061082e6108b3565b6108366108e4565b604080515f80825260208201909252600f60f81b9b939a50919850469750309650945092509050565b5f5f5f5f61086d8686610911565b92509250925061087d828261095a565b5090949350505050565b5f610428610893610a16565b8360405161190160f01b8152600281019290925260228201526042902090565b60606108df7f00000000000000000000000000000000000000000000000000000000000000005f610b3f565b905090565b60606108df7f00000000000000000000000000000000000000000000000000000000000000006001610b3f565b5f5f5f8351604103610948576020840151604085015160608601515f1a61093a88828585610be8565b955095509550505050610953565b505081515f91506002905b9250925092565b5f82600381111561096d5761096d6110eb565b03610976575050565b600182600381111561098a5761098a6110eb565b036109a85760405163f645eedf60e01b815260040160405180910390fd5b60028260038111156109bc576109bc6110eb565b036109dd5760405163fce698f760e01b815260048101829052602401610478565b60038260038111156109f1576109f16110eb565b03610a12576040516335e2f38360e21b815260048101829052602401610478565b5050565b5f306001600160a01b037f000000000000000000000000000000000000000000000000000000000000000016148015610a6e57507f000000000000000000000000000000000000000000000000000000000000000046145b15610a9857507f000000000000000000000000000000000000000000000000000000000000000090565b6108df604080517f8b73c3c69bb8fe3d512ecc4cf759cc79239f7b179b0ffacaa9a75d522b39400f60208201527f0000000000000000000000000000000000000000000000000000000000000000918101919091527f000000000000000000000000000000000000000000000000000000000000000060608201524660808201523060a08201525f9060c00160405160208183030381529060405280519060200120905090565b606060ff8314610b5957610b5283610cb0565b9050610428565b818054610b65906110ff565b80601f0160208091040260200160405190810160405280929190818152602001828054610b91906110ff565b8015610bdc5780601f10610bb357610100808354040283529160200191610bdc565b820191905f5260205f20905b815481529060010190602001808311610bbf57829003601f168201915b50505050509050610428565b5f80807f7fffffffffffffffffffffffffffffff5d576e7357a4501ddfe92f46681b20a0841115610c2157505f91506003905082610ca6565b604080515f808252602082018084528a905260ff891692820192909252606081018790526080810186905260019060a0016020604051602081039080840390855afa158015610c72573d5f5f3e3d5ffd5b5050604051601f1901519150506001600160a01b038116610c9d57505f925060019150829050610ca6565b92505f91508190505b9450945094915050565b60605f610cbc83610ced565b6040805160208082528183019092529192505f91906020820181803683375050509182525060208101929092525090565b5f60ff8216601f81111561042857604051632cd44ac360e21b815260040160405180910390fd5b5f6101608284031215610d25575f5ffd5b50919050565b5f5f5f6101808486031215610d3e575f5ffd5b610d488585610d14565b925061016084013567ffffffffffffffff811115610d64575f5ffd5b8401601f81018613610d74575f5ffd5b803567ffffffffffffffff811115610d8a575f5ffd5b866020828401011115610d9b575f5ffd5b939660209190910195509293505050565b5f6101608284031215610dbd575f5ffd5b6102fd8383610d14565b5f81518084528060208401602086015e5f602082860101526020601f19601f83011685010191505092915050565b60ff60f81b8816815260e060208201525f610e1360e0830189610dc7565b8281036040840152610e258189610dc7565b606084018890526001600160a01b038716608085015260a0840186905283810360c0850152845180825260208087019350909101905f5b81811015610e7a578351835260209384019390920191600101610e5c565b50909b9a5050505050505050505050565b6001600160a01b0381168114610e9f575f5ffd5b50565b5f5f60408385031215610eb3575f5ffd5b8235610ebe81610e8b565b946020939093013593505050565b602081525f6102fd6020830184610dc7565b67ffffffffffffffff81168114610e9f575f5ffd5b5f60208284031215610f03575f5ffd5b81356102fd81610ede565b5f60208284031215610f1e575f5ffd5b81356102fd81610e8b565b634e487b7160e01b5f52604160045260245ffd5b6040805190810167ffffffffffffffff81118282101715610f6057610f60610f29565b60405290565b604051601f8201601f1916810167ffffffffffffffff81118282101715610f8f57610f8f610f29565b604052919050565b8051610fa281610ede565b919050565b5f5f5f60608486031215610fb9575f5ffd5b8351610fc481610e8b565b602085015190935067ffffffffffffffff811115610fe0575f5ffd5b8401601f81018613610ff0575f5ffd5b805167ffffffffffffffff81111561100a5761100a610f29565b61101960208260051b01610f66565b8082825260208201915060208360061b85010192508883111561103a575f5ffd5b6020840193505b8284101561108a576040848a031215611058575f5ffd5b611060610f3d565b845161106b81610e8b565b8152602085810151818301529083526040909401939190910190611041565b945061109c9250505060408501610f97565b90509250925092565b634e487b7160e01b5f52603260045260245ffd5b5f602082840312156110c9575f5ffd5b5051919050565b5f602082840312156110e0575f5ffd5b81516102fd81610e8b565b634e487b7160e01b5f52602160045260245ffd5b600181811c9082168061111357607f821691505b602082108103610d2557634e487b7160e01b5f52602260045260245ffdfea2646970667358221220db1c6ccda62ddf4c90c043482ccccc910333c97d656a3456ce1fdb8b6ff15d8664736f6c634300081c0033",
  "linkReferences": {},
  "deployedLinkReferences": {},
  "immutableReferences": {
    "2188": [
      {
        "length": 32,
        "start": 2678
      }
    ],
    "2190": [
      {
        "length": 32,
        "start": 2636
      }
    ],
    "2192": [
      {
        "length": 32,
        "start": 2594
      }
    ],
    "2194": [
      {
        "length": 32,
        "start": 2759
      }
    ],
    "2196": [
      {
        "length": 32,
        "start": 2799
      }
    ],
    "2199": [
      {
        "length": 32,
        "start": 2234
      }
    ],
    "2202": [
      {
        "length": 32,
        "start": 2283
      }
    ],
    "6067": [
      {
        "length": 32,
        "start": 403
      },
      {
        "length": 32,
        "start": 1393
      }
    ]
  },
  "inputSourceName": "project/contracts/PayIDVerifier.sol",
  "buildInfoId": "solc-0_8_28-4b0c41a8bed126af640c8589152afc8f076b6785"
}