{
  "_format": "hh3-artifact-1",
  "contractName": "PayIDVerifier",
  "sourceName": "contracts/PayIDVerifier.sol",
  "abi": [
    {
      "inputs": [],
      "stateMutability": "nonpayable",
      "type": "constructor"
    },
    {
      "inputs": [],
      "name": "ECDSAInvalidSignature",
      "type": "error"
    },
    {
      "inputs": [
        {
          "internalType": "uint256",
          "name": "length",
          "type": "uint256"
        }
      ],
      "name": "ECDSAInvalidSignatureLength",
      "type": "error"
    },
    {
      "inputs": [
        {
          "internalType": "bytes32",
          "name": "s",
          "type": "bytes32"
        }
      ],
      "name": "ECDSAInvalidSignatureS",
      "type": "error"
    },
    {
      "inputs": [],
      "name": "InvalidShortString",
      "type": "error"
    },
    {
      "inputs": [
        {
          "internalType": "string",
          "name": "str",
          "type": "string"
        }
      ],
      "name": "StringTooLong",
      "type": "error"
    },
    {
      "anonymous": false,
      "inputs": [],
      "name": "EIP712DomainChanged",
      "type": "event"
    },
    {
      "inputs": [],
      "name": "DECISION_TYPEHASH",
      "outputs": [
        {
          "internalType": "bytes32",
          "name": "",
          "type": "bytes32"
        }
      ],
      "stateMutability": "view",
      "type": "function"
    },
    {
      "inputs": [],
      "name": "SIGNATURE_VERSION",
      "outputs": [
        {
          "internalType": "string",
          "name": "",
          "type": "string"
        }
      ],
      "stateMutability": "view",
      "type": "function"
    },
    {
      "inputs": [],
      "name": "SIGNING_DOMAIN",
      "outputs": [
        {
          "internalType": "string",
          "name": "",
          "type": "string"
        }
      ],
      "stateMutability": "view",
      "type": "function"
    },
    {
      "inputs": [],
      "name": "eip712Domain",
      "outputs": [
        {
          "internalType": "bytes1",
          "name": "fields",
          "type": "bytes1"
        },
        {
          "internalType": "string",
          "name": "name",
          "type": "string"
        },
        {
          "internalType": "string",
          "name": "version",
          "type": "string"
        },
        {
          "internalType": "uint256",
          "name": "chainId",
          "type": "uint256"
        },
        {
          "internalType": "address",
          "name": "verifyingContract",
          "type": "address"
        },
        {
          "internalType": "bytes32",
          "name": "salt",
          "type": "bytes32"
        },
        {
          "internalType": "uint256[]",
          "name": "extensions",
          "type": "uint256[]"
        }
      ],
      "stateMutability": "view",
      "type": "function"
    },
    {
      "inputs": [
        {
          "components": [
            {
              "internalType": "bytes32",
              "name": "version",
              "type": "bytes32"
            },
            {
              "internalType": "bytes32",
              "name": "payId",
              "type": "bytes32"
            },
            {
              "internalType": "address",
              "name": "payer",
              "type": "address"
            },
            {
              "internalType": "address",
              "name": "receiver",
              "type": "address"
            },
            {
              "internalType": "address",
              "name": "asset",
              "type": "address"
            },
            {
              "internalType": "uint256",
              "name": "amount",
              "type": "uint256"
            },
            {
              "internalType": "bytes32",
              "name": "contextHash",
              "type": "bytes32"
            },
            {
              "internalType": "bytes32",
              "name": "ruleSetHash",
              "type": "bytes32"
            },
            {
              "internalType": "uint64",
              "name": "issuedAt",
              "type": "uint64"
            },
            {
              "internalType": "uint64",
              "name": "expiresAt",
              "type": "uint64"
            },
            {
              "internalType": "bytes32",
              "name": "nonce",
              "type": "bytes32"
            }
          ],
          "internalType": "struct PayIDVerifier.Decision",
          "name": "d",
          "type": "tuple"
        }
      ],
      "name": "hashDecision",
      "outputs": [
        {
          "internalType": "bytes32",
          "name": "",
          "type": "bytes32"
        }
      ],
      "stateMutability": "view",
      "type": "function"
    },
    {
      "inputs": [
        {
          "components": [
            {
              "internalType": "bytes32",
              "name": "version",
              "type": "bytes32"
            },
            {
              "internalType": "bytes32",
              "name": "payId",
              "type": "bytes32"
            },
            {
              "internalType": "address",
              "name": "payer",
              "type": "address"
            },
            {
              "internalType": "address",
              "name": "receiver",
              "type": "address"
            },
            {
              "internalType": "address",
              "name": "asset",
              "type": "address"
            },
            {
              "internalType": "uint256",
              "name": "amount",
              "type": "uint256"
            },
            {
              "internalType": "bytes32",
              "name": "contextHash",
              "type": "bytes32"
            },
            {
              "internalType": "bytes32",
              "name": "ruleSetHash",
              "type": "bytes32"
            },
            {
              "internalType": "uint64",
              "name": "issuedAt",
              "type": "uint64"
            },
            {
              "internalType": "uint64",
              "name": "expiresAt",
              "type": "uint64"
            },
            {
              "internalType": "bytes32",
              "name": "nonce",
              "type": "bytes32"
            }
          ],
          "internalType": "struct PayIDVerifier.Decision",
          "name": "d",
          "type": "tuple"
        },
        {
          "internalType": "bytes",
          "name": "sig",
          "type": "bytes"
        }
      ],
      "name": "requireAllowed",
      "outputs": [],
      "stateMutability": "view",
      "type": "function"
    },
    {
      "inputs": [
        {
          "components": [
            {
              "internalType": "bytes32",
              "name": "version",
              "type": "bytes32"
            },
            {
              "internalType": "bytes32",
              "name": "payId",
              "type": "bytes32"
            },
            {
              "internalType": "address",
              "name": "payer",
              "type": "address"
            },
            {
              "internalType": "address",
              "name": "receiver",
              "type": "address"
            },
            {
              "internalType": "address",
              "name": "asset",
              "type": "address"
            },
            {
              "internalType": "uint256",
              "name": "amount",
              "type": "uint256"
            },
            {
              "internalType": "bytes32",
              "name": "contextHash",
              "type": "bytes32"
            },
            {
              "internalType": "bytes32",
              "name": "ruleSetHash",
              "type": "bytes32"
            },
            {
              "internalType": "uint64",
              "name": "issuedAt",
              "type": "uint64"
            },
            {
              "internalType": "uint64",
              "name": "expiresAt",
              "type": "uint64"
            },
            {
              "internalType": "bytes32",
              "name": "nonce",
              "type": "bytes32"
            }
          ],
          "internalType": "struct PayIDVerifier.Decision",
          "name": "d",
          "type": "tuple"
        },
        {
          "internalType": "bytes",
          "name": "sig",
          "type": "bytes"
        }
      ],
      "name": "verifyDecision",
      "outputs": [
        {
          "internalType": "bool",
          "name": "",
          "type": "bool"
        }
      ],
      "stateMutability": "view",
      "type": "function"
    }
  ],
  "bytecode": "0x610160604052348015610010575f5ffd5b50604080518082018252600f81526e2820ac9724a2102232b1b4b9b4b7b760891b602080830191909152825180840190935260018352601960f91b908301529061005a825f610103565b61012052610069816001610103565b61014052815160208084019190912060e052815190820120610100524660a0526100f560e05161010051604080517f8b73c3c69bb8fe3d512ecc4cf759cc79239f7b179b0ffacaa9a75d522b39400f60208201529081019290925260608201524660808201523060a08201525f9060c00160405160208183030381529060405280519060200120905090565b60805250503060c052610325565b5f60208351101561011e5761011783610135565b905061012f565b816101298482610213565b5060ff90505b92915050565b5f5f829050601f81511115610168578260405163305a27a960e01b815260040161015f91906102cd565b60405180910390fd5b805161017382610302565b179392505050565b634e487b7160e01b5f52604160045260245ffd5b600181811c908216806101a357607f821691505b6020821081036101c157634e487b7160e01b5f52602260045260245ffd5b50919050565b601f82111561020e57805f5260205f20601f840160051c810160208510156101ec5750805b601f840160051c820191505b8181101561020b575f81556001016101f8565b50505b505050565b81516001600160401b0381111561022c5761022c61017b565b6102408161023a845461018f565b846101c7565b6020601f821160018114610272575f831561025b5750848201515b5f19600385901b1c1916600184901b17845561020b565b5f84815260208120601f198516915b828110156102a15787850151825560209485019460019092019101610281565b50848210156102be57868401515f19600387901b60f8161c191681555b50505050600190811b01905550565b602081525f82518060208401528060208501604085015e5f604082850101526040601f19601f83011684010191505092915050565b805160208083015191908110156101c1575f1960209190910360031b1b16919050565b60805160a05160c05160e051610100516101205161014051610b4d6103765f395f6104d201525f6104a101525f6106d601525f6106ae01525f61060901525f61063301525f61065d0152610b4d5ff3fe608060405234801561000f575f5ffd5b506004361061007a575f3560e01c8063569fdf3711610058578063569fdf37146100ee57806384b0196e14610103578063a41572961461011e578063e3faad941461014b575f5ffd5b8063405c576e1461007e5780634b80b6bc146100a65780634dd4a168146100c7575b5f5ffd5b61009161008c366004610912565b610179565b60405190151581526020015b60405180910390f35b6100b96100b4366004610993565b610282565b60405190815260200161009d565b6100b97f1a533b278b148f1ff94fcd94b594d1eb7df8684a79da789c7a3c667e01e0f0ce81565b6101016100fc366004610912565b6103ac565b005b61010b610404565b60405161009d97969594939291906109dc565b61013e604051806040016040528060018152602001601960f91b81525081565b60405161009d9190610a72565b61013e6040518060400160405280600f81526020016e2820ac9724a2102232b1b4b9b4b7b760891b81525081565b5f61018c61014085016101208601610a84565b67ffffffffffffffff164211156101a457505f61027b565b426101b761012086016101008701610a84565b67ffffffffffffffff1611156101ce57505f61027b565b8360a001355f036101e057505f61027b565b5f6101f16080860160608701610aab565b6001600160a01b03160361020657505f61027b565b5f61025184848080601f0160208091040260200160405190810160405280939291908181526020018383808284375f9201919091525061024b92508991506102829050565b90610446565b90506102636060860160408701610aab565b6001600160a01b0316816001600160a01b0316149150505b9392505050565b5f6103a67f1a533b278b148f1ff94fcd94b594d1eb7df8684a79da789c7a3c667e01e0f0ce833560208501356102be6060870160408801610aab565b6102ce6080880160608901610aab565b6102de60a0890160808a01610aab565b60a089013560c08a013560e08b01356102ff6101208d016101008e01610a84565b6103116101408e016101208f01610a84565b60408051602081019c909c528b019990995260608a01979097526001600160a01b0395861660808a015293851660a08901529390911660c087015260e086015261010085019190915261012084015267ffffffffffffffff9081166101408481019190915291166101608301528401356101808201526101a0016040516020818303038152906040528051906020012061046e565b92915050565b6103b7838383610179565b6103ff5760405162461bcd60e51b81526020600482015260146024820152732820aca4a21d1024a72b20a624a22fa82927a7a360611b60448201526064015b60405180910390fd5b505050565b5f6060805f5f5f606061041561049a565b61041d6104cb565b604080515f80825260208201909252600f60f81b9b939a50919850469750309650945092509050565b5f5f5f5f61045486866104f8565b9250925092506104648282610541565b5090949350505050565b5f6103a661047a6105fd565b8360405161190160f01b8152600281019290925260228201526042902090565b60606104c67f00000000000000000000000000000000000000000000000000000000000000005f610726565b905090565b60606104c67f00000000000000000000000000000000000000000000000000000000000000006001610726565b5f5f5f835160410361052f576020840151604085015160608601515f1a610521888285856107cf565b95509550955050505061053a565b505081515f91506002905b9250925092565b5f82600381111561055457610554610ad1565b0361055d575050565b600182600381111561057157610571610ad1565b0361058f5760405163f645eedf60e01b815260040160405180910390fd5b60028260038111156105a3576105a3610ad1565b036105c45760405163fce698f760e01b8152600481018290526024016103f6565b60038260038111156105d8576105d8610ad1565b036105f9576040516335e2f38360e21b8152600481018290526024016103f6565b5050565b5f306001600160a01b037f00000000000000000000000000000000000000000000000000000000000000001614801561065557507f000000000000000000000000000000000000000000000000000000000000000046145b1561067f57507f000000000000000000000000000000000000000000000000000000000000000090565b6104c6604080517f8b73c3c69bb8fe3d512ecc4cf759cc79239f7b179b0ffacaa9a75d522b39400f60208201527f0000000000000000000000000000000000000000000000000000000000000000918101919091527f000000000000000000000000000000000000000000000000000000000000000060608201524660808201523060a08201525f9060c00160405160208183030381529060405280519060200120905090565b606060ff83146107405761073983610897565b90506103a6565b81805461074c90610ae5565b80601f016020809104026020016040519081016040528092919081815260200182805461077890610ae5565b80156107c35780601f1061079a576101008083540402835291602001916107c3565b820191905f5260205f20905b8154815290600101906020018083116107a657829003601f168201915b505050505090506103a6565b5f80807f7fffffffffffffffffffffffffffffff5d576e7357a4501ddfe92f46681b20a084111561080857505f9150600390508261088d565b604080515f808252602082018084528a905260ff891692820192909252606081018790526080810186905260019060a0016020604051602081039080840390855afa158015610859573d5f5f3e3d5ffd5b5050604051601f1901519150506001600160a01b03811661088457505f92506001915082905061088d565b92505f91508190505b9450945094915050565b60605f6108a3836108d4565b6040805160208082528183019092529192505f91906020820181803683375050509182525060208101929092525090565b5f60ff8216601f8111156103a657604051632cd44ac360e21b815260040160405180910390fd5b5f610160828403121561090c575f5ffd5b50919050565b5f5f5f6101808486031215610925575f5ffd5b61092f85856108fb565b925061016084013567ffffffffffffffff81111561094b575f5ffd5b8401601f8101861361095b575f5ffd5b803567ffffffffffffffff811115610971575f5ffd5b866020828401011115610982575f5ffd5b939660209190910195509293505050565b5f61016082840312156109a4575f5ffd5b61027b83836108fb565b5f81518084528060208401602086015e5f602082860101526020601f19601f83011685010191505092915050565b60ff60f81b8816815260e060208201525f6109fa60e08301896109ae565b8281036040840152610a0c81896109ae565b606084018890526001600160a01b038716608085015260a0840186905283810360c0850152845180825260208087019350909101905f5b81811015610a61578351835260209384019390920191600101610a43565b50909b9a5050505050505050505050565b602081525f61027b60208301846109ae565b5f60208284031215610a94575f5ffd5b813567ffffffffffffffff8116811461027b575f5ffd5b5f60208284031215610abb575f5ffd5b81356001600160a01b038116811461027b575f5ffd5b634e487b7160e01b5f52602160045260245ffd5b600181811c90821680610af957607f821691505b60208210810361090c57634e487b7160e01b5f52602260045260245ffdfea26469706673582212202e73942465889adc1affaf11e6ac2883061d672ab10f1585e41e726475713f7c64736f6c634300081c0033",
  "linkReferences": {},
  "deployedLinkReferences": {},
  "immutableReferences": {
    "2188": [
      {
        "length": 32,
        "start": 1629
      }
    ],
    "2190": [
      {
        "length": 32,
        "start": 1587
      }
    ],
    "2192": [
      {
        "length": 32,
        "start": 1545
      }
    ],
    "2194": [
      {
        "length": 32,
        "start": 1710
      }
    ],
    "2196": [
      {
        "length": 32,
        "start": 1750
      }
    ],
    "2199": [
      {
        "length": 32,
        "start": 1185
      }
    ],
    "2202": [
      {
        "length": 32,
        "start": 1234
      }
    ]
  },
  "inputSourceName": "project/contracts/PayIDVerifier.sol",
  "buildInfoId": "solc-0_8_28-e67a2e9b352f0e49c6225ee51fef7fedbdbc7fcb"
}