{
  "_format": "hh3-artifact-1",
  "contractName": "PayWithPayID",
  "sourceName": "contracts/PayWithPayID.sol",
  "abi": [
    {
      "inputs": [
        {
          "internalType": "address",
          "name": "verifier_",
          "type": "address"
        }
      ],
      "stateMutability": "nonpayable",
      "type": "constructor"
    },
    {
      "inputs": [
        {
          "components": [
            {
              "internalType": "bytes32",
              "name": "version",
              "type": "bytes32"
            },
            {
              "internalType": "bytes32",
              "name": "payId",
              "type": "bytes32"
            },
            {
              "internalType": "address",
              "name": "payer",
              "type": "address"
            },
            {
              "internalType": "address",
              "name": "receiver",
              "type": "address"
            },
            {
              "internalType": "address",
              "name": "asset",
              "type": "address"
            },
            {
              "internalType": "uint256",
              "name": "amount",
              "type": "uint256"
            },
            {
              "internalType": "bytes32",
              "name": "contextHash",
              "type": "bytes32"
            },
            {
              "internalType": "bytes32",
              "name": "ruleSetHash",
              "type": "bytes32"
            },
            {
              "internalType": "uint64",
              "name": "issuedAt",
              "type": "uint64"
            },
            {
              "internalType": "uint64",
              "name": "expiresAt",
              "type": "uint64"
            },
            {
              "internalType": "bytes32",
              "name": "nonce",
              "type": "bytes32"
            }
          ],
          "internalType": "struct PayIDVerifier.Decision",
          "name": "d",
          "type": "tuple"
        },
        {
          "internalType": "bytes",
          "name": "sig",
          "type": "bytes"
        }
      ],
      "name": "payERC20",
      "outputs": [],
      "stateMutability": "nonpayable",
      "type": "function"
    },
    {
      "inputs": [
        {
          "components": [
            {
              "internalType": "bytes32",
              "name": "version",
              "type": "bytes32"
            },
            {
              "internalType": "bytes32",
              "name": "payId",
              "type": "bytes32"
            },
            {
              "internalType": "address",
              "name": "payer",
              "type": "address"
            },
            {
              "internalType": "address",
              "name": "receiver",
              "type": "address"
            },
            {
              "internalType": "address",
              "name": "asset",
              "type": "address"
            },
            {
              "internalType": "uint256",
              "name": "amount",
              "type": "uint256"
            },
            {
              "internalType": "bytes32",
              "name": "contextHash",
              "type": "bytes32"
            },
            {
              "internalType": "bytes32",
              "name": "ruleSetHash",
              "type": "bytes32"
            },
            {
              "internalType": "uint64",
              "name": "issuedAt",
              "type": "uint64"
            },
            {
              "internalType": "uint64",
              "name": "expiresAt",
              "type": "uint64"
            },
            {
              "internalType": "bytes32",
              "name": "nonce",
              "type": "bytes32"
            }
          ],
          "internalType": "struct PayIDVerifier.Decision",
          "name": "d",
          "type": "tuple"
        },
        {
          "internalType": "bytes",
          "name": "sig",
          "type": "bytes"
        }
      ],
      "name": "payETH",
      "outputs": [],
      "stateMutability": "payable",
      "type": "function"
    },
    {
      "inputs": [],
      "name": "verifier",
      "outputs": [
        {
          "internalType": "contract PayIDVerifier",
          "name": "",
          "type": "address"
        }
      ],
      "stateMutability": "view",
      "type": "function"
    }
  ],
  "bytecode": "0x60a0604052348015600e575f5ffd5b506040516106b53803806106b5833981016040819052602b91603b565b6001600160a01b03166080526066565b5f60208284031215604a575f5ffd5b81516001600160a01b0381168114605f575f5ffd5b9392505050565b60805161062b61008a5f395f8181605d0152818160d1015261023b015261062b5ff3fe608060405260043610610033575f3560e01c80631565cf68146100375780632b7ac3f31461004c5780637faac6341461009b575b5f5ffd5b61004a6100453660046103f3565b6100ba565b005b348015610057575f5ffd5b5061007f7f000000000000000000000000000000000000000000000000000000000000000081565b6040516001600160a01b03909116815260200160405180910390f35b3480156100a6575f5ffd5b5061004a6100b53660046103f3565b610224565b60405163569fdf3760e01b81526001600160a01b037f0000000000000000000000000000000000000000000000000000000000000000169063569fdf379061010a908690869086906004016104d5565b5f6040518083038186803b158015610120575f5ffd5b505afa158015610132573d5f5f3e3d5ffd5b505f925061014991505060a08501608086016105b6565b6001600160a01b0316146101945760405162461bcd60e51b815260206004820152600d60248201526c082a6a68aa8be9c9ea8be8aa89609b1b60448201526064015b60405180910390fd5b8260a0013534146101d95760405162461bcd60e51b815260206004820152600f60248201526e0829a9eaa9ca8be9a92a69a82a8869608b1b604482015260640161018b565b6101e960808401606085016105b6565b6001600160a01b03166108fc3490811502906040515f60405180830381858888f1935050505015801561021e573d5f5f3e3d5ffd5b50505050565b60405163569fdf3760e01b81526001600160a01b037f0000000000000000000000000000000000000000000000000000000000000000169063569fdf3790610274908690869086906004016104d5565b5f6040518083038186803b15801561028a575f5ffd5b505afa15801561029c573d5f5f3e3d5ffd5b505f92506102b391505060a08501608086016105b6565b6001600160a01b0316036102fb5760405162461bcd60e51b815260206004820152600f60248201526e041535345545f4e4f545f455243323608c1b604482015260640161018b565b5f61030c60a08501608086016105b6565b6001600160a01b03166323b872dd61032a60608701604088016105b6565b61033a60808801606089016105b6565b6040516001600160e01b031960e085901b1681526001600160a01b0392831660048201529116602482015260a087013560448201526064016020604051808303815f875af115801561038e573d5f5f3e3d5ffd5b505050506040513d601f19601f820116820180604052508101906103b291906105d6565b90508061021e5760405162461bcd60e51b815260206004820152600f60248201526e1514905394d1915497d19052531151608a1b604482015260640161018b565b5f5f5f838503610180811215610407575f5ffd5b610160811215610415575f5ffd5b5083925061016084013567ffffffffffffffff811115610433575f5ffd5b8401601f81018613610443575f5ffd5b803567ffffffffffffffff811115610459575f5ffd5b86602082840101111561046a575f5ffd5b939660209190910195509293505050565b80356001600160a01b0381168114610491575f5ffd5b919050565b803567ffffffffffffffff81168114610491575f5ffd5b81835281816020850137505f828201602090810191909152601f909101601f19169091010190565b83358152602080850135908201525f6104f06040860161047b565b6001600160a01b0316604083015261050a6060860161047b565b6001600160a01b031660608301526105246080860161047b565b6001600160a01b0316608083015260a0858101359083015260c0808601359083015260e0808601359083015261055d6101008601610496565b67ffffffffffffffff1661010083015261057a6101208601610496565b67ffffffffffffffff16610120830152610140858101359083015261018061016083018190526105ad90830184866104ad565b95945050505050565b5f602082840312156105c6575f5ffd5b6105cf8261047b565b9392505050565b5f602082840312156105e6575f5ffd5b815180151581146105cf575f5ffdfea26469706673582212205e52f3b87a64f4f9b834369d20e085b88474828fd80940d5be845cff0b2e365364736f6c634300081c0033",
  "linkReferences": {},
  "deployedLinkReferences": {},
  "immutableReferences": {
    "6262": [
      {
        "length": 32,
        "start": 93
      },
      {
        "length": 32,
        "start": 209
      },
      {
        "length": 32,
        "start": 571
      }
    ]
  },
  "inputSourceName": "project/contracts/PayWithPayID.sol",
  "buildInfoId": "solc-0_8_28-79d044e764de671cd351efb36d892711e93323d9"
}