{
  "_format": "hh3-artifact-1",
  "contractName": "PayWithPayID",
  "sourceName": "contracts/PayWithPayID.sol",
  "abi": [
    {
      "inputs": [],
      "stateMutability": "nonpayable",
      "type": "constructor"
    },
    {
      "inputs": [],
      "name": "AlreadyInitialized",
      "type": "error"
    },
    {
      "inputs": [],
      "name": "NotInitialized",
      "type": "error"
    },
    {
      "inputs": [],
      "name": "ZeroAddress",
      "type": "error"
    },
    {
      "anonymous": false,
      "inputs": [
        {
          "indexed": true,
          "internalType": "address",
          "name": "verifier",
          "type": "address"
        },
        {
          "indexed": true,
          "internalType": "address",
          "name": "attestationVerifier",
          "type": "address"
        }
      ],
      "name": "Initialized",
      "type": "event"
    },
    {
      "anonymous": false,
      "inputs": [
        {
          "indexed": true,
          "internalType": "address",
          "name": "payer",
          "type": "address"
        },
        {
          "indexed": true,
          "internalType": "address",
          "name": "receiver",
          "type": "address"
        },
        {
          "indexed": true,
          "internalType": "address",
          "name": "asset",
          "type": "address"
        },
        {
          "indexed": false,
          "internalType": "uint256",
          "name": "amount",
          "type": "uint256"
        },
        {
          "indexed": false,
          "internalType": "bytes32",
          "name": "payId",
          "type": "bytes32"
        },
        {
          "indexed": false,
          "internalType": "bytes32",
          "name": "nonce",
          "type": "bytes32"
        }
      ],
      "name": "PaymentERC20",
      "type": "event"
    },
    {
      "anonymous": false,
      "inputs": [
        {
          "indexed": true,
          "internalType": "address",
          "name": "payer",
          "type": "address"
        },
        {
          "indexed": true,
          "internalType": "address",
          "name": "receiver",
          "type": "address"
        },
        {
          "indexed": false,
          "internalType": "uint256",
          "name": "amount",
          "type": "uint256"
        },
        {
          "indexed": false,
          "internalType": "bytes32",
          "name": "payId",
          "type": "bytes32"
        },
        {
          "indexed": false,
          "internalType": "bytes32",
          "name": "nonce",
          "type": "bytes32"
        }
      ],
      "name": "PaymentETH",
      "type": "event"
    },
    {
      "inputs": [],
      "name": "attestationVerifier",
      "outputs": [
        {
          "internalType": "contract AttestationVerifier",
          "name": "",
          "type": "address"
        }
      ],
      "stateMutability": "view",
      "type": "function"
    },
    {
      "inputs": [
        {
          "internalType": "address",
          "name": "verifier_",
          "type": "address"
        },
        {
          "internalType": "address",
          "name": "attestationVerifier_",
          "type": "address"
        }
      ],
      "name": "initialize",
      "outputs": [],
      "stateMutability": "nonpayable",
      "type": "function"
    },
    {
      "inputs": [],
      "name": "isInitialized",
      "outputs": [
        {
          "internalType": "bool",
          "name": "",
          "type": "bool"
        }
      ],
      "stateMutability": "view",
      "type": "function"
    },
    {
      "inputs": [
        {
          "components": [
            {
              "internalType": "bytes32",
              "name": "version",
              "type": "bytes32"
            },
            {
              "internalType": "bytes32",
              "name": "payId",
              "type": "bytes32"
            },
            {
              "internalType": "address",
              "name": "payer",
              "type": "address"
            },
            {
              "internalType": "address",
              "name": "receiver",
              "type": "address"
            },
            {
              "internalType": "address",
              "name": "asset",
              "type": "address"
            },
            {
              "internalType": "uint256",
              "name": "amount",
              "type": "uint256"
            },
            {
              "internalType": "bytes32",
              "name": "contextHash",
              "type": "bytes32"
            },
            {
              "internalType": "bytes32",
              "name": "ruleSetHash",
              "type": "bytes32"
            },
            {
              "internalType": "address",
              "name": "ruleAuthority",
              "type": "address"
            },
            {
              "internalType": "uint64",
              "name": "issuedAt",
              "type": "uint64"
            },
            {
              "internalType": "uint64",
              "name": "expiresAt",
              "type": "uint64"
            },
            {
              "internalType": "bytes32",
              "name": "nonce",
              "type": "bytes32"
            },
            {
              "internalType": "bool",
              "name": "requiresAttestation",
              "type": "bool"
            },
            {
              "internalType": "bytes32",
              "name": "attestationUIDsHash",
              "type": "bytes32"
            }
          ],
          "internalType": "struct PayIDVerifier.Decision",
          "name": "d",
          "type": "tuple"
        },
        {
          "internalType": "bytes",
          "name": "sig",
          "type": "bytes"
        },
        {
          "internalType": "bytes32[]",
          "name": "attestationUIDs",
          "type": "bytes32[]"
        }
      ],
      "name": "payERC20",
      "outputs": [],
      "stateMutability": "nonpayable",
      "type": "function"
    },
    {
      "inputs": [
        {
          "components": [
            {
              "internalType": "bytes32",
              "name": "version",
              "type": "bytes32"
            },
            {
              "internalType": "bytes32",
              "name": "payId",
              "type": "bytes32"
            },
            {
              "internalType": "address",
              "name": "payer",
              "type": "address"
            },
            {
              "internalType": "address",
              "name": "receiver",
              "type": "address"
            },
            {
              "internalType": "address",
              "name": "asset",
              "type": "address"
            },
            {
              "internalType": "uint256",
              "name": "amount",
              "type": "uint256"
            },
            {
              "internalType": "bytes32",
              "name": "contextHash",
              "type": "bytes32"
            },
            {
              "internalType": "bytes32",
              "name": "ruleSetHash",
              "type": "bytes32"
            },
            {
              "internalType": "address",
              "name": "ruleAuthority",
              "type": "address"
            },
            {
              "internalType": "uint64",
              "name": "issuedAt",
              "type": "uint64"
            },
            {
              "internalType": "uint64",
              "name": "expiresAt",
              "type": "uint64"
            },
            {
              "internalType": "bytes32",
              "name": "nonce",
              "type": "bytes32"
            },
            {
              "internalType": "bool",
              "name": "requiresAttestation",
              "type": "bool"
            },
            {
              "internalType": "bytes32",
              "name": "attestationUIDsHash",
              "type": "bytes32"
            }
          ],
          "internalType": "struct PayIDVerifier.Decision",
          "name": "d",
          "type": "tuple"
        },
        {
          "internalType": "bytes",
          "name": "sig",
          "type": "bytes"
        },
        {
          "internalType": "bytes32[]",
          "name": "attestationUIDs",
          "type": "bytes32[]"
        }
      ],
      "name": "payETH",
      "outputs": [],
      "stateMutability": "payable",
      "type": "function"
    },
    {
      "inputs": [],
      "name": "verifier",
      "outputs": [
        {
          "internalType": "contract PayIDVerifier",
          "name": "",
          "type": "address"
        }
      ],
      "stateMutability": "view",
      "type": "function"
    }
  ],
  "bytecode": "0x6080604052348015600e575f5ffd5b50610d338061001c5f395ff3fe608060405260043610610054575f3560e01c80632b7ac3f314610058578063392e53cd14610093578063485cc955146100bc57806358348cf1146100dd5780638f8c2f95146100f0578063b4b3c5a01461010f575b5f5ffd5b348015610063575f5ffd5b505f54610076906001600160a01b031681565b6040516001600160a01b0390911681526020015b60405180910390f35b34801561009e575f5ffd5b50600154600160a01b900460ff16604051901515815260200161008a565b3480156100c7575f5ffd5b506100db6100d6366004610987565b61012e565b005b6100db6100eb366004610a00565b61020f565b3480156100fb575f5ffd5b506100db61010a366004610a00565b6105ab565b34801561011a575f5ffd5b50600154610076906001600160a01b031681565b600154600160a01b900460ff16156101585760405162dc149f60e41b815260040160405180910390fd5b6001600160a01b03821661017f5760405163d92e233d60e01b815260040160405180910390fd5b6001600160a01b0381166101a65760405163d92e233d60e01b815260040160405180910390fd5b600180545f80546001600160a01b038087166001600160a01b03199092168217835585166001600160a81b03199093168317600160a01b179093556040519192917f3cd5ec01b1ae7cfec6ca1863e2cd6aa25d6d1702825803ff2b7cc95010fffdc29190a35050565b600154600160a01b900460ff16610239576040516321c4e35760e21b815260040160405180910390fd5b5f61024a60a0870160808801610aba565b6001600160a01b0316146102955760405162461bcd60e51b815260206004820152600d60248201526c082a6a68aa8be9c9ea8be8aa89609b1b60448201526064015b60405180910390fd5b8460a0013534146102da5760405162461bcd60e51b815260206004820152600f60248201526e0829a9eaa9ca8be9a92a69a82a8869608b1b604482015260640161028c565b6102ec6101a086016101808701610af5565b1561041257806103355760405162461bcd60e51b81526020600482015260146024820152731055151154d510551253d397d49154555254915160621b604482015260640161028c565b846101a00135828260405160200161034e929190610b40565b60405160208183030381529060405280519060200120146103a45760405162461bcd60e51b815260206004820152601060248201526f0929cac82989288beaa9288be9082a6960831b604482015260640161028c565b6001546001600160a01b031663cc600a9a83836103c760608a0160408b01610aba565b6040518463ffffffff1660e01b81526004016103e593929190610b5b565b5f6040518083038186803b1580156103fb575f5ffd5b505afa15801561040d573d5f5f3e3d5ffd5b505050505b5f5460405163343e74a760e01b81526001600160a01b039091169063343e74a79061044590889088908890600401610bc5565b5f604051808303815f87803b15801561045c575f5ffd5b505af115801561046e573d5f5f3e3d5ffd5b505f92506104859150506080870160608801610aba565b6001600160a01b0316346040515f6040518083038185875af1925050503d805f81146104cc576040519150601f19603f3d011682016040523d82523d5f602084013e6104d1565b606091505b50509050806105185760405162461bcd60e51b815260206004820152601360248201527211551217d514905394d1915497d19052531151606a1b604482015260640161028c565b6105286080870160608801610aba565b6001600160a01b03166105416060880160408901610aba565b6001600160a01b03167f024c9755552d5294bffc9fdfb51320404678375c011c29e4195dd33bd8de90718860a0013589602001358a610160013560405161059b939291909283526020830191909152604082015260600190565b60405180910390a3505050505050565b600154600160a01b900460ff166105d5576040516321c4e35760e21b815260040160405180910390fd5b5f6105e660a0870160808801610aba565b6001600160a01b03160361062e5760405162461bcd60e51b815260206004820152600f60248201526e041535345545f4e4f545f455243323608c1b604482015260640161028c565b6106406101a086016101808701610af5565b1561076657806106895760405162461bcd60e51b81526020600482015260146024820152731055151154d510551253d397d49154555254915160621b604482015260640161028c565b846101a0013582826040516020016106a2929190610b40565b60405160208183030381529060405280519060200120146106f85760405162461bcd60e51b815260206004820152601060248201526f0929cac82989288beaa9288be9082a6960831b604482015260640161028c565b6001546001600160a01b031663cc600a9a838361071b60608a0160408b01610aba565b6040518463ffffffff1660e01b815260040161073993929190610b5b565b5f6040518083038186803b15801561074f575f5ffd5b505afa158015610761573d5f5f3e3d5ffd5b505050505b5f5460405163343e74a760e01b81526001600160a01b039091169063343e74a79061079990889088908890600401610bc5565b5f604051808303815f87803b1580156107b0575f5ffd5b505af11580156107c2573d5f5f3e3d5ffd5b505f92506107d991505060a0870160808801610aba565b6001600160a01b03166323b872dd6107f76060890160408a01610aba565b61080760808a0160608b01610aba565b6040516001600160e01b031960e085901b1681526001600160a01b0392831660048201529116602482015260a089013560448201526064016020604051808303815f875af115801561085b573d5f5f3e3d5ffd5b505050506040513d601f19601f8201168201806040525081019061087f9190610ce2565b9050806108c05760405162461bcd60e51b815260206004820152600f60248201526e1514905394d1915497d19052531151608a1b604482015260640161028c565b6108d060a0870160808801610aba565b6001600160a01b03166108e96080880160608901610aba565b6001600160a01b03166109026060890160408a01610aba565b6001600160a01b03167f0fffc78c87834dc5e7ba16e472767d7cde8dc6fd91db1cf448a929627dbe26388960a001358a602001358b610160013560405161095c939291909283526020830191909152604082015260600190565b60405180910390a4505050505050565b80356001600160a01b0381168114610982575f5ffd5b919050565b5f5f60408385031215610998575f5ffd5b6109a18361096c565b91506109af6020840161096c565b90509250929050565b5f5f83601f8401126109c8575f5ffd5b50813567ffffffffffffffff8111156109df575f5ffd5b6020830191508360208260051b85010111156109f9575f5ffd5b9250929050565b5f5f5f5f5f858703610200811215610a16575f5ffd5b6101c0811215610a24575f5ffd5b508594506101c086013567ffffffffffffffff811115610a42575f5ffd5b8601601f81018813610a52575f5ffd5b803567ffffffffffffffff811115610a68575f5ffd5b886020828401011115610a79575f5ffd5b602091909101945092506101e086013567ffffffffffffffff811115610a9d575f5ffd5b610aa9888289016109b8565b969995985093965092949392505050565b5f60208284031215610aca575f5ffd5b610ad38261096c565b9392505050565b8015158114610ae7575f5ffd5b50565b803561098281610ada565b5f60208284031215610b05575f5ffd5b8135610ad381610ada565b8183525f6001600160fb1b03831115610b27575f5ffd5b8260051b80836020870137939093016020019392505050565b602081525f610b53602083018486610b10565b949350505050565b604081525f610b6e604083018587610b10565b905060018060a01b0383166020830152949350505050565b803567ffffffffffffffff81168114610982575f5ffd5b81835281816020850137505f828201602090810191909152601f909101601f19169091010190565b83358152602080850135908201525f610be06040860161096c565b6001600160a01b03166040830152610bfa6060860161096c565b6001600160a01b03166060830152610c146080860161096c565b6001600160a01b0316608083015260a0858101359083015260c0808601359083015260e08086013590830152610c4d610100860161096c565b6001600160a01b0316610100830152610c696101208601610b86565b67ffffffffffffffff16610120830152610c866101408601610b86565b67ffffffffffffffff166101408301526101608581013590830152610cae6101808601610aea565b15156101808301526101a085810135908301526101e06101c08301819052610cd99083018486610b9d565b95945050505050565b5f60208284031215610cf2575f5ffd5b8151610ad381610ada56fea2646970667358221220a6e980548eea6999e895e6f44e3c467bf35fbd530aad3e46d61e010cb999c4f864736f6c634300081c0033",
  "linkReferences": {},
  "deployedLinkReferences": {},
  "immutableReferences": {},
  "inputSourceName": "project/contracts/PayWithPayID.sol",
  "buildInfoId": "solc-0_8_28-82c78353454369217b59157f382f4532a8d63d39"
}