{
  "_format": "hh3-artifact-1",
  "contractName": "AttestationVerifier",
  "sourceName": "contracts/AttestationVerifier.sol",
  "abi": [
    {
      "inputs": [],
      "name": "AlreadyInitialized",
      "type": "error"
    },
    {
      "inputs": [],
      "name": "AttestationExpired",
      "type": "error"
    },
    {
      "inputs": [],
      "name": "AttestationNotForPayer",
      "type": "error"
    },
    {
      "inputs": [],
      "name": "AttestationNotFound",
      "type": "error"
    },
    {
      "inputs": [],
      "name": "AttestationRevoked",
      "type": "error"
    },
    {
      "inputs": [],
      "name": "LengthMismatch",
      "type": "error"
    },
    {
      "inputs": [],
      "name": "NotInitialized",
      "type": "error"
    },
    {
      "inputs": [],
      "name": "NotOwner",
      "type": "error"
    },
    {
      "inputs": [],
      "name": "ReplayAttestation",
      "type": "error"
    },
    {
      "inputs": [],
      "name": "UntrustedAttester",
      "type": "error"
    },
    {
      "inputs": [],
      "name": "WrongSchema",
      "type": "error"
    },
    {
      "inputs": [],
      "name": "ZeroAddress",
      "type": "error"
    },
    {
      "anonymous": false,
      "inputs": [
        {
          "indexed": true,
          "internalType": "address",
          "name": "attester",
          "type": "address"
        },
        {
          "indexed": false,
          "internalType": "bool",
          "name": "trusted",
          "type": "bool"
        }
      ],
      "name": "AttesterUpdated",
      "type": "event"
    },
    {
      "anonymous": false,
      "inputs": [
        {
          "indexed": true,
          "internalType": "address",
          "name": "easAddress",
          "type": "address"
        }
      ],
      "name": "Initialized",
      "type": "event"
    },
    {
      "anonymous": false,
      "inputs": [
        {
          "indexed": true,
          "internalType": "address",
          "name": "prev",
          "type": "address"
        },
        {
          "indexed": true,
          "internalType": "address",
          "name": "next",
          "type": "address"
        }
      ],
      "name": "OwnershipTransferred",
      "type": "event"
    },
    {
      "anonymous": false,
      "inputs": [
        {
          "indexed": true,
          "internalType": "bytes32",
          "name": "schemaUID",
          "type": "bytes32"
        },
        {
          "indexed": false,
          "internalType": "bool",
          "name": "trusted",
          "type": "bool"
        }
      ],
      "name": "SchemaUpdated",
      "type": "event"
    },
    {
      "inputs": [],
      "name": "eas",
      "outputs": [
        {
          "internalType": "contract IEAS",
          "name": "",
          "type": "address"
        }
      ],
      "stateMutability": "view",
      "type": "function"
    },
    {
      "inputs": [
        {
          "internalType": "bytes32",
          "name": "attestationUID",
          "type": "bytes32"
        },
        {
          "internalType": "address",
          "name": "payer",
          "type": "address"
        }
      ],
      "name": "hasValidAttestation",
      "outputs": [
        {
          "internalType": "bool",
          "name": "",
          "type": "bool"
        }
      ],
      "stateMutability": "view",
      "type": "function"
    },
    {
      "inputs": [
        {
          "internalType": "address",
          "name": "easAddress",
          "type": "address"
        },
        {
          "internalType": "bytes32[]",
          "name": "initialSchemas",
          "type": "bytes32[]"
        },
        {
          "internalType": "address[]",
          "name": "initialAttesters",
          "type": "address[]"
        }
      ],
      "name": "initialize",
      "outputs": [],
      "stateMutability": "nonpayable",
      "type": "function"
    },
    {
      "inputs": [],
      "name": "isInitialized",
      "outputs": [
        {
          "internalType": "bool",
          "name": "",
          "type": "bool"
        }
      ],
      "stateMutability": "view",
      "type": "function"
    },
    {
      "inputs": [],
      "name": "owner",
      "outputs": [
        {
          "internalType": "address",
          "name": "",
          "type": "address"
        }
      ],
      "stateMutability": "view",
      "type": "function"
    },
    {
      "inputs": [
        {
          "internalType": "address",
          "name": "attester",
          "type": "address"
        },
        {
          "internalType": "bool",
          "name": "trusted",
          "type": "bool"
        }
      ],
      "name": "setTrustedAttester",
      "outputs": [],
      "stateMutability": "nonpayable",
      "type": "function"
    },
    {
      "inputs": [
        {
          "internalType": "bytes32",
          "name": "schemaUID",
          "type": "bytes32"
        },
        {
          "internalType": "bool",
          "name": "trusted",
          "type": "bool"
        }
      ],
      "name": "setTrustedSchema",
      "outputs": [],
      "stateMutability": "nonpayable",
      "type": "function"
    },
    {
      "inputs": [
        {
          "internalType": "address",
          "name": "newOwner",
          "type": "address"
        }
      ],
      "name": "transferOwnership",
      "outputs": [],
      "stateMutability": "nonpayable",
      "type": "function"
    },
    {
      "inputs": [
        {
          "internalType": "address",
          "name": "",
          "type": "address"
        }
      ],
      "name": "trustedAttesters",
      "outputs": [
        {
          "internalType": "bool",
          "name": "",
          "type": "bool"
        }
      ],
      "stateMutability": "view",
      "type": "function"
    },
    {
      "inputs": [
        {
          "internalType": "bytes32",
          "name": "",
          "type": "bytes32"
        }
      ],
      "name": "trustedSchemas",
      "outputs": [
        {
          "internalType": "bool",
          "name": "",
          "type": "bool"
        }
      ],
      "stateMutability": "view",
      "type": "function"
    },
    {
      "inputs": [
        {
          "internalType": "bytes32",
          "name": "",
          "type": "bytes32"
        }
      ],
      "name": "usedAttestations",
      "outputs": [
        {
          "internalType": "bool",
          "name": "",
          "type": "bool"
        }
      ],
      "stateMutability": "view",
      "type": "function"
    },
    {
      "inputs": [
        {
          "internalType": "bytes32",
          "name": "attestationUID",
          "type": "bytes32"
        },
        {
          "internalType": "address",
          "name": "payer",
          "type": "address"
        }
      ],
      "name": "verifyAttestation",
      "outputs": [],
      "stateMutability": "view",
      "type": "function"
    },
    {
      "inputs": [
        {
          "internalType": "bytes32[]",
          "name": "attestationUIDs",
          "type": "bytes32[]"
        },
        {
          "internalType": "address",
          "name": "payer",
          "type": "address"
        }
      ],
      "name": "verifyAttestationBatch",
      "outputs": [],
      "stateMutability": "view",
      "type": "function"
    },
    {
      "inputs": [
        {
          "internalType": "bytes32[]",
          "name": "attestationUIDs",
          "type": "bytes32[]"
        },
        {
          "internalType": "address",
          "name": "payer",
          "type": "address"
        }
      ],
      "name": "verifyAttestationBatchOnce",
      "outputs": [],
      "stateMutability": "nonpayable",
      "type": "function"
    },
    {
      "inputs": [
        {
          "internalType": "bytes32",
          "name": "attestationUID",
          "type": "bytes32"
        },
        {
          "internalType": "address",
          "name": "payer",
          "type": "address"
        }
      ],
      "name": "verifyAttestationOnce",
      "outputs": [],
      "stateMutability": "nonpayable",
      "type": "function"
    }
  ],
  "bytecode": "0x6080604052348015600e575f5ffd5b506110138061001c5f395ff3fe608060405234801561000f575f5ffd5b50600436106100f0575f3560e01c8063c6e2624511610093578063e36546fa11610063578063e36546fa14610210578063e4d01a4e14610223578063f2fde38b14610245578063ff93a79514610258575f5ffd5b8063c6e26245146101c4578063cc600a9a146101d7578063d41b4e72146101ea578063e33d5c37146101fd575f5ffd5b8063392e53cd116100ce578063392e53cd146101535780635a553572146101655780638150864d146101875780638da5cb5b146101b1575f5ffd5b80630ae7243a146100f45780631b16c61f1461012b57806337fb91ad14610140575b5f5ffd5b610116610102366004610af8565b60016020525f908152604090205460ff1681565b60405190151581526020015b60405180910390f35b61013e610139366004610b26565b61026b565b005b61013e61014e366004610b61565b610279565b600454600160a01b900460ff16610116565b610116610173366004610af8565b60036020525f908152604090205460ff1681565b5f54610199906001600160a01b031681565b6040516001600160a01b039091168152602001610122565b600454610199906001600160a01b031681565b61013e6101d2366004610b26565b610325565b61013e6101e5366004610b84565b610379565b61013e6101f8366004610d06565b6103b5565b61011661020b366004610b26565b6105e6565b61013e61021e366004610dd1565b610652565b610116610231366004610dfd565b60026020525f908152604090205460ff1681565b61013e610253366004610dfd565b610725565b61013e610266366004610b84565b6107d2565b610275828261089a565b5050565b6004546001600160a01b031633146102a4576040516330cd747160e01b815260040160405180910390fd5b600454600160a01b900460ff166102ce576040516321c4e35760e21b815260040160405180910390fd5b5f82815260016020908152604091829020805460ff1916841515908117909155915191825283917fbfe5a0ed847b5eac7ee1669313cce6cb83fcd715ae8b20f8ea6aff0686a0e3a691015b60405180910390a25050565b5f8281526003602052604090205460ff1615610354576040516304b070f360e51b815260040160405180910390fd5b61035e828261089a565b505f908152600360205260409020805460ff19166001179055565b815f5b818110156103ae576103a685858381811061039957610399610e1f565b905060200201358461089a565b60010161037c565b5050505050565b600454600160a01b900460ff16156103df5760405162dc149f60e41b815260040160405180910390fd5b6001600160a01b0383166104065760405163d92e233d60e01b815260040160405180910390fd5b600480545f80546001600160a01b0387166001600160a01b03199091161781556001600160a81b03199091163317600160a01b179091555b82518110156104e6576001805f85848151811061045d5761045d610e1f565b602002602001015181526020019081526020015f205f6101000a81548160ff02191690831515021790555082818151811061049a5761049a610e1f565b60200260200101517fbfe5a0ed847b5eac7ee1669313cce6cb83fcd715ae8b20f8ea6aff0686a0e3a660016040516104d6911515815260200190565b60405180910390a260010161043e565b505f5b81518110156105ad57600160025f84848151811061050957610509610e1f565b60200260200101516001600160a01b03166001600160a01b031681526020019081526020015f205f6101000a81548160ff02191690831515021790555081818151811061055857610558610e1f565b60200260200101516001600160a01b03167f2f6baedf5d85c15bc97b3e106fb2c744a011c1a294456f6369281584f778fb00600160405161059d911515815260200190565b60405180910390a26001016104e9565b506040516001600160a01b038416907f908408e307fc569b417f6cbec5d5a06f44a0a505ac0479b47d421a4b2fd6a1e6905f90a2505050565b604051631b16c61f60e01b8152600481018390526001600160a01b03821660248201525f903090631b16c61f906044015f6040518083038186803b15801561062c575f5ffd5b505afa92505050801561063d575060015b61064857505f61064c565b5060015b92915050565b6004546001600160a01b0316331461067d576040516330cd747160e01b815260040160405180910390fd5b600454600160a01b900460ff166106a7576040516321c4e35760e21b815260040160405180910390fd5b6001600160a01b0382166106ce5760405163d92e233d60e01b815260040160405180910390fd5b6001600160a01b0382165f81815260026020908152604091829020805460ff191685151590811790915591519182527f2f6baedf5d85c15bc97b3e106fb2c744a011c1a294456f6369281584f778fb009101610319565b6004546001600160a01b03163314610750576040516330cd747160e01b815260040160405180910390fd5b6001600160a01b0381166107775760405163d92e233d60e01b815260040160405180910390fd5b6004546040516001600160a01b038084169216907f8be0079c531659141344cd1fd0a4f28419497f9722a3daafe3b4186f6b6457e0905f90a3600480546001600160a01b0319166001600160a01b0392909216919091179055565b815f5b818110156108495760035f8686848181106107f2576107f2610e1f565b602090810292909201358352508101919091526040015f205460ff161561082c576040516304b070f360e51b815260040160405180910390fd5b61084185858381811061039957610399610e1f565b6001016107d5565b505f5b818110156103ae57600160035f87878581811061086b5761086b610e1f565b602090810292909201358352508101919091526040015f20805460ff191691151591909117905560010161084c565b600454600160a01b900460ff166108c4576040516321c4e35760e21b815260040160405180910390fd5b5f80546040516328c44a9960e21b8152600481018590526001600160a01b039091169063a3112a64906024015f60405180830381865afa15801561090a573d5f5f3e3d5ffd5b505050506040513d5f823e601f3d908101601f191682016040526109319190810190610ecf565b80519091506109535760405163120a2e7760e01b815260040160405180910390fd5b6020808201515f9081526001909152604090205460ff16610987576040516321b8eeb960e01b815260040160405180910390fd5b60c08101516001600160a01b03165f9081526002602052604090205460ff166109c3576040516317ada25b60e11b815260040160405180910390fd5b816001600160a01b03168160e001516001600160a01b0316146109f9576040516341e3f83160e01b815260040160405180910390fd5b60608101516001600160401b031615801590610a2257504281606001516001600160401b031611155b15610a405760405163716dcc3960e01b815260040160405180910390fd5b60808101516001600160401b031615610a6c57604051637b6227e960e11b815260040160405180910390fd5b5f5460405163e30bb56360e01b8152600481018590526001600160a01b039091169063e30bb56390602401602060405180830381865afa158015610ab2573d5f5f3e3d5ffd5b505050506040513d601f19601f82011682018060405250810190610ad69190610fc2565b610af357604051637b6227e960e11b815260040160405180910390fd5b505050565b5f60208284031215610b08575f5ffd5b5035919050565b6001600160a01b0381168114610b23575f5ffd5b50565b5f5f60408385031215610b37575f5ffd5b823591506020830135610b4981610b0f565b809150509250929050565b8015158114610b23575f5ffd5b5f5f60408385031215610b72575f5ffd5b823591506020830135610b4981610b54565b5f5f5f60408486031215610b96575f5ffd5b83356001600160401b03811115610bab575f5ffd5b8401601f81018613610bbb575f5ffd5b80356001600160401b03811115610bd0575f5ffd5b8660208260051b8401011115610be4575f5ffd5b602091820194509250840135610bf981610b0f565b809150509250925092565b634e487b7160e01b5f52604160045260245ffd5b60405161014081016001600160401b0381118282101715610c3b57610c3b610c04565b60405290565b604051601f8201601f191681016001600160401b0381118282101715610c6957610c69610c04565b604052919050565b5f6001600160401b03821115610c8957610c89610c04565b5060051b60200190565b5f82601f830112610ca2575f5ffd5b8135610cb5610cb082610c71565b610c41565b8082825260208201915060208360051b860101925085831115610cd6575f5ffd5b602085015b83811015610cfc578035610cee81610b0f565b835260209283019201610cdb565b5095945050505050565b5f5f5f60608486031215610d18575f5ffd5b8335610d2381610b0f565b925060208401356001600160401b03811115610d3d575f5ffd5b8401601f81018613610d4d575f5ffd5b8035610d5b610cb082610c71565b8082825260208201915060208360051b850101925088831115610d7c575f5ffd5b6020840193505b82841015610d9e578335825260209384019390910190610d83565b945050505060408401356001600160401b03811115610dbb575f5ffd5b610dc786828701610c93565b9150509250925092565b5f5f60408385031215610de2575f5ffd5b8235610ded81610b0f565b91506020830135610b4981610b54565b5f60208284031215610e0d575f5ffd5b8135610e1881610b0f565b9392505050565b634e487b7160e01b5f52603260045260245ffd5b80516001600160401b0381168114610e49575f5ffd5b919050565b8051610e4981610b0f565b8051610e4981610b54565b5f82601f830112610e73575f5ffd5b81516001600160401b03811115610e8c57610e8c610c04565b610e9f601f8201601f1916602001610c41565b818152846020838601011115610eb3575f5ffd5b8160208501602083015e5f918101602001919091529392505050565b5f60208284031215610edf575f5ffd5b81516001600160401b03811115610ef4575f5ffd5b82016101408185031215610f06575f5ffd5b610f0e610c18565b8151815260208083015190820152610f2860408301610e33565b6040820152610f3960608301610e33565b6060820152610f4a60808301610e33565b608082015260a08281015190820152610f6560c08301610e4e565b60c0820152610f7660e08301610e4e565b60e0820152610f886101008301610e59565b6101008201526101208201516001600160401b03811115610fa7575f5ffd5b610fb386828501610e64565b61012083015250949350505050565b5f60208284031215610fd2575f5ffd5b8151610e1881610b5456fea26469706673582212203b3ffbb68ce9a0bea6833466747b1032a4dee92f4ee5b2c1d2c98e606c7310d264736f6c634300081c0033",
  "linkReferences": {},
  "deployedLinkReferences": {},
  "immutableReferences": {},
  "inputSourceName": "project/contracts/AttestationVerifier.sol",
  "buildInfoId": "solc-0_8_28-a25196428b19017175848c56c70a57286c1fdea5"
}