{
  "_format": "hh3-artifact-1",
  "contractName": "MockEAS",
  "sourceName": "contracts/MockEAS.sol",
  "abi": [
    {
      "anonymous": false,
      "inputs": [
        {
          "indexed": true,
          "internalType": "address",
          "name": "recipient",
          "type": "address"
        },
        {
          "indexed": true,
          "internalType": "address",
          "name": "attester",
          "type": "address"
        },
        {
          "indexed": false,
          "internalType": "bytes32",
          "name": "uid",
          "type": "bytes32"
        },
        {
          "indexed": true,
          "internalType": "bytes32",
          "name": "schema",
          "type": "bytes32"
        }
      ],
      "name": "Attested",
      "type": "event"
    },
    {
      "anonymous": false,
      "inputs": [
        {
          "indexed": true,
          "internalType": "address",
          "name": "recipient",
          "type": "address"
        },
        {
          "indexed": true,
          "internalType": "address",
          "name": "attester",
          "type": "address"
        },
        {
          "indexed": false,
          "internalType": "bytes32",
          "name": "uid",
          "type": "bytes32"
        },
        {
          "indexed": true,
          "internalType": "bytes32",
          "name": "schema",
          "type": "bytes32"
        }
      ],
      "name": "Revoked",
      "type": "event"
    },
    {
      "inputs": [
        {
          "internalType": "address",
          "name": "recipient",
          "type": "address"
        },
        {
          "internalType": "bytes32",
          "name": "schema",
          "type": "bytes32"
        },
        {
          "internalType": "address",
          "name": "attester",
          "type": "address"
        },
        {
          "internalType": "uint64",
          "name": "expiry",
          "type": "uint64"
        },
        {
          "internalType": "bytes",
          "name": "data",
          "type": "bytes"
        }
      ],
      "name": "attest",
      "outputs": [
        {
          "internalType": "bytes32",
          "name": "uid",
          "type": "bytes32"
        }
      ],
      "stateMutability": "nonpayable",
      "type": "function"
    },
    {
      "inputs": [
        {
          "internalType": "bytes32",
          "name": "uid",
          "type": "bytes32"
        }
      ],
      "name": "getAttestation",
      "outputs": [
        {
          "components": [
            {
              "internalType": "bytes32",
              "name": "uid",
              "type": "bytes32"
            },
            {
              "internalType": "bytes32",
              "name": "schema",
              "type": "bytes32"
            },
            {
              "internalType": "uint64",
              "name": "time",
              "type": "uint64"
            },
            {
              "internalType": "uint64",
              "name": "expirationTime",
              "type": "uint64"
            },
            {
              "internalType": "uint64",
              "name": "revocationTime",
              "type": "uint64"
            },
            {
              "internalType": "bytes32",
              "name": "refUID",
              "type": "bytes32"
            },
            {
              "internalType": "address",
              "name": "attester",
              "type": "address"
            },
            {
              "internalType": "address",
              "name": "recipient",
              "type": "address"
            },
            {
              "internalType": "bool",
              "name": "revocable",
              "type": "bool"
            },
            {
              "internalType": "bytes",
              "name": "data",
              "type": "bytes"
            }
          ],
          "internalType": "struct MockEAS.Attestation",
          "name": "",
          "type": "tuple"
        }
      ],
      "stateMutability": "view",
      "type": "function"
    },
    {
      "inputs": [
        {
          "internalType": "bytes32",
          "name": "uid",
          "type": "bytes32"
        }
      ],
      "name": "isAttestationValid",
      "outputs": [
        {
          "internalType": "bool",
          "name": "",
          "type": "bool"
        }
      ],
      "stateMutability": "view",
      "type": "function"
    },
    {
      "inputs": [
        {
          "internalType": "bytes32",
          "name": "uid",
          "type": "bytes32"
        }
      ],
      "name": "revoke",
      "outputs": [],
      "stateMutability": "nonpayable",
      "type": "function"
    }
  ],
  "bytecode": "0x6080604052348015600e575f5ffd5b506109bd8061001c5f395ff3fe608060405234801561000f575f5ffd5b506004361061004a575f3560e01c806310bada911461004e578063a3112a6414610074578063b75c7dc614610094578063e30bb563146100a9575b5f5ffd5b61006161005c366004610622565b6100cc565b6040519081526020015b60405180910390f35b6100876100823660046106d5565b6102dc565b60405161006b919061071a565b6100a76100a23660046106d5565b610468565b005b6100bc6100b73660046106d5565b61057c565b604051901515815260200161006b565b5f8686864286866040516020016100e8969594939291906107e3565b60408051601f198184030181528282528051602091820120610140840183528084528382018a90526001600160401b0342811685850152881660608501525f6080850181905260a08501526001600160a01b03808a1660c08601528b1660e085015260016101008501528251601f870183900483028101830190935285835293506101208301919086908690819084018382808284375f92018290525093909452505083815260208181526040918290208451815590840151600182015590830151600282018054606086015160808701516001600160401b03908116600160801b0267ffffffffffffffff60801b19928216600160401b026fffffffffffffffffffffffffffffffff199094169190951617919091171691909117905560a0830151600382015560c08301516004820180546001600160a01b039283166001600160a01b031990911617905560e08401516005830180546101008701511515600160a01b026001600160a81b03199091169290931691909117919091179055610120830151909150600682019061028090826108cd565b5090505085856001600160a01b0316886001600160a01b03167f8bf46bf4cfd674fa735a3d63ec1c9ad4153f033c290341f3a588b75685141b35846040516102ca91815260200190565b60405180910390a49695505050505050565b60408051610140810182525f8082526020820181905291810182905260608082018390526080820183905260a0820183905260c0820183905260e082018390526101008201929092526101208101919091525f82815260208181526040918290208251610140810184528154815260018201549281019290925260028101546001600160401b0380821694840194909452600160401b810484166060840152600160801b90049092166080820152600382015460a082015260048201546001600160a01b0390811660c0830152600583015490811660e0830152600160a01b900460ff161515610100820152600682018054919291610120840191906103e190610849565b80601f016020809104026020016040519081016040528092919081815260200182805461040d90610849565b80156104585780601f1061042f57610100808354040283529160200191610458565b820191905f5260205f20905b81548152906001019060200180831161043b57829003601f168201915b5050505050815250509050919050565b5f81815260208190526040902080546104b45760405162461bcd60e51b81526020600482015260096024820152681393d517d193d5539160ba1b60448201526064015b60405180910390fd5b60048101546001600160a01b031633146104ff5760405162461bcd60e51b815260206004820152600c60248201526b2727aa2fa0aa2a22a9aa22a960a11b60448201526064016104ab565b60028101805467ffffffffffffffff60801b1916600160801b426001600160401b0316021790556001810154600482015460058301546040518581526001600160a01b0392831692909116907ff930a6e2523c9cc298691873087a740550b8fc85a0680830414c148ed927f6159060200160405180910390a45050565b5f818152602081905260408120805461059757505f92915050565b6002810154600160801b90046001600160401b0316156105b957505f92915050565b6002810154600160401b90046001600160401b0316158015906105f15750600281015442600160401b9091046001600160401b031611155b156105fe57505f92915050565b50600192915050565b80356001600160a01b038116811461061d575f5ffd5b919050565b5f5f5f5f5f5f60a08789031215610637575f5ffd5b61064087610607565b95506020870135945061065560408801610607565b935060608701356001600160401b0381168114610670575f5ffd5b925060808701356001600160401b0381111561068a575f5ffd5b8701601f8101891361069a575f5ffd5b80356001600160401b038111156106af575f5ffd5b8960208284010111156106c0575f5ffd5b60208201935080925050509295509295509295565b5f602082840312156106e5575f5ffd5b5035919050565b5f81518084528060208401602086015e5f602082860101526020601f19601f83011685010191505092915050565b6020815281516020820152602082015160408201525f604083015161074a60608401826001600160401b03169052565b5060608301516001600160401b03811660808401525060808301516001600160401b03811660a08401525060a083015160c083015260c083015161079960e08401826001600160a01b03169052565b5060e08301516001600160a01b0381166101008401525061010083015180151561012084015250610120830151610140808401526107db6101608401826106ec565b949350505050565b6bffffffffffffffffffffffff198760601b1681528560148201526bffffffffffffffffffffffff198560601b166034820152836048820152818360688301375f910160680190815295945050505050565b634e487b7160e01b5f52604160045260245ffd5b600181811c9082168061085d57607f821691505b60208210810361087b57634e487b7160e01b5f52602260045260245ffd5b50919050565b601f8211156108c857805f5260205f20601f840160051c810160208510156108a65750805b601f840160051c820191505b818110156108c5575f81556001016108b2565b50505b505050565b81516001600160401b038111156108e6576108e6610835565b6108fa816108f48454610849565b84610881565b6020601f82116001811461092c575f83156109155750848201515b5f19600385901b1c1916600184901b1784556108c5565b5f84815260208120601f198516915b8281101561095b578785015182556020948501946001909201910161093b565b508482101561097857868401515f19600387901b60f8161c191681555b50505050600190811b0190555056fea2646970667358221220951272a9cfd16d7345fc6f8d18f80bc94c3bca7b898718845b5d6cab8c2ad38e64736f6c634300081c0033",
  "linkReferences": {},
  "deployedLinkReferences": {},
  "immutableReferences": {},
  "inputSourceName": "project/contracts/MockEAS.sol",
  "buildInfoId": "solc-0_8_28-de594cf69637c3e20af57f4424aa0d23c669f6e5"
}