{
  "_format": "hh3-artifact-1",
  "contractName": "AttestationVerifier",
  "sourceName": "contracts/AttestationVerifier.sol",
  "abi": [
    {
      "inputs": [
        {
          "internalType": "address",
          "name": "easAddress",
          "type": "address"
        },
        {
          "internalType": "bytes32[]",
          "name": "initialSchemas",
          "type": "bytes32[]"
        },
        {
          "internalType": "address[]",
          "name": "initialAttesters",
          "type": "address[]"
        }
      ],
      "stateMutability": "nonpayable",
      "type": "constructor"
    },
    {
      "inputs": [],
      "name": "AttestationExpired",
      "type": "error"
    },
    {
      "inputs": [],
      "name": "AttestationNotForPayer",
      "type": "error"
    },
    {
      "inputs": [],
      "name": "AttestationNotFound",
      "type": "error"
    },
    {
      "inputs": [],
      "name": "AttestationRevoked",
      "type": "error"
    },
    {
      "inputs": [],
      "name": "LengthMismatch",
      "type": "error"
    },
    {
      "inputs": [],
      "name": "NotOwner",
      "type": "error"
    },
    {
      "inputs": [],
      "name": "ReplayAttestation",
      "type": "error"
    },
    {
      "inputs": [],
      "name": "UntrustedAttester",
      "type": "error"
    },
    {
      "inputs": [],
      "name": "WrongSchema",
      "type": "error"
    },
    {
      "inputs": [],
      "name": "ZeroAddress",
      "type": "error"
    },
    {
      "anonymous": false,
      "inputs": [
        {
          "indexed": true,
          "internalType": "address",
          "name": "attester",
          "type": "address"
        },
        {
          "indexed": false,
          "internalType": "bool",
          "name": "trusted",
          "type": "bool"
        }
      ],
      "name": "AttesterUpdated",
      "type": "event"
    },
    {
      "anonymous": false,
      "inputs": [
        {
          "indexed": true,
          "internalType": "address",
          "name": "prev",
          "type": "address"
        },
        {
          "indexed": true,
          "internalType": "address",
          "name": "next",
          "type": "address"
        }
      ],
      "name": "OwnershipTransferred",
      "type": "event"
    },
    {
      "anonymous": false,
      "inputs": [
        {
          "indexed": true,
          "internalType": "bytes32",
          "name": "schemaUID",
          "type": "bytes32"
        },
        {
          "indexed": false,
          "internalType": "bool",
          "name": "trusted",
          "type": "bool"
        }
      ],
      "name": "SchemaUpdated",
      "type": "event"
    },
    {
      "inputs": [],
      "name": "eas",
      "outputs": [
        {
          "internalType": "contract IEAS",
          "name": "",
          "type": "address"
        }
      ],
      "stateMutability": "view",
      "type": "function"
    },
    {
      "inputs": [
        {
          "internalType": "bytes32",
          "name": "attestationUID",
          "type": "bytes32"
        },
        {
          "internalType": "address",
          "name": "payer",
          "type": "address"
        }
      ],
      "name": "hasValidAttestation",
      "outputs": [
        {
          "internalType": "bool",
          "name": "",
          "type": "bool"
        }
      ],
      "stateMutability": "view",
      "type": "function"
    },
    {
      "inputs": [],
      "name": "owner",
      "outputs": [
        {
          "internalType": "address",
          "name": "",
          "type": "address"
        }
      ],
      "stateMutability": "view",
      "type": "function"
    },
    {
      "inputs": [
        {
          "internalType": "address",
          "name": "attester",
          "type": "address"
        },
        {
          "internalType": "bool",
          "name": "trusted",
          "type": "bool"
        }
      ],
      "name": "setTrustedAttester",
      "outputs": [],
      "stateMutability": "nonpayable",
      "type": "function"
    },
    {
      "inputs": [
        {
          "internalType": "bytes32",
          "name": "schemaUID",
          "type": "bytes32"
        },
        {
          "internalType": "bool",
          "name": "trusted",
          "type": "bool"
        }
      ],
      "name": "setTrustedSchema",
      "outputs": [],
      "stateMutability": "nonpayable",
      "type": "function"
    },
    {
      "inputs": [
        {
          "internalType": "address",
          "name": "newOwner",
          "type": "address"
        }
      ],
      "name": "transferOwnership",
      "outputs": [],
      "stateMutability": "nonpayable",
      "type": "function"
    },
    {
      "inputs": [
        {
          "internalType": "address",
          "name": "",
          "type": "address"
        }
      ],
      "name": "trustedAttesters",
      "outputs": [
        {
          "internalType": "bool",
          "name": "",
          "type": "bool"
        }
      ],
      "stateMutability": "view",
      "type": "function"
    },
    {
      "inputs": [
        {
          "internalType": "bytes32",
          "name": "",
          "type": "bytes32"
        }
      ],
      "name": "trustedSchemas",
      "outputs": [
        {
          "internalType": "bool",
          "name": "",
          "type": "bool"
        }
      ],
      "stateMutability": "view",
      "type": "function"
    },
    {
      "inputs": [
        {
          "internalType": "bytes32",
          "name": "",
          "type": "bytes32"
        }
      ],
      "name": "usedAttestations",
      "outputs": [
        {
          "internalType": "bool",
          "name": "",
          "type": "bool"
        }
      ],
      "stateMutability": "view",
      "type": "function"
    },
    {
      "inputs": [
        {
          "internalType": "bytes32",
          "name": "attestationUID",
          "type": "bytes32"
        },
        {
          "internalType": "address",
          "name": "payer",
          "type": "address"
        }
      ],
      "name": "verifyAttestation",
      "outputs": [],
      "stateMutability": "view",
      "type": "function"
    },
    {
      "inputs": [
        {
          "internalType": "bytes32[]",
          "name": "attestationUIDs",
          "type": "bytes32[]"
        },
        {
          "internalType": "address",
          "name": "payer",
          "type": "address"
        }
      ],
      "name": "verifyAttestationBatch",
      "outputs": [],
      "stateMutability": "view",
      "type": "function"
    },
    {
      "inputs": [
        {
          "internalType": "bytes32",
          "name": "attestationUID",
          "type": "bytes32"
        },
        {
          "internalType": "address",
          "name": "payer",
          "type": "address"
        }
      ],
      "name": "verifyAttestationOnce",
      "outputs": [],
      "stateMutability": "nonpayable",
      "type": "function"
    }
  ],
  "bytecode": "0x60a060405234801561000f575f5ffd5b50604051610ef0380380610ef083398101604081905261002e916102df565b6001600160a01b0383166100555760405163d92e233d60e01b815260040160405180910390fd5b6001600160a01b038316608052600380546001600160a01b031916331790555f5b825181101561011e5760015f5f858481518110610095576100956103ab565b602002602001015181526020019081526020015f205f6101000a81548160ff0219169083151502179055508281815181106100d2576100d26103ab565b60200260200101517fbfe5a0ed847b5eac7ee1669313cce6cb83fcd715ae8b20f8ea6aff0686a0e3a6600160405161010e911515815260200190565b60405180910390a2600101610076565b505f5b81518110156101e4576001805f848481518110610140576101406103ab565b60200260200101516001600160a01b03166001600160a01b031681526020019081526020015f205f6101000a81548160ff02191690831515021790555081818151811061018f5761018f6103ab565b60200260200101516001600160a01b03167f2f6baedf5d85c15bc97b3e106fb2c744a011c1a294456f6369281584f778fb0060016040516101d4911515815260200190565b60405180910390a2600101610121565b505050506103bf565b80516001600160a01b0381168114610203575f5ffd5b919050565b634e487b7160e01b5f52604160045260245ffd5b604051601f8201601f191681016001600160401b038111828210171561024457610244610208565b604052919050565b5f6001600160401b0382111561026457610264610208565b5060051b60200190565b5f82601f83011261027d575f5ffd5b815161029061028b8261024c565b61021c565b8082825260208201915060208360051b8601019250858311156102b1575f5ffd5b602085015b838110156102d5576102c7816101ed565b8352602092830192016102b6565b5095945050505050565b5f5f5f606084860312156102f1575f5ffd5b6102fa846101ed565b60208501519093506001600160401b03811115610315575f5ffd5b8401601f81018613610325575f5ffd5b805161033361028b8261024c565b8082825260208201915060208360051b850101925088831115610354575f5ffd5b6020840193505b8284101561037657835182526020938401939091019061035b565b6040880151909550925050506001600160401b03811115610395575f5ffd5b6103a18682870161026e565b9150509250925092565b634e487b7160e01b5f52603260045260245ffd5b608051610b0b6103e55f395f818161013b0152818161050101526106c70152610b0b5ff3fe608060405234801561000f575f5ffd5b50600436106100b1575f3560e01c8063c6e262451161006e578063c6e2624514610188578063cc600a9a1461019b578063e33d5c37146101ae578063e36546fa146101c1578063e4d01a4e146101d4578063f2fde38b146101f6575f5ffd5b80630ae7243a146100b55780631b16c61f146100ec57806337fb91ad146101015780635a553572146101145780638150864d146101365780638da5cb5b14610175575b5f5ffd5b6100d76100c336600461075a565b5f6020819052908152604090205460ff1681565b60405190151581526020015b60405180910390f35b6100ff6100fa366004610788565b610209565b005b6100ff61010f3660046107c3565b610217565b6100d761012236600461075a565b60026020525f908152604090205460ff1681565b61015d7f000000000000000000000000000000000000000000000000000000000000000081565b6040516001600160a01b0390911681526020016100e3565b60035461015d906001600160a01b031681565b6100ff610196366004610788565b610297565b6100ff6101a93660046107e6565b6102eb565b6100d76101bc366004610788565b610327565b6100ff6101cf366004610868565b610393565b6100d76101e2366004610894565b60016020525f908152604090205460ff1681565b6100ff610204366004610894565b61043c565b61021382826104e9565b5050565b6003546001600160a01b03163314610242576040516330cd747160e01b815260040160405180910390fd5b5f8281526020818152604091829020805460ff1916841515908117909155915191825283917fbfe5a0ed847b5eac7ee1669313cce6cb83fcd715ae8b20f8ea6aff0686a0e3a691015b60405180910390a25050565b5f8281526002602052604090205460ff16156102c6576040516304b070f360e51b815260040160405180910390fd5b6102d082826104e9565b505f908152600260205260409020805460ff19166001179055565b815f5b818110156103205761031885858381811061030b5761030b6108b6565b90506020020135846104e9565b6001016102ee565b5050505050565b604051631b16c61f60e01b8152600481018390526001600160a01b03821660248201525f903090631b16c61f906044015f6040518083038186803b15801561036d575f5ffd5b505afa92505050801561037e575060015b61038957505f61038d565b5060015b92915050565b6003546001600160a01b031633146103be576040516330cd747160e01b815260040160405180910390fd5b6001600160a01b0382166103e55760405163d92e233d60e01b815260040160405180910390fd5b6001600160a01b0382165f81815260016020908152604091829020805460ff191685151590811790915591519182527f2f6baedf5d85c15bc97b3e106fb2c744a011c1a294456f6369281584f778fb00910161028b565b6003546001600160a01b03163314610467576040516330cd747160e01b815260040160405180910390fd5b6001600160a01b03811661048e5760405163d92e233d60e01b815260040160405180910390fd5b6003546040516001600160a01b038084169216907f8be0079c531659141344cd1fd0a4f28419497f9722a3daafe3b4186f6b6457e0905f90a3600380546001600160a01b0319166001600160a01b0392909216919091179055565b6040516328c44a9960e21b8152600481018390525f907f00000000000000000000000000000000000000000000000000000000000000006001600160a01b03169063a3112a64906024015f60405180830381865afa15801561054d573d5f5f3e3d5ffd5b505050506040513d5f823e601f3d908101601f1916820160405261057491908101906109c5565b80519091506105965760405163120a2e7760e01b815260040160405180910390fd5b6020808201515f90815290819052604090205460ff166105c9576040516321b8eeb960e01b815260040160405180910390fd5b60c08101516001600160a01b03165f9081526001602052604090205460ff16610605576040516317ada25b60e11b815260040160405180910390fd5b816001600160a01b03168160e001516001600160a01b03161461063b576040516341e3f83160e01b815260040160405180910390fd5b606081015167ffffffffffffffff1615801590610666575042816060015167ffffffffffffffff1611155b156106845760405163716dcc3960e01b815260040160405180910390fd5b608081015167ffffffffffffffff16156106b157604051637b6227e960e11b815260040160405180910390fd5b60405163e30bb56360e01b8152600481018490527f00000000000000000000000000000000000000000000000000000000000000006001600160a01b03169063e30bb56390602401602060405180830381865afa158015610714573d5f5f3e3d5ffd5b505050506040513d601f19601f820116820180604052508101906107389190610aba565b61075557604051637b6227e960e11b815260040160405180910390fd5b505050565b5f6020828403121561076a575f5ffd5b5035919050565b6001600160a01b0381168114610785575f5ffd5b50565b5f5f60408385031215610799575f5ffd5b8235915060208301356107ab81610771565b809150509250929050565b8015158114610785575f5ffd5b5f5f604083850312156107d4575f5ffd5b8235915060208301356107ab816107b6565b5f5f5f604084860312156107f8575f5ffd5b833567ffffffffffffffff81111561080e575f5ffd5b8401601f8101861361081e575f5ffd5b803567ffffffffffffffff811115610834575f5ffd5b8660208260051b8401011115610848575f5ffd5b60209182019450925084013561085d81610771565b809150509250925092565b5f5f60408385031215610879575f5ffd5b823561088481610771565b915060208301356107ab816107b6565b5f602082840312156108a4575f5ffd5b81356108af81610771565b9392505050565b634e487b7160e01b5f52603260045260245ffd5b634e487b7160e01b5f52604160045260245ffd5b604051610140810167ffffffffffffffff81118282101715610902576109026108ca565b60405290565b805167ffffffffffffffff8116811461091f575f5ffd5b919050565b805161091f81610771565b805161091f816107b6565b5f82601f830112610949575f5ffd5b815167ffffffffffffffff811115610963576109636108ca565b604051601f8201601f19908116603f0116810167ffffffffffffffff81118282101715610992576109926108ca565b6040528181528382016020018510156109a9575f5ffd5b8160208501602083015e5f918101602001919091529392505050565b5f602082840312156109d5575f5ffd5b815167ffffffffffffffff8111156109eb575f5ffd5b820161014081850312156109fd575f5ffd5b610a056108de565b8151815260208083015190820152610a1f60408301610908565b6040820152610a3060608301610908565b6060820152610a4160808301610908565b608082015260a08281015190820152610a5c60c08301610924565b60c0820152610a6d60e08301610924565b60e0820152610a7f610100830161092f565b61010082015261012082015167ffffffffffffffff811115610a9f575f5ffd5b610aab8682850161093a565b61012083015250949350505050565b5f60208284031215610aca575f5ffd5b81516108af816107b656fea2646970667358221220e9f3b19943625a1ec1613148394ee0a1d17ef12540ef4b684eae6d885c549a7a64736f6c634300081c0033",
  "linkReferences": {},
  "deployedLinkReferences": {},
  "immutableReferences": {
    "62": [
      {
        "length": 32,
        "start": 315
      },
      {
        "length": 32,
        "start": 1281
      },
      {
        "length": 32,
        "start": 1735
      }
    ]
  },
  "inputSourceName": "project/contracts/AttestationVerifier.sol",
  "buildInfoId": "solc-0_8_28-3be471ca158bfdb14ba8c3cec0444f6a62d52933"
}