{
  "_format": "hh3-artifact-1",
  "contractName": "MockEthUsdOracle",
  "sourceName": "contracts/MockEthUsdOracle.sol",
  "abi": [
    {
      "inputs": [
        {
          "internalType": "int256",
          "name": "initialPrice",
          "type": "int256"
        }
      ],
      "stateMutability": "nonpayable",
      "type": "constructor"
    },
    {
      "inputs": [],
      "name": "InvalidPrice",
      "type": "error"
    },
    {
      "inputs": [],
      "name": "NotOwner",
      "type": "error"
    },
    {
      "anonymous": false,
      "inputs": [
        {
          "indexed": true,
          "internalType": "address",
          "name": "prev",
          "type": "address"
        },
        {
          "indexed": true,
          "internalType": "address",
          "name": "next",
          "type": "address"
        }
      ],
      "name": "OwnershipTransferred",
      "type": "event"
    },
    {
      "anonymous": false,
      "inputs": [
        {
          "indexed": false,
          "internalType": "int256",
          "name": "newPrice",
          "type": "int256"
        },
        {
          "indexed": false,
          "internalType": "uint256",
          "name": "updatedAt",
          "type": "uint256"
        }
      ],
      "name": "PriceUpdated",
      "type": "event"
    },
    {
      "inputs": [],
      "name": "decimals",
      "outputs": [
        {
          "internalType": "uint8",
          "name": "",
          "type": "uint8"
        }
      ],
      "stateMutability": "view",
      "type": "function"
    },
    {
      "inputs": [],
      "name": "latestRoundData",
      "outputs": [
        {
          "internalType": "uint80",
          "name": "roundId",
          "type": "uint80"
        },
        {
          "internalType": "int256",
          "name": "answer",
          "type": "int256"
        },
        {
          "internalType": "uint256",
          "name": "startedAt",
          "type": "uint256"
        },
        {
          "internalType": "uint256",
          "name": "updatedAt",
          "type": "uint256"
        },
        {
          "internalType": "uint80",
          "name": "answeredInRound",
          "type": "uint80"
        }
      ],
      "stateMutability": "view",
      "type": "function"
    },
    {
      "inputs": [],
      "name": "owner",
      "outputs": [
        {
          "internalType": "address",
          "name": "",
          "type": "address"
        }
      ],
      "stateMutability": "view",
      "type": "function"
    },
    {
      "inputs": [
        {
          "internalType": "int256",
          "name": "newPrice",
          "type": "int256"
        }
      ],
      "name": "setPrice",
      "outputs": [],
      "stateMutability": "nonpayable",
      "type": "function"
    },
    {
      "inputs": [
        {
          "internalType": "address",
          "name": "newOwner",
          "type": "address"
        }
      ],
      "name": "transferOwnership",
      "outputs": [],
      "stateMutability": "nonpayable",
      "type": "function"
    }
  ],
  "bytecode": "0x6080604052348015600e575f5ffd5b5060405161038d38038061038d833981016040819052602b916099565b5f8113607d5760405162461bcd60e51b815260206004820152601560248201527f494e56414c49445f494e495449414c5f50524943450000000000000000000000604482015260640160405180910390fd5b5f5542600155600280546001600160a01b0319163317905560af565b5f6020828403121560a8575f5ffd5b5051919050565b6102d1806100bc5f395ff3fe608060405234801561000f575f5ffd5b5060043610610055575f3560e01c8063313ce567146100595780638da5cb5b14610078578063f2fde38b146100a3578063f7a30806146100b8578063feaf968c146100cb575b5f5ffd5b610061600881565b60405160ff90911681526020015b60405180910390f35b60025461008b906001600160a01b031681565b6040516001600160a01b03909116815260200161006f565b6100b66100b1366004610257565b6100f7565b005b6100b66100c6366004610284565b6101c6565b5f546001805460408051838152602081019490945283018190526060830152608082015260a00161006f565b6002546001600160a01b03163314610122576040516330cd747160e01b815260040160405180910390fd5b6001600160a01b03811661016b5760405162461bcd60e51b815260206004820152600c60248201526b5a45524f5f4144445245535360a01b604482015260640160405180910390fd5b6002546040516001600160a01b038084169216907f8be0079c531659141344cd1fd0a4f28419497f9722a3daafe3b4186f6b6457e0905f90a3600280546001600160a01b0319166001600160a01b0392909216919091179055565b6002546001600160a01b031633146101f1576040516330cd747160e01b815260040160405180910390fd5b5f81136102105760405162bfc92160e01b815260040160405180910390fd5b5f8190554260018190556040805183815260208101929092527fdb6fb3cf4cc5fb760bcd63b958a53b2396776dff32c063188e864296541e76bd910160405180910390a150565b5f60208284031215610267575f5ffd5b81356001600160a01b038116811461027d575f5ffd5b9392505050565b5f60208284031215610294575f5ffd5b503591905056fea2646970667358221220af519a51e8da6c609ffb2cb484d0ae6dd31c0b43623be234cb02b5d0fa8efc4b64736f6c634300081c0033",
  "linkReferences": {},
  "deployedLinkReferences": {},
  "immutableReferences": {},
  "inputSourceName": "project/contracts/MockEthUsdOracle.sol",
  "buildInfoId": "solc-0_8_28-b8cfae11bde6a88bd3b853e63bb4ccea1109c489"
}