{
  "_format": "hh3-artifact-1",
  "contractName": "RuleItemERC721",
  "sourceName": "contracts/RuleItemERC721.sol",
  "abi": [
    {
      "inputs": [
        {
          "internalType": "string",
          "name": "name",
          "type": "string"
        },
        {
          "internalType": "string",
          "name": "symbol",
          "type": "string"
        },
        {
          "internalType": "address",
          "name": "admin",
          "type": "address"
        },
        {
          "internalType": "address",
          "name": "oracle",
          "type": "address"
        }
      ],
      "stateMutability": "nonpayable",
      "type": "constructor"
    },
    {
      "inputs": [],
      "name": "AccessControlBadConfirmation",
      "type": "error"
    },
    {
      "inputs": [
        {
          "internalType": "address",
          "name": "account",
          "type": "address"
        },
        {
          "internalType": "bytes32",
          "name": "neededRole",
          "type": "bytes32"
        }
      ],
      "name": "AccessControlUnauthorizedAccount",
      "type": "error"
    },
    {
      "inputs": [
        {
          "internalType": "address",
          "name": "sender",
          "type": "address"
        },
        {
          "internalType": "uint256",
          "name": "tokenId",
          "type": "uint256"
        },
        {
          "internalType": "address",
          "name": "owner",
          "type": "address"
        }
      ],
      "name": "ERC721IncorrectOwner",
      "type": "error"
    },
    {
      "inputs": [
        {
          "internalType": "address",
          "name": "operator",
          "type": "address"
        },
        {
          "internalType": "uint256",
          "name": "tokenId",
          "type": "uint256"
        }
      ],
      "name": "ERC721InsufficientApproval",
      "type": "error"
    },
    {
      "inputs": [
        {
          "internalType": "address",
          "name": "approver",
          "type": "address"
        }
      ],
      "name": "ERC721InvalidApprover",
      "type": "error"
    },
    {
      "inputs": [
        {
          "internalType": "address",
          "name": "operator",
          "type": "address"
        }
      ],
      "name": "ERC721InvalidOperator",
      "type": "error"
    },
    {
      "inputs": [
        {
          "internalType": "address",
          "name": "owner",
          "type": "address"
        }
      ],
      "name": "ERC721InvalidOwner",
      "type": "error"
    },
    {
      "inputs": [
        {
          "internalType": "address",
          "name": "receiver",
          "type": "address"
        }
      ],
      "name": "ERC721InvalidReceiver",
      "type": "error"
    },
    {
      "inputs": [
        {
          "internalType": "address",
          "name": "sender",
          "type": "address"
        }
      ],
      "name": "ERC721InvalidSender",
      "type": "error"
    },
    {
      "inputs": [
        {
          "internalType": "uint256",
          "name": "tokenId",
          "type": "uint256"
        }
      ],
      "name": "ERC721NonexistentToken",
      "type": "error"
    },
    {
      "inputs": [],
      "name": "EnforcedPause",
      "type": "error"
    },
    {
      "inputs": [],
      "name": "ExpectedPause",
      "type": "error"
    },
    {
      "anonymous": false,
      "inputs": [
        {
          "indexed": true,
          "internalType": "address",
          "name": "owner",
          "type": "address"
        },
        {
          "indexed": true,
          "internalType": "address",
          "name": "approved",
          "type": "address"
        },
        {
          "indexed": true,
          "internalType": "uint256",
          "name": "tokenId",
          "type": "uint256"
        }
      ],
      "name": "Approval",
      "type": "event"
    },
    {
      "anonymous": false,
      "inputs": [
        {
          "indexed": true,
          "internalType": "address",
          "name": "owner",
          "type": "address"
        },
        {
          "indexed": true,
          "internalType": "address",
          "name": "operator",
          "type": "address"
        },
        {
          "indexed": false,
          "internalType": "bool",
          "name": "approved",
          "type": "bool"
        }
      ],
      "name": "ApprovalForAll",
      "type": "event"
    },
    {
      "anonymous": false,
      "inputs": [
        {
          "indexed": false,
          "internalType": "uint256",
          "name": "_fromTokenId",
          "type": "uint256"
        },
        {
          "indexed": false,
          "internalType": "uint256",
          "name": "_toTokenId",
          "type": "uint256"
        }
      ],
      "name": "BatchMetadataUpdate",
      "type": "event"
    },
    {
      "anonymous": false,
      "inputs": [
        {
          "indexed": false,
          "internalType": "uint256",
          "name": "_tokenId",
          "type": "uint256"
        }
      ],
      "name": "MetadataUpdate",
      "type": "event"
    },
    {
      "anonymous": false,
      "inputs": [
        {
          "indexed": false,
          "internalType": "address",
          "name": "account",
          "type": "address"
        }
      ],
      "name": "Paused",
      "type": "event"
    },
    {
      "anonymous": false,
      "inputs": [
        {
          "indexed": true,
          "internalType": "bytes32",
          "name": "role",
          "type": "bytes32"
        },
        {
          "indexed": true,
          "internalType": "bytes32",
          "name": "previousAdminRole",
          "type": "bytes32"
        },
        {
          "indexed": true,
          "internalType": "bytes32",
          "name": "newAdminRole",
          "type": "bytes32"
        }
      ],
      "name": "RoleAdminChanged",
      "type": "event"
    },
    {
      "anonymous": false,
      "inputs": [
        {
          "indexed": true,
          "internalType": "bytes32",
          "name": "role",
          "type": "bytes32"
        },
        {
          "indexed": true,
          "internalType": "address",
          "name": "account",
          "type": "address"
        },
        {
          "indexed": true,
          "internalType": "address",
          "name": "sender",
          "type": "address"
        }
      ],
      "name": "RoleGranted",
      "type": "event"
    },
    {
      "anonymous": false,
      "inputs": [
        {
          "indexed": true,
          "internalType": "bytes32",
          "name": "role",
          "type": "bytes32"
        },
        {
          "indexed": true,
          "internalType": "address",
          "name": "account",
          "type": "address"
        },
        {
          "indexed": true,
          "internalType": "address",
          "name": "sender",
          "type": "address"
        }
      ],
      "name": "RoleRevoked",
      "type": "event"
    },
    {
      "anonymous": false,
      "inputs": [
        {
          "indexed": true,
          "internalType": "uint256",
          "name": "ruleId",
          "type": "uint256"
        },
        {
          "indexed": true,
          "internalType": "uint256",
          "name": "tokenId",
          "type": "uint256"
        }
      ],
      "name": "RuleActivated",
      "type": "event"
    },
    {
      "anonymous": false,
      "inputs": [
        {
          "indexed": true,
          "internalType": "uint256",
          "name": "ruleId",
          "type": "uint256"
        },
        {
          "indexed": true,
          "internalType": "uint256",
          "name": "rootRuleId",
          "type": "uint256"
        },
        {
          "indexed": true,
          "internalType": "uint256",
          "name": "parentRuleId",
          "type": "uint256"
        },
        {
          "indexed": false,
          "internalType": "uint16",
          "name": "version",
          "type": "uint16"
        }
      ],
      "name": "RuleCreated",
      "type": "event"
    },
    {
      "anonymous": false,
      "inputs": [
        {
          "indexed": true,
          "internalType": "uint256",
          "name": "ruleId",
          "type": "uint256"
        }
      ],
      "name": "RuleDeprecated",
      "type": "event"
    },
    {
      "anonymous": false,
      "inputs": [
        {
          "indexed": true,
          "internalType": "address",
          "name": "user",
          "type": "address"
        },
        {
          "indexed": false,
          "internalType": "uint256",
          "name": "expiry",
          "type": "uint256"
        }
      ],
      "name": "Subscribed",
      "type": "event"
    },
    {
      "anonymous": false,
      "inputs": [
        {
          "indexed": true,
          "internalType": "address",
          "name": "from",
          "type": "address"
        },
        {
          "indexed": true,
          "internalType": "address",
          "name": "to",
          "type": "address"
        },
        {
          "indexed": true,
          "internalType": "uint256",
          "name": "tokenId",
          "type": "uint256"
        }
      ],
      "name": "Transfer",
      "type": "event"
    },
    {
      "anonymous": false,
      "inputs": [
        {
          "indexed": false,
          "internalType": "address",
          "name": "account",
          "type": "address"
        }
      ],
      "name": "Unpaused",
      "type": "event"
    },
    {
      "inputs": [],
      "name": "ADMIN_ROLE",
      "outputs": [
        {
          "internalType": "bytes32",
          "name": "",
          "type": "bytes32"
        }
      ],
      "stateMutability": "view",
      "type": "function"
    },
    {
      "inputs": [],
      "name": "DEFAULT_ADMIN_ROLE",
      "outputs": [
        {
          "internalType": "bytes32",
          "name": "",
          "type": "bytes32"
        }
      ],
      "stateMutability": "view",
      "type": "function"
    },
    {
      "inputs": [],
      "name": "MAX_SLOT",
      "outputs": [
        {
          "internalType": "uint8",
          "name": "",
          "type": "uint8"
        }
      ],
      "stateMutability": "view",
      "type": "function"
    },
    {
      "inputs": [],
      "name": "PAUSER_ROLE",
      "outputs": [
        {
          "internalType": "bytes32",
          "name": "",
          "type": "bytes32"
        }
      ],
      "stateMutability": "view",
      "type": "function"
    },
    {
      "inputs": [],
      "name": "SUB_DURATION",
      "outputs": [
        {
          "internalType": "uint256",
          "name": "",
          "type": "uint256"
        }
      ],
      "stateMutability": "view",
      "type": "function"
    },
    {
      "inputs": [
        {
          "internalType": "uint256",
          "name": "ruleId",
          "type": "uint256"
        }
      ],
      "name": "activateRule",
      "outputs": [
        {
          "internalType": "uint256",
          "name": "tokenId",
          "type": "uint256"
        }
      ],
      "stateMutability": "nonpayable",
      "type": "function"
    },
    {
      "inputs": [
        {
          "internalType": "uint256",
          "name": "",
          "type": "uint256"
        }
      ],
      "name": "activeRuleOf",
      "outputs": [
        {
          "internalType": "uint256",
          "name": "",
          "type": "uint256"
        }
      ],
      "stateMutability": "view",
      "type": "function"
    },
    {
      "inputs": [
        {
          "internalType": "address",
          "name": "to",
          "type": "address"
        },
        {
          "internalType": "uint256",
          "name": "tokenId",
          "type": "uint256"
        }
      ],
      "name": "approve",
      "outputs": [],
      "stateMutability": "nonpayable",
      "type": "function"
    },
    {
      "inputs": [
        {
          "internalType": "address",
          "name": "owner",
          "type": "address"
        }
      ],
      "name": "balanceOf",
      "outputs": [
        {
          "internalType": "uint256",
          "name": "",
          "type": "uint256"
        }
      ],
      "stateMutability": "view",
      "type": "function"
    },
    {
      "inputs": [
        {
          "internalType": "uint256",
          "name": "tokenId",
          "type": "uint256"
        }
      ],
      "name": "burnExpired",
      "outputs": [],
      "stateMutability": "nonpayable",
      "type": "function"
    },
    {
      "inputs": [
        {
          "internalType": "bytes32",
          "name": "ruleHash",
          "type": "bytes32"
        },
        {
          "internalType": "string",
          "name": "uri",
          "type": "string"
        }
      ],
      "name": "createRule",
      "outputs": [
        {
          "internalType": "uint256",
          "name": "ruleId",
          "type": "uint256"
        }
      ],
      "stateMutability": "nonpayable",
      "type": "function"
    },
    {
      "inputs": [
        {
          "internalType": "uint256",
          "name": "parentRuleId",
          "type": "uint256"
        },
        {
          "internalType": "bytes32",
          "name": "newHash",
          "type": "bytes32"
        },
        {
          "internalType": "string",
          "name": "newUri",
          "type": "string"
        }
      ],
      "name": "createRuleVersion",
      "outputs": [
        {
          "internalType": "uint256",
          "name": "ruleId",
          "type": "uint256"
        }
      ],
      "stateMutability": "nonpayable",
      "type": "function"
    },
    {
      "inputs": [],
      "name": "deployer",
      "outputs": [
        {
          "internalType": "address",
          "name": "",
          "type": "address"
        }
      ],
      "stateMutability": "view",
      "type": "function"
    },
    {
      "inputs": [],
      "name": "ethUsdFeed",
      "outputs": [
        {
          "internalType": "contract AggregatorV3Interface",
          "name": "",
          "type": "address"
        }
      ],
      "stateMutability": "view",
      "type": "function"
    },
    {
      "inputs": [
        {
          "internalType": "uint256",
          "name": "tokenId",
          "type": "uint256"
        },
        {
          "internalType": "uint256",
          "name": "newExpiry",
          "type": "uint256"
        }
      ],
      "name": "extendRuleExpiry",
      "outputs": [],
      "stateMutability": "payable",
      "type": "function"
    },
    {
      "inputs": [
        {
          "internalType": "uint256",
          "name": "tokenId",
          "type": "uint256"
        }
      ],
      "name": "getApproved",
      "outputs": [
        {
          "internalType": "address",
          "name": "",
          "type": "address"
        }
      ],
      "stateMutability": "view",
      "type": "function"
    },
    {
      "inputs": [
        {
          "internalType": "bytes32",
          "name": "role",
          "type": "bytes32"
        }
      ],
      "name": "getRoleAdmin",
      "outputs": [
        {
          "internalType": "bytes32",
          "name": "",
          "type": "bytes32"
        }
      ],
      "stateMutability": "view",
      "type": "function"
    },
    {
      "inputs": [
        {
          "internalType": "uint256",
          "name": "ruleId",
          "type": "uint256"
        }
      ],
      "name": "getRule",
      "outputs": [
        {
          "internalType": "bytes32",
          "name": "hash",
          "type": "bytes32"
        },
        {
          "internalType": "string",
          "name": "uri",
          "type": "string"
        },
        {
          "internalType": "address",
          "name": "creator",
          "type": "address"
        },
        {
          "internalType": "uint256",
          "name": "rootRuleId",
          "type": "uint256"
        },
        {
          "internalType": "uint16",
          "name": "version",
          "type": "uint16"
        },
        {
          "internalType": "bool",
          "name": "deprecated",
          "type": "bool"
        },
        {
          "internalType": "bool",
          "name": "active",
          "type": "bool"
        }
      ],
      "stateMutability": "view",
      "type": "function"
    },
    {
      "inputs": [
        {
          "internalType": "bytes32",
          "name": "role",
          "type": "bytes32"
        },
        {
          "internalType": "address",
          "name": "account",
          "type": "address"
        }
      ],
      "name": "grantRole",
      "outputs": [],
      "stateMutability": "nonpayable",
      "type": "function"
    },
    {
      "inputs": [
        {
          "internalType": "bytes32",
          "name": "role",
          "type": "bytes32"
        },
        {
          "internalType": "address",
          "name": "account",
          "type": "address"
        }
      ],
      "name": "hasRole",
      "outputs": [
        {
          "internalType": "bool",
          "name": "",
          "type": "bool"
        }
      ],
      "stateMutability": "view",
      "type": "function"
    },
    {
      "inputs": [
        {
          "internalType": "address",
          "name": "user",
          "type": "address"
        }
      ],
      "name": "hasSubscription",
      "outputs": [
        {
          "internalType": "bool",
          "name": "",
          "type": "bool"
        }
      ],
      "stateMutability": "view",
      "type": "function"
    },
    {
      "inputs": [
        {
          "internalType": "address",
          "name": "owner",
          "type": "address"
        },
        {
          "internalType": "address",
          "name": "operator",
          "type": "address"
        }
      ],
      "name": "isApprovedForAll",
      "outputs": [
        {
          "internalType": "bool",
          "name": "",
          "type": "bool"
        }
      ],
      "stateMutability": "view",
      "type": "function"
    },
    {
      "inputs": [
        {
          "internalType": "address",
          "name": "",
          "type": "address"
        }
      ],
      "name": "logicalRuleCount",
      "outputs": [
        {
          "internalType": "uint8",
          "name": "",
          "type": "uint8"
        }
      ],
      "stateMutability": "view",
      "type": "function"
    },
    {
      "inputs": [],
      "name": "name",
      "outputs": [
        {
          "internalType": "string",
          "name": "",
          "type": "string"
        }
      ],
      "stateMutability": "view",
      "type": "function"
    },
    {
      "inputs": [],
      "name": "nextRuleId",
      "outputs": [
        {
          "internalType": "uint256",
          "name": "",
          "type": "uint256"
        }
      ],
      "stateMutability": "view",
      "type": "function"
    },
    {
      "inputs": [],
      "name": "nextTokenId",
      "outputs": [
        {
          "internalType": "uint256",
          "name": "",
          "type": "uint256"
        }
      ],
      "stateMutability": "view",
      "type": "function"
    },
    {
      "inputs": [
        {
          "internalType": "uint256",
          "name": "tokenId",
          "type": "uint256"
        }
      ],
      "name": "ownerOf",
      "outputs": [
        {
          "internalType": "address",
          "name": "",
          "type": "address"
        }
      ],
      "stateMutability": "view",
      "type": "function"
    },
    {
      "inputs": [],
      "name": "paused",
      "outputs": [
        {
          "internalType": "bool",
          "name": "",
          "type": "bool"
        }
      ],
      "stateMutability": "view",
      "type": "function"
    },
    {
      "inputs": [
        {
          "internalType": "bytes32",
          "name": "role",
          "type": "bytes32"
        },
        {
          "internalType": "address",
          "name": "callerConfirmation",
          "type": "address"
        }
      ],
      "name": "renounceRole",
      "outputs": [],
      "stateMutability": "nonpayable",
      "type": "function"
    },
    {
      "inputs": [
        {
          "internalType": "bytes32",
          "name": "role",
          "type": "bytes32"
        },
        {
          "internalType": "address",
          "name": "account",
          "type": "address"
        }
      ],
      "name": "revokeRole",
      "outputs": [],
      "stateMutability": "nonpayable",
      "type": "function"
    },
    {
      "inputs": [
        {
          "internalType": "uint256",
          "name": "",
          "type": "uint256"
        }
      ],
      "name": "rootRuleOf",
      "outputs": [
        {
          "internalType": "uint256",
          "name": "",
          "type": "uint256"
        }
      ],
      "stateMutability": "view",
      "type": "function"
    },
    {
      "inputs": [
        {
          "internalType": "uint256",
          "name": "",
          "type": "uint256"
        }
      ],
      "name": "ruleExpiry",
      "outputs": [
        {
          "internalType": "uint256",
          "name": "",
          "type": "uint256"
        }
      ],
      "stateMutability": "view",
      "type": "function"
    },
    {
      "inputs": [
        {
          "internalType": "uint256",
          "name": "",
          "type": "uint256"
        }
      ],
      "name": "ruleTokenId",
      "outputs": [
        {
          "internalType": "uint256",
          "name": "",
          "type": "uint256"
        }
      ],
      "stateMutability": "view",
      "type": "function"
    },
    {
      "inputs": [
        {
          "internalType": "uint256",
          "name": "",
          "type": "uint256"
        }
      ],
      "name": "rules",
      "outputs": [
        {
          "internalType": "bytes32",
          "name": "ruleHash",
          "type": "bytes32"
        },
        {
          "internalType": "string",
          "name": "uri",
          "type": "string"
        },
        {
          "internalType": "address",
          "name": "creator",
          "type": "address"
        },
        {
          "internalType": "uint256",
          "name": "parentRuleId",
          "type": "uint256"
        },
        {
          "internalType": "uint16",
          "name": "version",
          "type": "uint16"
        },
        {
          "internalType": "bool",
          "name": "deprecated",
          "type": "bool"
        },
        {
          "internalType": "uint256",
          "name": "tokenId",
          "type": "uint256"
        }
      ],
      "stateMutability": "view",
      "type": "function"
    },
    {
      "inputs": [
        {
          "internalType": "address",
          "name": "from",
          "type": "address"
        },
        {
          "internalType": "address",
          "name": "to",
          "type": "address"
        },
        {
          "internalType": "uint256",
          "name": "tokenId",
          "type": "uint256"
        }
      ],
      "name": "safeTransferFrom",
      "outputs": [],
      "stateMutability": "nonpayable",
      "type": "function"
    },
    {
      "inputs": [
        {
          "internalType": "address",
          "name": "from",
          "type": "address"
        },
        {
          "internalType": "address",
          "name": "to",
          "type": "address"
        },
        {
          "internalType": "uint256",
          "name": "tokenId",
          "type": "uint256"
        },
        {
          "internalType": "bytes",
          "name": "data",
          "type": "bytes"
        }
      ],
      "name": "safeTransferFrom",
      "outputs": [],
      "stateMutability": "nonpayable",
      "type": "function"
    },
    {
      "inputs": [
        {
          "internalType": "address",
          "name": "operator",
          "type": "address"
        },
        {
          "internalType": "bool",
          "name": "approved",
          "type": "bool"
        }
      ],
      "name": "setApprovalForAll",
      "outputs": [],
      "stateMutability": "nonpayable",
      "type": "function"
    },
    {
      "inputs": [],
      "name": "subscribe",
      "outputs": [],
      "stateMutability": "payable",
      "type": "function"
    },
    {
      "inputs": [
        {
          "internalType": "address",
          "name": "",
          "type": "address"
        }
      ],
      "name": "subscriptionExpiry",
      "outputs": [
        {
          "internalType": "uint256",
          "name": "",
          "type": "uint256"
        }
      ],
      "stateMutability": "view",
      "type": "function"
    },
    {
      "inputs": [],
      "name": "subscriptionPriceETH",
      "outputs": [
        {
          "internalType": "uint256",
          "name": "",
          "type": "uint256"
        }
      ],
      "stateMutability": "pure",
      "type": "function"
    },
    {
      "inputs": [],
      "name": "subscriptionUsdCents",
      "outputs": [
        {
          "internalType": "uint256",
          "name": "",
          "type": "uint256"
        }
      ],
      "stateMutability": "view",
      "type": "function"
    },
    {
      "inputs": [
        {
          "internalType": "bytes4",
          "name": "interfaceId",
          "type": "bytes4"
        }
      ],
      "name": "supportsInterface",
      "outputs": [
        {
          "internalType": "bool",
          "name": "",
          "type": "bool"
        }
      ],
      "stateMutability": "view",
      "type": "function"
    },
    {
      "inputs": [],
      "name": "symbol",
      "outputs": [
        {
          "internalType": "string",
          "name": "",
          "type": "string"
        }
      ],
      "stateMutability": "view",
      "type": "function"
    },
    {
      "inputs": [
        {
          "internalType": "uint256",
          "name": "",
          "type": "uint256"
        }
      ],
      "name": "tokenRule",
      "outputs": [
        {
          "internalType": "uint256",
          "name": "",
          "type": "uint256"
        }
      ],
      "stateMutability": "view",
      "type": "function"
    },
    {
      "inputs": [
        {
          "internalType": "uint256",
          "name": "tokenId",
          "type": "uint256"
        }
      ],
      "name": "tokenURI",
      "outputs": [
        {
          "internalType": "string",
          "name": "",
          "type": "string"
        }
      ],
      "stateMutability": "view",
      "type": "function"
    },
    {
      "inputs": [
        {
          "internalType": "address",
          "name": "from",
          "type": "address"
        },
        {
          "internalType": "address",
          "name": "to",
          "type": "address"
        },
        {
          "internalType": "uint256",
          "name": "tokenId",
          "type": "uint256"
        }
      ],
      "name": "transferFrom",
      "outputs": [],
      "stateMutability": "nonpayable",
      "type": "function"
    }
  ],
  "bytecode": "0x60a06040526023600955348015610014575f5ffd5b5060405161319338038061319383398101604081905261003391610244565b83835f610040838261034d565b50600161004d828261034d565b5061005c91505f9050836100df565b506100877fa49807205ce4d355092ef5a8a18f56e8913cf4a201fbe287825b095693c21775836100df565b506100b27f65d7a28e3265b37a6474929f336521b332c1681b933f6cb9f3376673440d862a836100df565b50600a80546001600160a01b0319166001600160a01b039290921691909117905550503360805250610407565b5f8281526007602090815260408083206001600160a01b038516845290915281205460ff16610183575f8381526007602090815260408083206001600160a01b03861684529091529020805460ff1916600117905561013b3390565b6001600160a01b0316826001600160a01b0316847f2f8788117e7eff1d82e926ec794901d17c78024a50270940304540a733656f0d60405160405180910390a4506001610186565b505f5b92915050565b634e487b7160e01b5f52604160045260245ffd5b5f82601f8301126101af575f5ffd5b81516001600160401b038111156101c8576101c861018c565b604051601f8201601f19908116603f011681016001600160401b03811182821017156101f6576101f661018c565b60405281815283820160200185101561020d575f5ffd5b8160208501602083015e5f918101602001919091529392505050565b80516001600160a01b038116811461023f575f5ffd5b919050565b5f5f5f5f60808587031215610257575f5ffd5b84516001600160401b0381111561026c575f5ffd5b610278878288016101a0565b602087015190955090506001600160401b03811115610295575f5ffd5b6102a1878288016101a0565b9350506102b060408601610229565b91506102be60608601610229565b905092959194509250565b600181811c908216806102dd57607f821691505b6020821081036102fb57634e487b7160e01b5f52602260045260245ffd5b50919050565b601f82111561034857805f5260205f20601f840160051c810160208510156103265750805b601f840160051c820191505b81811015610345575f8155600101610332565b50505b505050565b81516001600160401b038111156103665761036661018c565b61037a8161037484546102c9565b84610301565b6020601f8211600181146103ac575f83156103955750848201515b5f19600385901b1c1916600184901b178455610345565b5f84815260208120601f198516915b828110156103db57878501518255602094850194600190920191016103bb565b50848210156103f857868401515f19600387901b60f8161c191681555b50505050600190811b01905550565b608051612d6661042d5f395f81816107bb0152818161160b0152611a280152612d665ff3fe608060405260043610610275575f3560e01c80638009b7bd1161014a578063c87b56dd116100be578063d60d36b611610078578063d60d36b6146107dd578063d90190201461081d578063e3d5836114610848578063e63ab1e91461085b578063e985e9c51461088e578063f4a96d22146108ad575f5ffd5b8063c87b56dd1461071f578063d098769b1461073e578063d2f297071461075d578063d36013ce14610773578063d547741f1461078b578063d5f39488146107aa575f5ffd5b80639f6d78841161010f5780639f6d78841461064d578063a217fddf14610678578063a22cb4651461068b578063a28f6260146106aa578063b88d4fde146106d5578063c40df854146106f4575f5ffd5b80638009b7bd146105d457806388d6b10e146105f35780638f449a051461061257806391d148541461061a57806395d89b4114610639575f5ffd5b80632f2ff15d116101ec5780636352211e116101a65780636352211e1461050257806370a082311461052157806370f047b0146105405780637514e80e1461055557806375794a3c1461058c57806375b238fc146105a1575f5ffd5b80632f2ff15d1461043157806336568abe1461045057806342842e0e1461046f578063484620371461048e5780635c975abb146104c057806360a85ef5146104d7575f5ffd5b8063095ea7b31161023d578063095ea7b31461037057806323b872dd1461039157806323f889fc146103b0578063248a9ca3146103cf5780632b942d5b146103fd5780632bca0efb1461041c575f5ffd5b806301ffc9a71461027957806304d6ded4146102ad57806305a89119146102df57806306fdde0314610318578063081812fc14610339575b5f5ffd5b348015610284575f5ffd5b506102986102933660046126c9565b6108c1565b60405190151581526020015b60405180910390f35b3480156102b8575f5ffd5b506102cc6102c73660046126e4565b6108d1565b6040516102a49796959493929190612729565b3480156102ea575f5ffd5b5061030a6102f93660046126e4565b60106020525f908152604090205481565b6040519081526020016102a4565b348015610323575f5ffd5b5061032c6109a6565b6040516102a4919061277a565b348015610344575f5ffd5b506103586103533660046126e4565b610a35565b6040516001600160a01b0390911681526020016102a4565b34801561037b575f5ffd5b5061038f61038a3660046127a7565b610a5c565b005b34801561039c575f5ffd5b5061038f6103ab3660046127cf565b610a6b565b3480156103bb575f5ffd5b5061030a6103ca36600461284e565b610af9565b3480156103da575f5ffd5b5061030a6103e93660046126e4565b5f9081526007602052604090206001015490565b348015610408575f5ffd5b5061030a6104173660046126e4565b610d61565b348015610427575f5ffd5b5061030a60095481565b34801561043c575f5ffd5b5061038f61044b366004612896565b61103e565b34801561045b575f5ffd5b5061038f61046a366004612896565b611062565b34801561047a575f5ffd5b5061038f6104893660046127cf565b61109a565b348015610499575f5ffd5b506104ad6104a83660046126e4565b6110b4565b6040516102a497969594939291906128c0565b3480156104cb575f5ffd5b5060085460ff16610298565b3480156104e2575f5ffd5b5061030a6104f1366004612913565b60126020525f908152604090205481565b34801561050d575f5ffd5b5061035861051c3660046126e4565b611246565b34801561052c575f5ffd5b5061030a61053b366004612913565b611250565b34801561054b575f5ffd5b5061030a600b5481565b348015610560575f5ffd5b5061029861056f366004612913565b6001600160a01b03165f9081526012602052604090205442111590565b348015610597575f5ffd5b5061030a600c5481565b3480156105ac575f5ffd5b5061030a7fa49807205ce4d355092ef5a8a18f56e8913cf4a201fbe287825b095693c2177581565b3480156105df575f5ffd5b50600a54610358906001600160a01b031681565b3480156105fe575f5ffd5b5061030a61060d36600461292c565b611295565b61038f611561565b348015610625575f5ffd5b50610298610634366004612896565b61173a565b348015610644575f5ffd5b5061032c611764565b348015610658575f5ffd5b5061030a6106673660046126e4565b600f6020525f908152604090205481565b348015610683575f5ffd5b5061030a5f81565b348015610696575f5ffd5b5061038f6106a536600461297b565b611773565b3480156106b5575f5ffd5b5061030a6106c43660046126e4565b600e6020525f908152604090205481565b3480156106e0575f5ffd5b5061038f6106ef3660046129c8565b61177e565b3480156106ff575f5ffd5b5061030a61070e3660046126e4565b60146020525f908152604090205481565b34801561072a575f5ffd5b5061032c6107393660046126e4565b611796565b348015610749575f5ffd5b5061038f6107583660046126e4565b6117a1565b348015610768575f5ffd5b5061030a62278d0081565b34801561077e575f5ffd5b50655af3107a400061030a565b348015610796575f5ffd5b5061038f6107a5366004612896565b6118bf565b3480156107b5575f5ffd5b506103587f000000000000000000000000000000000000000000000000000000000000000081565b3480156107e8575f5ffd5b5061080b6107f7366004612913565b60116020525f908152604090205460ff1681565b60405160ff90911681526020016102a4565b348015610828575f5ffd5b5061030a6108373660046126e4565b60136020525f908152604090205481565b61038f610856366004612aa5565b6118e3565b348015610866575f5ffd5b5061030a7f65d7a28e3265b37a6474929f336521b332c1681b933f6cb9f3376673440d862a81565b348015610899575f5ffd5b506102986108a8366004612ac5565b611b23565b3480156108b8575f5ffd5b5061080b600381565b5f6108cb82611b50565b92915050565b600d6020525f9081526040902080546001820180549192916108f290612aed565b80601f016020809104026020016040519081016040528092919081815260200182805461091e90612aed565b80156109695780601f1061094057610100808354040283529160200191610969565b820191905f5260205f20905b81548152906001019060200180831161094c57829003601f168201915b5050505060028301546003840154600485015460059095015493946001600160a01b039092169390925061ffff82169162010000900460ff169087565b60605f80546109b490612aed565b80601f01602080910402602001604051908101604052809291908181526020018280546109e090612aed565b8015610a2b5780601f10610a0257610100808354040283529160200191610a2b565b820191905f5260205f20905b815481529060010190602001808311610a0e57829003601f168201915b5050505050905090565b5f610a3f82611b74565b505f828152600460205260409020546001600160a01b03166108cb565b610a67828233611bac565b5050565b6001600160a01b038216610a9957604051633250574960e11b81525f60048201526024015b60405180910390fd5b5f610aa5838333611bb9565b9050836001600160a01b0316816001600160a01b031614610af3576040516364283d7b60e01b81526001600160a01b0380861660048301526024820184905282166044820152606401610a90565b50505050565b5f610b02611c8e565b83610b435760405162461bcd60e51b81526020600482015260116024820152700929cac82989288bea4aa988abe9082a69607b1b6044820152606401610a90565b335f90815260126020526040812054421115610b60576001610b63565b60035b335f9081526011602052604090205490915060ff808316911610610bba5760405162461bcd60e51b815260206004820152600e60248201526d1495531157d4d313d517d195531360921b6044820152606401610a90565b600b5f8154610bc890612b39565b91905081905591506040518060e0016040528086815260200185858080601f0160208091040260200160405190810160405280939291908181526020018383808284375f92018290525093855250503360208085019190915260408085018490526001606086018190526080860185905260a0909501849052878452600d825290922084518155918401519192830191610c63915082612b95565b506040828101516002830180546001600160a01b0319166001600160a01b0390921691909117905560608301516003830155608083015160048301805460a086015161ffff90931662ffffff1990911617620100009215159290920291909117905560c0909201516005909101555f838152600f602090815282822085905533825260119052908120805460ff1691610cfb83612c50565b91906101000a81548160ff021916908360ff160217905550505f82837f89985676d0f40810abbe2cd55f254fd631b1f8eff9cf8cf89ad8af64c77f87b26001604051610d51919061ffff91909116815260200190565b60405180910390a4509392505050565b5f610d6a611c8e565b5f828152600d6020526040902060028101546001600160a01b03163314610dc15760405162461bcd60e51b815260206004820152600b60248201526a2727aa2fa1a922a0aa27a960a91b6044820152606401610a90565b600481015462010000900460ff1615610e0e5760405162461bcd60e51b815260206004820152600f60248201526e1495531157d11154149150d0551151608a1b6044820152606401610a90565b600581015415610e515760405162461bcd60e51b815260206004820152600e60248201526d414c52454144595f41435449564560901b6044820152606401610a90565b5f838152600f60209081526040808320548084526010909252909120548015610f0a575f818152600d60205260409020600501548015610ebb575f818152601560205260409020805460ff19166001179055610eac81611cb4565b5f818152600e60205260408120555b5f828152600d602052604080822060058101839055600401805462ff00001916620100001790555183917f4816cbba0986a3746458b30f61c423197d79c8128a41811424e7d2cf0459ea7691a2505b600c5f8154610f1890612b39565b9182905550600584018190555f818152600e602090815260408083208990558583526010825280832089905533808452601283528184205485855260138452828520558984526014909252909120829055909450610f769085611cec565b61100a84846001018054610f8990612aed565b80601f0160208091040260200160405190810160405280929190818152602001828054610fb590612aed565b80156110005780601f10610fd757610100808354040283529160200191611000565b820191905f5260205f20905b815481529060010190602001808311610fe357829003601f168201915b5050505050611d4d565b604051849086907f3db37d72ecec2a06bb99792c387585563a848046fa9f0698dfd52bdd41c2a97b905f90a3505050919050565b5f8281526007602052604090206001015461105881611d9c565b610af38383611da9565b6001600160a01b038116331461108b5760405163334bd91960e11b815260040160405180910390fd5b6110958282611e3a565b505050565b61109583838360405180602001604052805f81525061177e565b5f60605f5f5f5f5f5f600d5f8a81526020019081526020015f206040518060e00160405290815f82015481526020016001820180546110f290612aed565b80601f016020809104026020016040519081016040528092919081815260200182805461111e90612aed565b80156111695780601f1061114057610100808354040283529160200191611169565b820191905f5260205f20905b81548152906001019060200180831161114c57829003601f168201915b505050918352505060028201546001600160a01b0316602082015260038201546040820152600482015461ffff8116606083015262010000900460ff161515608082015260059091015460a09091015280519091506111fb5760405162461bcd60e51b815260206004820152600e60248201526d1495531157d393d517d1561254d560921b6044820152606401610a90565b5f898152600f602090815260408083205480845260108352928190205484519285015191850151608086015160a090960151939e929d909c50939a5093985090965091149350915050565b5f6108cb82611b74565b5f6001600160a01b03821661127a576040516322718ad960e21b81525f6004820152602401610a90565b506001600160a01b03165f9081526003602052604090205490565b5f61129e611c8e565b5f858152600d6020526040902060028101546001600160a01b031633146112f55760405162461bcd60e51b815260206004820152600b60248201526a2727aa2fa1a922a0aa27a960a91b6044820152606401610a90565b600481015462010000900460ff16156113445760405162461bcd60e51b815260206004820152601160248201527014105491539517d11154149150d0551151607a1b6044820152606401610a90565b846113855760405162461bcd60e51b81526020600482015260116024820152700929cac82989288bea4aa988abe9082a69607b1b6044820152606401610a90565b5f868152600f6020526040812054600b8054919290916113a490612b39565b91905081905592506040518060e0016040528087815260200186868080601f0160208091040260200160405190810160405280939291908181526020018383808284375f9201919091525050509082525033602082015260408101899052600484015460609091019061141c9061ffff166001612c6e565b61ffff1681525f60208083018290526040928301829052868252600d8152919020825181559082015160018201906114549082612b95565b506040828101516002830180546001600160a01b0319166001600160a01b039092169190911790556060830151600383015560808301516004808401805460a087015161ffff90941662ffffff199091161762010000931515840217905560c0909401516005909301929092555f868152600f602052818120859055928501805462ff000019169092179091555188917f4816cbba0986a3746458b30f61c423197d79c8128a41811424e7d2cf0459ea7691a25f838152600d602090815260409182902060040154915161ffff90921682528891839186917f89985676d0f40810abbe2cd55f254fd631b1f8eff9cf8cf89ad8af64c77f87b2910160405180910390a45050949350505050565b611569611c8e565b655af3107a4000348111156115b75760405162461bcd60e51b8152602060048201526014602482015273125394d551919250d251539517d410565351539560621b6044820152606401610a90565b335f908152601260205260409020544281106115df576115da62278d0082612c88565b6115ec565b6115ec62278d0042612c88565b335f908152601260205260408082209290925590516001600160a01b037f0000000000000000000000000000000000000000000000000000000000000000169084908381818185875af1925050503d805f8114611664576040519150601f19603f3d011682016040523d82523d5f602084013e611669565b606091505b50509050806116b55760405162461bcd60e51b81526020600482015260186024820152771111541313d6515497d514905394d1915497d1905253115160421b6044820152606401610a90565b823411156116f257336108fc6116cb8534612c9b565b6040518115909202915f818181858888f193505050501580156116f0573d5f5f3e3d5ffd5b505b335f818152601260209081526040918290205491519182527f4b90d6788928d63c1821907a6a8b95f40d26562d8fe41b105f7489db9966dfcb910160405180910390a2505050565b5f9182526007602090815260408084206001600160a01b0393909316845291905290205460ff1690565b6060600180546109b490612aed565b610a67338383611ea5565b611789848484610a6b565b610af33385858585611f43565b60606108cb8261206b565b5f818152600260205260409020546001600160a01b0316806117f15760405162461bcd60e51b81526020600482015260096024820152681393d517d1561254d560ba1b6044820152606401610a90565b5f82815260136020526040902054421161183b5760405162461bcd60e51b815260206004820152600b60248201526a1393d517d156141254915160aa1b6044820152606401610a90565b5f828152600e6020908152604080832054808452600f83528184205486855260159093529220805460ff1916600117905561187584611cb4565b5f848152600e6020908152604080832083905583835260109091529020548290036118a9575f818152601060205260408120555b505f908152600d60205260408120600501555050565b5f828152600760205260409020600101546118d981611d9c565b610af38383611e3a565b336118ed83611246565b6001600160a01b0316146119345760405162461bcd60e51b815260206004820152600e60248201526d2727aa2fa92aa622afa7aba722a960911b6044820152606401610a90565b5f8281526013602052604090205481116119865760405162461bcd60e51b815260206004820152601360248201527211561412549657d393d517d156151153911151606a1b6044820152606401610a90565b655af3107a4000348111156119d45760405162461bcd60e51b8152602060048201526014602482015273125394d551919250d251539517d410565351539560621b6044820152606401610a90565b335f908152601260205260409020544281106119fc576119f762278d0082612c88565b611a09565b611a0962278d0042612c88565b335f908152601260205260408082209290925590516001600160a01b037f0000000000000000000000000000000000000000000000000000000000000000169084908381818185875af1925050503d805f8114611a81576040519150601f19603f3d011682016040523d82523d5f602084013e611a86565b606091505b5050905080611ad25760405162461bcd60e51b81526020600482015260186024820152771111541313d6515497d514905394d1915497d1905253115160421b6044820152606401610a90565b82341115611b0f57336108fc611ae88534612c9b565b6040518115909202915f818181858888f19350505050158015611b0d573d5f5f3e3d5ffd5b505b5050505f9182526013602052604090912055565b6001600160a01b039182165f90815260056020908152604080832093909416825291909152205460ff1690565b5f6001600160e01b03198216637965db0b60e01b14806108cb57506108cb82612176565b5f818152600260205260408120546001600160a01b0316806108cb57604051637e27328960e01b815260048101849052602401610a90565b611095838383600161219a565b5f611bc2611c8e565b611bcd84848461229e565b90506001600160a01b038416611c5f575f8381526015602052604090205460ff16611c455760405162461bcd60e51b815260206004820152602260248201527f4255524e5f4f4e4c595f5649415f4558504952595f4f525f414354495641544960448201526127a760f11b6064820152608401610a90565b5f838152601560205260409020805460ff19169055611c87565b6001600160a01b0384165f908152601260209081526040808320548684526013909252909120555b9392505050565b60085460ff1615611cb25760405163d93c066560e01b815260040160405180910390fd5b565b5f611cc05f835f611bb9565b90506001600160a01b038116610a6757604051637e27328960e01b815260048101839052602401610a90565b6001600160a01b038216611d1557604051633250574960e11b81525f6004820152602401610a90565b5f611d2183835f611bb9565b90506001600160a01b03811615611095576040516339e3563760e11b81525f6004820152602401610a90565b5f828152600660205260409020611d648282612b95565b506040518281527ff8e1a15aba9398e019f0b49df1a4fde98ee17ae345cb5f6b5e2c27f5033e8ce79060200160405180910390a15050565b611da68133612390565b50565b5f611db4838361173a565b611e33575f8381526007602090815260408083206001600160a01b03861684529091529020805460ff19166001179055611deb3390565b6001600160a01b0316826001600160a01b0316847f2f8788117e7eff1d82e926ec794901d17c78024a50270940304540a733656f0d60405160405180910390a45060016108cb565b505f6108cb565b5f611e45838361173a565b15611e33575f8381526007602090815260408083206001600160a01b0386168085529252808320805460ff1916905551339286917ff6391f5c32d9c69d2a47ea670b442974b53935d1edc7fd64eb21e047a839171b9190a45060016108cb565b6001600160a01b038216611ed757604051630b61174360e31b81526001600160a01b0383166004820152602401610a90565b6001600160a01b038381165f81815260056020908152604080832094871680845294825291829020805460ff191686151590811790915591519182527f17307eab39ab6107e8899845ad3d59bd9653f200f220920489ca2b5937696c31910160405180910390a3505050565b6001600160a01b0383163b1561206457604051630a85bd0160e11b81526001600160a01b0384169063150b7a0290611f85908890889087908790600401612cae565b6020604051808303815f875af1925050508015611fbf575060408051601f3d908101601f19168201909252611fbc91810190612cea565b60015b612026573d808015611fec576040519150601f19603f3d011682016040523d82523d5f602084013e611ff1565b606091505b5080515f0361201e57604051633250574960e11b81526001600160a01b0385166004820152602401610a90565b805160208201fd5b6001600160e01b03198116630a85bd0160e11b1461206257604051633250574960e11b81526001600160a01b0385166004820152602401610a90565b505b5050505050565b606061207682611b74565b505f828152600660205260408120805461208f90612aed565b80601f01602080910402602001604051908101604052809291908181526020018280546120bb90612aed565b80156121065780601f106120dd57610100808354040283529160200191612106565b820191905f5260205f20905b8154815290600101906020018083116120e957829003601f168201915b505050505090505f61212260408051602081019091525f815290565b905080515f03612133575092915050565b81511561216557808260405160200161214d929190612d1c565b60405160208183030381529060405292505050919050565b61216e846123c9565b949350505050565b5f6001600160e01b03198216632483248360e11b14806108cb57506108cb82612439565b80806121ae57506001600160a01b03821615155b1561226f575f6121bd84611b74565b90506001600160a01b038316158015906121e95750826001600160a01b0316816001600160a01b031614155b80156121fc57506121fa8184611b23565b155b156122255760405163a9fbf51f60e01b81526001600160a01b0384166004820152602401610a90565b811561226d5783856001600160a01b0316826001600160a01b03167f8c5be1e5ebec7d5bd14f71427d1e84f3dd0314c0f7b2291e5b200ac8c7c3b92560405160405180910390a45b505b50505f90815260046020526040902080546001600160a01b0319166001600160a01b0392909216919091179055565b5f828152600260205260408120546001600160a01b03908116908316156122ca576122ca818486612488565b6001600160a01b03811615612304576122e55f855f5f61219a565b6001600160a01b0381165f90815260036020526040902080545f190190555b6001600160a01b03851615612332576001600160a01b0385165f908152600360205260409020805460010190555b5f8481526002602052604080822080546001600160a01b0319166001600160a01b0389811691821790925591518793918516917fddf252ad1be2c89b69c2b068fc378daa952ba7f163c4a11628f55a4df523b3ef91a4949350505050565b61239a828261173a565b610a675760405163e2517d3f60e01b81526001600160a01b038216600482015260248101839052604401610a90565b60606123d482611b74565b505f6123ea60408051602081019091525f815290565b90505f8151116124085760405180602001604052805f815250611c87565b80612412846124ec565b604051602001612423929190612d1c565b6040516020818303038152906040529392505050565b5f6001600160e01b031982166380ac58cd60e01b148061246957506001600160e01b03198216635b5e139f60e01b145b806108cb57506301ffc9a760e01b6001600160e01b03198316146108cb565b61249383838361257c565b611095576001600160a01b0383166124c157604051637e27328960e01b815260048101829052602401610a90565b60405163177e802f60e01b81526001600160a01b038316600482015260248101829052604401610a90565b60605f6124f8836125dd565b60010190505f8167ffffffffffffffff811115612517576125176129b4565b6040519080825280601f01601f191660200182016040528015612541576020820181803683370190505b5090508181016020015b5f19016f181899199a1a9b1b9c1cb0b131b232b360811b600a86061a8153600a850494508461254b57509392505050565b5f6001600160a01b0383161580159061216e5750826001600160a01b0316846001600160a01b031614806125b557506125b58484611b23565b8061216e5750505f908152600460205260409020546001600160a01b03908116911614919050565b5f8072184f03e93ff9f4daa797ed6e38ed64bf6a1f0160401b831061261b5772184f03e93ff9f4daa797ed6e38ed64bf6a1f0160401b830492506040015b6d04ee2d6d415b85acef81000000008310612647576d04ee2d6d415b85acef8100000000830492506020015b662386f26fc10000831061266557662386f26fc10000830492506010015b6305f5e100831061267d576305f5e100830492506008015b612710831061269157612710830492506004015b606483106126a3576064830492506002015b600a83106108cb5760010192915050565b6001600160e01b031981168114611da6575f5ffd5b5f602082840312156126d9575f5ffd5b8135611c87816126b4565b5f602082840312156126f4575f5ffd5b5035919050565b5f81518084528060208401602086015e5f602082860101526020601f19601f83011685010191505092915050565b87815260e060208201525f61274160e08301896126fb565b6001600160a01b0397909716604083015250606081019490945261ffff929092166080840152151560a083015260c09091015292915050565b602081525f611c8760208301846126fb565b80356001600160a01b03811681146127a2575f5ffd5b919050565b5f5f604083850312156127b8575f5ffd5b6127c18361278c565b946020939093013593505050565b5f5f5f606084860312156127e1575f5ffd5b6127ea8461278c565b92506127f86020850161278c565b929592945050506040919091013590565b5f5f83601f840112612819575f5ffd5b50813567ffffffffffffffff811115612830575f5ffd5b602083019150836020828501011115612847575f5ffd5b9250929050565b5f5f5f60408486031215612860575f5ffd5b83359250602084013567ffffffffffffffff81111561287d575f5ffd5b61288986828701612809565b9497909650939450505050565b5f5f604083850312156128a7575f5ffd5b823591506128b76020840161278c565b90509250929050565b87815260e060208201525f6128d860e08301896126fb565b6001600160a01b0397909716604083015250606081019490945261ffff929092166080840152151560a0830152151560c09091015292915050565b5f60208284031215612923575f5ffd5b611c878261278c565b5f5f5f5f6060858703121561293f575f5ffd5b8435935060208501359250604085013567ffffffffffffffff811115612963575f5ffd5b61296f87828801612809565b95989497509550505050565b5f5f6040838503121561298c575f5ffd5b6129958361278c565b9150602083013580151581146129a9575f5ffd5b809150509250929050565b634e487b7160e01b5f52604160045260245ffd5b5f5f5f5f608085870312156129db575f5ffd5b6129e48561278c565b93506129f26020860161278c565b925060408501359150606085013567ffffffffffffffff811115612a14575f5ffd5b8501601f81018713612a24575f5ffd5b803567ffffffffffffffff811115612a3e57612a3e6129b4565b604051601f8201601f19908116603f0116810167ffffffffffffffff81118282101715612a6d57612a6d6129b4565b604052818152828201602001891015612a84575f5ffd5b816020840160208301375f6020838301015280935050505092959194509250565b5f5f60408385031215612ab6575f5ffd5b50508035926020909101359150565b5f5f60408385031215612ad6575f5ffd5b612adf8361278c565b91506128b76020840161278c565b600181811c90821680612b0157607f821691505b602082108103612b1f57634e487b7160e01b5f52602260045260245ffd5b50919050565b634e487b7160e01b5f52601160045260245ffd5b5f60018201612b4a57612b4a612b25565b5060010190565b601f82111561109557805f5260205f20601f840160051c81016020851015612b765750805b601f840160051c820191505b81811015612064575f8155600101612b82565b815167ffffffffffffffff811115612baf57612baf6129b4565b612bc381612bbd8454612aed565b84612b51565b6020601f821160018114612bf5575f8315612bde5750848201515b5f19600385901b1c1916600184901b178455612064565b5f84815260208120601f198516915b82811015612c245787850151825560209485019460019092019101612c04565b5084821015612c4157868401515f19600387901b60f8161c191681555b50505050600190811b01905550565b5f60ff821660ff8103612c6557612c65612b25565b60010192915050565b61ffff81811683821601908111156108cb576108cb612b25565b808201808211156108cb576108cb612b25565b818103818111156108cb576108cb612b25565b6001600160a01b03858116825284166020820152604081018390526080606082018190525f90612ce0908301846126fb565b9695505050505050565b5f60208284031215612cfa575f5ffd5b8151611c87816126b4565b5f81518060208401855e5f93019283525090919050565b5f61216e612d2a8386612d05565b84612d0556fea2646970667358221220eb0fa8408c7e15582b47502e6d4ab42f16ab562e09f22fc826374f520ae9ddb864736f6c634300081c0033",
  "linkReferences": {},
  "deployedLinkReferences": {},
  "immutableReferences": {
    "7137": [
      {
        "length": 32,
        "start": 1979
      },
      {
        "length": 32,
        "start": 5643
      },
      {
        "length": 32,
        "start": 6696
      }
    ]
  },
  "inputSourceName": "project/contracts/RuleItemERC721.sol",
  "buildInfoId": "solc-0_8_28-79dedc515f0736893936ce69540bda2f49f75314"
}