{
  "_format": "hh3-artifact-1",
  "contractName": "PayWithPayID",
  "sourceName": "contracts/PayWithPayID.sol",
  "abi": [
    {
      "inputs": [
        {
          "internalType": "address",
          "name": "verifier_",
          "type": "address"
        },
        {
          "internalType": "address",
          "name": "attestationVerifier_",
          "type": "address"
        }
      ],
      "stateMutability": "nonpayable",
      "type": "constructor"
    },
    {
      "anonymous": false,
      "inputs": [
        {
          "indexed": true,
          "internalType": "address",
          "name": "payer",
          "type": "address"
        },
        {
          "indexed": true,
          "internalType": "address",
          "name": "receiver",
          "type": "address"
        },
        {
          "indexed": true,
          "internalType": "address",
          "name": "asset",
          "type": "address"
        },
        {
          "indexed": false,
          "internalType": "uint256",
          "name": "amount",
          "type": "uint256"
        },
        {
          "indexed": false,
          "internalType": "bytes32",
          "name": "payId",
          "type": "bytes32"
        },
        {
          "indexed": false,
          "internalType": "bytes32",
          "name": "nonce",
          "type": "bytes32"
        }
      ],
      "name": "PaymentERC20",
      "type": "event"
    },
    {
      "anonymous": false,
      "inputs": [
        {
          "indexed": true,
          "internalType": "address",
          "name": "payer",
          "type": "address"
        },
        {
          "indexed": true,
          "internalType": "address",
          "name": "receiver",
          "type": "address"
        },
        {
          "indexed": false,
          "internalType": "uint256",
          "name": "amount",
          "type": "uint256"
        },
        {
          "indexed": false,
          "internalType": "bytes32",
          "name": "payId",
          "type": "bytes32"
        },
        {
          "indexed": false,
          "internalType": "bytes32",
          "name": "nonce",
          "type": "bytes32"
        }
      ],
      "name": "PaymentETH",
      "type": "event"
    },
    {
      "inputs": [],
      "name": "attestationVerifier",
      "outputs": [
        {
          "internalType": "contract AttestationVerifier",
          "name": "",
          "type": "address"
        }
      ],
      "stateMutability": "view",
      "type": "function"
    },
    {
      "inputs": [
        {
          "components": [
            {
              "internalType": "bytes32",
              "name": "version",
              "type": "bytes32"
            },
            {
              "internalType": "bytes32",
              "name": "payId",
              "type": "bytes32"
            },
            {
              "internalType": "address",
              "name": "payer",
              "type": "address"
            },
            {
              "internalType": "address",
              "name": "receiver",
              "type": "address"
            },
            {
              "internalType": "address",
              "name": "asset",
              "type": "address"
            },
            {
              "internalType": "uint256",
              "name": "amount",
              "type": "uint256"
            },
            {
              "internalType": "bytes32",
              "name": "contextHash",
              "type": "bytes32"
            },
            {
              "internalType": "bytes32",
              "name": "ruleSetHash",
              "type": "bytes32"
            },
            {
              "internalType": "address",
              "name": "ruleAuthority",
              "type": "address"
            },
            {
              "internalType": "uint64",
              "name": "issuedAt",
              "type": "uint64"
            },
            {
              "internalType": "uint64",
              "name": "expiresAt",
              "type": "uint64"
            },
            {
              "internalType": "bytes32",
              "name": "nonce",
              "type": "bytes32"
            },
            {
              "internalType": "bool",
              "name": "requiresAttestation",
              "type": "bool"
            }
          ],
          "internalType": "struct PayIDVerifier.Decision",
          "name": "d",
          "type": "tuple"
        },
        {
          "internalType": "bytes",
          "name": "sig",
          "type": "bytes"
        },
        {
          "internalType": "bytes32[]",
          "name": "attestationUIDs",
          "type": "bytes32[]"
        }
      ],
      "name": "payERC20",
      "outputs": [],
      "stateMutability": "nonpayable",
      "type": "function"
    },
    {
      "inputs": [
        {
          "components": [
            {
              "internalType": "bytes32",
              "name": "version",
              "type": "bytes32"
            },
            {
              "internalType": "bytes32",
              "name": "payId",
              "type": "bytes32"
            },
            {
              "internalType": "address",
              "name": "payer",
              "type": "address"
            },
            {
              "internalType": "address",
              "name": "receiver",
              "type": "address"
            },
            {
              "internalType": "address",
              "name": "asset",
              "type": "address"
            },
            {
              "internalType": "uint256",
              "name": "amount",
              "type": "uint256"
            },
            {
              "internalType": "bytes32",
              "name": "contextHash",
              "type": "bytes32"
            },
            {
              "internalType": "bytes32",
              "name": "ruleSetHash",
              "type": "bytes32"
            },
            {
              "internalType": "address",
              "name": "ruleAuthority",
              "type": "address"
            },
            {
              "internalType": "uint64",
              "name": "issuedAt",
              "type": "uint64"
            },
            {
              "internalType": "uint64",
              "name": "expiresAt",
              "type": "uint64"
            },
            {
              "internalType": "bytes32",
              "name": "nonce",
              "type": "bytes32"
            },
            {
              "internalType": "bool",
              "name": "requiresAttestation",
              "type": "bool"
            }
          ],
          "internalType": "struct PayIDVerifier.Decision",
          "name": "d",
          "type": "tuple"
        },
        {
          "internalType": "bytes",
          "name": "sig",
          "type": "bytes"
        },
        {
          "internalType": "bytes32[]",
          "name": "attestationUIDs",
          "type": "bytes32[]"
        }
      ],
      "name": "payETH",
      "outputs": [],
      "stateMutability": "payable",
      "type": "function"
    },
    {
      "inputs": [],
      "name": "verifier",
      "outputs": [
        {
          "internalType": "contract PayIDVerifier",
          "name": "",
          "type": "address"
        }
      ],
      "stateMutability": "view",
      "type": "function"
    }
  ],
  "bytecode": "0x60c060405234801561000f575f5ffd5b50604051610bc1380380610bc183398101604081905261002e91610060565b6001600160a01b039182166080521660a052610091565b80516001600160a01b038116811461005b575f5ffd5b919050565b5f5f60408385031215610071575f5ffd5b61007a83610045565b915061008860208401610045565b90509250929050565b60805160a051610af56100cc5f395f818160d601528181610162015261049b01525f81816068015281816101fb01526105340152610af55ff3fe60806040526004361061003e575f3560e01c8063060aa288146100425780632b7ac3f31461005757806399f6a8c8146100a6578063b4b3c5a0146100c5575b5f5ffd5b6100556100503660046107e1565b6100f8565b005b348015610062575f5ffd5b5061008a7f000000000000000000000000000000000000000000000000000000000000000081565b6040516001600160a01b03909116815260200160405180910390f35b3480156100b1575f5ffd5b506100556100c03660046107e1565b610436565b3480156100d0575f5ffd5b5061008a7f000000000000000000000000000000000000000000000000000000000000000081565b61010a6101a0860161018087016108bb565b156101e457806101585760405162461bcd60e51b81526020600482015260146024820152731055151154d510551253d397d49154555254915160621b60448201526064015b60405180910390fd5b6001600160a01b037f00000000000000000000000000000000000000000000000000000000000000001663cc600a9a838361019960608a0160408b016108f3565b6040518463ffffffff1660e01b81526004016101b79392919061090c565b5f6040518083038186803b1580156101cd575f5ffd5b505afa1580156101df573d5f5f3e3d5ffd5b505050505b604051632daff3d360e21b81526001600160a01b037f0000000000000000000000000000000000000000000000000000000000000000169063b6bfcf4c9061023490889088908890600401610990565b5f604051808303815f87803b15801561024b575f5ffd5b505af115801561025d573d5f5f3e3d5ffd5b505f925061027491505060a08701608088016108f3565b6001600160a01b0316146102ba5760405162461bcd60e51b815260206004820152600d60248201526c082a6a68aa8be9c9ea8be8aa89609b1b604482015260640161014f565b8460a0013534146102ff5760405162461bcd60e51b815260206004820152600f60248201526e0829a9eaa9ca8be9a92a69a82a8869608b1b604482015260640161014f565b5f61031060808701606088016108f3565b6001600160a01b0316346040515f6040518083038185875af1925050503d805f8114610357576040519150601f19603f3d011682016040523d82523d5f602084013e61035c565b606091505b50509050806103a35760405162461bcd60e51b815260206004820152601360248201527211551217d514905394d1915497d19052531151606a1b604482015260640161014f565b6103b360808701606088016108f3565b6001600160a01b03166103cc60608801604089016108f3565b6001600160a01b03167f024c9755552d5294bffc9fdfb51320404678375c011c29e4195dd33bd8de90718860a0013589602001358a6101600135604051610426939291909283526020830191909152604082015260600190565b60405180910390a3505050505050565b6104486101a0860161018087016108bb565b1561051d57806104915760405162461bcd60e51b81526020600482015260146024820152731055151154d510551253d397d49154555254915160621b604482015260640161014f565b6001600160a01b037f00000000000000000000000000000000000000000000000000000000000000001663cc600a9a83836104d260608a0160408b016108f3565b6040518463ffffffff1660e01b81526004016104f09392919061090c565b5f6040518083038186803b158015610506575f5ffd5b505afa158015610518573d5f5f3e3d5ffd5b505050505b604051632daff3d360e21b81526001600160a01b037f0000000000000000000000000000000000000000000000000000000000000000169063b6bfcf4c9061056d90889088908890600401610990565b5f604051808303815f87803b158015610584575f5ffd5b505af1158015610596573d5f5f3e3d5ffd5b505f92506105ad91505060a08701608088016108f3565b6001600160a01b0316036105f55760405162461bcd60e51b815260206004820152600f60248201526e041535345545f4e4f545f455243323608c1b604482015260640161014f565b5f61060660a08701608088016108f3565b6001600160a01b03166323b872dd6106246060890160408a016108f3565b61063460808a0160608b016108f3565b6040516001600160e01b031960e085901b1681526001600160a01b0392831660048201529116602482015260a089013560448201526064016020604051808303815f875af1158015610688573d5f5f3e3d5ffd5b505050506040513d601f19601f820116820180604052508101906106ac9190610aa4565b9050806106ed5760405162461bcd60e51b815260206004820152600f60248201526e1514905394d1915497d19052531151608a1b604482015260640161014f565b6106fd60a08701608088016108f3565b6001600160a01b031661071660808801606089016108f3565b6001600160a01b031661072f6060890160408a016108f3565b6001600160a01b03167f0fffc78c87834dc5e7ba16e472767d7cde8dc6fd91db1cf448a929627dbe26388960a001358a602001358b6101600135604051610789939291909283526020830191909152604082015260600190565b60405180910390a4505050505050565b5f5f83601f8401126107a9575f5ffd5b50813567ffffffffffffffff8111156107c0575f5ffd5b6020830191508360208260051b85010111156107da575f5ffd5b9250929050565b5f5f5f5f5f8587036101e08112156107f7575f5ffd5b6101a0811215610805575f5ffd5b508594506101a086013567ffffffffffffffff811115610823575f5ffd5b8601601f81018813610833575f5ffd5b803567ffffffffffffffff811115610849575f5ffd5b88602082840101111561085a575f5ffd5b602091909101945092506101c086013567ffffffffffffffff81111561087e575f5ffd5b61088a88828901610799565b969995985093965092949392505050565b80151581146108a8575f5ffd5b50565b80356108b68161089b565b919050565b5f602082840312156108cb575f5ffd5b81356108d68161089b565b9392505050565b80356001600160a01b03811681146108b6575f5ffd5b5f60208284031215610903575f5ffd5b6108d6826108dd565b604080825281018390525f6001600160fb1b0384111561092a575f5ffd5b8360051b808660608501376001600160a01b03939093166020830152500160600192915050565b803567ffffffffffffffff811681146108b6575f5ffd5b81835281816020850137505f828201602090810191909152601f909101601f19169091010190565b83358152602080850135908201525f6109ab604086016108dd565b6001600160a01b031660408301526109c5606086016108dd565b6001600160a01b031660608301526109df608086016108dd565b6001600160a01b0316608083015260a0858101359083015260c0808601359083015260e08086013590830152610a1861010086016108dd565b6001600160a01b0316610100830152610a346101208601610951565b67ffffffffffffffff16610120830152610a516101408601610951565b67ffffffffffffffff166101408301526101608581013590830152610a7961018086016108ab565b801515610180840152506101c06101a0830152610a9b6101c083018486610968565b95945050505050565b5f60208284031215610ab4575f5ffd5b81516108d68161089b56fea2646970667358221220acd26d4f925cf0def397c7ce5fe0ef485126b747bcfb9d0c0cbe12f1fcace87a64736f6c634300081c0033",
  "linkReferences": {},
  "deployedLinkReferences": {},
  "immutableReferences": {
    "7068": [
      {
        "length": 32,
        "start": 104
      },
      {
        "length": 32,
        "start": 507
      },
      {
        "length": 32,
        "start": 1332
      }
    ],
    "7071": [
      {
        "length": 32,
        "start": 214
      },
      {
        "length": 32,
        "start": 354
      },
      {
        "length": 32,
        "start": 1179
      }
    ]
  },
  "inputSourceName": "project/contracts/PayWithPayID.sol",
  "buildInfoId": "solc-0_8_28-45e0f3026ccb4f3b0167666e58663aab54621bfc"
}