{
  "_format": "hh3-artifact-1",
  "contractName": "CombinedRuleStorage",
  "sourceName": "contracts/CombinedRuleStorage.sol",
  "abi": [
    {
      "anonymous": false,
      "inputs": [
        {
          "indexed": true,
          "internalType": "bytes32",
          "name": "ruleSetHash",
          "type": "bytes32"
        }
      ],
      "name": "CombinedRuleDeactivated",
      "type": "event"
    },
    {
      "anonymous": false,
      "inputs": [
        {
          "indexed": true,
          "internalType": "bytes32",
          "name": "ruleSetHash",
          "type": "bytes32"
        },
        {
          "indexed": true,
          "internalType": "address",
          "name": "oldOwner",
          "type": "address"
        },
        {
          "indexed": true,
          "internalType": "address",
          "name": "newOwner",
          "type": "address"
        }
      ],
      "name": "CombinedRuleOwnershipSynced",
      "type": "event"
    },
    {
      "anonymous": false,
      "inputs": [
        {
          "indexed": true,
          "internalType": "bytes32",
          "name": "ruleSetHash",
          "type": "bytes32"
        },
        {
          "indexed": true,
          "internalType": "address",
          "name": "owner",
          "type": "address"
        },
        {
          "indexed": false,
          "internalType": "uint64",
          "name": "version",
          "type": "uint64"
        }
      ],
      "name": "CombinedRuleRegistered",
      "type": "event"
    },
    {
      "anonymous": false,
      "inputs": [
        {
          "indexed": true,
          "internalType": "bytes32",
          "name": "ruleSetHash",
          "type": "bytes32"
        },
        {
          "indexed": true,
          "internalType": "address",
          "name": "owner",
          "type": "address"
        },
        {
          "indexed": true,
          "internalType": "enum CombinedRuleStorage.RuleDirection",
          "name": "direction",
          "type": "uint8"
        },
        {
          "indexed": false,
          "internalType": "uint64",
          "name": "version",
          "type": "uint64"
        }
      ],
      "name": "CombinedRuleRegisteredWithDirection",
      "type": "event"
    },
    {
      "inputs": [],
      "name": "MAX_RULES",
      "outputs": [
        {
          "internalType": "uint256",
          "name": "",
          "type": "uint256"
        }
      ],
      "stateMutability": "view",
      "type": "function"
    },
    {
      "inputs": [
        {
          "internalType": "address",
          "name": "",
          "type": "address"
        }
      ],
      "name": "activeRuleOf",
      "outputs": [
        {
          "internalType": "bytes32",
          "name": "",
          "type": "bytes32"
        }
      ],
      "stateMutability": "view",
      "type": "function"
    },
    {
      "inputs": [
        {
          "internalType": "address",
          "name": "",
          "type": "address"
        },
        {
          "internalType": "enum CombinedRuleStorage.RuleDirection",
          "name": "",
          "type": "uint8"
        }
      ],
      "name": "activeRuleOfByDirection",
      "outputs": [
        {
          "internalType": "bytes32",
          "name": "",
          "type": "bytes32"
        }
      ],
      "stateMutability": "view",
      "type": "function"
    },
    {
      "inputs": [],
      "name": "deactivateMyCombinedRule",
      "outputs": [],
      "stateMutability": "nonpayable",
      "type": "function"
    },
    {
      "inputs": [
        {
          "internalType": "address",
          "name": "owner",
          "type": "address"
        }
      ],
      "name": "getActiveRuleOf",
      "outputs": [
        {
          "internalType": "bytes32",
          "name": "ruleSetHash",
          "type": "bytes32"
        }
      ],
      "stateMutability": "view",
      "type": "function"
    },
    {
      "inputs": [
        {
          "internalType": "address",
          "name": "owner",
          "type": "address"
        },
        {
          "internalType": "enum CombinedRuleStorage.RuleDirection",
          "name": "direction",
          "type": "uint8"
        }
      ],
      "name": "getActiveRuleOfByDirection",
      "outputs": [
        {
          "internalType": "bytes32",
          "name": "ruleSetHash",
          "type": "bytes32"
        }
      ],
      "stateMutability": "view",
      "type": "function"
    },
    {
      "inputs": [
        {
          "internalType": "bytes32",
          "name": "ruleSetHash",
          "type": "bytes32"
        }
      ],
      "name": "getRuleByHash",
      "outputs": [
        {
          "internalType": "address",
          "name": "owner",
          "type": "address"
        },
        {
          "components": [
            {
              "internalType": "address",
              "name": "ruleNFT",
              "type": "address"
            },
            {
              "internalType": "uint256",
              "name": "tokenId",
              "type": "uint256"
            }
          ],
          "internalType": "struct CombinedRuleStorage.RuleRef[]",
          "name": "ruleRefs",
          "type": "tuple[]"
        },
        {
          "internalType": "uint64",
          "name": "version",
          "type": "uint64"
        }
      ],
      "stateMutability": "view",
      "type": "function"
    },
    {
      "inputs": [
        {
          "internalType": "bytes32",
          "name": "ruleSetHash",
          "type": "bytes32"
        }
      ],
      "name": "isActive",
      "outputs": [
        {
          "internalType": "bool",
          "name": "",
          "type": "bool"
        }
      ],
      "stateMutability": "view",
      "type": "function"
    },
    {
      "inputs": [],
      "name": "listAllRuleSetHashes",
      "outputs": [
        {
          "internalType": "bytes32[]",
          "name": "",
          "type": "bytes32[]"
        }
      ],
      "stateMutability": "view",
      "type": "function"
    },
    {
      "inputs": [
        {
          "internalType": "bytes32",
          "name": "ruleSetHash",
          "type": "bytes32"
        },
        {
          "internalType": "address[]",
          "name": "ruleNFTs",
          "type": "address[]"
        },
        {
          "internalType": "uint256[]",
          "name": "tokenIds",
          "type": "uint256[]"
        },
        {
          "internalType": "uint64",
          "name": "version",
          "type": "uint64"
        }
      ],
      "name": "registerCombinedRule",
      "outputs": [],
      "stateMutability": "nonpayable",
      "type": "function"
    },
    {
      "inputs": [
        {
          "internalType": "bytes32",
          "name": "ruleSetHash",
          "type": "bytes32"
        },
        {
          "internalType": "enum CombinedRuleStorage.RuleDirection",
          "name": "direction",
          "type": "uint8"
        },
        {
          "internalType": "address[]",
          "name": "ruleNFTs",
          "type": "address[]"
        },
        {
          "internalType": "uint256[]",
          "name": "tokenIds",
          "type": "uint256[]"
        },
        {
          "internalType": "uint64",
          "name": "version",
          "type": "uint64"
        }
      ],
      "name": "registerCombinedRuleForDirection",
      "outputs": [],
      "stateMutability": "nonpayable",
      "type": "function"
    },
    {
      "inputs": [
        {
          "internalType": "bytes32",
          "name": "ruleSetHash",
          "type": "bytes32"
        }
      ],
      "name": "syncOwner",
      "outputs": [],
      "stateMutability": "nonpayable",
      "type": "function"
    },
    {
      "inputs": [
        {
          "internalType": "address",
          "name": "",
          "type": "address"
        },
        {
          "internalType": "uint256",
          "name": "",
          "type": "uint256"
        }
      ],
      "name": "usedRuleNFT",
      "outputs": [
        {
          "internalType": "bool",
          "name": "",
          "type": "bool"
        }
      ],
      "stateMutability": "view",
      "type": "function"
    }
  ],
  "bytecode": "0x6080604052348015600e575f5ffd5b506117228061001c5f395ff3fe608060405234801561000f575f5ffd5b50600436106100cb575f3560e01c8063742de4101161008857806380a4bdce1161006357806380a4bdce146101df5780639ec296f2146101f4578063e0fd95b9146101fc578063fbbb237714610226575f5ffd5b8063742de4101461019a5780637d345996146101ad5780637f9f4013146101cc575f5ffd5b806305b5daca146100cf5780630eb7798a1461010c57806330c276411461012e5780633c9384fb146101435780635c36901c146101565780636c96598a14610192575b5f5ffd5b6100f96100dd366004611266565b600360209081525f928352604080842090915290825290205481565b6040519081526020015b60405180910390f35b61011f61011a366004611299565b610239565b604051610103939291906112b0565b61014161013c366004611299565b61031a565b005b610141610151366004611389565b610625565b610182610164366004611299565b5f90815260016020526040902060030154600160401b900460ff1690565b6040519015158152602001610103565b61014161063e565b6100f96101a8366004611266565b6106ea565b6100f96101bb366004611420565b60026020525f908152604090205481565b6100f96101da366004611420565b61078a565b6101e76107e5565b6040516101039190611442565b6100f9600a81565b61018261020a366004611484565b5f60208181529281526040808220909352908152205460ff1681565b6101416102343660046114ae565b61083b565b5f81815260016020526040812060038101546060918391600160401b900460ff1661027f5760405162461bcd60e51b815260040161027690611534565b60405180910390fd5b80546003820154600283018054604080516020808402820181019092528281526001600160a01b039095169492936001600160401b0316929184915f9084015b82821015610306575f848152602090819020604080518082019091526002850290910180546001600160a01b031682526001908101548284015290835290920191016102bf565b505050509150935093509350509193909250565b5f8181526001602052604090206003810154600160401b900460ff166103525760405162461bcd60e51b815260040161027690611534565b60028101546103915760405162461bcd60e51b815260206004820152600b60248201526a454d5054595f52554c455360a81b6044820152606401610276565b5f816002015f815481106103a7576103a761155d565b5f918252602082206002918202015490840180546001600160a01b0390921692636352211e926103d9576103d961155d565b905f5260205f209060020201600101546040518263ffffffff1660e01b815260040161040791815260200190565b602060405180830381865afa158015610422573d5f5f3e3d5ffd5b505050506040513d601f19601f82011682018060405250810190610446919061157c565b905060015b600283015481101561057957816001600160a01b03168360020182815481106104765761047661155d565b5f91825260209091206002918202015490850180546001600160a01b0390921691636352211e9190859081106104ae576104ae61155d565b905f5260205f209060020201600101546040518263ffffffff1660e01b81526004016104dc91815260200190565b602060405180830381865afa1580156104f7573d5f5f3e3d5ffd5b505050506040513d601f19601f8201168201806040525081019061051b919061157c565b6001600160a01b0316146105715760405162461bcd60e51b815260206004820152601860248201527f52554c455f4e46545f4f574e4552534849505f53504c495400000000000000006044820152606401610276565b60010161044b565b5081546001600160a01b038281169116146106205781546001600160a01b03165f818152600260205260409020548490036105c7576001600160a01b0381165f908152600260205260408120555b82546001600160a01b0319166001600160a01b0383811691821785555f82815260026020526040808220889055519184169187917f81a14da867dd8594091cc0b22b62b01d741e9dcc1b568b619850000ce29b83eb91a4505b505050565b6106358786868686865f8d610854565b50505050505050565b335f908152600260205260409020548061068b5760405162461bcd60e51b815260206004820152600e60248201526d4e4f5f4143544956455f52554c4560901b6044820152606401610276565b5f818152600160209081526040808320600301805460ff60401b1916905533835260029091528120556106bd81610e3f565b60405181907fd0628cd5bd285fc434b5130be6fb4a9bdaeb0edc5e04907b28dd41696ef3ec0f905f90a250565b6001600160a01b0382165f9081526003602052604081208183600181111561071457610714611597565b600181111561072557610725611597565b815260208101919091526040015f20549050806107845760405162461bcd60e51b815260206004820152601c60248201527f4e4f5f4143544956455f52554c455f464f525f444952454354494f4e000000006044820152606401610276565b92915050565b6001600160a01b0381165f90815260026020526040902054806107e05760405162461bcd60e51b815260206004820152600e60248201526d4e4f5f4143544956455f52554c4560901b6044820152606401610276565b919050565b6060600480548060200260200160405190810160405280929190818152602001828054801561083157602002820191905f5260205f20905b81548152602001906001019080831161081d575b5050505050905090565b61084c868686868686600180610854565b505050505050565b876108905760405162461bcd60e51b815260206004820152600c60248201526b0929cac82989288be9082a6960a31b6044820152606401610276565b856108ce5760405162461bcd60e51b815260206004820152600e60248201526d115354151657d495531157d4d15560921b6044820152606401610276565b600a86111561090e5760405162461bcd60e51b815260206004820152600c60248201526b4d41585f31305f52554c455360a01b6044820152606401610276565b8584146109555760405162461bcd60e51b8152602060048201526015602482015274082a4a482b2be988a9c8ea890be9a92a69a82a8869605b1b6044820152606401610276565b81156109b957335f9081526002602052604090205480156109b3575f81815260016020526040808220600301805460ff60401b191690555182917fd0628cd5bd285fc434b5130be6fb4a9bdaeb0edc5e04907b28dd41696ef3ec0f91a25b50610a48565b335f908152600360205260408120818360018111156109da576109da611597565b60018111156109eb576109eb611597565b815260208101919091526040015f205490508015610a46575f81815260016020526040808220600301805460ff60401b191690555182917fd0628cd5bd285fc434b5130be6fb4a9bdaeb0edc5e04907b28dd41696ef3ec0f91a25b505b5f8881526005602052604090205460ff16610aaa575f888152600560205260408120805460ff191660019081179091556004805491820181559091527f8a35acfbc15ff81a39ae7d344fd709f28e8600b4aa8c65c6b64bfe7fe36bd19b018890555b5f88815260016020526040812090610ac69060028301906111fa565b5f5b87811015610d06575f5f8a8a84818110610ae457610ae461155d565b9050602002016020810190610af99190611420565b6001600160a01b03166001600160a01b031681526020019081526020015f205f888884818110610b2b57610b2b61155d565b602090810292909201358352508101919091526040015f205460ff1615610b8c5760405162461bcd60e51b81526020600482015260156024820152741495531157d3919517d053149150511657d554d151605a1b6044820152606401610276565b60015f5f8b8b85818110610ba257610ba261155d565b9050602002016020810190610bb79190611420565b6001600160a01b03166001600160a01b031681526020019081526020015f205f898985818110610be957610be961155d565b9050602002013581526020019081526020015f205f6101000a81548160ff021916908315150217905550610c5c898983818110610c2857610c2861155d565b9050602002016020810190610c3d9190611420565b888884818110610c4f57610c4f61155d565b9050602002013533610ee9565b8160020160405180604001604052808b8b85818110610c7d57610c7d61155d565b9050602002016020810190610c929190611420565b6001600160a01b03168152602001898985818110610cb257610cb261155d565b602090810292909201359092528354600180820186555f95865294829020845160029092020180546001600160a01b0319166001600160a01b03909216919091178155920151918301919091555001610ac8565b5080546001600160a01b031916331781556001810189905560038101805468ffffffffffffffffff19166001600160401b03861617600160401b1790558215610d9e57335f818152600260209081526040918290208c905590516001600160401b03871681528b917f8575d2f640993a1ca4150f6861b6dd158ca55829ddd4eba68889b372cbf0efdb910160405180910390a3610e34565b335f9081526003602052604081208a91846001811115610dc057610dc0611597565b6001811115610dd157610dd1611597565b815260208101919091526040015f2055816001811115610df357610df3611597565b6040516001600160401b038616815233908b907f180e1cef5c93a3292fc87dc50dabbaf0d29b372161f9fc7ca0926f7152e4f47a9060200160405180910390a45b505050505050505050565b5f818152600160205260408120600201905b8154811015610620575f5f5f848481548110610e6f57610e6f61155d565b5f91825260208083206002909202909101546001600160a01b0316835282019290925260400181208454909190859085908110610eae57610eae61155d565b5f91825260208083206001600290930201820154845283019390935260409091019020805492151560ff199093169290921790915501610e51565b5f836001600160a01b03163b11610f425760405162461bcd60e51b815260206004820152601960248201527f494e56414c49445f52554c455f4e46545f434f4e5452414354000000000000006044820152606401610276565b6040516331a9108f60e11b81526004810183905283906001600160a01b038381169190831690636352211e90602401602060405180830381865afa158015610f8c573d5f5f3e3d5ffd5b505050506040513d601f19601f82011682018060405250810190610fb0919061157c565b6001600160a01b031614610ffb5760405162461bcd60e51b81526020600482015260126024820152712727aa2fa92aa622afa7232a2fa7aba722a960711b6044820152606401610276565b6040516306c80c8160e51b8152600481018490525f906001600160a01b0383169063d901902090602401602060405180830381865afa158015611040573d5f5f3e3d5ffd5b505050506040513d601f19601f8201168201806040525081019061106491906115ab565b90508015806110735750428110155b6110ae5760405162461bcd60e51b815260206004820152600c60248201526b1495531157d156141254915160a21b6044820152606401610276565b6040516305147b1360e51b8152600481018590525f906001600160a01b0384169063a28f626090602401602060405180830381865afa1580156110f3573d5f5f3e3d5ffd5b505050506040513d601f19601f8201168201806040525081019061111791906115ab565b90505f5f846001600160a01b03166348462037846040518263ffffffff1660e01b815260040161114991815260200190565b5f60405180830381865afa158015611163573d5f5f3e3d5ffd5b505050506040513d5f823e601f3d908101601f1916820160405261118a91908101906115f6565b96509650505050505081156111d35760405162461bcd60e51b815260206004820152600f60248201526e1495531157d11154149150d0551151608a1b6044820152606401610276565b806111f05760405162461bcd60e51b815260040161027690611534565b5050505050505050565b5080545f8255600202905f5260205f2090810190611218919061121b565b50565b5b808211156112405780546001600160a01b03191681555f600182015560020161121c565b5090565b6001600160a01b0381168114611218575f5ffd5b8035600281106107e0575f5ffd5b5f5f60408385031215611277575f5ffd5b823561128281611244565b915061129060208401611258565b90509250929050565b5f602082840312156112a9575f5ffd5b5035919050565b6001600160a01b03841681526060602080830182905284519183018290525f91908501906080840190835b8181101561130e57835180516001600160a01b0316845260209081015181850152909301926040909201916001016112db565b505080925050506001600160401b0383166040830152949350505050565b5f5f83601f84011261133c575f5ffd5b5081356001600160401b03811115611352575f5ffd5b6020830191508360208260051b850101111561136c575f5ffd5b9250929050565b80356001600160401b03811681146107e0575f5ffd5b5f5f5f5f5f5f5f60a0888a03121561139f575f5ffd5b873596506113af60208901611258565b955060408801356001600160401b038111156113c9575f5ffd5b6113d58a828b0161132c565b90965094505060608801356001600160401b038111156113f3575f5ffd5b6113ff8a828b0161132c565b9094509250611412905060808901611373565b905092959891949750929550565b5f60208284031215611430575f5ffd5b813561143b81611244565b9392505050565b602080825282518282018190525f918401906040840190835b8181101561147957835183526020938401939092019160010161145b565b509095945050505050565b5f5f60408385031215611495575f5ffd5b82356114a081611244565b946020939093013593505050565b5f5f5f5f5f5f608087890312156114c3575f5ffd5b8635955060208701356001600160401b038111156114df575f5ffd5b6114eb89828a0161132c565b90965094505060408701356001600160401b03811115611509575f5ffd5b61151589828a0161132c565b9094509250611528905060608801611373565b90509295509295509295565b6020808252600f908201526e52554c455f4e4f545f41435449564560881b604082015260600190565b634e487b7160e01b5f52603260045260245ffd5b80516107e081611244565b5f6020828403121561158c575f5ffd5b815161143b81611244565b634e487b7160e01b5f52602160045260245ffd5b5f602082840312156115bb575f5ffd5b5051919050565b634e487b7160e01b5f52604160045260245ffd5b805161ffff811681146107e0575f5ffd5b805180151581146107e0575f5ffd5b5f5f5f5f5f5f5f60e0888a03121561160c575f5ffd5b8751965060208801516001600160401b03811115611628575f5ffd5b8801601f81018a13611638575f5ffd5b80516001600160401b03811115611651576116516115c2565b604051601f8201601f19908116603f011681016001600160401b038111828210171561167f5761167f6115c2565b6040528181528282016020018c1015611696575f5ffd5b8160208401602083015e5f602083830101528098505050506116ba60408901611571565b606089015190955093506116d0608089016115d6565b92506116de60a089016115e7565b915061141260c089016115e756fea26469706673582212202021f883a9dd9038122f5b7aaf14f6297d16f737d17fd907c748c71869bef82764736f6c634300081c0033",
  "linkReferences": {},
  "deployedLinkReferences": {},
  "immutableReferences": {},
  "inputSourceName": "project/contracts/CombinedRuleStorage.sol",
  "buildInfoId": "solc-0_8_28-5e4638bd1fb6a7cd585fb82d7076544ea7b6e7b3"
}