{
  "_format": "hh3-artifact-1",
  "contractName": "RuleItemERC721",
  "sourceName": "contracts/RuleItemERC721.sol",
  "abi": [
    {
      "inputs": [
        {
          "internalType": "string",
          "name": "name",
          "type": "string"
        },
        {
          "internalType": "string",
          "name": "symbol",
          "type": "string"
        },
        {
          "internalType": "address",
          "name": "admin",
          "type": "address"
        },
        {
          "internalType": "address",
          "name": "oracle",
          "type": "address"
        }
      ],
      "stateMutability": "nonpayable",
      "type": "constructor"
    },
    {
      "inputs": [],
      "name": "AccessControlBadConfirmation",
      "type": "error"
    },
    {
      "inputs": [
        {
          "internalType": "address",
          "name": "account",
          "type": "address"
        },
        {
          "internalType": "bytes32",
          "name": "neededRole",
          "type": "bytes32"
        }
      ],
      "name": "AccessControlUnauthorizedAccount",
      "type": "error"
    },
    {
      "inputs": [
        {
          "internalType": "address",
          "name": "sender",
          "type": "address"
        },
        {
          "internalType": "uint256",
          "name": "tokenId",
          "type": "uint256"
        },
        {
          "internalType": "address",
          "name": "owner",
          "type": "address"
        }
      ],
      "name": "ERC721IncorrectOwner",
      "type": "error"
    },
    {
      "inputs": [
        {
          "internalType": "address",
          "name": "operator",
          "type": "address"
        },
        {
          "internalType": "uint256",
          "name": "tokenId",
          "type": "uint256"
        }
      ],
      "name": "ERC721InsufficientApproval",
      "type": "error"
    },
    {
      "inputs": [
        {
          "internalType": "address",
          "name": "approver",
          "type": "address"
        }
      ],
      "name": "ERC721InvalidApprover",
      "type": "error"
    },
    {
      "inputs": [
        {
          "internalType": "address",
          "name": "operator",
          "type": "address"
        }
      ],
      "name": "ERC721InvalidOperator",
      "type": "error"
    },
    {
      "inputs": [
        {
          "internalType": "address",
          "name": "owner",
          "type": "address"
        }
      ],
      "name": "ERC721InvalidOwner",
      "type": "error"
    },
    {
      "inputs": [
        {
          "internalType": "address",
          "name": "receiver",
          "type": "address"
        }
      ],
      "name": "ERC721InvalidReceiver",
      "type": "error"
    },
    {
      "inputs": [
        {
          "internalType": "address",
          "name": "sender",
          "type": "address"
        }
      ],
      "name": "ERC721InvalidSender",
      "type": "error"
    },
    {
      "inputs": [
        {
          "internalType": "uint256",
          "name": "tokenId",
          "type": "uint256"
        }
      ],
      "name": "ERC721NonexistentToken",
      "type": "error"
    },
    {
      "inputs": [],
      "name": "EnforcedPause",
      "type": "error"
    },
    {
      "inputs": [],
      "name": "ExpectedPause",
      "type": "error"
    },
    {
      "anonymous": false,
      "inputs": [
        {
          "indexed": true,
          "internalType": "address",
          "name": "owner",
          "type": "address"
        },
        {
          "indexed": true,
          "internalType": "address",
          "name": "approved",
          "type": "address"
        },
        {
          "indexed": true,
          "internalType": "uint256",
          "name": "tokenId",
          "type": "uint256"
        }
      ],
      "name": "Approval",
      "type": "event"
    },
    {
      "anonymous": false,
      "inputs": [
        {
          "indexed": true,
          "internalType": "address",
          "name": "owner",
          "type": "address"
        },
        {
          "indexed": true,
          "internalType": "address",
          "name": "operator",
          "type": "address"
        },
        {
          "indexed": false,
          "internalType": "bool",
          "name": "approved",
          "type": "bool"
        }
      ],
      "name": "ApprovalForAll",
      "type": "event"
    },
    {
      "anonymous": false,
      "inputs": [
        {
          "indexed": false,
          "internalType": "uint256",
          "name": "_fromTokenId",
          "type": "uint256"
        },
        {
          "indexed": false,
          "internalType": "uint256",
          "name": "_toTokenId",
          "type": "uint256"
        }
      ],
      "name": "BatchMetadataUpdate",
      "type": "event"
    },
    {
      "anonymous": false,
      "inputs": [
        {
          "indexed": false,
          "internalType": "uint256",
          "name": "_tokenId",
          "type": "uint256"
        }
      ],
      "name": "MetadataUpdate",
      "type": "event"
    },
    {
      "anonymous": false,
      "inputs": [
        {
          "indexed": true,
          "internalType": "address",
          "name": "oldFeed",
          "type": "address"
        },
        {
          "indexed": true,
          "internalType": "address",
          "name": "newFeed",
          "type": "address"
        }
      ],
      "name": "OracleUpdated",
      "type": "event"
    },
    {
      "anonymous": false,
      "inputs": [
        {
          "indexed": false,
          "internalType": "address",
          "name": "account",
          "type": "address"
        }
      ],
      "name": "Paused",
      "type": "event"
    },
    {
      "anonymous": false,
      "inputs": [
        {
          "indexed": true,
          "internalType": "bytes32",
          "name": "role",
          "type": "bytes32"
        },
        {
          "indexed": true,
          "internalType": "bytes32",
          "name": "previousAdminRole",
          "type": "bytes32"
        },
        {
          "indexed": true,
          "internalType": "bytes32",
          "name": "newAdminRole",
          "type": "bytes32"
        }
      ],
      "name": "RoleAdminChanged",
      "type": "event"
    },
    {
      "anonymous": false,
      "inputs": [
        {
          "indexed": true,
          "internalType": "bytes32",
          "name": "role",
          "type": "bytes32"
        },
        {
          "indexed": true,
          "internalType": "address",
          "name": "account",
          "type": "address"
        },
        {
          "indexed": true,
          "internalType": "address",
          "name": "sender",
          "type": "address"
        }
      ],
      "name": "RoleGranted",
      "type": "event"
    },
    {
      "anonymous": false,
      "inputs": [
        {
          "indexed": true,
          "internalType": "bytes32",
          "name": "role",
          "type": "bytes32"
        },
        {
          "indexed": true,
          "internalType": "address",
          "name": "account",
          "type": "address"
        },
        {
          "indexed": true,
          "internalType": "address",
          "name": "sender",
          "type": "address"
        }
      ],
      "name": "RoleRevoked",
      "type": "event"
    },
    {
      "anonymous": false,
      "inputs": [
        {
          "indexed": true,
          "internalType": "uint256",
          "name": "ruleId",
          "type": "uint256"
        },
        {
          "indexed": true,
          "internalType": "uint256",
          "name": "tokenId",
          "type": "uint256"
        }
      ],
      "name": "RuleActivated",
      "type": "event"
    },
    {
      "anonymous": false,
      "inputs": [
        {
          "indexed": true,
          "internalType": "uint256",
          "name": "ruleId",
          "type": "uint256"
        },
        {
          "indexed": true,
          "internalType": "uint256",
          "name": "rootRuleId",
          "type": "uint256"
        },
        {
          "indexed": true,
          "internalType": "uint256",
          "name": "parentRuleId",
          "type": "uint256"
        },
        {
          "indexed": false,
          "internalType": "uint16",
          "name": "version",
          "type": "uint16"
        }
      ],
      "name": "RuleCreated",
      "type": "event"
    },
    {
      "anonymous": false,
      "inputs": [
        {
          "indexed": true,
          "internalType": "uint256",
          "name": "ruleId",
          "type": "uint256"
        }
      ],
      "name": "RuleDeprecated",
      "type": "event"
    },
    {
      "anonymous": false,
      "inputs": [
        {
          "indexed": true,
          "internalType": "uint256",
          "name": "tokenId",
          "type": "uint256"
        },
        {
          "indexed": false,
          "internalType": "uint256",
          "name": "newExpiry",
          "type": "uint256"
        }
      ],
      "name": "RuleExpiryExtended",
      "type": "event"
    },
    {
      "anonymous": false,
      "inputs": [
        {
          "indexed": true,
          "internalType": "address",
          "name": "user",
          "type": "address"
        },
        {
          "indexed": false,
          "internalType": "uint256",
          "name": "expiry",
          "type": "uint256"
        }
      ],
      "name": "Subscribed",
      "type": "event"
    },
    {
      "anonymous": false,
      "inputs": [
        {
          "indexed": false,
          "internalType": "uint256",
          "name": "newCents",
          "type": "uint256"
        }
      ],
      "name": "SubscriptionUsdCentsUpdated",
      "type": "event"
    },
    {
      "anonymous": false,
      "inputs": [
        {
          "indexed": true,
          "internalType": "address",
          "name": "from",
          "type": "address"
        },
        {
          "indexed": true,
          "internalType": "address",
          "name": "to",
          "type": "address"
        },
        {
          "indexed": true,
          "internalType": "uint256",
          "name": "tokenId",
          "type": "uint256"
        }
      ],
      "name": "Transfer",
      "type": "event"
    },
    {
      "anonymous": false,
      "inputs": [
        {
          "indexed": false,
          "internalType": "address",
          "name": "account",
          "type": "address"
        }
      ],
      "name": "Unpaused",
      "type": "event"
    },
    {
      "inputs": [],
      "name": "ADMIN_ROLE",
      "outputs": [
        {
          "internalType": "bytes32",
          "name": "",
          "type": "bytes32"
        }
      ],
      "stateMutability": "view",
      "type": "function"
    },
    {
      "inputs": [],
      "name": "DEFAULT_ADMIN_ROLE",
      "outputs": [
        {
          "internalType": "bytes32",
          "name": "",
          "type": "bytes32"
        }
      ],
      "stateMutability": "view",
      "type": "function"
    },
    {
      "inputs": [],
      "name": "MAX_SLOT",
      "outputs": [
        {
          "internalType": "uint8",
          "name": "",
          "type": "uint8"
        }
      ],
      "stateMutability": "view",
      "type": "function"
    },
    {
      "inputs": [],
      "name": "PAUSER_ROLE",
      "outputs": [
        {
          "internalType": "bytes32",
          "name": "",
          "type": "bytes32"
        }
      ],
      "stateMutability": "view",
      "type": "function"
    },
    {
      "inputs": [],
      "name": "SUB_DURATION",
      "outputs": [
        {
          "internalType": "uint256",
          "name": "",
          "type": "uint256"
        }
      ],
      "stateMutability": "view",
      "type": "function"
    },
    {
      "inputs": [
        {
          "internalType": "uint256",
          "name": "ruleId",
          "type": "uint256"
        }
      ],
      "name": "activateRule",
      "outputs": [
        {
          "internalType": "uint256",
          "name": "tokenId",
          "type": "uint256"
        }
      ],
      "stateMutability": "nonpayable",
      "type": "function"
    },
    {
      "inputs": [
        {
          "internalType": "uint256",
          "name": "",
          "type": "uint256"
        }
      ],
      "name": "activeRuleOf",
      "outputs": [
        {
          "internalType": "uint256",
          "name": "",
          "type": "uint256"
        }
      ],
      "stateMutability": "view",
      "type": "function"
    },
    {
      "inputs": [
        {
          "internalType": "address",
          "name": "to",
          "type": "address"
        },
        {
          "internalType": "uint256",
          "name": "tokenId",
          "type": "uint256"
        }
      ],
      "name": "approve",
      "outputs": [],
      "stateMutability": "nonpayable",
      "type": "function"
    },
    {
      "inputs": [
        {
          "internalType": "address",
          "name": "owner",
          "type": "address"
        }
      ],
      "name": "balanceOf",
      "outputs": [
        {
          "internalType": "uint256",
          "name": "",
          "type": "uint256"
        }
      ],
      "stateMutability": "view",
      "type": "function"
    },
    {
      "inputs": [
        {
          "internalType": "uint256",
          "name": "tokenId",
          "type": "uint256"
        }
      ],
      "name": "burnExpired",
      "outputs": [],
      "stateMutability": "nonpayable",
      "type": "function"
    },
    {
      "inputs": [
        {
          "internalType": "bytes32",
          "name": "ruleHash",
          "type": "bytes32"
        },
        {
          "internalType": "string",
          "name": "uri",
          "type": "string"
        }
      ],
      "name": "createRule",
      "outputs": [
        {
          "internalType": "uint256",
          "name": "ruleId",
          "type": "uint256"
        }
      ],
      "stateMutability": "nonpayable",
      "type": "function"
    },
    {
      "inputs": [
        {
          "internalType": "uint256",
          "name": "parentRuleId",
          "type": "uint256"
        },
        {
          "internalType": "bytes32",
          "name": "newHash",
          "type": "bytes32"
        },
        {
          "internalType": "string",
          "name": "newUri",
          "type": "string"
        }
      ],
      "name": "createRuleVersion",
      "outputs": [
        {
          "internalType": "uint256",
          "name": "ruleId",
          "type": "uint256"
        }
      ],
      "stateMutability": "nonpayable",
      "type": "function"
    },
    {
      "inputs": [],
      "name": "deployer",
      "outputs": [
        {
          "internalType": "address",
          "name": "",
          "type": "address"
        }
      ],
      "stateMutability": "view",
      "type": "function"
    },
    {
      "inputs": [],
      "name": "ethUsdFeed",
      "outputs": [
        {
          "internalType": "contract AggregatorV3Interface",
          "name": "",
          "type": "address"
        }
      ],
      "stateMutability": "view",
      "type": "function"
    },
    {
      "inputs": [
        {
          "internalType": "uint256",
          "name": "tokenId",
          "type": "uint256"
        },
        {
          "internalType": "uint256",
          "name": "newExpiry",
          "type": "uint256"
        }
      ],
      "name": "extendRuleExpiry",
      "outputs": [],
      "stateMutability": "payable",
      "type": "function"
    },
    {
      "inputs": [
        {
          "internalType": "uint256",
          "name": "tokenId",
          "type": "uint256"
        }
      ],
      "name": "getApproved",
      "outputs": [
        {
          "internalType": "address",
          "name": "",
          "type": "address"
        }
      ],
      "stateMutability": "view",
      "type": "function"
    },
    {
      "inputs": [
        {
          "internalType": "bytes32",
          "name": "role",
          "type": "bytes32"
        }
      ],
      "name": "getRoleAdmin",
      "outputs": [
        {
          "internalType": "bytes32",
          "name": "",
          "type": "bytes32"
        }
      ],
      "stateMutability": "view",
      "type": "function"
    },
    {
      "inputs": [
        {
          "internalType": "uint256",
          "name": "ruleId",
          "type": "uint256"
        }
      ],
      "name": "getRule",
      "outputs": [
        {
          "internalType": "bytes32",
          "name": "hash",
          "type": "bytes32"
        },
        {
          "internalType": "string",
          "name": "uri",
          "type": "string"
        },
        {
          "internalType": "address",
          "name": "creator",
          "type": "address"
        },
        {
          "internalType": "uint256",
          "name": "rootRuleId",
          "type": "uint256"
        },
        {
          "internalType": "uint16",
          "name": "version",
          "type": "uint16"
        },
        {
          "internalType": "bool",
          "name": "deprecated",
          "type": "bool"
        },
        {
          "internalType": "bool",
          "name": "active",
          "type": "bool"
        }
      ],
      "stateMutability": "view",
      "type": "function"
    },
    {
      "inputs": [
        {
          "internalType": "bytes32",
          "name": "role",
          "type": "bytes32"
        },
        {
          "internalType": "address",
          "name": "account",
          "type": "address"
        }
      ],
      "name": "grantRole",
      "outputs": [],
      "stateMutability": "nonpayable",
      "type": "function"
    },
    {
      "inputs": [
        {
          "internalType": "bytes32",
          "name": "role",
          "type": "bytes32"
        },
        {
          "internalType": "address",
          "name": "account",
          "type": "address"
        }
      ],
      "name": "hasRole",
      "outputs": [
        {
          "internalType": "bool",
          "name": "",
          "type": "bool"
        }
      ],
      "stateMutability": "view",
      "type": "function"
    },
    {
      "inputs": [
        {
          "internalType": "address",
          "name": "user",
          "type": "address"
        }
      ],
      "name": "hasSubscription",
      "outputs": [
        {
          "internalType": "bool",
          "name": "",
          "type": "bool"
        }
      ],
      "stateMutability": "view",
      "type": "function"
    },
    {
      "inputs": [
        {
          "internalType": "address",
          "name": "owner",
          "type": "address"
        },
        {
          "internalType": "address",
          "name": "operator",
          "type": "address"
        }
      ],
      "name": "isApprovedForAll",
      "outputs": [
        {
          "internalType": "bool",
          "name": "",
          "type": "bool"
        }
      ],
      "stateMutability": "view",
      "type": "function"
    },
    {
      "inputs": [
        {
          "internalType": "address",
          "name": "",
          "type": "address"
        }
      ],
      "name": "logicalRuleCount",
      "outputs": [
        {
          "internalType": "uint8",
          "name": "",
          "type": "uint8"
        }
      ],
      "stateMutability": "view",
      "type": "function"
    },
    {
      "inputs": [],
      "name": "name",
      "outputs": [
        {
          "internalType": "string",
          "name": "",
          "type": "string"
        }
      ],
      "stateMutability": "view",
      "type": "function"
    },
    {
      "inputs": [],
      "name": "nextRuleId",
      "outputs": [
        {
          "internalType": "uint256",
          "name": "",
          "type": "uint256"
        }
      ],
      "stateMutability": "view",
      "type": "function"
    },
    {
      "inputs": [],
      "name": "nextTokenId",
      "outputs": [
        {
          "internalType": "uint256",
          "name": "",
          "type": "uint256"
        }
      ],
      "stateMutability": "view",
      "type": "function"
    },
    {
      "inputs": [
        {
          "internalType": "uint256",
          "name": "tokenId",
          "type": "uint256"
        }
      ],
      "name": "ownerOf",
      "outputs": [
        {
          "internalType": "address",
          "name": "",
          "type": "address"
        }
      ],
      "stateMutability": "view",
      "type": "function"
    },
    {
      "inputs": [],
      "name": "paused",
      "outputs": [
        {
          "internalType": "bool",
          "name": "",
          "type": "bool"
        }
      ],
      "stateMutability": "view",
      "type": "function"
    },
    {
      "inputs": [
        {
          "internalType": "bytes32",
          "name": "role",
          "type": "bytes32"
        },
        {
          "internalType": "address",
          "name": "callerConfirmation",
          "type": "address"
        }
      ],
      "name": "renounceRole",
      "outputs": [],
      "stateMutability": "nonpayable",
      "type": "function"
    },
    {
      "inputs": [
        {
          "internalType": "bytes32",
          "name": "role",
          "type": "bytes32"
        },
        {
          "internalType": "address",
          "name": "account",
          "type": "address"
        }
      ],
      "name": "revokeRole",
      "outputs": [],
      "stateMutability": "nonpayable",
      "type": "function"
    },
    {
      "inputs": [
        {
          "internalType": "uint256",
          "name": "",
          "type": "uint256"
        }
      ],
      "name": "rootRuleOf",
      "outputs": [
        {
          "internalType": "uint256",
          "name": "",
          "type": "uint256"
        }
      ],
      "stateMutability": "view",
      "type": "function"
    },
    {
      "inputs": [
        {
          "internalType": "uint256",
          "name": "",
          "type": "uint256"
        }
      ],
      "name": "ruleExpiry",
      "outputs": [
        {
          "internalType": "uint256",
          "name": "",
          "type": "uint256"
        }
      ],
      "stateMutability": "view",
      "type": "function"
    },
    {
      "inputs": [
        {
          "internalType": "uint256",
          "name": "",
          "type": "uint256"
        }
      ],
      "name": "ruleTokenId",
      "outputs": [
        {
          "internalType": "uint256",
          "name": "",
          "type": "uint256"
        }
      ],
      "stateMutability": "view",
      "type": "function"
    },
    {
      "inputs": [
        {
          "internalType": "uint256",
          "name": "",
          "type": "uint256"
        }
      ],
      "name": "rules",
      "outputs": [
        {
          "internalType": "bytes32",
          "name": "ruleHash",
          "type": "bytes32"
        },
        {
          "internalType": "string",
          "name": "uri",
          "type": "string"
        },
        {
          "internalType": "address",
          "name": "creator",
          "type": "address"
        },
        {
          "internalType": "uint256",
          "name": "parentRuleId",
          "type": "uint256"
        },
        {
          "internalType": "uint16",
          "name": "version",
          "type": "uint16"
        },
        {
          "internalType": "bool",
          "name": "deprecated",
          "type": "bool"
        },
        {
          "internalType": "uint256",
          "name": "tokenId",
          "type": "uint256"
        }
      ],
      "stateMutability": "view",
      "type": "function"
    },
    {
      "inputs": [
        {
          "internalType": "address",
          "name": "from",
          "type": "address"
        },
        {
          "internalType": "address",
          "name": "to",
          "type": "address"
        },
        {
          "internalType": "uint256",
          "name": "tokenId",
          "type": "uint256"
        }
      ],
      "name": "safeTransferFrom",
      "outputs": [],
      "stateMutability": "nonpayable",
      "type": "function"
    },
    {
      "inputs": [
        {
          "internalType": "address",
          "name": "from",
          "type": "address"
        },
        {
          "internalType": "address",
          "name": "to",
          "type": "address"
        },
        {
          "internalType": "uint256",
          "name": "tokenId",
          "type": "uint256"
        },
        {
          "internalType": "bytes",
          "name": "data",
          "type": "bytes"
        }
      ],
      "name": "safeTransferFrom",
      "outputs": [],
      "stateMutability": "nonpayable",
      "type": "function"
    },
    {
      "inputs": [
        {
          "internalType": "address",
          "name": "operator",
          "type": "address"
        },
        {
          "internalType": "bool",
          "name": "approved",
          "type": "bool"
        }
      ],
      "name": "setApprovalForAll",
      "outputs": [],
      "stateMutability": "nonpayable",
      "type": "function"
    },
    {
      "inputs": [
        {
          "internalType": "address",
          "name": "newFeed",
          "type": "address"
        }
      ],
      "name": "setOracle",
      "outputs": [],
      "stateMutability": "nonpayable",
      "type": "function"
    },
    {
      "inputs": [
        {
          "internalType": "uint256",
          "name": "newCents",
          "type": "uint256"
        }
      ],
      "name": "setSubscriptionUsdCents",
      "outputs": [],
      "stateMutability": "nonpayable",
      "type": "function"
    },
    {
      "inputs": [],
      "name": "subscribe",
      "outputs": [],
      "stateMutability": "payable",
      "type": "function"
    },
    {
      "inputs": [
        {
          "internalType": "address",
          "name": "",
          "type": "address"
        }
      ],
      "name": "subscriptionExpiry",
      "outputs": [
        {
          "internalType": "uint256",
          "name": "",
          "type": "uint256"
        }
      ],
      "stateMutability": "view",
      "type": "function"
    },
    {
      "inputs": [],
      "name": "subscriptionPriceETH",
      "outputs": [
        {
          "internalType": "uint256",
          "name": "",
          "type": "uint256"
        }
      ],
      "stateMutability": "view",
      "type": "function"
    },
    {
      "inputs": [],
      "name": "subscriptionUsdCents",
      "outputs": [
        {
          "internalType": "uint256",
          "name": "",
          "type": "uint256"
        }
      ],
      "stateMutability": "view",
      "type": "function"
    },
    {
      "inputs": [
        {
          "internalType": "bytes4",
          "name": "interfaceId",
          "type": "bytes4"
        }
      ],
      "name": "supportsInterface",
      "outputs": [
        {
          "internalType": "bool",
          "name": "",
          "type": "bool"
        }
      ],
      "stateMutability": "view",
      "type": "function"
    },
    {
      "inputs": [],
      "name": "symbol",
      "outputs": [
        {
          "internalType": "string",
          "name": "",
          "type": "string"
        }
      ],
      "stateMutability": "view",
      "type": "function"
    },
    {
      "inputs": [
        {
          "internalType": "uint256",
          "name": "",
          "type": "uint256"
        }
      ],
      "name": "tokenRule",
      "outputs": [
        {
          "internalType": "uint256",
          "name": "",
          "type": "uint256"
        }
      ],
      "stateMutability": "view",
      "type": "function"
    },
    {
      "inputs": [
        {
          "internalType": "uint256",
          "name": "tokenId",
          "type": "uint256"
        }
      ],
      "name": "tokenURI",
      "outputs": [
        {
          "internalType": "string",
          "name": "",
          "type": "string"
        }
      ],
      "stateMutability": "view",
      "type": "function"
    },
    {
      "inputs": [
        {
          "internalType": "address",
          "name": "from",
          "type": "address"
        },
        {
          "internalType": "address",
          "name": "to",
          "type": "address"
        },
        {
          "internalType": "uint256",
          "name": "tokenId",
          "type": "uint256"
        }
      ],
      "name": "transferFrom",
      "outputs": [],
      "stateMutability": "nonpayable",
      "type": "function"
    }
  ],
  "bytecode": "0x60a06040526023600955348015610014575f5ffd5b5060405161369b38038061369b83398101604081905261003391610244565b83835f610040838261034d565b50600161004d828261034d565b5061005c91505f9050836100df565b506100877fa49807205ce4d355092ef5a8a18f56e8913cf4a201fbe287825b095693c21775836100df565b506100b27f65d7a28e3265b37a6474929f336521b332c1681b933f6cb9f3376673440d862a836100df565b50600a80546001600160a01b0319166001600160a01b039290921691909117905550503360805250610407565b5f8281526007602090815260408083206001600160a01b038516845290915281205460ff16610183575f8381526007602090815260408083206001600160a01b03861684529091529020805460ff1916600117905561013b3390565b6001600160a01b0316826001600160a01b0316847f2f8788117e7eff1d82e926ec794901d17c78024a50270940304540a733656f0d60405160405180910390a4506001610186565b505f5b92915050565b634e487b7160e01b5f52604160045260245ffd5b5f82601f8301126101af575f5ffd5b81516001600160401b038111156101c8576101c861018c565b604051601f8201601f19908116603f011681016001600160401b03811182821017156101f6576101f661018c565b60405281815283820160200185101561020d575f5ffd5b8160208501602083015e5f918101602001919091529392505050565b80516001600160a01b038116811461023f575f5ffd5b919050565b5f5f5f5f60808587031215610257575f5ffd5b84516001600160401b0381111561026c575f5ffd5b610278878288016101a0565b602087015190955090506001600160401b03811115610295575f5ffd5b6102a1878288016101a0565b9350506102b060408601610229565b91506102be60608601610229565b905092959194509250565b600181811c908216806102dd57607f821691505b6020821081036102fb57634e487b7160e01b5f52602260045260245ffd5b50919050565b601f82111561034857805f5260205f20601f840160051c810160208510156103265750805b601f840160051c820191505b81811015610345575f8155600101610332565b50505b505050565b81516001600160401b038111156103665761036661018c565b61037a8161037484546102c9565b84610301565b6020601f8211600181146103ac575f83156103955750848201515b5f19600385901b1c1916600184901b178455610345565b5f84815260208120601f198516915b828110156103db57878501518255602094850194600190920191016103bb565b50848210156103f857868401515f19600387901b60f8161c191681555b50505050600190811b01905550565b60805161326e61042d5f395f818161080b015281816119380152611e70015261326e5ff3fe60806040526004361061028b575f3560e01c80637adbf97311610155578063c87b56dd116100be578063d60d36b611610078578063d60d36b61461082d578063d90190201461086d578063e3d5836114610898578063e63ab1e9146108ab578063e985e9c5146108de578063f4a96d22146108fd575f5ffd5b8063c87b56dd14610773578063d098769b14610792578063d2f29707146107b1578063d36013ce146107c7578063d547741f146107db578063d5f39488146107fa575f5ffd5b80639f6d78841161010f5780639f6d7884146106a1578063a217fddf146106cc578063a22cb465146106df578063a28f6260146106fe578063b88d4fde14610729578063c40df85414610748575f5ffd5b80637adbf973146106095780638009b7bd1461062857806388d6b10e146106475780638f449a051461066657806391d148541461066e57806395d89b411461068d575f5ffd5b806336568abe116101f757806370a08231116101b157806370a082311461053757806370f047b01461055657806374cdfa511461056b5780637514e80e1461058a57806375794a3c146105c157806375b238fc146105d6575f5ffd5b806336568abe1461046657806342842e0e1461048557806348462037146104a45780635c975abb146104d657806360a85ef5146104ed5780636352211e14610518575f5ffd5b806323b872dd1161024857806323b872dd146103a757806323f889fc146103c6578063248a9ca3146103e55780632b942d5b146104135780632bca0efb146104325780632f2ff15d14610447575f5ffd5b806301ffc9a71461028f57806304d6ded4146102c357806305a89119146102f557806306fdde031461032e578063081812fc1461034f578063095ea7b314610386575b5f5ffd5b34801561029a575f5ffd5b506102ae6102a9366004612b3e565b610911565b60405190151581526020015b60405180910390f35b3480156102ce575f5ffd5b506102e26102dd366004612b59565b610921565b6040516102ba9796959493929190612b9e565b348015610300575f5ffd5b5061032061030f366004612b59565b60106020525f908152604090205481565b6040519081526020016102ba565b348015610339575f5ffd5b506103426109f6565b6040516102ba9190612bef565b34801561035a575f5ffd5b5061036e610369366004612b59565b610a85565b6040516001600160a01b0390911681526020016102ba565b348015610391575f5ffd5b506103a56103a0366004612c1c565b610aac565b005b3480156103b2575f5ffd5b506103a56103c1366004612c44565b610abb565b3480156103d1575f5ffd5b506103206103e0366004612cc3565b610b49565b3480156103f0575f5ffd5b506103206103ff366004612b59565b5f9081526007602052604090206001015490565b34801561041e575f5ffd5b5061032061042d366004612b59565b610db1565b34801561043d575f5ffd5b5061032060095481565b348015610452575f5ffd5b506103a5610461366004612d0b565b6110f8565b348015610471575f5ffd5b506103a5610480366004612d0b565b61111c565b348015610490575f5ffd5b506103a561049f366004612c44565b611154565b3480156104af575f5ffd5b506104c36104be366004612b59565b61116e565b6040516102ba9796959493929190612d35565b3480156104e1575f5ffd5b5060085460ff166102ae565b3480156104f8575f5ffd5b50610320610507366004612d88565b60126020525f908152604090205481565b348015610523575f5ffd5b5061036e610532366004612b59565b611300565b348015610542575f5ffd5b50610320610551366004612d88565b61130a565b348015610561575f5ffd5b50610320600b5481565b348015610576575f5ffd5b506103a5610585366004612b59565b61134f565b348015610595575f5ffd5b506102ae6105a4366004612d88565b6001600160a01b03165f9081526012602052604090205442111590565b3480156105cc575f5ffd5b50610320600c5481565b3480156105e1575f5ffd5b506103207fa49807205ce4d355092ef5a8a18f56e8913cf4a201fbe287825b095693c2177581565b348015610614575f5ffd5b506103a5610623366004612d88565b6113f5565b348015610633575f5ffd5b50600a5461036e906001600160a01b031681565b348015610652575f5ffd5b50610320610661366004612da1565b6115be565b6103a561188a565b348015610679575f5ffd5b506102ae610688366004612d0b565b611a67565b348015610698575f5ffd5b50610342611a91565b3480156106ac575f5ffd5b506103206106bb366004612b59565b600f6020525f908152604090205481565b3480156106d7575f5ffd5b506103205f81565b3480156106ea575f5ffd5b506103a56106f9366004612df0565b611aa0565b348015610709575f5ffd5b50610320610718366004612b59565b600e6020525f908152604090205481565b348015610734575f5ffd5b506103a5610743366004612e3d565b611aab565b348015610753575f5ffd5b50610320610762366004612b59565b60146020525f908152604090205481565b34801561077e575f5ffd5b5061034261078d366004612b59565b611ac3565b34801561079d575f5ffd5b506103a56107ac366004612b59565b611ace565b3480156107bc575f5ffd5b5061032062278d0081565b3480156107d2575f5ffd5b50610320611bec565b3480156107e6575f5ffd5b506103a56107f5366004612d0b565b611cf5565b348015610805575f5ffd5b5061036e7f000000000000000000000000000000000000000000000000000000000000000081565b348015610838575f5ffd5b5061085b610847366004612d88565b60116020525f908152604090205460ff1681565b60405160ff90911681526020016102ba565b348015610878575f5ffd5b50610320610887366004612b59565b60136020525f908152604090205481565b6103a56108a6366004612f1a565b611d19565b3480156108b6575f5ffd5b506103207f65d7a28e3265b37a6474929f336521b332c1681b933f6cb9f3376673440d862a81565b3480156108e9575f5ffd5b506102ae6108f8366004612f3a565b611f9f565b348015610908575f5ffd5b5061085b600381565b5f61091b82611fcc565b92915050565b600d6020525f90815260409020805460018201805491929161094290612f62565b80601f016020809104026020016040519081016040528092919081815260200182805461096e90612f62565b80156109b95780601f10610990576101008083540402835291602001916109b9565b820191905f5260205f20905b81548152906001019060200180831161099c57829003601f168201915b5050505060028301546003840154600485015460059095015493946001600160a01b039092169390925061ffff82169162010000900460ff169087565b60605f8054610a0490612f62565b80601f0160208091040260200160405190810160405280929190818152602001828054610a3090612f62565b8015610a7b5780601f10610a5257610100808354040283529160200191610a7b565b820191905f5260205f20905b815481529060010190602001808311610a5e57829003601f168201915b5050505050905090565b5f610a8f82611ff0565b505f828152600460205260409020546001600160a01b031661091b565b610ab7828233612028565b5050565b6001600160a01b038216610ae957604051633250574960e11b81525f60048201526024015b60405180910390fd5b5f610af5838333612035565b9050836001600160a01b0316816001600160a01b031614610b43576040516364283d7b60e01b81526001600160a01b0380861660048301526024820184905282166044820152606401610ae0565b50505050565b5f610b5261210a565b83610b935760405162461bcd60e51b81526020600482015260116024820152700929cac82989288bea4aa988abe9082a69607b1b6044820152606401610ae0565b335f90815260126020526040812054421115610bb0576001610bb3565b60035b335f9081526011602052604090205490915060ff808316911610610c0a5760405162461bcd60e51b815260206004820152600e60248201526d1495531157d4d313d517d195531360921b6044820152606401610ae0565b600b5f8154610c1890612fae565b91905081905591506040518060e0016040528086815260200185858080601f0160208091040260200160405190810160405280939291908181526020018383808284375f92018290525093855250503360208085019190915260408085018490526001606086018190526080860185905260a0909501849052878452600d825290922084518155918401519192830191610cb391508261300a565b506040828101516002830180546001600160a01b0319166001600160a01b0390921691909117905560608301516003830155608083015160048301805460a086015161ffff90931662ffffff1990911617620100009215159290920291909117905560c0909201516005909101555f838152600f602090815282822085905533825260119052908120805460ff1691610d4b836130c5565b91906101000a81548160ff021916908360ff160217905550505f82837f89985676d0f40810abbe2cd55f254fd631b1f8eff9cf8cf89ad8af64c77f87b26001604051610da1919061ffff91909116815260200190565b60405180910390a4509392505050565b5f610dba61210a565b5f828152600d6020526040902060028101546001600160a01b03163314610e115760405162461bcd60e51b815260206004820152600b60248201526a2727aa2fa1a922a0aa27a960a91b6044820152606401610ae0565b600481015462010000900460ff1615610e5e5760405162461bcd60e51b815260206004820152600f60248201526e1495531157d11154149150d0551151608a1b6044820152606401610ae0565b600581015415610ea15760405162461bcd60e51b815260206004820152600e60248201526d414c52454144595f41435449564560901b6044820152606401610ae0565b5f838152600f60209081526040808320548084526010909252909120548015610f5a575f818152600d60205260409020600501548015610f0b575f818152601560205260409020805460ff19166001179055610efc81612130565b5f818152600e60205260408120555b5f828152600d602052604080822060058101839055600401805462ff00001916620100001790555183917f4816cbba0986a3746458b30f61c423197d79c8128a41811424e7d2cf0459ea7691a2505b335f90815260126020526040902054421115610fc45760405162461bcd60e51b8152602060048201526024808201527f535542534352495054494f4e5f52455155495245445f464f525f4143544956416044820152632a24a7a760e11b6064820152608401610ae0565b600c5f8154610fd290612fae565b9182905550600584018190555f818152600e6020908152604080832089905585835260108252808320899055338084526012835281842054858552601384528285205589845260149092529091208290559094506110309085612168565b6110c48484600101805461104390612f62565b80601f016020809104026020016040519081016040528092919081815260200182805461106f90612f62565b80156110ba5780601f10611091576101008083540402835291602001916110ba565b820191905f5260205f20905b81548152906001019060200180831161109d57829003601f168201915b50505050506121c9565b604051849086907f3db37d72ecec2a06bb99792c387585563a848046fa9f0698dfd52bdd41c2a97b905f90a3505050919050565b5f8281526007602052604090206001015461111281612211565b610b43838361221e565b6001600160a01b03811633146111455760405163334bd91960e11b815260040160405180910390fd5b61114f82826122af565b505050565b61114f83838360405180602001604052805f815250611aab565b5f60605f5f5f5f5f5f600d5f8a81526020019081526020015f206040518060e00160405290815f82015481526020016001820180546111ac90612f62565b80601f01602080910402602001604051908101604052809291908181526020018280546111d890612f62565b80156112235780601f106111fa57610100808354040283529160200191611223565b820191905f5260205f20905b81548152906001019060200180831161120657829003601f168201915b505050918352505060028201546001600160a01b0316602082015260038201546040820152600482015461ffff8116606083015262010000900460ff161515608082015260059091015460a09091015280519091506112b55760405162461bcd60e51b815260206004820152600e60248201526d1495531157d393d517d1561254d560921b6044820152606401610ae0565b5f898152600f602090815260408083205480845260108352928190205484519285015191850151608086015160a090960151939e929d909c50939a5093985090965091149350915050565b5f61091b82611ff0565b5f6001600160a01b038216611334576040516322718ad960e21b81525f6004820152602401610ae0565b506001600160a01b03165f9081526003602052604090205490565b7fa49807205ce4d355092ef5a8a18f56e8913cf4a201fbe287825b095693c2177561137981612211565b5f82116113b85760405162461bcd60e51b815260206004820152600d60248201526c494e56414c49445f505249434560981b6044820152606401610ae0565b60098290556040518281527fd63a50efec61ddcfce992b3211881fcbb051071209192d1ae21d600ee686565f906020015b60405180910390a15050565b7fa49807205ce4d355092ef5a8a18f56e8913cf4a201fbe287825b095693c2177561141f81612211565b6001600160a01b0382166114645760405162461bcd60e51b815260206004820152600c60248201526b5a45524f5f4144445245535360a01b6044820152606401610ae0565b816001600160a01b031663feaf968c6040518163ffffffff1660e01b815260040160a060405180830381865afa9250505080156114be575060408051601f3d908101601f191682019092526114bb918101906130fc565b60015b6115005760405162461bcd60e51b81526020600482015260136024820152724f5241434c455f4e4f545f43414c4c41424c4560681b6044820152606401610ae0565b6402540be400841215801561151b5750655af3107a40008413155b6115675760405162461bcd60e51b815260206004820152601960248201527f4f5241434c455f50524943455f4f55545f4f465f52414e4745000000000000006044820152606401610ae0565b5050505050600a80546001600160a01b038481166001600160a01b0319831681179093556040519116919082907f078c3b417dadf69374a59793b829c52001247130433427049317bde56607b1b7905f90a3505050565b5f6115c761210a565b5f858152600d6020526040902060028101546001600160a01b0316331461161e5760405162461bcd60e51b815260206004820152600b60248201526a2727aa2fa1a922a0aa27a960a91b6044820152606401610ae0565b600481015462010000900460ff161561166d5760405162461bcd60e51b815260206004820152601160248201527014105491539517d11154149150d0551151607a1b6044820152606401610ae0565b846116ae5760405162461bcd60e51b81526020600482015260116024820152700929cac82989288bea4aa988abe9082a69607b1b6044820152606401610ae0565b5f868152600f6020526040812054600b8054919290916116cd90612fae565b91905081905592506040518060e0016040528087815260200186868080601f0160208091040260200160405190810160405280939291908181526020018383808284375f920191909152505050908252503360208201526040810189905260048401546060909101906117459061ffff16600161314a565b61ffff1681525f60208083018290526040928301829052868252600d81529190208251815590820151600182019061177d908261300a565b506040828101516002830180546001600160a01b0319166001600160a01b039092169190911790556060830151600383015560808301516004808401805460a087015161ffff90941662ffffff199091161762010000931515840217905560c0909401516005909301929092555f868152600f602052818120859055928501805462ff000019169092179091555188917f4816cbba0986a3746458b30f61c423197d79c8128a41811424e7d2cf0459ea7691a25f838152600d602090815260409182902060040154915161ffff90921682528891839186917f89985676d0f40810abbe2cd55f254fd631b1f8eff9cf8cf89ad8af64c77f87b2910160405180910390a45050949350505050565b61189261210a565b5f61189b611bec565b9050803410156118e45760405162461bcd60e51b8152602060048201526014602482015273125394d551919250d251539517d410565351539560621b6044820152606401610ae0565b335f9081526012602052604090205442811061190c5761190762278d0082613164565b611919565b61191962278d0042613164565b335f908152601260205260408082209290925590516001600160a01b037f0000000000000000000000000000000000000000000000000000000000000000169084908381818185875af1925050503d805f8114611991576040519150601f19603f3d011682016040523d82523d5f602084013e611996565b606091505b50509050806119e25760405162461bcd60e51b81526020600482015260186024820152771111541313d6515497d514905394d1915497d1905253115160421b6044820152606401610ae0565b82341115611a1f57336108fc6119f88534613177565b6040518115909202915f818181858888f19350505050158015611a1d573d5f5f3e3d5ffd5b505b335f818152601260209081526040918290205491519182527f4b90d6788928d63c1821907a6a8b95f40d26562d8fe41b105f7489db9966dfcb910160405180910390a2505050565b5f9182526007602090815260408084206001600160a01b0393909316845291905290205460ff1690565b606060018054610a0490612f62565b610ab733838361231a565b611ab6848484610abb565b610b4333858585856123b8565b606061091b826124e0565b5f818152600260205260409020546001600160a01b031680611b1e5760405162461bcd60e51b81526020600482015260096024820152681393d517d1561254d560ba1b6044820152606401610ae0565b5f828152601360205260409020544211611b685760405162461bcd60e51b815260206004820152600b60248201526a1393d517d156141254915160aa1b6044820152606401610ae0565b5f828152600e6020908152604080832054808452600f83528184205486855260159093529220805460ff19166001179055611ba284612130565b5f848152600e602090815260408083208390558383526010909152902054829003611bd6575f818152601060205260408120555b505f908152600d60205260408120600501555050565b600a5460408051633fabe5a360e21b815290515f926001600160a01b03169163feaf968c9160048083019260a09291908290030181865afa925050508015611c51575060408051601f3d908101601f19168201909252611c4e918101906130fc565b60015b611c605750655af3107a400090565b6402540be400841280611c785750655af3107a400084135b80611c8d5750610e10611c8b8342613177565b115b15611ca357655af3107a40009550505050505090565b5f611caf85606461318a565b600954611cc69069d3c21bcecceda100000061318a565b611cd091906131a1565b9050805f03611ceb57655af3107a4000965050505050505090565b9695505050505050565b5f82815260076020526040902060010154611d0f81612211565b610b4383836122af565b33611d2383611300565b6001600160a01b031614611d6a5760405162461bcd60e51b815260206004820152600e60248201526d2727aa2fa92aa622afa7aba722a960911b6044820152606401610ae0565b5f828152601360205260409020548111611dbc5760405162461bcd60e51b815260206004820152601360248201527211561412549657d393d517d156151153911151606a1b6044820152606401610ae0565b611dca426301e13380613164565b811115611e0a5760405162461bcd60e51b815260206004820152600e60248201526d22ac2824a92cafaa27a7afa320a960911b6044820152606401610ae0565b5f611e13611bec565b905080341015611e5c5760405162461bcd60e51b8152602060048201526014602482015273125394d551919250d251539517d410565351539560621b6044820152606401610ae0565b5f83815260136020526040808220849055517f00000000000000000000000000000000000000000000000000000000000000006001600160a01b03169083908381818185875af1925050503d805f8114611ed1576040519150601f19603f3d011682016040523d82523d5f602084013e611ed6565b606091505b5050905080611f225760405162461bcd60e51b81526020600482015260186024820152771111541313d6515497d514905394d1915497d1905253115160421b6044820152606401610ae0565b81341115611f5f57336108fc611f388434613177565b6040518115909202915f818181858888f19350505050158015611f5d573d5f5f3e3d5ffd5b505b837f864ca413e692b7d7abe57fb4de7f98d30188cd4f03419a82b0b8ff7986e06a9484604051611f9191815260200190565b60405180910390a250505050565b6001600160a01b039182165f90815260056020908152604080832093909416825291909152205460ff1690565b5f6001600160e01b03198216637965db0b60e01b148061091b575061091b826125eb565b5f818152600260205260408120546001600160a01b03168061091b57604051637e27328960e01b815260048101849052602401610ae0565b61114f838383600161260f565b5f61203e61210a565b612049848484612713565b90506001600160a01b0384166120db575f8381526015602052604090205460ff166120c15760405162461bcd60e51b815260206004820152602260248201527f4255524e5f4f4e4c595f5649415f4558504952595f4f525f414354495641544960448201526127a760f11b6064820152608401610ae0565b5f838152601560205260409020805460ff19169055612103565b6001600160a01b0384165f908152601260209081526040808320548684526013909252909120555b9392505050565b60085460ff161561212e5760405163d93c066560e01b815260040160405180910390fd5b565b5f61213c5f835f612035565b90506001600160a01b038116610ab757604051637e27328960e01b815260048101839052602401610ae0565b6001600160a01b03821661219157604051633250574960e11b81525f6004820152602401610ae0565b5f61219d83835f612035565b90506001600160a01b0381161561114f576040516339e3563760e11b81525f6004820152602401610ae0565b5f8281526006602052604090206121e0828261300a565b506040518281527ff8e1a15aba9398e019f0b49df1a4fde98ee17ae345cb5f6b5e2c27f5033e8ce7906020016113e9565b61221b8133612805565b50565b5f6122298383611a67565b6122a8575f8381526007602090815260408083206001600160a01b03861684529091529020805460ff191660011790556122603390565b6001600160a01b0316826001600160a01b0316847f2f8788117e7eff1d82e926ec794901d17c78024a50270940304540a733656f0d60405160405180910390a450600161091b565b505f61091b565b5f6122ba8383611a67565b156122a8575f8381526007602090815260408083206001600160a01b0386168085529252808320805460ff1916905551339286917ff6391f5c32d9c69d2a47ea670b442974b53935d1edc7fd64eb21e047a839171b9190a450600161091b565b6001600160a01b03821661234c57604051630b61174360e31b81526001600160a01b0383166004820152602401610ae0565b6001600160a01b038381165f81815260056020908152604080832094871680845294825291829020805460ff191686151590811790915591519182527f17307eab39ab6107e8899845ad3d59bd9653f200f220920489ca2b5937696c31910160405180910390a3505050565b6001600160a01b0383163b156124d957604051630a85bd0160e11b81526001600160a01b0384169063150b7a02906123fa9088908890879087906004016131c0565b6020604051808303815f875af1925050508015612434575060408051601f3d908101601f19168201909252612431918101906131f2565b60015b61249b573d808015612461576040519150601f19603f3d011682016040523d82523d5f602084013e612466565b606091505b5080515f0361249357604051633250574960e11b81526001600160a01b0385166004820152602401610ae0565b805160208201fd5b6001600160e01b03198116630a85bd0160e11b146124d757604051633250574960e11b81526001600160a01b0385166004820152602401610ae0565b505b5050505050565b60606124eb82611ff0565b505f828152600660205260408120805461250490612f62565b80601f016020809104026020016040519081016040528092919081815260200182805461253090612f62565b801561257b5780601f106125525761010080835404028352916020019161257b565b820191905f5260205f20905b81548152906001019060200180831161255e57829003601f168201915b505050505090505f61259760408051602081019091525f815290565b905080515f036125a8575092915050565b8151156125da5780826040516020016125c2929190613224565b60405160208183030381529060405292505050919050565b6125e38461283e565b949350505050565b5f6001600160e01b03198216632483248360e11b148061091b575061091b826128ae565b808061262357506001600160a01b03821615155b156126e4575f61263284611ff0565b90506001600160a01b0383161580159061265e5750826001600160a01b0316816001600160a01b031614155b8015612671575061266f8184611f9f565b155b1561269a5760405163a9fbf51f60e01b81526001600160a01b0384166004820152602401610ae0565b81156126e25783856001600160a01b0316826001600160a01b03167f8c5be1e5ebec7d5bd14f71427d1e84f3dd0314c0f7b2291e5b200ac8c7c3b92560405160405180910390a45b505b50505f90815260046020526040902080546001600160a01b0319166001600160a01b0392909216919091179055565b5f828152600260205260408120546001600160a01b039081169083161561273f5761273f8184866128fd565b6001600160a01b038116156127795761275a5f855f5f61260f565b6001600160a01b0381165f90815260036020526040902080545f190190555b6001600160a01b038516156127a7576001600160a01b0385165f908152600360205260409020805460010190555b5f8481526002602052604080822080546001600160a01b0319166001600160a01b0389811691821790925591518793918516917fddf252ad1be2c89b69c2b068fc378daa952ba7f163c4a11628f55a4df523b3ef91a4949350505050565b61280f8282611a67565b610ab75760405163e2517d3f60e01b81526001600160a01b038216600482015260248101839052604401610ae0565b606061284982611ff0565b505f61285f60408051602081019091525f815290565b90505f81511161287d5760405180602001604052805f815250612103565b8061288784612961565b604051602001612898929190613224565b6040516020818303038152906040529392505050565b5f6001600160e01b031982166380ac58cd60e01b14806128de57506001600160e01b03198216635b5e139f60e01b145b8061091b57506301ffc9a760e01b6001600160e01b031983161461091b565b6129088383836129f1565b61114f576001600160a01b03831661293657604051637e27328960e01b815260048101829052602401610ae0565b60405163177e802f60e01b81526001600160a01b038316600482015260248101829052604401610ae0565b60605f61296d83612a52565b60010190505f8167ffffffffffffffff81111561298c5761298c612e29565b6040519080825280601f01601f1916602001820160405280156129b6576020820181803683370190505b5090508181016020015b5f19016f181899199a1a9b1b9c1cb0b131b232b360811b600a86061a8153600a85049450846129c057509392505050565b5f6001600160a01b038316158015906125e35750826001600160a01b0316846001600160a01b03161480612a2a5750612a2a8484611f9f565b806125e35750505f908152600460205260409020546001600160a01b03908116911614919050565b5f8072184f03e93ff9f4daa797ed6e38ed64bf6a1f0160401b8310612a905772184f03e93ff9f4daa797ed6e38ed64bf6a1f0160401b830492506040015b6d04ee2d6d415b85acef81000000008310612abc576d04ee2d6d415b85acef8100000000830492506020015b662386f26fc100008310612ada57662386f26fc10000830492506010015b6305f5e1008310612af2576305f5e100830492506008015b6127108310612b0657612710830492506004015b60648310612b18576064830492506002015b600a831061091b5760010192915050565b6001600160e01b03198116811461221b575f5ffd5b5f60208284031215612b4e575f5ffd5b813561210381612b29565b5f60208284031215612b69575f5ffd5b5035919050565b5f81518084528060208401602086015e5f602082860101526020601f19601f83011685010191505092915050565b87815260e060208201525f612bb660e0830189612b70565b6001600160a01b0397909716604083015250606081019490945261ffff929092166080840152151560a083015260c09091015292915050565b602081525f6121036020830184612b70565b80356001600160a01b0381168114612c17575f5ffd5b919050565b5f5f60408385031215612c2d575f5ffd5b612c3683612c01565b946020939093013593505050565b5f5f5f60608486031215612c56575f5ffd5b612c5f84612c01565b9250612c6d60208501612c01565b929592945050506040919091013590565b5f5f83601f840112612c8e575f5ffd5b50813567ffffffffffffffff811115612ca5575f5ffd5b602083019150836020828501011115612cbc575f5ffd5b9250929050565b5f5f5f60408486031215612cd5575f5ffd5b83359250602084013567ffffffffffffffff811115612cf2575f5ffd5b612cfe86828701612c7e565b9497909650939450505050565b5f5f60408385031215612d1c575f5ffd5b82359150612d2c60208401612c01565b90509250929050565b87815260e060208201525f612d4d60e0830189612b70565b6001600160a01b0397909716604083015250606081019490945261ffff929092166080840152151560a0830152151560c09091015292915050565b5f60208284031215612d98575f5ffd5b61210382612c01565b5f5f5f5f60608587031215612db4575f5ffd5b8435935060208501359250604085013567ffffffffffffffff811115612dd8575f5ffd5b612de487828801612c7e565b95989497509550505050565b5f5f60408385031215612e01575f5ffd5b612e0a83612c01565b915060208301358015158114612e1e575f5ffd5b809150509250929050565b634e487b7160e01b5f52604160045260245ffd5b5f5f5f5f60808587031215612e50575f5ffd5b612e5985612c01565b9350612e6760208601612c01565b925060408501359150606085013567ffffffffffffffff811115612e89575f5ffd5b8501601f81018713612e99575f5ffd5b803567ffffffffffffffff811115612eb357612eb3612e29565b604051601f8201601f19908116603f0116810167ffffffffffffffff81118282101715612ee257612ee2612e29565b604052818152828201602001891015612ef9575f5ffd5b816020840160208301375f6020838301015280935050505092959194509250565b5f5f60408385031215612f2b575f5ffd5b50508035926020909101359150565b5f5f60408385031215612f4b575f5ffd5b612f5483612c01565b9150612d2c60208401612c01565b600181811c90821680612f7657607f821691505b602082108103612f9457634e487b7160e01b5f52602260045260245ffd5b50919050565b634e487b7160e01b5f52601160045260245ffd5b5f60018201612fbf57612fbf612f9a565b5060010190565b601f82111561114f57805f5260205f20601f840160051c81016020851015612feb5750805b601f840160051c820191505b818110156124d9575f8155600101612ff7565b815167ffffffffffffffff81111561302457613024612e29565b613038816130328454612f62565b84612fc6565b6020601f82116001811461306a575f83156130535750848201515b5f19600385901b1c1916600184901b1784556124d9565b5f84815260208120601f198516915b828110156130995787850151825560209485019460019092019101613079565b50848210156130b657868401515f19600387901b60f8161c191681555b50505050600190811b01905550565b5f60ff821660ff81036130da576130da612f9a565b60010192915050565b805169ffffffffffffffffffff81168114612c17575f5ffd5b5f5f5f5f5f60a08688031215613110575f5ffd5b613119866130e3565b6020870151604088015160608901519297509095509350915061313e608087016130e3565b90509295509295909350565b61ffff818116838216019081111561091b5761091b612f9a565b8082018082111561091b5761091b612f9a565b8181038181111561091b5761091b612f9a565b808202811582820484141761091b5761091b612f9a565b5f826131bb57634e487b7160e01b5f52601260045260245ffd5b500490565b6001600160a01b03858116825284166020820152604081018390526080606082018190525f90611ceb90830184612b70565b5f60208284031215613202575f5ffd5b815161210381612b29565b5f81518060208401855e5f93019283525090919050565b5f6125e3613232838661320d565b8461320d56fea26469706673582212201d3c69d1c6c1a43f0dda0067afa36d1a9db29d491e9f1b7982f164e79b697e4564736f6c634300081c0033",
  "linkReferences": {},
  "deployedLinkReferences": {},
  "immutableReferences": {
    "7137": [
      {
        "length": 32,
        "start": 2059
      },
      {
        "length": 32,
        "start": 6456
      },
      {
        "length": 32,
        "start": 7792
      }
    ]
  },
  "inputSourceName": "project/contracts/RuleItemERC721.sol",
  "buildInfoId": "solc-0_8_28-1be2734a17b8e25453f08c7b7e1431f6f0bd2fbd"
}