{
  "_format": "hh3-artifact-1",
  "contractName": "RuleAuthority",
  "sourceName": "contracts/RuleAuthority.sol",
  "abi": [
    {
      "inputs": [
        {
          "internalType": "address",
          "name": "admin",
          "type": "address"
        }
      ],
      "stateMutability": "nonpayable",
      "type": "constructor"
    },
    {
      "inputs": [],
      "name": "AccessControlBadConfirmation",
      "type": "error"
    },
    {
      "inputs": [
        {
          "internalType": "address",
          "name": "account",
          "type": "address"
        },
        {
          "internalType": "bytes32",
          "name": "neededRole",
          "type": "bytes32"
        }
      ],
      "name": "AccessControlUnauthorizedAccount",
      "type": "error"
    },
    {
      "anonymous": false,
      "inputs": [
        {
          "indexed": true,
          "internalType": "bytes32",
          "name": "role",
          "type": "bytes32"
        },
        {
          "indexed": true,
          "internalType": "bytes32",
          "name": "previousAdminRole",
          "type": "bytes32"
        },
        {
          "indexed": true,
          "internalType": "bytes32",
          "name": "newAdminRole",
          "type": "bytes32"
        }
      ],
      "name": "RoleAdminChanged",
      "type": "event"
    },
    {
      "anonymous": false,
      "inputs": [
        {
          "indexed": true,
          "internalType": "bytes32",
          "name": "role",
          "type": "bytes32"
        },
        {
          "indexed": true,
          "internalType": "address",
          "name": "account",
          "type": "address"
        },
        {
          "indexed": true,
          "internalType": "address",
          "name": "sender",
          "type": "address"
        }
      ],
      "name": "RoleGranted",
      "type": "event"
    },
    {
      "anonymous": false,
      "inputs": [
        {
          "indexed": true,
          "internalType": "bytes32",
          "name": "role",
          "type": "bytes32"
        },
        {
          "indexed": true,
          "internalType": "address",
          "name": "account",
          "type": "address"
        },
        {
          "indexed": true,
          "internalType": "address",
          "name": "sender",
          "type": "address"
        }
      ],
      "name": "RoleRevoked",
      "type": "event"
    },
    {
      "anonymous": false,
      "inputs": [
        {
          "indexed": true,
          "internalType": "bytes32",
          "name": "ruleSetHash",
          "type": "bytes32"
        },
        {
          "indexed": true,
          "internalType": "address",
          "name": "owner",
          "type": "address"
        }
      ],
      "name": "RuleSetDeactivated",
      "type": "event"
    },
    {
      "anonymous": false,
      "inputs": [
        {
          "indexed": true,
          "internalType": "bytes32",
          "name": "ruleSetHash",
          "type": "bytes32"
        },
        {
          "indexed": true,
          "internalType": "address",
          "name": "owner",
          "type": "address"
        },
        {
          "indexed": false,
          "internalType": "uint64",
          "name": "version",
          "type": "uint64"
        }
      ],
      "name": "RuleSetRegistered",
      "type": "event"
    },
    {
      "anonymous": false,
      "inputs": [
        {
          "indexed": true,
          "internalType": "bytes32",
          "name": "oldHash",
          "type": "bytes32"
        },
        {
          "indexed": true,
          "internalType": "bytes32",
          "name": "newHash",
          "type": "bytes32"
        },
        {
          "indexed": true,
          "internalType": "address",
          "name": "owner",
          "type": "address"
        },
        {
          "indexed": false,
          "internalType": "uint64",
          "name": "newVersion",
          "type": "uint64"
        }
      ],
      "name": "RuleSetUpdated",
      "type": "event"
    },
    {
      "inputs": [],
      "name": "DEFAULT_ADMIN_ROLE",
      "outputs": [
        {
          "internalType": "bytes32",
          "name": "",
          "type": "bytes32"
        }
      ],
      "stateMutability": "view",
      "type": "function"
    },
    {
      "inputs": [],
      "name": "REGISTRAR_ROLE",
      "outputs": [
        {
          "internalType": "bytes32",
          "name": "",
          "type": "bytes32"
        }
      ],
      "stateMutability": "view",
      "type": "function"
    },
    {
      "inputs": [
        {
          "internalType": "bytes32",
          "name": "ruleSetHash",
          "type": "bytes32"
        }
      ],
      "name": "deactivateRuleSet",
      "outputs": [],
      "stateMutability": "nonpayable",
      "type": "function"
    },
    {
      "inputs": [
        {
          "internalType": "address",
          "name": "owner",
          "type": "address"
        }
      ],
      "name": "getOwnerRuleSets",
      "outputs": [
        {
          "internalType": "bytes32[]",
          "name": "",
          "type": "bytes32[]"
        }
      ],
      "stateMutability": "view",
      "type": "function"
    },
    {
      "inputs": [
        {
          "internalType": "bytes32",
          "name": "role",
          "type": "bytes32"
        }
      ],
      "name": "getRoleAdmin",
      "outputs": [
        {
          "internalType": "bytes32",
          "name": "",
          "type": "bytes32"
        }
      ],
      "stateMutability": "view",
      "type": "function"
    },
    {
      "inputs": [
        {
          "internalType": "bytes32",
          "name": "ruleSetHash",
          "type": "bytes32"
        }
      ],
      "name": "getRuleByHash",
      "outputs": [
        {
          "internalType": "address",
          "name": "owner",
          "type": "address"
        },
        {
          "components": [
            {
              "internalType": "address",
              "name": "ruleNFT",
              "type": "address"
            },
            {
              "internalType": "uint256",
              "name": "tokenId",
              "type": "uint256"
            }
          ],
          "internalType": "struct IRuleAuthority.RuleRef[]",
          "name": "ruleRefs",
          "type": "tuple[]"
        },
        {
          "internalType": "uint64",
          "name": "version",
          "type": "uint64"
        }
      ],
      "stateMutability": "view",
      "type": "function"
    },
    {
      "inputs": [
        {
          "internalType": "bytes32",
          "name": "ruleSetHash",
          "type": "bytes32"
        },
        {
          "internalType": "uint256",
          "name": "index",
          "type": "uint256"
        }
      ],
      "name": "getRuleRef",
      "outputs": [
        {
          "internalType": "address",
          "name": "ruleNFT",
          "type": "address"
        },
        {
          "internalType": "uint256",
          "name": "tokenId",
          "type": "uint256"
        }
      ],
      "stateMutability": "view",
      "type": "function"
    },
    {
      "inputs": [
        {
          "internalType": "bytes32",
          "name": "ruleSetHash",
          "type": "bytes32"
        }
      ],
      "name": "getRuleSet",
      "outputs": [
        {
          "internalType": "address",
          "name": "owner",
          "type": "address"
        },
        {
          "internalType": "uint64",
          "name": "version",
          "type": "uint64"
        },
        {
          "internalType": "bool",
          "name": "active",
          "type": "bool"
        },
        {
          "internalType": "uint256",
          "name": "registeredAt",
          "type": "uint256"
        },
        {
          "internalType": "uint256",
          "name": "refCount",
          "type": "uint256"
        }
      ],
      "stateMutability": "view",
      "type": "function"
    },
    {
      "inputs": [
        {
          "internalType": "bytes32",
          "name": "role",
          "type": "bytes32"
        },
        {
          "internalType": "address",
          "name": "account",
          "type": "address"
        }
      ],
      "name": "grantRole",
      "outputs": [],
      "stateMutability": "nonpayable",
      "type": "function"
    },
    {
      "inputs": [
        {
          "internalType": "bytes32",
          "name": "role",
          "type": "bytes32"
        },
        {
          "internalType": "address",
          "name": "account",
          "type": "address"
        }
      ],
      "name": "hasRole",
      "outputs": [
        {
          "internalType": "bool",
          "name": "",
          "type": "bool"
        }
      ],
      "stateMutability": "view",
      "type": "function"
    },
    {
      "inputs": [
        {
          "internalType": "address",
          "name": "",
          "type": "address"
        },
        {
          "internalType": "uint256",
          "name": "",
          "type": "uint256"
        }
      ],
      "name": "ownerRuleSets",
      "outputs": [
        {
          "internalType": "bytes32",
          "name": "",
          "type": "bytes32"
        }
      ],
      "stateMutability": "view",
      "type": "function"
    },
    {
      "inputs": [
        {
          "internalType": "bytes32",
          "name": "ruleSetHash",
          "type": "bytes32"
        },
        {
          "components": [
            {
              "internalType": "address",
              "name": "ruleNFT",
              "type": "address"
            },
            {
              "internalType": "uint256",
              "name": "tokenId",
              "type": "uint256"
            }
          ],
          "internalType": "struct IRuleAuthority.RuleRef[]",
          "name": "ruleRefs",
          "type": "tuple[]"
        }
      ],
      "name": "registerRuleSet",
      "outputs": [],
      "stateMutability": "nonpayable",
      "type": "function"
    },
    {
      "inputs": [
        {
          "internalType": "bytes32",
          "name": "role",
          "type": "bytes32"
        },
        {
          "internalType": "address",
          "name": "callerConfirmation",
          "type": "address"
        }
      ],
      "name": "renounceRole",
      "outputs": [],
      "stateMutability": "nonpayable",
      "type": "function"
    },
    {
      "inputs": [
        {
          "internalType": "bytes32",
          "name": "role",
          "type": "bytes32"
        },
        {
          "internalType": "address",
          "name": "account",
          "type": "address"
        }
      ],
      "name": "revokeRole",
      "outputs": [],
      "stateMutability": "nonpayable",
      "type": "function"
    },
    {
      "inputs": [
        {
          "internalType": "bytes4",
          "name": "interfaceId",
          "type": "bytes4"
        }
      ],
      "name": "supportsInterface",
      "outputs": [
        {
          "internalType": "bool",
          "name": "",
          "type": "bool"
        }
      ],
      "stateMutability": "view",
      "type": "function"
    },
    {
      "inputs": [
        {
          "internalType": "bytes32",
          "name": "oldHash",
          "type": "bytes32"
        },
        {
          "internalType": "bytes32",
          "name": "newHash",
          "type": "bytes32"
        },
        {
          "components": [
            {
              "internalType": "address",
              "name": "ruleNFT",
              "type": "address"
            },
            {
              "internalType": "uint256",
              "name": "tokenId",
              "type": "uint256"
            }
          ],
          "internalType": "struct IRuleAuthority.RuleRef[]",
          "name": "newRefs",
          "type": "tuple[]"
        }
      ],
      "name": "updateRuleSet",
      "outputs": [],
      "stateMutability": "nonpayable",
      "type": "function"
    }
  ],
  "bytecode": "0x608060405234801561000f575f5ffd5b506040516113fa3803806113fa83398101604081905261002e91610113565b6100385f8261006a565b506100637fedcc084d3dcd65a1f7f23c65c46722faca6953d28e43150a467cf43e5c3092388261006a565b5050610140565b5f828152602081815260408083206001600160a01b038516845290915281205460ff1661010a575f838152602081815260408083206001600160a01b03861684529091529020805460ff191660011790556100c23390565b6001600160a01b0316826001600160a01b0316847f2f8788117e7eff1d82e926ec794901d17c78024a50270940304540a733656f0d60405160405180910390a450600161010d565b505f5b92915050565b5f60208284031215610123575f5ffd5b81516001600160a01b0381168114610139575f5ffd5b9392505050565b6112ad8061014d5f395ff3fe608060405234801561000f575f5ffd5b50600436106100fb575f3560e01c806391d1485411610093578063d547741f11610063578063d547741f1461027a578063ed3860111461028d578063f252591a146102ad578063f68e9553146102c0575f5ffd5b806391d148541461023a5780639c42bc471461024d578063a217fddf14610260578063cf98fccb14610267575f5ffd5b8063248a9ca3116100ce578063248a9ca3146101cf57806328b0ffd8146101ff5780632f2ff15d1461021457806336568abe14610227575f5ffd5b806301ffc9a7146100ff578063049fbcc5146101275780630eb7798a1461017b5780631b1d01331461019d575b5f5ffd5b61011261010d366004610f52565b6102e7565b60405190151581526020015b60405180910390f35b61013a610135366004610f80565b61031d565b604080516001600160a01b03909616865267ffffffffffffffff9094166020860152911515928401929092526060830191909152608082015260a00161011e565b61018e610189366004610f80565b6103a4565b60405161011e93929190610f97565b6101b06101ab366004611014565b6104c8565b604080516001600160a01b03909316835260208301919091520161011e565b6101f16101dd366004610f80565b5f9081526020819052604090206001015490565b60405190815260200161011e565b61021261020d366004611075565b6105a2565b005b6102126102223660046110d8565b610909565b6102126102353660046110d8565b610933565b6101126102483660046110d8565b61096b565b61021261025b366004610f80565b610993565b6101f15f81565b6101f1610275366004611106565b610ab3565b6102126102883660046110d8565b610ade565b6102a061029b366004611130565b610b02565b60405161011e919061114b565b6102126102bb36600461118d565b610b6b565b6101f17fedcc084d3dcd65a1f7f23c65c46722faca6953d28e43150a467cf43e5c30923881565b5f6001600160e01b03198216637965db0b60e01b148061031757506301ffc9a760e01b6001600160e01b03198316145b92915050565b5f818152600160205260408120805482918291829182916001600160a01b03166103625760405162461bcd60e51b8152600401610359906111d5565b60405180910390fd5b8054600282015460038301546001909301546001600160a01b039092169967ffffffffffffffff82169950600160401b90910460ff1697509195509350915050565b5f818152600160205260408120805460609183916001600160a01b03166103dd5760405162461bcd60e51b8152600401610359906111d5565b6002810154600160401b900460ff1661042c5760405162461bcd60e51b815260206004820152601160248201527052554c455f5345545f494e41435449564560781b6044820152606401610359565b80546002820154600183018054604080516020808402820181019092528281526001600160a01b0390951694929367ffffffffffffffff16929184915f9084015b828210156104b4575f848152602090819020604080518082019091526002850290910180546001600160a01b0316825260019081015482840152908352909201910161046d565b505050509150935093509350509193909250565b5f82815260016020526040812080548291906001600160a01b03166104ff5760405162461bcd60e51b8152600401610359906111d5565b600181015484106105485760405162461bcd60e51b8152602060048201526013602482015272494e4445585f4f55545f4f465f424f554e445360681b6044820152606401610359565b5f81600101858154811061055e5761055e611201565b5f9182526020918290206040805180820190915260029092020180546001600160a01b031680835260019091015491909201819052909450925050505b9250929050565b5f84815260016020526040902080546001600160a01b031633146105f45760405162461bcd60e51b81526020600482015260096024820152682727aa2fa7aba722a960b91b6044820152606401610359565b6002810154600160401b900460ff166106425760405162461bcd60e51b815260206004820152601060248201526f414c52454144595f494e41435449564560801b6044820152606401610359565b836106825760405162461bcd60e51b815260206004820152601060248201526f0929cac82989288be9c8aaebe9082a6960831b6044820152606401610359565b8484036106bd5760405162461bcd60e51b81526020600482015260096024820152680a6829a8abe9082a6960bb1b6044820152606401610359565b5f848152600160205260409020546001600160a01b0316156107215760405162461bcd60e51b815260206004820152601b60248201527f4e45575f484153485f414c52454144595f5245474953544552454400000000006044820152606401610359565b816107605760405162461bcd60e51b815260206004820152600f60248201526e454d5054595f52554c455f5245465360881b6044820152606401610359565b600a8211156107a15760405162461bcd60e51b815260206004820152600d60248201526c544f4f5f4d414e595f5245465360981b6044820152606401610359565b60028101545f906107bd9067ffffffffffffffff166001611215565b60028301805460ff60401b19169055604051909150339087907f397b533bd79c7fb896e5cf2d38b0ed93ee3c92ab67a9a4a04ec418468e5d59f4905f90a35f85815260016020526040812080546001600160a01b0319163317815560028101805468ffffffffffffffffff191667ffffffffffffffff851617600160401b179055426003820155905b8481101561089b578160010186868381811061086457610864611201565b83546001810185555f94855260209094206040909102929092019260020290910190506108918282611241565b5050600101610846565b50335f818152600260209081526040808320805460018101825590845292829020909201899055905167ffffffffffffffff8516815288918a917f496c1355917548e0a21ffe960a117aabb8fab91da0c2d8c0154370d39643bfa2910160405180910390a450505050505050565b5f8281526020819052604090206001015461092381610e10565b61092d8383610e1d565b50505050565b6001600160a01b038116331461095c5760405163334bd91960e11b815260040160405180910390fd5b6109668282610eac565b505050565b5f918252602082815260408084206001600160a01b0393909316845291905290205460ff1690565b5f81815260016020526040902080546001600160a01b03163314806109dd57506109dd7fedcc084d3dcd65a1f7f23c65c46722faca6953d28e43150a467cf43e5c3092383361096b565b610a1a5760405162461bcd60e51b815260206004820152600e60248201526d1393d517d055551213d49256915160921b6044820152606401610359565b6002810154600160401b900460ff16610a685760405162461bcd60e51b815260206004820152601060248201526f414c52454144595f494e41435449564560801b6044820152606401610359565b60028101805460ff60401b1916905580546040516001600160a01b039091169083907f397b533bd79c7fb896e5cf2d38b0ed93ee3c92ab67a9a4a04ec418468e5d59f4905f90a35050565b6002602052815f5260405f208181548110610acc575f80fd5b905f5260205f20015f91509150505481565b5f82815260208190526040902060010154610af881610e10565b61092d8383610eac565b6001600160a01b0381165f90815260026020908152604091829020805483518184028101840190945280845260609392830182828015610b5f57602002820191905f5260205f20905b815481526020019060010190808311610b4b575b50505050509050919050565b82610ba75760405162461bcd60e51b815260206004820152600c60248201526b0929cac82989288be9082a6960a31b6044820152606401610359565b80610be65760405162461bcd60e51b815260206004820152600f60248201526e454d5054595f52554c455f5245465360881b6044820152606401610359565b600a811115610c275760405162461bcd60e51b815260206004820152600d60248201526c544f4f5f4d414e595f5245465360981b6044820152606401610359565b5f838152600160205260409020546001600160a01b031615610c8b5760405162461bcd60e51b815260206004820152601760248201527f484153485f414c52454144595f524547495354455245440000000000000000006044820152606401610359565b5f5b81811015610d15575f838383818110610ca857610ca8611201565b610cbe9260206040909202019081019150611130565b6001600160a01b03163b11610d0d5760405162461bcd60e51b81526020600482015260156024820152741495531157d3919517d393d517d0d3d395149050d5605a1b6044820152606401610359565b600101610c8d565b505f83815260016020526040812080546001600160a01b031916331781556002810180546801000000000000000168ffffffffffffffffff19909116179055426003820155905b82811015610db15781600101848483818110610d7a57610d7a611201565b83546001810185555f9485526020909420604090910292909201926002029091019050610da78282611241565b5050600101610d5c565b50335f818152600260209081526040808320805460018082018355918552938390209093018890555191825286917f5760a0db896852aabe97ab76c9488143df97bd306f6d63cc5f47b4b814557909910160405180910390a350505050565b610e1a8133610f15565b50565b5f610e28838361096b565b610ea5575f838152602081815260408083206001600160a01b03861684529091529020805460ff19166001179055610e5d3390565b6001600160a01b0316826001600160a01b0316847f2f8788117e7eff1d82e926ec794901d17c78024a50270940304540a733656f0d60405160405180910390a4506001610317565b505f610317565b5f610eb7838361096b565b15610ea5575f838152602081815260408083206001600160a01b0386168085529252808320805460ff1916905551339286917ff6391f5c32d9c69d2a47ea670b442974b53935d1edc7fd64eb21e047a839171b9190a4506001610317565b610f1f828261096b565b610f4e5760405163e2517d3f60e01b81526001600160a01b038216600482015260248101839052604401610359565b5050565b5f60208284031215610f62575f5ffd5b81356001600160e01b031981168114610f79575f5ffd5b9392505050565b5f60208284031215610f90575f5ffd5b5035919050565b6001600160a01b03841681526060602080830182905284519183018290525f91908501906080840190835b81811015610ff557835180516001600160a01b031684526020908101518185015290930192604090920191600101610fc2565b5050809250505067ffffffffffffffff83166040830152949350505050565b5f5f60408385031215611025575f5ffd5b50508035926020909101359150565b5f5f83601f840112611044575f5ffd5b50813567ffffffffffffffff81111561105b575f5ffd5b6020830191508360208260061b850101111561059b575f5ffd5b5f5f5f5f60608587031215611088575f5ffd5b8435935060208501359250604085013567ffffffffffffffff8111156110ac575f5ffd5b6110b887828801611034565b95989497509550505050565b6001600160a01b0381168114610e1a575f5ffd5b5f5f604083850312156110e9575f5ffd5b8235915060208301356110fb816110c4565b809150509250929050565b5f5f60408385031215611117575f5ffd5b8235611122816110c4565b946020939093013593505050565b5f60208284031215611140575f5ffd5b8135610f79816110c4565b602080825282518282018190525f918401906040840190835b81811015611182578351835260209384019390920191600101611164565b509095945050505050565b5f5f5f6040848603121561119f575f5ffd5b83359250602084013567ffffffffffffffff8111156111bc575f5ffd5b6111c886828701611034565b9497909650939450505050565b6020808252601290820152711495531157d4d15517d393d517d193d5539160721b604082015260600190565b634e487b7160e01b5f52603260045260245ffd5b67ffffffffffffffff818116838216019081111561031757634e487b7160e01b5f52601160045260245ffd5b813561124c816110c4565b81546001600160a01b0319166001600160a01b0391909116178155602091909101356001919091015556fea26469706673582212206561e4a9fcf3d93494f0dc192689c563dc2152cb567b36ef4acd98626e571c5064736f6c634300081c0033",
  "linkReferences": {},
  "deployedLinkReferences": {},
  "immutableReferences": {},
  "inputSourceName": "project/contracts/RuleAuthority.sol",
  "buildInfoId": "solc-0_8_28-4082751191de3ae208405478201410aa5586d647"
}