{
  "_format": "hh3-artifact-1",
  "contractName": "CombinedRuleStorage",
  "sourceName": "contracts/CombinedRuleStorage.sol",
  "abi": [
    {
      "inputs": [],
      "name": "ArrayLengthMismatch",
      "type": "error"
    },
    {
      "inputs": [],
      "name": "EmptyRuleSet",
      "type": "error"
    },
    {
      "inputs": [],
      "name": "EmptyRules",
      "type": "error"
    },
    {
      "inputs": [],
      "name": "InvalidHash",
      "type": "error"
    },
    {
      "inputs": [],
      "name": "InvalidRuleNFTContract",
      "type": "error"
    },
    {
      "inputs": [],
      "name": "MaxRulesExceeded",
      "type": "error"
    },
    {
      "inputs": [],
      "name": "NoActiveRule",
      "type": "error"
    },
    {
      "inputs": [],
      "name": "NoActiveRuleForDirection",
      "type": "error"
    },
    {
      "inputs": [],
      "name": "NotRuleNFTOwner",
      "type": "error"
    },
    {
      "inputs": [],
      "name": "RuleDeprecated",
      "type": "error"
    },
    {
      "inputs": [],
      "name": "RuleExpired",
      "type": "error"
    },
    {
      "inputs": [],
      "name": "RuleNFTAlreadyUsed",
      "type": "error"
    },
    {
      "inputs": [],
      "name": "RuleNFTOwnershipSplit",
      "type": "error"
    },
    {
      "inputs": [],
      "name": "RuleNotActive",
      "type": "error"
    },
    {
      "anonymous": false,
      "inputs": [
        {
          "indexed": true,
          "internalType": "bytes32",
          "name": "ruleSetHash",
          "type": "bytes32"
        }
      ],
      "name": "CombinedRuleDeactivated",
      "type": "event"
    },
    {
      "anonymous": false,
      "inputs": [
        {
          "indexed": true,
          "internalType": "bytes32",
          "name": "ruleSetHash",
          "type": "bytes32"
        },
        {
          "indexed": true,
          "internalType": "address",
          "name": "oldOwner",
          "type": "address"
        },
        {
          "indexed": true,
          "internalType": "address",
          "name": "newOwner",
          "type": "address"
        }
      ],
      "name": "CombinedRuleOwnershipSynced",
      "type": "event"
    },
    {
      "anonymous": false,
      "inputs": [
        {
          "indexed": true,
          "internalType": "bytes32",
          "name": "ruleSetHash",
          "type": "bytes32"
        },
        {
          "indexed": true,
          "internalType": "address",
          "name": "owner",
          "type": "address"
        },
        {
          "indexed": false,
          "internalType": "uint64",
          "name": "version",
          "type": "uint64"
        }
      ],
      "name": "CombinedRuleRegistered",
      "type": "event"
    },
    {
      "anonymous": false,
      "inputs": [
        {
          "indexed": true,
          "internalType": "bytes32",
          "name": "ruleSetHash",
          "type": "bytes32"
        },
        {
          "indexed": true,
          "internalType": "address",
          "name": "owner",
          "type": "address"
        },
        {
          "indexed": true,
          "internalType": "enum CombinedRuleStorage.RuleDirection",
          "name": "direction",
          "type": "uint8"
        },
        {
          "indexed": false,
          "internalType": "uint64",
          "name": "version",
          "type": "uint64"
        }
      ],
      "name": "CombinedRuleRegisteredWithDirection",
      "type": "event"
    },
    {
      "inputs": [],
      "name": "MAX_RULES",
      "outputs": [
        {
          "internalType": "uint256",
          "name": "",
          "type": "uint256"
        }
      ],
      "stateMutability": "view",
      "type": "function"
    },
    {
      "inputs": [
        {
          "internalType": "address",
          "name": "",
          "type": "address"
        }
      ],
      "name": "activeRuleOf",
      "outputs": [
        {
          "internalType": "bytes32",
          "name": "",
          "type": "bytes32"
        }
      ],
      "stateMutability": "view",
      "type": "function"
    },
    {
      "inputs": [
        {
          "internalType": "address",
          "name": "",
          "type": "address"
        },
        {
          "internalType": "enum CombinedRuleStorage.RuleDirection",
          "name": "",
          "type": "uint8"
        }
      ],
      "name": "activeRuleOfByDirection",
      "outputs": [
        {
          "internalType": "bytes32",
          "name": "",
          "type": "bytes32"
        }
      ],
      "stateMutability": "view",
      "type": "function"
    },
    {
      "inputs": [],
      "name": "deactivateMyCombinedRule",
      "outputs": [],
      "stateMutability": "nonpayable",
      "type": "function"
    },
    {
      "inputs": [
        {
          "internalType": "enum CombinedRuleStorage.RuleDirection",
          "name": "direction",
          "type": "uint8"
        }
      ],
      "name": "deactivateMyCombinedRuleForDirection",
      "outputs": [],
      "stateMutability": "nonpayable",
      "type": "function"
    },
    {
      "inputs": [
        {
          "internalType": "address",
          "name": "owner",
          "type": "address"
        }
      ],
      "name": "getActiveRuleOf",
      "outputs": [
        {
          "internalType": "bytes32",
          "name": "ruleSetHash",
          "type": "bytes32"
        }
      ],
      "stateMutability": "view",
      "type": "function"
    },
    {
      "inputs": [
        {
          "internalType": "address",
          "name": "owner",
          "type": "address"
        },
        {
          "internalType": "enum CombinedRuleStorage.RuleDirection",
          "name": "direction",
          "type": "uint8"
        }
      ],
      "name": "getActiveRuleOfByDirection",
      "outputs": [
        {
          "internalType": "bytes32",
          "name": "ruleSetHash",
          "type": "bytes32"
        }
      ],
      "stateMutability": "view",
      "type": "function"
    },
    {
      "inputs": [
        {
          "internalType": "bytes32",
          "name": "ruleSetHash",
          "type": "bytes32"
        }
      ],
      "name": "getRuleByHash",
      "outputs": [
        {
          "internalType": "address",
          "name": "owner",
          "type": "address"
        },
        {
          "components": [
            {
              "internalType": "address",
              "name": "ruleNFT",
              "type": "address"
            },
            {
              "internalType": "uint256",
              "name": "tokenId",
              "type": "uint256"
            }
          ],
          "internalType": "struct CombinedRuleStorage.RuleRef[]",
          "name": "ruleRefs",
          "type": "tuple[]"
        },
        {
          "internalType": "uint64",
          "name": "version",
          "type": "uint64"
        }
      ],
      "stateMutability": "view",
      "type": "function"
    },
    {
      "inputs": [
        {
          "internalType": "bytes32",
          "name": "ruleSetHash",
          "type": "bytes32"
        }
      ],
      "name": "isActive",
      "outputs": [
        {
          "internalType": "bool",
          "name": "",
          "type": "bool"
        }
      ],
      "stateMutability": "view",
      "type": "function"
    },
    {
      "inputs": [],
      "name": "listAllRuleSetHashes",
      "outputs": [
        {
          "internalType": "bytes32[]",
          "name": "",
          "type": "bytes32[]"
        }
      ],
      "stateMutability": "view",
      "type": "function"
    },
    {
      "inputs": [
        {
          "internalType": "bytes32",
          "name": "ruleSetHash",
          "type": "bytes32"
        },
        {
          "internalType": "address[]",
          "name": "ruleNFTs",
          "type": "address[]"
        },
        {
          "internalType": "uint256[]",
          "name": "tokenIds",
          "type": "uint256[]"
        },
        {
          "internalType": "uint64",
          "name": "version",
          "type": "uint64"
        }
      ],
      "name": "registerCombinedRule",
      "outputs": [],
      "stateMutability": "nonpayable",
      "type": "function"
    },
    {
      "inputs": [
        {
          "internalType": "bytes32",
          "name": "ruleSetHash",
          "type": "bytes32"
        },
        {
          "internalType": "enum CombinedRuleStorage.RuleDirection",
          "name": "direction",
          "type": "uint8"
        },
        {
          "internalType": "address[]",
          "name": "ruleNFTs",
          "type": "address[]"
        },
        {
          "internalType": "uint256[]",
          "name": "tokenIds",
          "type": "uint256[]"
        },
        {
          "internalType": "uint64",
          "name": "version",
          "type": "uint64"
        }
      ],
      "name": "registerCombinedRuleForDirection",
      "outputs": [],
      "stateMutability": "nonpayable",
      "type": "function"
    },
    {
      "inputs": [
        {
          "internalType": "bytes32",
          "name": "ruleSetHash",
          "type": "bytes32"
        }
      ],
      "name": "syncOwner",
      "outputs": [],
      "stateMutability": "nonpayable",
      "type": "function"
    },
    {
      "inputs": [
        {
          "internalType": "address",
          "name": "",
          "type": "address"
        },
        {
          "internalType": "uint256",
          "name": "",
          "type": "uint256"
        }
      ],
      "name": "usedRuleNFT",
      "outputs": [
        {
          "internalType": "bool",
          "name": "",
          "type": "bool"
        }
      ],
      "stateMutability": "view",
      "type": "function"
    }
  ],
  "bytecode": "0x6080604052348015600e575f5ffd5b5061175c8061001c5f395ff3fe608060405234801561000f575f5ffd5b50600436106100e5575f3560e01c8063742de4101161008857806380a4bdce1161006357806380a4bdce1461020c5780639ec296f214610221578063e0fd95b914610229578063fbbb237714610253575f5ffd5b8063742de410146101c75780637d345996146101da5780637f9f4013146101f9575f5ffd5b80633c9384fb116100c35780633c9384fb1461015d578063421b3051146101705780635c36901c146101835780636c96598a146101bf575f5ffd5b806305b5daca146100e95780630eb7798a1461012657806330c2764114610148575b5f5ffd5b6101136100f7366004611290565b600360209081525f928352604080842090915290825290205481565b6040519081526020015b60405180910390f35b6101396101343660046112c3565b610266565b60405161011d939291906112da565b61015b6101563660046112c3565b61033f565b005b61015b61016b3660046113b3565b61069f565b61015b61017e36600461144a565b6106b8565b6101af6101913660046112c3565b5f90815260016020526040902060030154600160401b900460ff1690565b604051901515815260200161011d565b61015b6107c5565b6101136101d5366004611290565b6108af565b6101136101e836600461146a565b60026020525f908152604090205481565b61011361020736600461146a565b610920565b61021461095b565b60405161011d9190611485565b610113600a81565b6101af6102373660046114c7565b5f60208181529281526040808220909352908152205460ff1681565b61015b6102613660046114f1565b6109b1565b5f81815260016020526040812060038101546060918391600160401b900460ff166102a45760405163822e020760e01b815260040160405180910390fd5b80546003820154600283018054604080516020808402820181019092528281526001600160a01b039095169492936001600160401b0316929184915f9084015b8282101561032b575f848152602090819020604080518082019091526002850290910180546001600160a01b031682526001908101548284015290835290920191016102e4565b505050509150935093509350509193909250565b5f8181526001602052604090206003810154600160401b900460ff166103785760405163822e020760e01b815260040160405180910390fd5b60028101545f0361039c57604051639ab4384960e01b815260040160405180910390fd5b5f816002015f815481106103b2576103b2611577565b5f918252602082206002918202015490840180546001600160a01b0390921692636352211e926103e4576103e4611577565b905f5260205f209060020201600101546040518263ffffffff1660e01b815260040161041291815260200190565b602060405180830381865afa15801561042d573d5f5f3e3d5ffd5b505050506040513d601f19601f820116820180604052508101906104519190611596565b905060015b600283015481101561055557816001600160a01b031683600201828154811061048157610481611577565b5f91825260209091206002918202015490850180546001600160a01b0390921691636352211e9190859081106104b9576104b9611577565b905f5260205f209060020201600101546040518263ffffffff1660e01b81526004016104e791815260200190565b602060405180830381865afa158015610502573d5f5f3e3d5ffd5b505050506040513d601f19601f820116820180604052508101906105269190611596565b6001600160a01b03161461054d5760405163770cf1fd60e11b815260040160405180910390fd5b600101610456565b5081546001600160a01b0382811691161461069a5781546001600160a01b03165f818152600260205260409020548490036105a3576001600160a01b0381165f908152600260205260408120555b6001600160a01b0381165f908152600360209081526040808320600184529091529020548490036105f3576001600160a01b0381165f908152600360209081526040808320600184529091528120555b6001600160a01b0381165f908152600360209081526040808320838052909152902054849003610641576001600160a01b0381165f9081526003602090815260408083208380529091528120555b82546001600160a01b0319166001600160a01b0383811691821785555f82815260026020526040808220889055519184169187917f81a14da867dd8594091cc0b22b62b01d741e9dcc1b568b619850000ce29b83eb91a4505b505050565b6106af8786868686865f8d6109ca565b50505050505050565b335f908152600360205260408120818360018111156106d9576106d96115b1565b60018111156106ea576106ea6115b1565b815260208101919091526040015f205490508061071a576040516380f956d960e01b815260040160405180910390fd5b5f8181526001602081815260408084206003908101805460ff60401b1916905533855290915282209082908590811115610756576107566115b1565b6001811115610767576107676115b1565b815260208082019290925260409081015f9081209390935533835260029091529020548190036107a157335f908152600260205260408120555b6107aa81610ef9565b60405181905f5160206117075f395f51905f52905f90a25050565b335f90815260026020526040902054806107f257604051635e788a9d60e01b815260040160405180910390fd5b5f8181526001602081815260408084206003908101805460ff60401b1916905533855260028352818520859055825280842092845291905290205481900361085057335f908152600360209081526040808320600184529091528120555b335f90815260036020908152604080832083805290915290205481900361088c57335f9081526003602090815260408083208380529091528120555b61089581610ef9565b60405181905f5160206117075f395f51905f52905f90a250565b6001600160a01b0382165f908152600360205260408120818360018111156108d9576108d96115b1565b60018111156108ea576108ea6115b1565b815260208101919091526040015f205490508061091a576040516380f956d960e01b815260040160405180910390fd5b92915050565b6001600160a01b0381165f908152600260205260409020548061095657604051635e788a9d60e01b815260040160405180910390fd5b919050565b606060048054806020026020016040519081016040528092919081815260200182805480156109a757602002820191905f5260205f20905b815481526020019060010190808311610993575b5050505050905090565b6109c28686868686866001806109ca565b505050505050565b876109e7576040516257c03760e51b815260040160405180910390fd5b5f869003610a0857604051635c6c2e4160e01b815260040160405180910390fd5b600a861115610a2a5760405163153619c960e11b815260040160405180910390fd5b858414610a4a5760405163512509d360e11b815260040160405180910390fd5b8115610aa457335f908152600260205260409020548015610a9e57610a6e81610ef9565b5f81815260016020526040808220600301805460ff60401b191690555182915f5160206117075f395f51905f5291a25b50610b29565b335f90815260036020526040812081836001811115610ac557610ac56115b1565b6001811115610ad657610ad66115b1565b815260208101919091526040015f205490508015610b2757610af781610ef9565b5f81815260016020526040808220600301805460ff60401b191690555182915f5160206117075f395f51905f5291a25b505b5f8881526005602052604090205460ff16610b8b575f888152600560205260408120805460ff191660019081179091556004805491820181559091527f8a35acfbc15ff81a39ae7d344fd709f28e8600b4aa8c65c6b64bfe7fe36bd19b018890555b5f88815260016020526040812090610ba7906002830190611224565b5f5b87811015610dc0575f5f8a8a84818110610bc557610bc5611577565b9050602002016020810190610bda919061146a565b6001600160a01b03166001600160a01b031681526020019081526020015f205f888884818110610c0c57610c0c611577565b602090810292909201358352508101919091526040015f205460ff1615610c465760405163f40254cf60e01b815260040160405180910390fd5b60015f5f8b8b85818110610c5c57610c5c611577565b9050602002016020810190610c71919061146a565b6001600160a01b03166001600160a01b031681526020019081526020015f205f898985818110610ca357610ca3611577565b9050602002013581526020019081526020015f205f6101000a81548160ff021916908315150217905550610d16898983818110610ce257610ce2611577565b9050602002016020810190610cf7919061146a565b888884818110610d0957610d09611577565b9050602002013533610fa3565b8160020160405180604001604052808b8b85818110610d3757610d37611577565b9050602002016020810190610d4c919061146a565b6001600160a01b03168152602001898985818110610d6c57610d6c611577565b602090810292909201359092528354600180820186555f95865294829020845160029092020180546001600160a01b0319166001600160a01b03909216919091178155920151918301919091555001610ba9565b5080546001600160a01b031916331781556001810189905560038101805468ffffffffffffffffff19166001600160401b03861617600160401b1790558215610e5857335f818152600260209081526040918290208c905590516001600160401b03871681528b917f8575d2f640993a1ca4150f6861b6dd158ca55829ddd4eba68889b372cbf0efdb910160405180910390a3610eee565b335f9081526003602052604081208a91846001811115610e7a57610e7a6115b1565b6001811115610e8b57610e8b6115b1565b815260208101919091526040015f2055816001811115610ead57610ead6115b1565b6040516001600160401b038616815233908b907f180e1cef5c93a3292fc87dc50dabbaf0d29b372161f9fc7ca0926f7152e4f47a9060200160405180910390a45b505050505050505050565b5f818152600160205260408120600201905b815481101561069a575f5f5f848481548110610f2957610f29611577565b5f91825260208083206002909202909101546001600160a01b0316835282019290925260400181208454909190859085908110610f6857610f68611577565b5f91825260208083206001600290930201820154845283019390935260409091019020805492151560ff199093169290921790915501610f0b565b826001600160a01b03163b5f03610fcd57604051632cc7417f60e01b815260040160405180910390fd5b6040516331a9108f60e11b81526004810183905283906001600160a01b038381169190831690636352211e90602401602060405180830381865afa158015611017573d5f5f3e3d5ffd5b505050506040513d601f19601f8201168201806040525081019061103b9190611596565b6001600160a01b0316146110625760405163d333ea5560e01b815260040160405180910390fd5b6040516306c80c8160e51b8152600481018490525f906001600160a01b0383169063d901902090602401602060405180830381865afa1580156110a7573d5f5f3e3d5ffd5b505050506040513d601f19601f820116820180604052508101906110cb91906115c5565b905080158015906110db57504281105b156110f8576040516284bb8d60e61b815260040160405180910390fd5b6040516305147b1360e51b8152600481018590525f906001600160a01b0384169063a28f626090602401602060405180830381865afa15801561113d573d5f5f3e3d5ffd5b505050506040513d601f19601f8201168201806040525081019061116191906115c5565b90505f5f846001600160a01b03166348462037846040518263ffffffff1660e01b815260040161119391815260200190565b5f60405180830381865afa1580156111ad573d5f5f3e3d5ffd5b505050506040513d5f823e601f3d908101601f191682016040526111d49190810190611610565b96509650505050505081156111fc57604051630e58ade560e01b815260040160405180910390fd5b8061121a5760405163822e020760e01b815260040160405180910390fd5b5050505050505050565b5080545f8255600202905f5260205f20908101906112429190611245565b50565b5b8082111561126a5780546001600160a01b03191681555f6001820155600201611246565b5090565b6001600160a01b0381168114611242575f5ffd5b803560028110610956575f5ffd5b5f5f604083850312156112a1575f5ffd5b82356112ac8161126e565b91506112ba60208401611282565b90509250929050565b5f602082840312156112d3575f5ffd5b5035919050565b6001600160a01b03841681526060602080830182905284519183018290525f91908501906080840190835b8181101561133857835180516001600160a01b031684526020908101518185015290930192604090920191600101611305565b505080925050506001600160401b0383166040830152949350505050565b5f5f83601f840112611366575f5ffd5b5081356001600160401b0381111561137c575f5ffd5b6020830191508360208260051b8501011115611396575f5ffd5b9250929050565b80356001600160401b0381168114610956575f5ffd5b5f5f5f5f5f5f5f60a0888a0312156113c9575f5ffd5b873596506113d960208901611282565b955060408801356001600160401b038111156113f3575f5ffd5b6113ff8a828b01611356565b90965094505060608801356001600160401b0381111561141d575f5ffd5b6114298a828b01611356565b909450925061143c90506080890161139d565b905092959891949750929550565b5f6020828403121561145a575f5ffd5b61146382611282565b9392505050565b5f6020828403121561147a575f5ffd5b81356114638161126e565b602080825282518282018190525f918401906040840190835b818110156114bc57835183526020938401939092019160010161149e565b509095945050505050565b5f5f604083850312156114d8575f5ffd5b82356114e38161126e565b946020939093013593505050565b5f5f5f5f5f5f60808789031215611506575f5ffd5b8635955060208701356001600160401b03811115611522575f5ffd5b61152e89828a01611356565b90965094505060408701356001600160401b0381111561154c575f5ffd5b61155889828a01611356565b909450925061156b90506060880161139d565b90509295509295509295565b634e487b7160e01b5f52603260045260245ffd5b80516109568161126e565b5f602082840312156115a6575f5ffd5b81516114638161126e565b634e487b7160e01b5f52602160045260245ffd5b5f602082840312156115d5575f5ffd5b5051919050565b634e487b7160e01b5f52604160045260245ffd5b805161ffff81168114610956575f5ffd5b80518015158114610956575f5ffd5b5f5f5f5f5f5f5f60e0888a031215611626575f5ffd5b8751965060208801516001600160401b03811115611642575f5ffd5b8801601f81018a13611652575f5ffd5b80516001600160401b0381111561166b5761166b6115dc565b604051601f8201601f19908116603f011681016001600160401b0381118282101715611699576116996115dc565b6040528181528282016020018c10156116b0575f5ffd5b8160208401602083015e5f602083830101528098505050506116d46040890161158b565b606089015190955093506116ea608089016115f0565b92506116f860a08901611601565b915061143c60c0890161160156fed0628cd5bd285fc434b5130be6fb4a9bdaeb0edc5e04907b28dd41696ef3ec0fa26469706673582212201ef4c13a5996ba008016ee34b10eccbf20f57bab42353b87c4d787bb334bfa1364736f6c634300081c0033",
  "linkReferences": {},
  "deployedLinkReferences": {},
  "immutableReferences": {},
  "inputSourceName": "project/contracts/CombinedRuleStorage.sol",
  "buildInfoId": "solc-0_8_28-a49732214bc912a0f98d291b74e2b14cbb9de138"
}