{
  "_format": "hh3-artifact-1",
  "contractName": "MockIDRX",
  "sourceName": "contracts/MockIDRX.sol",
  "abi": [
    {
      "inputs": [],
      "stateMutability": "nonpayable",
      "type": "constructor"
    },
    {
      "inputs": [
        {
          "internalType": "address",
          "name": "spender",
          "type": "address"
        },
        {
          "internalType": "uint256",
          "name": "allowance",
          "type": "uint256"
        },
        {
          "internalType": "uint256",
          "name": "needed",
          "type": "uint256"
        }
      ],
      "name": "ERC20InsufficientAllowance",
      "type": "error"
    },
    {
      "inputs": [
        {
          "internalType": "address",
          "name": "sender",
          "type": "address"
        },
        {
          "internalType": "uint256",
          "name": "balance",
          "type": "uint256"
        },
        {
          "internalType": "uint256",
          "name": "needed",
          "type": "uint256"
        }
      ],
      "name": "ERC20InsufficientBalance",
      "type": "error"
    },
    {
      "inputs": [
        {
          "internalType": "address",
          "name": "approver",
          "type": "address"
        }
      ],
      "name": "ERC20InvalidApprover",
      "type": "error"
    },
    {
      "inputs": [
        {
          "internalType": "address",
          "name": "receiver",
          "type": "address"
        }
      ],
      "name": "ERC20InvalidReceiver",
      "type": "error"
    },
    {
      "inputs": [
        {
          "internalType": "address",
          "name": "sender",
          "type": "address"
        }
      ],
      "name": "ERC20InvalidSender",
      "type": "error"
    },
    {
      "inputs": [
        {
          "internalType": "address",
          "name": "spender",
          "type": "address"
        }
      ],
      "name": "ERC20InvalidSpender",
      "type": "error"
    },
    {
      "inputs": [
        {
          "internalType": "address",
          "name": "owner",
          "type": "address"
        }
      ],
      "name": "OwnableInvalidOwner",
      "type": "error"
    },
    {
      "inputs": [
        {
          "internalType": "address",
          "name": "account",
          "type": "address"
        }
      ],
      "name": "OwnableUnauthorizedAccount",
      "type": "error"
    },
    {
      "anonymous": false,
      "inputs": [
        {
          "indexed": true,
          "internalType": "address",
          "name": "owner",
          "type": "address"
        },
        {
          "indexed": true,
          "internalType": "address",
          "name": "spender",
          "type": "address"
        },
        {
          "indexed": false,
          "internalType": "uint256",
          "name": "value",
          "type": "uint256"
        }
      ],
      "name": "Approval",
      "type": "event"
    },
    {
      "anonymous": false,
      "inputs": [
        {
          "indexed": true,
          "internalType": "address",
          "name": "from",
          "type": "address"
        },
        {
          "indexed": false,
          "internalType": "uint256",
          "name": "amount",
          "type": "uint256"
        }
      ],
      "name": "Burned",
      "type": "event"
    },
    {
      "anonymous": false,
      "inputs": [
        {
          "indexed": true,
          "internalType": "address",
          "name": "by",
          "type": "address"
        },
        {
          "indexed": false,
          "internalType": "uint256",
          "name": "amount",
          "type": "uint256"
        }
      ],
      "name": "Claimed",
      "type": "event"
    },
    {
      "anonymous": false,
      "inputs": [
        {
          "indexed": true,
          "internalType": "address",
          "name": "to",
          "type": "address"
        },
        {
          "indexed": false,
          "internalType": "uint256",
          "name": "amount",
          "type": "uint256"
        }
      ],
      "name": "Minted",
      "type": "event"
    },
    {
      "anonymous": false,
      "inputs": [
        {
          "indexed": true,
          "internalType": "address",
          "name": "previousOwner",
          "type": "address"
        },
        {
          "indexed": true,
          "internalType": "address",
          "name": "newOwner",
          "type": "address"
        }
      ],
      "name": "OwnershipTransferred",
      "type": "event"
    },
    {
      "anonymous": false,
      "inputs": [
        {
          "indexed": true,
          "internalType": "address",
          "name": "to",
          "type": "address"
        },
        {
          "indexed": false,
          "internalType": "uint256",
          "name": "amount",
          "type": "uint256"
        }
      ],
      "name": "Released",
      "type": "event"
    },
    {
      "anonymous": false,
      "inputs": [
        {
          "indexed": true,
          "internalType": "address",
          "name": "from",
          "type": "address"
        },
        {
          "indexed": true,
          "internalType": "address",
          "name": "to",
          "type": "address"
        },
        {
          "indexed": false,
          "internalType": "uint256",
          "name": "value",
          "type": "uint256"
        }
      ],
      "name": "Transfer",
      "type": "event"
    },
    {
      "inputs": [],
      "name": "MAX_SUPPLY",
      "outputs": [
        {
          "internalType": "uint256",
          "name": "",
          "type": "uint256"
        }
      ],
      "stateMutability": "view",
      "type": "function"
    },
    {
      "inputs": [
        {
          "internalType": "address",
          "name": "owner",
          "type": "address"
        },
        {
          "internalType": "address",
          "name": "spender",
          "type": "address"
        }
      ],
      "name": "allowance",
      "outputs": [
        {
          "internalType": "uint256",
          "name": "",
          "type": "uint256"
        }
      ],
      "stateMutability": "view",
      "type": "function"
    },
    {
      "inputs": [
        {
          "internalType": "address",
          "name": "spender",
          "type": "address"
        },
        {
          "internalType": "uint256",
          "name": "amount",
          "type": "uint256"
        }
      ],
      "name": "approve",
      "outputs": [
        {
          "internalType": "bool",
          "name": "",
          "type": "bool"
        }
      ],
      "stateMutability": "nonpayable",
      "type": "function"
    },
    {
      "inputs": [
        {
          "internalType": "address",
          "name": "account",
          "type": "address"
        }
      ],
      "name": "balanceOf",
      "outputs": [
        {
          "internalType": "uint256",
          "name": "",
          "type": "uint256"
        }
      ],
      "stateMutability": "view",
      "type": "function"
    },
    {
      "inputs": [
        {
          "internalType": "uint256",
          "name": "amount",
          "type": "uint256"
        }
      ],
      "name": "burn",
      "outputs": [],
      "stateMutability": "nonpayable",
      "type": "function"
    },
    {
      "inputs": [],
      "name": "cap",
      "outputs": [
        {
          "internalType": "uint256",
          "name": "",
          "type": "uint256"
        }
      ],
      "stateMutability": "pure",
      "type": "function"
    },
    {
      "inputs": [],
      "name": "claim",
      "outputs": [],
      "stateMutability": "nonpayable",
      "type": "function"
    },
    {
      "inputs": [
        {
          "internalType": "address",
          "name": "account",
          "type": "address"
        }
      ],
      "name": "claimableOf",
      "outputs": [
        {
          "internalType": "uint256",
          "name": "",
          "type": "uint256"
        }
      ],
      "stateMutability": "view",
      "type": "function"
    },
    {
      "inputs": [],
      "name": "decimals",
      "outputs": [
        {
          "internalType": "uint8",
          "name": "",
          "type": "uint8"
        }
      ],
      "stateMutability": "pure",
      "type": "function"
    },
    {
      "inputs": [
        {
          "internalType": "address",
          "name": "account",
          "type": "address"
        }
      ],
      "name": "lockedOf",
      "outputs": [
        {
          "internalType": "uint256",
          "name": "",
          "type": "uint256"
        }
      ],
      "stateMutability": "view",
      "type": "function"
    },
    {
      "inputs": [],
      "name": "maxSupply",
      "outputs": [
        {
          "internalType": "uint256",
          "name": "",
          "type": "uint256"
        }
      ],
      "stateMutability": "pure",
      "type": "function"
    },
    {
      "inputs": [
        {
          "internalType": "address",
          "name": "to",
          "type": "address"
        },
        {
          "internalType": "uint256",
          "name": "amount",
          "type": "uint256"
        }
      ],
      "name": "mint",
      "outputs": [],
      "stateMutability": "nonpayable",
      "type": "function"
    },
    {
      "inputs": [],
      "name": "name",
      "outputs": [
        {
          "internalType": "string",
          "name": "",
          "type": "string"
        }
      ],
      "stateMutability": "view",
      "type": "function"
    },
    {
      "inputs": [],
      "name": "owner",
      "outputs": [
        {
          "internalType": "address",
          "name": "",
          "type": "address"
        }
      ],
      "stateMutability": "view",
      "type": "function"
    },
    {
      "inputs": [
        {
          "internalType": "address",
          "name": "to",
          "type": "address"
        },
        {
          "internalType": "uint256",
          "name": "amount",
          "type": "uint256"
        }
      ],
      "name": "release",
      "outputs": [],
      "stateMutability": "nonpayable",
      "type": "function"
    },
    {
      "inputs": [],
      "name": "renounceOwnership",
      "outputs": [],
      "stateMutability": "nonpayable",
      "type": "function"
    },
    {
      "inputs": [],
      "name": "symbol",
      "outputs": [
        {
          "internalType": "string",
          "name": "",
          "type": "string"
        }
      ],
      "stateMutability": "view",
      "type": "function"
    },
    {
      "inputs": [],
      "name": "totalSupply",
      "outputs": [
        {
          "internalType": "uint256",
          "name": "",
          "type": "uint256"
        }
      ],
      "stateMutability": "view",
      "type": "function"
    },
    {
      "inputs": [
        {
          "internalType": "address",
          "name": "to",
          "type": "address"
        },
        {
          "internalType": "uint256",
          "name": "value",
          "type": "uint256"
        }
      ],
      "name": "transfer",
      "outputs": [
        {
          "internalType": "bool",
          "name": "",
          "type": "bool"
        }
      ],
      "stateMutability": "nonpayable",
      "type": "function"
    },
    {
      "inputs": [
        {
          "internalType": "address",
          "name": "from",
          "type": "address"
        },
        {
          "internalType": "address",
          "name": "to",
          "type": "address"
        },
        {
          "internalType": "uint256",
          "name": "value",
          "type": "uint256"
        }
      ],
      "name": "transferFrom",
      "outputs": [
        {
          "internalType": "bool",
          "name": "",
          "type": "bool"
        }
      ],
      "stateMutability": "nonpayable",
      "type": "function"
    },
    {
      "inputs": [
        {
          "internalType": "address",
          "name": "newOwner",
          "type": "address"
        }
      ],
      "name": "transferOwnership",
      "outputs": [],
      "stateMutability": "nonpayable",
      "type": "function"
    }
  ],
  "bytecode": "0x608060405234801561000f575f5ffd5b5060408051808201825260048082526309288a4b60e31b60208084018290528451808601909552918452908301523391600361004b83826102ee565b50600461005882826102ee565b5050506001600160a01b03811661008957604051631e4fbdf760e01b81525f60048201526024015b60405180910390fd5b610092816100a7565b506100a23364174876e8006100f8565b6103cd565b600580546001600160a01b038381166001600160a01b0319831681179093556040519116919082907f8be0079c531659141344cd1fd0a4f28419497f9722a3daafe3b4186f6b6457e0905f90a35050565b6001600160a01b0382166101215760405163ec442f0560e01b81525f6004820152602401610080565b61012c5f8383610130565b5050565b6001600160a01b03831661015a578060025f82825461014f91906103a8565b909155506101ca9050565b6001600160a01b0383165f90815260208190526040902054818110156101ac5760405163391434e360e21b81526001600160a01b03851660048201526024810182905260448101839052606401610080565b6001600160a01b0384165f9081526020819052604090209082900390555b6001600160a01b0382166101e657600280548290039055610204565b6001600160a01b0382165f9081526020819052604090208054820190555b816001600160a01b0316836001600160a01b03167fddf252ad1be2c89b69c2b068fc378daa952ba7f163c4a11628f55a4df523b3ef8360405161024991815260200190565b60405180910390a3505050565b634e487b7160e01b5f52604160045260245ffd5b600181811c9082168061027e57607f821691505b60208210810361029c57634e487b7160e01b5f52602260045260245ffd5b50919050565b601f8211156102e957805f5260205f20601f840160051c810160208510156102c75750805b601f840160051c820191505b818110156102e6575f81556001016102d3565b50505b505050565b81516001600160401b0381111561030757610307610256565b61031b81610315845461026a565b846102a2565b6020601f82116001811461034d575f83156103365750848201515b5f19600385901b1c1916600184901b1784556102e6565b5f84815260208120601f198516915b8281101561037c578785015182556020948501946001909201910161035c565b508482101561039957868401515f19600387901b60f8161c191681555b50505050600190811b01905550565b808201808211156103c757634e487b7160e01b5f52601160045260245ffd5b92915050565b610ccb806103da5f395ff3fe608060405234801561000f575f5ffd5b5060043610610132575f3560e01c80634e71d92d116100b457806395d89b411161007957806395d89b411461027a578063a5f1e28214610282578063a9059cbb146102aa578063d5abeb01146101cd578063dd62ed3e146102bd578063f2fde38b146102f5575f5ffd5b80634e71d92d146101ff57806370a0823114610207578063715018a61461022f5780638903ab9d146102375780638da5cb5b1461025f575f5ffd5b8063313ce567116100fa578063313ce567146101b157806332cb6b0c146101c0578063355274ea146101cd57806340c10f19146101d957806342966c68146101ec575f5ffd5b80630357371d1461013657806306fdde031461014b578063095ea7b31461016957806318160ddd1461018c57806323b872dd1461019e575b5f5ffd5b610149610144366004610b46565b610308565b005b61015361047b565b6040516101609190610b6e565b60405180910390f35b61017c610177366004610b46565b61050b565b6040519015158152602001610160565b6002545b604051908152602001610160565b61017c6101ac366004610ba3565b61051f565b60405160028152602001610160565b610190655af3107a400081565b655af3107a4000610190565b6101496101e7366004610b46565b610542565b6101496101fa366004610bdd565b6105ed565b610149610630565b610190610215366004610bf4565b6001600160a01b03165f9081526020819052604090205490565b6101496106df565b610190610245366004610bf4565b6001600160a01b03165f9081526007602052604090205490565b6005546040516001600160a01b039091168152602001610160565b6101536106f2565b610190610290366004610bf4565b6001600160a01b03165f9081526006602052604090205490565b61017c6102b8366004610b46565b610701565b6101906102cb366004610c0d565b6001600160a01b039182165f90815260016020908152604080832093909416825291909152205490565b610149610303366004610bf4565b610718565b610310610755565b6001600160a01b0382166103605760405162461bcd60e51b8152602060048201526012602482015271494452583a207a65726f206164647265737360701b60448201526064015b60405180910390fd5b806103766102156005546001600160a01b031690565b10156103c45760405162461bcd60e51b815260206004820152601a60248201527f494452583a20696e73756666696369656e742062616c616e63650000000000006044820152606401610357565b6103e06103d96005546001600160a01b031690565b3083610782565b6001600160a01b0382165f9081526007602052604081208054839290610407908490610c3e565b90915550506001600160a01b0382165f9081526006602052604081208054839290610433908490610c3e565b90915550506040518181526001600160a01b038316907fb21fb52d5749b80f3182f8c6992236b5e5576681880914484d7f4c9b062e619e906020015b60405180910390a25050565b60606003805461048a90610c5d565b80601f01602080910402602001604051908101604052809291908181526020018280546104b690610c5d565b80156105015780601f106104d857610100808354040283529160200191610501565b820191905f5260205f20905b8154815290600101906020018083116104e457829003601f168201915b5050505050905090565b5f61051683836107e4565b90505b92915050565b5f3361052c8582856107f1565b610537858585610782565b506001949350505050565b61054a610755565b655af3107a40008161055b60025490565b6105659190610c3e565b11156105a85760405162461bcd60e51b8152602060048201526012602482015271125114960e8818d85c08195e18d95959195960721b6044820152606401610357565b6105b2828261086d565b816001600160a01b03167f30385c845b448a36257a6a1716e6ad2e1bc2cbe333cde1e69fe849ad6511adfe8260405161046f91815260200190565b6105f733826108a5565b60405181815233907f696de425f79f4a40bc6d2122ca50507f0efbeabbff86a84871b7196ab8ea8df7906020015b60405180910390a250565b335f90815260076020526040902054806106855760405162461bcd60e51b8152602060048201526016602482015275494452583a206e6f7468696e6720746f20636c61696d60501b6044820152606401610357565b335f81815260076020908152604080832083905560069091528120556106ad90309083610782565b60405181815233907fd8138f8a3f377c5259ca548e70e4c2de94f129f5a11036a15b69513cba2b426a90602001610625565b6106e7610755565b6106f05f6108d9565b565b60606004805461048a90610c5d565b5f3361070e818585610782565b5060019392505050565b610720610755565b6001600160a01b03811661074957604051631e4fbdf760e01b81525f6004820152602401610357565b610752816108d9565b50565b6005546001600160a01b031633146106f05760405163118cdaa760e01b8152336004820152602401610357565b6001600160a01b0383166107ab57604051634b637e8f60e11b81525f6004820152602401610357565b6001600160a01b0382166107d45760405163ec442f0560e01b81525f6004820152602401610357565b6107df83838361092a565b505050565b5f3361070e818585610a50565b6001600160a01b038381165f908152600160209081526040808320938616835292905220545f19811015610867578181101561085957604051637dc7a0d960e11b81526001600160a01b03841660048201526024810182905260448101839052606401610357565b61086784848484035f610a59565b50505050565b6001600160a01b0382166108965760405163ec442f0560e01b81525f6004820152602401610357565b6108a15f838361092a565b5050565b6001600160a01b0382166108ce57604051634b637e8f60e11b81525f6004820152602401610357565b6108a1825f8361092a565b600580546001600160a01b038381166001600160a01b0319831681179093556040519116919082907f8be0079c531659141344cd1fd0a4f28419497f9722a3daafe3b4186f6b6457e0905f90a35050565b6001600160a01b038316610954578060025f8282546109499190610c3e565b909155506109c49050565b6001600160a01b0383165f90815260208190526040902054818110156109a65760405163391434e360e21b81526001600160a01b03851660048201526024810182905260448101839052606401610357565b6001600160a01b0384165f9081526020819052604090209082900390555b6001600160a01b0382166109e0576002805482900390556109fe565b6001600160a01b0382165f9081526020819052604090208054820190555b816001600160a01b0316836001600160a01b03167fddf252ad1be2c89b69c2b068fc378daa952ba7f163c4a11628f55a4df523b3ef83604051610a4391815260200190565b60405180910390a3505050565b6107df83838360015b6001600160a01b038416610a825760405163e602df0560e01b81525f6004820152602401610357565b6001600160a01b038316610aab57604051634a1406b160e11b81525f6004820152602401610357565b6001600160a01b038085165f908152600160209081526040808320938716835292905220829055801561086757826001600160a01b0316846001600160a01b03167f8c5be1e5ebec7d5bd14f71427d1e84f3dd0314c0f7b2291e5b200ac8c7c3b92584604051610b1d91815260200190565b60405180910390a350505050565b80356001600160a01b0381168114610b41575f5ffd5b919050565b5f5f60408385031215610b57575f5ffd5b610b6083610b2b565b946020939093013593505050565b602081525f82518060208401528060208501604085015e5f604082850101526040601f19601f83011684010191505092915050565b5f5f5f60608486031215610bb5575f5ffd5b610bbe84610b2b565b9250610bcc60208501610b2b565b929592945050506040919091013590565b5f60208284031215610bed575f5ffd5b5035919050565b5f60208284031215610c04575f5ffd5b61051682610b2b565b5f5f60408385031215610c1e575f5ffd5b610c2783610b2b565b9150610c3560208401610b2b565b90509250929050565b8082018082111561051957634e487b7160e01b5f52601160045260245ffd5b600181811c90821680610c7157607f821691505b602082108103610c8f57634e487b7160e01b5f52602260045260245ffd5b5091905056fea264697066735822122075cc2aa8066b56b6b4c49cdb1b352a4e87bcca41734a4b0645dc7f3ac721e49664736f6c634300081c0033",
  "linkReferences": {},
  "deployedLinkReferences": {},
  "immutableReferences": {},
  "inputSourceName": "project/contracts/MockIDRX.sol",
  "buildInfoId": "solc-0_8_28-2e41f7293ada8b1fdc37ce711d8c395fbcd7614d"
}