{
  "_format": "hh3-artifact-1",
  "contractName": "PayIDVerifier",
  "sourceName": "contracts/PayIDVerifier.sol",
  "abi": [
    {
      "inputs": [],
      "stateMutability": "nonpayable",
      "type": "constructor"
    },
    {
      "inputs": [],
      "name": "AlreadyInitialized",
      "type": "error"
    },
    {
      "inputs": [],
      "name": "ECDSAInvalidSignature",
      "type": "error"
    },
    {
      "inputs": [
        {
          "internalType": "uint256",
          "name": "length",
          "type": "uint256"
        }
      ],
      "name": "ECDSAInvalidSignatureLength",
      "type": "error"
    },
    {
      "inputs": [
        {
          "internalType": "bytes32",
          "name": "s",
          "type": "bytes32"
        }
      ],
      "name": "ECDSAInvalidSignatureS",
      "type": "error"
    },
    {
      "inputs": [],
      "name": "InvalidShortString",
      "type": "error"
    },
    {
      "inputs": [],
      "name": "NotInitialized",
      "type": "error"
    },
    {
      "inputs": [],
      "name": "NotOwner",
      "type": "error"
    },
    {
      "inputs": [
        {
          "internalType": "string",
          "name": "str",
          "type": "string"
        }
      ],
      "name": "StringTooLong",
      "type": "error"
    },
    {
      "inputs": [],
      "name": "ZeroAddress",
      "type": "error"
    },
    {
      "anonymous": false,
      "inputs": [
        {
          "indexed": true,
          "internalType": "address",
          "name": "authority",
          "type": "address"
        },
        {
          "indexed": false,
          "internalType": "bool",
          "name": "trusted",
          "type": "bool"
        }
      ],
      "name": "AuthorityUpdated",
      "type": "event"
    },
    {
      "anonymous": false,
      "inputs": [],
      "name": "EIP712DomainChanged",
      "type": "event"
    },
    {
      "anonymous": false,
      "inputs": [
        {
          "indexed": true,
          "internalType": "address",
          "name": "owner",
          "type": "address"
        }
      ],
      "name": "Initialized",
      "type": "event"
    },
    {
      "anonymous": false,
      "inputs": [
        {
          "indexed": true,
          "internalType": "address",
          "name": "previousOwner",
          "type": "address"
        },
        {
          "indexed": true,
          "internalType": "address",
          "name": "newOwner",
          "type": "address"
        }
      ],
      "name": "OwnershipTransferred",
      "type": "event"
    },
    {
      "inputs": [],
      "name": "DECISION_TYPEHASH",
      "outputs": [
        {
          "internalType": "bytes32",
          "name": "",
          "type": "bytes32"
        }
      ],
      "stateMutability": "view",
      "type": "function"
    },
    {
      "inputs": [],
      "name": "SIGNATURE_VERSION",
      "outputs": [
        {
          "internalType": "string",
          "name": "",
          "type": "string"
        }
      ],
      "stateMutability": "view",
      "type": "function"
    },
    {
      "inputs": [],
      "name": "SIGNING_DOMAIN",
      "outputs": [
        {
          "internalType": "string",
          "name": "",
          "type": "string"
        }
      ],
      "stateMutability": "view",
      "type": "function"
    },
    {
      "inputs": [],
      "name": "domainSeparator",
      "outputs": [
        {
          "internalType": "bytes32",
          "name": "",
          "type": "bytes32"
        }
      ],
      "stateMutability": "view",
      "type": "function"
    },
    {
      "inputs": [],
      "name": "eip712Domain",
      "outputs": [
        {
          "internalType": "bytes1",
          "name": "fields",
          "type": "bytes1"
        },
        {
          "internalType": "string",
          "name": "name",
          "type": "string"
        },
        {
          "internalType": "string",
          "name": "version",
          "type": "string"
        },
        {
          "internalType": "uint256",
          "name": "chainId",
          "type": "uint256"
        },
        {
          "internalType": "address",
          "name": "verifyingContract",
          "type": "address"
        },
        {
          "internalType": "bytes32",
          "name": "salt",
          "type": "bytes32"
        },
        {
          "internalType": "uint256[]",
          "name": "extensions",
          "type": "uint256[]"
        }
      ],
      "stateMutability": "view",
      "type": "function"
    },
    {
      "inputs": [
        {
          "components": [
            {
              "internalType": "bytes32",
              "name": "version",
              "type": "bytes32"
            },
            {
              "internalType": "bytes32",
              "name": "payId",
              "type": "bytes32"
            },
            {
              "internalType": "address",
              "name": "payer",
              "type": "address"
            },
            {
              "internalType": "address",
              "name": "receiver",
              "type": "address"
            },
            {
              "internalType": "address",
              "name": "asset",
              "type": "address"
            },
            {
              "internalType": "uint256",
              "name": "amount",
              "type": "uint256"
            },
            {
              "internalType": "bytes32",
              "name": "contextHash",
              "type": "bytes32"
            },
            {
              "internalType": "bytes32",
              "name": "ruleSetHash",
              "type": "bytes32"
            },
            {
              "internalType": "address",
              "name": "ruleAuthority",
              "type": "address"
            },
            {
              "internalType": "uint64",
              "name": "issuedAt",
              "type": "uint64"
            },
            {
              "internalType": "uint64",
              "name": "expiresAt",
              "type": "uint64"
            },
            {
              "internalType": "bytes32",
              "name": "nonce",
              "type": "bytes32"
            },
            {
              "internalType": "bool",
              "name": "requiresAttestation",
              "type": "bool"
            }
          ],
          "internalType": "struct PayIDVerifier.Decision",
          "name": "d",
          "type": "tuple"
        }
      ],
      "name": "hashDecision",
      "outputs": [
        {
          "internalType": "bytes32",
          "name": "",
          "type": "bytes32"
        }
      ],
      "stateMutability": "view",
      "type": "function"
    },
    {
      "inputs": [
        {
          "internalType": "address",
          "name": "initialOwner",
          "type": "address"
        }
      ],
      "name": "initialize",
      "outputs": [],
      "stateMutability": "nonpayable",
      "type": "function"
    },
    {
      "inputs": [],
      "name": "isInitialized",
      "outputs": [
        {
          "internalType": "bool",
          "name": "",
          "type": "bool"
        }
      ],
      "stateMutability": "view",
      "type": "function"
    },
    {
      "inputs": [],
      "name": "owner",
      "outputs": [
        {
          "internalType": "address",
          "name": "",
          "type": "address"
        }
      ],
      "stateMutability": "view",
      "type": "function"
    },
    {
      "inputs": [
        {
          "components": [
            {
              "internalType": "bytes32",
              "name": "version",
              "type": "bytes32"
            },
            {
              "internalType": "bytes32",
              "name": "payId",
              "type": "bytes32"
            },
            {
              "internalType": "address",
              "name": "payer",
              "type": "address"
            },
            {
              "internalType": "address",
              "name": "receiver",
              "type": "address"
            },
            {
              "internalType": "address",
              "name": "asset",
              "type": "address"
            },
            {
              "internalType": "uint256",
              "name": "amount",
              "type": "uint256"
            },
            {
              "internalType": "bytes32",
              "name": "contextHash",
              "type": "bytes32"
            },
            {
              "internalType": "bytes32",
              "name": "ruleSetHash",
              "type": "bytes32"
            },
            {
              "internalType": "address",
              "name": "ruleAuthority",
              "type": "address"
            },
            {
              "internalType": "uint64",
              "name": "issuedAt",
              "type": "uint64"
            },
            {
              "internalType": "uint64",
              "name": "expiresAt",
              "type": "uint64"
            },
            {
              "internalType": "bytes32",
              "name": "nonce",
              "type": "bytes32"
            },
            {
              "internalType": "bool",
              "name": "requiresAttestation",
              "type": "bool"
            }
          ],
          "internalType": "struct PayIDVerifier.Decision",
          "name": "d",
          "type": "tuple"
        },
        {
          "internalType": "bytes",
          "name": "sig",
          "type": "bytes"
        }
      ],
      "name": "requireAllowed",
      "outputs": [],
      "stateMutability": "nonpayable",
      "type": "function"
    },
    {
      "inputs": [
        {
          "internalType": "address[]",
          "name": "authorities",
          "type": "address[]"
        },
        {
          "internalType": "bool[]",
          "name": "trusted",
          "type": "bool[]"
        }
      ],
      "name": "setTrustedAuthorities",
      "outputs": [],
      "stateMutability": "nonpayable",
      "type": "function"
    },
    {
      "inputs": [
        {
          "internalType": "address",
          "name": "authority",
          "type": "address"
        },
        {
          "internalType": "bool",
          "name": "trusted",
          "type": "bool"
        }
      ],
      "name": "setTrustedAuthority",
      "outputs": [],
      "stateMutability": "nonpayable",
      "type": "function"
    },
    {
      "inputs": [
        {
          "internalType": "address",
          "name": "newOwner",
          "type": "address"
        }
      ],
      "name": "transferOwnership",
      "outputs": [],
      "stateMutability": "nonpayable",
      "type": "function"
    },
    {
      "inputs": [
        {
          "internalType": "address",
          "name": "",
          "type": "address"
        }
      ],
      "name": "trustedAuthorities",
      "outputs": [
        {
          "internalType": "bool",
          "name": "",
          "type": "bool"
        }
      ],
      "stateMutability": "view",
      "type": "function"
    },
    {
      "inputs": [
        {
          "internalType": "address",
          "name": "",
          "type": "address"
        },
        {
          "internalType": "bytes32",
          "name": "",
          "type": "bytes32"
        }
      ],
      "name": "usedNonce",
      "outputs": [
        {
          "internalType": "bool",
          "name": "",
          "type": "bool"
        }
      ],
      "stateMutability": "view",
      "type": "function"
    },
    {
      "inputs": [
        {
          "components": [
            {
              "internalType": "bytes32",
              "name": "version",
              "type": "bytes32"
            },
            {
              "internalType": "bytes32",
              "name": "payId",
              "type": "bytes32"
            },
            {
              "internalType": "address",
              "name": "payer",
              "type": "address"
            },
            {
              "internalType": "address",
              "name": "receiver",
              "type": "address"
            },
            {
              "internalType": "address",
              "name": "asset",
              "type": "address"
            },
            {
              "internalType": "uint256",
              "name": "amount",
              "type": "uint256"
            },
            {
              "internalType": "bytes32",
              "name": "contextHash",
              "type": "bytes32"
            },
            {
              "internalType": "bytes32",
              "name": "ruleSetHash",
              "type": "bytes32"
            },
            {
              "internalType": "address",
              "name": "ruleAuthority",
              "type": "address"
            },
            {
              "internalType": "uint64",
              "name": "issuedAt",
              "type": "uint64"
            },
            {
              "internalType": "uint64",
              "name": "expiresAt",
              "type": "uint64"
            },
            {
              "internalType": "bytes32",
              "name": "nonce",
              "type": "bytes32"
            },
            {
              "internalType": "bool",
              "name": "requiresAttestation",
              "type": "bool"
            }
          ],
          "internalType": "struct PayIDVerifier.Decision",
          "name": "d",
          "type": "tuple"
        },
        {
          "internalType": "bytes",
          "name": "sig",
          "type": "bytes"
        }
      ],
      "name": "verifyDecision",
      "outputs": [
        {
          "internalType": "bool",
          "name": "",
          "type": "bool"
        }
      ],
      "stateMutability": "view",
      "type": "function"
    }
  ],
  "bytecode": "0x610160604052348015610010575f5ffd5b50604080518082018252600f81526e2820ac9724a2102232b1b4b9b4b7b760891b602080830191909152825180840190935260018352601960f91b908301529061005a825f610103565b61012052610069816001610103565b61014052815160208084019190912060e052815190820120610100524660a0526100f560e05161010051604080517f8b73c3c69bb8fe3d512ecc4cf759cc79239f7b179b0ffacaa9a75d522b39400f60208201529081019290925260608201524660808201523060a08201525f9060c00160405160208183030381529060405280519060200120905090565b60805250503060c052610325565b5f60208351101561011e5761011783610135565b905061012f565b816101298482610213565b5060ff90505b92915050565b5f5f829050601f81511115610168578260405163305a27a960e01b815260040161015f91906102cd565b60405180910390fd5b805161017382610302565b179392505050565b634e487b7160e01b5f52604160045260245ffd5b600181811c908216806101a357607f821691505b6020821081036101c157634e487b7160e01b5f52602260045260245ffd5b50919050565b601f82111561020e57805f5260205f20601f840160051c810160208510156101ec5750805b601f840160051c820191505b8181101561020b575f81556001016101f8565b50505b505050565b81516001600160401b0381111561022c5761022c61017b565b6102408161023a845461018f565b846101c7565b6020601f821160018114610272575f831561025b5750848201515b5f19600385901b1c1916600184901b17845561020b565b5f84815260208120601f198516915b828110156102a15787850151825560209485019460019092019101610281565b50848210156102be57868401515f19600387901b60f8161c191681555b50505050600190811b01905550565b602081525f82518060208401528060208501604085015e5f604082850101526040601f19601f83011684010191505092915050565b805160208083015191908110156101c1575f1960209190910360031b1b16919050565b60805160a05160c05160e05161010051610120516101405161193e6103765f395f610ea101525f610e7501525f610fcc01525f610fa401525f610eff01525f610f2901525f610f53015261193e5ff3fe608060405234801561000f575f5ffd5b50600436106100fb575f3560e01c8063a415729611610093578063e3faad9411610063578063e3faad941461027e578063f08e8a30146102ac578063f2fde38b146102bf578063f698da25146102d2575f5ffd5b8063a415729614610218578063ae6b9d0214610245578063b6bfcf4c14610258578063c4d66de81461026b575f5ffd5b80634dd4a168116100ce5780634dd4a1681461017057806384b0196e146101a55780638da5cb5b146101c05780638f9f07db146101eb575f5ffd5b80630b8274db146100ff578063148a92c9146101145780633077f71d1461013c578063392e53cd1461015e575b5f5ffd5b61011261010d366004611321565b6102da565b005b61012761012236600461136b565b610391565b60405190151581526020015b60405180910390f35b61012761014a3660046113ea565b60036020525f908152604090205460ff1681565b600454600160a01b900460ff16610127565b6101977f08168eb48dd28df4c6083d3dd4aafa86d8eef003f5b394a1de9caa45aacb577e81565b604051908152602001610133565b6101ad6104f1565b6040516101339796959493929190611433565b6004546101d3906001600160a01b031681565b6040516001600160a01b039091168152602001610133565b6101276101f93660046114c9565b600260209081525f928352604080842090915290825290205460ff1681565b610238604051806040016040528060018152602001601960f91b81525081565b60405161013391906114f3565b61011261025336600461154c565b610533565b61011261026636600461136b565b610708565b6101126102793660046113ea565b610bf1565b6102386040518060400160405280600f81526020016e2820ac9724a2102232b1b4b9b4b7b760891b81525081565b6101976102ba3660046115b6565b610c92565b6101126102cd3660046113ea565b610d8d565b610197610e38565b6004546001600160a01b0316331461030d5760405162461bcd60e51b8152600401610304906115d1565b60405180910390fd5b6001600160a01b0382166103335760405162461bcd60e51b8152600401610304906115f4565b6001600160a01b0382165f81815260036020908152604091829020805460ff191685151590811790915591519182527fc5238a63fa205f95e98807f6cbc91d2ad8555a2250075e47491f11d9c69db3bc910160405180910390a25050565b5f6103a46101608501610140860161162e565b6001600160401b03164211156103bb57505f6104ea565b426103ce6101408601610120870161162e565b6001600160401b031611156103e457505f6104ea565b8360a001355f036103f657505f6104ea565b5f61040760808601606087016113ea565b6001600160a01b03160361041c57505f6104ea565b5f61042d60608601604087016113ea565b6001600160a01b03160361044257505f6104ea565b61016084013561045357505f6104ea565b5f61049e84848080601f0160208091040260200160405190810160405280939291908181526020018383808284375f920191909152506104989250899150610c929050565b90610e46565b90506104b060608601604087016113ea565b6001600160a01b0316816001600160a01b031614806104e657506001600160a01b0381165f9081526003602052604090205460ff165b9150505b9392505050565b5f6060805f5f5f6060610502610e6e565b61050a610e9a565b604080515f80825260208201909252600f60f81b9b939a50919850469750309650945092509050565b6004546001600160a01b0316331461055d5760405162461bcd60e51b8152600401610304906115d1565b82811461059e5760405162461bcd60e51b815260206004820152600f60248201526e0988a9c8ea890be9a92a69a82a8869608b1b6044820152606401610304565b5f5b83811015610701575f8585838181106105bb576105bb61165d565b90506020020160208101906105d091906113ea565b6001600160a01b0316036105f65760405162461bcd60e51b8152600401610304906115f4565b8282828181106106085761060861165d565b905060200201602081019061061d9190611671565b60035f8787858181106106325761063261165d565b905060200201602081019061064791906113ea565b6001600160a01b0316815260208101919091526040015f20805460ff19169115159190911790558484828181106106805761068061165d565b905060200201602081019061069591906113ea565b6001600160a01b03167fc5238a63fa205f95e98807f6cbc91d2ad8555a2250075e47491f11d9c69db3bc8484848181106106d1576106d161165d565b90506020020160208101906106e69190611671565b604051901515815260200160405180910390a26001016105a0565b5050505050565b610713838383610391565b6107565760405162461bcd60e51b81526020600482015260146024820152732820aca4a21d1024a72b20a624a22fa82927a7a360611b6044820152606401610304565b60025f61076960608601604087016113ea565b6001600160a01b0316815260208082019290925260409081015f908120610160870135825290925290205460ff16156107d95760405162461bcd60e51b81526020600482015260126024820152711393d390d157d053149150511657d554d15160721b6044820152606401610304565b600160025f6107ee60608701604088016113ea565b6001600160a01b0316815260208082019290925260409081015f90812061016088013582529092528120805460ff19169215159290921790915561083a610120850161010086016113ea565b6001600160a01b031614610bec575f61085b610120850161010086016113ea565b6001600160a01b03163b116108b25760405162461bcd60e51b815260206004820152601b60248201527f52554c455f415554484f524954595f4e4f545f434f4e545241435400000000006044820152606401610304565b60035f6108c7610120860161010087016113ea565b6001600160a01b0316815260208101919091526040015f205460ff1661092f5760405162461bcd60e51b815260206004820152601a60248201527f52554c455f415554484f524954595f4e4f545f545255535445440000000000006044820152606401610304565b5f80610943610120860161010087016113ea565b60405163075bbcc560e11b815260e087013560048201526001600160a01b039190911690630eb7798a906024015f60405180830381865afa15801561098a573d5f5f3e3d5ffd5b505050506040513d5f823e601f3d908101601f191682016040526109b191908101906116ed565b5090925090506109c760808601606087016113ea565b6001600160a01b0316826001600160a01b031614610a1d5760405162461bcd60e51b81526020600482015260136024820152720a4aa988abe9eae9c8aa4be9a92a69a82a8869606b1b6044820152606401610304565b5f5b8151811015610be8575f828281518110610a3b57610a3b61165d565b60200260200101515f015190505f838381518110610a5b57610a5b61165d565b602002602001015160200151905042826001600160a01b031663d9019020836040518263ffffffff1660e01b8152600401610a9891815260200190565b602060405180830381865afa158015610ab3573d5f5f3e3d5ffd5b505050506040513d601f19601f82011682018060405250810190610ad791906117e9565b1015610b1c5760405162461bcd60e51b81526020600482015260146024820152731495531157d31250d15394d157d156141254915160621b6044820152606401610304565b6040516331a9108f60e11b8152600481018290526001600160a01b038087169190841690636352211e90602401602060405180830381865afa158015610b64573d5f5f3e3d5ffd5b505050506040513d601f19601f82011682018060405250810190610b889190611800565b6001600160a01b031614610bde5760405162461bcd60e51b815260206004820152601a60248201527f52554c455f4c4943454e53455f4f574e45525f4348414e4745440000000000006044820152606401610304565b5050600101610a1f565b5050505b505050565b600454600160a01b900460ff1615610c1b5760405162dc149f60e41b815260040160405180910390fd5b6001600160a01b038116610c425760405163d92e233d60e01b815260040160405180910390fd5b600480546001600160a01b0383166001600160a81b03199091168117600160a01b179091556040517f908408e307fc569b417f6cbec5d5a06f44a0a505ac0479b47d421a4b2fd6a1e6905f90a250565b5f610d877f08168eb48dd28df4c6083d3dd4aafa86d8eef003f5b394a1de9caa45aacb577e83356020850135610cce60608701604088016113ea565b610cde60808801606089016113ea565b610cee60a0890160808a016113ea565b60a089013560c08a013560e08b0135610d0f6101208d016101008e016113ea565b610d216101408e016101208f0161162e565b8d610140016020810190610d35919061162e565b8e61016001358f610180016020810190610d4f9190611671565b604051602001610d6c9e9d9c9b9a9998979695949392919061181b565b60405160208183030381529060405280519060200120610ec7565b92915050565b6004546001600160a01b03163314610db75760405162461bcd60e51b8152600401610304906115d1565b6001600160a01b038116610ddd5760405162461bcd60e51b8152600401610304906115f4565b6004546040516001600160a01b038084169216907f8be0079c531659141344cd1fd0a4f28419497f9722a3daafe3b4186f6b6457e0905f90a3600480546001600160a01b0319166001600160a01b0392909216919091179055565b5f610e41610ef3565b905090565b5f5f5f5f610e54868661101c565b925092509250610e648282611065565b5090949350505050565b6060610e417f00000000000000000000000000000000000000000000000000000000000000005f611121565b6060610e417f00000000000000000000000000000000000000000000000000000000000000006001611121565b5f610d87610ed3610ef3565b8360405161190160f01b8152600281019290925260228201526042902090565b5f306001600160a01b037f000000000000000000000000000000000000000000000000000000000000000016148015610f4b57507f000000000000000000000000000000000000000000000000000000000000000046145b15610f7557507f000000000000000000000000000000000000000000000000000000000000000090565b610e41604080517f8b73c3c69bb8fe3d512ecc4cf759cc79239f7b179b0ffacaa9a75d522b39400f60208201527f0000000000000000000000000000000000000000000000000000000000000000918101919091527f000000000000000000000000000000000000000000000000000000000000000060608201524660808201523060a08201525f9060c00160405160208183030381529060405280519060200120905090565b5f5f5f8351604103611053576020840151604085015160608601515f1a611045888285856111ca565b95509550955050505061105e565b505081515f91506002905b9250925092565b5f826003811115611078576110786118c2565b03611081575050565b6001826003811115611095576110956118c2565b036110b35760405163f645eedf60e01b815260040160405180910390fd5b60028260038111156110c7576110c76118c2565b036110e85760405163fce698f760e01b815260048101829052602401610304565b60038260038111156110fc576110fc6118c2565b0361111d576040516335e2f38360e21b815260048101829052602401610304565b5050565b606060ff831461113b5761113483611292565b9050610d87565b818054611147906118d6565b80601f0160208091040260200160405190810160405280929190818152602001828054611173906118d6565b80156111be5780601f10611195576101008083540402835291602001916111be565b820191905f5260205f20905b8154815290600101906020018083116111a157829003601f168201915b50505050509050610d87565b5f80807f7fffffffffffffffffffffffffffffff5d576e7357a4501ddfe92f46681b20a084111561120357505f91506003905082611288565b604080515f808252602082018084528a905260ff891692820192909252606081018790526080810186905260019060a0016020604051602081039080840390855afa158015611254573d5f5f3e3d5ffd5b5050604051601f1901519150506001600160a01b03811661127f57505f925060019150829050611288565b92505f91508190505b9450945094915050565b60605f61129e836112cf565b6040805160208082528183019092529192505f91906020820181803683375050509182525060208101929092525090565b5f60ff8216601f811115610d8757604051632cd44ac360e21b815260040160405180910390fd5b6001600160a01b038116811461130a575f5ffd5b50565b8035801515811461131c575f5ffd5b919050565b5f5f60408385031215611332575f5ffd5b823561133d816112f6565b915061134b6020840161130d565b90509250929050565b5f6101a08284031215611365575f5ffd5b50919050565b5f5f5f6101c0848603121561137e575f5ffd5b6113888585611354565b92506101a08401356001600160401b038111156113a3575f5ffd5b8401601f810186136113b3575f5ffd5b80356001600160401b038111156113c8575f5ffd5b8660208284010111156113d9575f5ffd5b939660209190910195509293505050565b5f602082840312156113fa575f5ffd5b81356104ea816112f6565b5f81518084528060208401602086015e5f602082860101526020601f19601f83011685010191505092915050565b60ff60f81b8816815260e060208201525f61145160e0830189611405565b82810360408401526114638189611405565b606084018890526001600160a01b038716608085015260a0840186905283810360c0850152845180825260208087019350909101905f5b818110156114b857835183526020938401939092019160010161149a565b50909b9a5050505050505050505050565b5f5f604083850312156114da575f5ffd5b82356114e5816112f6565b946020939093013593505050565b602081525f6104ea6020830184611405565b5f5f83601f840112611515575f5ffd5b5081356001600160401b0381111561152b575f5ffd5b6020830191508360208260051b8501011115611545575f5ffd5b9250929050565b5f5f5f5f6040858703121561155f575f5ffd5b84356001600160401b03811115611574575f5ffd5b61158087828801611505565b90955093505060208501356001600160401b0381111561159e575f5ffd5b6115aa87828801611505565b95989497509550505050565b5f6101a082840312156115c7575f5ffd5b6104ea8383611354565b6020808252600990820152682727aa2fa7aba722a960b91b604082015260600190565b6020808252600c908201526b5a45524f5f4144445245535360a01b604082015260600190565b6001600160401b038116811461130a575f5ffd5b5f6020828403121561163e575f5ffd5b81356104ea8161161a565b634e487b7160e01b5f52604160045260245ffd5b634e487b7160e01b5f52603260045260245ffd5b5f60208284031215611681575f5ffd5b6104ea8261130d565b604080519081016001600160401b03811182821017156116ac576116ac611649565b60405290565b604051601f8201601f191681016001600160401b03811182821017156116da576116da611649565b604052919050565b805161131c8161161a565b5f5f5f606084860312156116ff575f5ffd5b835161170a816112f6565b60208501519093506001600160401b03811115611725575f5ffd5b8401601f81018613611735575f5ffd5b80516001600160401b0381111561174e5761174e611649565b61175d60208260051b016116b2565b8082825260208201915060208360061b85010192508883111561177e575f5ffd5b6020840193505b828410156117ce576040848a03121561179c575f5ffd5b6117a461168a565b84516117af816112f6565b8152602085810151818301529083526040909401939190910190611785565b94506117e092505050604085016116e2565b90509250925092565b5f602082840312156117f9575f5ffd5b5051919050565b5f60208284031215611810575f5ffd5b81516104ea816112f6565b8e8152602081018e9052604081018d90526001600160a01b038c811660608301528b811660808301528a1660a08201526101c081018960c08301528860e0830152876101008301526118796101208301886001600160a01b03169052565b6001600160401b0386166101408301526001600160401b038516610160830152836101808301526118af6101a083018415159052565b9f9e505050505050505050505050505050565b634e487b7160e01b5f52602160045260245ffd5b600181811c908216806118ea57607f821691505b60208210810361136557634e487b7160e01b5f52602260045260245ffdfea2646970667358221220b68534f8ccce865bbfddab566c97a3017c18523a329ae9d42acbc39db06765f464736f6c634300081c0033",
  "linkReferences": {},
  "deployedLinkReferences": {},
  "immutableReferences": {
    "2188": [
      {
        "length": 32,
        "start": 3923
      }
    ],
    "2190": [
      {
        "length": 32,
        "start": 3881
      }
    ],
    "2192": [
      {
        "length": 32,
        "start": 3839
      }
    ],
    "2194": [
      {
        "length": 32,
        "start": 4004
      }
    ],
    "2196": [
      {
        "length": 32,
        "start": 4044
      }
    ],
    "2199": [
      {
        "length": 32,
        "start": 3701
      }
    ],
    "2202": [
      {
        "length": 32,
        "start": 3745
      }
    ]
  },
  "inputSourceName": "project/contracts/PayIDVerifier.sol",
  "buildInfoId": "solc-0_8_28-acc843b0d0249643e83224deb3362beb92e8bf28"
}