{
  "_format": "hh3-artifact-1",
  "contractName": "PayIDVerifier",
  "sourceName": "contracts/PayIDVerifier.sol",
  "abi": [
    {
      "inputs": [],
      "stateMutability": "nonpayable",
      "type": "constructor"
    },
    {
      "inputs": [],
      "name": "AlreadyInitialized",
      "type": "error"
    },
    {
      "inputs": [],
      "name": "ECDSAInvalidSignature",
      "type": "error"
    },
    {
      "inputs": [
        {
          "internalType": "uint256",
          "name": "length",
          "type": "uint256"
        }
      ],
      "name": "ECDSAInvalidSignatureLength",
      "type": "error"
    },
    {
      "inputs": [
        {
          "internalType": "bytes32",
          "name": "s",
          "type": "bytes32"
        }
      ],
      "name": "ECDSAInvalidSignatureS",
      "type": "error"
    },
    {
      "inputs": [],
      "name": "InvalidShortString",
      "type": "error"
    },
    {
      "inputs": [],
      "name": "NotInitialized",
      "type": "error"
    },
    {
      "inputs": [],
      "name": "NotOwner",
      "type": "error"
    },
    {
      "inputs": [
        {
          "internalType": "string",
          "name": "str",
          "type": "string"
        }
      ],
      "name": "StringTooLong",
      "type": "error"
    },
    {
      "inputs": [],
      "name": "ZeroAddress",
      "type": "error"
    },
    {
      "anonymous": false,
      "inputs": [
        {
          "indexed": true,
          "internalType": "address",
          "name": "authority",
          "type": "address"
        },
        {
          "indexed": false,
          "internalType": "bool",
          "name": "trusted",
          "type": "bool"
        }
      ],
      "name": "AuthorityUpdated",
      "type": "event"
    },
    {
      "anonymous": false,
      "inputs": [],
      "name": "EIP712DomainChanged",
      "type": "event"
    },
    {
      "anonymous": false,
      "inputs": [
        {
          "indexed": true,
          "internalType": "address",
          "name": "owner",
          "type": "address"
        }
      ],
      "name": "Initialized",
      "type": "event"
    },
    {
      "anonymous": false,
      "inputs": [
        {
          "indexed": true,
          "internalType": "address",
          "name": "previousOwner",
          "type": "address"
        },
        {
          "indexed": true,
          "internalType": "address",
          "name": "newOwner",
          "type": "address"
        }
      ],
      "name": "OwnershipTransferred",
      "type": "event"
    },
    {
      "inputs": [],
      "name": "DECISION_TYPEHASH",
      "outputs": [
        {
          "internalType": "bytes32",
          "name": "",
          "type": "bytes32"
        }
      ],
      "stateMutability": "view",
      "type": "function"
    },
    {
      "inputs": [],
      "name": "SIGNATURE_VERSION",
      "outputs": [
        {
          "internalType": "string",
          "name": "",
          "type": "string"
        }
      ],
      "stateMutability": "view",
      "type": "function"
    },
    {
      "inputs": [],
      "name": "SIGNING_DOMAIN",
      "outputs": [
        {
          "internalType": "string",
          "name": "",
          "type": "string"
        }
      ],
      "stateMutability": "view",
      "type": "function"
    },
    {
      "inputs": [],
      "name": "attestationVerifier",
      "outputs": [
        {
          "internalType": "address",
          "name": "",
          "type": "address"
        }
      ],
      "stateMutability": "view",
      "type": "function"
    },
    {
      "inputs": [],
      "name": "domainSeparator",
      "outputs": [
        {
          "internalType": "bytes32",
          "name": "",
          "type": "bytes32"
        }
      ],
      "stateMutability": "view",
      "type": "function"
    },
    {
      "inputs": [],
      "name": "eip712Domain",
      "outputs": [
        {
          "internalType": "bytes1",
          "name": "fields",
          "type": "bytes1"
        },
        {
          "internalType": "string",
          "name": "name",
          "type": "string"
        },
        {
          "internalType": "string",
          "name": "version",
          "type": "string"
        },
        {
          "internalType": "uint256",
          "name": "chainId",
          "type": "uint256"
        },
        {
          "internalType": "address",
          "name": "verifyingContract",
          "type": "address"
        },
        {
          "internalType": "bytes32",
          "name": "salt",
          "type": "bytes32"
        },
        {
          "internalType": "uint256[]",
          "name": "extensions",
          "type": "uint256[]"
        }
      ],
      "stateMutability": "view",
      "type": "function"
    },
    {
      "inputs": [
        {
          "components": [
            {
              "internalType": "bytes32",
              "name": "version",
              "type": "bytes32"
            },
            {
              "internalType": "bytes32",
              "name": "payId",
              "type": "bytes32"
            },
            {
              "internalType": "address",
              "name": "payer",
              "type": "address"
            },
            {
              "internalType": "address",
              "name": "receiver",
              "type": "address"
            },
            {
              "internalType": "address",
              "name": "asset",
              "type": "address"
            },
            {
              "internalType": "uint256",
              "name": "amount",
              "type": "uint256"
            },
            {
              "internalType": "bytes32",
              "name": "contextHash",
              "type": "bytes32"
            },
            {
              "internalType": "bytes32",
              "name": "ruleSetHash",
              "type": "bytes32"
            },
            {
              "internalType": "address",
              "name": "ruleAuthority",
              "type": "address"
            },
            {
              "internalType": "uint64",
              "name": "issuedAt",
              "type": "uint64"
            },
            {
              "internalType": "uint64",
              "name": "expiresAt",
              "type": "uint64"
            },
            {
              "internalType": "bytes32",
              "name": "nonce",
              "type": "bytes32"
            },
            {
              "internalType": "bool",
              "name": "requiresAttestation",
              "type": "bool"
            },
            {
              "internalType": "bytes32",
              "name": "attestationUIDsHash",
              "type": "bytes32"
            }
          ],
          "internalType": "struct PayIDVerifier.Decision",
          "name": "d",
          "type": "tuple"
        }
      ],
      "name": "hashDecision",
      "outputs": [
        {
          "internalType": "bytes32",
          "name": "",
          "type": "bytes32"
        }
      ],
      "stateMutability": "view",
      "type": "function"
    },
    {
      "inputs": [
        {
          "internalType": "address",
          "name": "initialOwner",
          "type": "address"
        },
        {
          "internalType": "address",
          "name": "_attestationVerifier",
          "type": "address"
        }
      ],
      "name": "initialize",
      "outputs": [],
      "stateMutability": "nonpayable",
      "type": "function"
    },
    {
      "inputs": [],
      "name": "isInitialized",
      "outputs": [
        {
          "internalType": "bool",
          "name": "",
          "type": "bool"
        }
      ],
      "stateMutability": "view",
      "type": "function"
    },
    {
      "inputs": [],
      "name": "owner",
      "outputs": [
        {
          "internalType": "address",
          "name": "",
          "type": "address"
        }
      ],
      "stateMutability": "view",
      "type": "function"
    },
    {
      "inputs": [
        {
          "components": [
            {
              "internalType": "bytes32",
              "name": "version",
              "type": "bytes32"
            },
            {
              "internalType": "bytes32",
              "name": "payId",
              "type": "bytes32"
            },
            {
              "internalType": "address",
              "name": "payer",
              "type": "address"
            },
            {
              "internalType": "address",
              "name": "receiver",
              "type": "address"
            },
            {
              "internalType": "address",
              "name": "asset",
              "type": "address"
            },
            {
              "internalType": "uint256",
              "name": "amount",
              "type": "uint256"
            },
            {
              "internalType": "bytes32",
              "name": "contextHash",
              "type": "bytes32"
            },
            {
              "internalType": "bytes32",
              "name": "ruleSetHash",
              "type": "bytes32"
            },
            {
              "internalType": "address",
              "name": "ruleAuthority",
              "type": "address"
            },
            {
              "internalType": "uint64",
              "name": "issuedAt",
              "type": "uint64"
            },
            {
              "internalType": "uint64",
              "name": "expiresAt",
              "type": "uint64"
            },
            {
              "internalType": "bytes32",
              "name": "nonce",
              "type": "bytes32"
            },
            {
              "internalType": "bool",
              "name": "requiresAttestation",
              "type": "bool"
            },
            {
              "internalType": "bytes32",
              "name": "attestationUIDsHash",
              "type": "bytes32"
            }
          ],
          "internalType": "struct PayIDVerifier.Decision",
          "name": "d",
          "type": "tuple"
        },
        {
          "internalType": "bytes",
          "name": "sig",
          "type": "bytes"
        }
      ],
      "name": "requireAllowed",
      "outputs": [],
      "stateMutability": "nonpayable",
      "type": "function"
    },
    {
      "inputs": [
        {
          "internalType": "address[]",
          "name": "authorities",
          "type": "address[]"
        },
        {
          "internalType": "bool[]",
          "name": "trusted",
          "type": "bool[]"
        }
      ],
      "name": "setTrustedAuthorities",
      "outputs": [],
      "stateMutability": "nonpayable",
      "type": "function"
    },
    {
      "inputs": [
        {
          "internalType": "address",
          "name": "authority",
          "type": "address"
        },
        {
          "internalType": "bool",
          "name": "trusted",
          "type": "bool"
        }
      ],
      "name": "setTrustedAuthority",
      "outputs": [],
      "stateMutability": "nonpayable",
      "type": "function"
    },
    {
      "inputs": [
        {
          "internalType": "address",
          "name": "newOwner",
          "type": "address"
        }
      ],
      "name": "transferOwnership",
      "outputs": [],
      "stateMutability": "nonpayable",
      "type": "function"
    },
    {
      "inputs": [
        {
          "internalType": "address",
          "name": "",
          "type": "address"
        }
      ],
      "name": "trustedAuthorities",
      "outputs": [
        {
          "internalType": "bool",
          "name": "",
          "type": "bool"
        }
      ],
      "stateMutability": "view",
      "type": "function"
    },
    {
      "inputs": [
        {
          "internalType": "address",
          "name": "",
          "type": "address"
        },
        {
          "internalType": "bytes32",
          "name": "",
          "type": "bytes32"
        }
      ],
      "name": "usedNonce",
      "outputs": [
        {
          "internalType": "bool",
          "name": "",
          "type": "bool"
        }
      ],
      "stateMutability": "view",
      "type": "function"
    },
    {
      "inputs": [
        {
          "components": [
            {
              "internalType": "bytes32",
              "name": "version",
              "type": "bytes32"
            },
            {
              "internalType": "bytes32",
              "name": "payId",
              "type": "bytes32"
            },
            {
              "internalType": "address",
              "name": "payer",
              "type": "address"
            },
            {
              "internalType": "address",
              "name": "receiver",
              "type": "address"
            },
            {
              "internalType": "address",
              "name": "asset",
              "type": "address"
            },
            {
              "internalType": "uint256",
              "name": "amount",
              "type": "uint256"
            },
            {
              "internalType": "bytes32",
              "name": "contextHash",
              "type": "bytes32"
            },
            {
              "internalType": "bytes32",
              "name": "ruleSetHash",
              "type": "bytes32"
            },
            {
              "internalType": "address",
              "name": "ruleAuthority",
              "type": "address"
            },
            {
              "internalType": "uint64",
              "name": "issuedAt",
              "type": "uint64"
            },
            {
              "internalType": "uint64",
              "name": "expiresAt",
              "type": "uint64"
            },
            {
              "internalType": "bytes32",
              "name": "nonce",
              "type": "bytes32"
            },
            {
              "internalType": "bool",
              "name": "requiresAttestation",
              "type": "bool"
            },
            {
              "internalType": "bytes32",
              "name": "attestationUIDsHash",
              "type": "bytes32"
            }
          ],
          "internalType": "struct PayIDVerifier.Decision",
          "name": "d",
          "type": "tuple"
        },
        {
          "internalType": "bytes",
          "name": "sig",
          "type": "bytes"
        }
      ],
      "name": "verifyDecision",
      "outputs": [
        {
          "internalType": "bool",
          "name": "",
          "type": "bool"
        }
      ],
      "stateMutability": "view",
      "type": "function"
    }
  ],
  "bytecode": "0x610160604052348015610010575f5ffd5b50604080518082018252600f81526e2820ac9724a2102232b1b4b9b4b7b760891b602080830191909152825180840190935260018352601960f91b908301529061005a825f610103565b61012052610069816001610103565b61014052815160208084019190912060e052815190820120610100524660a0526100f560e05161010051604080517f8b73c3c69bb8fe3d512ecc4cf759cc79239f7b179b0ffacaa9a75d522b39400f60208201529081019290925260608201524660808201523060a08201525f9060c00160405160208183030381529060405280519060200120905090565b60805250503060c052610325565b5f60208351101561011e5761011783610135565b905061012f565b816101298482610213565b5060ff90505b92915050565b5f5f829050601f81511115610168578260405163305a27a960e01b815260040161015f91906102cd565b60405180910390fd5b805161017382610302565b179392505050565b634e487b7160e01b5f52604160045260245ffd5b600181811c908216806101a357607f821691505b6020821081036101c157634e487b7160e01b5f52602260045260245ffd5b50919050565b601f82111561020e57805f5260205f20601f840160051c810160208510156101ec5750805b601f840160051c820191505b8181101561020b575f81556001016101f8565b50505b505050565b81516001600160401b0381111561022c5761022c61017b565b6102408161023a845461018f565b846101c7565b6020601f821160018114610272575f831561025b5750848201515b5f19600385901b1c1916600184901b17845561020b565b5f84815260208120601f198516915b828110156102a15787850151825560209485019460019092019101610281565b50848210156102be57868401515f19600387901b60f8161c191681555b50505050600190811b01905550565b602081525f82518060208401528060208501604085015e5f604082850101526040601f19601f83011684010191505092915050565b805160208083015191908110156101c1575f1960209190910360031b1b16919050565b60805160a05160c05160e051610100516101205161014051611aaa6103765f395f61104e01525f61102201525f61117501525f61114d01525f6110a801525f6110d201525f6110fc0152611aaa5ff3fe608060405234801561000f575f5ffd5b5060043610610106575f3560e01c80638da5cb5b1161009e578063b4b3c5a01161006e578063b4b3c5a014610289578063c6e945f21461029c578063e3faad94146102af578063f2fde38b146102dd578063f698da25146102f0575f5ffd5b80638da5cb5b146101f15780638f9f07db1461021c578063a415729614610249578063ae6b9d0214610276575f5ffd5b8063485cc955116100d9578063485cc9551461017b5780634dd4a1681461018e5780638431c6c1146101c357806384b0196e146101d6575f5ffd5b80630b8274db1461010a5780633077f71d1461011f578063343e74a714610156578063392e53cd14610169575b5f5ffd5b61011d6101183660046114ca565b6102f8565b005b61014161012d3660046114fd565b60036020525f908152604090205460ff1681565b60405190151581526020015b60405180910390f35b61011d61016436600461152f565b6103af565b600554600160a01b900460ff16610141565b61011d6101893660046115ae565b61091f565b6101b57fdc3f911d398a961dd4ff98d4eae36abc5d1204fdb3a52b1256821060095548a181565b60405190815260200161014d565b6101b56101d13660046115e5565b610a03565b6101de610a22565b60405161014d979695949392919061162e565b600454610204906001600160a01b031681565b6040516001600160a01b03909116815260200161014d565b61014161022a3660046116c4565b600260209081525f928352604080842090915290825290205460ff1681565b610269604051806040016040528060018152602001601960f91b81525081565b60405161014d91906116ee565b61011d610284366004611747565b610a64565b600554610204906001600160a01b031681565b6101416102aa36600461152f565b610c39565b6102696040518060400160405280600f81526020016e2820ac9724a2102232b1b4b9b4b7b760891b81525081565b61011d6102eb3660046114fd565b610d99565b6101b5610e44565b6004546001600160a01b0316331461032b5760405162461bcd60e51b8152600401610322906117b1565b60405180910390fd5b6001600160a01b0382166103515760405162461bcd60e51b8152600401610322906117d4565b6001600160a01b0382165f81815260036020908152604091829020805460ff191685151590811790915591519182527fc5238a63fa205f95e98807f6cbc91d2ad8555a2250075e47491f11d9c69db3bc910160405180910390a25050565b600554600160a01b900460ff166103d9576040516321c4e35760e21b815260040160405180910390fd5b6103e4838383610c39565b6104275760405162461bcd60e51b81526020600482015260146024820152732820aca4a21d1024a72b20a624a22fa82927a7a360611b6044820152606401610322565b60025f61043a60608601604087016114fd565b6001600160a01b0316815260208082019290925260409081015f908120610160870135825290925290205460ff16156104aa5760405162461bcd60e51b81526020600482015260126024820152711393d390d157d053149150511657d554d15160721b6044820152606401610322565b600160025f6104bf60608701604088016114fd565b6001600160a01b0316815260208082019290925260409081015f90812061016088013582529092529020805460ff191691151591909117905561050a6101a0840161018085016117fa565b15610555576101a08301356105555760405162461bcd60e51b815260206004820152601160248201527015525117d21054d217d491545552549151607a1b6044820152606401610322565b5f610568610120850161010086016114fd565b6001600160a01b03161461091a575f610589610120850161010086016114fd565b6001600160a01b03163b116105e05760405162461bcd60e51b815260206004820152601b60248201527f52554c455f415554484f524954595f4e4f545f434f4e545241435400000000006044820152606401610322565b60035f6105f5610120860161010087016114fd565b6001600160a01b0316815260208101919091526040015f205460ff1661065d5760405162461bcd60e51b815260206004820152601a60248201527f52554c455f415554484f524954595f4e4f545f545255535445440000000000006044820152606401610322565b5f80610671610120860161010087016114fd565b60405163075bbcc560e11b815260e087013560048201526001600160a01b039190911690630eb7798a906024015f60405180830381865afa1580156106b8573d5f5f3e3d5ffd5b505050506040513d5f823e601f3d908101601f191682016040526106df919081019061189e565b5090925090506106f560808601606087016114fd565b6001600160a01b0316826001600160a01b03161461074b5760405162461bcd60e51b81526020600482015260136024820152720a4aa988abe9eae9c8aa4be9a92a69a82a8869606b1b6044820152606401610322565b5f5b8151811015610916575f8282815181106107695761076961199a565b60200260200101515f015190505f8383815181106107895761078961199a565b602002602001015160200151905042826001600160a01b031663d9019020836040518263ffffffff1660e01b81526004016107c691815260200190565b602060405180830381865afa1580156107e1573d5f5f3e3d5ffd5b505050506040513d601f19601f8201168201806040525081019061080591906119ae565b101561084a5760405162461bcd60e51b81526020600482015260146024820152731495531157d31250d15394d157d156141254915160621b6044820152606401610322565b6040516331a9108f60e11b8152600481018290526001600160a01b038087169190841690636352211e90602401602060405180830381865afa158015610892573d5f5f3e3d5ffd5b505050506040513d601f19601f820116820180604052508101906108b691906119c5565b6001600160a01b03161461090c5760405162461bcd60e51b815260206004820152601a60248201527f52554c455f4c4943454e53455f4f574e45525f4348414e4745440000000000006044820152606401610322565b505060010161074d565b5050505b505050565b600554600160a01b900460ff16156109495760405162dc149f60e41b815260040160405180910390fd5b6001600160a01b0382166109705760405163d92e233d60e01b815260040160405180910390fd5b6001600160a01b0381166109975760405163d92e233d60e01b815260040160405180910390fd5b60058054600480546001600160a01b038087166001600160a01b031990921682179092559084166001600160a81b031990921691909117600160a01b179091556040517f908408e307fc569b417f6cbec5d5a06f44a0a505ac0479b47d421a4b2fd6a1e6905f90a25050565b5f610a1c610a1083610e52565b80519060200120610fef565b92915050565b5f6060805f5f5f6060610a3361101b565b610a3b611047565b604080515f80825260208201909252600f60f81b9b939a50919850469750309650945092509050565b6004546001600160a01b03163314610a8e5760405162461bcd60e51b8152600401610322906117b1565b828114610acf5760405162461bcd60e51b815260206004820152600f60248201526e0988a9c8ea890be9a92a69a82a8869608b1b6044820152606401610322565b5f5b83811015610c32575f858583818110610aec57610aec61199a565b9050602002016020810190610b0191906114fd565b6001600160a01b031603610b275760405162461bcd60e51b8152600401610322906117d4565b828282818110610b3957610b3961199a565b9050602002016020810190610b4e91906117fa565b60035f878785818110610b6357610b6361199a565b9050602002016020810190610b7891906114fd565b6001600160a01b0316815260208101919091526040015f20805460ff1916911515919091179055848482818110610bb157610bb161199a565b9050602002016020810190610bc691906114fd565b6001600160a01b03167fc5238a63fa205f95e98807f6cbc91d2ad8555a2250075e47491f11d9c69db3bc848484818110610c0257610c0261199a565b9050602002016020810190610c1791906117fa565b604051901515815260200160405180910390a2600101610ad1565b5050505050565b5f610c4c610160850161014086016119e0565b6001600160401b0316421115610c6357505f610d92565b42610c76610140860161012087016119e0565b6001600160401b03161115610c8c57505f610d92565b8360a001355f03610c9e57505f610d92565b5f610caf60808601606087016114fd565b6001600160a01b031603610cc457505f610d92565b5f610cd560608601604087016114fd565b6001600160a01b031603610cea57505f610d92565b610160840135610cfb57505f610d92565b5f610d4684848080601f0160208091040260200160405190810160405280939291908181526020018383808284375f92019190915250610d409250899150610a039050565b90611074565b9050610d5860608601604087016114fd565b6001600160a01b0316816001600160a01b03161480610d8e57506001600160a01b0381165f9081526003602052604090205460ff165b9150505b9392505050565b6004546001600160a01b03163314610dc35760405162461bcd60e51b8152600401610322906117b1565b6001600160a01b038116610de95760405162461bcd60e51b8152600401610322906117d4565b6004546040516001600160a01b038084169216907f8be0079c531659141344cd1fd0a4f28419497f9722a3daafe3b4186f6b6457e0905f90a3600480546001600160a01b0319166001600160a01b0392909216919091179055565b5f610e4d61109c565b905090565b60607fdc3f911d398a961dd4ff98d4eae36abc5d1204fdb3a52b1256821060095548a182356020840135610e8b858501604087016114fd565b610e9b60808701606088016114fd565b610eab60a08801608089016114fd565b8760a001358860c001358960e00135604051602001610f1799989796959493929190988952602089019790975260408801959095526001600160a01b039384166060880152918316608087015290911660a085015260c084015260e08301526101008201526101200190565b60408051601f19818403018152919052610f39610120840161010085016114fd565b610f4b610140850161012086016119e0565b610f5d610160860161014087016119e0565b610160860135610f756101a0880161018089016117fa565b604080516001600160a01b0390961660208701526001600160401b03948516908601529290911660608401526080830152151560a08201526101a084013560c082015260e00160408051601f1981840301815290829052610fd99291602001611a12565b6040516020818303038152906040529050919050565b5f610a1c610ffb61109c565b8360405161190160f01b8152600281019290925260228201526042902090565b6060610e4d7f00000000000000000000000000000000000000000000000000000000000000005f6111c5565b6060610e4d7f000000000000000000000000000000000000000000000000000000000000000060016111c5565b5f5f5f5f611082868661126e565b92509250925061109282826112b7565b5090949350505050565b5f306001600160a01b037f0000000000000000000000000000000000000000000000000000000000000000161480156110f457507f000000000000000000000000000000000000000000000000000000000000000046145b1561111e57507f000000000000000000000000000000000000000000000000000000000000000090565b610e4d604080517f8b73c3c69bb8fe3d512ecc4cf759cc79239f7b179b0ffacaa9a75d522b39400f60208201527f0000000000000000000000000000000000000000000000000000000000000000918101919091527f000000000000000000000000000000000000000000000000000000000000000060608201524660808201523060a08201525f9060c00160405160208183030381529060405280519060200120905090565b606060ff83146111df576111d883611373565b9050610a1c565b8180546111eb90611a2e565b80601f016020809104026020016040519081016040528092919081815260200182805461121790611a2e565b80156112625780601f1061123957610100808354040283529160200191611262565b820191905f5260205f20905b81548152906001019060200180831161124557829003601f168201915b50505050509050610a1c565b5f5f5f83516041036112a5576020840151604085015160608601515f1a611297888285856113b0565b9550955095505050506112b0565b505081515f91506002905b9250925092565b5f8260038111156112ca576112ca611a60565b036112d3575050565b60018260038111156112e7576112e7611a60565b036113055760405163f645eedf60e01b815260040160405180910390fd5b600282600381111561131957611319611a60565b0361133a5760405163fce698f760e01b815260048101829052602401610322565b600382600381111561134e5761134e611a60565b0361136f576040516335e2f38360e21b815260048101829052602401610322565b5050565b60605f61137f83611478565b6040805160208082528183019092529192505f91906020820181803683375050509182525060208101929092525090565b5f80807f7fffffffffffffffffffffffffffffff5d576e7357a4501ddfe92f46681b20a08411156113e957505f9150600390508261146e565b604080515f808252602082018084528a905260ff891692820192909252606081018790526080810186905260019060a0016020604051602081039080840390855afa15801561143a573d5f5f3e3d5ffd5b5050604051601f1901519150506001600160a01b03811661146557505f92506001915082905061146e565b92505f91508190505b9450945094915050565b5f60ff8216601f811115610a1c57604051632cd44ac360e21b815260040160405180910390fd5b6001600160a01b03811681146114b3575f5ffd5b50565b803580151581146114c5575f5ffd5b919050565b5f5f604083850312156114db575f5ffd5b82356114e68161149f565b91506114f4602084016114b6565b90509250929050565b5f6020828403121561150d575f5ffd5b8135610d928161149f565b5f6101c08284031215611529575f5ffd5b50919050565b5f5f5f6101e08486031215611542575f5ffd5b61154c8585611518565b92506101c08401356001600160401b03811115611567575f5ffd5b8401601f81018613611577575f5ffd5b80356001600160401b0381111561158c575f5ffd5b86602082840101111561159d575f5ffd5b939660209190910195509293505050565b5f5f604083850312156115bf575f5ffd5b82356115ca8161149f565b915060208301356115da8161149f565b809150509250929050565b5f6101c082840312156115f6575f5ffd5b610d928383611518565b5f81518084528060208401602086015e5f602082860101526020601f19601f83011685010191505092915050565b60ff60f81b8816815260e060208201525f61164c60e0830189611600565b828103604084015261165e8189611600565b606084018890526001600160a01b038716608085015260a0840186905283810360c0850152845180825260208087019350909101905f5b818110156116b3578351835260209384019390920191600101611695565b50909b9a5050505050505050505050565b5f5f604083850312156116d5575f5ffd5b82356116e08161149f565b946020939093013593505050565b602081525f610d926020830184611600565b5f5f83601f840112611710575f5ffd5b5081356001600160401b03811115611726575f5ffd5b6020830191508360208260051b8501011115611740575f5ffd5b9250929050565b5f5f5f5f6040858703121561175a575f5ffd5b84356001600160401b0381111561176f575f5ffd5b61177b87828801611700565b90955093505060208501356001600160401b03811115611799575f5ffd5b6117a587828801611700565b95989497509550505050565b6020808252600990820152682727aa2fa7aba722a960b91b604082015260600190565b6020808252600c908201526b5a45524f5f4144445245535360a01b604082015260600190565b5f6020828403121561180a575f5ffd5b610d92826114b6565b634e487b7160e01b5f52604160045260245ffd5b604080519081016001600160401b038111828210171561184957611849611813565b60405290565b604051601f8201601f191681016001600160401b038111828210171561187757611877611813565b604052919050565b6001600160401b03811681146114b3575f5ffd5b80516114c58161187f565b5f5f5f606084860312156118b0575f5ffd5b83516118bb8161149f565b60208501519093506001600160401b038111156118d6575f5ffd5b8401601f810186136118e6575f5ffd5b80516001600160401b038111156118ff576118ff611813565b61190e60208260051b0161184f565b8082825260208201915060208360061b85010192508883111561192f575f5ffd5b6020840193505b8284101561197f576040848a03121561194d575f5ffd5b611955611827565b84516119608161149f565b8152602085810151818301529083526040909401939190910190611936565b94506119919250505060408501611893565b90509250925092565b634e487b7160e01b5f52603260045260245ffd5b5f602082840312156119be575f5ffd5b5051919050565b5f602082840312156119d5575f5ffd5b8151610d928161149f565b5f602082840312156119f0575f5ffd5b8135610d928161187f565b5f81518060208401855e5f93019283525090919050565b5f611a26611a2083866119fb565b846119fb565b949350505050565b600181811c90821680611a4257607f821691505b60208210810361152957634e487b7160e01b5f52602260045260245ffd5b634e487b7160e01b5f52602160045260245ffdfea264697066735822122022cd4865254e2fa9750a5bdf6f91f6ad4b587d7c68bf83c9784cf5ea0e2d72c964736f6c634300081c0033",
  "linkReferences": {},
  "deployedLinkReferences": {},
  "immutableReferences": {
    "2188": [
      {
        "length": 32,
        "start": 4348
      }
    ],
    "2190": [
      {
        "length": 32,
        "start": 4306
      }
    ],
    "2192": [
      {
        "length": 32,
        "start": 4264
      }
    ],
    "2194": [
      {
        "length": 32,
        "start": 4429
      }
    ],
    "2196": [
      {
        "length": 32,
        "start": 4469
      }
    ],
    "2199": [
      {
        "length": 32,
        "start": 4130
      }
    ],
    "2202": [
      {
        "length": 32,
        "start": 4174
      }
    ]
  },
  "inputSourceName": "project/contracts/PayIDVerifier.sol",
  "buildInfoId": "solc-0_8_28-b73fe0715a8dfd85cf0823b81f97db3877d561a0"
}