{
  "_format": "hh3-artifact-1",
  "contractName": "PayWithPayID",
  "sourceName": "contracts/core/PayWithPayID.sol",
  "abi": [
    {
      "inputs": [],
      "stateMutability": "nonpayable",
      "type": "constructor"
    },
    {
      "inputs": [],
      "name": "AlreadyInitialized",
      "type": "error"
    },
    {
      "inputs": [],
      "name": "NotInitialized",
      "type": "error"
    },
    {
      "inputs": [],
      "name": "ZeroAddress",
      "type": "error"
    },
    {
      "anonymous": false,
      "inputs": [
        {
          "indexed": true,
          "internalType": "address",
          "name": "verifier",
          "type": "address"
        },
        {
          "indexed": true,
          "internalType": "address",
          "name": "attestationVerifier",
          "type": "address"
        }
      ],
      "name": "Initialized",
      "type": "event"
    },
    {
      "anonymous": false,
      "inputs": [
        {
          "indexed": true,
          "internalType": "address",
          "name": "payer",
          "type": "address"
        },
        {
          "indexed": true,
          "internalType": "address",
          "name": "receiver",
          "type": "address"
        },
        {
          "indexed": true,
          "internalType": "address",
          "name": "asset",
          "type": "address"
        },
        {
          "indexed": false,
          "internalType": "uint256",
          "name": "amount",
          "type": "uint256"
        },
        {
          "indexed": false,
          "internalType": "bytes32",
          "name": "payId",
          "type": "bytes32"
        },
        {
          "indexed": false,
          "internalType": "bytes32",
          "name": "nonce",
          "type": "bytes32"
        }
      ],
      "name": "PaymentERC20",
      "type": "event"
    },
    {
      "anonymous": false,
      "inputs": [
        {
          "indexed": true,
          "internalType": "address",
          "name": "payer",
          "type": "address"
        },
        {
          "indexed": true,
          "internalType": "address",
          "name": "receiver",
          "type": "address"
        },
        {
          "indexed": false,
          "internalType": "uint256",
          "name": "amount",
          "type": "uint256"
        },
        {
          "indexed": false,
          "internalType": "bytes32",
          "name": "payId",
          "type": "bytes32"
        },
        {
          "indexed": false,
          "internalType": "bytes32",
          "name": "nonce",
          "type": "bytes32"
        }
      ],
      "name": "PaymentETH",
      "type": "event"
    },
    {
      "inputs": [],
      "name": "attestationVerifier",
      "outputs": [
        {
          "internalType": "contract AttestationVerifier",
          "name": "",
          "type": "address"
        }
      ],
      "stateMutability": "view",
      "type": "function"
    },
    {
      "inputs": [
        {
          "internalType": "address",
          "name": "verifier_",
          "type": "address"
        },
        {
          "internalType": "address",
          "name": "attestationVerifier_",
          "type": "address"
        }
      ],
      "name": "initialize",
      "outputs": [],
      "stateMutability": "nonpayable",
      "type": "function"
    },
    {
      "inputs": [],
      "name": "isInitialized",
      "outputs": [
        {
          "internalType": "bool",
          "name": "",
          "type": "bool"
        }
      ],
      "stateMutability": "view",
      "type": "function"
    },
    {
      "inputs": [
        {
          "components": [
            {
              "internalType": "bytes32",
              "name": "version",
              "type": "bytes32"
            },
            {
              "internalType": "bytes32",
              "name": "payId",
              "type": "bytes32"
            },
            {
              "internalType": "address",
              "name": "payer",
              "type": "address"
            },
            {
              "internalType": "address",
              "name": "receiver",
              "type": "address"
            },
            {
              "internalType": "address",
              "name": "asset",
              "type": "address"
            },
            {
              "internalType": "uint256",
              "name": "amount",
              "type": "uint256"
            },
            {
              "internalType": "bytes32",
              "name": "contextHash",
              "type": "bytes32"
            },
            {
              "internalType": "bytes32",
              "name": "ruleSetHash",
              "type": "bytes32"
            },
            {
              "internalType": "address",
              "name": "ruleAuthority",
              "type": "address"
            },
            {
              "internalType": "uint64",
              "name": "issuedAt",
              "type": "uint64"
            },
            {
              "internalType": "uint64",
              "name": "expiresAt",
              "type": "uint64"
            },
            {
              "internalType": "bytes32",
              "name": "nonce",
              "type": "bytes32"
            },
            {
              "internalType": "bool",
              "name": "requiresAttestation",
              "type": "bool"
            },
            {
              "internalType": "bytes32",
              "name": "attestationUIDsHash",
              "type": "bytes32"
            }
          ],
          "internalType": "struct PayIDVerifier.Decision",
          "name": "d",
          "type": "tuple"
        },
        {
          "internalType": "bytes",
          "name": "sig",
          "type": "bytes"
        },
        {
          "internalType": "bytes32[]",
          "name": "attestationUIDs",
          "type": "bytes32[]"
        }
      ],
      "name": "payERC20",
      "outputs": [],
      "stateMutability": "nonpayable",
      "type": "function"
    },
    {
      "inputs": [
        {
          "components": [
            {
              "internalType": "bytes32",
              "name": "version",
              "type": "bytes32"
            },
            {
              "internalType": "bytes32",
              "name": "payId",
              "type": "bytes32"
            },
            {
              "internalType": "address",
              "name": "payer",
              "type": "address"
            },
            {
              "internalType": "address",
              "name": "receiver",
              "type": "address"
            },
            {
              "internalType": "address",
              "name": "asset",
              "type": "address"
            },
            {
              "internalType": "uint256",
              "name": "amount",
              "type": "uint256"
            },
            {
              "internalType": "bytes32",
              "name": "contextHash",
              "type": "bytes32"
            },
            {
              "internalType": "bytes32",
              "name": "ruleSetHash",
              "type": "bytes32"
            },
            {
              "internalType": "address",
              "name": "ruleAuthority",
              "type": "address"
            },
            {
              "internalType": "uint64",
              "name": "issuedAt",
              "type": "uint64"
            },
            {
              "internalType": "uint64",
              "name": "expiresAt",
              "type": "uint64"
            },
            {
              "internalType": "bytes32",
              "name": "nonce",
              "type": "bytes32"
            },
            {
              "internalType": "bool",
              "name": "requiresAttestation",
              "type": "bool"
            },
            {
              "internalType": "bytes32",
              "name": "attestationUIDsHash",
              "type": "bytes32"
            }
          ],
          "internalType": "struct PayIDVerifier.Decision",
          "name": "d",
          "type": "tuple"
        },
        {
          "internalType": "bytes",
          "name": "sig",
          "type": "bytes"
        },
        {
          "internalType": "bytes32[]",
          "name": "attestationUIDs",
          "type": "bytes32[]"
        },
        {
          "internalType": "address",
          "name": "tokenPriceOracle",
          "type": "address"
        },
        {
          "internalType": "uint256",
          "name": "minUsdValue",
          "type": "uint256"
        },
        {
          "internalType": "uint8",
          "name": "tokenDecimals",
          "type": "uint8"
        }
      ],
      "name": "payERC20WithOracleGuard",
      "outputs": [],
      "stateMutability": "nonpayable",
      "type": "function"
    },
    {
      "inputs": [
        {
          "components": [
            {
              "internalType": "bytes32",
              "name": "version",
              "type": "bytes32"
            },
            {
              "internalType": "bytes32",
              "name": "payId",
              "type": "bytes32"
            },
            {
              "internalType": "address",
              "name": "payer",
              "type": "address"
            },
            {
              "internalType": "address",
              "name": "receiver",
              "type": "address"
            },
            {
              "internalType": "address",
              "name": "asset",
              "type": "address"
            },
            {
              "internalType": "uint256",
              "name": "amount",
              "type": "uint256"
            },
            {
              "internalType": "bytes32",
              "name": "contextHash",
              "type": "bytes32"
            },
            {
              "internalType": "bytes32",
              "name": "ruleSetHash",
              "type": "bytes32"
            },
            {
              "internalType": "address",
              "name": "ruleAuthority",
              "type": "address"
            },
            {
              "internalType": "uint64",
              "name": "issuedAt",
              "type": "uint64"
            },
            {
              "internalType": "uint64",
              "name": "expiresAt",
              "type": "uint64"
            },
            {
              "internalType": "bytes32",
              "name": "nonce",
              "type": "bytes32"
            },
            {
              "internalType": "bool",
              "name": "requiresAttestation",
              "type": "bool"
            },
            {
              "internalType": "bytes32",
              "name": "attestationUIDsHash",
              "type": "bytes32"
            }
          ],
          "internalType": "struct PayIDVerifier.Decision",
          "name": "d",
          "type": "tuple"
        },
        {
          "internalType": "bytes",
          "name": "sig",
          "type": "bytes"
        },
        {
          "internalType": "bytes32[]",
          "name": "attestationUIDs",
          "type": "bytes32[]"
        }
      ],
      "name": "payNative",
      "outputs": [],
      "stateMutability": "payable",
      "type": "function"
    },
    {
      "inputs": [],
      "name": "verifier",
      "outputs": [
        {
          "internalType": "contract PayIDVerifier",
          "name": "",
          "type": "address"
        }
      ],
      "stateMutability": "view",
      "type": "function"
    }
  ],
  "bytecode": "0x6080604052348015600e575f5ffd5b506114878061001c5f395ff3fe60806040526004361061006e575f3560e01c80636f3d898e1161004c5780636f3d898e146100f757806370305415146101165780638f8c2f9514610129578063b4b3c5a014610148575f5ffd5b80632b7ac3f314610072578063392e53cd146100ad578063485cc955146100d6575b5f5ffd5b34801561007d575f5ffd5b505f54610090906001600160a01b031681565b6040516001600160a01b0390911681526020015b60405180910390f35b3480156100b8575f5ffd5b50600154600160a01b900460ff1660405190151581526020016100a4565b3480156100e1575f5ffd5b506100f56100f0366004610dea565b610167565b005b348015610102575f5ffd5b506100f5610111366004610eb8565b610248565b6100f5610124366004610f71565b610708565b348015610134575f5ffd5b506100f5610143366004610f71565b610a58565b348015610153575f5ffd5b50600154610090906001600160a01b031681565b600154600160a01b900460ff16156101915760405162dc149f60e41b815260040160405180910390fd5b6001600160a01b0382166101b85760405163d92e233d60e01b815260040160405180910390fd5b6001600160a01b0381166101df5760405163d92e233d60e01b815260040160405180910390fd5b600180545f80546001600160a01b038087166001600160a01b03199092168217835585166001600160a81b03199093168317600160a01b179093556040519192917f3cd5ec01b1ae7cfec6ca1863e2cd6aa25d6d1702825803ff2b7cc95010fffdc29190a35050565b600154600160a01b900460ff16610272576040516321c4e35760e21b815260040160405180910390fd5b5f61028360a08a0160808b01610ff5565b6001600160a01b0316036102d05760405162461bcd60e51b815260206004820152600f60248201526e041535345545f4e4f545f455243323608c1b60448201526064015b60405180910390fd5b6001600160a01b038316158015906102e757505f82115b15610411575f836001600160a01b031663feaf968c6040518163ffffffff1660e01b815260040160a060405180830381865afa158015610329573d5f5f3e3d5ffd5b505050506040513d601f19601f8201168201806040525081019061034d919061102e565b5050509150505f81136103995760405162461bcd60e51b8152602060048201526014602482015273494e56414c49445f4f5241434c455f505249434560601b60448201526064016102c7565b5f6103a5836008611090565b6103b090600a611192565b6103be8360a08d01356111a0565b6103c891906111b7565b90508381101561040e5760405162461bcd60e51b815260206004820152601160248201527042454c4f575f5553445f4d494e494d554d60781b60448201526064016102c7565b50505b6104236101a089016101808a016111f1565b156104ff57836104455760405162461bcd60e51b81526004016102c79061120c565b876101a00135858560405160200161045e92919061126a565b60405160208183030381529060405280519060200120146104915760405162461bcd60e51b81526004016102c790611285565b6001546001600160a01b031663cc600a9a86866104b460608d0160408e01610ff5565b6040518463ffffffff1660e01b81526004016104d2939291906112af565b5f6040518083038186803b1580156104e8575f5ffd5b505afa1580156104fa573d5f5f3e3d5ffd5b505050505b5f5460405163343e74a760e01b81526001600160a01b039091169063343e74a790610532908b908b908b90600401611319565b5f604051808303815f87803b158015610549575f5ffd5b505af115801561055b573d5f5f3e3d5ffd5b505f925061057291505060a08a0160808b01610ff5565b6001600160a01b03166323b872dd61059060608c0160408d01610ff5565b6105a060808d0160608e01610ff5565b6040516001600160e01b031960e085901b1681526001600160a01b0392831660048201529116602482015260a08c013560448201526064016020604051808303815f875af11580156105f4573d5f5f3e3d5ffd5b505050506040513d601f19601f820116820180604052508101906106189190611436565b9050806106595760405162461bcd60e51b815260206004820152600f60248201526e1514905394d1915497d19052531151608a1b60448201526064016102c7565b61066960a08a0160808b01610ff5565b6001600160a01b031661068260808b0160608c01610ff5565b6001600160a01b031661069b60608c0160408d01610ff5565b6001600160a01b03167f0fffc78c87834dc5e7ba16e472767d7cde8dc6fd91db1cf448a929627dbe26388c60a001358d602001358e61016001356040516106f5939291909283526020830191909152604082015260600190565b60405180910390a4505050505050505050565b600154600160a01b900460ff16610732576040516321c4e35760e21b815260040160405180910390fd5b5f61074360a0870160808801610ff5565b6001600160a01b03161461078c5760405162461bcd60e51b815260206004820152601060248201526f41535345545f4e4f545f4e415449564560801b60448201526064016102c7565b8460a0013534146107d15760405162461bcd60e51b815260206004820152600f60248201526e0829a9eaa9ca8be9a92a69a82a8869608b1b60448201526064016102c7565b6107e36101a0860161018087016111f1565b156108bf57806108055760405162461bcd60e51b81526004016102c79061120c565b846101a00135828260405160200161081e92919061126a565b60405160208183030381529060405280519060200120146108515760405162461bcd60e51b81526004016102c790611285565b6001546001600160a01b031663cc600a9a838361087460608a0160408b01610ff5565b6040518463ffffffff1660e01b8152600401610892939291906112af565b5f6040518083038186803b1580156108a8575f5ffd5b505afa1580156108ba573d5f5f3e3d5ffd5b505050505b5f5460405163343e74a760e01b81526001600160a01b039091169063343e74a7906108f290889088908890600401611319565b5f604051808303815f87803b158015610909575f5ffd5b505af115801561091b573d5f5f3e3d5ffd5b505f92506109329150506080870160608801610ff5565b6001600160a01b0316346040515f6040518083038185875af1925050503d805f8114610979576040519150601f19603f3d011682016040523d82523d5f602084013e61097e565b606091505b50509050806109c55760405162461bcd60e51b815260206004820152601360248201527211551217d514905394d1915497d19052531151606a1b60448201526064016102c7565b6109d56080870160608801610ff5565b6001600160a01b03166109ee6060880160408901610ff5565b6001600160a01b03167f024c9755552d5294bffc9fdfb51320404678375c011c29e4195dd33bd8de90718860a0013589602001358a6101600135604051610a48939291909283526020830191909152604082015260600190565b60405180910390a3505050505050565b600154600160a01b900460ff16610a82576040516321c4e35760e21b815260040160405180910390fd5b5f610a9360a0870160808801610ff5565b6001600160a01b031603610adb5760405162461bcd60e51b815260206004820152600f60248201526e041535345545f4e4f545f455243323608c1b60448201526064016102c7565b610aed6101a0860161018087016111f1565b15610bc95780610b0f5760405162461bcd60e51b81526004016102c79061120c565b846101a001358282604051602001610b2892919061126a565b6040516020818303038152906040528051906020012014610b5b5760405162461bcd60e51b81526004016102c790611285565b6001546001600160a01b031663cc600a9a8383610b7e60608a0160408b01610ff5565b6040518463ffffffff1660e01b8152600401610b9c939291906112af565b5f6040518083038186803b158015610bb2575f5ffd5b505afa158015610bc4573d5f5f3e3d5ffd5b505050505b5f5460405163343e74a760e01b81526001600160a01b039091169063343e74a790610bfc90889088908890600401611319565b5f604051808303815f87803b158015610c13575f5ffd5b505af1158015610c25573d5f5f3e3d5ffd5b505f9250610c3c91505060a0870160808801610ff5565b6001600160a01b03166323b872dd610c5a6060890160408a01610ff5565b610c6a60808a0160608b01610ff5565b6040516001600160e01b031960e085901b1681526001600160a01b0392831660048201529116602482015260a089013560448201526064016020604051808303815f875af1158015610cbe573d5f5f3e3d5ffd5b505050506040513d601f19601f82011682018060405250810190610ce29190611436565b905080610d235760405162461bcd60e51b815260206004820152600f60248201526e1514905394d1915497d19052531151608a1b60448201526064016102c7565b610d3360a0870160808801610ff5565b6001600160a01b0316610d4c6080880160608901610ff5565b6001600160a01b0316610d656060890160408a01610ff5565b6001600160a01b03167f0fffc78c87834dc5e7ba16e472767d7cde8dc6fd91db1cf448a929627dbe26388960a001358a602001358b6101600135604051610dbf939291909283526020830191909152604082015260600190565b60405180910390a4505050505050565b80356001600160a01b0381168114610de5575f5ffd5b919050565b5f5f60408385031215610dfb575f5ffd5b610e0483610dcf565b9150610e1260208401610dcf565b90509250929050565b5f6101c08284031215610e2c575f5ffd5b50919050565b5f5f83601f840112610e42575f5ffd5b50813567ffffffffffffffff811115610e59575f5ffd5b602083019150836020828501011115610e70575f5ffd5b9250929050565b5f5f83601f840112610e87575f5ffd5b50813567ffffffffffffffff811115610e9e575f5ffd5b6020830191508360208260051b8501011115610e70575f5ffd5b5f5f5f5f5f5f5f5f610260898b031215610ed0575f5ffd5b610eda8a8a610e1b565b97506101c089013567ffffffffffffffff811115610ef6575f5ffd5b610f028b828c01610e32565b9098509650506101e089013567ffffffffffffffff811115610f22575f5ffd5b610f2e8b828c01610e77565b9096509450610f4290506102008a01610dcf565b9250610220890135915061024089013560ff81168114610f60575f5ffd5b809150509295985092959890939650565b5f5f5f5f5f6102008688031215610f86575f5ffd5b610f908787610e1b565b94506101c086013567ffffffffffffffff811115610fac575f5ffd5b610fb888828901610e32565b9095509350506101e086013567ffffffffffffffff811115610fd8575f5ffd5b610fe488828901610e77565b969995985093965092949392505050565b5f60208284031215611005575f5ffd5b61100e82610dcf565b9392505050565b805169ffffffffffffffffffff81168114610de5575f5ffd5b5f5f5f5f5f60a08688031215611042575f5ffd5b61104b86611015565b6020870151604088015160608901519297509095509350915061107060808701611015565b90509295509295909350565b634e487b7160e01b5f52601160045260245ffd5b60ff81811683821601908111156110a9576110a961107c565b92915050565b6001815b60018411156110ea578085048111156110ce576110ce61107c565b60018416156110dc57908102905b60019390931c9280026110b3565b935093915050565b5f82611100575060016110a9565b8161110c57505f6110a9565b8160018114611122576002811461112c57611148565b60019150506110a9565b60ff84111561113d5761113d61107c565b50506001821b6110a9565b5060208310610133831016604e8410600b841016171561116b575081810a6110a9565b6111775f1984846110af565b805f190482111561118a5761118a61107c565b029392505050565b5f61100e60ff8416836110f2565b80820281158282048414176110a9576110a961107c565b5f826111d157634e487b7160e01b5f52601260045260245ffd5b500490565b80151581146111e3575f5ffd5b50565b8035610de5816111d6565b5f60208284031215611201575f5ffd5b813561100e816111d6565b6020808252601490820152731055151154d510551253d397d49154555254915160621b604082015260600190565b8183525f6001600160fb1b03831115611251575f5ffd5b8260051b80836020870137939093016020019392505050565b602081525f61127d60208301848661123a565b949350505050565b60208082526010908201526f0929cac82989288beaa9288be9082a6960831b604082015260600190565b604081525f6112c260408301858761123a565b905060018060a01b0383166020830152949350505050565b803567ffffffffffffffff81168114610de5575f5ffd5b81835281816020850137505f828201602090810191909152601f909101601f19169091010190565b83358152602080850135908201525f61133460408601610dcf565b6001600160a01b0316604083015261134e60608601610dcf565b6001600160a01b0316606083015261136860808601610dcf565b6001600160a01b0316608083015260a0858101359083015260c0808601359083015260e080860135908301526113a16101008601610dcf565b6001600160a01b03166101008301526113bd61012086016112da565b67ffffffffffffffff166101208301526113da61014086016112da565b67ffffffffffffffff16610140830152610160858101359083015261140261018086016111e6565b15156101808301526101a085810135908301526101e06101c0830181905261142d90830184866112f1565b95945050505050565b5f60208284031215611446575f5ffd5b815161100e816111d656fea264697066735822122070befda3da1995a2d8db35be9ba6f1578930912890cb77115cc3a3aa7862135c64736f6c634300081c0033",
  "linkReferences": {},
  "deployedLinkReferences": {},
  "immutableReferences": {},
  "inputSourceName": "project/contracts/core/PayWithPayID.sol",
  "buildInfoId": "solc-0_8_28-7cb560feb3e5848fa0e077f0e5725cf93afdb9a8"
}