{
  "_format": "hh3-artifact-1",
  "contractName": "MockOracle",
  "sourceName": "contracts/test/MockOracle.sol",
  "abi": [
    {
      "inputs": [],
      "stateMutability": "nonpayable",
      "type": "constructor"
    },
    {
      "inputs": [],
      "name": "ethUsd",
      "outputs": [
        {
          "internalType": "contract MockV3Aggregator",
          "name": "",
          "type": "address"
        }
      ],
      "stateMutability": "view",
      "type": "function"
    }
  ],
  "bytecode": "0x6080604052348015600e575f5ffd5b5060086445d964b800604051602190606c565b60ff90921682526020820152604001604051809103905ff0801580156048573d5f5f3e3d5ffd5b505f80546001600160a01b0319166001600160a01b03929092169190911790556079565b61050b8061011283390190565b608d806100855f395ff3fe6080604052348015600e575f5ffd5b50600436106026575f3560e01c80635a96021614602a575b5f5ffd5b5f54603b906001600160a01b031681565b6040516001600160a01b03909116815260200160405180910390f3fea2646970667358221220810900b66340be6de36e7ecbb31e61147f0f8169b9a60d9dd085d6973730895164736f6c634300081c0033608060405234801561000f575f5ffd5b5060405161050b38038061050b83398101604081905261002e916100a0565b5f805460ff191660ff84161790556100458161004c565b50506100f5565b60018190554260025560038054905f610064836100d1565b9091555050600380545f908152600460209081526040808320949094558254825260058152838220429081905592548252600690529190912055565b5f5f604083850312156100b1575f5ffd5b825160ff811681146100c1575f5ffd5b6020939093015192949293505050565b5f600182016100ee57634e487b7160e01b5f52601160045260245ffd5b5060010190565b610409806101025f395ff3fe608060405234801561000f575f5ffd5b50600436106100b1575f3560e01c80638205bf6a1161006e5780638205bf6a1461019a5780639a6fc8f5146101a3578063a87a20ce14610220578063b5ab58dc14610233578063b633620c14610252578063feaf968c14610271575f5ffd5b8063313ce567146100b55780634aa2011f146100d857806350d25bcd1461013457806354fd4d501461014b578063668a0f02146101525780637284e4161461015b575b5f5ffd5b5f546100c19060ff1681565b60405160ff90911681526020015b60405180910390f35b6101326100e636600461030d565b69ffffffffffffffffffff9093166003818155600184905560028390555f9182526004602090815260408084209590955581548352600581528483209390935554815260069091522055565b005b61013d60015481565b6040519081526020016100cf565b61013d5f81565b61013d60035481565b604080518082018252601f81527f76302e382f74657374732f4d6f636b563341676772656761746f722e736f6c00602082015290516100cf9190610343565b61013d60025481565b6101e96101b1366004610378565b69ffffffffffffffffffff81165f90815260046020908152604080832054600683528184205460059093529220549293919290918490565b6040805169ffffffffffffffffffff968716815260208101959095528401929092526060830152909116608082015260a0016100cf565b61013261022e366004610398565b61029b565b61013d610241366004610398565b60046020525f908152604090205481565b61013d610260366004610398565b60056020525f908152604090205481565b6003545f8181526004602090815260408083205460068352818420546005909352922054836101e9565b60018190554260025560038054905f6102b3836103af565b9091555050600380545f908152600460209081526040808320949094558254825260058152838220429081905592548252600690529190912055565b803569ffffffffffffffffffff81168114610308575f5ffd5b919050565b5f5f5f5f60808587031215610320575f5ffd5b610329856102ef565b966020860135965060408601359560600135945092505050565b602081525f82518060208401528060208501604085015e5f604082850101526040601f19601f83011684010191505092915050565b5f60208284031215610388575f5ffd5b610391826102ef565b9392505050565b5f602082840312156103a8575f5ffd5b5035919050565b5f600182016103cc57634e487b7160e01b5f52601160045260245ffd5b506001019056fea2646970667358221220f8d00da409a2cd9f1cbe469c51d50e7d839f0e4027a21b1e10f5946efaa00c6f64736f6c634300081c0033",
  "linkReferences": {},
  "deployedLinkReferences": {},
  "immutableReferences": {},
  "inputSourceName": "project/contracts/test/MockOracle.sol",
  "buildInfoId": "solc-0_8_28-c94f99271308de48365147f3815e81d233eae712"
}