{
  "_format": "hh3-artifact-1",
  "contractName": "EscrowMilestone",
  "sourceName": "contracts/core/EscrowMilestone.sol",
  "abi": [
    {
      "inputs": [],
      "name": "AlreadyReleased",
      "type": "error"
    },
    {
      "inputs": [],
      "name": "DeadlinePassed",
      "type": "error"
    },
    {
      "inputs": [],
      "name": "InvalidMilestone",
      "type": "error"
    },
    {
      "inputs": [],
      "name": "NotArbiter",
      "type": "error"
    },
    {
      "inputs": [],
      "name": "NotClient",
      "type": "error"
    },
    {
      "inputs": [],
      "name": "NotDisputed",
      "type": "error"
    },
    {
      "inputs": [],
      "name": "NotFreelancer",
      "type": "error"
    },
    {
      "inputs": [],
      "name": "TransferFailed",
      "type": "error"
    },
    {
      "anonymous": false,
      "inputs": [
        {
          "indexed": true,
          "internalType": "uint256",
          "name": "escrowId",
          "type": "uint256"
        }
      ],
      "name": "Disputed",
      "type": "event"
    },
    {
      "anonymous": false,
      "inputs": [
        {
          "indexed": true,
          "internalType": "uint256",
          "name": "escrowId",
          "type": "uint256"
        },
        {
          "indexed": true,
          "internalType": "address",
          "name": "client",
          "type": "address"
        },
        {
          "indexed": true,
          "internalType": "address",
          "name": "freelancer",
          "type": "address"
        },
        {
          "indexed": false,
          "internalType": "uint256",
          "name": "total",
          "type": "uint256"
        }
      ],
      "name": "EscrowCreated",
      "type": "event"
    },
    {
      "anonymous": false,
      "inputs": [
        {
          "indexed": true,
          "internalType": "uint256",
          "name": "escrowId",
          "type": "uint256"
        },
        {
          "indexed": true,
          "internalType": "uint256",
          "name": "index",
          "type": "uint256"
        },
        {
          "indexed": false,
          "internalType": "bytes32",
          "name": "evidenceHash",
          "type": "bytes32"
        }
      ],
      "name": "MilestoneConfirmed",
      "type": "event"
    },
    {
      "anonymous": false,
      "inputs": [
        {
          "indexed": true,
          "internalType": "uint256",
          "name": "escrowId",
          "type": "uint256"
        },
        {
          "indexed": true,
          "internalType": "uint256",
          "name": "index",
          "type": "uint256"
        },
        {
          "indexed": false,
          "internalType": "uint256",
          "name": "amount",
          "type": "uint256"
        }
      ],
      "name": "MilestoneReleased",
      "type": "event"
    },
    {
      "anonymous": false,
      "inputs": [
        {
          "indexed": true,
          "internalType": "uint256",
          "name": "escrowId",
          "type": "uint256"
        }
      ],
      "name": "Refunded",
      "type": "event"
    },
    {
      "inputs": [
        {
          "internalType": "address",
          "name": "",
          "type": "address"
        }
      ],
      "name": "arbiters",
      "outputs": [
        {
          "internalType": "bool",
          "name": "",
          "type": "bool"
        }
      ],
      "stateMutability": "view",
      "type": "function"
    },
    {
      "inputs": [
        {
          "internalType": "uint256",
          "name": "escrowId",
          "type": "uint256"
        }
      ],
      "name": "autoRefund",
      "outputs": [],
      "stateMutability": "nonpayable",
      "type": "function"
    },
    {
      "inputs": [
        {
          "internalType": "address",
          "name": "freelancer",
          "type": "address"
        },
        {
          "internalType": "address",
          "name": "asset",
          "type": "address"
        },
        {
          "internalType": "uint256[]",
          "name": "amounts",
          "type": "uint256[]"
        },
        {
          "internalType": "string[]",
          "name": "descriptions",
          "type": "string[]"
        },
        {
          "internalType": "uint256",
          "name": "deadline",
          "type": "uint256"
        }
      ],
      "name": "createEscrow",
      "outputs": [
        {
          "internalType": "uint256",
          "name": "escrowId",
          "type": "uint256"
        }
      ],
      "stateMutability": "payable",
      "type": "function"
    },
    {
      "inputs": [
        {
          "internalType": "uint256",
          "name": "escrowId",
          "type": "uint256"
        }
      ],
      "name": "dispute",
      "outputs": [],
      "stateMutability": "nonpayable",
      "type": "function"
    },
    {
      "inputs": [
        {
          "internalType": "uint256",
          "name": "",
          "type": "uint256"
        }
      ],
      "name": "escrows",
      "outputs": [
        {
          "internalType": "address",
          "name": "client",
          "type": "address"
        },
        {
          "internalType": "address",
          "name": "freelancer",
          "type": "address"
        },
        {
          "internalType": "address",
          "name": "asset",
          "type": "address"
        },
        {
          "internalType": "uint256",
          "name": "total",
          "type": "uint256"
        },
        {
          "internalType": "uint256",
          "name": "released",
          "type": "uint256"
        },
        {
          "internalType": "enum EscrowMilestone.Status",
          "name": "status",
          "type": "uint8"
        },
        {
          "internalType": "uint256",
          "name": "createdAt",
          "type": "uint256"
        },
        {
          "internalType": "uint256",
          "name": "deadline",
          "type": "uint256"
        }
      ],
      "stateMutability": "view",
      "type": "function"
    },
    {
      "inputs": [],
      "name": "nextEscrowId",
      "outputs": [
        {
          "internalType": "uint256",
          "name": "",
          "type": "uint256"
        }
      ],
      "stateMutability": "view",
      "type": "function"
    },
    {
      "inputs": [
        {
          "internalType": "uint256",
          "name": "escrowId",
          "type": "uint256"
        },
        {
          "internalType": "uint256",
          "name": "index",
          "type": "uint256"
        }
      ],
      "name": "releaseMilestone",
      "outputs": [],
      "stateMutability": "nonpayable",
      "type": "function"
    },
    {
      "inputs": [
        {
          "internalType": "uint256",
          "name": "escrowId",
          "type": "uint256"
        }
      ],
      "name": "resolveRefund",
      "outputs": [],
      "stateMutability": "nonpayable",
      "type": "function"
    },
    {
      "inputs": [
        {
          "internalType": "address",
          "name": "arbiter",
          "type": "address"
        },
        {
          "internalType": "bool",
          "name": "allowed",
          "type": "bool"
        }
      ],
      "name": "setArbiter",
      "outputs": [],
      "stateMutability": "nonpayable",
      "type": "function"
    },
    {
      "inputs": [
        {
          "internalType": "uint256",
          "name": "escrowId",
          "type": "uint256"
        },
        {
          "internalType": "uint256",
          "name": "index",
          "type": "uint256"
        },
        {
          "internalType": "bytes32",
          "name": "evidenceHash",
          "type": "bytes32"
        }
      ],
      "name": "submitMilestone",
      "outputs": [],
      "stateMutability": "nonpayable",
      "type": "function"
    },
    {
      "stateMutability": "payable",
      "type": "receive"
    }
  ],
  "bytecode": "0x6080604052348015600e575f5ffd5b506110a28061001c5f395ff3fe608060405260043610610092575f3560e01c806376f9a6071161005757806376f9a607146101cb5780637bf2bb10146101ec57806386d6282c1461022a57806389cb29dd14610249578063dbaf09101461025e575f5ffd5b8063012f52ee1461009d5780630993cdbe1461012857806326972b01146101495780634c909aa91461018d5780636736044d146101ac575f5ffd5b3661009957005b5f5ffd5b3480156100a8575f5ffd5b5061010b6100b7366004610c12565b5f60208190529081526040902080546001820154600283015460038401546004850154600586015460078701546008909701546001600160a01b039687169795871696909416949293919260ff9091169188565b60405161011f989796959493929190610c3d565b60405180910390f35b348015610133575f5ffd5b50610147610142366004610c12565b61027d565b005b348015610154575f5ffd5b50610147610163366004610cd2565b6001600160a01b03919091165f908152600260205260409020805460ff1916911515919091179055565b348015610198575f5ffd5b506101476101a7366004610c12565b610383565b3480156101b7575f5ffd5b506101476101c6366004610d07565b6103f8565b6101de6101d9366004610d78565b610509565b60405190815260200161011f565b3480156101f7575f5ffd5b5061021a610206366004610e10565b60026020525f908152604090205460ff1681565b604051901515815260200161011f565b348015610235575f5ffd5b50610147610244366004610c12565b61085d565b348015610254575f5ffd5b506101de60015481565b348015610269575f5ffd5b50610147610278366004610e30565b6108ec565b5f81815260208190526040902060088101544210156102af5760405163387b2e5560e11b815260040160405180910390fd5b6001600582015460ff1660048111156102ca576102ca610c29565b141580156102f157506002600582015460ff1660048111156102ee576102ee610c29565b14155b1561030f576040516310cec38560e21b815260040160405180910390fd5b5f816004015482600301546103249190610e64565b60058301805460ff1916600417905582546002840154919250610354916001600160a01b03918216911683610af6565b60405183907f3d2a04f53164bedf9a8a46353305d6b2d2261410406df3b41f99ce6489dc003c905f90a2505050565b335f9081526002602052604090205460ff166103b25760405163665b32d360e11b815260040160405180910390fd5b5f8181526020819052604090206002600582015460ff1660048111156103da576103da610c29565b1461030f576040516310cec38560e21b815260040160405180910390fd5b5f83815260208190526040902060018101546001600160a01b0316331461043257604051633832386960e11b815260040160405180910390fd5b60068101548310610456576040516302e845cd60e61b815260040160405180910390fd5b80600601838154811061046b5761046b610e7d565b5f91825260209091206002600490920201015460ff161561049f576040516331da482760e11b815260040160405180910390fd5b818160060184815481106104b5576104b5610e7d565b905f5260205f2090600402016003018190555082847f413e696d7135c3360353dfba23efa6275e5dc3de18a80e00d29949de0636ade6846040516104fb91815260200190565b60405180910390a350505050565b5f848314801561051857508415155b6105595760405162461bcd60e51b815260206004820152600d60248201526c1253959053125117d253941555609a1b60448201526064015b60405180910390fd5b5f5f5b868110156105925787878281811061057657610576610e7d565b90506020020135826105889190610e91565b915060010161055c565b506001600160a01b0388166105e4578034146105df5760405162461bcd60e51b815260206004820152600c60248201526b08aa890be9a92a69a82a886960a31b6044820152606401610550565b61065a565b6040516323b872dd60e01b8152336004820152306024820152604481018290526001600160a01b038916906323b872dd906064016020604051808303815f875af1158015610634573d5f5f3e3d5ffd5b505050506040513d601f19601f820116820180604052508101906106589190610ea4565b505b60018054905f61066983610ebf565b909155505f8181526020819052604090208054336001600160a01b03199182161782556001808301805483166001600160a01b038f811691909117909155600284018054909316908d161790915560038201849055600582018054939550919290919060ff191682800217905550426007820155600881018490555f5b8781101561080157816006016040518060a0016040528089898581811061070f5761070f610e7d565b90506020028101906107219190610ed7565b8080601f0160208091040260200160405190810160405280939291908181526020018383808284375f920191909152505050908252506020018b8b8581811061076c5761076c610e7d565b602090810292909201358352505f8282018190526040830181905260609092018290528354600181018555938252902081519192600402019081906107b19082610fb1565b5060208201516001808301919091556040830151600283018054606086015115156101000261ff00199315159390931661ffff1990911617919091179055608090920151600390910155016106e6565b50896001600160a01b0316336001600160a01b0316847f9405ad0a6208539879349284d71265479b1623846f70303da1f9890d6e8c10a78560405161084891815260200190565b60405180910390a45050979650505050505050565b5f81815260208190526040902080546001600160a01b03163314801590610891575060018101546001600160a01b03163314155b156108af57604051630836f21d60e21b815260040160405180910390fd5b60058101805460ff1916600217905560405182907f7e3d476b0ad3176eefadbd6672356ef3884fad75f1344623a88d4a8087842336905f90a25050565b335f9081526002602052604090205460ff1661091b5760405163665b32d360e11b815260040160405180910390fd5b5f8281526020819052604090206006810154821061094c576040516302e845cd60e61b815260040160405180910390fd5b80600601828154811061096157610961610e7d565b5f91825260209091206002600490920201015460ff1615610995576040516331da482760e11b815260040160405180910390fd5b60018160060183815481106109ac576109ac610e7d565b905f5260205f2090600402016002015f6101000a81548160ff02191690831515021790555060018160060183815481106109e8576109e8610e7d565b905f5260205f20906004020160020160016101000a81548160ff021916908315150217905550806006018281548110610a2357610a23610e7d565b905f5260205f20906004020160010154816004015f828254610a459190610e91565b909155505060018101546002820154600683018054610a92936001600160a01b039081169316919086908110610a7d57610a7d610e7d565b905f5260205f20906004020160010154610af6565b81837fd33fcd27cbfb73a2d9058c968b560ccb306500bf536133802048489ecc7355e9836006018581548110610aca57610aca610e7d565b905f5260205f20906004020160010154604051610ae991815260200190565b60405180910390a3505050565b6001600160a01b038216610b7a575f836001600160a01b0316826040515f6040518083038185875af1925050503d805f8114610b4d576040519150601f19603f3d011682016040523d82523d5f602084013e610b52565b606091505b5050905080610b74576040516312171d8360e31b815260040160405180910390fd5b50505050565b60405163a9059cbb60e01b81526001600160a01b038481166004830152602482018390525f919084169063a9059cbb906044016020604051808303815f875af1158015610bc9573d5f5f3e3d5ffd5b505050506040513d601f19601f82011682018060405250810190610bed9190610ea4565b905080610b74576040516312171d8360e31b815260040160405180910390fd5b505050565b5f60208284031215610c22575f5ffd5b5035919050565b634e487b7160e01b5f52602160045260245ffd5b6001600160a01b0389811682528881166020830152871660408201526060810186905260808101859052610100810160058510610c8857634e487b7160e01b5f52602160045260245ffd5b8460a08301528360c08301528260e08301529998505050505050505050565b80356001600160a01b0381168114610cbd575f5ffd5b919050565b8015158114610ccf575f5ffd5b50565b5f5f60408385031215610ce3575f5ffd5b610cec83610ca7565b91506020830135610cfc81610cc2565b809150509250929050565b5f5f5f60608486031215610d19575f5ffd5b505081359360208301359350604090920135919050565b5f5f83601f840112610d40575f5ffd5b50813567ffffffffffffffff811115610d57575f5ffd5b6020830191508360208260051b8501011115610d71575f5ffd5b9250929050565b5f5f5f5f5f5f5f60a0888a031215610d8e575f5ffd5b610d9788610ca7565b9650610da560208901610ca7565b9550604088013567ffffffffffffffff811115610dc0575f5ffd5b610dcc8a828b01610d30565b909650945050606088013567ffffffffffffffff811115610deb575f5ffd5b610df78a828b01610d30565b989b979a50959894979596608090950135949350505050565b5f60208284031215610e20575f5ffd5b610e2982610ca7565b9392505050565b5f5f60408385031215610e41575f5ffd5b50508035926020909101359150565b634e487b7160e01b5f52601160045260245ffd5b81810381811115610e7757610e77610e50565b92915050565b634e487b7160e01b5f52603260045260245ffd5b80820180821115610e7757610e77610e50565b5f60208284031215610eb4575f5ffd5b8151610e2981610cc2565b5f60018201610ed057610ed0610e50565b5060010190565b5f5f8335601e19843603018112610eec575f5ffd5b83018035915067ffffffffffffffff821115610f06575f5ffd5b602001915036819003821315610d71575f5ffd5b634e487b7160e01b5f52604160045260245ffd5b600181811c90821680610f4257607f821691505b602082108103610f6057634e487b7160e01b5f52602260045260245ffd5b50919050565b601f821115610c0d57805f5260205f20601f840160051c81016020851015610f8b5750805b601f840160051c820191505b81811015610faa575f8155600101610f97565b5050505050565b815167ffffffffffffffff811115610fcb57610fcb610f1a565b610fdf81610fd98454610f2e565b84610f66565b6020601f821160018114611011575f8315610ffa5750848201515b5f19600385901b1c1916600184901b178455610faa565b5f84815260208120601f198516915b828110156110405787850151825560209485019460019092019101611020565b508482101561105d57868401515f19600387901b60f8161c191681555b50505050600190811b0190555056fea2646970667358221220d010ad0d80a29223ffa7bb8a82afe055dbca56a52b5af20a942e187a1e4d4cf164736f6c634300081c0033",
  "linkReferences": {},
  "deployedLinkReferences": {},
  "immutableReferences": {},
  "inputSourceName": "project/contracts/core/EscrowMilestone.sol",
  "buildInfoId": "solc-0_8_28-8f360d4b0923a74c5307a762b2f1100d0880f425"
}