{
  "_format": "hh3-artifact-1",
  "contractName": "AIAgentRuleManager",
  "sourceName": "contracts/core/AIAgentRuleManager.sol",
  "abi": [
    {
      "inputs": [
        {
          "internalType": "address",
          "name": "_agentRegistry",
          "type": "address"
        },
        {
          "internalType": "address",
          "name": "_combinedRuleStorage",
          "type": "address"
        }
      ],
      "stateMutability": "nonpayable",
      "type": "constructor"
    },
    {
      "inputs": [],
      "name": "AlreadySubscribed",
      "type": "error"
    },
    {
      "inputs": [],
      "name": "InvalidPrice",
      "type": "error"
    },
    {
      "inputs": [],
      "name": "NoActiveSubscription",
      "type": "error"
    },
    {
      "inputs": [],
      "name": "NotAdmin",
      "type": "error"
    },
    {
      "inputs": [],
      "name": "NotAgentOwner",
      "type": "error"
    },
    {
      "inputs": [],
      "name": "NotRegisteredAgent",
      "type": "error"
    },
    {
      "inputs": [],
      "name": "RuleNotFound",
      "type": "error"
    },
    {
      "inputs": [],
      "name": "RuleNotOwnedByAgent",
      "type": "error"
    },
    {
      "inputs": [],
      "name": "SameAgent",
      "type": "error"
    },
    {
      "inputs": [],
      "name": "SubscriptionExpired",
      "type": "error"
    },
    {
      "inputs": [],
      "name": "TransferFailed",
      "type": "error"
    },
    {
      "anonymous": false,
      "inputs": [
        {
          "indexed": true,
          "internalType": "address",
          "name": "agent",
          "type": "address"
        },
        {
          "indexed": true,
          "internalType": "bytes32",
          "name": "ruleSetHash",
          "type": "bytes32"
        }
      ],
      "name": "AgentRuleSet",
      "type": "event"
    },
    {
      "anonymous": false,
      "inputs": [
        {
          "indexed": true,
          "internalType": "address",
          "name": "agent",
          "type": "address"
        }
      ],
      "name": "AgentRuleUnset",
      "type": "event"
    },
    {
      "anonymous": false,
      "inputs": [
        {
          "indexed": true,
          "internalType": "address",
          "name": "user",
          "type": "address"
        },
        {
          "indexed": true,
          "internalType": "address",
          "name": "agent",
          "type": "address"
        }
      ],
      "name": "PreferredAgentSet",
      "type": "event"
    },
    {
      "anonymous": false,
      "inputs": [
        {
          "indexed": true,
          "internalType": "address",
          "name": "user",
          "type": "address"
        },
        {
          "indexed": true,
          "internalType": "address",
          "name": "agent",
          "type": "address"
        },
        {
          "indexed": false,
          "internalType": "uint256",
          "name": "expiry",
          "type": "uint256"
        }
      ],
      "name": "Subscribed",
      "type": "event"
    },
    {
      "anonymous": false,
      "inputs": [
        {
          "indexed": false,
          "internalType": "uint256",
          "name": "newPrice",
          "type": "uint256"
        }
      ],
      "name": "SubscriptionPriceUpdated",
      "type": "event"
    },
    {
      "anonymous": false,
      "inputs": [
        {
          "indexed": true,
          "internalType": "address",
          "name": "user",
          "type": "address"
        },
        {
          "indexed": true,
          "internalType": "address",
          "name": "agent",
          "type": "address"
        }
      ],
      "name": "Unsubscribed",
      "type": "event"
    },
    {
      "inputs": [],
      "name": "SUB_DURATION",
      "outputs": [
        {
          "internalType": "uint256",
          "name": "",
          "type": "uint256"
        }
      ],
      "stateMutability": "view",
      "type": "function"
    },
    {
      "inputs": [],
      "name": "admin",
      "outputs": [
        {
          "internalType": "address",
          "name": "",
          "type": "address"
        }
      ],
      "stateMutability": "view",
      "type": "function"
    },
    {
      "inputs": [],
      "name": "agentRegistry",
      "outputs": [
        {
          "internalType": "contract AIAgentRegistry",
          "name": "",
          "type": "address"
        }
      ],
      "stateMutability": "view",
      "type": "function"
    },
    {
      "inputs": [
        {
          "internalType": "address",
          "name": "",
          "type": "address"
        }
      ],
      "name": "agentRules",
      "outputs": [
        {
          "internalType": "bytes32",
          "name": "ruleSetHash",
          "type": "bytes32"
        },
        {
          "internalType": "uint256",
          "name": "setAt",
          "type": "uint256"
        },
        {
          "internalType": "bool",
          "name": "active",
          "type": "bool"
        }
      ],
      "stateMutability": "view",
      "type": "function"
    },
    {
      "inputs": [],
      "name": "combinedRuleStorage",
      "outputs": [
        {
          "internalType": "contract CombinedRuleStorage",
          "name": "",
          "type": "address"
        }
      ],
      "stateMutability": "view",
      "type": "function"
    },
    {
      "inputs": [
        {
          "internalType": "address",
          "name": "agent",
          "type": "address"
        }
      ],
      "name": "getAgentRule",
      "outputs": [
        {
          "components": [
            {
              "internalType": "bytes32",
              "name": "ruleSetHash",
              "type": "bytes32"
            },
            {
              "internalType": "uint256",
              "name": "setAt",
              "type": "uint256"
            },
            {
              "internalType": "bool",
              "name": "active",
              "type": "bool"
            }
          ],
          "internalType": "struct AIAgentRuleManager.AgentRuleInfo",
          "name": "",
          "type": "tuple"
        }
      ],
      "stateMutability": "view",
      "type": "function"
    },
    {
      "inputs": [],
      "name": "getAgentsWithRules",
      "outputs": [
        {
          "internalType": "address[]",
          "name": "agents",
          "type": "address[]"
        },
        {
          "internalType": "bytes32[]",
          "name": "hashes",
          "type": "bytes32[]"
        }
      ],
      "stateMutability": "view",
      "type": "function"
    },
    {
      "inputs": [
        {
          "internalType": "address",
          "name": "user",
          "type": "address"
        }
      ],
      "name": "getEffectiveAgentRule",
      "outputs": [
        {
          "internalType": "bytes32",
          "name": "ruleSetHash",
          "type": "bytes32"
        },
        {
          "internalType": "address",
          "name": "agent",
          "type": "address"
        }
      ],
      "stateMutability": "view",
      "type": "function"
    },
    {
      "inputs": [
        {
          "internalType": "address",
          "name": "user",
          "type": "address"
        },
        {
          "internalType": "address",
          "name": "agent",
          "type": "address"
        }
      ],
      "name": "getSubscription",
      "outputs": [
        {
          "components": [
            {
              "internalType": "uint256",
              "name": "expiry",
              "type": "uint256"
            },
            {
              "internalType": "bool",
              "name": "active",
              "type": "bool"
            }
          ],
          "internalType": "struct AIAgentRuleManager.Subscription",
          "name": "",
          "type": "tuple"
        }
      ],
      "stateMutability": "view",
      "type": "function"
    },
    {
      "inputs": [
        {
          "internalType": "address",
          "name": "user",
          "type": "address"
        },
        {
          "internalType": "address",
          "name": "agent",
          "type": "address"
        }
      ],
      "name": "isSubscribed",
      "outputs": [
        {
          "internalType": "bool",
          "name": "",
          "type": "bool"
        }
      ],
      "stateMutability": "view",
      "type": "function"
    },
    {
      "inputs": [
        {
          "internalType": "address",
          "name": "",
          "type": "address"
        }
      ],
      "name": "preferredAgentOf",
      "outputs": [
        {
          "internalType": "address",
          "name": "",
          "type": "address"
        }
      ],
      "stateMutability": "view",
      "type": "function"
    },
    {
      "inputs": [
        {
          "internalType": "address",
          "name": "agentWallet",
          "type": "address"
        },
        {
          "internalType": "bytes32",
          "name": "ruleSetHash",
          "type": "bytes32"
        }
      ],
      "name": "setAgentCombinedRule",
      "outputs": [],
      "stateMutability": "nonpayable",
      "type": "function"
    },
    {
      "inputs": [
        {
          "internalType": "address",
          "name": "agent",
          "type": "address"
        }
      ],
      "name": "setPreferredAgent",
      "outputs": [],
      "stateMutability": "nonpayable",
      "type": "function"
    },
    {
      "inputs": [
        {
          "internalType": "uint256",
          "name": "newPrice",
          "type": "uint256"
        }
      ],
      "name": "setSubscriptionPrice",
      "outputs": [],
      "stateMutability": "nonpayable",
      "type": "function"
    },
    {
      "inputs": [
        {
          "internalType": "address",
          "name": "agent",
          "type": "address"
        }
      ],
      "name": "subscribeToAgent",
      "outputs": [],
      "stateMutability": "payable",
      "type": "function"
    },
    {
      "inputs": [
        {
          "internalType": "address",
          "name": "",
          "type": "address"
        }
      ],
      "name": "subscriberCount",
      "outputs": [
        {
          "internalType": "uint256",
          "name": "",
          "type": "uint256"
        }
      ],
      "stateMutability": "view",
      "type": "function"
    },
    {
      "inputs": [],
      "name": "subscriptionPrice",
      "outputs": [
        {
          "internalType": "uint256",
          "name": "",
          "type": "uint256"
        }
      ],
      "stateMutability": "view",
      "type": "function"
    },
    {
      "inputs": [
        {
          "internalType": "address",
          "name": "",
          "type": "address"
        },
        {
          "internalType": "address",
          "name": "",
          "type": "address"
        }
      ],
      "name": "subscriptions",
      "outputs": [
        {
          "internalType": "uint256",
          "name": "expiry",
          "type": "uint256"
        },
        {
          "internalType": "bool",
          "name": "active",
          "type": "bool"
        }
      ],
      "stateMutability": "view",
      "type": "function"
    },
    {
      "inputs": [
        {
          "internalType": "address",
          "name": "agentWallet",
          "type": "address"
        }
      ],
      "name": "unsetAgentCombinedRule",
      "outputs": [],
      "stateMutability": "nonpayable",
      "type": "function"
    },
    {
      "inputs": [
        {
          "internalType": "address",
          "name": "agent",
          "type": "address"
        }
      ],
      "name": "unsubscribeFromAgent",
      "outputs": [],
      "stateMutability": "nonpayable",
      "type": "function"
    },
    {
      "inputs": [],
      "name": "withdraw",
      "outputs": [],
      "stateMutability": "nonpayable",
      "type": "function"
    }
  ],
  "bytecode": "0x6080604052655af3107a40005f553480156017575f5ffd5b5060405161182a38038061182a833981016040819052603491608e565b600180546001600160a01b039384166001600160a01b031991821617909155600280549290931691811691909117909155600380549091163317905560ba565b80516001600160a01b03811681146089575f5ffd5b919050565b5f5f60408385031215609e575f5ffd5b60a5836074565b915060b1602084016074565b90509250929050565b611763806100c75f395ff3fe608060405260043610610126575f3560e01c806372fb95a9116100a8578063c9905c371161006d578063c9905c37146103b5578063cc5f193f146103f1578063d1ed294f14610434578063d2f2970714610456578063f6416ef61461046c578063f851a4401461049b575f5ffd5b806372fb95a9146102f6578063aabd48d114610315578063b929149c1461036f578063bdc8e54c14610382578063bdf4aeb414610396575f5ffd5b80633ccfd60b116100ee5780633ccfd60b146101e45780635b75dd8d146101f85780635cf04d82146102345780636207d31b1461026d5780636f802cd3146102c2575f5ffd5b80630423b5531461012a5780630b13283b1461014b5780630d1cfcae1461016a57806318822aad146101a65780631a5ee779146101c5575b5f5ffd5b348015610135575f5ffd5b50610149610144366004611273565b6104ba565b005b348015610156575f5ffd5b50610149610165366004611273565b6105ac565b348015610175575f5ffd5b50600154610189906001600160a01b031681565b6040516001600160a01b0390911681526020015b60405180910390f35b3480156101b1575f5ffd5b506101496101c0366004611295565b6106f1565b3480156101d0575f5ffd5b506101496101df3660046112bf565b61096a565b3480156101ef575f5ffd5b506101496109cf565b348015610203575f5ffd5b506102176102123660046112d6565b610a6e565b60408051825181526020928301511515928101929092520161019d565b34801561023f575f5ffd5b5061025f61024e366004611273565b60076020525f908152604090205481565b60405190815260200161019d565b348015610278575f5ffd5b506102ad6102873660046112d6565b600560209081525f92835260408084209091529082529020805460019091015460ff1682565b6040805192835290151560208301520161019d565b3480156102cd575f5ffd5b506101896102dc366004611273565b60066020525f90815260409020546001600160a01b031681565b348015610301575f5ffd5b50610149610310366004611273565b610ac1565b348015610320575f5ffd5b5061035261032f366004611273565b60046020525f908152604090208054600182015460029092015490919060ff1683565b60408051938452602084019290925215159082015260600161019d565b61014961037d366004611273565b610c0a565b34801561038d575f5ffd5b5061025f5f5481565b3480156103a1575f5ffd5b50600254610189906001600160a01b031681565b3480156103c0575f5ffd5b506103d46103cf366004611273565b610e36565b604080519283526001600160a01b0390911660208301520161019d565b3480156103fc575f5ffd5b5061041061040b366004611273565b610ee4565b6040805182518152602080840151908201529181015115159082015260600161019d565b34801561043f575f5ffd5b50610448610f4d565b60405161019d92919061130d565b348015610461575f5ffd5b5061025f62278d0081565b348015610477575f5ffd5b5061048b6104863660046112d6565b61121d565b604051901515815260200161019d565b3480156104a6575f5ffd5b50600354610189906001600160a01b031681565b335f9081526005602090815260408083206001600160a01b03851684529091529020600181015460ff1661050157604051635eb2472560e01b815260040160405180910390fd5b60018101805460ff191690556001600160a01b0382165f908152600760205260408120805491610530836113aa565b9091555050335f908152600660205260409020546001600160a01b0380841691160361057357335f90815260066020526040902080546001600160a01b03191690555b6040516001600160a01b0383169033907f7773c30acd0762ed6b4b92a9aa2c6b3c074e29ad93b334cbed8ba807c596f13a905f90a35050565b6001600160a01b0381161561069b57335f9081526005602090815260408083206001600160a01b03851684529091529020600181015460ff1615806105f2575080544210155b156106105760405163893dcecf60e01b815260040160405180910390fd5b60015460405163c3c5a54760e01b81526001600160a01b0384811660048301529091169063c3c5a54790602401602060405180830381865afa158015610658573d5f5f3e3d5ffd5b505050506040513d601f19601f8201168201806040525081019061067c91906113d3565b61069957604051637b5b95df60e11b815260040160405180910390fd5b505b335f8181526006602052604080822080546001600160a01b0319166001600160a01b03861690811790915590519092917f62fac77086b012f7651da6c679ee34dc66a86cda0555f4ceb24f5f12a111004a91a350565b600154604051633ee1a68b60e21b81526001600160a01b0384811660048301525f92839283929091169063fb869a2c906024015f60405180830381865afa15801561073e573d5f5f3e3d5ffd5b505050506040513d5f823e601f3d908101601f1916820160405261076591908101906114d1565b97505050505050925092505f6001600160a01b0316836001600160a01b0316148061078e575080155b156107ac57604051637b5b95df60e11b815260040160405180910390fd5b336001600160a01b038616148015906107ce5750336001600160a01b03831614155b156107ec57604051630e41dcbf60e21b815260040160405180910390fd5b8361080a57604051631aa501d160e21b815260040160405180910390fd5b60025460405163075bbcc560e11b8152600481018690526001600160a01b0390911690630eb7798a906024015f60405180830381865afa92505050801561087257506040513d5f823e601f3d908101601f1916820160405261086f91908101906115be565b60015b61088f57604051631aa501d160e21b815260040160405180910390fd5b876001600160a01b0316836001600160a01b0316141580156108c35750846001600160a01b0316836001600160a01b031614155b156108e15760405163042628e960e11b815260040160405180910390fd5b50506040805160608101825286815242602080830191825260018385018181526001600160a01b038c165f818152600490945286842095518655935191850191909155516002909301805460ff19169315159390931790925591518793507f3dc20edbc5c6113a288c6e8777fec805868e0009390e950ba32246803c2c87d89190a35050505050565b6003546001600160a01b0316331461099557604051637bfa4b9f60e01b815260040160405180910390fd5b5f8190556040518181527f0d9810b5b5c21d58bf08bae7abbe92228efe90dc7ff94e38f1c6a32c6f4719a39060200160405180910390a150565b6003546001600160a01b031633146109fa57604051637bfa4b9f60e01b815260040160405180910390fd5b6003546040515f916001600160a01b03169047908381818185875af1925050503d805f8114610a44576040519150601f19603f3d011682016040523d82523d5f602084013e610a49565b606091505b5050905080610a6b576040516312171d8360e31b815260040160405180910390fd5b50565b6040805180820182525f80825260209182018190526001600160a01b03858116825260058352838220908516825282528290208251808401909352805483526001015460ff161515908201525b92915050565b600154604051633ee1a68b60e21b81526001600160a01b0383811660048301525f92839283929091169063fb869a2c906024015f60405180830381865afa158015610b0e573d5f5f3e3d5ffd5b505050506040513d5f823e601f3d908101601f19168201604052610b3591908101906114d1565b97505050505050925092505f6001600160a01b0316836001600160a01b03161480610b5e575080155b15610b7c57604051637b5b95df60e11b815260040160405180910390fd5b336001600160a01b03851614801590610b9e5750336001600160a01b03831614155b15610bbc57604051630e41dcbf60e21b815260040160405180910390fd5b6001600160a01b0384165f81815260046020526040808220600201805460ff19169055517fcf7cdc07bbb9cbe41adacebcc2c125ee91cdd740d5e96895e05918bb1b999a8a9190a250505050565b60015460405163c3c5a54760e01b81526001600160a01b0383811660048301529091169063c3c5a54790602401602060405180830381865afa158015610c52573d5f5f3e3d5ffd5b505050506040513d601f19601f82011682018060405250810190610c7691906113d3565b610c9357604051637b5b95df60e11b815260040160405180910390fd5b336001600160a01b03821603610cbc576040516304971f1f60e31b815260040160405180910390fd5b5f54341015610cdd5760405162bfc92160e01b815260040160405180910390fd5b335f9081526005602090815260408083206001600160a01b03851684529091529020600181015460ff168015610d135750805442105b15610d385762278d00815f015f828254610d2d91906116bc565b90915550610d809050565b610d4562278d00426116bc565b81556001808201805460ff191690911790556001600160a01b0382165f908152600760205260408120805491610d7a836116cf565b91905055505b335f908152600660205260409020546001600160a01b0316610df057335f8181526006602052604080822080546001600160a01b0319166001600160a01b03871690811790915590519092917f62fac77086b012f7651da6c679ee34dc66a86cda0555f4ceb24f5f12a111004a91a35b80546040519081526001600160a01b0383169033907f1299b0ad0a8e7c2403716ae6507195ba96bd8cac7f49d8c129e18f9ae51374f09060200160405180910390a35050565b6001600160a01b038082165f9081526006602052604081205490911680610e6157505f928392509050565b6001600160a01b038084165f908152600560209081526040808320938516835292905220600181015460ff161580610e9a575080544210155b15610eaa57505f93849350915050565b6001600160a01b0382165f908152600460205260409020600281015460ff16610ed957505f9485945092505050565b549491935090915050565b610f0760405180606001604052805f81526020015f81526020015f151581525090565b506001600160a01b03165f908152600460209081526040918290208251606081018452815481526001820154928101929092526002015460ff1615159181019190915290565b6060805f60015f9054906101000a90046001600160a01b03166001600160a01b03166391cab63e6040518163ffffffff1660e01b8152600401602060405180830381865afa158015610fa1573d5f5f3e3d5ffd5b505050506040513d601f19601f82011682018060405250810190610fc591906116e7565b90505f805b8281101561107a57600154604051632f80c54f60e01b8152600481018390525f916001600160a01b031690632f80c54f90602401602060405180830381865afa158015611019573d5f5f3e3d5ffd5b505050506040513d601f19601f8201168201806040525081019061103d91906116fe565b6001600160a01b0381165f9081526004602052604090206002015490915060ff1615611071578261106d816116cf565b9350505b50600101610fca565b508067ffffffffffffffff811115611094576110946113f7565b6040519080825280602002602001820160405280156110bd578160200160208202803683370190505b5093508067ffffffffffffffff8111156110d9576110d96113f7565b604051908082528060200260200182016040528015611102578160200160208202803683370190505b5092505f805b8381101561121557600154604051632f80c54f60e01b8152600481018390525f916001600160a01b031690632f80c54f90602401602060405180830381865afa158015611157573d5f5f3e3d5ffd5b505050506040513d601f19601f8201168201806040525081019061117b91906116fe565b6001600160a01b0381165f9081526004602052604090206002015490915060ff161561120c57808784815181106111b4576111b4611719565b6001600160a01b039283166020918202929092018101919091529082165f9081526004909152604090205486518790859081106111f3576111f3611719565b602090810291909101015282611208816116cf565b9350505b50600101611108565b505050509091565b6001600160a01b038083165f9081526005602090815260408083209385168352929052908120600181015460ff1680156112575750805442105b949350505050565b6001600160a01b0381168114610a6b575f5ffd5b5f60208284031215611283575f5ffd5b813561128e8161125f565b9392505050565b5f5f604083850312156112a6575f5ffd5b82356112b18161125f565b946020939093013593505050565b5f602082840312156112cf575f5ffd5b5035919050565b5f5f604083850312156112e7575f5ffd5b82356112f28161125f565b915060208301356113028161125f565b809150509250929050565b604080825283519082018190525f9060208501906060840190835b8181101561134f5783516001600160a01b0316835260209384019390920191600101611328565b5050838103602080860191909152855180835291810192508501905f5b8181101561138a57825184526020938401939092019160010161136c565b50919695505050505050565b634e487b7160e01b5f52601160045260245ffd5b5f816113b8576113b8611396565b505f190190565b805180151581146113ce575f5ffd5b919050565b5f602082840312156113e3575f5ffd5b61128e826113bf565b80516113ce8161125f565b634e487b7160e01b5f52604160045260245ffd5b6040805190810167ffffffffffffffff8111828210171561142e5761142e6113f7565b60405290565b604051601f8201601f1916810167ffffffffffffffff8111828210171561145d5761145d6113f7565b604052919050565b5f82601f830112611474575f5ffd5b815167ffffffffffffffff81111561148e5761148e6113f7565b6114a1601f8201601f1916602001611434565b8181528460208386010111156114b5575f5ffd5b8160208501602083015e5f918101602001919091529392505050565b5f5f5f5f5f5f5f5f610100898b0312156114e9575f5ffd5b6114f2896113ec565b975061150060208a016113ec565b9650604089015167ffffffffffffffff81111561151b575f5ffd5b6115278b828c01611465565b60608b015160808c01519198509650905067ffffffffffffffff81111561154c575f5ffd5b6115588b828c01611465565b94505060a089015167ffffffffffffffff811115611574575f5ffd5b6115808b828c01611465565b60c08b01519094509250611598905060e08a016113bf565b90509295985092959890939650565b805167ffffffffffffffff811681146113ce575f5ffd5b5f5f5f606084860312156115d0575f5ffd5b83516115db8161125f565b602085015190935067ffffffffffffffff8111156115f7575f5ffd5b8401601f81018613611607575f5ffd5b805167ffffffffffffffff811115611621576116216113f7565b61163060208260051b01611434565b8082825260208201915060208360061b850101925088831115611651575f5ffd5b6020840193505b828410156116a1576040848a03121561166f575f5ffd5b61167761140b565b84516116828161125f565b8152602085810151818301529083526040909401939190910190611658565b94506116b392505050604085016115a7565b90509250925092565b80820180821115610abb57610abb611396565b5f600182016116e0576116e0611396565b5060010190565b5f602082840312156116f7575f5ffd5b5051919050565b5f6020828403121561170e575f5ffd5b815161128e8161125f565b634e487b7160e01b5f52603260045260245ffdfea26469706673582212200cf10e394ac9d33890c754bb406ea37f544f78b5d949acf8d90bb588a265123c64736f6c634300081c0033",
  "linkReferences": {},
  "deployedLinkReferences": {},
  "immutableReferences": {},
  "inputSourceName": "project/contracts/core/AIAgentRuleManager.sol",
  "buildInfoId": "solc-0_8_28-4bea2ed18cca3e9936c23d5d10eb95c7d3d95aad"
}