{
  "_format": "hh3-artifact-1",
  "contractName": "RuleItemERC721",
  "sourceName": "contracts/core/RuleItemERC721.sol",
  "abi": [
    {
      "inputs": [
        {
          "internalType": "string",
          "name": "name",
          "type": "string"
        },
        {
          "internalType": "string",
          "name": "symbol",
          "type": "string"
        }
      ],
      "stateMutability": "nonpayable",
      "type": "constructor"
    },
    {
      "inputs": [],
      "name": "AccessControlBadConfirmation",
      "type": "error"
    },
    {
      "inputs": [
        {
          "internalType": "address",
          "name": "account",
          "type": "address"
        },
        {
          "internalType": "bytes32",
          "name": "neededRole",
          "type": "bytes32"
        }
      ],
      "name": "AccessControlUnauthorizedAccount",
      "type": "error"
    },
    {
      "inputs": [],
      "name": "AlreadyInitialized",
      "type": "error"
    },
    {
      "inputs": [
        {
          "internalType": "address",
          "name": "sender",
          "type": "address"
        },
        {
          "internalType": "uint256",
          "name": "tokenId",
          "type": "uint256"
        },
        {
          "internalType": "address",
          "name": "owner",
          "type": "address"
        }
      ],
      "name": "ERC721IncorrectOwner",
      "type": "error"
    },
    {
      "inputs": [
        {
          "internalType": "address",
          "name": "operator",
          "type": "address"
        },
        {
          "internalType": "uint256",
          "name": "tokenId",
          "type": "uint256"
        }
      ],
      "name": "ERC721InsufficientApproval",
      "type": "error"
    },
    {
      "inputs": [
        {
          "internalType": "address",
          "name": "approver",
          "type": "address"
        }
      ],
      "name": "ERC721InvalidApprover",
      "type": "error"
    },
    {
      "inputs": [
        {
          "internalType": "address",
          "name": "operator",
          "type": "address"
        }
      ],
      "name": "ERC721InvalidOperator",
      "type": "error"
    },
    {
      "inputs": [
        {
          "internalType": "address",
          "name": "owner",
          "type": "address"
        }
      ],
      "name": "ERC721InvalidOwner",
      "type": "error"
    },
    {
      "inputs": [
        {
          "internalType": "address",
          "name": "receiver",
          "type": "address"
        }
      ],
      "name": "ERC721InvalidReceiver",
      "type": "error"
    },
    {
      "inputs": [
        {
          "internalType": "address",
          "name": "sender",
          "type": "address"
        }
      ],
      "name": "ERC721InvalidSender",
      "type": "error"
    },
    {
      "inputs": [
        {
          "internalType": "uint256",
          "name": "tokenId",
          "type": "uint256"
        }
      ],
      "name": "ERC721NonexistentToken",
      "type": "error"
    },
    {
      "inputs": [],
      "name": "EnforcedPause",
      "type": "error"
    },
    {
      "inputs": [],
      "name": "ExpectedPause",
      "type": "error"
    },
    {
      "inputs": [],
      "name": "ZeroAddress",
      "type": "error"
    },
    {
      "anonymous": false,
      "inputs": [
        {
          "indexed": true,
          "internalType": "address",
          "name": "owner",
          "type": "address"
        },
        {
          "indexed": true,
          "internalType": "address",
          "name": "approved",
          "type": "address"
        },
        {
          "indexed": true,
          "internalType": "uint256",
          "name": "tokenId",
          "type": "uint256"
        }
      ],
      "name": "Approval",
      "type": "event"
    },
    {
      "anonymous": false,
      "inputs": [
        {
          "indexed": true,
          "internalType": "address",
          "name": "owner",
          "type": "address"
        },
        {
          "indexed": true,
          "internalType": "address",
          "name": "operator",
          "type": "address"
        },
        {
          "indexed": false,
          "internalType": "bool",
          "name": "approved",
          "type": "bool"
        }
      ],
      "name": "ApprovalForAll",
      "type": "event"
    },
    {
      "anonymous": false,
      "inputs": [
        {
          "indexed": false,
          "internalType": "uint256",
          "name": "_fromTokenId",
          "type": "uint256"
        },
        {
          "indexed": false,
          "internalType": "uint256",
          "name": "_toTokenId",
          "type": "uint256"
        }
      ],
      "name": "BatchMetadataUpdate",
      "type": "event"
    },
    {
      "anonymous": false,
      "inputs": [
        {
          "indexed": true,
          "internalType": "address",
          "name": "admin",
          "type": "address"
        },
        {
          "indexed": true,
          "internalType": "address",
          "name": "oracle",
          "type": "address"
        }
      ],
      "name": "Initialized",
      "type": "event"
    },
    {
      "anonymous": false,
      "inputs": [
        {
          "indexed": false,
          "internalType": "uint256",
          "name": "_tokenId",
          "type": "uint256"
        }
      ],
      "name": "MetadataUpdate",
      "type": "event"
    },
    {
      "anonymous": false,
      "inputs": [
        {
          "indexed": true,
          "internalType": "address",
          "name": "oldFeed",
          "type": "address"
        },
        {
          "indexed": true,
          "internalType": "address",
          "name": "newFeed",
          "type": "address"
        }
      ],
      "name": "OracleUpdated",
      "type": "event"
    },
    {
      "anonymous": false,
      "inputs": [
        {
          "indexed": false,
          "internalType": "address",
          "name": "account",
          "type": "address"
        }
      ],
      "name": "Paused",
      "type": "event"
    },
    {
      "anonymous": false,
      "inputs": [
        {
          "indexed": true,
          "internalType": "bytes32",
          "name": "role",
          "type": "bytes32"
        },
        {
          "indexed": true,
          "internalType": "bytes32",
          "name": "previousAdminRole",
          "type": "bytes32"
        },
        {
          "indexed": true,
          "internalType": "bytes32",
          "name": "newAdminRole",
          "type": "bytes32"
        }
      ],
      "name": "RoleAdminChanged",
      "type": "event"
    },
    {
      "anonymous": false,
      "inputs": [
        {
          "indexed": true,
          "internalType": "bytes32",
          "name": "role",
          "type": "bytes32"
        },
        {
          "indexed": true,
          "internalType": "address",
          "name": "account",
          "type": "address"
        },
        {
          "indexed": true,
          "internalType": "address",
          "name": "sender",
          "type": "address"
        }
      ],
      "name": "RoleGranted",
      "type": "event"
    },
    {
      "anonymous": false,
      "inputs": [
        {
          "indexed": true,
          "internalType": "bytes32",
          "name": "role",
          "type": "bytes32"
        },
        {
          "indexed": true,
          "internalType": "address",
          "name": "account",
          "type": "address"
        },
        {
          "indexed": true,
          "internalType": "address",
          "name": "sender",
          "type": "address"
        }
      ],
      "name": "RoleRevoked",
      "type": "event"
    },
    {
      "anonymous": false,
      "inputs": [
        {
          "indexed": true,
          "internalType": "uint256",
          "name": "ruleId",
          "type": "uint256"
        },
        {
          "indexed": true,
          "internalType": "uint256",
          "name": "tokenId",
          "type": "uint256"
        }
      ],
      "name": "RuleActivated",
      "type": "event"
    },
    {
      "anonymous": false,
      "inputs": [
        {
          "indexed": true,
          "internalType": "uint256",
          "name": "ruleId",
          "type": "uint256"
        },
        {
          "indexed": true,
          "internalType": "uint256",
          "name": "rootRuleId",
          "type": "uint256"
        },
        {
          "indexed": true,
          "internalType": "uint256",
          "name": "parentRuleId",
          "type": "uint256"
        },
        {
          "indexed": false,
          "internalType": "uint16",
          "name": "version",
          "type": "uint16"
        }
      ],
      "name": "RuleCreated",
      "type": "event"
    },
    {
      "anonymous": false,
      "inputs": [
        {
          "indexed": true,
          "internalType": "uint256",
          "name": "ruleId",
          "type": "uint256"
        }
      ],
      "name": "RuleDeprecated",
      "type": "event"
    },
    {
      "anonymous": false,
      "inputs": [
        {
          "indexed": true,
          "internalType": "uint256",
          "name": "tokenId",
          "type": "uint256"
        },
        {
          "indexed": false,
          "internalType": "uint256",
          "name": "newExpiry",
          "type": "uint256"
        }
      ],
      "name": "RuleExpiryExtended",
      "type": "event"
    },
    {
      "anonymous": false,
      "inputs": [
        {
          "indexed": true,
          "internalType": "address",
          "name": "user",
          "type": "address"
        },
        {
          "indexed": false,
          "internalType": "uint256",
          "name": "expiry",
          "type": "uint256"
        }
      ],
      "name": "Subscribed",
      "type": "event"
    },
    {
      "anonymous": false,
      "inputs": [
        {
          "indexed": false,
          "internalType": "uint256",
          "name": "newCents",
          "type": "uint256"
        }
      ],
      "name": "SubscriptionUsdCentsUpdated",
      "type": "event"
    },
    {
      "anonymous": false,
      "inputs": [
        {
          "indexed": true,
          "internalType": "address",
          "name": "from",
          "type": "address"
        },
        {
          "indexed": true,
          "internalType": "address",
          "name": "to",
          "type": "address"
        },
        {
          "indexed": true,
          "internalType": "uint256",
          "name": "tokenId",
          "type": "uint256"
        }
      ],
      "name": "Transfer",
      "type": "event"
    },
    {
      "anonymous": false,
      "inputs": [
        {
          "indexed": true,
          "internalType": "address",
          "name": "to",
          "type": "address"
        },
        {
          "indexed": false,
          "internalType": "uint256",
          "name": "amount",
          "type": "uint256"
        }
      ],
      "name": "TreasuryWithdrawn",
      "type": "event"
    },
    {
      "anonymous": false,
      "inputs": [
        {
          "indexed": false,
          "internalType": "address",
          "name": "account",
          "type": "address"
        }
      ],
      "name": "Unpaused",
      "type": "event"
    },
    {
      "inputs": [],
      "name": "DEFAULT_ADMIN_ROLE",
      "outputs": [
        {
          "internalType": "bytes32",
          "name": "",
          "type": "bytes32"
        }
      ],
      "stateMutability": "view",
      "type": "function"
    },
    {
      "inputs": [],
      "name": "MAX_SLOT",
      "outputs": [
        {
          "internalType": "uint8",
          "name": "",
          "type": "uint8"
        }
      ],
      "stateMutability": "view",
      "type": "function"
    },
    {
      "inputs": [],
      "name": "SUB_DURATION",
      "outputs": [
        {
          "internalType": "uint256",
          "name": "",
          "type": "uint256"
        }
      ],
      "stateMutability": "view",
      "type": "function"
    },
    {
      "inputs": [
        {
          "internalType": "uint256",
          "name": "ruleId",
          "type": "uint256"
        }
      ],
      "name": "activateRule",
      "outputs": [
        {
          "internalType": "uint256",
          "name": "tokenId",
          "type": "uint256"
        }
      ],
      "stateMutability": "nonpayable",
      "type": "function"
    },
    {
      "inputs": [
        {
          "internalType": "uint256",
          "name": "",
          "type": "uint256"
        }
      ],
      "name": "activeRuleOf",
      "outputs": [
        {
          "internalType": "uint256",
          "name": "",
          "type": "uint256"
        }
      ],
      "stateMutability": "view",
      "type": "function"
    },
    {
      "inputs": [
        {
          "internalType": "address",
          "name": "to",
          "type": "address"
        },
        {
          "internalType": "uint256",
          "name": "tokenId",
          "type": "uint256"
        }
      ],
      "name": "approve",
      "outputs": [],
      "stateMutability": "nonpayable",
      "type": "function"
    },
    {
      "inputs": [
        {
          "internalType": "address",
          "name": "owner",
          "type": "address"
        }
      ],
      "name": "balanceOf",
      "outputs": [
        {
          "internalType": "uint256",
          "name": "",
          "type": "uint256"
        }
      ],
      "stateMutability": "view",
      "type": "function"
    },
    {
      "inputs": [
        {
          "internalType": "uint256",
          "name": "tokenId",
          "type": "uint256"
        }
      ],
      "name": "burnExpired",
      "outputs": [],
      "stateMutability": "nonpayable",
      "type": "function"
    },
    {
      "inputs": [
        {
          "internalType": "bytes32",
          "name": "ruleHash",
          "type": "bytes32"
        },
        {
          "internalType": "string",
          "name": "uri",
          "type": "string"
        }
      ],
      "name": "createRule",
      "outputs": [
        {
          "internalType": "uint256",
          "name": "ruleId",
          "type": "uint256"
        }
      ],
      "stateMutability": "nonpayable",
      "type": "function"
    },
    {
      "inputs": [
        {
          "internalType": "uint256",
          "name": "parentRuleId",
          "type": "uint256"
        },
        {
          "internalType": "bytes32",
          "name": "newHash",
          "type": "bytes32"
        },
        {
          "internalType": "string",
          "name": "newUri",
          "type": "string"
        }
      ],
      "name": "createRuleVersion",
      "outputs": [
        {
          "internalType": "uint256",
          "name": "ruleId",
          "type": "uint256"
        }
      ],
      "stateMutability": "nonpayable",
      "type": "function"
    },
    {
      "inputs": [],
      "name": "deployer",
      "outputs": [
        {
          "internalType": "address",
          "name": "",
          "type": "address"
        }
      ],
      "stateMutability": "view",
      "type": "function"
    },
    {
      "inputs": [],
      "name": "ethUsdFeed",
      "outputs": [
        {
          "internalType": "contract IAggregatorV3",
          "name": "",
          "type": "address"
        }
      ],
      "stateMutability": "view",
      "type": "function"
    },
    {
      "inputs": [
        {
          "internalType": "uint256",
          "name": "tokenId",
          "type": "uint256"
        },
        {
          "internalType": "uint256",
          "name": "newExpiry",
          "type": "uint256"
        }
      ],
      "name": "extendRuleExpiry",
      "outputs": [],
      "stateMutability": "payable",
      "type": "function"
    },
    {
      "inputs": [
        {
          "internalType": "uint256",
          "name": "tokenId",
          "type": "uint256"
        }
      ],
      "name": "getApproved",
      "outputs": [
        {
          "internalType": "address",
          "name": "",
          "type": "address"
        }
      ],
      "stateMutability": "view",
      "type": "function"
    },
    {
      "inputs": [
        {
          "internalType": "bytes32",
          "name": "role",
          "type": "bytes32"
        }
      ],
      "name": "getRoleAdmin",
      "outputs": [
        {
          "internalType": "bytes32",
          "name": "",
          "type": "bytes32"
        }
      ],
      "stateMutability": "view",
      "type": "function"
    },
    {
      "inputs": [
        {
          "internalType": "uint256",
          "name": "ruleId",
          "type": "uint256"
        }
      ],
      "name": "getRule",
      "outputs": [
        {
          "internalType": "bytes32",
          "name": "hash",
          "type": "bytes32"
        },
        {
          "internalType": "string",
          "name": "uri",
          "type": "string"
        },
        {
          "internalType": "address",
          "name": "creator",
          "type": "address"
        },
        {
          "internalType": "uint256",
          "name": "rootRuleId",
          "type": "uint256"
        },
        {
          "internalType": "uint16",
          "name": "version",
          "type": "uint16"
        },
        {
          "internalType": "bool",
          "name": "deprecated",
          "type": "bool"
        },
        {
          "internalType": "bool",
          "name": "active",
          "type": "bool"
        }
      ],
      "stateMutability": "view",
      "type": "function"
    },
    {
      "inputs": [
        {
          "internalType": "bytes32",
          "name": "role",
          "type": "bytes32"
        },
        {
          "internalType": "address",
          "name": "account",
          "type": "address"
        }
      ],
      "name": "grantRole",
      "outputs": [],
      "stateMutability": "nonpayable",
      "type": "function"
    },
    {
      "inputs": [
        {
          "internalType": "bytes32",
          "name": "role",
          "type": "bytes32"
        },
        {
          "internalType": "address",
          "name": "account",
          "type": "address"
        }
      ],
      "name": "hasRole",
      "outputs": [
        {
          "internalType": "bool",
          "name": "",
          "type": "bool"
        }
      ],
      "stateMutability": "view",
      "type": "function"
    },
    {
      "inputs": [
        {
          "internalType": "address",
          "name": "user",
          "type": "address"
        }
      ],
      "name": "hasSubscription",
      "outputs": [
        {
          "internalType": "bool",
          "name": "",
          "type": "bool"
        }
      ],
      "stateMutability": "view",
      "type": "function"
    },
    {
      "inputs": [
        {
          "internalType": "address",
          "name": "admin",
          "type": "address"
        },
        {
          "internalType": "address",
          "name": "oracle",
          "type": "address"
        }
      ],
      "name": "initialize",
      "outputs": [],
      "stateMutability": "nonpayable",
      "type": "function"
    },
    {
      "inputs": [
        {
          "internalType": "address",
          "name": "owner",
          "type": "address"
        },
        {
          "internalType": "address",
          "name": "operator",
          "type": "address"
        }
      ],
      "name": "isApprovedForAll",
      "outputs": [
        {
          "internalType": "bool",
          "name": "",
          "type": "bool"
        }
      ],
      "stateMutability": "view",
      "type": "function"
    },
    {
      "inputs": [],
      "name": "isInitialized",
      "outputs": [
        {
          "internalType": "bool",
          "name": "",
          "type": "bool"
        }
      ],
      "stateMutability": "view",
      "type": "function"
    },
    {
      "inputs": [
        {
          "internalType": "address",
          "name": "",
          "type": "address"
        }
      ],
      "name": "logicalRuleCount",
      "outputs": [
        {
          "internalType": "uint8",
          "name": "",
          "type": "uint8"
        }
      ],
      "stateMutability": "view",
      "type": "function"
    },
    {
      "inputs": [],
      "name": "name",
      "outputs": [
        {
          "internalType": "string",
          "name": "",
          "type": "string"
        }
      ],
      "stateMutability": "view",
      "type": "function"
    },
    {
      "inputs": [],
      "name": "nextRuleId",
      "outputs": [
        {
          "internalType": "uint256",
          "name": "",
          "type": "uint256"
        }
      ],
      "stateMutability": "view",
      "type": "function"
    },
    {
      "inputs": [],
      "name": "nextTokenId",
      "outputs": [
        {
          "internalType": "uint256",
          "name": "",
          "type": "uint256"
        }
      ],
      "stateMutability": "view",
      "type": "function"
    },
    {
      "inputs": [
        {
          "internalType": "uint256",
          "name": "tokenId",
          "type": "uint256"
        }
      ],
      "name": "ownerOf",
      "outputs": [
        {
          "internalType": "address",
          "name": "",
          "type": "address"
        }
      ],
      "stateMutability": "view",
      "type": "function"
    },
    {
      "inputs": [],
      "name": "pause",
      "outputs": [],
      "stateMutability": "nonpayable",
      "type": "function"
    },
    {
      "inputs": [],
      "name": "paused",
      "outputs": [
        {
          "internalType": "bool",
          "name": "",
          "type": "bool"
        }
      ],
      "stateMutability": "view",
      "type": "function"
    },
    {
      "inputs": [
        {
          "internalType": "bytes32",
          "name": "role",
          "type": "bytes32"
        },
        {
          "internalType": "address",
          "name": "callerConfirmation",
          "type": "address"
        }
      ],
      "name": "renounceRole",
      "outputs": [],
      "stateMutability": "nonpayable",
      "type": "function"
    },
    {
      "inputs": [
        {
          "internalType": "bytes32",
          "name": "role",
          "type": "bytes32"
        },
        {
          "internalType": "address",
          "name": "account",
          "type": "address"
        }
      ],
      "name": "revokeRole",
      "outputs": [],
      "stateMutability": "nonpayable",
      "type": "function"
    },
    {
      "inputs": [
        {
          "internalType": "uint256",
          "name": "",
          "type": "uint256"
        }
      ],
      "name": "rootRuleOf",
      "outputs": [
        {
          "internalType": "uint256",
          "name": "",
          "type": "uint256"
        }
      ],
      "stateMutability": "view",
      "type": "function"
    },
    {
      "inputs": [
        {
          "internalType": "uint256",
          "name": "",
          "type": "uint256"
        }
      ],
      "name": "ruleExpiry",
      "outputs": [
        {
          "internalType": "uint256",
          "name": "",
          "type": "uint256"
        }
      ],
      "stateMutability": "view",
      "type": "function"
    },
    {
      "inputs": [
        {
          "internalType": "uint256",
          "name": "",
          "type": "uint256"
        }
      ],
      "name": "ruleTokenId",
      "outputs": [
        {
          "internalType": "uint256",
          "name": "",
          "type": "uint256"
        }
      ],
      "stateMutability": "view",
      "type": "function"
    },
    {
      "inputs": [
        {
          "internalType": "uint256",
          "name": "",
          "type": "uint256"
        }
      ],
      "name": "rules",
      "outputs": [
        {
          "internalType": "bytes32",
          "name": "ruleHash",
          "type": "bytes32"
        },
        {
          "internalType": "string",
          "name": "uri",
          "type": "string"
        },
        {
          "internalType": "address",
          "name": "creator",
          "type": "address"
        },
        {
          "internalType": "uint256",
          "name": "parentRuleId",
          "type": "uint256"
        },
        {
          "internalType": "uint16",
          "name": "version",
          "type": "uint16"
        },
        {
          "internalType": "bool",
          "name": "deprecated",
          "type": "bool"
        },
        {
          "internalType": "uint256",
          "name": "tokenId",
          "type": "uint256"
        }
      ],
      "stateMutability": "view",
      "type": "function"
    },
    {
      "inputs": [
        {
          "internalType": "address",
          "name": "from",
          "type": "address"
        },
        {
          "internalType": "address",
          "name": "to",
          "type": "address"
        },
        {
          "internalType": "uint256",
          "name": "tokenId",
          "type": "uint256"
        }
      ],
      "name": "safeTransferFrom",
      "outputs": [],
      "stateMutability": "nonpayable",
      "type": "function"
    },
    {
      "inputs": [
        {
          "internalType": "address",
          "name": "from",
          "type": "address"
        },
        {
          "internalType": "address",
          "name": "to",
          "type": "address"
        },
        {
          "internalType": "uint256",
          "name": "tokenId",
          "type": "uint256"
        },
        {
          "internalType": "bytes",
          "name": "data",
          "type": "bytes"
        }
      ],
      "name": "safeTransferFrom",
      "outputs": [],
      "stateMutability": "nonpayable",
      "type": "function"
    },
    {
      "inputs": [
        {
          "internalType": "address",
          "name": "operator",
          "type": "address"
        },
        {
          "internalType": "bool",
          "name": "approved",
          "type": "bool"
        }
      ],
      "name": "setApprovalForAll",
      "outputs": [],
      "stateMutability": "nonpayable",
      "type": "function"
    },
    {
      "inputs": [
        {
          "internalType": "address",
          "name": "newFeed",
          "type": "address"
        }
      ],
      "name": "setOracle",
      "outputs": [],
      "stateMutability": "nonpayable",
      "type": "function"
    },
    {
      "inputs": [
        {
          "internalType": "uint256",
          "name": "newCents",
          "type": "uint256"
        }
      ],
      "name": "setSubscriptionUsdCents",
      "outputs": [],
      "stateMutability": "nonpayable",
      "type": "function"
    },
    {
      "inputs": [],
      "name": "subscribe",
      "outputs": [],
      "stateMutability": "payable",
      "type": "function"
    },
    {
      "inputs": [
        {
          "internalType": "address",
          "name": "",
          "type": "address"
        }
      ],
      "name": "subscriptionExpiry",
      "outputs": [
        {
          "internalType": "uint256",
          "name": "",
          "type": "uint256"
        }
      ],
      "stateMutability": "view",
      "type": "function"
    },
    {
      "inputs": [],
      "name": "subscriptionPriceETH",
      "outputs": [
        {
          "internalType": "uint256",
          "name": "",
          "type": "uint256"
        }
      ],
      "stateMutability": "view",
      "type": "function"
    },
    {
      "inputs": [],
      "name": "subscriptionUsdCents",
      "outputs": [
        {
          "internalType": "uint256",
          "name": "",
          "type": "uint256"
        }
      ],
      "stateMutability": "view",
      "type": "function"
    },
    {
      "inputs": [
        {
          "internalType": "bytes4",
          "name": "interfaceId",
          "type": "bytes4"
        }
      ],
      "name": "supportsInterface",
      "outputs": [
        {
          "internalType": "bool",
          "name": "",
          "type": "bool"
        }
      ],
      "stateMutability": "view",
      "type": "function"
    },
    {
      "inputs": [],
      "name": "symbol",
      "outputs": [
        {
          "internalType": "string",
          "name": "",
          "type": "string"
        }
      ],
      "stateMutability": "view",
      "type": "function"
    },
    {
      "inputs": [
        {
          "internalType": "uint256",
          "name": "",
          "type": "uint256"
        }
      ],
      "name": "tokenRule",
      "outputs": [
        {
          "internalType": "uint256",
          "name": "",
          "type": "uint256"
        }
      ],
      "stateMutability": "view",
      "type": "function"
    },
    {
      "inputs": [
        {
          "internalType": "uint256",
          "name": "tokenId",
          "type": "uint256"
        }
      ],
      "name": "tokenURI",
      "outputs": [
        {
          "internalType": "string",
          "name": "",
          "type": "string"
        }
      ],
      "stateMutability": "view",
      "type": "function"
    },
    {
      "inputs": [
        {
          "internalType": "address",
          "name": "from",
          "type": "address"
        },
        {
          "internalType": "address",
          "name": "to",
          "type": "address"
        },
        {
          "internalType": "uint256",
          "name": "tokenId",
          "type": "uint256"
        }
      ],
      "name": "transferFrom",
      "outputs": [],
      "stateMutability": "nonpayable",
      "type": "function"
    },
    {
      "inputs": [],
      "name": "treasuryBalance",
      "outputs": [
        {
          "internalType": "uint256",
          "name": "",
          "type": "uint256"
        }
      ],
      "stateMutability": "view",
      "type": "function"
    },
    {
      "inputs": [],
      "name": "unpause",
      "outputs": [],
      "stateMutability": "nonpayable",
      "type": "function"
    },
    {
      "inputs": [
        {
          "internalType": "address",
          "name": "to",
          "type": "address"
        }
      ],
      "name": "withdrawAllTreasury",
      "outputs": [],
      "stateMutability": "nonpayable",
      "type": "function"
    },
    {
      "inputs": [
        {
          "internalType": "address",
          "name": "to",
          "type": "address"
        },
        {
          "internalType": "uint256",
          "name": "amount",
          "type": "uint256"
        }
      ],
      "name": "withdrawTreasury",
      "outputs": [],
      "stateMutability": "nonpayable",
      "type": "function"
    }
  ],
  "bytecode": "0x60a06040526023600955348015610014575f5ffd5b50604051613ad3380380613ad3833981016040819052610033916100f9565b81815f61004083826101e2565b50600161004d82826101e2565b5050336080525061029c915050565b634e487b7160e01b5f52604160045260245ffd5b5f82601f83011261007f575f5ffd5b81516001600160401b038111156100985761009861005c565b604051601f8201601f19908116603f011681016001600160401b03811182821017156100c6576100c661005c565b6040528181528382016020018510156100dd575f5ffd5b8160208501602083015e5f918101602001919091529392505050565b5f5f6040838503121561010a575f5ffd5b82516001600160401b0381111561011f575f5ffd5b61012b85828601610070565b602085015190935090506001600160401b03811115610148575f5ffd5b61015485828601610070565b9150509250929050565b600181811c9082168061017257607f821691505b60208210810361019057634e487b7160e01b5f52602260045260245ffd5b50919050565b601f8211156101dd57805f5260205f20601f840160051c810160208510156101bb5750805b601f840160051c820191505b818110156101da575f81556001016101c7565b50505b505050565b81516001600160401b038111156101fb576101fb61005c565b61020f81610209845461015e565b84610196565b6020601f821160018114610241575f831561022a5750848201515b5f19600385901b1c1916600184901b1784556101da565b5f84815260208120601f198516915b828110156102705787850151825560209485019460019092019101610250565b508482101561028d57868401515f19600387901b60f8161c191681555b50505050600190811b01905550565b6080516138186102bb5f395f81816108ec015261218c01526138185ff3fe60806040526004361061030d575f3560e01c80637514e80e116101a3578063b88d4fde116100f2578063d5f3948811610092578063e3d583611161006d578063e3d5836114610979578063e985e9c51461098c578063f4a96d22146109ab578063f4f7596a146109bf575f5ffd5b8063d5f39488146108db578063d60d36b61461090e578063d90190201461094e575f5ffd5b8063d098769b116100cd578063d098769b14610873578063d2f2970714610892578063d36013ce146108a8578063d547741f146108bc575f5ffd5b8063b88d4fde1461080a578063c40df85414610829578063c87b56dd14610854575f5ffd5b80638f449a051161015d5780639f6d7884116101385780639f6d788414610782578063a217fddf146107ad578063a22cb465146107c0578063a28f6260146107df575f5ffd5b80638f449a051461074757806391d148541461074f57806395d89b411461076e575f5ffd5b80637514e80e1461068a57806375794a3c146106c15780637adbf973146106d65780638009b7bd146106f55780638456cb591461071457806388d6b10e14610728575f5ffd5b8063313dab201161025f578063485cc955116102195780636352211e116101f45780636352211e1461061857806370a082311461063757806370f047b01461065657806374cdfa511461066b575f5ffd5b8063485cc955146105b75780635c975abb146105d657806360a85ef5146105ed575f5ffd5b8063313dab201461050757806336568abe1461051c578063392e53cd1461053b5780633f4ba83a1461055257806342842e0e146105665780634846203714610585575f5ffd5b80630d86419a116102ca578063248a9ca3116102a5578063248a9ca3146104865780632b942d5b146104b45780632bca0efb146104d35780632f2ff15d146104e8575f5ffd5b80630d86419a1461042957806323b872dd1461044857806323f889fc14610467575f5ffd5b806301ffc9a71461031157806304d6ded41461034557806305a891191461037757806306fdde03146103b0578063081812fc146103d1578063095ea7b314610408575b5f5ffd5b34801561031c575f5ffd5b5061033061032b366004613087565b6109de565b60405190151581526020015b60405180910390f35b348015610350575f5ffd5b5061036461035f3660046130a2565b6109ee565b60405161033c97969594939291906130e7565b348015610382575f5ffd5b506103a26103913660046130a2565b60116020525f908152604090205481565b60405190815260200161033c565b3480156103bb575f5ffd5b506103c4610ac3565b60405161033c9190613138565b3480156103dc575f5ffd5b506103f06103eb3660046130a2565b610b52565b6040516001600160a01b03909116815260200161033c565b348015610413575f5ffd5b50610427610422366004613165565b610b79565b005b348015610434575f5ffd5b50610427610443366004613165565b610b88565b348015610453575f5ffd5b5061042761046236600461318d565b610d43565b348015610472575f5ffd5b506103a261048136600461320c565b610dcc565b348015610491575f5ffd5b506103a26104a03660046130a2565b5f9081526007602052604090206001015490565b3480156104bf575f5ffd5b506103a26104ce3660046130a2565b610f7c565b3480156104de575f5ffd5b506103a260095481565b3480156104f3575f5ffd5b50610427610502366004613254565b61138a565b348015610512575f5ffd5b506103a260175481565b348015610527575f5ffd5b50610427610536366004613254565b6113ae565b348015610546575f5ffd5b50600d5460ff16610330565b34801561055d575f5ffd5b506104276113e6565b348015610571575f5ffd5b5061042761058036600461318d565b61141b565b348015610590575f5ffd5b506105a461059f3660046130a2565b611435565b60405161033c979695949392919061327e565b3480156105c2575f5ffd5b506104276105d13660046132d1565b6115c7565b3480156105e1575f5ffd5b5060085460ff16610330565b3480156105f8575f5ffd5b506103a26106073660046132f9565b60136020525f908152604090205481565b348015610623575f5ffd5b506103f06106323660046130a2565b6116d0565b348015610642575f5ffd5b506103a26106513660046132f9565b6116da565b348015610661575f5ffd5b506103a2600b5481565b348015610676575f5ffd5b506104276106853660046130a2565b61171f565b348015610695575f5ffd5b506103306106a43660046132f9565b6001600160a01b03165f9081526013602052604090205442111590565b3480156106cc575f5ffd5b506103a2600c5481565b3480156106e1575f5ffd5b506104276106f03660046132f9565b6117b2565b348015610700575f5ffd5b50600a546103f0906001600160a01b031681565b34801561071f575f5ffd5b50610427611949565b348015610733575f5ffd5b506103a2610742366004613312565b61197b565b610427611c47565b34801561075a575f5ffd5b50610330610769366004613254565b611d83565b348015610779575f5ffd5b506103c4611dad565b34801561078d575f5ffd5b506103a261079c3660046130a2565b60106020525f908152604090205481565b3480156107b8575f5ffd5b506103a25f81565b3480156107cb575f5ffd5b506104276107da366004613361565b611dbc565b3480156107ea575f5ffd5b506103a26107f93660046130a2565b600f6020525f908152604090205481565b348015610815575f5ffd5b506104276108243660046133ae565b611dc7565b348015610834575f5ffd5b506103a26108433660046130a2565b60156020525f908152604090205481565b34801561085f575f5ffd5b506103c461086e3660046130a2565b611ddf565b34801561087e575f5ffd5b5061042761088d3660046130a2565b611dea565b34801561089d575f5ffd5b506103a262278d0081565b3480156108b3575f5ffd5b506103a2611f08565b3480156108c7575f5ffd5b506104276108d6366004613254565b612011565b3480156108e6575f5ffd5b506103f07f000000000000000000000000000000000000000000000000000000000000000081565b348015610919575f5ffd5b5061093c6109283660046132f9565b60126020525f908152604090205460ff1681565b60405160ff909116815260200161033c565b348015610959575f5ffd5b506103a26109683660046130a2565b60146020525f908152604090205481565b61042761098736600461348b565b612035565b348015610997575f5ffd5b506103306109a63660046132d1565b6122b2565b3480156109b6575f5ffd5b5061093c600381565b3480156109ca575f5ffd5b506104276109d93660046132f9565b6122df565b5f6109e882612428565b92915050565b600e6020525f908152604090208054600182018054919291610a0f906134ab565b80601f0160208091040260200160405190810160405280929190818152602001828054610a3b906134ab565b8015610a865780601f10610a5d57610100808354040283529160200191610a86565b820191905f5260205f20905b815481529060010190602001808311610a6957829003601f168201915b5050505060028301546003840154600485015460059095015493946001600160a01b039092169390925061ffff82169162010000900460ff169087565b60605f8054610ad1906134ab565b80601f0160208091040260200160405190810160405280929190818152602001828054610afd906134ab565b8015610b485780601f10610b1f57610100808354040283529160200191610b48565b820191905f5260205f20905b815481529060010190602001808311610b2b57829003601f168201915b5050505050905090565b5f610b5c8261244c565b505f828152600460205260409020546001600160a01b03166109e8565b610b84828233612484565b5050565b5f5160206137c35f395f51905f52610b9f81612491565b6001600160a01b038316610bce5760405162461bcd60e51b8152600401610bc5906134e3565b60405180910390fd5b5f8211610c0b5760405162461bcd60e51b815260206004820152600b60248201526a16915493d7d05353d5539560aa1b6044820152606401610bc5565b601754821115610c545760405162461bcd60e51b8152602060048201526014602482015273494e53554646494349454e545f42414c414e434560601b6044820152606401610bc5565b8160175f828254610c65919061351d565b90915550506040515f906001600160a01b0385169084908381818185875af1925050503d805f8114610cb2576040519150601f19603f3d011682016040523d82523d5f602084013e610cb7565b606091505b5050905080610cfa5760405162461bcd60e51b815260206004820152600f60248201526e15d2551211149055d7d19052531151608a1b6044820152606401610bc5565b836001600160a01b03167f41fdd680478135993bc53fb2ffaf9560951b57ef62ff6badd02b61e018b4f17f84604051610d3591815260200190565b60405180910390a250505050565b6001600160a01b038216610d6c57604051633250574960e11b81525f6004820152602401610bc5565b5f610d7883833361249b565b9050836001600160a01b0316816001600160a01b031614610dc6576040516364283d7b60e01b81526001600160a01b0380861660048301526024820184905282166044820152606401610bc5565b50505050565b5f610dd5612570565b83610e165760405162461bcd60e51b81526020600482015260116024820152700929cac82989288bea4aa988abe9082a69607b1b6044820152606401610bc5565b600b5f8154610e2490613530565b91905081905590506040518060e0016040528085815260200184848080601f0160208091040260200160405190810160405280939291908181526020018383808284375f92018290525093855250503360208085019190915260408085018490526001606086018190526080860185905260a0909501849052868452600e825290922084518155918401519192830191610ebf91508261358c565b506040828101516002830180546001600160a01b0319166001600160a01b0390921691909117905560608301516003830155608083015160048301805460a086015161ffff90931662ffffff1990911617620100009215159290920291909117905560c0909201516005909101555f828152601060209081528282208490559151600181529091839182917f89985676d0f40810abbe2cd55f254fd631b1f8eff9cf8cf89ad8af64c77f87b2910160405180910390a49392505050565b5f610f85612570565b5f828152600e6020526040902060028101546001600160a01b03163314610fdc5760405162461bcd60e51b815260206004820152600b60248201526a2727aa2fa1a922a0aa27a960a91b6044820152606401610bc5565b600481015462010000900460ff16156110295760405162461bcd60e51b815260206004820152600f60248201526e1495531157d11154149150d0551151608a1b6044820152606401610bc5565b60058101541561106c5760405162461bcd60e51b815260206004820152600e60248201526d414c52454144595f41435449564560901b6044820152606401610bc5565b5f83815260106020908152604080832054808452601190925290912054801561115c575f818152600e6020526040902060050154801561110d575f818152601660205260409020805460ff191660011790556110c781612596565b5f818152600f6020908152604080832083905533835260129091528120805460ff16916110f383613647565b91906101000a81548160ff021916908360ff160217905550505b5f828152600e602052604080822060058101839055600401805462ff00001916620100001790555183917f4816cbba0986a3746458b30f61c423197d79c8128a41811424e7d2cf0459ea7691a2505b335f90815260126020908152604080832054601390925282205460ff909116919042111561118b57600161118e565b60035b90508060ff168260ff16106111f15760405162461bcd60e51b8152602060048201526024808201527f535542534352495054494f4e5f52455155495245445f464f525f4143544956416044820152632a24a7a760e11b6064820152608401610bc5565b600c5f81546111ff90613530565b9182905550600586018190555f818152600f602090815260408083208b9055878352601182528083208b905533835260139091529020549096504211156112535761124e426301e13380613662565b611263565b335f908152601360205260409020545b5f878152601460209081526040808320939093558982526015815282822089905533825260129052908120805460ff169161129d83613675565b91906101000a81548160ff021916908360ff160217905550506112c033876125ce565b611354868660010180546112d3906134ab565b80601f01602080910402602001604051908101604052809291908181526020018280546112ff906134ab565b801561134a5780601f106113215761010080835404028352916020019161134a565b820191905f5260205f20905b81548152906001019060200180831161132d57829003601f168201915b505050505061262f565b604051869088907f3db37d72ecec2a06bb99792c387585563a848046fa9f0698dfd52bdd41c2a97b905f90a35050505050919050565b5f828152600760205260409020600101546113a481612491565b610dc68383612677565b6001600160a01b03811633146113d75760405163334bd91960e11b815260040160405180910390fd5b6113e18282612708565b505050565b7f65d7a28e3265b37a6474929f336521b332c1681b933f6cb9f3376673440d862a61141081612491565b611418612773565b50565b6113e183838360405180602001604052805f815250611dc7565b5f60605f5f5f5f5f5f600e5f8a81526020019081526020015f206040518060e00160405290815f8201548152602001600182018054611473906134ab565b80601f016020809104026020016040519081016040528092919081815260200182805461149f906134ab565b80156114ea5780601f106114c1576101008083540402835291602001916114ea565b820191905f5260205f20905b8154815290600101906020018083116114cd57829003601f168201915b505050918352505060028201546001600160a01b0316602082015260038201546040820152600482015461ffff8116606083015262010000900460ff161515608082015260059091015460a090910152805190915061157c5760405162461bcd60e51b815260206004820152600e60248201526d1495531157d393d517d1561254d560921b6044820152606401610bc5565b5f8981526010602090815260408083205480845260118352928190205484519285015191850151608086015160a090960151939e929d909c50939a5093985090965091149350915050565b600d5460ff16156115ea5760405162dc149f60e41b815260040160405180910390fd5b6001600160a01b038216158061160757506001600160a01b038116155b156116255760405163d92e233d60e01b815260040160405180910390fd5b600d805460ff1916600117905561163c5f83612677565b506116545f5160206137c35f395f51905f5283612677565b5061167f7f65d7a28e3265b37a6474929f336521b332c1681b933f6cb9f3376673440d862a83612677565b50600a80546001600160a01b0319166001600160a01b0383811691821790925560405190918416907f3cd5ec01b1ae7cfec6ca1863e2cd6aa25d6d1702825803ff2b7cc95010fffdc2905f90a35050565b5f6109e88261244c565b5f6001600160a01b038216611704576040516322718ad960e21b81525f6004820152602401610bc5565b506001600160a01b03165f9081526003602052604090205490565b5f5160206137c35f395f51905f5261173681612491565b5f82116117755760405162461bcd60e51b815260206004820152600d60248201526c494e56414c49445f505249434560981b6044820152606401610bc5565b60098290556040518281527fd63a50efec61ddcfce992b3211881fcbb051071209192d1ae21d600ee686565f906020015b60405180910390a15050565b5f5160206137c35f395f51905f526117c981612491565b6001600160a01b0382166117ef5760405162461bcd60e51b8152600401610bc5906134e3565b816001600160a01b031663feaf968c6040518163ffffffff1660e01b815260040160a060405180830381865afa925050508015611849575060408051601f3d908101601f19168201909252611846918101906136ac565b60015b61188b5760405162461bcd60e51b81526020600482015260136024820152724f5241434c455f4e4f545f43414c4c41424c4560681b6044820152606401610bc5565b6402540be40084121580156118a65750655af3107a40008413155b6118f25760405162461bcd60e51b815260206004820152601960248201527f4f5241434c455f50524943455f4f55545f4f465f52414e4745000000000000006044820152606401610bc5565b5050505050600a80546001600160a01b038481166001600160a01b0319831681179093556040519116919082907f078c3b417dadf69374a59793b829c52001247130433427049317bde56607b1b7905f90a3505050565b7f65d7a28e3265b37a6474929f336521b332c1681b933f6cb9f3376673440d862a61197381612491565b6114186127c5565b5f611984612570565b5f858152600e6020526040902060028101546001600160a01b031633146119db5760405162461bcd60e51b815260206004820152600b60248201526a2727aa2fa1a922a0aa27a960a91b6044820152606401610bc5565b600481015462010000900460ff1615611a2a5760405162461bcd60e51b815260206004820152601160248201527014105491539517d11154149150d0551151607a1b6044820152606401610bc5565b84611a6b5760405162461bcd60e51b81526020600482015260116024820152700929cac82989288bea4aa988abe9082a69607b1b6044820152606401610bc5565b5f86815260106020526040812054600b805491929091611a8a90613530565b91905081905592506040518060e0016040528087815260200186868080601f0160208091040260200160405190810160405280939291908181526020018383808284375f92019190915250505090825250336020820152604081018990526004840154606090910190611b029061ffff1660016136fa565b61ffff1681525f60208083018290526040928301829052868252600e815291902082518155908201516001820190611b3a908261358c565b506040828101516002830180546001600160a01b0319166001600160a01b039092169190911790556060830151600383015560808301516004808401805460a087015161ffff90941662ffffff199091161762010000931515840217905560c0909401516005909301929092555f8681526010602052818120859055928501805462ff000019169092179091555188917f4816cbba0986a3746458b30f61c423197d79c8128a41811424e7d2cf0459ea7691a25f838152600e602090815260409182902060040154915161ffff90921682528891839186917f89985676d0f40810abbe2cd55f254fd631b1f8eff9cf8cf89ad8af64c77f87b2910160405180910390a45050949350505050565b611c4f612570565b5f611c58611f08565b905080341015611ca15760405162461bcd60e51b8152602060048201526014602482015273125394d551919250d251539517d410565351539560621b6044820152606401610bc5565b335f90815260136020526040902054428110611cc957611cc462278d0082613662565b611cd6565b611cd662278d0042613662565b335f9081526013602052604081209190915560178054849290611cfa908490613662565b909155505034821015611d3c57336108fc611d15843461351d565b6040518115909202915f818181858888f19350505050158015611d3a573d5f5f3e3d5ffd5b505b335f818152601360209081526040918290205491519182527f4b90d6788928d63c1821907a6a8b95f40d26562d8fe41b105f7489db9966dfcb910160405180910390a25050565b5f9182526007602090815260408084206001600160a01b0393909316845291905290205460ff1690565b606060018054610ad1906134ab565b610b84338383612802565b611dd2848484610d43565b610dc633858585856128c9565b60606109e8826129f1565b5f818152600260205260409020546001600160a01b031680611e3a5760405162461bcd60e51b81526020600482015260096024820152681393d517d1561254d560ba1b6044820152606401610bc5565b5f828152601460205260409020544211611e845760405162461bcd60e51b815260206004820152600b60248201526a1393d517d156141254915160aa1b6044820152606401610bc5565b5f828152600f6020908152604080832054808452601083528184205486855260169093529220805460ff19166001179055611ebe84612596565b5f848152600f602090815260408083208390558383526011909152902054829003611ef2575f818152601160205260408120555b505f908152600e60205260408120600501555050565b600a5460408051633fabe5a360e21b815290515f926001600160a01b03169163feaf968c9160048083019260a09291908290030181865afa925050508015611f6d575060408051601f3d908101601f19168201909252611f6a918101906136ac565b60015b611f7c5750655af3107a400090565b6402540be400841280611f945750655af3107a400084135b80611fa95750610e10611fa7834261351d565b115b15611fbf57655af3107a40009550505050505090565b5f611fcb856064613714565b600954611fe29069d3c21bcecceda1000000613714565b611fec919061372b565b9050805f0361200757655af3107a4000965050505050505090565b9695505050505050565b5f8281526007602052604090206001015461202b81612491565b610dc68383612708565b3361203f836116d0565b6001600160a01b0316146120865760405162461bcd60e51b815260206004820152600e60248201526d2727aa2fa92aa622afa7aba722a960911b6044820152606401610bc5565b5f8281526014602052604090205481116120d85760405162461bcd60e51b815260206004820152601360248201527211561412549657d393d517d156151153911151606a1b6044820152606401610bc5565b6120e6426301e13380613662565b8111156121265760405162461bcd60e51b815260206004820152600e60248201526d22ac2824a92cafaa27a7afa320a960911b6044820152606401610bc5565b5f61212f611f08565b9050803410156121785760405162461bcd60e51b8152602060048201526014602482015273125394d551919250d251539517d410565351539560621b6044820152606401610bc5565b5f83815260146020526040808220849055517f00000000000000000000000000000000000000000000000000000000000000006001600160a01b03169083908381818185875af1925050503d805f81146121ed576040519150601f19603f3d011682016040523d82523d5f602084013e6121f2565b606091505b50509050806122435760405162461bcd60e51b815260206004820152601860248201527f4445504c4f5945525f5452414e534645525f4641494c454400000000000000006044820152606401610bc5565b8134111561228057336108fc612259843461351d565b6040518115909202915f818181858888f1935050505015801561227e573d5f5f3e3d5ffd5b505b837f864ca413e692b7d7abe57fb4de7f98d30188cd4f03419a82b0b8ff7986e06a9484604051610d3591815260200190565b6001600160a01b039182165f90815260056020908152604080832093909416825291909152205460ff1690565b5f5160206137c35f395f51905f526122f681612491565b6001600160a01b03821661231c5760405162461bcd60e51b8152600401610bc5906134e3565b601754806123595760405162461bcd60e51b815260206004820152600a6024820152694e4f5f42414c414e434560b01b6044820152606401610bc5565b5f60178190556040516001600160a01b0385169083908381818185875af1925050503d805f81146123a5576040519150601f19603f3d011682016040523d82523d5f602084013e6123aa565b606091505b50509050806123ed5760405162461bcd60e51b815260206004820152600f60248201526e15d2551211149055d7d19052531151608a1b6044820152606401610bc5565b836001600160a01b03167f41fdd680478135993bc53fb2ffaf9560951b57ef62ff6badd02b61e018b4f17f83604051610d3591815260200190565b5f6001600160e01b03198216637965db0b60e01b14806109e857506109e882612a72565b5f818152600260205260408120546001600160a01b0316806109e857604051637e27328960e01b815260048101849052602401610bc5565b6113e18383836001612a96565b6114188133612b9a565b5f6124a4612570565b6124af848484612bd3565b90506001600160a01b038416612541575f8381526016602052604090205460ff166125275760405162461bcd60e51b815260206004820152602260248201527f4255524e5f4f4e4c595f5649415f4558504952595f4f525f414354495641544960448201526127a760f11b6064820152608401610bc5565b5f838152601660205260409020805460ff19169055612569565b6001600160a01b0384165f908152601360209081526040808320548684526014909252909120555b9392505050565b60085460ff16156125945760405163d93c066560e01b815260040160405180910390fd5b565b5f6125a25f835f61249b565b90506001600160a01b038116610b8457604051637e27328960e01b815260048101839052602401610bc5565b6001600160a01b0382166125f757604051633250574960e11b81525f6004820152602401610bc5565b5f61260383835f61249b565b90506001600160a01b038116156113e1576040516339e3563760e11b81525f6004820152602401610bc5565b5f828152600660205260409020612646828261358c565b506040518281527ff8e1a15aba9398e019f0b49df1a4fde98ee17ae345cb5f6b5e2c27f5033e8ce7906020016117a6565b5f6126828383611d83565b612701575f8381526007602090815260408083206001600160a01b03861684529091529020805460ff191660011790556126b93390565b6001600160a01b0316826001600160a01b0316847f2f8788117e7eff1d82e926ec794901d17c78024a50270940304540a733656f0d60405160405180910390a45060016109e8565b505f6109e8565b5f6127138383611d83565b15612701575f8381526007602090815260408083206001600160a01b0386168085529252808320805460ff1916905551339286917ff6391f5c32d9c69d2a47ea670b442974b53935d1edc7fd64eb21e047a839171b9190a45060016109e8565b61277b612cc5565b6008805460ff191690557f5db9ee0a495bf2e6ff9c91a7834c1ba4fdd244a5e8aa4e537bd38aeae4b073aa335b6040516001600160a01b03909116815260200160405180910390a1565b6127cd612570565b6008805460ff191660011790557f62e78cea01bee320cd4e420270b5ea74000d11b0c9f74754ebdbfc544b05a2586127a83390565b6001600160a01b03831661282b5760405163a9fbf51f60e01b81525f6004820152602401610bc5565b6001600160a01b03821661285d57604051630b61174360e31b81526001600160a01b0383166004820152602401610bc5565b6001600160a01b038381165f81815260056020908152604080832094871680845294825291829020805460ff191686151590811790915591519182527f17307eab39ab6107e8899845ad3d59bd9653f200f220920489ca2b5937696c31910160405180910390a3505050565b6001600160a01b0383163b156129ea57604051630a85bd0160e11b81526001600160a01b0384169063150b7a029061290b90889088908790879060040161374a565b6020604051808303815f875af1925050508015612945575060408051601f3d908101601f191682019092526129429181019061377c565b60015b6129ac573d808015612972576040519150601f19603f3d011682016040523d82523d5f602084013e612977565b606091505b5080515f036129a457604051633250574960e11b81526001600160a01b0385166004820152602401610bc5565b805160208201fd5b6001600160e01b03198116630a85bd0160e11b146129e857604051633250574960e11b81526001600160a01b0385166004820152602401610bc5565b505b5050505050565b60606129fc8261244c565b505f612a1260408051602081019091525f815290565b90505f612a1e84612ce8565b905081515f03612a2f579392505050565b805115612a61578181604051602001612a499291906137ae565b60405160208183030381529060405292505050919050565b612a6a84612d87565b949350505050565b5f6001600160e01b03198216632483248360e11b14806109e857506109e882612df7565b8080612aaa57506001600160a01b03821615155b15612b6b575f612ab98461244c565b90506001600160a01b03831615801590612ae55750826001600160a01b0316816001600160a01b031614155b8015612af85750612af681846122b2565b155b15612b215760405163a9fbf51f60e01b81526001600160a01b0384166004820152602401610bc5565b8115612b695783856001600160a01b0316826001600160a01b03167f8c5be1e5ebec7d5bd14f71427d1e84f3dd0314c0f7b2291e5b200ac8c7c3b92560405160405180910390a45b505b50505f90815260046020526040902080546001600160a01b0319166001600160a01b0392909216919091179055565b612ba48282611d83565b610b845760405163e2517d3f60e01b81526001600160a01b038216600482015260248101839052604401610bc5565b5f828152600260205260408120546001600160a01b0390811690831615612bff57612bff818486612e46565b6001600160a01b03811615612c3957612c1a5f855f5f612a96565b6001600160a01b0381165f90815260036020526040902080545f190190555b6001600160a01b03851615612c67576001600160a01b0385165f908152600360205260409020805460010190555b5f8481526002602052604080822080546001600160a01b0319166001600160a01b0389811691821790925591518793918516917fddf252ad1be2c89b69c2b068fc378daa952ba7f163c4a11628f55a4df523b3ef91a4949350505050565b60085460ff1661259457604051638dfc202b60e01b815260040160405180910390fd5b5f818152600660205260409020805460609190612d04906134ab565b80601f0160208091040260200160405190810160405280929190818152602001828054612d30906134ab565b8015612d7b5780601f10612d5257610100808354040283529160200191612d7b565b820191905f5260205f20905b815481529060010190602001808311612d5e57829003601f168201915b50505050509050919050565b6060612d928261244c565b505f612da860408051602081019091525f815290565b90505f815111612dc65760405180602001604052805f815250612569565b80612dd084612eaa565b604051602001612de19291906137ae565b6040516020818303038152906040529392505050565b5f6001600160e01b031982166380ac58cd60e01b1480612e2757506001600160e01b03198216635b5e139f60e01b145b806109e857506301ffc9a760e01b6001600160e01b03198316146109e8565b612e51838383612f3a565b6113e1576001600160a01b038316612e7f57604051637e27328960e01b815260048101829052602401610bc5565b60405163177e802f60e01b81526001600160a01b038316600482015260248101829052604401610bc5565b60605f612eb683612f9b565b60010190505f8167ffffffffffffffff811115612ed557612ed561339a565b6040519080825280601f01601f191660200182016040528015612eff576020820181803683370190505b5090508181016020015b5f19016f181899199a1a9b1b9c1cb0b131b232b360811b600a86061a8153600a8504945084612f0957509392505050565b5f6001600160a01b03831615801590612a6a5750826001600160a01b0316846001600160a01b03161480612f735750612f7384846122b2565b80612a6a5750505f908152600460205260409020546001600160a01b03908116911614919050565b5f8072184f03e93ff9f4daa797ed6e38ed64bf6a1f0160401b8310612fd95772184f03e93ff9f4daa797ed6e38ed64bf6a1f0160401b830492506040015b6d04ee2d6d415b85acef81000000008310613005576d04ee2d6d415b85acef8100000000830492506020015b662386f26fc10000831061302357662386f26fc10000830492506010015b6305f5e100831061303b576305f5e100830492506008015b612710831061304f57612710830492506004015b60648310613061576064830492506002015b600a83106109e85760010192915050565b6001600160e01b031981168114611418575f5ffd5b5f60208284031215613097575f5ffd5b813561256981613072565b5f602082840312156130b2575f5ffd5b5035919050565b5f81518084528060208401602086015e5f602082860101526020601f19601f83011685010191505092915050565b87815260e060208201525f6130ff60e08301896130b9565b6001600160a01b0397909716604083015250606081019490945261ffff929092166080840152151560a083015260c09091015292915050565b602081525f61256960208301846130b9565b80356001600160a01b0381168114613160575f5ffd5b919050565b5f5f60408385031215613176575f5ffd5b61317f8361314a565b946020939093013593505050565b5f5f5f6060848603121561319f575f5ffd5b6131a88461314a565b92506131b66020850161314a565b929592945050506040919091013590565b5f5f83601f8401126131d7575f5ffd5b50813567ffffffffffffffff8111156131ee575f5ffd5b602083019150836020828501011115613205575f5ffd5b9250929050565b5f5f5f6040848603121561321e575f5ffd5b83359250602084013567ffffffffffffffff81111561323b575f5ffd5b613247868287016131c7565b9497909650939450505050565b5f5f60408385031215613265575f5ffd5b823591506132756020840161314a565b90509250929050565b87815260e060208201525f61329660e08301896130b9565b6001600160a01b0397909716604083015250606081019490945261ffff929092166080840152151560a0830152151560c09091015292915050565b5f5f604083850312156132e2575f5ffd5b6132eb8361314a565b91506132756020840161314a565b5f60208284031215613309575f5ffd5b6125698261314a565b5f5f5f5f60608587031215613325575f5ffd5b8435935060208501359250604085013567ffffffffffffffff811115613349575f5ffd5b613355878288016131c7565b95989497509550505050565b5f5f60408385031215613372575f5ffd5b61337b8361314a565b91506020830135801515811461338f575f5ffd5b809150509250929050565b634e487b7160e01b5f52604160045260245ffd5b5f5f5f5f608085870312156133c1575f5ffd5b6133ca8561314a565b93506133d86020860161314a565b925060408501359150606085013567ffffffffffffffff8111156133fa575f5ffd5b8501601f8101871361340a575f5ffd5b803567ffffffffffffffff8111156134245761342461339a565b604051601f8201601f19908116603f0116810167ffffffffffffffff811182821017156134535761345361339a565b60405281815282820160200189101561346a575f5ffd5b816020840160208301375f6020838301015280935050505092959194509250565b5f5f6040838503121561349c575f5ffd5b50508035926020909101359150565b600181811c908216806134bf57607f821691505b6020821081036134dd57634e487b7160e01b5f52602260045260245ffd5b50919050565b6020808252600c908201526b5a45524f5f4144445245535360a01b604082015260600190565b634e487b7160e01b5f52601160045260245ffd5b818103818111156109e8576109e8613509565b5f6001820161354157613541613509565b5060010190565b601f8211156113e157805f5260205f20601f840160051c8101602085101561356d5750805b601f840160051c820191505b818110156129ea575f8155600101613579565b815167ffffffffffffffff8111156135a6576135a661339a565b6135ba816135b484546134ab565b84613548565b6020601f8211600181146135ec575f83156135d55750848201515b5f19600385901b1c1916600184901b1784556129ea565b5f84815260208120601f198516915b8281101561361b57878501518255602094850194600190920191016135fb565b508482101561363857868401515f19600387901b60f8161c191681555b50505050600190811b01905550565b5f60ff82168061365957613659613509565b5f190192915050565b808201808211156109e8576109e8613509565b5f60ff821660ff810361368a5761368a613509565b60010192915050565b805169ffffffffffffffffffff81168114613160575f5ffd5b5f5f5f5f5f60a086880312156136c0575f5ffd5b6136c986613693565b602087015160408801516060890151929750909550935091506136ee60808701613693565b90509295509295909350565b61ffff81811683821601908111156109e8576109e8613509565b80820281158282048414176109e8576109e8613509565b5f8261374557634e487b7160e01b5f52601260045260245ffd5b500490565b6001600160a01b03858116825284166020820152604081018390526080606082018190525f90612007908301846130b9565b5f6020828403121561378c575f5ffd5b815161256981613072565b5f81518060208401855e5f93019283525090919050565b5f612a6a6137bc8386613797565b8461379756fea49807205ce4d355092ef5a8a18f56e8913cf4a201fbe287825b095693c21775a26469706673582212204e831fd29931d82baa470d7a5d4418a076df41cf7b150da03174d9925e33dbde64736f6c634300081c0033",
  "linkReferences": {},
  "deployedLinkReferences": {},
  "immutableReferences": {
    "8070": [
      {
        "length": 32,
        "start": 2284
      },
      {
        "length": 32,
        "start": 8588
      }
    ]
  },
  "inputSourceName": "project/contracts/core/RuleItemERC721.sol",
  "buildInfoId": "solc-0_8_28-fbf0bb20b37deeec3055f3c589d77a092ee96a8f"
}