{
  "_format": "hh3-artifact-1",
  "contractName": "PayIDVerifier",
  "sourceName": "contracts/PayIDVerifier.sol",
  "abi": [
    {
      "inputs": [
        {
          "internalType": "string",
          "name": "signingDomain",
          "type": "string"
        },
        {
          "internalType": "string",
          "name": "signatureVersion",
          "type": "string"
        }
      ],
      "stateMutability": "nonpayable",
      "type": "constructor"
    },
    {
      "inputs": [],
      "name": "ECDSAInvalidSignature",
      "type": "error"
    },
    {
      "inputs": [
        {
          "internalType": "uint256",
          "name": "length",
          "type": "uint256"
        }
      ],
      "name": "ECDSAInvalidSignatureLength",
      "type": "error"
    },
    {
      "inputs": [
        {
          "internalType": "bytes32",
          "name": "s",
          "type": "bytes32"
        }
      ],
      "name": "ECDSAInvalidSignatureS",
      "type": "error"
    },
    {
      "inputs": [],
      "name": "InvalidShortString",
      "type": "error"
    },
    {
      "inputs": [
        {
          "internalType": "string",
          "name": "str",
          "type": "string"
        }
      ],
      "name": "StringTooLong",
      "type": "error"
    },
    {
      "anonymous": false,
      "inputs": [
        {
          "indexed": true,
          "internalType": "address",
          "name": "authority",
          "type": "address"
        },
        {
          "indexed": false,
          "internalType": "bool",
          "name": "trusted",
          "type": "bool"
        }
      ],
      "name": "AuthorityUpdated",
      "type": "event"
    },
    {
      "anonymous": false,
      "inputs": [],
      "name": "EIP712DomainChanged",
      "type": "event"
    },
    {
      "anonymous": false,
      "inputs": [
        {
          "indexed": true,
          "internalType": "address",
          "name": "previousOwner",
          "type": "address"
        },
        {
          "indexed": true,
          "internalType": "address",
          "name": "newOwner",
          "type": "address"
        }
      ],
      "name": "OwnershipTransferred",
      "type": "event"
    },
    {
      "inputs": [],
      "name": "DECISION_TYPEHASH",
      "outputs": [
        {
          "internalType": "bytes32",
          "name": "",
          "type": "bytes32"
        }
      ],
      "stateMutability": "view",
      "type": "function"
    },
    {
      "inputs": [],
      "name": "SIGNATURE_VERSION",
      "outputs": [
        {
          "internalType": "string",
          "name": "",
          "type": "string"
        }
      ],
      "stateMutability": "view",
      "type": "function"
    },
    {
      "inputs": [],
      "name": "SIGNING_DOMAIN",
      "outputs": [
        {
          "internalType": "string",
          "name": "",
          "type": "string"
        }
      ],
      "stateMutability": "view",
      "type": "function"
    },
    {
      "inputs": [],
      "name": "eip712Domain",
      "outputs": [
        {
          "internalType": "bytes1",
          "name": "fields",
          "type": "bytes1"
        },
        {
          "internalType": "string",
          "name": "name",
          "type": "string"
        },
        {
          "internalType": "string",
          "name": "version",
          "type": "string"
        },
        {
          "internalType": "uint256",
          "name": "chainId",
          "type": "uint256"
        },
        {
          "internalType": "address",
          "name": "verifyingContract",
          "type": "address"
        },
        {
          "internalType": "bytes32",
          "name": "salt",
          "type": "bytes32"
        },
        {
          "internalType": "uint256[]",
          "name": "extensions",
          "type": "uint256[]"
        }
      ],
      "stateMutability": "view",
      "type": "function"
    },
    {
      "inputs": [
        {
          "components": [
            {
              "internalType": "bytes32",
              "name": "version",
              "type": "bytes32"
            },
            {
              "internalType": "bytes32",
              "name": "payId",
              "type": "bytes32"
            },
            {
              "internalType": "address",
              "name": "payer",
              "type": "address"
            },
            {
              "internalType": "address",
              "name": "receiver",
              "type": "address"
            },
            {
              "internalType": "address",
              "name": "asset",
              "type": "address"
            },
            {
              "internalType": "uint256",
              "name": "amount",
              "type": "uint256"
            },
            {
              "internalType": "bytes32",
              "name": "contextHash",
              "type": "bytes32"
            },
            {
              "internalType": "bytes32",
              "name": "ruleSetHash",
              "type": "bytes32"
            },
            {
              "internalType": "address",
              "name": "ruleAuthority",
              "type": "address"
            },
            {
              "internalType": "uint64",
              "name": "issuedAt",
              "type": "uint64"
            },
            {
              "internalType": "uint64",
              "name": "expiresAt",
              "type": "uint64"
            },
            {
              "internalType": "bytes32",
              "name": "nonce",
              "type": "bytes32"
            },
            {
              "internalType": "bool",
              "name": "requiresAttestation",
              "type": "bool"
            }
          ],
          "internalType": "struct PayIDVerifier.Decision",
          "name": "d",
          "type": "tuple"
        }
      ],
      "name": "hashDecision",
      "outputs": [
        {
          "internalType": "bytes32",
          "name": "",
          "type": "bytes32"
        }
      ],
      "stateMutability": "view",
      "type": "function"
    },
    {
      "inputs": [],
      "name": "owner",
      "outputs": [
        {
          "internalType": "address",
          "name": "",
          "type": "address"
        }
      ],
      "stateMutability": "view",
      "type": "function"
    },
    {
      "inputs": [
        {
          "components": [
            {
              "internalType": "bytes32",
              "name": "version",
              "type": "bytes32"
            },
            {
              "internalType": "bytes32",
              "name": "payId",
              "type": "bytes32"
            },
            {
              "internalType": "address",
              "name": "payer",
              "type": "address"
            },
            {
              "internalType": "address",
              "name": "receiver",
              "type": "address"
            },
            {
              "internalType": "address",
              "name": "asset",
              "type": "address"
            },
            {
              "internalType": "uint256",
              "name": "amount",
              "type": "uint256"
            },
            {
              "internalType": "bytes32",
              "name": "contextHash",
              "type": "bytes32"
            },
            {
              "internalType": "bytes32",
              "name": "ruleSetHash",
              "type": "bytes32"
            },
            {
              "internalType": "address",
              "name": "ruleAuthority",
              "type": "address"
            },
            {
              "internalType": "uint64",
              "name": "issuedAt",
              "type": "uint64"
            },
            {
              "internalType": "uint64",
              "name": "expiresAt",
              "type": "uint64"
            },
            {
              "internalType": "bytes32",
              "name": "nonce",
              "type": "bytes32"
            },
            {
              "internalType": "bool",
              "name": "requiresAttestation",
              "type": "bool"
            }
          ],
          "internalType": "struct PayIDVerifier.Decision",
          "name": "d",
          "type": "tuple"
        },
        {
          "internalType": "bytes",
          "name": "sig",
          "type": "bytes"
        }
      ],
      "name": "requireAllowed",
      "outputs": [],
      "stateMutability": "nonpayable",
      "type": "function"
    },
    {
      "inputs": [
        {
          "internalType": "address[]",
          "name": "authorities",
          "type": "address[]"
        },
        {
          "internalType": "bool[]",
          "name": "trusted",
          "type": "bool[]"
        }
      ],
      "name": "setTrustedAuthorities",
      "outputs": [],
      "stateMutability": "nonpayable",
      "type": "function"
    },
    {
      "inputs": [
        {
          "internalType": "address",
          "name": "authority",
          "type": "address"
        },
        {
          "internalType": "bool",
          "name": "trusted",
          "type": "bool"
        }
      ],
      "name": "setTrustedAuthority",
      "outputs": [],
      "stateMutability": "nonpayable",
      "type": "function"
    },
    {
      "inputs": [
        {
          "internalType": "address",
          "name": "newOwner",
          "type": "address"
        }
      ],
      "name": "transferOwnership",
      "outputs": [],
      "stateMutability": "nonpayable",
      "type": "function"
    },
    {
      "inputs": [
        {
          "internalType": "address",
          "name": "",
          "type": "address"
        }
      ],
      "name": "trustedAuthorities",
      "outputs": [
        {
          "internalType": "bool",
          "name": "",
          "type": "bool"
        }
      ],
      "stateMutability": "view",
      "type": "function"
    },
    {
      "inputs": [
        {
          "internalType": "address",
          "name": "",
          "type": "address"
        },
        {
          "internalType": "bytes32",
          "name": "",
          "type": "bytes32"
        }
      ],
      "name": "usedNonce",
      "outputs": [
        {
          "internalType": "bool",
          "name": "",
          "type": "bool"
        }
      ],
      "stateMutability": "view",
      "type": "function"
    },
    {
      "inputs": [
        {
          "components": [
            {
              "internalType": "bytes32",
              "name": "version",
              "type": "bytes32"
            },
            {
              "internalType": "bytes32",
              "name": "payId",
              "type": "bytes32"
            },
            {
              "internalType": "address",
              "name": "payer",
              "type": "address"
            },
            {
              "internalType": "address",
              "name": "receiver",
              "type": "address"
            },
            {
              "internalType": "address",
              "name": "asset",
              "type": "address"
            },
            {
              "internalType": "uint256",
              "name": "amount",
              "type": "uint256"
            },
            {
              "internalType": "bytes32",
              "name": "contextHash",
              "type": "bytes32"
            },
            {
              "internalType": "bytes32",
              "name": "ruleSetHash",
              "type": "bytes32"
            },
            {
              "internalType": "address",
              "name": "ruleAuthority",
              "type": "address"
            },
            {
              "internalType": "uint64",
              "name": "issuedAt",
              "type": "uint64"
            },
            {
              "internalType": "uint64",
              "name": "expiresAt",
              "type": "uint64"
            },
            {
              "internalType": "bytes32",
              "name": "nonce",
              "type": "bytes32"
            },
            {
              "internalType": "bool",
              "name": "requiresAttestation",
              "type": "bool"
            }
          ],
          "internalType": "struct PayIDVerifier.Decision",
          "name": "d",
          "type": "tuple"
        },
        {
          "internalType": "bytes",
          "name": "sig",
          "type": "bytes"
        }
      ],
      "name": "verifyDecision",
      "outputs": [
        {
          "internalType": "bool",
          "name": "",
          "type": "bool"
        }
      ],
      "stateMutability": "view",
      "type": "function"
    }
  ],
  "bytecode": "0x610160604052348015610010575f5ffd5b50604051611c37380380611c3783398101604081905261002f9161020d565b818161003b825f6100f8565b6101205261004a8160016100f8565b61014052815160208084019190912060e052815190820120610100524660a0526100d660e05161010051604080517f8b73c3c69bb8fe3d512ecc4cf759cc79239f7b179b0ffacaa9a75d522b39400f60208201529081019290925260608201524660808201523060a08201525f9060c00160405160208183030381529060405280519060200120905090565b60805250503060c0525050600480546001600160a01b03191633179055610408565b5f6020835110156101135761010c8361012a565b9050610124565b8161011e84826102f6565b5060ff90505b92915050565b5f5f829050601f8151111561015d578260405163305a27a960e01b815260040161015491906103b0565b60405180910390fd5b8051610168826103e5565b179392505050565b634e487b7160e01b5f52604160045260245ffd5b5f82601f830112610193575f5ffd5b81516001600160401b038111156101ac576101ac610170565b604051601f8201601f19908116603f011681016001600160401b03811182821017156101da576101da610170565b6040528181528382016020018510156101f1575f5ffd5b8160208501602083015e5f918101602001919091529392505050565b5f5f6040838503121561021e575f5ffd5b82516001600160401b03811115610233575f5ffd5b61023f85828601610184565b602085015190935090506001600160401b0381111561025c575f5ffd5b61026885828601610184565b9150509250929050565b600181811c9082168061028657607f821691505b6020821081036102a457634e487b7160e01b5f52602260045260245ffd5b50919050565b601f8211156102f157805f5260205f20601f840160051c810160208510156102cf5750805b601f840160051c820191505b818110156102ee575f81556001016102db565b50505b505050565b81516001600160401b0381111561030f5761030f610170565b6103238161031d8454610272565b846102aa565b6020601f821160018114610355575f831561033e5750848201515b5f19600385901b1c1916600184901b1784556102ee565b5f84815260208120601f198516915b828110156103845787850151825560209485019460019092019101610364565b50848210156103a157868401515f19600387901b60f8161c191681555b50505050600190811b01905550565b602081525f82518060208401528060208501604085015e5f604082850101526040601f19601f83011684010191505092915050565b805160208083015191908110156102a4575f1960209190910360031b1b16919050565b60805160a05160c05160e0516101005161012051610140516117de6104595f395f610d4101525f610d1001525f61101a01525f610ff201525f610f4d01525f610f7701525f610fa101526117de5ff3fe608060405234801561000f575f5ffd5b50600436106100cb575f3560e01c80638f9f07db11610088578063b6bfcf4c11610063578063b6bfcf4c14610216578063e3faad9414610229578063f08e8a3014610257578063f2fde38b1461026a575f5ffd5b80638f9f07db146101a9578063a4157296146101d6578063ae6b9d0214610203575f5ffd5b80630b8274db146100cf578063148a92c9146100e45780633077f71d1461010c5780634dd4a1681461012e57806384b0196e146101635780638da5cb5b1461017e575b5f5ffd5b6100e26100dd3660046111c1565b61027d565b005b6100f76100f236600461120b565b610334565b60405190151581526020015b60405180910390f35b6100f761011a36600461128a565b60036020525f908152604090205460ff1681565b6101557f08168eb48dd28df4c6083d3dd4aafa86d8eef003f5b394a1de9caa45aacb577e81565b604051908152602001610103565b61016b61043b565b60405161010397969594939291906112d3565b600454610191906001600160a01b031681565b6040516001600160a01b039091168152602001610103565b6100f76101b7366004611369565b600260209081525f928352604080842090915290825290205460ff1681565b6101f6604051806040016040528060018152602001601960f91b81525081565b6040516101039190611393565b6100e26102113660046113ec565b61047d565b6100e261022436600461120b565b610652565b6101f66040518060400160405280600f81526020016e2820ac9724a2102232b1b4b9b4b7b760891b81525081565b610155610265366004611456565b610b3b565b6100e261027836600461128a565b610c36565b6004546001600160a01b031633146102b05760405162461bcd60e51b81526004016102a790611471565b60405180910390fd5b6001600160a01b0382166102d65760405162461bcd60e51b81526004016102a790611494565b6001600160a01b0382165f81815260036020908152604091829020805460ff191685151590811790915591519182527fc5238a63fa205f95e98807f6cbc91d2ad8555a2250075e47491f11d9c69db3bc910160405180910390a25050565b5f610347610160850161014086016114ce565b6001600160401b031642111561035e57505f610434565b42610371610140860161012087016114ce565b6001600160401b0316111561038757505f610434565b8360a001355f0361039957505f610434565b5f6103aa608086016060870161128a565b6001600160a01b0316036103bf57505f610434565b5f61040a84848080601f0160208091040260200160405190810160405280939291908181526020018383808284375f920191909152506104049250899150610b3b9050565b90610ce1565b905061041c606086016040870161128a565b6001600160a01b0316816001600160a01b0316149150505b9392505050565b5f6060805f5f5f606061044c610d09565b610454610d3a565b604080515f80825260208201909252600f60f81b9b939a50919850469750309650945092509050565b6004546001600160a01b031633146104a75760405162461bcd60e51b81526004016102a790611471565b8281146104e85760405162461bcd60e51b815260206004820152600f60248201526e0988a9c8ea890be9a92a69a82a8869608b1b60448201526064016102a7565b5f5b8381101561064b575f858583818110610505576105056114fd565b905060200201602081019061051a919061128a565b6001600160a01b0316036105405760405162461bcd60e51b81526004016102a790611494565b828282818110610552576105526114fd565b90506020020160208101906105679190611511565b60035f87878581811061057c5761057c6114fd565b9050602002016020810190610591919061128a565b6001600160a01b0316815260208101919091526040015f20805460ff19169115159190911790558484828181106105ca576105ca6114fd565b90506020020160208101906105df919061128a565b6001600160a01b03167fc5238a63fa205f95e98807f6cbc91d2ad8555a2250075e47491f11d9c69db3bc84848481811061061b5761061b6114fd565b90506020020160208101906106309190611511565b604051901515815260200160405180910390a26001016104ea565b5050505050565b61065d838383610334565b6106a05760405162461bcd60e51b81526020600482015260146024820152732820aca4a21d1024a72b20a624a22fa82927a7a360611b60448201526064016102a7565b60025f6106b3606086016040870161128a565b6001600160a01b0316815260208082019290925260409081015f908120610160870135825290925290205460ff16156107235760405162461bcd60e51b81526020600482015260126024820152711393d390d157d053149150511657d554d15160721b60448201526064016102a7565b600160025f610738606087016040880161128a565b6001600160a01b0316815260208082019290925260409081015f90812061016088013582529092528120805460ff1916921515929092179091556107846101208501610100860161128a565b6001600160a01b031614610b36575f6107a56101208501610100860161128a565b6001600160a01b03163b116107fc5760405162461bcd60e51b815260206004820152601b60248201527f52554c455f415554484f524954595f4e4f545f434f4e5452414354000000000060448201526064016102a7565b60035f6108116101208601610100870161128a565b6001600160a01b0316815260208101919091526040015f205460ff166108795760405162461bcd60e51b815260206004820152601a60248201527f52554c455f415554484f524954595f4e4f545f5452555354454400000000000060448201526064016102a7565b5f8061088d6101208601610100870161128a565b60405163075bbcc560e11b815260e087013560048201526001600160a01b039190911690630eb7798a906024015f60405180830381865afa1580156108d4573d5f5f3e3d5ffd5b505050506040513d5f823e601f3d908101601f191682016040526108fb919081019061158d565b509092509050610911608086016060870161128a565b6001600160a01b0316826001600160a01b0316146109675760405162461bcd60e51b81526020600482015260136024820152720a4aa988abe9eae9c8aa4be9a92a69a82a8869606b1b60448201526064016102a7565b5f5b8151811015610b32575f828281518110610985576109856114fd565b60200260200101515f015190505f8383815181106109a5576109a56114fd565b602002602001015160200151905042826001600160a01b031663d9019020836040518263ffffffff1660e01b81526004016109e291815260200190565b602060405180830381865afa1580156109fd573d5f5f3e3d5ffd5b505050506040513d601f19601f82011682018060405250810190610a219190611689565b1015610a665760405162461bcd60e51b81526020600482015260146024820152731495531157d31250d15394d157d156141254915160621b60448201526064016102a7565b6040516331a9108f60e11b8152600481018290526001600160a01b038087169190841690636352211e90602401602060405180830381865afa158015610aae573d5f5f3e3d5ffd5b505050506040513d601f19601f82011682018060405250810190610ad291906116a0565b6001600160a01b031614610b285760405162461bcd60e51b815260206004820152601a60248201527f52554c455f4c4943454e53455f4f574e45525f4348414e47454400000000000060448201526064016102a7565b5050600101610969565b5050505b505050565b5f610c307f08168eb48dd28df4c6083d3dd4aafa86d8eef003f5b394a1de9caa45aacb577e83356020850135610b77606087016040880161128a565b610b87608088016060890161128a565b610b9760a0890160808a0161128a565b60a089013560c08a013560e08b0135610bb86101208d016101008e0161128a565b610bca6101408e016101208f016114ce565b8d610140016020810190610bde91906114ce565b8e61016001358f610180016020810190610bf89190611511565b604051602001610c159e9d9c9b9a999897969594939291906116bb565b60405160208183030381529060405280519060200120610d67565b92915050565b6004546001600160a01b03163314610c605760405162461bcd60e51b81526004016102a790611471565b6001600160a01b038116610c865760405162461bcd60e51b81526004016102a790611494565b6004546040516001600160a01b038084169216907f8be0079c531659141344cd1fd0a4f28419497f9722a3daafe3b4186f6b6457e0905f90a3600480546001600160a01b0319166001600160a01b0392909216919091179055565b5f5f5f5f610cef8686610d93565b925092509250610cff8282610ddc565b5090949350505050565b6060610d357f00000000000000000000000000000000000000000000000000000000000000005f610e98565b905090565b6060610d357f00000000000000000000000000000000000000000000000000000000000000006001610e98565b5f610c30610d73610f41565b8360405161190160f01b8152600281019290925260228201526042902090565b5f5f5f8351604103610dca576020840151604085015160608601515f1a610dbc8882858561106a565b955095509550505050610dd5565b505081515f91506002905b9250925092565b5f826003811115610def57610def611762565b03610df8575050565b6001826003811115610e0c57610e0c611762565b03610e2a5760405163f645eedf60e01b815260040160405180910390fd5b6002826003811115610e3e57610e3e611762565b03610e5f5760405163fce698f760e01b8152600481018290526024016102a7565b6003826003811115610e7357610e73611762565b03610e94576040516335e2f38360e21b8152600481018290526024016102a7565b5050565b606060ff8314610eb257610eab83611132565b9050610c30565b818054610ebe90611776565b80601f0160208091040260200160405190810160405280929190818152602001828054610eea90611776565b8015610f355780601f10610f0c57610100808354040283529160200191610f35565b820191905f5260205f20905b815481529060010190602001808311610f1857829003601f168201915b50505050509050610c30565b5f306001600160a01b037f000000000000000000000000000000000000000000000000000000000000000016148015610f9957507f000000000000000000000000000000000000000000000000000000000000000046145b15610fc357507f000000000000000000000000000000000000000000000000000000000000000090565b610d35604080517f8b73c3c69bb8fe3d512ecc4cf759cc79239f7b179b0ffacaa9a75d522b39400f60208201527f0000000000000000000000000000000000000000000000000000000000000000918101919091527f000000000000000000000000000000000000000000000000000000000000000060608201524660808201523060a08201525f9060c00160405160208183030381529060405280519060200120905090565b5f80807f7fffffffffffffffffffffffffffffff5d576e7357a4501ddfe92f46681b20a08411156110a357505f91506003905082611128565b604080515f808252602082018084528a905260ff891692820192909252606081018790526080810186905260019060a0016020604051602081039080840390855afa1580156110f4573d5f5f3e3d5ffd5b5050604051601f1901519150506001600160a01b03811661111f57505f925060019150829050611128565b92505f91508190505b9450945094915050565b60605f61113e8361116f565b6040805160208082528183019092529192505f91906020820181803683375050509182525060208101929092525090565b5f60ff8216601f811115610c3057604051632cd44ac360e21b815260040160405180910390fd5b6001600160a01b03811681146111aa575f5ffd5b50565b803580151581146111bc575f5ffd5b919050565b5f5f604083850312156111d2575f5ffd5b82356111dd81611196565b91506111eb602084016111ad565b90509250929050565b5f6101a08284031215611205575f5ffd5b50919050565b5f5f5f6101c0848603121561121e575f5ffd5b61122885856111f4565b92506101a08401356001600160401b03811115611243575f5ffd5b8401601f81018613611253575f5ffd5b80356001600160401b03811115611268575f5ffd5b866020828401011115611279575f5ffd5b939660209190910195509293505050565b5f6020828403121561129a575f5ffd5b813561043481611196565b5f81518084528060208401602086015e5f602082860101526020601f19601f83011685010191505092915050565b60ff60f81b8816815260e060208201525f6112f160e08301896112a5565b828103604084015261130381896112a5565b606084018890526001600160a01b038716608085015260a0840186905283810360c0850152845180825260208087019350909101905f5b8181101561135857835183526020938401939092019160010161133a565b50909b9a5050505050505050505050565b5f5f6040838503121561137a575f5ffd5b823561138581611196565b946020939093013593505050565b602081525f61043460208301846112a5565b5f5f83601f8401126113b5575f5ffd5b5081356001600160401b038111156113cb575f5ffd5b6020830191508360208260051b85010111156113e5575f5ffd5b9250929050565b5f5f5f5f604085870312156113ff575f5ffd5b84356001600160401b03811115611414575f5ffd5b611420878288016113a5565b90955093505060208501356001600160401b0381111561143e575f5ffd5b61144a878288016113a5565b95989497509550505050565b5f6101a08284031215611467575f5ffd5b61043483836111f4565b6020808252600990820152682727aa2fa7aba722a960b91b604082015260600190565b6020808252600c908201526b5a45524f5f4144445245535360a01b604082015260600190565b6001600160401b03811681146111aa575f5ffd5b5f602082840312156114de575f5ffd5b8135610434816114ba565b634e487b7160e01b5f52604160045260245ffd5b634e487b7160e01b5f52603260045260245ffd5b5f60208284031215611521575f5ffd5b610434826111ad565b604080519081016001600160401b038111828210171561154c5761154c6114e9565b60405290565b604051601f8201601f191681016001600160401b038111828210171561157a5761157a6114e9565b604052919050565b80516111bc816114ba565b5f5f5f6060848603121561159f575f5ffd5b83516115aa81611196565b60208501519093506001600160401b038111156115c5575f5ffd5b8401601f810186136115d5575f5ffd5b80516001600160401b038111156115ee576115ee6114e9565b6115fd60208260051b01611552565b8082825260208201915060208360061b85010192508883111561161e575f5ffd5b6020840193505b8284101561166e576040848a03121561163c575f5ffd5b61164461152a565b845161164f81611196565b8152602085810151818301529083526040909401939190910190611625565b94506116809250505060408501611582565b90509250925092565b5f60208284031215611699575f5ffd5b5051919050565b5f602082840312156116b0575f5ffd5b815161043481611196565b8e8152602081018e9052604081018d90526001600160a01b038c811660608301528b811660808301528a1660a08201526101c081018960c08301528860e0830152876101008301526117196101208301886001600160a01b03169052565b6001600160401b0386166101408301526001600160401b0385166101608301528361018083015261174f6101a083018415159052565b9f9e505050505050505050505050505050565b634e487b7160e01b5f52602160045260245ffd5b600181811c9082168061178a57607f821691505b60208210810361120557634e487b7160e01b5f52602260045260245ffdfea264697066735822122049f0d4aab3b43e16f620c5ef80c90bba78dc1a327a3f17cad00aa3238787d74d64736f6c634300081c0033",
  "linkReferences": {},
  "deployedLinkReferences": {},
  "immutableReferences": {
    "4967": [
      {
        "length": 32,
        "start": 4001
      }
    ],
    "4969": [
      {
        "length": 32,
        "start": 3959
      }
    ],
    "4971": [
      {
        "length": 32,
        "start": 3917
      }
    ],
    "4973": [
      {
        "length": 32,
        "start": 4082
      }
    ],
    "4975": [
      {
        "length": 32,
        "start": 4122
      }
    ],
    "4978": [
      {
        "length": 32,
        "start": 3344
      }
    ],
    "4981": [
      {
        "length": 32,
        "start": 3393
      }
    ]
  },
  "inputSourceName": "project/contracts/PayIDVerifier.sol",
  "buildInfoId": "solc-0_8_28-f53577289fba9c2568fefafe3e5ed718f35b09f7"
}