{
  "_format": "hh3-artifact-1",
  "contractName": "RuleItemERC721",
  "sourceName": "contracts/RuleItemERC721.sol",
  "abi": [
    {
      "inputs": [
        {
          "internalType": "string",
          "name": "name",
          "type": "string"
        },
        {
          "internalType": "string",
          "name": "symbol",
          "type": "string"
        },
        {
          "internalType": "address",
          "name": "admin",
          "type": "address"
        },
        {
          "internalType": "address",
          "name": "oracle",
          "type": "address"
        }
      ],
      "stateMutability": "nonpayable",
      "type": "constructor"
    },
    {
      "inputs": [],
      "name": "AccessControlBadConfirmation",
      "type": "error"
    },
    {
      "inputs": [
        {
          "internalType": "address",
          "name": "account",
          "type": "address"
        },
        {
          "internalType": "bytes32",
          "name": "neededRole",
          "type": "bytes32"
        }
      ],
      "name": "AccessControlUnauthorizedAccount",
      "type": "error"
    },
    {
      "inputs": [
        {
          "internalType": "address",
          "name": "sender",
          "type": "address"
        },
        {
          "internalType": "uint256",
          "name": "tokenId",
          "type": "uint256"
        },
        {
          "internalType": "address",
          "name": "owner",
          "type": "address"
        }
      ],
      "name": "ERC721IncorrectOwner",
      "type": "error"
    },
    {
      "inputs": [
        {
          "internalType": "address",
          "name": "operator",
          "type": "address"
        },
        {
          "internalType": "uint256",
          "name": "tokenId",
          "type": "uint256"
        }
      ],
      "name": "ERC721InsufficientApproval",
      "type": "error"
    },
    {
      "inputs": [
        {
          "internalType": "address",
          "name": "approver",
          "type": "address"
        }
      ],
      "name": "ERC721InvalidApprover",
      "type": "error"
    },
    {
      "inputs": [
        {
          "internalType": "address",
          "name": "operator",
          "type": "address"
        }
      ],
      "name": "ERC721InvalidOperator",
      "type": "error"
    },
    {
      "inputs": [
        {
          "internalType": "address",
          "name": "owner",
          "type": "address"
        }
      ],
      "name": "ERC721InvalidOwner",
      "type": "error"
    },
    {
      "inputs": [
        {
          "internalType": "address",
          "name": "receiver",
          "type": "address"
        }
      ],
      "name": "ERC721InvalidReceiver",
      "type": "error"
    },
    {
      "inputs": [
        {
          "internalType": "address",
          "name": "sender",
          "type": "address"
        }
      ],
      "name": "ERC721InvalidSender",
      "type": "error"
    },
    {
      "inputs": [
        {
          "internalType": "uint256",
          "name": "tokenId",
          "type": "uint256"
        }
      ],
      "name": "ERC721NonexistentToken",
      "type": "error"
    },
    {
      "inputs": [],
      "name": "EnforcedPause",
      "type": "error"
    },
    {
      "inputs": [],
      "name": "ExpectedPause",
      "type": "error"
    },
    {
      "anonymous": false,
      "inputs": [
        {
          "indexed": true,
          "internalType": "address",
          "name": "owner",
          "type": "address"
        },
        {
          "indexed": true,
          "internalType": "address",
          "name": "approved",
          "type": "address"
        },
        {
          "indexed": true,
          "internalType": "uint256",
          "name": "tokenId",
          "type": "uint256"
        }
      ],
      "name": "Approval",
      "type": "event"
    },
    {
      "anonymous": false,
      "inputs": [
        {
          "indexed": true,
          "internalType": "address",
          "name": "owner",
          "type": "address"
        },
        {
          "indexed": true,
          "internalType": "address",
          "name": "operator",
          "type": "address"
        },
        {
          "indexed": false,
          "internalType": "bool",
          "name": "approved",
          "type": "bool"
        }
      ],
      "name": "ApprovalForAll",
      "type": "event"
    },
    {
      "anonymous": false,
      "inputs": [
        {
          "indexed": false,
          "internalType": "uint256",
          "name": "_fromTokenId",
          "type": "uint256"
        },
        {
          "indexed": false,
          "internalType": "uint256",
          "name": "_toTokenId",
          "type": "uint256"
        }
      ],
      "name": "BatchMetadataUpdate",
      "type": "event"
    },
    {
      "anonymous": false,
      "inputs": [
        {
          "indexed": false,
          "internalType": "uint256",
          "name": "_tokenId",
          "type": "uint256"
        }
      ],
      "name": "MetadataUpdate",
      "type": "event"
    },
    {
      "anonymous": false,
      "inputs": [
        {
          "indexed": false,
          "internalType": "address",
          "name": "account",
          "type": "address"
        }
      ],
      "name": "Paused",
      "type": "event"
    },
    {
      "anonymous": false,
      "inputs": [
        {
          "indexed": true,
          "internalType": "bytes32",
          "name": "role",
          "type": "bytes32"
        },
        {
          "indexed": true,
          "internalType": "bytes32",
          "name": "previousAdminRole",
          "type": "bytes32"
        },
        {
          "indexed": true,
          "internalType": "bytes32",
          "name": "newAdminRole",
          "type": "bytes32"
        }
      ],
      "name": "RoleAdminChanged",
      "type": "event"
    },
    {
      "anonymous": false,
      "inputs": [
        {
          "indexed": true,
          "internalType": "bytes32",
          "name": "role",
          "type": "bytes32"
        },
        {
          "indexed": true,
          "internalType": "address",
          "name": "account",
          "type": "address"
        },
        {
          "indexed": true,
          "internalType": "address",
          "name": "sender",
          "type": "address"
        }
      ],
      "name": "RoleGranted",
      "type": "event"
    },
    {
      "anonymous": false,
      "inputs": [
        {
          "indexed": true,
          "internalType": "bytes32",
          "name": "role",
          "type": "bytes32"
        },
        {
          "indexed": true,
          "internalType": "address",
          "name": "account",
          "type": "address"
        },
        {
          "indexed": true,
          "internalType": "address",
          "name": "sender",
          "type": "address"
        }
      ],
      "name": "RoleRevoked",
      "type": "event"
    },
    {
      "anonymous": false,
      "inputs": [
        {
          "indexed": true,
          "internalType": "uint256",
          "name": "ruleId",
          "type": "uint256"
        },
        {
          "indexed": true,
          "internalType": "uint256",
          "name": "tokenId",
          "type": "uint256"
        }
      ],
      "name": "RuleActivated",
      "type": "event"
    },
    {
      "anonymous": false,
      "inputs": [
        {
          "indexed": true,
          "internalType": "uint256",
          "name": "ruleId",
          "type": "uint256"
        },
        {
          "indexed": true,
          "internalType": "uint256",
          "name": "rootRuleId",
          "type": "uint256"
        },
        {
          "indexed": true,
          "internalType": "uint256",
          "name": "parentRuleId",
          "type": "uint256"
        },
        {
          "indexed": false,
          "internalType": "uint16",
          "name": "version",
          "type": "uint16"
        }
      ],
      "name": "RuleCreated",
      "type": "event"
    },
    {
      "anonymous": false,
      "inputs": [
        {
          "indexed": true,
          "internalType": "uint256",
          "name": "ruleId",
          "type": "uint256"
        }
      ],
      "name": "RuleDeprecated",
      "type": "event"
    },
    {
      "anonymous": false,
      "inputs": [
        {
          "indexed": true,
          "internalType": "uint256",
          "name": "tokenId",
          "type": "uint256"
        },
        {
          "indexed": false,
          "internalType": "uint256",
          "name": "newExpiry",
          "type": "uint256"
        }
      ],
      "name": "RuleExpiryExtended",
      "type": "event"
    },
    {
      "anonymous": false,
      "inputs": [
        {
          "indexed": true,
          "internalType": "address",
          "name": "user",
          "type": "address"
        },
        {
          "indexed": false,
          "internalType": "uint256",
          "name": "expiry",
          "type": "uint256"
        }
      ],
      "name": "Subscribed",
      "type": "event"
    },
    {
      "anonymous": false,
      "inputs": [
        {
          "indexed": false,
          "internalType": "uint256",
          "name": "newCents",
          "type": "uint256"
        }
      ],
      "name": "SubscriptionUsdCentsUpdated",
      "type": "event"
    },
    {
      "anonymous": false,
      "inputs": [
        {
          "indexed": true,
          "internalType": "address",
          "name": "from",
          "type": "address"
        },
        {
          "indexed": true,
          "internalType": "address",
          "name": "to",
          "type": "address"
        },
        {
          "indexed": true,
          "internalType": "uint256",
          "name": "tokenId",
          "type": "uint256"
        }
      ],
      "name": "Transfer",
      "type": "event"
    },
    {
      "anonymous": false,
      "inputs": [
        {
          "indexed": false,
          "internalType": "address",
          "name": "account",
          "type": "address"
        }
      ],
      "name": "Unpaused",
      "type": "event"
    },
    {
      "inputs": [],
      "name": "ADMIN_ROLE",
      "outputs": [
        {
          "internalType": "bytes32",
          "name": "",
          "type": "bytes32"
        }
      ],
      "stateMutability": "view",
      "type": "function"
    },
    {
      "inputs": [],
      "name": "DEFAULT_ADMIN_ROLE",
      "outputs": [
        {
          "internalType": "bytes32",
          "name": "",
          "type": "bytes32"
        }
      ],
      "stateMutability": "view",
      "type": "function"
    },
    {
      "inputs": [],
      "name": "MAX_SLOT",
      "outputs": [
        {
          "internalType": "uint8",
          "name": "",
          "type": "uint8"
        }
      ],
      "stateMutability": "view",
      "type": "function"
    },
    {
      "inputs": [],
      "name": "PAUSER_ROLE",
      "outputs": [
        {
          "internalType": "bytes32",
          "name": "",
          "type": "bytes32"
        }
      ],
      "stateMutability": "view",
      "type": "function"
    },
    {
      "inputs": [],
      "name": "SUB_DURATION",
      "outputs": [
        {
          "internalType": "uint256",
          "name": "",
          "type": "uint256"
        }
      ],
      "stateMutability": "view",
      "type": "function"
    },
    {
      "inputs": [
        {
          "internalType": "uint256",
          "name": "ruleId",
          "type": "uint256"
        }
      ],
      "name": "activateRule",
      "outputs": [
        {
          "internalType": "uint256",
          "name": "tokenId",
          "type": "uint256"
        }
      ],
      "stateMutability": "nonpayable",
      "type": "function"
    },
    {
      "inputs": [
        {
          "internalType": "uint256",
          "name": "",
          "type": "uint256"
        }
      ],
      "name": "activeRuleOf",
      "outputs": [
        {
          "internalType": "uint256",
          "name": "",
          "type": "uint256"
        }
      ],
      "stateMutability": "view",
      "type": "function"
    },
    {
      "inputs": [
        {
          "internalType": "address",
          "name": "to",
          "type": "address"
        },
        {
          "internalType": "uint256",
          "name": "tokenId",
          "type": "uint256"
        }
      ],
      "name": "approve",
      "outputs": [],
      "stateMutability": "nonpayable",
      "type": "function"
    },
    {
      "inputs": [
        {
          "internalType": "address",
          "name": "owner",
          "type": "address"
        }
      ],
      "name": "balanceOf",
      "outputs": [
        {
          "internalType": "uint256",
          "name": "",
          "type": "uint256"
        }
      ],
      "stateMutability": "view",
      "type": "function"
    },
    {
      "inputs": [
        {
          "internalType": "uint256",
          "name": "tokenId",
          "type": "uint256"
        }
      ],
      "name": "burnExpired",
      "outputs": [],
      "stateMutability": "nonpayable",
      "type": "function"
    },
    {
      "inputs": [
        {
          "internalType": "bytes32",
          "name": "ruleHash",
          "type": "bytes32"
        },
        {
          "internalType": "string",
          "name": "uri",
          "type": "string"
        }
      ],
      "name": "createRule",
      "outputs": [
        {
          "internalType": "uint256",
          "name": "ruleId",
          "type": "uint256"
        }
      ],
      "stateMutability": "nonpayable",
      "type": "function"
    },
    {
      "inputs": [
        {
          "internalType": "uint256",
          "name": "parentRuleId",
          "type": "uint256"
        },
        {
          "internalType": "bytes32",
          "name": "newHash",
          "type": "bytes32"
        },
        {
          "internalType": "string",
          "name": "newUri",
          "type": "string"
        }
      ],
      "name": "createRuleVersion",
      "outputs": [
        {
          "internalType": "uint256",
          "name": "ruleId",
          "type": "uint256"
        }
      ],
      "stateMutability": "nonpayable",
      "type": "function"
    },
    {
      "inputs": [],
      "name": "deployer",
      "outputs": [
        {
          "internalType": "address",
          "name": "",
          "type": "address"
        }
      ],
      "stateMutability": "view",
      "type": "function"
    },
    {
      "inputs": [],
      "name": "ethUsdFeed",
      "outputs": [
        {
          "internalType": "contract AggregatorV3Interface",
          "name": "",
          "type": "address"
        }
      ],
      "stateMutability": "view",
      "type": "function"
    },
    {
      "inputs": [
        {
          "internalType": "uint256",
          "name": "tokenId",
          "type": "uint256"
        },
        {
          "internalType": "uint256",
          "name": "newExpiry",
          "type": "uint256"
        }
      ],
      "name": "extendRuleExpiry",
      "outputs": [],
      "stateMutability": "payable",
      "type": "function"
    },
    {
      "inputs": [
        {
          "internalType": "uint256",
          "name": "tokenId",
          "type": "uint256"
        }
      ],
      "name": "getApproved",
      "outputs": [
        {
          "internalType": "address",
          "name": "",
          "type": "address"
        }
      ],
      "stateMutability": "view",
      "type": "function"
    },
    {
      "inputs": [
        {
          "internalType": "bytes32",
          "name": "role",
          "type": "bytes32"
        }
      ],
      "name": "getRoleAdmin",
      "outputs": [
        {
          "internalType": "bytes32",
          "name": "",
          "type": "bytes32"
        }
      ],
      "stateMutability": "view",
      "type": "function"
    },
    {
      "inputs": [
        {
          "internalType": "uint256",
          "name": "ruleId",
          "type": "uint256"
        }
      ],
      "name": "getRule",
      "outputs": [
        {
          "internalType": "bytes32",
          "name": "hash",
          "type": "bytes32"
        },
        {
          "internalType": "string",
          "name": "uri",
          "type": "string"
        },
        {
          "internalType": "address",
          "name": "creator",
          "type": "address"
        },
        {
          "internalType": "uint256",
          "name": "rootRuleId",
          "type": "uint256"
        },
        {
          "internalType": "uint16",
          "name": "version",
          "type": "uint16"
        },
        {
          "internalType": "bool",
          "name": "deprecated",
          "type": "bool"
        },
        {
          "internalType": "bool",
          "name": "active",
          "type": "bool"
        }
      ],
      "stateMutability": "view",
      "type": "function"
    },
    {
      "inputs": [
        {
          "internalType": "bytes32",
          "name": "role",
          "type": "bytes32"
        },
        {
          "internalType": "address",
          "name": "account",
          "type": "address"
        }
      ],
      "name": "grantRole",
      "outputs": [],
      "stateMutability": "nonpayable",
      "type": "function"
    },
    {
      "inputs": [
        {
          "internalType": "bytes32",
          "name": "role",
          "type": "bytes32"
        },
        {
          "internalType": "address",
          "name": "account",
          "type": "address"
        }
      ],
      "name": "hasRole",
      "outputs": [
        {
          "internalType": "bool",
          "name": "",
          "type": "bool"
        }
      ],
      "stateMutability": "view",
      "type": "function"
    },
    {
      "inputs": [
        {
          "internalType": "address",
          "name": "user",
          "type": "address"
        }
      ],
      "name": "hasSubscription",
      "outputs": [
        {
          "internalType": "bool",
          "name": "",
          "type": "bool"
        }
      ],
      "stateMutability": "view",
      "type": "function"
    },
    {
      "inputs": [
        {
          "internalType": "address",
          "name": "owner",
          "type": "address"
        },
        {
          "internalType": "address",
          "name": "operator",
          "type": "address"
        }
      ],
      "name": "isApprovedForAll",
      "outputs": [
        {
          "internalType": "bool",
          "name": "",
          "type": "bool"
        }
      ],
      "stateMutability": "view",
      "type": "function"
    },
    {
      "inputs": [
        {
          "internalType": "address",
          "name": "",
          "type": "address"
        }
      ],
      "name": "logicalRuleCount",
      "outputs": [
        {
          "internalType": "uint8",
          "name": "",
          "type": "uint8"
        }
      ],
      "stateMutability": "view",
      "type": "function"
    },
    {
      "inputs": [],
      "name": "name",
      "outputs": [
        {
          "internalType": "string",
          "name": "",
          "type": "string"
        }
      ],
      "stateMutability": "view",
      "type": "function"
    },
    {
      "inputs": [],
      "name": "nextRuleId",
      "outputs": [
        {
          "internalType": "uint256",
          "name": "",
          "type": "uint256"
        }
      ],
      "stateMutability": "view",
      "type": "function"
    },
    {
      "inputs": [],
      "name": "nextTokenId",
      "outputs": [
        {
          "internalType": "uint256",
          "name": "",
          "type": "uint256"
        }
      ],
      "stateMutability": "view",
      "type": "function"
    },
    {
      "inputs": [
        {
          "internalType": "uint256",
          "name": "tokenId",
          "type": "uint256"
        }
      ],
      "name": "ownerOf",
      "outputs": [
        {
          "internalType": "address",
          "name": "",
          "type": "address"
        }
      ],
      "stateMutability": "view",
      "type": "function"
    },
    {
      "inputs": [],
      "name": "paused",
      "outputs": [
        {
          "internalType": "bool",
          "name": "",
          "type": "bool"
        }
      ],
      "stateMutability": "view",
      "type": "function"
    },
    {
      "inputs": [
        {
          "internalType": "bytes32",
          "name": "role",
          "type": "bytes32"
        },
        {
          "internalType": "address",
          "name": "callerConfirmation",
          "type": "address"
        }
      ],
      "name": "renounceRole",
      "outputs": [],
      "stateMutability": "nonpayable",
      "type": "function"
    },
    {
      "inputs": [
        {
          "internalType": "bytes32",
          "name": "role",
          "type": "bytes32"
        },
        {
          "internalType": "address",
          "name": "account",
          "type": "address"
        }
      ],
      "name": "revokeRole",
      "outputs": [],
      "stateMutability": "nonpayable",
      "type": "function"
    },
    {
      "inputs": [
        {
          "internalType": "uint256",
          "name": "",
          "type": "uint256"
        }
      ],
      "name": "rootRuleOf",
      "outputs": [
        {
          "internalType": "uint256",
          "name": "",
          "type": "uint256"
        }
      ],
      "stateMutability": "view",
      "type": "function"
    },
    {
      "inputs": [
        {
          "internalType": "uint256",
          "name": "",
          "type": "uint256"
        }
      ],
      "name": "ruleExpiry",
      "outputs": [
        {
          "internalType": "uint256",
          "name": "",
          "type": "uint256"
        }
      ],
      "stateMutability": "view",
      "type": "function"
    },
    {
      "inputs": [
        {
          "internalType": "uint256",
          "name": "",
          "type": "uint256"
        }
      ],
      "name": "ruleTokenId",
      "outputs": [
        {
          "internalType": "uint256",
          "name": "",
          "type": "uint256"
        }
      ],
      "stateMutability": "view",
      "type": "function"
    },
    {
      "inputs": [
        {
          "internalType": "uint256",
          "name": "",
          "type": "uint256"
        }
      ],
      "name": "rules",
      "outputs": [
        {
          "internalType": "bytes32",
          "name": "ruleHash",
          "type": "bytes32"
        },
        {
          "internalType": "string",
          "name": "uri",
          "type": "string"
        },
        {
          "internalType": "address",
          "name": "creator",
          "type": "address"
        },
        {
          "internalType": "uint256",
          "name": "parentRuleId",
          "type": "uint256"
        },
        {
          "internalType": "uint16",
          "name": "version",
          "type": "uint16"
        },
        {
          "internalType": "bool",
          "name": "deprecated",
          "type": "bool"
        },
        {
          "internalType": "uint256",
          "name": "tokenId",
          "type": "uint256"
        }
      ],
      "stateMutability": "view",
      "type": "function"
    },
    {
      "inputs": [
        {
          "internalType": "address",
          "name": "from",
          "type": "address"
        },
        {
          "internalType": "address",
          "name": "to",
          "type": "address"
        },
        {
          "internalType": "uint256",
          "name": "tokenId",
          "type": "uint256"
        }
      ],
      "name": "safeTransferFrom",
      "outputs": [],
      "stateMutability": "nonpayable",
      "type": "function"
    },
    {
      "inputs": [
        {
          "internalType": "address",
          "name": "from",
          "type": "address"
        },
        {
          "internalType": "address",
          "name": "to",
          "type": "address"
        },
        {
          "internalType": "uint256",
          "name": "tokenId",
          "type": "uint256"
        },
        {
          "internalType": "bytes",
          "name": "data",
          "type": "bytes"
        }
      ],
      "name": "safeTransferFrom",
      "outputs": [],
      "stateMutability": "nonpayable",
      "type": "function"
    },
    {
      "inputs": [
        {
          "internalType": "address",
          "name": "operator",
          "type": "address"
        },
        {
          "internalType": "bool",
          "name": "approved",
          "type": "bool"
        }
      ],
      "name": "setApprovalForAll",
      "outputs": [],
      "stateMutability": "nonpayable",
      "type": "function"
    },
    {
      "inputs": [
        {
          "internalType": "uint256",
          "name": "newCents",
          "type": "uint256"
        }
      ],
      "name": "setSubscriptionUsdCents",
      "outputs": [],
      "stateMutability": "nonpayable",
      "type": "function"
    },
    {
      "inputs": [],
      "name": "subscribe",
      "outputs": [],
      "stateMutability": "payable",
      "type": "function"
    },
    {
      "inputs": [
        {
          "internalType": "address",
          "name": "",
          "type": "address"
        }
      ],
      "name": "subscriptionExpiry",
      "outputs": [
        {
          "internalType": "uint256",
          "name": "",
          "type": "uint256"
        }
      ],
      "stateMutability": "view",
      "type": "function"
    },
    {
      "inputs": [],
      "name": "subscriptionPriceETH",
      "outputs": [
        {
          "internalType": "uint256",
          "name": "",
          "type": "uint256"
        }
      ],
      "stateMutability": "view",
      "type": "function"
    },
    {
      "inputs": [],
      "name": "subscriptionUsdCents",
      "outputs": [
        {
          "internalType": "uint256",
          "name": "",
          "type": "uint256"
        }
      ],
      "stateMutability": "view",
      "type": "function"
    },
    {
      "inputs": [
        {
          "internalType": "bytes4",
          "name": "interfaceId",
          "type": "bytes4"
        }
      ],
      "name": "supportsInterface",
      "outputs": [
        {
          "internalType": "bool",
          "name": "",
          "type": "bool"
        }
      ],
      "stateMutability": "view",
      "type": "function"
    },
    {
      "inputs": [],
      "name": "symbol",
      "outputs": [
        {
          "internalType": "string",
          "name": "",
          "type": "string"
        }
      ],
      "stateMutability": "view",
      "type": "function"
    },
    {
      "inputs": [
        {
          "internalType": "uint256",
          "name": "",
          "type": "uint256"
        }
      ],
      "name": "tokenRule",
      "outputs": [
        {
          "internalType": "uint256",
          "name": "",
          "type": "uint256"
        }
      ],
      "stateMutability": "view",
      "type": "function"
    },
    {
      "inputs": [
        {
          "internalType": "uint256",
          "name": "tokenId",
          "type": "uint256"
        }
      ],
      "name": "tokenURI",
      "outputs": [
        {
          "internalType": "string",
          "name": "",
          "type": "string"
        }
      ],
      "stateMutability": "view",
      "type": "function"
    },
    {
      "inputs": [
        {
          "internalType": "address",
          "name": "from",
          "type": "address"
        },
        {
          "internalType": "address",
          "name": "to",
          "type": "address"
        },
        {
          "internalType": "uint256",
          "name": "tokenId",
          "type": "uint256"
        }
      ],
      "name": "transferFrom",
      "outputs": [],
      "stateMutability": "nonpayable",
      "type": "function"
    }
  ],
  "bytecode": "0x60a06040526023600955348015610014575f5ffd5b5060405161341a38038061341a83398101604081905261003391610244565b83835f610040838261034d565b50600161004d828261034d565b5061005c91505f9050836100df565b506100877fa49807205ce4d355092ef5a8a18f56e8913cf4a201fbe287825b095693c21775836100df565b506100b27f65d7a28e3265b37a6474929f336521b332c1681b933f6cb9f3376673440d862a836100df565b50600a80546001600160a01b0319166001600160a01b039290921691909117905550503360805250610407565b5f8281526007602090815260408083206001600160a01b038516845290915281205460ff16610183575f8381526007602090815260408083206001600160a01b03861684529091529020805460ff1916600117905561013b3390565b6001600160a01b0316826001600160a01b0316847f2f8788117e7eff1d82e926ec794901d17c78024a50270940304540a733656f0d60405160405180910390a4506001610186565b505f5b92915050565b634e487b7160e01b5f52604160045260245ffd5b5f82601f8301126101af575f5ffd5b81516001600160401b038111156101c8576101c861018c565b604051601f8201601f19908116603f011681016001600160401b03811182821017156101f6576101f661018c565b60405281815283820160200185101561020d575f5ffd5b8160208501602083015e5f918101602001919091529392505050565b80516001600160a01b038116811461023f575f5ffd5b919050565b5f5f5f5f60808587031215610257575f5ffd5b84516001600160401b0381111561026c575f5ffd5b610278878288016101a0565b602087015190955090506001600160401b03811115610295575f5ffd5b6102a1878288016101a0565b9350506102b060408601610229565b91506102be60608601610229565b905092959194509250565b600181811c908216806102dd57607f821691505b6020821081036102fb57634e487b7160e01b5f52602260045260245ffd5b50919050565b601f82111561034857805f5260205f20601f840160051c810160208510156103265750805b601f840160051c820191505b81811015610345575f8155600101610332565b50505b505050565b81516001600160401b038111156103665761036661018c565b61037a8161037484546102c9565b84610301565b6020601f8211600181146103ac575f83156103955750848201515b5f19600385901b1c1916600184901b178455610345565b5f84815260208120601f198516915b828110156103db57878501518255602094850194600190920191016103bb565b50848210156103f857868401515f19600387901b60f8161c191681555b50505050600190811b01905550565b608051612fed61042d5f395f81816107e1015281816116db0152611be50152612fed5ff3fe608060405260043610610280575f3560e01c806375b238fc11610155578063c87b56dd116100be578063d60d36b611610078578063d60d36b614610803578063d901902014610843578063e3d583611461086e578063e63ab1e914610881578063e985e9c5146108b4578063f4a96d22146108d3575f5ffd5b8063c87b56dd14610749578063d098769b14610768578063d2f2970714610787578063d36013ce1461079d578063d547741f146107b1578063d5f39488146107d0575f5ffd5b80639f6d78841161010f5780639f6d788414610677578063a217fddf146106a2578063a22cb465146106b5578063a28f6260146106d4578063b88d4fde146106ff578063c40df8541461071e575f5ffd5b806375b238fc146105cb5780638009b7bd146105fe57806388d6b10e1461061d5780638f449a051461063c57806391d148541461064457806395d89b4114610663575f5ffd5b80632f2ff15d116101f75780636352211e116101b15780636352211e1461050d57806370a082311461052c57806370f047b01461054b57806374cdfa51146105605780637514e80e1461057f57806375794a3c146105b6575f5ffd5b80632f2ff15d1461043c57806336568abe1461045b57806342842e0e1461047a57806348462037146104995780635c975abb146104cb57806360a85ef5146104e2575f5ffd5b8063095ea7b311610248578063095ea7b31461037b57806323b872dd1461039c57806323f889fc146103bb578063248a9ca3146103da5780632b942d5b146104085780632bca0efb14610427575f5ffd5b806301ffc9a71461028457806304d6ded4146102b857806305a89119146102ea57806306fdde0314610323578063081812fc14610344575b5f5ffd5b34801561028f575f5ffd5b506102a361029e3660046128b3565b6108e7565b60405190151581526020015b60405180910390f35b3480156102c3575f5ffd5b506102d76102d23660046128ce565b6108f7565b6040516102af9796959493929190612913565b3480156102f5575f5ffd5b506103156103043660046128ce565b60106020525f908152604090205481565b6040519081526020016102af565b34801561032e575f5ffd5b506103376109cc565b6040516102af9190612964565b34801561034f575f5ffd5b5061036361035e3660046128ce565b610a5b565b6040516001600160a01b0390911681526020016102af565b348015610386575f5ffd5b5061039a610395366004612991565b610a82565b005b3480156103a7575f5ffd5b5061039a6103b63660046129b9565b610a91565b3480156103c6575f5ffd5b506103156103d5366004612a38565b610b1f565b3480156103e5575f5ffd5b506103156103f43660046128ce565b5f9081526007602052604090206001015490565b348015610413575f5ffd5b506103156104223660046128ce565b610d87565b348015610432575f5ffd5b5061031560095481565b348015610447575f5ffd5b5061039a610456366004612a80565b611064565b348015610466575f5ffd5b5061039a610475366004612a80565b611088565b348015610485575f5ffd5b5061039a6104943660046129b9565b6110c0565b3480156104a4575f5ffd5b506104b86104b33660046128ce565b6110da565b6040516102af9796959493929190612aaa565b3480156104d6575f5ffd5b5060085460ff166102a3565b3480156104ed575f5ffd5b506103156104fc366004612afd565b60126020525f908152604090205481565b348015610518575f5ffd5b506103636105273660046128ce565b61126c565b348015610537575f5ffd5b50610315610546366004612afd565b611276565b348015610556575f5ffd5b50610315600b5481565b34801561056b575f5ffd5b5061039a61057a3660046128ce565b6112bb565b34801561058a575f5ffd5b506102a3610599366004612afd565b6001600160a01b03165f9081526012602052604090205442111590565b3480156105c1575f5ffd5b50610315600c5481565b3480156105d6575f5ffd5b506103157fa49807205ce4d355092ef5a8a18f56e8913cf4a201fbe287825b095693c2177581565b348015610609575f5ffd5b50600a54610363906001600160a01b031681565b348015610628575f5ffd5b50610315610637366004612b16565b611361565b61039a61162d565b34801561064f575f5ffd5b506102a361065e366004612a80565b61180a565b34801561066e575f5ffd5b50610337611834565b348015610682575f5ffd5b506103156106913660046128ce565b600f6020525f908152604090205481565b3480156106ad575f5ffd5b506103155f81565b3480156106c0575f5ffd5b5061039a6106cf366004612b65565b611843565b3480156106df575f5ffd5b506103156106ee3660046128ce565b600e6020525f908152604090205481565b34801561070a575f5ffd5b5061039a610719366004612bb2565b61184e565b348015610729575f5ffd5b506103156107383660046128ce565b60146020525f908152604090205481565b348015610754575f5ffd5b506103376107633660046128ce565b611866565b348015610773575f5ffd5b5061039a6107823660046128ce565b611871565b348015610792575f5ffd5b5061031562278d0081565b3480156107a8575f5ffd5b5061031561198f565b3480156107bc575f5ffd5b5061039a6107cb366004612a80565b611a6a565b3480156107db575f5ffd5b506103637f000000000000000000000000000000000000000000000000000000000000000081565b34801561080e575f5ffd5b5061083161081d366004612afd565b60116020525f908152604090205460ff1681565b60405160ff90911681526020016102af565b34801561084e575f5ffd5b5061031561085d3660046128ce565b60136020525f908152604090205481565b61039a61087c366004612c8f565b611a8e565b34801561088c575f5ffd5b506103157f65d7a28e3265b37a6474929f336521b332c1681b933f6cb9f3376673440d862a81565b3480156108bf575f5ffd5b506102a36108ce366004612caf565b611d14565b3480156108de575f5ffd5b50610831600381565b5f6108f182611d41565b92915050565b600d6020525f90815260409020805460018201805491929161091890612cd7565b80601f016020809104026020016040519081016040528092919081815260200182805461094490612cd7565b801561098f5780601f106109665761010080835404028352916020019161098f565b820191905f5260205f20905b81548152906001019060200180831161097257829003601f168201915b5050505060028301546003840154600485015460059095015493946001600160a01b039092169390925061ffff82169162010000900460ff169087565b60605f80546109da90612cd7565b80601f0160208091040260200160405190810160405280929190818152602001828054610a0690612cd7565b8015610a515780601f10610a2857610100808354040283529160200191610a51565b820191905f5260205f20905b815481529060010190602001808311610a3457829003601f168201915b5050505050905090565b5f610a6582611d65565b505f828152600460205260409020546001600160a01b03166108f1565b610a8d828233611d9d565b5050565b6001600160a01b038216610abf57604051633250574960e11b81525f60048201526024015b60405180910390fd5b5f610acb838333611daa565b9050836001600160a01b0316816001600160a01b031614610b19576040516364283d7b60e01b81526001600160a01b0380861660048301526024820184905282166044820152606401610ab6565b50505050565b5f610b28611e7f565b83610b695760405162461bcd60e51b81526020600482015260116024820152700929cac82989288bea4aa988abe9082a69607b1b6044820152606401610ab6565b335f90815260126020526040812054421115610b86576001610b89565b60035b335f9081526011602052604090205490915060ff808316911610610be05760405162461bcd60e51b815260206004820152600e60248201526d1495531157d4d313d517d195531360921b6044820152606401610ab6565b600b5f8154610bee90612d23565b91905081905591506040518060e0016040528086815260200185858080601f0160208091040260200160405190810160405280939291908181526020018383808284375f92018290525093855250503360208085019190915260408085018490526001606086018190526080860185905260a0909501849052878452600d825290922084518155918401519192830191610c89915082612d7f565b506040828101516002830180546001600160a01b0319166001600160a01b0390921691909117905560608301516003830155608083015160048301805460a086015161ffff90931662ffffff1990911617620100009215159290920291909117905560c0909201516005909101555f838152600f602090815282822085905533825260119052908120805460ff1691610d2183612e3a565b91906101000a81548160ff021916908360ff160217905550505f82837f89985676d0f40810abbe2cd55f254fd631b1f8eff9cf8cf89ad8af64c77f87b26001604051610d77919061ffff91909116815260200190565b60405180910390a4509392505050565b5f610d90611e7f565b5f828152600d6020526040902060028101546001600160a01b03163314610de75760405162461bcd60e51b815260206004820152600b60248201526a2727aa2fa1a922a0aa27a960a91b6044820152606401610ab6565b600481015462010000900460ff1615610e345760405162461bcd60e51b815260206004820152600f60248201526e1495531157d11154149150d0551151608a1b6044820152606401610ab6565b600581015415610e775760405162461bcd60e51b815260206004820152600e60248201526d414c52454144595f41435449564560901b6044820152606401610ab6565b5f838152600f60209081526040808320548084526010909252909120548015610f30575f818152600d60205260409020600501548015610ee1575f818152601560205260409020805460ff19166001179055610ed281611ea5565b5f818152600e60205260408120555b5f828152600d602052604080822060058101839055600401805462ff00001916620100001790555183917f4816cbba0986a3746458b30f61c423197d79c8128a41811424e7d2cf0459ea7691a2505b600c5f8154610f3e90612d23565b9182905550600584018190555f818152600e602090815260408083208990558583526010825280832089905533808452601283528184205485855260138452828520558984526014909252909120829055909450610f9c9085611edd565b61103084846001018054610faf90612cd7565b80601f0160208091040260200160405190810160405280929190818152602001828054610fdb90612cd7565b80156110265780601f10610ffd57610100808354040283529160200191611026565b820191905f5260205f20905b81548152906001019060200180831161100957829003601f168201915b5050505050611f3e565b604051849086907f3db37d72ecec2a06bb99792c387585563a848046fa9f0698dfd52bdd41c2a97b905f90a3505050919050565b5f8281526007602052604090206001015461107e81611f86565b610b198383611f93565b6001600160a01b03811633146110b15760405163334bd91960e11b815260040160405180910390fd5b6110bb8282612024565b505050565b6110bb83838360405180602001604052805f81525061184e565b5f60605f5f5f5f5f5f600d5f8a81526020019081526020015f206040518060e00160405290815f820154815260200160018201805461111890612cd7565b80601f016020809104026020016040519081016040528092919081815260200182805461114490612cd7565b801561118f5780601f106111665761010080835404028352916020019161118f565b820191905f5260205f20905b81548152906001019060200180831161117257829003601f168201915b505050918352505060028201546001600160a01b0316602082015260038201546040820152600482015461ffff8116606083015262010000900460ff161515608082015260059091015460a09091015280519091506112215760405162461bcd60e51b815260206004820152600e60248201526d1495531157d393d517d1561254d560921b6044820152606401610ab6565b5f898152600f602090815260408083205480845260108352928190205484519285015191850151608086015160a090960151939e929d909c50939a5093985090965091149350915050565b5f6108f182611d65565b5f6001600160a01b0382166112a0576040516322718ad960e21b81525f6004820152602401610ab6565b506001600160a01b03165f9081526003602052604090205490565b7fa49807205ce4d355092ef5a8a18f56e8913cf4a201fbe287825b095693c217756112e581611f86565b5f82116113245760405162461bcd60e51b815260206004820152600d60248201526c494e56414c49445f505249434560981b6044820152606401610ab6565b60098290556040518281527fd63a50efec61ddcfce992b3211881fcbb051071209192d1ae21d600ee686565f906020015b60405180910390a15050565b5f61136a611e7f565b5f858152600d6020526040902060028101546001600160a01b031633146113c15760405162461bcd60e51b815260206004820152600b60248201526a2727aa2fa1a922a0aa27a960a91b6044820152606401610ab6565b600481015462010000900460ff16156114105760405162461bcd60e51b815260206004820152601160248201527014105491539517d11154149150d0551151607a1b6044820152606401610ab6565b846114515760405162461bcd60e51b81526020600482015260116024820152700929cac82989288bea4aa988abe9082a69607b1b6044820152606401610ab6565b5f868152600f6020526040812054600b80549192909161147090612d23565b91905081905592506040518060e0016040528087815260200186868080601f0160208091040260200160405190810160405280939291908181526020018383808284375f920191909152505050908252503360208201526040810189905260048401546060909101906114e89061ffff166001612e58565b61ffff1681525f60208083018290526040928301829052868252600d8152919020825181559082015160018201906115209082612d7f565b506040828101516002830180546001600160a01b0319166001600160a01b039092169190911790556060830151600383015560808301516004808401805460a087015161ffff90941662ffffff199091161762010000931515840217905560c0909401516005909301929092555f868152600f602052818120859055928501805462ff000019169092179091555188917f4816cbba0986a3746458b30f61c423197d79c8128a41811424e7d2cf0459ea7691a25f838152600d602090815260409182902060040154915161ffff90921682528891839186917f89985676d0f40810abbe2cd55f254fd631b1f8eff9cf8cf89ad8af64c77f87b2910160405180910390a45050949350505050565b611635611e7f565b5f61163e61198f565b9050803410156116875760405162461bcd60e51b8152602060048201526014602482015273125394d551919250d251539517d410565351539560621b6044820152606401610ab6565b335f908152601260205260409020544281106116af576116aa62278d0082612e72565b6116bc565b6116bc62278d0042612e72565b335f908152601260205260408082209290925590516001600160a01b037f0000000000000000000000000000000000000000000000000000000000000000169084908381818185875af1925050503d805f8114611734576040519150601f19603f3d011682016040523d82523d5f602084013e611739565b606091505b50509050806117855760405162461bcd60e51b81526020600482015260186024820152771111541313d6515497d514905394d1915497d1905253115160421b6044820152606401610ab6565b823411156117c257336108fc61179b8534612e85565b6040518115909202915f818181858888f193505050501580156117c0573d5f5f3e3d5ffd5b505b335f818152601260209081526040918290205491519182527f4b90d6788928d63c1821907a6a8b95f40d26562d8fe41b105f7489db9966dfcb910160405180910390a2505050565b5f9182526007602090815260408084206001600160a01b0393909316845291905290205460ff1690565b6060600180546109da90612cd7565b610a8d33838361208f565b611859848484610a91565b610b19338585858561212d565b60606108f182612255565b5f818152600260205260409020546001600160a01b0316806118c15760405162461bcd60e51b81526020600482015260096024820152681393d517d1561254d560ba1b6044820152606401610ab6565b5f82815260136020526040902054421161190b5760405162461bcd60e51b815260206004820152600b60248201526a1393d517d156141254915160aa1b6044820152606401610ab6565b5f828152600e6020908152604080832054808452600f83528184205486855260159093529220805460ff1916600117905561194584611ea5565b5f848152600e602090815260408083208390558383526010909152902054829003611979575f818152601060205260408120555b505f908152600d60205260408120600501555050565b600a5460408051633fabe5a360e21b815290515f926001600160a01b03169163feaf968c9160048083019260a09291908290030181865afa9250505080156119f4575060408051601f3d908101601f191682019092526119f191810190612eb1565b60015b611a035750655af3107a400090565b5f84131580611a1c5750610e10611a1a8342612e85565b115b15611a3257655af3107a40009550505050505090565b5f611a3e856064612eff565b600954611a559069d3c21bcecceda1000000612eff565b611a5f9190612f16565b979650505050505050565b5f82815260076020526040902060010154611a8481611f86565b610b198383612024565b33611a988361126c565b6001600160a01b031614611adf5760405162461bcd60e51b815260206004820152600e60248201526d2727aa2fa92aa622afa7aba722a960911b6044820152606401610ab6565b5f828152601360205260409020548111611b315760405162461bcd60e51b815260206004820152601360248201527211561412549657d393d517d156151153911151606a1b6044820152606401610ab6565b611b3f426301e13380612e72565b811115611b7f5760405162461bcd60e51b815260206004820152600e60248201526d22ac2824a92cafaa27a7afa320a960911b6044820152606401610ab6565b5f611b8861198f565b905080341015611bd15760405162461bcd60e51b8152602060048201526014602482015273125394d551919250d251539517d410565351539560621b6044820152606401610ab6565b5f83815260136020526040808220849055517f00000000000000000000000000000000000000000000000000000000000000006001600160a01b03169083908381818185875af1925050503d805f8114611c46576040519150601f19603f3d011682016040523d82523d5f602084013e611c4b565b606091505b5050905080611c975760405162461bcd60e51b81526020600482015260186024820152771111541313d6515497d514905394d1915497d1905253115160421b6044820152606401610ab6565b81341115611cd457336108fc611cad8434612e85565b6040518115909202915f818181858888f19350505050158015611cd2573d5f5f3e3d5ffd5b505b837f864ca413e692b7d7abe57fb4de7f98d30188cd4f03419a82b0b8ff7986e06a9484604051611d0691815260200190565b60405180910390a250505050565b6001600160a01b039182165f90815260056020908152604080832093909416825291909152205460ff1690565b5f6001600160e01b03198216637965db0b60e01b14806108f157506108f182612360565b5f818152600260205260408120546001600160a01b0316806108f157604051637e27328960e01b815260048101849052602401610ab6565b6110bb8383836001612384565b5f611db3611e7f565b611dbe848484612488565b90506001600160a01b038416611e50575f8381526015602052604090205460ff16611e365760405162461bcd60e51b815260206004820152602260248201527f4255524e5f4f4e4c595f5649415f4558504952595f4f525f414354495641544960448201526127a760f11b6064820152608401610ab6565b5f838152601560205260409020805460ff19169055611e78565b6001600160a01b0384165f908152601260209081526040808320548684526013909252909120555b9392505050565b60085460ff1615611ea35760405163d93c066560e01b815260040160405180910390fd5b565b5f611eb15f835f611daa565b90506001600160a01b038116610a8d57604051637e27328960e01b815260048101839052602401610ab6565b6001600160a01b038216611f0657604051633250574960e11b81525f6004820152602401610ab6565b5f611f1283835f611daa565b90506001600160a01b038116156110bb576040516339e3563760e11b81525f6004820152602401610ab6565b5f828152600660205260409020611f558282612d7f565b506040518281527ff8e1a15aba9398e019f0b49df1a4fde98ee17ae345cb5f6b5e2c27f5033e8ce790602001611355565b611f90813361257a565b50565b5f611f9e838361180a565b61201d575f8381526007602090815260408083206001600160a01b03861684529091529020805460ff19166001179055611fd53390565b6001600160a01b0316826001600160a01b0316847f2f8788117e7eff1d82e926ec794901d17c78024a50270940304540a733656f0d60405160405180910390a45060016108f1565b505f6108f1565b5f61202f838361180a565b1561201d575f8381526007602090815260408083206001600160a01b0386168085529252808320805460ff1916905551339286917ff6391f5c32d9c69d2a47ea670b442974b53935d1edc7fd64eb21e047a839171b9190a45060016108f1565b6001600160a01b0382166120c157604051630b61174360e31b81526001600160a01b0383166004820152602401610ab6565b6001600160a01b038381165f81815260056020908152604080832094871680845294825291829020805460ff191686151590811790915591519182527f17307eab39ab6107e8899845ad3d59bd9653f200f220920489ca2b5937696c31910160405180910390a3505050565b6001600160a01b0383163b1561224e57604051630a85bd0160e11b81526001600160a01b0384169063150b7a029061216f908890889087908790600401612f35565b6020604051808303815f875af19250505080156121a9575060408051601f3d908101601f191682019092526121a691810190612f71565b60015b612210573d8080156121d6576040519150601f19603f3d011682016040523d82523d5f602084013e6121db565b606091505b5080515f0361220857604051633250574960e11b81526001600160a01b0385166004820152602401610ab6565b805160208201fd5b6001600160e01b03198116630a85bd0160e11b1461224c57604051633250574960e11b81526001600160a01b0385166004820152602401610ab6565b505b5050505050565b606061226082611d65565b505f828152600660205260408120805461227990612cd7565b80601f01602080910402602001604051908101604052809291908181526020018280546122a590612cd7565b80156122f05780601f106122c7576101008083540402835291602001916122f0565b820191905f5260205f20905b8154815290600101906020018083116122d357829003601f168201915b505050505090505f61230c60408051602081019091525f815290565b905080515f0361231d575092915050565b81511561234f578082604051602001612337929190612fa3565b60405160208183030381529060405292505050919050565b612358846125b3565b949350505050565b5f6001600160e01b03198216632483248360e11b14806108f157506108f182612623565b808061239857506001600160a01b03821615155b15612459575f6123a784611d65565b90506001600160a01b038316158015906123d35750826001600160a01b0316816001600160a01b031614155b80156123e657506123e48184611d14565b155b1561240f5760405163a9fbf51f60e01b81526001600160a01b0384166004820152602401610ab6565b81156124575783856001600160a01b0316826001600160a01b03167f8c5be1e5ebec7d5bd14f71427d1e84f3dd0314c0f7b2291e5b200ac8c7c3b92560405160405180910390a45b505b50505f90815260046020526040902080546001600160a01b0319166001600160a01b0392909216919091179055565b5f828152600260205260408120546001600160a01b03908116908316156124b4576124b4818486612672565b6001600160a01b038116156124ee576124cf5f855f5f612384565b6001600160a01b0381165f90815260036020526040902080545f190190555b6001600160a01b0385161561251c576001600160a01b0385165f908152600360205260409020805460010190555b5f8481526002602052604080822080546001600160a01b0319166001600160a01b0389811691821790925591518793918516917fddf252ad1be2c89b69c2b068fc378daa952ba7f163c4a11628f55a4df523b3ef91a4949350505050565b612584828261180a565b610a8d5760405163e2517d3f60e01b81526001600160a01b038216600482015260248101839052604401610ab6565b60606125be82611d65565b505f6125d460408051602081019091525f815290565b90505f8151116125f25760405180602001604052805f815250611e78565b806125fc846126d6565b60405160200161260d929190612fa3565b6040516020818303038152906040529392505050565b5f6001600160e01b031982166380ac58cd60e01b148061265357506001600160e01b03198216635b5e139f60e01b145b806108f157506301ffc9a760e01b6001600160e01b03198316146108f1565b61267d838383612766565b6110bb576001600160a01b0383166126ab57604051637e27328960e01b815260048101829052602401610ab6565b60405163177e802f60e01b81526001600160a01b038316600482015260248101829052604401610ab6565b60605f6126e2836127c7565b60010190505f8167ffffffffffffffff81111561270157612701612b9e565b6040519080825280601f01601f19166020018201604052801561272b576020820181803683370190505b5090508181016020015b5f19016f181899199a1a9b1b9c1cb0b131b232b360811b600a86061a8153600a850494508461273557509392505050565b5f6001600160a01b038316158015906123585750826001600160a01b0316846001600160a01b0316148061279f575061279f8484611d14565b806123585750505f908152600460205260409020546001600160a01b03908116911614919050565b5f8072184f03e93ff9f4daa797ed6e38ed64bf6a1f0160401b83106128055772184f03e93ff9f4daa797ed6e38ed64bf6a1f0160401b830492506040015b6d04ee2d6d415b85acef81000000008310612831576d04ee2d6d415b85acef8100000000830492506020015b662386f26fc10000831061284f57662386f26fc10000830492506010015b6305f5e1008310612867576305f5e100830492506008015b612710831061287b57612710830492506004015b6064831061288d576064830492506002015b600a83106108f15760010192915050565b6001600160e01b031981168114611f90575f5ffd5b5f602082840312156128c3575f5ffd5b8135611e788161289e565b5f602082840312156128de575f5ffd5b5035919050565b5f81518084528060208401602086015e5f602082860101526020601f19601f83011685010191505092915050565b87815260e060208201525f61292b60e08301896128e5565b6001600160a01b0397909716604083015250606081019490945261ffff929092166080840152151560a083015260c09091015292915050565b602081525f611e7860208301846128e5565b80356001600160a01b038116811461298c575f5ffd5b919050565b5f5f604083850312156129a2575f5ffd5b6129ab83612976565b946020939093013593505050565b5f5f5f606084860312156129cb575f5ffd5b6129d484612976565b92506129e260208501612976565b929592945050506040919091013590565b5f5f83601f840112612a03575f5ffd5b50813567ffffffffffffffff811115612a1a575f5ffd5b602083019150836020828501011115612a31575f5ffd5b9250929050565b5f5f5f60408486031215612a4a575f5ffd5b83359250602084013567ffffffffffffffff811115612a67575f5ffd5b612a73868287016129f3565b9497909650939450505050565b5f5f60408385031215612a91575f5ffd5b82359150612aa160208401612976565b90509250929050565b87815260e060208201525f612ac260e08301896128e5565b6001600160a01b0397909716604083015250606081019490945261ffff929092166080840152151560a0830152151560c09091015292915050565b5f60208284031215612b0d575f5ffd5b611e7882612976565b5f5f5f5f60608587031215612b29575f5ffd5b8435935060208501359250604085013567ffffffffffffffff811115612b4d575f5ffd5b612b59878288016129f3565b95989497509550505050565b5f5f60408385031215612b76575f5ffd5b612b7f83612976565b915060208301358015158114612b93575f5ffd5b809150509250929050565b634e487b7160e01b5f52604160045260245ffd5b5f5f5f5f60808587031215612bc5575f5ffd5b612bce85612976565b9350612bdc60208601612976565b925060408501359150606085013567ffffffffffffffff811115612bfe575f5ffd5b8501601f81018713612c0e575f5ffd5b803567ffffffffffffffff811115612c2857612c28612b9e565b604051601f8201601f19908116603f0116810167ffffffffffffffff81118282101715612c5757612c57612b9e565b604052818152828201602001891015612c6e575f5ffd5b816020840160208301375f6020838301015280935050505092959194509250565b5f5f60408385031215612ca0575f5ffd5b50508035926020909101359150565b5f5f60408385031215612cc0575f5ffd5b612cc983612976565b9150612aa160208401612976565b600181811c90821680612ceb57607f821691505b602082108103612d0957634e487b7160e01b5f52602260045260245ffd5b50919050565b634e487b7160e01b5f52601160045260245ffd5b5f60018201612d3457612d34612d0f565b5060010190565b601f8211156110bb57805f5260205f20601f840160051c81016020851015612d605750805b601f840160051c820191505b8181101561224e575f8155600101612d6c565b815167ffffffffffffffff811115612d9957612d99612b9e565b612dad81612da78454612cd7565b84612d3b565b6020601f821160018114612ddf575f8315612dc85750848201515b5f19600385901b1c1916600184901b17845561224e565b5f84815260208120601f198516915b82811015612e0e5787850151825560209485019460019092019101612dee565b5084821015612e2b57868401515f19600387901b60f8161c191681555b50505050600190811b01905550565b5f60ff821660ff8103612e4f57612e4f612d0f565b60010192915050565b61ffff81811683821601908111156108f1576108f1612d0f565b808201808211156108f1576108f1612d0f565b818103818111156108f1576108f1612d0f565b805169ffffffffffffffffffff8116811461298c575f5ffd5b5f5f5f5f5f60a08688031215612ec5575f5ffd5b612ece86612e98565b60208701516040880151606089015192975090955093509150612ef360808701612e98565b90509295509295909350565b80820281158282048414176108f1576108f1612d0f565b5f82612f3057634e487b7160e01b5f52601260045260245ffd5b500490565b6001600160a01b03858116825284166020820152604081018390526080606082018190525f90612f67908301846128e5565b9695505050505050565b5f60208284031215612f81575f5ffd5b8151611e788161289e565b5f81518060208401855e5f93019283525090919050565b5f612358612fb18386612f8c565b84612f8c56fea264697066735822122085fb3ad1299afa06289d2fe85e2aaf009234380e0ad3a379a486cd218c636c1564736f6c634300081c0033",
  "linkReferences": {},
  "deployedLinkReferences": {},
  "immutableReferences": {
    "7137": [
      {
        "length": 32,
        "start": 2017
      },
      {
        "length": 32,
        "start": 5851
      },
      {
        "length": 32,
        "start": 7141
      }
    ]
  },
  "inputSourceName": "project/contracts/RuleItemERC721.sol",
  "buildInfoId": "solc-0_8_28-5578c945b36bba2ccfca53952db9833ee507145e"
}