{
  "_format": "hh3-artifact-1",
  "contractName": "MockUSDC",
  "sourceName": "contracts/MockUSDC.sol",
  "abi": [
    {
      "inputs": [],
      "stateMutability": "nonpayable",
      "type": "constructor"
    },
    {
      "inputs": [
        {
          "internalType": "address",
          "name": "spender",
          "type": "address"
        },
        {
          "internalType": "uint256",
          "name": "allowance",
          "type": "uint256"
        },
        {
          "internalType": "uint256",
          "name": "needed",
          "type": "uint256"
        }
      ],
      "name": "ERC20InsufficientAllowance",
      "type": "error"
    },
    {
      "inputs": [
        {
          "internalType": "address",
          "name": "sender",
          "type": "address"
        },
        {
          "internalType": "uint256",
          "name": "balance",
          "type": "uint256"
        },
        {
          "internalType": "uint256",
          "name": "needed",
          "type": "uint256"
        }
      ],
      "name": "ERC20InsufficientBalance",
      "type": "error"
    },
    {
      "inputs": [
        {
          "internalType": "address",
          "name": "approver",
          "type": "address"
        }
      ],
      "name": "ERC20InvalidApprover",
      "type": "error"
    },
    {
      "inputs": [
        {
          "internalType": "address",
          "name": "receiver",
          "type": "address"
        }
      ],
      "name": "ERC20InvalidReceiver",
      "type": "error"
    },
    {
      "inputs": [
        {
          "internalType": "address",
          "name": "sender",
          "type": "address"
        }
      ],
      "name": "ERC20InvalidSender",
      "type": "error"
    },
    {
      "inputs": [
        {
          "internalType": "address",
          "name": "spender",
          "type": "address"
        }
      ],
      "name": "ERC20InvalidSpender",
      "type": "error"
    },
    {
      "inputs": [
        {
          "internalType": "address",
          "name": "owner",
          "type": "address"
        }
      ],
      "name": "OwnableInvalidOwner",
      "type": "error"
    },
    {
      "inputs": [
        {
          "internalType": "address",
          "name": "account",
          "type": "address"
        }
      ],
      "name": "OwnableUnauthorizedAccount",
      "type": "error"
    },
    {
      "anonymous": false,
      "inputs": [
        {
          "indexed": true,
          "internalType": "address",
          "name": "owner",
          "type": "address"
        },
        {
          "indexed": true,
          "internalType": "address",
          "name": "spender",
          "type": "address"
        },
        {
          "indexed": false,
          "internalType": "uint256",
          "name": "value",
          "type": "uint256"
        }
      ],
      "name": "Approval",
      "type": "event"
    },
    {
      "anonymous": false,
      "inputs": [
        {
          "indexed": true,
          "internalType": "address",
          "name": "previousOwner",
          "type": "address"
        },
        {
          "indexed": true,
          "internalType": "address",
          "name": "newOwner",
          "type": "address"
        }
      ],
      "name": "OwnershipTransferred",
      "type": "event"
    },
    {
      "anonymous": false,
      "inputs": [
        {
          "indexed": true,
          "internalType": "address",
          "name": "from",
          "type": "address"
        },
        {
          "indexed": true,
          "internalType": "address",
          "name": "to",
          "type": "address"
        },
        {
          "indexed": false,
          "internalType": "uint256",
          "name": "value",
          "type": "uint256"
        }
      ],
      "name": "Transfer",
      "type": "event"
    },
    {
      "inputs": [
        {
          "internalType": "address",
          "name": "owner",
          "type": "address"
        },
        {
          "internalType": "address",
          "name": "spender",
          "type": "address"
        }
      ],
      "name": "allowance",
      "outputs": [
        {
          "internalType": "uint256",
          "name": "",
          "type": "uint256"
        }
      ],
      "stateMutability": "view",
      "type": "function"
    },
    {
      "inputs": [
        {
          "internalType": "address",
          "name": "spender",
          "type": "address"
        },
        {
          "internalType": "uint256",
          "name": "amount",
          "type": "uint256"
        }
      ],
      "name": "approve",
      "outputs": [
        {
          "internalType": "bool",
          "name": "",
          "type": "bool"
        }
      ],
      "stateMutability": "nonpayable",
      "type": "function"
    },
    {
      "inputs": [
        {
          "internalType": "address",
          "name": "account",
          "type": "address"
        }
      ],
      "name": "balanceOf",
      "outputs": [
        {
          "internalType": "uint256",
          "name": "",
          "type": "uint256"
        }
      ],
      "stateMutability": "view",
      "type": "function"
    },
    {
      "inputs": [
        {
          "internalType": "uint256",
          "name": "amount",
          "type": "uint256"
        }
      ],
      "name": "burn",
      "outputs": [],
      "stateMutability": "nonpayable",
      "type": "function"
    },
    {
      "inputs": [],
      "name": "decimals",
      "outputs": [
        {
          "internalType": "uint8",
          "name": "",
          "type": "uint8"
        }
      ],
      "stateMutability": "pure",
      "type": "function"
    },
    {
      "inputs": [
        {
          "internalType": "address",
          "name": "to",
          "type": "address"
        },
        {
          "internalType": "uint256",
          "name": "amount",
          "type": "uint256"
        }
      ],
      "name": "mint",
      "outputs": [],
      "stateMutability": "nonpayable",
      "type": "function"
    },
    {
      "inputs": [],
      "name": "name",
      "outputs": [
        {
          "internalType": "string",
          "name": "",
          "type": "string"
        }
      ],
      "stateMutability": "view",
      "type": "function"
    },
    {
      "inputs": [],
      "name": "owner",
      "outputs": [
        {
          "internalType": "address",
          "name": "",
          "type": "address"
        }
      ],
      "stateMutability": "view",
      "type": "function"
    },
    {
      "inputs": [],
      "name": "renounceOwnership",
      "outputs": [],
      "stateMutability": "nonpayable",
      "type": "function"
    },
    {
      "inputs": [],
      "name": "symbol",
      "outputs": [
        {
          "internalType": "string",
          "name": "",
          "type": "string"
        }
      ],
      "stateMutability": "view",
      "type": "function"
    },
    {
      "inputs": [],
      "name": "totalSupply",
      "outputs": [
        {
          "internalType": "uint256",
          "name": "",
          "type": "uint256"
        }
      ],
      "stateMutability": "view",
      "type": "function"
    },
    {
      "inputs": [
        {
          "internalType": "address",
          "name": "to",
          "type": "address"
        },
        {
          "internalType": "uint256",
          "name": "value",
          "type": "uint256"
        }
      ],
      "name": "transfer",
      "outputs": [
        {
          "internalType": "bool",
          "name": "",
          "type": "bool"
        }
      ],
      "stateMutability": "nonpayable",
      "type": "function"
    },
    {
      "inputs": [
        {
          "internalType": "address",
          "name": "from",
          "type": "address"
        },
        {
          "internalType": "address",
          "name": "to",
          "type": "address"
        },
        {
          "internalType": "uint256",
          "name": "value",
          "type": "uint256"
        }
      ],
      "name": "transferFrom",
      "outputs": [
        {
          "internalType": "bool",
          "name": "",
          "type": "bool"
        }
      ],
      "stateMutability": "nonpayable",
      "type": "function"
    },
    {
      "inputs": [
        {
          "internalType": "address",
          "name": "newOwner",
          "type": "address"
        }
      ],
      "name": "transferOwnership",
      "outputs": [],
      "stateMutability": "nonpayable",
      "type": "function"
    }
  ],
  "bytecode": "0x608060405234801561000f575f5ffd5b506040805180820182526004808252635553444360e01b60208084018290528451808601909552918452908301523391600361004b83826102ee565b50600461005882826102ee565b5050506001600160a01b03811661008957604051631e4fbdf760e01b81525f60048201526024015b60405180910390fd5b610092816100a7565b506100a23364e8d4a510006100f8565b6103cd565b600580546001600160a01b038381166001600160a01b0319831681179093556040519116919082907f8be0079c531659141344cd1fd0a4f28419497f9722a3daafe3b4186f6b6457e0905f90a35050565b6001600160a01b0382166101215760405163ec442f0560e01b81525f6004820152602401610080565b61012c5f8383610130565b5050565b6001600160a01b03831661015a578060025f82825461014f91906103a8565b909155506101ca9050565b6001600160a01b0383165f90815260208190526040902054818110156101ac5760405163391434e360e21b81526001600160a01b03851660048201526024810182905260448101839052606401610080565b6001600160a01b0384165f9081526020819052604090209082900390555b6001600160a01b0382166101e657600280548290039055610204565b6001600160a01b0382165f9081526020819052604090208054820190555b816001600160a01b0316836001600160a01b03167fddf252ad1be2c89b69c2b068fc378daa952ba7f163c4a11628f55a4df523b3ef8360405161024991815260200190565b60405180910390a3505050565b634e487b7160e01b5f52604160045260245ffd5b600181811c9082168061027e57607f821691505b60208210810361029c57634e487b7160e01b5f52602260045260245ffd5b50919050565b601f8211156102e957805f5260205f20601f840160051c810160208510156102c75750805b601f840160051c820191505b818110156102e6575f81556001016102d3565b50505b505050565b81516001600160401b0381111561030757610307610256565b61031b81610315845461026a565b846102a2565b6020601f82116001811461034d575f83156103365750848201515b5f19600385901b1c1916600184901b1784556102e6565b5f84815260208120601f198516915b8281101561037c578785015182556020948501946001909201910161035c565b508482101561039957868401515f19600387901b60f8161c191681555b50505050600190811b01905550565b808201808211156103c757634e487b7160e01b5f52601160045260245ffd5b92915050565b61090b806103da5f395ff3fe608060405234801561000f575f5ffd5b50600436106100e5575f3560e01c806370a082311161008857806395d89b411161006357806395d89b41146101d1578063a9059cbb146101d9578063dd62ed3e146101ec578063f2fde38b14610224575f5ffd5b806370a0823114610186578063715018a6146101ae5780638da5cb5b146101b6575f5ffd5b806323b872dd116100c357806323b872dd1461013c578063313ce5671461014f57806340c10f191461015e57806342966c6814610173575f5ffd5b806306fdde03146100e9578063095ea7b31461010757806318160ddd1461012a575b5f5ffd5b6100f1610237565b6040516100fe919061076b565b60405180910390f35b61011a6101153660046107bb565b6102c7565b60405190151581526020016100fe565b6002545b6040519081526020016100fe565b61011a61014a3660046107e3565b6102db565b604051600681526020016100fe565b61017161016c3660046107bb565b6102fe565b005b61017161018136600461081d565b610314565b61012e610194366004610834565b6001600160a01b03165f9081526020819052604090205490565b610171610321565b6005546040516001600160a01b0390911681526020016100fe565b6100f1610334565b61011a6101e73660046107bb565b610343565b61012e6101fa36600461084d565b6001600160a01b039182165f90815260016020908152604080832093909416825291909152205490565b610171610232366004610834565b61035a565b6060600380546102469061087e565b80601f01602080910402602001604051908101604052809291908181526020018280546102729061087e565b80156102bd5780601f10610294576101008083540402835291602001916102bd565b820191905f5260205f20905b8154815290600101906020018083116102a057829003601f168201915b5050505050905090565b5f6102d28383610399565b90505b92915050565b5f336102e88582856103a6565b6102f3858585610422565b506001949350505050565b610306610484565b61031082826104b1565b5050565b61031e33826104e5565b50565b610329610484565b6103325f610519565b565b6060600480546102469061087e565b5f33610350818585610422565b5060019392505050565b610362610484565b6001600160a01b03811661039057604051631e4fbdf760e01b81525f60048201526024015b60405180910390fd5b61031e81610519565b5f3361035081858561056a565b6001600160a01b038381165f908152600160209081526040808320938616835292905220545f1981101561041c578181101561040e57604051637dc7a0d960e11b81526001600160a01b03841660048201526024810182905260448101839052606401610387565b61041c84848484035f610573565b50505050565b6001600160a01b03831661044b57604051634b637e8f60e11b81525f6004820152602401610387565b6001600160a01b0382166104745760405163ec442f0560e01b81525f6004820152602401610387565b61047f838383610645565b505050565b6005546001600160a01b031633146103325760405163118cdaa760e01b8152336004820152602401610387565b6001600160a01b0382166104da5760405163ec442f0560e01b81525f6004820152602401610387565b6103105f8383610645565b6001600160a01b03821661050e57604051634b637e8f60e11b81525f6004820152602401610387565b610310825f83610645565b600580546001600160a01b038381166001600160a01b0319831681179093556040519116919082907f8be0079c531659141344cd1fd0a4f28419497f9722a3daafe3b4186f6b6457e0905f90a35050565b61047f83838360015b6001600160a01b03841661059c5760405163e602df0560e01b81525f6004820152602401610387565b6001600160a01b0383166105c557604051634a1406b160e11b81525f6004820152602401610387565b6001600160a01b038085165f908152600160209081526040808320938716835292905220829055801561041c57826001600160a01b0316846001600160a01b03167f8c5be1e5ebec7d5bd14f71427d1e84f3dd0314c0f7b2291e5b200ac8c7c3b9258460405161063791815260200190565b60405180910390a350505050565b6001600160a01b03831661066f578060025f82825461066491906108b6565b909155506106df9050565b6001600160a01b0383165f90815260208190526040902054818110156106c15760405163391434e360e21b81526001600160a01b03851660048201526024810182905260448101839052606401610387565b6001600160a01b0384165f9081526020819052604090209082900390555b6001600160a01b0382166106fb57600280548290039055610719565b6001600160a01b0382165f9081526020819052604090208054820190555b816001600160a01b0316836001600160a01b03167fddf252ad1be2c89b69c2b068fc378daa952ba7f163c4a11628f55a4df523b3ef8360405161075e91815260200190565b60405180910390a3505050565b602081525f82518060208401528060208501604085015e5f604082850101526040601f19601f83011684010191505092915050565b80356001600160a01b03811681146107b6575f5ffd5b919050565b5f5f604083850312156107cc575f5ffd5b6107d5836107a0565b946020939093013593505050565b5f5f5f606084860312156107f5575f5ffd5b6107fe846107a0565b925061080c602085016107a0565b929592945050506040919091013590565b5f6020828403121561082d575f5ffd5b5035919050565b5f60208284031215610844575f5ffd5b6102d2826107a0565b5f5f6040838503121561085e575f5ffd5b610867836107a0565b9150610875602084016107a0565b90509250929050565b600181811c9082168061089257607f821691505b6020821081036108b057634e487b7160e01b5f52602260045260245ffd5b50919050565b808201808211156102d557634e487b7160e01b5f52601160045260245ffdfea2646970667358221220756cbe3bd3e6b6a229ca86bd74a6e56278f52ab5c4a58073344c798512b2c36864736f6c634300081c0033",
  "linkReferences": {},
  "deployedLinkReferences": {},
  "immutableReferences": {},
  "inputSourceName": "project/contracts/MockUSDC.sol",
  "buildInfoId": "solc-0_8_28-f53577289fba9c2568fefafe3e5ed718f35b09f7"
}