{
  "_format": "hh3-artifact-1",
  "contractName": "PayWithPayIDBatch",
  "sourceName": "contracts/core/PayWithPayIDBatch.sol",
  "abi": [
    {
      "inputs": [],
      "name": "BatchEmpty",
      "type": "error"
    },
    {
      "inputs": [
        {
          "internalType": "uint256",
          "name": "index",
          "type": "uint256"
        }
      ],
      "name": "BatchTransferFailed",
      "type": "error"
    },
    {
      "inputs": [],
      "name": "NotInitialized",
      "type": "error"
    },
    {
      "anonymous": false,
      "inputs": [
        {
          "indexed": true,
          "internalType": "address",
          "name": "payer",
          "type": "address"
        },
        {
          "indexed": true,
          "internalType": "address",
          "name": "asset",
          "type": "address"
        },
        {
          "indexed": false,
          "internalType": "uint256",
          "name": "count",
          "type": "uint256"
        },
        {
          "indexed": false,
          "internalType": "uint256",
          "name": "totalAmount",
          "type": "uint256"
        }
      ],
      "name": "BatchPaymentERC20",
      "type": "event"
    },
    {
      "anonymous": false,
      "inputs": [
        {
          "indexed": true,
          "internalType": "address",
          "name": "payer",
          "type": "address"
        },
        {
          "indexed": false,
          "internalType": "uint256",
          "name": "count",
          "type": "uint256"
        },
        {
          "indexed": false,
          "internalType": "uint256",
          "name": "totalAmount",
          "type": "uint256"
        }
      ],
      "name": "BatchPaymentETH",
      "type": "event"
    },
    {
      "inputs": [
        {
          "components": [
            {
              "internalType": "bytes32",
              "name": "version",
              "type": "bytes32"
            },
            {
              "internalType": "bytes32",
              "name": "payId",
              "type": "bytes32"
            },
            {
              "internalType": "address",
              "name": "payer",
              "type": "address"
            },
            {
              "internalType": "address",
              "name": "receiver",
              "type": "address"
            },
            {
              "internalType": "address",
              "name": "asset",
              "type": "address"
            },
            {
              "internalType": "uint256",
              "name": "amount",
              "type": "uint256"
            },
            {
              "internalType": "bytes32",
              "name": "contextHash",
              "type": "bytes32"
            },
            {
              "internalType": "bytes32",
              "name": "ruleSetHash",
              "type": "bytes32"
            },
            {
              "internalType": "address",
              "name": "ruleAuthority",
              "type": "address"
            },
            {
              "internalType": "uint64",
              "name": "issuedAt",
              "type": "uint64"
            },
            {
              "internalType": "uint64",
              "name": "expiresAt",
              "type": "uint64"
            },
            {
              "internalType": "bytes32",
              "name": "nonce",
              "type": "bytes32"
            },
            {
              "internalType": "bool",
              "name": "requiresAttestation",
              "type": "bool"
            },
            {
              "internalType": "bytes32",
              "name": "attestationUIDsHash",
              "type": "bytes32"
            }
          ],
          "internalType": "struct PayIDVerifier.Decision[]",
          "name": "decisions",
          "type": "tuple[]"
        },
        {
          "internalType": "bytes[]",
          "name": "sigs",
          "type": "bytes[]"
        },
        {
          "internalType": "bytes32[][]",
          "name": "attestationUIDs",
          "type": "bytes32[][]"
        }
      ],
      "name": "batchPayERC20",
      "outputs": [],
      "stateMutability": "nonpayable",
      "type": "function"
    },
    {
      "inputs": [
        {
          "components": [
            {
              "internalType": "bytes32",
              "name": "version",
              "type": "bytes32"
            },
            {
              "internalType": "bytes32",
              "name": "payId",
              "type": "bytes32"
            },
            {
              "internalType": "address",
              "name": "payer",
              "type": "address"
            },
            {
              "internalType": "address",
              "name": "receiver",
              "type": "address"
            },
            {
              "internalType": "address",
              "name": "asset",
              "type": "address"
            },
            {
              "internalType": "uint256",
              "name": "amount",
              "type": "uint256"
            },
            {
              "internalType": "bytes32",
              "name": "contextHash",
              "type": "bytes32"
            },
            {
              "internalType": "bytes32",
              "name": "ruleSetHash",
              "type": "bytes32"
            },
            {
              "internalType": "address",
              "name": "ruleAuthority",
              "type": "address"
            },
            {
              "internalType": "uint64",
              "name": "issuedAt",
              "type": "uint64"
            },
            {
              "internalType": "uint64",
              "name": "expiresAt",
              "type": "uint64"
            },
            {
              "internalType": "bytes32",
              "name": "nonce",
              "type": "bytes32"
            },
            {
              "internalType": "bool",
              "name": "requiresAttestation",
              "type": "bool"
            },
            {
              "internalType": "bytes32",
              "name": "attestationUIDsHash",
              "type": "bytes32"
            }
          ],
          "internalType": "struct PayIDVerifier.Decision[]",
          "name": "decisions",
          "type": "tuple[]"
        },
        {
          "internalType": "bytes[]",
          "name": "sigs",
          "type": "bytes[]"
        },
        {
          "internalType": "bytes32[][]",
          "name": "attestationUIDs",
          "type": "bytes32[][]"
        }
      ],
      "name": "batchPayNative",
      "outputs": [],
      "stateMutability": "payable",
      "type": "function"
    },
    {
      "inputs": [
        {
          "internalType": "address",
          "name": "payWithPayID_",
          "type": "address"
        }
      ],
      "name": "initialize",
      "outputs": [],
      "stateMutability": "nonpayable",
      "type": "function"
    },
    {
      "inputs": [],
      "name": "payWithPayID",
      "outputs": [
        {
          "internalType": "contract PayWithPayID",
          "name": "",
          "type": "address"
        }
      ],
      "stateMutability": "view",
      "type": "function"
    }
  ],
  "bytecode": "0x6080604052348015600e575f5ffd5b50610c9e8061001c5f395ff3fe60806040526004361061003e575f3560e01c80634cc4387314610042578063b8fe05e514610063578063c4d66de814610076578063ca185c3c14610095575b5f5ffd5b34801561004d575f5ffd5b5061006161005c366004610896565b6100cf565b005b610061610071366004610896565b610575565b348015610081575f5ffd5b50610061610090366004610980565b6107e6565b3480156100a0575f5ffd5b505f546100b3906001600160a01b031681565b6040516001600160a01b03909116815260200160405180910390f35b845f8190036100f15760405163143a603360e21b815260040160405180910390fd5b80841415806101005750808214155b1561011e5760405163143a603360e21b815260040160405180910390fd5b5f87875f818110610131576101316109a0565b90506101c00201608001602081019061014a9190610980565b90505f5f5b8381101561020857826001600160a01b03168a8a83818110610173576101736109a0565b90506101c00201608001602081019061018c9190610980565b6001600160a01b0316146101d65760405162461bcd60e51b815260206004820152600c60248201526b4d495845445f41535345545360a01b60448201526064015b60405180910390fd5b8989828181106101e8576101e86109a0565b90506101c0020160a00135826101fe91906109b4565b915060010161014f565b506040516323b872dd60e01b81523360048201523060248201526044810182905282906001600160a01b038216906323b872dd906064016020604051808303815f875af115801561025b573d5f5f3e3d5ffd5b505050506040513d601f19601f8201168201806040525081019061027f91906109e9565b505f5460405163095ea7b360e01b81526001600160a01b039182166004820152602481018490529082169063095ea7b3906044016020604051808303815f875af11580156102cf573d5f5f3e3d5ffd5b505050506040513d601f19601f820116820180604052508101906102f391906109e9565b505f5b84811015610431575f80546001600160a01b0316638f8c2f9560e01b8d8d85818110610324576103246109a0565b90506101c002018c8c8681811061033d5761033d6109a0565b905060200281019061034f9190610a04565b8c8c88818110610361576103616109a0565b90506020028101906103739190610a47565b604051602401610387959493929190610b07565b60408051601f198184030181529181526020820180516001600160e01b03166001600160e01b03199094169390931790925290516103c59190610c3b565b5f604051808303815f865af19150503d805f81146103fe576040519150601f19603f3d011682016040523d82523d5f602084013e610403565b606091505b50509050806104285760405163647b090360e01b8152600481018390526024016101cd565b506001016102f6565b505f8054604051636eb1769f60e11b81523060048201526001600160a01b0391821660248201529083169063dd62ed3e90604401602060405180830381865afa158015610480573d5f5f3e3d5ffd5b505050506040513d601f19601f820116820180604052508101906104a49190610c51565b90508015610522575f805460405163095ea7b360e01b81526001600160a01b039182166004820152602481019290925283169063095ea7b3906044016020604051808303815f875af11580156104fc573d5f5f3e3d5ffd5b505050506040513d601f19601f8201168201806040525081019061052091906109e9565b505b60408051868152602081018590526001600160a01b0386169133917f9623d500264bc746048719bf3de6704688015ee24a1b136a715dc1df791bbb7b910160405180910390a35050505050505050505050565b845f8190036105975760405163143a603360e21b815260040160405180910390fd5b80841415806105a65750808214155b156105c45760405163143a603360e21b815260040160405180910390fd5b5f5f5b82811015610601578888828181106105e1576105e16109a0565b90506101c0020160a00135826105f791906109b4565b91506001016105c7565b508034146106425760405162461bcd60e51b815260206004820152600e60248201526d0ac8298aa8abe9a92a69a82a886960931b60448201526064016101cd565b5f5b828110156107a0575f80546001600160a01b03168a8a8481811061066a5761066a6109a0565b6101c0029190910160a001359050637030541560e01b8c8c86818110610692576106926109a0565b90506101c002018b8b878181106106ab576106ab6109a0565b90506020028101906106bd9190610a04565b8b8b898181106106cf576106cf6109a0565b90506020028101906106e19190610a47565b6040516024016106f5959493929190610b07565b60408051601f198184030181529181526020820180516001600160e01b03166001600160e01b03199094169390931790925290516107339190610c3b565b5f6040518083038185875af1925050503d805f811461076d576040519150601f19603f3d011682016040523d82523d5f602084013e610772565b606091505b50509050806107975760405163647b090360e01b8152600481018390526024016101cd565b50600101610644565b50604080518381526020810183905233917f6e2ae628cf91569edc18a42f1e6fdbc07ea2701a8e7945d95cef0acf027bf504910160405180910390a25050505050505050565b5f546001600160a01b03161561082d5760405162461bcd60e51b815260206004820152600c60248201526b1053149150511657d253925560a21b60448201526064016101cd565b5f80546001600160a01b0319166001600160a01b0392909216919091179055565b5f5f83601f84011261085e575f5ffd5b50813567ffffffffffffffff811115610875575f5ffd5b6020830191508360208260051b850101111561088f575f5ffd5b9250929050565b5f5f5f5f5f5f606087890312156108ab575f5ffd5b863567ffffffffffffffff8111156108c1575f5ffd5b8701601f810189136108d1575f5ffd5b803567ffffffffffffffff8111156108e7575f5ffd5b8960206101c0830284010111156108fc575f5ffd5b60209182019750955087013567ffffffffffffffff81111561091c575f5ffd5b61092889828a0161084e565b909550935050604087013567ffffffffffffffff811115610947575f5ffd5b61095389828a0161084e565b979a9699509497509295939492505050565b80356001600160a01b038116811461097b575f5ffd5b919050565b5f60208284031215610990575f5ffd5b61099982610965565b9392505050565b634e487b7160e01b5f52603260045260245ffd5b808201808211156109d357634e487b7160e01b5f52601160045260245ffd5b92915050565b80151581146109e6575f5ffd5b50565b5f602082840312156109f9575f5ffd5b8151610999816109d9565b5f5f8335601e19843603018112610a19575f5ffd5b83018035915067ffffffffffffffff821115610a33575f5ffd5b60200191503681900382131561088f575f5ffd5b5f5f8335601e19843603018112610a5c575f5ffd5b83018035915067ffffffffffffffff821115610a76575f5ffd5b6020019150600581901b360382131561088f575f5ffd5b803567ffffffffffffffff8116811461097b575f5ffd5b803561097b816109d9565b81835281816020850137505f828201602090810191909152601f909101601f19169091010190565b8183525f6001600160fb1b03831115610aee575f5ffd5b8260051b80836020870137939093016020019392505050565b85358152602080870135908201525f610b2260408801610965565b6001600160a01b03166040830152610b3c60608801610965565b6001600160a01b03166060830152610b5660808801610965565b6001600160a01b0316608083015260a0878101359083015260c0808801359083015260e08088013590830152610b8f6101008801610965565b6001600160a01b0316610100830152610bab6101208801610a8d565b67ffffffffffffffff16610120830152610bc86101408801610a8d565b67ffffffffffffffff166101408301526101608781013590830152610bf06101808801610aa4565b15156101808301526101a087810135908301526102006101c08301819052610c1b9083018688610aaf565b8281036101e0840152610c2f818587610ad7565b98975050505050505050565b5f82518060208501845e5f920191825250919050565b5f60208284031215610c61575f5ffd5b505191905056fea26469706673582212205e0deccddf71edd1f87fd77bfdcd5b2521093cc9681e3973b2f7d69a8cb332aa64736f6c634300081c0033",
  "linkReferences": {},
  "deployedLinkReferences": {},
  "immutableReferences": {},
  "inputSourceName": "project/contracts/core/PayWithPayIDBatch.sol",
  "buildInfoId": "solc-0_8_28-a3608575954bfbfd57b25773ad6f3b36c254f9e8"
}