{
  "_format": "hh3-artifact-1",
  "contractName": "AttestationVerifier",
  "sourceName": "contracts/core/AttestationVerifier.sol",
  "abi": [
    {
      "inputs": [],
      "stateMutability": "nonpayable",
      "type": "constructor"
    },
    {
      "inputs": [],
      "name": "AccessControlBadConfirmation",
      "type": "error"
    },
    {
      "inputs": [
        {
          "internalType": "address",
          "name": "account",
          "type": "address"
        },
        {
          "internalType": "bytes32",
          "name": "neededRole",
          "type": "bytes32"
        }
      ],
      "name": "AccessControlUnauthorizedAccount",
      "type": "error"
    },
    {
      "inputs": [],
      "name": "AlreadyInitialized",
      "type": "error"
    },
    {
      "inputs": [],
      "name": "AttestationExpired",
      "type": "error"
    },
    {
      "inputs": [],
      "name": "AttestationNotForPayer",
      "type": "error"
    },
    {
      "inputs": [],
      "name": "AttestationNotFound",
      "type": "error"
    },
    {
      "inputs": [],
      "name": "AttestationRevoked",
      "type": "error"
    },
    {
      "inputs": [],
      "name": "LengthMismatch",
      "type": "error"
    },
    {
      "inputs": [],
      "name": "NotInitialized",
      "type": "error"
    },
    {
      "inputs": [],
      "name": "NotOwner",
      "type": "error"
    },
    {
      "inputs": [],
      "name": "ReplayAttestation",
      "type": "error"
    },
    {
      "inputs": [],
      "name": "UntrustedAttester",
      "type": "error"
    },
    {
      "inputs": [],
      "name": "WrongSchema",
      "type": "error"
    },
    {
      "inputs": [],
      "name": "ZeroAddress",
      "type": "error"
    },
    {
      "anonymous": false,
      "inputs": [
        {
          "indexed": true,
          "internalType": "address",
          "name": "attester",
          "type": "address"
        },
        {
          "indexed": false,
          "internalType": "bool",
          "name": "trusted",
          "type": "bool"
        }
      ],
      "name": "AttesterUpdated",
      "type": "event"
    },
    {
      "anonymous": false,
      "inputs": [
        {
          "indexed": true,
          "internalType": "address",
          "name": "easAddress",
          "type": "address"
        }
      ],
      "name": "Initialized",
      "type": "event"
    },
    {
      "anonymous": false,
      "inputs": [
        {
          "indexed": true,
          "internalType": "bytes32",
          "name": "role",
          "type": "bytes32"
        },
        {
          "indexed": true,
          "internalType": "bytes32",
          "name": "previousAdminRole",
          "type": "bytes32"
        },
        {
          "indexed": true,
          "internalType": "bytes32",
          "name": "newAdminRole",
          "type": "bytes32"
        }
      ],
      "name": "RoleAdminChanged",
      "type": "event"
    },
    {
      "anonymous": false,
      "inputs": [
        {
          "indexed": true,
          "internalType": "bytes32",
          "name": "role",
          "type": "bytes32"
        },
        {
          "indexed": true,
          "internalType": "address",
          "name": "account",
          "type": "address"
        },
        {
          "indexed": true,
          "internalType": "address",
          "name": "sender",
          "type": "address"
        }
      ],
      "name": "RoleGranted",
      "type": "event"
    },
    {
      "anonymous": false,
      "inputs": [
        {
          "indexed": true,
          "internalType": "bytes32",
          "name": "role",
          "type": "bytes32"
        },
        {
          "indexed": true,
          "internalType": "address",
          "name": "account",
          "type": "address"
        },
        {
          "indexed": true,
          "internalType": "address",
          "name": "sender",
          "type": "address"
        }
      ],
      "name": "RoleRevoked",
      "type": "event"
    },
    {
      "anonymous": false,
      "inputs": [
        {
          "indexed": true,
          "internalType": "bytes32",
          "name": "schemaUID",
          "type": "bytes32"
        },
        {
          "indexed": false,
          "internalType": "bool",
          "name": "trusted",
          "type": "bool"
        }
      ],
      "name": "SchemaUpdated",
      "type": "event"
    },
    {
      "inputs": [],
      "name": "DEFAULT_ADMIN_ROLE",
      "outputs": [
        {
          "internalType": "bytes32",
          "name": "",
          "type": "bytes32"
        }
      ],
      "stateMutability": "view",
      "type": "function"
    },
    {
      "inputs": [],
      "name": "eas",
      "outputs": [
        {
          "internalType": "contract IEAS",
          "name": "",
          "type": "address"
        }
      ],
      "stateMutability": "view",
      "type": "function"
    },
    {
      "inputs": [
        {
          "internalType": "bytes32",
          "name": "role",
          "type": "bytes32"
        }
      ],
      "name": "getRoleAdmin",
      "outputs": [
        {
          "internalType": "bytes32",
          "name": "",
          "type": "bytes32"
        }
      ],
      "stateMutability": "view",
      "type": "function"
    },
    {
      "inputs": [
        {
          "internalType": "bytes32",
          "name": "role",
          "type": "bytes32"
        },
        {
          "internalType": "address",
          "name": "account",
          "type": "address"
        }
      ],
      "name": "grantRole",
      "outputs": [],
      "stateMutability": "nonpayable",
      "type": "function"
    },
    {
      "inputs": [
        {
          "internalType": "bytes32",
          "name": "role",
          "type": "bytes32"
        },
        {
          "internalType": "address",
          "name": "account",
          "type": "address"
        }
      ],
      "name": "hasRole",
      "outputs": [
        {
          "internalType": "bool",
          "name": "",
          "type": "bool"
        }
      ],
      "stateMutability": "view",
      "type": "function"
    },
    {
      "inputs": [
        {
          "internalType": "bytes32",
          "name": "attestationUID",
          "type": "bytes32"
        },
        {
          "internalType": "address",
          "name": "payer",
          "type": "address"
        }
      ],
      "name": "hasValidAttestation",
      "outputs": [
        {
          "internalType": "bool",
          "name": "",
          "type": "bool"
        }
      ],
      "stateMutability": "view",
      "type": "function"
    },
    {
      "inputs": [
        {
          "internalType": "address",
          "name": "easAddress",
          "type": "address"
        },
        {
          "internalType": "bytes32[]",
          "name": "initialSchemas",
          "type": "bytes32[]"
        },
        {
          "internalType": "address[]",
          "name": "initialAttesters",
          "type": "address[]"
        }
      ],
      "name": "initialize",
      "outputs": [],
      "stateMutability": "nonpayable",
      "type": "function"
    },
    {
      "inputs": [],
      "name": "isInitialized",
      "outputs": [
        {
          "internalType": "bool",
          "name": "",
          "type": "bool"
        }
      ],
      "stateMutability": "view",
      "type": "function"
    },
    {
      "inputs": [
        {
          "internalType": "bytes32",
          "name": "role",
          "type": "bytes32"
        },
        {
          "internalType": "address",
          "name": "callerConfirmation",
          "type": "address"
        }
      ],
      "name": "renounceRole",
      "outputs": [],
      "stateMutability": "nonpayable",
      "type": "function"
    },
    {
      "inputs": [
        {
          "internalType": "bytes32",
          "name": "role",
          "type": "bytes32"
        },
        {
          "internalType": "address",
          "name": "account",
          "type": "address"
        }
      ],
      "name": "revokeRole",
      "outputs": [],
      "stateMutability": "nonpayable",
      "type": "function"
    },
    {
      "inputs": [
        {
          "internalType": "address",
          "name": "attester",
          "type": "address"
        },
        {
          "internalType": "bool",
          "name": "trusted",
          "type": "bool"
        }
      ],
      "name": "setTrustedAttester",
      "outputs": [],
      "stateMutability": "nonpayable",
      "type": "function"
    },
    {
      "inputs": [
        {
          "internalType": "bytes32",
          "name": "schemaUID",
          "type": "bytes32"
        },
        {
          "internalType": "bool",
          "name": "trusted",
          "type": "bool"
        }
      ],
      "name": "setTrustedSchema",
      "outputs": [],
      "stateMutability": "nonpayable",
      "type": "function"
    },
    {
      "inputs": [
        {
          "internalType": "bytes4",
          "name": "interfaceId",
          "type": "bytes4"
        }
      ],
      "name": "supportsInterface",
      "outputs": [
        {
          "internalType": "bool",
          "name": "",
          "type": "bool"
        }
      ],
      "stateMutability": "view",
      "type": "function"
    },
    {
      "inputs": [
        {
          "internalType": "address",
          "name": "",
          "type": "address"
        }
      ],
      "name": "trustedAttesters",
      "outputs": [
        {
          "internalType": "bool",
          "name": "",
          "type": "bool"
        }
      ],
      "stateMutability": "view",
      "type": "function"
    },
    {
      "inputs": [
        {
          "internalType": "bytes32",
          "name": "",
          "type": "bytes32"
        }
      ],
      "name": "trustedSchemas",
      "outputs": [
        {
          "internalType": "bool",
          "name": "",
          "type": "bool"
        }
      ],
      "stateMutability": "view",
      "type": "function"
    },
    {
      "inputs": [
        {
          "internalType": "bytes32",
          "name": "",
          "type": "bytes32"
        }
      ],
      "name": "usedAttestations",
      "outputs": [
        {
          "internalType": "bool",
          "name": "",
          "type": "bool"
        }
      ],
      "stateMutability": "view",
      "type": "function"
    },
    {
      "inputs": [
        {
          "internalType": "bytes32",
          "name": "attestationUID",
          "type": "bytes32"
        },
        {
          "internalType": "address",
          "name": "payer",
          "type": "address"
        }
      ],
      "name": "verifyAttestation",
      "outputs": [],
      "stateMutability": "view",
      "type": "function"
    },
    {
      "inputs": [
        {
          "internalType": "bytes32[]",
          "name": "attestationUIDs",
          "type": "bytes32[]"
        },
        {
          "internalType": "address",
          "name": "payer",
          "type": "address"
        }
      ],
      "name": "verifyAttestationBatch",
      "outputs": [],
      "stateMutability": "view",
      "type": "function"
    },
    {
      "inputs": [
        {
          "internalType": "bytes32[]",
          "name": "attestationUIDs",
          "type": "bytes32[]"
        },
        {
          "internalType": "address",
          "name": "payer",
          "type": "address"
        }
      ],
      "name": "verifyAttestationBatchOnce",
      "outputs": [],
      "stateMutability": "nonpayable",
      "type": "function"
    },
    {
      "inputs": [
        {
          "internalType": "bytes32",
          "name": "attestationUID",
          "type": "bytes32"
        },
        {
          "internalType": "address",
          "name": "payer",
          "type": "address"
        }
      ],
      "name": "verifyAttestationOnce",
      "outputs": [],
      "stateMutability": "nonpayable",
      "type": "function"
    }
  ],
  "bytecode": "0x6080604052348015600e575f5ffd5b506111ee8061001c5f395ff3fe608060405234801561000f575f5ffd5b5060043610610127575f3560e01c806391d14854116100a9578063d547741f1161006e578063d547741f1461029e578063e33d5c37146102b1578063e36546fa146102c4578063e4d01a4e146102d7578063ff93a795146102f9575f5ffd5b806391d148541461024b578063a217fddf1461025e578063c6e2624514610265578063cc600a9a14610278578063d41b4e721461028b575f5ffd5b806336568abe116100ef57806336568abe146101cd57806337fb91ad146101e0578063392e53cd146101f35780635a553572146101fe5780638150864d14610220575f5ffd5b806301ffc9a71461012b5780630ae7243a146101535780631b16c61f14610175578063248a9ca31461018a5780632f2ff15d146101ba575b5f5ffd5b61013e610139366004610caf565b61030c565b60405190151581526020015b60405180910390f35b61013e610161366004610cdd565b60026020525f908152604090205460ff1681565b610188610183366004610d08565b610342565b005b6101ac610198366004610cdd565b5f9081526020819052604090206001015490565b60405190815260200161014a565b6101886101c8366004610d08565b610350565b6101886101db366004610d08565b61037a565b6101886101ee366004610d43565b6103b2565b60055460ff1661013e565b61013e61020c366004610cdd565b60046020525f908152604090205460ff1681565b600154610233906001600160a01b031681565b6040516001600160a01b03909116815260200161014a565b61013e610259366004610d08565b610437565b6101ac5f81565b610188610273366004610d08565b61045f565b610188610286366004610d66565b6104b3565b610188610299366004610ee8565b6104ef565b6101886102ac366004610d08565b610719565b61013e6102bf366004610d08565b61073d565b6101886102d2366004610fb3565b6107a7565b61013e6102e5366004610fdf565b60036020525f908152604090205460ff1681565b610188610307366004610d66565b610852565b5f6001600160e01b03198216637965db0b60e01b148061033c57506301ffc9a760e01b6001600160e01b03198316145b92915050565b61034c828261091a565b5050565b5f8281526020819052604090206001015461036a81610b6d565b6103748383610b7a565b50505050565b6001600160a01b03811633146103a35760405163334bd91960e11b815260040160405180910390fd5b6103ad8282610c09565b505050565b5f6103bc81610b6d565b60055460ff166103df576040516321c4e35760e21b815260040160405180910390fd5b5f83815260026020908152604091829020805460ff1916851515908117909155915191825284917fbfe5a0ed847b5eac7ee1669313cce6cb83fcd715ae8b20f8ea6aff0686a0e3a691015b60405180910390a2505050565b5f918252602082815260408084206001600160a01b0393909316845291905290205460ff1690565b5f8281526004602052604090205460ff161561048e576040516304b070f360e51b815260040160405180910390fd5b610498828261091a565b505f908152600460205260409020805460ff19166001179055565b815f5b818110156104e8576104e08585838181106104d3576104d3610ffa565b905060200201358461091a565b6001016104b6565b5050505050565b60055460ff16156105125760405162dc149f60e41b815260040160405180910390fd5b6001600160a01b0383166105395760405163d92e233d60e01b815260040160405180910390fd5b60058054600160ff19909116811790915580546001600160a01b0319166001600160a01b03851617905561056d5f33610b7a565b505f5b825181101561061957600160025f85848151811061059057610590610ffa565b602002602001015181526020019081526020015f205f6101000a81548160ff0219169083151502179055508281815181106105cd576105cd610ffa565b60200260200101517fbfe5a0ed847b5eac7ee1669313cce6cb83fcd715ae8b20f8ea6aff0686a0e3a66001604051610609911515815260200190565b60405180910390a2600101610570565b505f5b81518110156106e057600160035f84848151811061063c5761063c610ffa565b60200260200101516001600160a01b03166001600160a01b031681526020019081526020015f205f6101000a81548160ff02191690831515021790555081818151811061068b5761068b610ffa565b60200260200101516001600160a01b03167f2f6baedf5d85c15bc97b3e106fb2c744a011c1a294456f6369281584f778fb0060016040516106d0911515815260200190565b60405180910390a260010161061c565b506040516001600160a01b038416907f908408e307fc569b417f6cbec5d5a06f44a0a505ac0479b47d421a4b2fd6a1e6905f90a2505050565b5f8281526020819052604090206001015461073381610b6d565b6103748383610c09565b604051631b16c61f60e01b8152600481018390526001600160a01b03821660248201525f903090631b16c61f906044015f6040518083038186803b158015610783575f5ffd5b505afa925050508015610794575060015b61079f57505f61033c565b50600161033c565b5f6107b181610b6d565b60055460ff166107d4576040516321c4e35760e21b815260040160405180910390fd5b6001600160a01b0383166107fb5760405163d92e233d60e01b815260040160405180910390fd5b6001600160a01b0383165f81815260036020908152604091829020805460ff191686151590811790915591519182527f2f6baedf5d85c15bc97b3e106fb2c744a011c1a294456f6369281584f778fb00910161042a565b815f5b818110156108c95760045f86868481811061087257610872610ffa565b602090810292909201358352508101919091526040015f205460ff16156108ac576040516304b070f360e51b815260040160405180910390fd5b6108c18585838181106104d3576104d3610ffa565b600101610855565b505f5b818110156104e857600160045f8787858181106108eb576108eb610ffa565b602090810292909201358352508101919091526040015f20805460ff19169115159190911790556001016108cc565b60055460ff1661093d576040516321c4e35760e21b815260040160405180910390fd5b6001546040516328c44a9960e21b8152600481018490525f916001600160a01b03169063a3112a64906024015f60405180830381865afa158015610983573d5f5f3e3d5ffd5b505050506040513d5f823e601f3d908101601f191682016040526109aa91908101906110aa565b80519091506109cc5760405163120a2e7760e01b815260040160405180910390fd5b6020808201515f9081526002909152604090205460ff16610a00576040516321b8eeb960e01b815260040160405180910390fd5b60c08101516001600160a01b03165f9081526003602052604090205460ff16610a3c576040516317ada25b60e11b815260040160405180910390fd5b816001600160a01b03168160e001516001600160a01b031614610a72576040516341e3f83160e01b815260040160405180910390fd5b60608101516001600160401b031615801590610a9b57504281606001516001600160401b031611155b15610ab95760405163716dcc3960e01b815260040160405180910390fd5b60808101516001600160401b031615610ae557604051637b6227e960e11b815260040160405180910390fd5b60015460405163e30bb56360e01b8152600481018590526001600160a01b039091169063e30bb56390602401602060405180830381865afa158015610b2c573d5f5f3e3d5ffd5b505050506040513d601f19601f82011682018060405250810190610b50919061119d565b6103ad57604051637b6227e960e11b815260040160405180910390fd5b610b778133610c72565b50565b5f610b858383610437565b610c02575f838152602081815260408083206001600160a01b03861684529091529020805460ff19166001179055610bba3390565b6001600160a01b0316826001600160a01b0316847f2f8788117e7eff1d82e926ec794901d17c78024a50270940304540a733656f0d60405160405180910390a450600161033c565b505f61033c565b5f610c148383610437565b15610c02575f838152602081815260408083206001600160a01b0386168085529252808320805460ff1916905551339286917ff6391f5c32d9c69d2a47ea670b442974b53935d1edc7fd64eb21e047a839171b9190a450600161033c565b610c7c8282610437565b61034c5760405163e2517d3f60e01b81526001600160a01b03821660048201526024810183905260440160405180910390fd5b5f60208284031215610cbf575f5ffd5b81356001600160e01b031981168114610cd6575f5ffd5b9392505050565b5f60208284031215610ced575f5ffd5b5035919050565b6001600160a01b0381168114610b77575f5ffd5b5f5f60408385031215610d19575f5ffd5b823591506020830135610d2b81610cf4565b809150509250929050565b8015158114610b77575f5ffd5b5f5f60408385031215610d54575f5ffd5b823591506020830135610d2b81610d36565b5f5f5f60408486031215610d78575f5ffd5b83356001600160401b03811115610d8d575f5ffd5b8401601f81018613610d9d575f5ffd5b80356001600160401b03811115610db2575f5ffd5b8660208260051b8401011115610dc6575f5ffd5b602091820194509250840135610ddb81610cf4565b809150509250925092565b634e487b7160e01b5f52604160045260245ffd5b60405161014081016001600160401b0381118282101715610e1d57610e1d610de6565b60405290565b604051601f8201601f191681016001600160401b0381118282101715610e4b57610e4b610de6565b604052919050565b5f6001600160401b03821115610e6b57610e6b610de6565b5060051b60200190565b5f82601f830112610e84575f5ffd5b8135610e97610e9282610e53565b610e23565b8082825260208201915060208360051b860101925085831115610eb8575f5ffd5b602085015b83811015610ede578035610ed081610cf4565b835260209283019201610ebd565b5095945050505050565b5f5f5f60608486031215610efa575f5ffd5b8335610f0581610cf4565b925060208401356001600160401b03811115610f1f575f5ffd5b8401601f81018613610f2f575f5ffd5b8035610f3d610e9282610e53565b8082825260208201915060208360051b850101925088831115610f5e575f5ffd5b6020840193505b82841015610f80578335825260209384019390910190610f65565b945050505060408401356001600160401b03811115610f9d575f5ffd5b610fa986828701610e75565b9150509250925092565b5f5f60408385031215610fc4575f5ffd5b8235610fcf81610cf4565b91506020830135610d2b81610d36565b5f60208284031215610fef575f5ffd5b8135610cd681610cf4565b634e487b7160e01b5f52603260045260245ffd5b80516001600160401b0381168114611024575f5ffd5b919050565b805161102481610cf4565b805161102481610d36565b5f82601f83011261104e575f5ffd5b81516001600160401b0381111561106757611067610de6565b61107a601f8201601f1916602001610e23565b81815284602083860101111561108e575f5ffd5b8160208501602083015e5f918101602001919091529392505050565b5f602082840312156110ba575f5ffd5b81516001600160401b038111156110cf575f5ffd5b820161014081850312156110e1575f5ffd5b6110e9610dfa565b81518152602080830151908201526111036040830161100e565b60408201526111146060830161100e565b60608201526111256080830161100e565b608082015260a0828101519082015261114060c08301611029565b60c082015261115160e08301611029565b60e08201526111636101008301611034565b6101008201526101208201516001600160401b03811115611182575f5ffd5b61118e8682850161103f565b61012083015250949350505050565b5f602082840312156111ad575f5ffd5b8151610cd681610d3656fea264697066735822122013c9cff825d36d93d955db3882656a4f6d7029a591ead54d1254da28d92a916564736f6c634300081c0033",
  "linkReferences": {},
  "deployedLinkReferences": {},
  "immutableReferences": {},
  "inputSourceName": "project/contracts/core/AttestationVerifier.sol",
  "buildInfoId": "solc-0_8_28-4ef99243ead6f1a92d7f757e763dc5bed001a445"
}