{
  "_format": "hh3-artifact-1",
  "contractName": "PayIDVerifier",
  "sourceName": "contracts/core/PayIDVerifier.sol",
  "abi": [
    {
      "inputs": [],
      "stateMutability": "nonpayable",
      "type": "constructor"
    },
    {
      "inputs": [],
      "name": "AccessControlBadConfirmation",
      "type": "error"
    },
    {
      "inputs": [
        {
          "internalType": "address",
          "name": "account",
          "type": "address"
        },
        {
          "internalType": "bytes32",
          "name": "neededRole",
          "type": "bytes32"
        }
      ],
      "name": "AccessControlUnauthorizedAccount",
      "type": "error"
    },
    {
      "inputs": [],
      "name": "AlreadyInitialized",
      "type": "error"
    },
    {
      "inputs": [],
      "name": "ECDSAInvalidSignature",
      "type": "error"
    },
    {
      "inputs": [
        {
          "internalType": "uint256",
          "name": "length",
          "type": "uint256"
        }
      ],
      "name": "ECDSAInvalidSignatureLength",
      "type": "error"
    },
    {
      "inputs": [
        {
          "internalType": "bytes32",
          "name": "s",
          "type": "bytes32"
        }
      ],
      "name": "ECDSAInvalidSignatureS",
      "type": "error"
    },
    {
      "inputs": [],
      "name": "InvalidShortString",
      "type": "error"
    },
    {
      "inputs": [],
      "name": "NotInitialized",
      "type": "error"
    },
    {
      "inputs": [
        {
          "internalType": "string",
          "name": "str",
          "type": "string"
        }
      ],
      "name": "StringTooLong",
      "type": "error"
    },
    {
      "inputs": [],
      "name": "ZeroAddress",
      "type": "error"
    },
    {
      "anonymous": false,
      "inputs": [
        {
          "indexed": true,
          "internalType": "address",
          "name": "authority",
          "type": "address"
        },
        {
          "indexed": false,
          "internalType": "bool",
          "name": "trusted",
          "type": "bool"
        }
      ],
      "name": "AuthorityUpdated",
      "type": "event"
    },
    {
      "anonymous": false,
      "inputs": [],
      "name": "EIP712DomainChanged",
      "type": "event"
    },
    {
      "anonymous": false,
      "inputs": [
        {
          "indexed": true,
          "internalType": "address",
          "name": "owner",
          "type": "address"
        }
      ],
      "name": "Initialized",
      "type": "event"
    },
    {
      "anonymous": false,
      "inputs": [
        {
          "indexed": true,
          "internalType": "bytes32",
          "name": "role",
          "type": "bytes32"
        },
        {
          "indexed": true,
          "internalType": "bytes32",
          "name": "previousAdminRole",
          "type": "bytes32"
        },
        {
          "indexed": true,
          "internalType": "bytes32",
          "name": "newAdminRole",
          "type": "bytes32"
        }
      ],
      "name": "RoleAdminChanged",
      "type": "event"
    },
    {
      "anonymous": false,
      "inputs": [
        {
          "indexed": true,
          "internalType": "bytes32",
          "name": "role",
          "type": "bytes32"
        },
        {
          "indexed": true,
          "internalType": "address",
          "name": "account",
          "type": "address"
        },
        {
          "indexed": true,
          "internalType": "address",
          "name": "sender",
          "type": "address"
        }
      ],
      "name": "RoleGranted",
      "type": "event"
    },
    {
      "anonymous": false,
      "inputs": [
        {
          "indexed": true,
          "internalType": "bytes32",
          "name": "role",
          "type": "bytes32"
        },
        {
          "indexed": true,
          "internalType": "address",
          "name": "account",
          "type": "address"
        },
        {
          "indexed": true,
          "internalType": "address",
          "name": "sender",
          "type": "address"
        }
      ],
      "name": "RoleRevoked",
      "type": "event"
    },
    {
      "inputs": [],
      "name": "DECISION_TYPEHASH",
      "outputs": [
        {
          "internalType": "bytes32",
          "name": "",
          "type": "bytes32"
        }
      ],
      "stateMutability": "view",
      "type": "function"
    },
    {
      "inputs": [],
      "name": "DEFAULT_ADMIN_ROLE",
      "outputs": [
        {
          "internalType": "bytes32",
          "name": "",
          "type": "bytes32"
        }
      ],
      "stateMutability": "view",
      "type": "function"
    },
    {
      "inputs": [],
      "name": "SIGNATURE_VERSION",
      "outputs": [
        {
          "internalType": "string",
          "name": "",
          "type": "string"
        }
      ],
      "stateMutability": "view",
      "type": "function"
    },
    {
      "inputs": [],
      "name": "SIGNING_DOMAIN",
      "outputs": [
        {
          "internalType": "string",
          "name": "",
          "type": "string"
        }
      ],
      "stateMutability": "view",
      "type": "function"
    },
    {
      "inputs": [],
      "name": "attestationVerifier",
      "outputs": [
        {
          "internalType": "address",
          "name": "",
          "type": "address"
        }
      ],
      "stateMutability": "view",
      "type": "function"
    },
    {
      "inputs": [],
      "name": "domainSeparator",
      "outputs": [
        {
          "internalType": "bytes32",
          "name": "",
          "type": "bytes32"
        }
      ],
      "stateMutability": "view",
      "type": "function"
    },
    {
      "inputs": [],
      "name": "eip712Domain",
      "outputs": [
        {
          "internalType": "bytes1",
          "name": "fields",
          "type": "bytes1"
        },
        {
          "internalType": "string",
          "name": "name",
          "type": "string"
        },
        {
          "internalType": "string",
          "name": "version",
          "type": "string"
        },
        {
          "internalType": "uint256",
          "name": "chainId",
          "type": "uint256"
        },
        {
          "internalType": "address",
          "name": "verifyingContract",
          "type": "address"
        },
        {
          "internalType": "bytes32",
          "name": "salt",
          "type": "bytes32"
        },
        {
          "internalType": "uint256[]",
          "name": "extensions",
          "type": "uint256[]"
        }
      ],
      "stateMutability": "view",
      "type": "function"
    },
    {
      "inputs": [
        {
          "internalType": "bytes32",
          "name": "role",
          "type": "bytes32"
        }
      ],
      "name": "getRoleAdmin",
      "outputs": [
        {
          "internalType": "bytes32",
          "name": "",
          "type": "bytes32"
        }
      ],
      "stateMutability": "view",
      "type": "function"
    },
    {
      "inputs": [
        {
          "internalType": "bytes32",
          "name": "role",
          "type": "bytes32"
        },
        {
          "internalType": "address",
          "name": "account",
          "type": "address"
        }
      ],
      "name": "grantRole",
      "outputs": [],
      "stateMutability": "nonpayable",
      "type": "function"
    },
    {
      "inputs": [
        {
          "internalType": "bytes32",
          "name": "role",
          "type": "bytes32"
        },
        {
          "internalType": "address",
          "name": "account",
          "type": "address"
        }
      ],
      "name": "hasRole",
      "outputs": [
        {
          "internalType": "bool",
          "name": "",
          "type": "bool"
        }
      ],
      "stateMutability": "view",
      "type": "function"
    },
    {
      "inputs": [
        {
          "components": [
            {
              "internalType": "bytes32",
              "name": "version",
              "type": "bytes32"
            },
            {
              "internalType": "bytes32",
              "name": "payId",
              "type": "bytes32"
            },
            {
              "internalType": "address",
              "name": "payer",
              "type": "address"
            },
            {
              "internalType": "address",
              "name": "receiver",
              "type": "address"
            },
            {
              "internalType": "address",
              "name": "asset",
              "type": "address"
            },
            {
              "internalType": "uint256",
              "name": "amount",
              "type": "uint256"
            },
            {
              "internalType": "bytes32",
              "name": "contextHash",
              "type": "bytes32"
            },
            {
              "internalType": "bytes32",
              "name": "ruleSetHash",
              "type": "bytes32"
            },
            {
              "internalType": "address",
              "name": "ruleAuthority",
              "type": "address"
            },
            {
              "internalType": "uint64",
              "name": "issuedAt",
              "type": "uint64"
            },
            {
              "internalType": "uint64",
              "name": "expiresAt",
              "type": "uint64"
            },
            {
              "internalType": "bytes32",
              "name": "nonce",
              "type": "bytes32"
            },
            {
              "internalType": "bool",
              "name": "requiresAttestation",
              "type": "bool"
            },
            {
              "internalType": "bytes32",
              "name": "attestationUIDsHash",
              "type": "bytes32"
            }
          ],
          "internalType": "struct PayIDVerifier.Decision",
          "name": "d",
          "type": "tuple"
        }
      ],
      "name": "hashDecision",
      "outputs": [
        {
          "internalType": "bytes32",
          "name": "",
          "type": "bytes32"
        }
      ],
      "stateMutability": "view",
      "type": "function"
    },
    {
      "inputs": [
        {
          "internalType": "address",
          "name": "initialOwner",
          "type": "address"
        },
        {
          "internalType": "address",
          "name": "_attestationVerifier",
          "type": "address"
        }
      ],
      "name": "initialize",
      "outputs": [],
      "stateMutability": "nonpayable",
      "type": "function"
    },
    {
      "inputs": [],
      "name": "isInitialized",
      "outputs": [
        {
          "internalType": "bool",
          "name": "",
          "type": "bool"
        }
      ],
      "stateMutability": "view",
      "type": "function"
    },
    {
      "inputs": [
        {
          "internalType": "bytes32",
          "name": "role",
          "type": "bytes32"
        },
        {
          "internalType": "address",
          "name": "callerConfirmation",
          "type": "address"
        }
      ],
      "name": "renounceRole",
      "outputs": [],
      "stateMutability": "nonpayable",
      "type": "function"
    },
    {
      "inputs": [
        {
          "components": [
            {
              "internalType": "bytes32",
              "name": "version",
              "type": "bytes32"
            },
            {
              "internalType": "bytes32",
              "name": "payId",
              "type": "bytes32"
            },
            {
              "internalType": "address",
              "name": "payer",
              "type": "address"
            },
            {
              "internalType": "address",
              "name": "receiver",
              "type": "address"
            },
            {
              "internalType": "address",
              "name": "asset",
              "type": "address"
            },
            {
              "internalType": "uint256",
              "name": "amount",
              "type": "uint256"
            },
            {
              "internalType": "bytes32",
              "name": "contextHash",
              "type": "bytes32"
            },
            {
              "internalType": "bytes32",
              "name": "ruleSetHash",
              "type": "bytes32"
            },
            {
              "internalType": "address",
              "name": "ruleAuthority",
              "type": "address"
            },
            {
              "internalType": "uint64",
              "name": "issuedAt",
              "type": "uint64"
            },
            {
              "internalType": "uint64",
              "name": "expiresAt",
              "type": "uint64"
            },
            {
              "internalType": "bytes32",
              "name": "nonce",
              "type": "bytes32"
            },
            {
              "internalType": "bool",
              "name": "requiresAttestation",
              "type": "bool"
            },
            {
              "internalType": "bytes32",
              "name": "attestationUIDsHash",
              "type": "bytes32"
            }
          ],
          "internalType": "struct PayIDVerifier.Decision",
          "name": "d",
          "type": "tuple"
        },
        {
          "internalType": "bytes",
          "name": "sig",
          "type": "bytes"
        }
      ],
      "name": "requireAllowed",
      "outputs": [],
      "stateMutability": "nonpayable",
      "type": "function"
    },
    {
      "inputs": [
        {
          "internalType": "bytes32",
          "name": "role",
          "type": "bytes32"
        },
        {
          "internalType": "address",
          "name": "account",
          "type": "address"
        }
      ],
      "name": "revokeRole",
      "outputs": [],
      "stateMutability": "nonpayable",
      "type": "function"
    },
    {
      "inputs": [
        {
          "internalType": "address[]",
          "name": "authorities",
          "type": "address[]"
        },
        {
          "internalType": "bool[]",
          "name": "trusted",
          "type": "bool[]"
        }
      ],
      "name": "setTrustedAuthorities",
      "outputs": [],
      "stateMutability": "nonpayable",
      "type": "function"
    },
    {
      "inputs": [
        {
          "internalType": "address",
          "name": "authority",
          "type": "address"
        },
        {
          "internalType": "bool",
          "name": "trusted",
          "type": "bool"
        }
      ],
      "name": "setTrustedAuthority",
      "outputs": [],
      "stateMutability": "nonpayable",
      "type": "function"
    },
    {
      "inputs": [
        {
          "internalType": "bytes4",
          "name": "interfaceId",
          "type": "bytes4"
        }
      ],
      "name": "supportsInterface",
      "outputs": [
        {
          "internalType": "bool",
          "name": "",
          "type": "bool"
        }
      ],
      "stateMutability": "view",
      "type": "function"
    },
    {
      "inputs": [
        {
          "internalType": "address",
          "name": "",
          "type": "address"
        }
      ],
      "name": "trustedAuthorities",
      "outputs": [
        {
          "internalType": "bool",
          "name": "",
          "type": "bool"
        }
      ],
      "stateMutability": "view",
      "type": "function"
    },
    {
      "inputs": [
        {
          "internalType": "address",
          "name": "",
          "type": "address"
        },
        {
          "internalType": "bytes32",
          "name": "",
          "type": "bytes32"
        }
      ],
      "name": "usedNonce",
      "outputs": [
        {
          "internalType": "bool",
          "name": "",
          "type": "bool"
        }
      ],
      "stateMutability": "view",
      "type": "function"
    },
    {
      "inputs": [
        {
          "components": [
            {
              "internalType": "bytes32",
              "name": "version",
              "type": "bytes32"
            },
            {
              "internalType": "bytes32",
              "name": "payId",
              "type": "bytes32"
            },
            {
              "internalType": "address",
              "name": "payer",
              "type": "address"
            },
            {
              "internalType": "address",
              "name": "receiver",
              "type": "address"
            },
            {
              "internalType": "address",
              "name": "asset",
              "type": "address"
            },
            {
              "internalType": "uint256",
              "name": "amount",
              "type": "uint256"
            },
            {
              "internalType": "bytes32",
              "name": "contextHash",
              "type": "bytes32"
            },
            {
              "internalType": "bytes32",
              "name": "ruleSetHash",
              "type": "bytes32"
            },
            {
              "internalType": "address",
              "name": "ruleAuthority",
              "type": "address"
            },
            {
              "internalType": "uint64",
              "name": "issuedAt",
              "type": "uint64"
            },
            {
              "internalType": "uint64",
              "name": "expiresAt",
              "type": "uint64"
            },
            {
              "internalType": "bytes32",
              "name": "nonce",
              "type": "bytes32"
            },
            {
              "internalType": "bool",
              "name": "requiresAttestation",
              "type": "bool"
            },
            {
              "internalType": "bytes32",
              "name": "attestationUIDsHash",
              "type": "bytes32"
            }
          ],
          "internalType": "struct PayIDVerifier.Decision",
          "name": "d",
          "type": "tuple"
        },
        {
          "internalType": "bytes",
          "name": "sig",
          "type": "bytes"
        }
      ],
      "name": "verifyDecision",
      "outputs": [
        {
          "internalType": "bool",
          "name": "",
          "type": "bool"
        }
      ],
      "stateMutability": "view",
      "type": "function"
    }
  ],
  "bytecode": "0x610160604052348015610010575f5ffd5b50604080518082018252600f81526e2820ac9724a2102232b1b4b9b4b7b760891b602080830191909152825180840190935260018352601960f91b908301529061005a825f610103565b61012052610069816001610103565b61014052815160208084019190912060e052815190820120610100524660a0526100f560e05161010051604080517f8b73c3c69bb8fe3d512ecc4cf759cc79239f7b179b0ffacaa9a75d522b39400f60208201529081019290925260608201524660808201523060a08201525f9060c00160405160208183030381529060405280519060200120905090565b60805250503060c052610325565b5f60208351101561011e5761011783610135565b905061012f565b816101298482610213565b5060ff90505b92915050565b5f5f829050601f81511115610168578260405163305a27a960e01b815260040161015f91906102cd565b60405180910390fd5b805161017382610302565b179392505050565b634e487b7160e01b5f52604160045260245ffd5b600181811c908216806101a357607f821691505b6020821081036101c157634e487b7160e01b5f52602260045260245ffd5b50919050565b601f82111561020e57805f5260205f20601f840160051c810160208510156101ec5750805b601f840160051c820191505b8181101561020b575f81556001016101f8565b50505b505050565b81516001600160401b0381111561022c5761022c61017b565b6102408161023a845461018f565b846101c7565b6020601f821160018114610272575f831561025b5750848201515b5f19600385901b1c1916600184901b17845561020b565b5f84815260208120601f198516915b828110156102a15787850151825560209485019460019092019101610281565b50848210156102be57868401515f19600387901b60f8161c191681555b50505050600190811b01905550565b602081525f82518060208401528060208501604085015e5f604082850101526040601f19601f83011684010191505092915050565b805160208083015191908110156101c1575f1960209190910360031b1b16919050565b60805160a05160c05160e051610100516101205161014051611cb76103765f395f61120d01525f6111e101525f61133401525f61130c01525f61126701525f61129101525f6112bb0152611cb75ff3fe608060405234801561000f575f5ffd5b506004361061013d575f3560e01c806384b0196e116100b4578063ae6b9d0211610079578063ae6b9d02146102f7578063b4b3c5a01461030a578063c6e945f214610335578063d547741f14610348578063e3faad941461035b578063f698da2514610389575f5ffd5b806384b0196e146102685780638f9f07db1461028357806391d14854146102b0578063a217fddf146102c3578063a4157296146102ca575f5ffd5b8063343e74a711610105578063343e74a7146101e357806336568abe146101f6578063392e53cd14610209578063485cc9551461021b5780634dd4a1681461022e5780638431c6c114610255575f5ffd5b806301ffc9a7146101415780630b8274db14610169578063248a9ca31461017e5780632f2ff15d146101ae5780633077f71d146101c1575b5f5ffd5b61015461014f366004611697565b610391565b60405190151581526020015b60405180910390f35b61017c6101773660046116e6565b6103c7565b005b6101a061018c366004611719565b5f9081526002602052604090206001015490565b604051908152602001610160565b61017c6101bc366004611730565b61047a565b6101546101cf36600461175e565b60046020525f908152604090205460ff1681565b61017c6101f1366004611790565b6104a4565b61017c610204366004611730565b610a14565b600554600160a01b900460ff16610154565b61017c61022936600461180f565b610a47565b6101a07fdc3f911d398a961dd4ff98d4eae36abc5d1204fdb3a52b1256821060095548a181565b6101a061026336600461183b565b610b24565b610270610b3d565b6040516101609796959493929190611884565b61015461029136600461191a565b600360209081525f928352604080842090915290825290205460ff1681565b6101546102be366004611730565b610b7f565b6101a05f81565b6102ea604051806040016040528060018152602001601960f91b81525081565b6040516101609190611944565b61017c61030536600461199d565b610ba9565b60055461031d906001600160a01b031681565b6040516001600160a01b039091168152602001610160565b610154610343366004611790565b610d76565b61017c610356366004611730565b610ed6565b6102ea6040518060400160405280600f81526020016e2820ac9724a2102232b1b4b9b4b7b760891b81525081565b6101a0610efa565b5f6001600160e01b03198216637965db0b60e01b14806103c157506301ffc9a760e01b6001600160e01b03198316145b92915050565b5f6103d181610f08565b6001600160a01b03831661041b5760405162461bcd60e51b815260206004820152600c60248201526b5a45524f5f4144445245535360a01b60448201526064015b60405180910390fd5b6001600160a01b0383165f81815260046020908152604091829020805460ff191686151590811790915591519182527fc5238a63fa205f95e98807f6cbc91d2ad8555a2250075e47491f11d9c69db3bc910160405180910390a2505050565b5f8281526002602052604090206001015461049481610f08565b61049e8383610f15565b50505050565b600554600160a01b900460ff166104ce576040516321c4e35760e21b815260040160405180910390fd5b6104d9838383610d76565b61051c5760405162461bcd60e51b81526020600482015260146024820152732820aca4a21d1024a72b20a624a22fa82927a7a360611b6044820152606401610412565b60035f61052f606086016040870161175e565b6001600160a01b0316815260208082019290925260409081015f908120610160870135825290925290205460ff161561059f5760405162461bcd60e51b81526020600482015260126024820152711393d390d157d053149150511657d554d15160721b6044820152606401610412565b600160035f6105b4606087016040880161175e565b6001600160a01b0316815260208082019290925260409081015f90812061016088013582529092529020805460ff19169115159190911790556105ff6101a084016101808501611a07565b1561064a576101a083013561064a5760405162461bcd60e51b815260206004820152601160248201527015525117d21054d217d491545552549151607a1b6044820152606401610412565b5f61065d6101208501610100860161175e565b6001600160a01b031614610a0f575f61067e6101208501610100860161175e565b6001600160a01b03163b116106d55760405162461bcd60e51b815260206004820152601b60248201527f52554c455f415554484f524954595f4e4f545f434f4e545241435400000000006044820152606401610412565b60045f6106ea6101208601610100870161175e565b6001600160a01b0316815260208101919091526040015f205460ff166107525760405162461bcd60e51b815260206004820152601a60248201527f52554c455f415554484f524954595f4e4f545f545255535445440000000000006044820152606401610412565b5f806107666101208601610100870161175e565b60405163075bbcc560e11b815260e087013560048201526001600160a01b039190911690630eb7798a906024015f60405180830381865afa1580156107ad573d5f5f3e3d5ffd5b505050506040513d5f823e601f3d908101601f191682016040526107d49190810190611aab565b5090925090506107ea608086016060870161175e565b6001600160a01b0316826001600160a01b0316146108405760405162461bcd60e51b81526020600482015260136024820152720a4aa988abe9eae9c8aa4be9a92a69a82a8869606b1b6044820152606401610412565b5f5b8151811015610a0b575f82828151811061085e5761085e611ba7565b60200260200101515f015190505f83838151811061087e5761087e611ba7565b602002602001015160200151905042826001600160a01b031663d9019020836040518263ffffffff1660e01b81526004016108bb91815260200190565b602060405180830381865afa1580156108d6573d5f5f3e3d5ffd5b505050506040513d601f19601f820116820180604052508101906108fa9190611bbb565b101561093f5760405162461bcd60e51b81526020600482015260146024820152731495531157d31250d15394d157d156141254915160621b6044820152606401610412565b6040516331a9108f60e11b8152600481018290526001600160a01b038087169190841690636352211e90602401602060405180830381865afa158015610987573d5f5f3e3d5ffd5b505050506040513d601f19601f820116820180604052508101906109ab9190611bd2565b6001600160a01b031614610a015760405162461bcd60e51b815260206004820152601a60248201527f52554c455f4c4943454e53455f4f574e45525f4348414e4745440000000000006044820152606401610412565b5050600101610842565b5050505b505050565b6001600160a01b0381163314610a3d5760405163334bd91960e11b815260040160405180910390fd5b610a0f8282610fa6565b600554600160a01b900460ff1615610a715760405162dc149f60e41b815260040160405180910390fd5b6001600160a01b038216610a985760405163d92e233d60e01b815260040160405180910390fd5b6001600160a01b038116610abf5760405163d92e233d60e01b815260040160405180910390fd5b600580546001600160a01b0383166001600160a81b031990911617600160a01b179055610aec5f83610f15565b506040516001600160a01b038316907f908408e307fc569b417f6cbec5d5a06f44a0a505ac0479b47d421a4b2fd6a1e6905f90a25050565b5f6103c1610b3183611011565b805190602001206111ae565b5f6060805f5f5f6060610b4e6111da565b610b56611206565b604080515f80825260208201909252600f60f81b9b939a50919850469750309650945092509050565b5f9182526002602090815260408084206001600160a01b0393909316845291905290205460ff1690565b5f610bb381610f08565b838214610bf45760405162461bcd60e51b815260206004820152600f60248201526e0988a9c8ea890be9a92a69a82a8869608b1b6044820152606401610412565b5f5b84811015610a0b575f868683818110610c1157610c11611ba7565b9050602002016020810190610c26919061175e565b6001600160a01b031603610c6b5760405162461bcd60e51b815260206004820152600c60248201526b5a45524f5f4144445245535360a01b6044820152606401610412565b838382818110610c7d57610c7d611ba7565b9050602002016020810190610c929190611a07565b60045f888885818110610ca757610ca7611ba7565b9050602002016020810190610cbc919061175e565b6001600160a01b0316815260208101919091526040015f20805460ff1916911515919091179055858582818110610cf557610cf5611ba7565b9050602002016020810190610d0a919061175e565b6001600160a01b03167fc5238a63fa205f95e98807f6cbc91d2ad8555a2250075e47491f11d9c69db3bc858584818110610d4657610d46611ba7565b9050602002016020810190610d5b9190611a07565b604051901515815260200160405180910390a2600101610bf6565b5f610d8961016085016101408601611bed565b6001600160401b0316421115610da057505f610ecf565b42610db361014086016101208701611bed565b6001600160401b03161115610dc957505f610ecf565b8360a001355f03610ddb57505f610ecf565b5f610dec608086016060870161175e565b6001600160a01b031603610e0157505f610ecf565b5f610e12606086016040870161175e565b6001600160a01b031603610e2757505f610ecf565b610160840135610e3857505f610ecf565b5f610e8384848080601f0160208091040260200160405190810160405280939291908181526020018383808284375f92019190915250610e7d9250899150610b249050565b90611233565b9050610e95606086016040870161175e565b6001600160a01b0316816001600160a01b03161480610ecb57506001600160a01b0381165f9081526004602052604090205460ff165b9150505b9392505050565b5f82815260026020526040902060010154610ef081610f08565b61049e8383610fa6565b5f610f0361125b565b905090565b610f128133611384565b50565b5f610f208383610b7f565b610f9f575f8381526002602090815260408083206001600160a01b03861684529091529020805460ff19166001179055610f573390565b6001600160a01b0316826001600160a01b0316847f2f8788117e7eff1d82e926ec794901d17c78024a50270940304540a733656f0d60405160405180910390a45060016103c1565b505f6103c1565b5f610fb18383610b7f565b15610f9f575f8381526002602090815260408083206001600160a01b0386168085529252808320805460ff1916905551339286917ff6391f5c32d9c69d2a47ea670b442974b53935d1edc7fd64eb21e047a839171b9190a45060016103c1565b60607fdc3f911d398a961dd4ff98d4eae36abc5d1204fdb3a52b1256821060095548a18235602084013561104a8585016040870161175e565b61105a608087016060880161175e565b61106a60a088016080890161175e565b8760a001358860c001358960e001356040516020016110d699989796959493929190988952602089019790975260408801959095526001600160a01b039384166060880152918316608087015290911660a085015260c084015260e08301526101008201526101200190565b60408051601f198184030181529190526110f86101208401610100850161175e565b61110a61014085016101208601611bed565b61111c61016086016101408701611bed565b6101608601356111346101a088016101808901611a07565b604080516001600160a01b0390961660208701526001600160401b03948516908601529290911660608401526080830152151560a08201526101a084013560c082015260e00160408051601f19818403018152908290526111989291602001611c1f565b6040516020818303038152906040529050919050565b5f6103c16111ba61125b565b8360405161190160f01b8152600281019290925260228201526042902090565b6060610f037f00000000000000000000000000000000000000000000000000000000000000005f6113c1565b6060610f037f000000000000000000000000000000000000000000000000000000000000000060016113c1565b5f5f5f5f611241868661146a565b92509250925061125182826114b3565b5090949350505050565b5f306001600160a01b037f0000000000000000000000000000000000000000000000000000000000000000161480156112b357507f000000000000000000000000000000000000000000000000000000000000000046145b156112dd57507f000000000000000000000000000000000000000000000000000000000000000090565b610f03604080517f8b73c3c69bb8fe3d512ecc4cf759cc79239f7b179b0ffacaa9a75d522b39400f60208201527f0000000000000000000000000000000000000000000000000000000000000000918101919091527f000000000000000000000000000000000000000000000000000000000000000060608201524660808201523060a08201525f9060c00160405160208183030381529060405280519060200120905090565b61138e8282610b7f565b6113bd5760405163e2517d3f60e01b81526001600160a01b038216600482015260248101839052604401610412565b5050565b606060ff83146113db576113d48361156b565b90506103c1565b8180546113e790611c3b565b80601f016020809104026020016040519081016040528092919081815260200182805461141390611c3b565b801561145e5780601f106114355761010080835404028352916020019161145e565b820191905f5260205f20905b81548152906001019060200180831161144157829003601f168201915b505050505090506103c1565b5f5f5f83516041036114a1576020840151604085015160608601515f1a611493888285856115a8565b9550955095505050506114ac565b505081515f91506002905b9250925092565b5f8260038111156114c6576114c6611c6d565b036114cf575050565b60018260038111156114e3576114e3611c6d565b036115015760405163f645eedf60e01b815260040160405180910390fd5b600282600381111561151557611515611c6d565b036115365760405163fce698f760e01b815260048101829052602401610412565b600382600381111561154a5761154a611c6d565b036113bd576040516335e2f38360e21b815260048101829052602401610412565b60605f61157783611670565b6040805160208082528183019092529192505f91906020820181803683375050509182525060208101929092525090565b5f80807f7fffffffffffffffffffffffffffffff5d576e7357a4501ddfe92f46681b20a08411156115e157505f91506003905082611666565b604080515f808252602082018084528a905260ff891692820192909252606081018790526080810186905260019060a0016020604051602081039080840390855afa158015611632573d5f5f3e3d5ffd5b5050604051601f1901519150506001600160a01b03811661165d57505f925060019150829050611666565b92505f91508190505b9450945094915050565b5f60ff8216601f8111156103c157604051632cd44ac360e21b815260040160405180910390fd5b5f602082840312156116a7575f5ffd5b81356001600160e01b031981168114610ecf575f5ffd5b6001600160a01b0381168114610f12575f5ffd5b803580151581146116e1575f5ffd5b919050565b5f5f604083850312156116f7575f5ffd5b8235611702816116be565b9150611710602084016116d2565b90509250929050565b5f60208284031215611729575f5ffd5b5035919050565b5f5f60408385031215611741575f5ffd5b823591506020830135611753816116be565b809150509250929050565b5f6020828403121561176e575f5ffd5b8135610ecf816116be565b5f6101c0828403121561178a575f5ffd5b50919050565b5f5f5f6101e084860312156117a3575f5ffd5b6117ad8585611779565b92506101c08401356001600160401b038111156117c8575f5ffd5b8401601f810186136117d8575f5ffd5b80356001600160401b038111156117ed575f5ffd5b8660208284010111156117fe575f5ffd5b939660209190910195509293505050565b5f5f60408385031215611820575f5ffd5b823561182b816116be565b91506020830135611753816116be565b5f6101c0828403121561184c575f5ffd5b610ecf8383611779565b5f81518084528060208401602086015e5f602082860101526020601f19601f83011685010191505092915050565b60ff60f81b8816815260e060208201525f6118a260e0830189611856565b82810360408401526118b48189611856565b606084018890526001600160a01b038716608085015260a0840186905283810360c0850152845180825260208087019350909101905f5b818110156119095783518352602093840193909201916001016118eb565b50909b9a5050505050505050505050565b5f5f6040838503121561192b575f5ffd5b8235611936816116be565b946020939093013593505050565b602081525f610ecf6020830184611856565b5f5f83601f840112611966575f5ffd5b5081356001600160401b0381111561197c575f5ffd5b6020830191508360208260051b8501011115611996575f5ffd5b9250929050565b5f5f5f5f604085870312156119b0575f5ffd5b84356001600160401b038111156119c5575f5ffd5b6119d187828801611956565b90955093505060208501356001600160401b038111156119ef575f5ffd5b6119fb87828801611956565b95989497509550505050565b5f60208284031215611a17575f5ffd5b610ecf826116d2565b634e487b7160e01b5f52604160045260245ffd5b604080519081016001600160401b0381118282101715611a5657611a56611a20565b60405290565b604051601f8201601f191681016001600160401b0381118282101715611a8457611a84611a20565b604052919050565b6001600160401b0381168114610f12575f5ffd5b80516116e181611a8c565b5f5f5f60608486031215611abd575f5ffd5b8351611ac8816116be565b60208501519093506001600160401b03811115611ae3575f5ffd5b8401601f81018613611af3575f5ffd5b80516001600160401b03811115611b0c57611b0c611a20565b611b1b60208260051b01611a5c565b8082825260208201915060208360061b850101925088831115611b3c575f5ffd5b6020840193505b82841015611b8c576040848a031215611b5a575f5ffd5b611b62611a34565b8451611b6d816116be565b8152602085810151818301529083526040909401939190910190611b43565b9450611b9e9250505060408501611aa0565b90509250925092565b634e487b7160e01b5f52603260045260245ffd5b5f60208284031215611bcb575f5ffd5b5051919050565b5f60208284031215611be2575f5ffd5b8151610ecf816116be565b5f60208284031215611bfd575f5ffd5b8135610ecf81611a8c565b5f81518060208401855e5f93019283525090919050565b5f611c33611c2d8386611c08565b84611c08565b949350505050565b600181811c90821680611c4f57607f821691505b60208210810361178a57634e487b7160e01b5f52602260045260245ffd5b634e487b7160e01b5f52602160045260245ffdfea264697066735822122017092fbfddfd2d16f30d7791834b271144a50d481aebe76a467b87c2ad02b88964736f6c634300081c0033",
  "linkReferences": {},
  "deployedLinkReferences": {},
  "immutableReferences": {
    "3617": [
      {
        "length": 32,
        "start": 4795
      }
    ],
    "3619": [
      {
        "length": 32,
        "start": 4753
      }
    ],
    "3621": [
      {
        "length": 32,
        "start": 4711
      }
    ],
    "3623": [
      {
        "length": 32,
        "start": 4876
      }
    ],
    "3625": [
      {
        "length": 32,
        "start": 4916
      }
    ],
    "3628": [
      {
        "length": 32,
        "start": 4577
      }
    ],
    "3631": [
      {
        "length": 32,
        "start": 4621
      }
    ]
  },
  "inputSourceName": "project/contracts/core/PayIDVerifier.sol",
  "buildInfoId": "solc-0_8_28-1a9ba028b687adcc76f156980195a1cd5fc2e1e7"
}