{
  "_format": "hh3-artifact-1",
  "contractName": "EscrowMilestone",
  "sourceName": "contracts/core/EscrowMilestone.sol",
  "abi": [
    {
      "inputs": [],
      "stateMutability": "nonpayable",
      "type": "constructor"
    },
    {
      "inputs": [],
      "name": "AlreadyReleased",
      "type": "error"
    },
    {
      "inputs": [],
      "name": "DeadlinePassed",
      "type": "error"
    },
    {
      "inputs": [],
      "name": "InvalidMilestone",
      "type": "error"
    },
    {
      "inputs": [],
      "name": "NotArbiter",
      "type": "error"
    },
    {
      "inputs": [],
      "name": "NotClient",
      "type": "error"
    },
    {
      "inputs": [],
      "name": "NotDisputed",
      "type": "error"
    },
    {
      "inputs": [],
      "name": "NotFreelancer",
      "type": "error"
    },
    {
      "inputs": [
        {
          "internalType": "address",
          "name": "owner",
          "type": "address"
        }
      ],
      "name": "OwnableInvalidOwner",
      "type": "error"
    },
    {
      "inputs": [
        {
          "internalType": "address",
          "name": "account",
          "type": "address"
        }
      ],
      "name": "OwnableUnauthorizedAccount",
      "type": "error"
    },
    {
      "inputs": [],
      "name": "ReentrancyGuardReentrantCall",
      "type": "error"
    },
    {
      "inputs": [],
      "name": "TransferFailed",
      "type": "error"
    },
    {
      "anonymous": false,
      "inputs": [
        {
          "indexed": true,
          "internalType": "uint256",
          "name": "escrowId",
          "type": "uint256"
        }
      ],
      "name": "Disputed",
      "type": "event"
    },
    {
      "anonymous": false,
      "inputs": [
        {
          "indexed": true,
          "internalType": "uint256",
          "name": "escrowId",
          "type": "uint256"
        },
        {
          "indexed": true,
          "internalType": "address",
          "name": "client",
          "type": "address"
        },
        {
          "indexed": true,
          "internalType": "address",
          "name": "freelancer",
          "type": "address"
        },
        {
          "indexed": false,
          "internalType": "uint256",
          "name": "total",
          "type": "uint256"
        }
      ],
      "name": "EscrowCreated",
      "type": "event"
    },
    {
      "anonymous": false,
      "inputs": [
        {
          "indexed": true,
          "internalType": "uint256",
          "name": "escrowId",
          "type": "uint256"
        },
        {
          "indexed": true,
          "internalType": "uint256",
          "name": "index",
          "type": "uint256"
        },
        {
          "indexed": false,
          "internalType": "bytes32",
          "name": "evidenceHash",
          "type": "bytes32"
        }
      ],
      "name": "MilestoneConfirmed",
      "type": "event"
    },
    {
      "anonymous": false,
      "inputs": [
        {
          "indexed": true,
          "internalType": "uint256",
          "name": "escrowId",
          "type": "uint256"
        },
        {
          "indexed": true,
          "internalType": "uint256",
          "name": "index",
          "type": "uint256"
        },
        {
          "indexed": false,
          "internalType": "uint256",
          "name": "amount",
          "type": "uint256"
        }
      ],
      "name": "MilestoneReleased",
      "type": "event"
    },
    {
      "anonymous": false,
      "inputs": [
        {
          "indexed": true,
          "internalType": "address",
          "name": "previousOwner",
          "type": "address"
        },
        {
          "indexed": true,
          "internalType": "address",
          "name": "newOwner",
          "type": "address"
        }
      ],
      "name": "OwnershipTransferred",
      "type": "event"
    },
    {
      "anonymous": false,
      "inputs": [
        {
          "indexed": true,
          "internalType": "uint256",
          "name": "escrowId",
          "type": "uint256"
        }
      ],
      "name": "Refunded",
      "type": "event"
    },
    {
      "inputs": [
        {
          "internalType": "address",
          "name": "",
          "type": "address"
        }
      ],
      "name": "arbiters",
      "outputs": [
        {
          "internalType": "bool",
          "name": "",
          "type": "bool"
        }
      ],
      "stateMutability": "view",
      "type": "function"
    },
    {
      "inputs": [
        {
          "internalType": "uint256",
          "name": "escrowId",
          "type": "uint256"
        }
      ],
      "name": "autoRefund",
      "outputs": [],
      "stateMutability": "nonpayable",
      "type": "function"
    },
    {
      "inputs": [
        {
          "internalType": "address",
          "name": "freelancer",
          "type": "address"
        },
        {
          "internalType": "address",
          "name": "asset",
          "type": "address"
        },
        {
          "internalType": "uint256[]",
          "name": "amounts",
          "type": "uint256[]"
        },
        {
          "internalType": "string[]",
          "name": "descriptions",
          "type": "string[]"
        },
        {
          "internalType": "uint256",
          "name": "deadline",
          "type": "uint256"
        }
      ],
      "name": "createEscrow",
      "outputs": [
        {
          "internalType": "uint256",
          "name": "escrowId",
          "type": "uint256"
        }
      ],
      "stateMutability": "payable",
      "type": "function"
    },
    {
      "inputs": [
        {
          "internalType": "uint256",
          "name": "escrowId",
          "type": "uint256"
        }
      ],
      "name": "dispute",
      "outputs": [],
      "stateMutability": "nonpayable",
      "type": "function"
    },
    {
      "inputs": [
        {
          "internalType": "uint256",
          "name": "",
          "type": "uint256"
        }
      ],
      "name": "escrows",
      "outputs": [
        {
          "internalType": "address",
          "name": "client",
          "type": "address"
        },
        {
          "internalType": "address",
          "name": "freelancer",
          "type": "address"
        },
        {
          "internalType": "address",
          "name": "asset",
          "type": "address"
        },
        {
          "internalType": "uint256",
          "name": "total",
          "type": "uint256"
        },
        {
          "internalType": "uint256",
          "name": "released",
          "type": "uint256"
        },
        {
          "internalType": "enum EscrowMilestone.Status",
          "name": "status",
          "type": "uint8"
        },
        {
          "internalType": "uint256",
          "name": "createdAt",
          "type": "uint256"
        },
        {
          "internalType": "uint256",
          "name": "deadline",
          "type": "uint256"
        }
      ],
      "stateMutability": "view",
      "type": "function"
    },
    {
      "inputs": [],
      "name": "nextEscrowId",
      "outputs": [
        {
          "internalType": "uint256",
          "name": "",
          "type": "uint256"
        }
      ],
      "stateMutability": "view",
      "type": "function"
    },
    {
      "inputs": [],
      "name": "owner",
      "outputs": [
        {
          "internalType": "address",
          "name": "",
          "type": "address"
        }
      ],
      "stateMutability": "view",
      "type": "function"
    },
    {
      "inputs": [
        {
          "internalType": "uint256",
          "name": "escrowId",
          "type": "uint256"
        },
        {
          "internalType": "uint256",
          "name": "index",
          "type": "uint256"
        }
      ],
      "name": "releaseMilestone",
      "outputs": [],
      "stateMutability": "nonpayable",
      "type": "function"
    },
    {
      "inputs": [],
      "name": "renounceOwnership",
      "outputs": [],
      "stateMutability": "nonpayable",
      "type": "function"
    },
    {
      "inputs": [
        {
          "internalType": "uint256",
          "name": "escrowId",
          "type": "uint256"
        }
      ],
      "name": "resolveRefund",
      "outputs": [],
      "stateMutability": "nonpayable",
      "type": "function"
    },
    {
      "inputs": [
        {
          "internalType": "address",
          "name": "arbiter",
          "type": "address"
        },
        {
          "internalType": "bool",
          "name": "allowed",
          "type": "bool"
        }
      ],
      "name": "setArbiter",
      "outputs": [],
      "stateMutability": "nonpayable",
      "type": "function"
    },
    {
      "inputs": [
        {
          "internalType": "uint256",
          "name": "escrowId",
          "type": "uint256"
        },
        {
          "internalType": "uint256",
          "name": "index",
          "type": "uint256"
        },
        {
          "internalType": "bytes32",
          "name": "evidenceHash",
          "type": "bytes32"
        }
      ],
      "name": "submitMilestone",
      "outputs": [],
      "stateMutability": "nonpayable",
      "type": "function"
    },
    {
      "inputs": [
        {
          "internalType": "address",
          "name": "newOwner",
          "type": "address"
        }
      ],
      "name": "transferOwnership",
      "outputs": [],
      "stateMutability": "nonpayable",
      "type": "function"
    },
    {
      "stateMutability": "payable",
      "type": "receive"
    }
  ],
  "bytecode": "0x6080604052348015600e575f5ffd5b503380603357604051631e4fbdf760e01b81525f600482015260240160405180910390fd5b603a816063565b5060017f9b779b17422d0df92223018b32b4d1fa46e071723d6817e2486d003becc55f005560b2565b5f80546001600160a01b038381166001600160a01b0319831681178455604051919092169283917f8be0079c531659141344cd1fd0a4f28419497f9722a3daafe3b4186f6b6457e09190a35050565b6112f2806100bf5f395ff3fe6080604052600436106100c2575f3560e01c806376f9a6071161007c57806389cb29dd1161005757806389cb29dd1461026b5780638da5cb5b14610280578063dbaf0910146102a6578063f2fde38b146102c5575f5ffd5b806376f9a607146101ed5780637bf2bb101461020e57806386d6282c1461024c575f5ffd5b8063012f52ee146100cd5780630993cdbe1461015b57806326972b011461017c5780634c909aa91461019b5780636736044d146101ba578063715018a6146101d9575f5ffd5b366100c957005b5f5ffd5b3480156100d8575f5ffd5b5061013e6100e7366004610e45565b600160208190525f9182526040909120805491810154600282015460038301546004840154600585015460078601546008909601546001600160a01b03978816979586169695909416949293919260ff9091169188565b604051610152989796959493929190610e70565b60405180910390f35b348015610166575f5ffd5b5061017a610175366004610e45565b6102e4565b005b348015610187575f5ffd5b5061017a610196366004610f02565b610408565b3480156101a6575f5ffd5b5061017a6101b5366004610e45565b610484565b3480156101c5575f5ffd5b5061017a6101d4366004610f37565b610501565b3480156101e4575f5ffd5b5061017a610614565b6102006101fb366004610fa8565b610627565b604051908152602001610152565b348015610219575f5ffd5b5061023c610228366004611040565b60036020525f908152604090205460ff1681565b6040519015158152602001610152565b348015610257575f5ffd5b5061017a610266366004610e45565b610973565b348015610276575f5ffd5b5061020060025481565b34801561028b575f5ffd5b505f546040516001600160a01b039091168152602001610152565b3480156102b1575f5ffd5b5061017a6102c0366004611060565b610a02565b3480156102d0575f5ffd5b5061017a6102df366004611040565b610c2a565b6102ec610c64565b5f818152600160205260409020600881015442101561031e5760405163387b2e5560e11b815260040160405180910390fd5b6001600582015460ff16600481111561033957610339610e5c565b1415801561036057506002600582015460ff16600481111561035d5761035d610e5c565b14155b1561037e576040516310cec38560e21b815260040160405180910390fd5b5f816004015482600301546103939190611094565b60058301805460ff19166004179055825460028401549192506103c3916001600160a01b03918216911683610c7f565b60405183907f3d2a04f53164bedf9a8a46353305d6b2d2261410406df3b41f99ce6489dc003c905f90a2505061040560015f51602061129d5f395f51905f5255565b50565b610410610d9b565b6001600160a01b03821661045a5760405162461bcd60e51b815260206004820152600c60248201526b5a45524f5f4144445245535360a01b60448201526064015b60405180910390fd5b6001600160a01b03919091165f908152600360205260409020805460ff1916911515919091179055565b335f9081526003602052604090205460ff166104b35760405163665b32d360e11b815260040160405180910390fd5b6104bb610c64565b5f8181526001602052604090206002600582015460ff1660048111156104e3576104e3610e5c565b1461037e576040516310cec38560e21b815260040160405180910390fd5b5f838152600160208190526040909120908101546001600160a01b0316331461053d57604051633832386960e11b815260040160405180910390fd5b60068101548310610561576040516302e845cd60e61b815260040160405180910390fd5b806006018381548110610576576105766110ad565b5f91825260209091206002600490920201015460ff16156105aa576040516331da482760e11b815260040160405180910390fd5b818160060184815481106105c0576105c06110ad565b905f5260205f2090600402016003018190555082847f413e696d7135c3360353dfba23efa6275e5dc3de18a80e00d29949de0636ade68460405161060691815260200190565b60405180910390a350505050565b61061c610d9b565b6106255f610dc7565b565b5f848314801561063657508415155b6106725760405162461bcd60e51b815260206004820152600d60248201526c1253959053125117d253941555609a1b6044820152606401610451565b5f5f5b868110156106ab5787878281811061068f5761068f6110ad565b90506020020135826106a191906110c1565b9150600101610675565b506001600160a01b0388166106fd578034146106f85760405162461bcd60e51b815260206004820152600c60248201526b08aa890be9a92a69a82a886960a31b6044820152606401610451565b610773565b6040516323b872dd60e01b8152336004820152306024820152604481018290526001600160a01b038916906323b872dd906064016020604051808303815f875af115801561074d573d5f5f3e3d5ffd5b505050506040513d601f19601f8201168201806040525081019061077191906110d4565b505b60028054905f610782836110ef565b909155505f8181526001602081905260409091208054336001600160a01b0319918216178255818301805482166001600160a01b038f811691909117909155600283018054909216908d1617905560038101849055600581018054939550909260ff191682800217905550426007820155600881018490555f5b8781101561091757816006016040518060a00160405280898985818110610825576108256110ad565b90506020028101906108379190611107565b8080601f0160208091040260200160405190810160405280939291908181526020018383808284375f920191909152505050908252506020018b8b85818110610882576108826110ad565b602090810292909201358352505f8282018190526040830181905260609092018290528354600181018555938252902081519192600402019081906108c790826111e1565b5060208201516001808301919091556040830151600283018054606086015115156101000261ff00199315159390931661ffff1990911617919091179055608090920151600390910155016107fc565b50896001600160a01b0316336001600160a01b0316847f9405ad0a6208539879349284d71265479b1623846f70303da1f9890d6e8c10a78560405161095e91815260200190565b60405180910390a45050979650505050505050565b5f81815260016020526040902080546001600160a01b031633148015906109a7575060018101546001600160a01b03163314155b156109c557604051630836f21d60e21b815260040160405180910390fd5b60058101805460ff1916600217905560405182907f7e3d476b0ad3176eefadbd6672356ef3884fad75f1344623a88d4a8087842336905f90a25050565b335f9081526003602052604090205460ff16610a315760405163665b32d360e11b815260040160405180910390fd5b610a39610c64565b5f82815260016020526040902060068101548210610a6a576040516302e845cd60e61b815260040160405180910390fd5b806006018281548110610a7f57610a7f6110ad565b5f91825260209091206002600490920201015460ff1615610ab3576040516331da482760e11b815260040160405180910390fd5b6001816006018381548110610aca57610aca6110ad565b905f5260205f2090600402016002015f6101000a81548160ff0219169083151502179055506001816006018381548110610b0657610b066110ad565b905f5260205f20906004020160020160016101000a81548160ff021916908315150217905550806006018281548110610b4157610b416110ad565b905f5260205f20906004020160010154816004015f828254610b6391906110c1565b909155505060018101546002820154600683018054610bb0936001600160a01b039081169316919086908110610b9b57610b9b6110ad565b905f5260205f20906004020160010154610c7f565b81837fd33fcd27cbfb73a2d9058c968b560ccb306500bf536133802048489ecc7355e9836006018581548110610be857610be86110ad565b905f5260205f20906004020160010154604051610c0791815260200190565b60405180910390a350610c2660015f51602061129d5f395f51905f5255565b5050565b610c32610d9b565b6001600160a01b038116610c5b57604051631e4fbdf760e01b81525f6004820152602401610451565b61040581610dc7565b610c6c610e16565b60025f51602061129d5f395f51905f5255565b6001600160a01b038216610d03575f836001600160a01b0316826040515f6040518083038185875af1925050503d805f8114610cd6576040519150601f19603f3d011682016040523d82523d5f602084013e610cdb565b606091505b5050905080610cfd576040516312171d8360e31b815260040160405180910390fd5b50505050565b60405163a9059cbb60e01b81526001600160a01b038481166004830152602482018390525f919084169063a9059cbb906044016020604051808303815f875af1158015610d52573d5f5f3e3d5ffd5b505050506040513d601f19601f82011682018060405250810190610d7691906110d4565b905080610cfd576040516312171d8360e31b815260040160405180910390fd5b505050565b5f546001600160a01b031633146106255760405163118cdaa760e01b8152336004820152602401610451565b5f80546001600160a01b038381166001600160a01b0319831681178455604051919092169283917f8be0079c531659141344cd1fd0a4f28419497f9722a3daafe3b4186f6b6457e09190a35050565b5f51602061129d5f395f51905f525460020361062557604051633ee5aeb560e01b815260040160405180910390fd5b5f60208284031215610e55575f5ffd5b5035919050565b634e487b7160e01b5f52602160045260245ffd5b6001600160a01b0389811682528881166020830152871660408201526060810186905260808101859052610100810160058510610ebb57634e487b7160e01b5f52602160045260245ffd5b8460a08301528360c08301528260e08301529998505050505050505050565b80356001600160a01b0381168114610ef0575f5ffd5b919050565b8015158114610405575f5ffd5b5f5f60408385031215610f13575f5ffd5b610f1c83610eda565b91506020830135610f2c81610ef5565b809150509250929050565b5f5f5f60608486031215610f49575f5ffd5b505081359360208301359350604090920135919050565b5f5f83601f840112610f70575f5ffd5b50813567ffffffffffffffff811115610f87575f5ffd5b6020830191508360208260051b8501011115610fa1575f5ffd5b9250929050565b5f5f5f5f5f5f5f60a0888a031215610fbe575f5ffd5b610fc788610eda565b9650610fd560208901610eda565b9550604088013567ffffffffffffffff811115610ff0575f5ffd5b610ffc8a828b01610f60565b909650945050606088013567ffffffffffffffff81111561101b575f5ffd5b6110278a828b01610f60565b989b979a50959894979596608090950135949350505050565b5f60208284031215611050575f5ffd5b61105982610eda565b9392505050565b5f5f60408385031215611071575f5ffd5b50508035926020909101359150565b634e487b7160e01b5f52601160045260245ffd5b818103818111156110a7576110a7611080565b92915050565b634e487b7160e01b5f52603260045260245ffd5b808201808211156110a7576110a7611080565b5f602082840312156110e4575f5ffd5b815161105981610ef5565b5f6001820161110057611100611080565b5060010190565b5f5f8335601e1984360301811261111c575f5ffd5b83018035915067ffffffffffffffff821115611136575f5ffd5b602001915036819003821315610fa1575f5ffd5b634e487b7160e01b5f52604160045260245ffd5b600181811c9082168061117257607f821691505b60208210810361119057634e487b7160e01b5f52602260045260245ffd5b50919050565b601f821115610d9657805f5260205f20601f840160051c810160208510156111bb5750805b601f840160051c820191505b818110156111da575f81556001016111c7565b5050505050565b815167ffffffffffffffff8111156111fb576111fb61114a565b61120f81611209845461115e565b84611196565b6020601f821160018114611241575f831561122a5750848201515b5f19600385901b1c1916600184901b1784556111da565b5f84815260208120601f198516915b828110156112705787850151825560209485019460019092019101611250565b508482101561128d57868401515f19600387901b60f8161c191681555b50505050600190811b0190555056fe9b779b17422d0df92223018b32b4d1fa46e071723d6817e2486d003becc55f00a2646970667358221220934a72b47c9a83ff9900d09b75f4d664d768ae25747f8afa623dd8dc00f32d3f64736f6c634300081c0033",
  "linkReferences": {},
  "deployedLinkReferences": {},
  "immutableReferences": {},
  "inputSourceName": "project/contracts/core/EscrowMilestone.sol",
  "buildInfoId": "solc-0_8_28-eaef0c2cf8e567fac7a7ec8f4cc7ecf92fbfa702"
}