{
  "_format": "hh3-artifact-1",
  "contractName": "AgentPayID",
  "sourceName": "contracts/core/AgentPayID.sol",
  "abi": [
    {
      "inputs": [
        {
          "internalType": "address",
          "name": "_agentRegistry",
          "type": "address"
        },
        {
          "internalType": "address",
          "name": "_verifier",
          "type": "address"
        }
      ],
      "stateMutability": "nonpayable",
      "type": "constructor"
    },
    {
      "anonymous": false,
      "inputs": [
        {
          "indexed": true,
          "internalType": "uint256",
          "name": "agentTokenId",
          "type": "uint256"
        },
        {
          "indexed": true,
          "internalType": "bytes32",
          "name": "ruleSetHash",
          "type": "bytes32"
        }
      ],
      "name": "AgentRuleLinked",
      "type": "event"
    },
    {
      "inputs": [],
      "name": "agentRegistry",
      "outputs": [
        {
          "internalType": "address",
          "name": "",
          "type": "address"
        }
      ],
      "stateMutability": "view",
      "type": "function"
    },
    {
      "inputs": [
        {
          "internalType": "uint256",
          "name": "",
          "type": "uint256"
        }
      ],
      "name": "agentRules",
      "outputs": [
        {
          "internalType": "bytes32",
          "name": "",
          "type": "bytes32"
        }
      ],
      "stateMutability": "view",
      "type": "function"
    },
    {
      "inputs": [
        {
          "internalType": "uint256",
          "name": "agentTokenId",
          "type": "uint256"
        },
        {
          "internalType": "bytes32",
          "name": "ruleSetHash",
          "type": "bytes32"
        }
      ],
      "name": "linkAgentRule",
      "outputs": [],
      "stateMutability": "nonpayable",
      "type": "function"
    },
    {
      "inputs": [],
      "name": "verifier",
      "outputs": [
        {
          "internalType": "contract PayIDVerifier",
          "name": "",
          "type": "address"
        }
      ],
      "stateMutability": "view",
      "type": "function"
    },
    {
      "inputs": [
        {
          "internalType": "uint256",
          "name": "agentTokenId",
          "type": "uint256"
        },
        {
          "components": [
            {
              "internalType": "bytes32",
              "name": "version",
              "type": "bytes32"
            },
            {
              "internalType": "bytes32",
              "name": "payId",
              "type": "bytes32"
            },
            {
              "internalType": "address",
              "name": "payer",
              "type": "address"
            },
            {
              "internalType": "address",
              "name": "receiver",
              "type": "address"
            },
            {
              "internalType": "address",
              "name": "asset",
              "type": "address"
            },
            {
              "internalType": "uint256",
              "name": "amount",
              "type": "uint256"
            },
            {
              "internalType": "bytes32",
              "name": "contextHash",
              "type": "bytes32"
            },
            {
              "internalType": "bytes32",
              "name": "ruleSetHash",
              "type": "bytes32"
            },
            {
              "internalType": "address",
              "name": "ruleAuthority",
              "type": "address"
            },
            {
              "internalType": "uint64",
              "name": "issuedAt",
              "type": "uint64"
            },
            {
              "internalType": "uint64",
              "name": "expiresAt",
              "type": "uint64"
            },
            {
              "internalType": "bytes32",
              "name": "nonce",
              "type": "bytes32"
            },
            {
              "internalType": "bool",
              "name": "requiresAttestation",
              "type": "bool"
            },
            {
              "internalType": "bytes32",
              "name": "attestationUIDsHash",
              "type": "bytes32"
            }
          ],
          "internalType": "struct PayIDVerifier.Decision",
          "name": "d",
          "type": "tuple"
        },
        {
          "internalType": "bytes",
          "name": "sig",
          "type": "bytes"
        }
      ],
      "name": "verifyAgentPayment",
      "outputs": [],
      "stateMutability": "nonpayable",
      "type": "function"
    }
  ],
  "bytecode": "0x6080604052348015600e575f5ffd5b50604051610601380380610601833981016040819052602b916074565b5f80546001600160a01b039384166001600160a01b0319918216179091556001805492909316911617905560a0565b80516001600160a01b0381168114606f575f5ffd5b919050565b5f5f604083850312156084575f5ffd5b608b83605a565b9150609760208401605a565b90509250929050565b610554806100ad5f395ff3fe608060405234801561000f575f5ffd5b5060043610610055575f3560e01c80630d1cfcae146100595780632b7ac3f3146100885780633e5d8fd91461009b5780634c667e92146100c85780639b98e5b8146100dd575b5f5ffd5b5f5461006b906001600160a01b031681565b6040516001600160a01b0390911681526020015b60405180910390f35b60015461006b906001600160a01b031681565b6100ba6100a93660046102a2565b60026020525f908152604090205481565b60405190815260200161007f565b6100db6100d63660046102b9565b6100f0565b005b6100db6100eb3660046102d9565b6101e5565b5f546040516331a9108f60e11b81526004810184905233916001600160a01b031690636352211e90602401602060405180830381865afa158015610136573d5f5f3e3d5ffd5b505050506040513d601f19601f8201168201806040525081019061015a9190610381565b6001600160a01b0316146101a75760405162461bcd60e51b815260206004820152600f60248201526e2727aa2fa0a3a2a72a2fa7aba722a960891b60448201526064015b60405180910390fd5b5f8281526002602052604080822083905551829184917f72a3c311dc4070669f6d8d46ef6fa81a8ee6a75632e9ed726b781e39a40cda5f9190a35050565b5f8481526002602052604090205460e08401351461023b5760405162461bcd60e51b81526020600482015260136024820152720828e8a9ca8bea4aa988abe9a92a69a82a8869606b1b604482015260640161019e565b60015460405163343e74a760e01b81526001600160a01b039091169063343e74a79061026f90869086908690600401610401565b5f604051808303815f87803b158015610286575f5ffd5b505af1158015610298573d5f5f3e3d5ffd5b5050505050505050565b5f602082840312156102b2575f5ffd5b5035919050565b5f5f604083850312156102ca575f5ffd5b50508035926020909101359150565b5f5f5f5f8486036102008112156102ee575f5ffd5b853594506101c0601f1982011215610304575f5ffd5b506020850192506101e085013567ffffffffffffffff811115610325575f5ffd5b8501601f81018713610335575f5ffd5b803567ffffffffffffffff81111561034b575f5ffd5b87602082840101111561035c575f5ffd5b949793965060200194505050565b6001600160a01b038116811461037e575f5ffd5b50565b5f60208284031215610391575f5ffd5b815161039c8161036a565b9392505050565b80356103ae8161036a565b919050565b803567ffffffffffffffff811681146103ae575f5ffd5b803580151581146103ae575f5ffd5b81835281816020850137505f828201602090810191909152601f909101601f19169091010190565b83358152602080850135908201525f61041c604086016103a3565b6001600160a01b03166040830152610436606086016103a3565b6001600160a01b03166060830152610450608086016103a3565b6001600160a01b0316608083015260a0858101359083015260c0808601359083015260e0808601359083015261048961010086016103a3565b6001600160a01b03166101008301526104a561012086016103b3565b67ffffffffffffffff166101208301526104c261014086016103b3565b67ffffffffffffffff1661014083015261016085810135908301526104ea61018086016103ca565b15156101808301526101a085810135908301526101e06101c0830181905261051590830184866103d9565b9594505050505056fea264697066735822122035817acc42e7228a2b4d2f9b6f5fa2e233f05ec1349000c1884ba293a40c2fb164736f6c634300081c0033",
  "linkReferences": {},
  "deployedLinkReferences": {},
  "immutableReferences": {},
  "inputSourceName": "project/contracts/core/AgentPayID.sol",
  "buildInfoId": "solc-0_8_28-9497dc11d7a509c49f16d3295b18bd7c4e958bf6"
}