{
  "_format": "hh3-artifact-1",
  "contractName": "PayWithPayID",
  "sourceName": "contracts/PayWithPayID.sol",
  "abi": [
    {
      "inputs": [
        {
          "internalType": "address",
          "name": "verifierAddress",
          "type": "address"
        }
      ],
      "stateMutability": "nonpayable",
      "type": "constructor"
    },
    {
      "inputs": [
        {
          "components": [
            {
              "internalType": "bytes32",
              "name": "version",
              "type": "bytes32"
            },
            {
              "internalType": "bytes32",
              "name": "payId",
              "type": "bytes32"
            },
            {
              "internalType": "address",
              "name": "owner",
              "type": "address"
            },
            {
              "internalType": "uint8",
              "name": "decision",
              "type": "uint8"
            },
            {
              "internalType": "bytes32",
              "name": "contextHash",
              "type": "bytes32"
            },
            {
              "internalType": "bytes32",
              "name": "ruleSetHash",
              "type": "bytes32"
            },
            {
              "internalType": "uint64",
              "name": "issuedAt",
              "type": "uint64"
            },
            {
              "internalType": "uint64",
              "name": "expiresAt",
              "type": "uint64"
            },
            {
              "internalType": "bytes32",
              "name": "nonce",
              "type": "bytes32"
            }
          ],
          "internalType": "struct PayIDVerifier.Decision",
          "name": "decision",
          "type": "tuple"
        },
        {
          "internalType": "bytes",
          "name": "signature",
          "type": "bytes"
        }
      ],
      "name": "pay",
      "outputs": [],
      "stateMutability": "payable",
      "type": "function"
    },
    {
      "inputs": [],
      "name": "verifier",
      "outputs": [
        {
          "internalType": "contract PayIDVerifier",
          "name": "",
          "type": "address"
        }
      ],
      "stateMutability": "view",
      "type": "function"
    }
  ],
  "bytecode": "0x60a0604052348015600e575f5ffd5b50604051610366380380610366833981016040819052602b91603b565b6001600160a01b03166080526066565b5f60208284031215604a575f5ffd5b81516001600160a01b0381168114605f575f5ffd5b9392505050565b6080516102e36100835f395f8181603d015260a701526102e35ff3fe608060405260043610610028575f3560e01c80632b7ac3f31461002c578063aa14df091461007b575b5f5ffd5b348015610037575f5ffd5b5061005f7f000000000000000000000000000000000000000000000000000000000000000081565b6040516001600160a01b03909116815260200160405180910390f35b61008e610089366004610111565b610090565b005b604051630dbff59d60e01b81526001600160a01b037f00000000000000000000000000000000000000000000000000000000000000001690630dbff59d906100e0908690869086906004016101ed565b5f6040518083038186803b1580156100f6575f5ffd5b505afa158015610108573d5f5f3e3d5ffd5b50505050505050565b5f5f5f838503610140811215610125575f5ffd5b610120811215610133575f5ffd5b5083925061012084013567ffffffffffffffff811115610151575f5ffd5b8401601f81018613610161575f5ffd5b803567ffffffffffffffff811115610177575f5ffd5b866020828401011115610188575f5ffd5b939660209190910195509293505050565b803560ff811681146101a9575f5ffd5b919050565b803567ffffffffffffffff811681146101a9575f5ffd5b81835281816020850137505f828201602090810191909152601f909101601f19169091010190565b83358152602080850135908201525f60408501356001600160a01b0381168114610215575f5ffd5b6001600160a01b0316604083015261022f60608601610199565b60ff1660608301526080858101359083015260a0808601359083015261025760c086016101ae565b67ffffffffffffffff1660c083015261027260e086016101ae565b67ffffffffffffffff1660e0830152610100858101359083015261014061012083018190526102a490830184866101c5565b9594505050505056fea2646970667358221220de0c3da349f8d9158efdad7d11c35f3296440a0fe921961f59ecaa3e9f8ed77664736f6c634300081c0033",
  "linkReferences": {},
  "deployedLinkReferences": {},
  "immutableReferences": {
    "6198": [
      {
        "length": 32,
        "start": 61
      },
      {
        "length": 32,
        "start": 167
      }
    ]
  },
  "inputSourceName": "project/contracts/PayWithPayID.sol",
  "buildInfoId": "solc-0_8_28-9db03eace8bcb22a7c8442531c5b3dae062daa5e"
}