{
  "_format": "hh3-artifact-1",
  "contractName": "PayWithPayID",
  "sourceName": "contracts/PayWithPayID.sol",
  "abi": [
    {
      "inputs": [
        {
          "internalType": "address",
          "name": "verifierAddress",
          "type": "address"
        }
      ],
      "stateMutability": "nonpayable",
      "type": "constructor"
    },
    {
      "anonymous": false,
      "inputs": [
        {
          "indexed": true,
          "internalType": "address",
          "name": "token",
          "type": "address"
        },
        {
          "indexed": true,
          "internalType": "address",
          "name": "payer",
          "type": "address"
        },
        {
          "indexed": true,
          "internalType": "address",
          "name": "receiver",
          "type": "address"
        },
        {
          "indexed": false,
          "internalType": "uint256",
          "name": "amount",
          "type": "uint256"
        },
        {
          "indexed": false,
          "internalType": "bytes32",
          "name": "payId",
          "type": "bytes32"
        }
      ],
      "name": "PaymentERC20",
      "type": "event"
    },
    {
      "anonymous": false,
      "inputs": [
        {
          "indexed": true,
          "internalType": "address",
          "name": "payer",
          "type": "address"
        },
        {
          "indexed": true,
          "internalType": "address",
          "name": "receiver",
          "type": "address"
        },
        {
          "indexed": false,
          "internalType": "uint256",
          "name": "amount",
          "type": "uint256"
        },
        {
          "indexed": false,
          "internalType": "bytes32",
          "name": "payId",
          "type": "bytes32"
        }
      ],
      "name": "PaymentETH",
      "type": "event"
    },
    {
      "inputs": [
        {
          "internalType": "address",
          "name": "token",
          "type": "address"
        },
        {
          "internalType": "uint256",
          "name": "amount",
          "type": "uint256"
        },
        {
          "components": [
            {
              "internalType": "bytes32",
              "name": "version",
              "type": "bytes32"
            },
            {
              "internalType": "bytes32",
              "name": "payId",
              "type": "bytes32"
            },
            {
              "internalType": "address",
              "name": "owner",
              "type": "address"
            },
            {
              "internalType": "uint8",
              "name": "decision",
              "type": "uint8"
            },
            {
              "internalType": "bytes32",
              "name": "contextHash",
              "type": "bytes32"
            },
            {
              "internalType": "bytes32",
              "name": "ruleSetHash",
              "type": "bytes32"
            },
            {
              "internalType": "uint64",
              "name": "issuedAt",
              "type": "uint64"
            },
            {
              "internalType": "uint64",
              "name": "expiresAt",
              "type": "uint64"
            },
            {
              "internalType": "bytes32",
              "name": "nonce",
              "type": "bytes32"
            }
          ],
          "internalType": "struct PayIDVerifier.Decision",
          "name": "decision",
          "type": "tuple"
        },
        {
          "internalType": "bytes",
          "name": "signature",
          "type": "bytes"
        }
      ],
      "name": "payERC20",
      "outputs": [],
      "stateMutability": "nonpayable",
      "type": "function"
    },
    {
      "inputs": [
        {
          "components": [
            {
              "internalType": "bytes32",
              "name": "version",
              "type": "bytes32"
            },
            {
              "internalType": "bytes32",
              "name": "payId",
              "type": "bytes32"
            },
            {
              "internalType": "address",
              "name": "owner",
              "type": "address"
            },
            {
              "internalType": "uint8",
              "name": "decision",
              "type": "uint8"
            },
            {
              "internalType": "bytes32",
              "name": "contextHash",
              "type": "bytes32"
            },
            {
              "internalType": "bytes32",
              "name": "ruleSetHash",
              "type": "bytes32"
            },
            {
              "internalType": "uint64",
              "name": "issuedAt",
              "type": "uint64"
            },
            {
              "internalType": "uint64",
              "name": "expiresAt",
              "type": "uint64"
            },
            {
              "internalType": "bytes32",
              "name": "nonce",
              "type": "bytes32"
            }
          ],
          "internalType": "struct PayIDVerifier.Decision",
          "name": "decision",
          "type": "tuple"
        },
        {
          "internalType": "bytes",
          "name": "signature",
          "type": "bytes"
        }
      ],
      "name": "payETH",
      "outputs": [],
      "stateMutability": "payable",
      "type": "function"
    },
    {
      "inputs": [],
      "name": "verifier",
      "outputs": [
        {
          "internalType": "contract PayIDVerifier",
          "name": "",
          "type": "address"
        }
      ],
      "stateMutability": "view",
      "type": "function"
    }
  ],
  "bytecode": "0x60a0604052348015600e575f5ffd5b50604051610709380380610709833981016040819052602b91603b565b6001600160a01b03166080526066565b5f60208284031215604a575f5ffd5b81516001600160a01b0381168114605f575f5ffd5b9392505050565b60805161067f61008a5f395f818160480152818160d101526101ef015261067f5ff3fe608060405260043610610033575f3560e01c80632b7ac3f3146100375780634340e78814610086578063cb36bded1461009b575b5f5ffd5b348015610042575f5ffd5b5061006a7f000000000000000000000000000000000000000000000000000000000000000081565b6040516001600160a01b03909116815260200160405180910390f35b610099610094366004610437565b6100ba565b005b3480156100a6575f5ffd5b506100996100b53660046104a4565b6101d8565b604051630dbff59d60e01b81526001600160a01b037f00000000000000000000000000000000000000000000000000000000000000001690630dbff59d9061010a90869086908690600401610550565b5f6040518083038186803b158015610120575f5ffd5b505afa158015610132573d5f5f3e3d5ffd5b505050505f34116101735760405162461bcd60e51b815260206004820152600660248201526509c9ebe8aa8960d31b60448201526064015b60405180910390fd5b33610184606085016040860161060a565b6001600160a01b03167f2d6756bee90c7a94f1550456cd20ee34fbd7de70e451aa97d61b5450d3d81be43486602001356040516101cb929190918252602082015260400190565b60405180910390a3505050565b604051630dbff59d60e01b81526001600160a01b037f00000000000000000000000000000000000000000000000000000000000000001690630dbff59d9061022890869086908690600401610550565b5f6040518083038186803b15801561023e575f5ffd5b505afa158015610250573d5f5f3e3d5ffd5b505050505f84116102945760405162461bcd60e51b815260206004820152600e60248201526d1253959053125117d05353d5539560921b604482015260640161016a565b5f6001600160a01b0386166323b872dd6102b4606087016040880161060a565b6040516001600160e01b031960e084901b1681526001600160a01b039091166004820152336024820152604481018890526064016020604051808303815f875af1158015610304573d5f5f3e3d5ffd5b505050506040513d601f19601f82011682018060405250810190610328919061062a565b9050806103695760405162461bcd60e51b815260206004820152600f60248201526e1514905394d1915497d19052531151608a1b604482015260640161016a565b3361037a606086016040870161060a565b6001600160a01b0316876001600160a01b03167ffff60f6f6d49fe8e67601201641c574272686035b27535707e6492806143279d8888602001356040516103cb929190918252602082015260400190565b60405180910390a4505050505050565b5f61012082840312156103ec575f5ffd5b50919050565b5f5f83601f840112610402575f5ffd5b50813567ffffffffffffffff811115610419575f5ffd5b602083019150836020828501011115610430575f5ffd5b9250929050565b5f5f5f610140848603121561044a575f5ffd5b61045485856103db565b925061012084013567ffffffffffffffff811115610470575f5ffd5b61047c868287016103f2565b9497909650939450505050565b80356001600160a01b038116811461049f575f5ffd5b919050565b5f5f5f5f5f61018086880312156104b9575f5ffd5b6104c286610489565b9450602086013593506104d887604088016103db565b925061016086013567ffffffffffffffff8111156104f4575f5ffd5b610500888289016103f2565b969995985093965092949392505050565b803567ffffffffffffffff8116811461049f575f5ffd5b81835281816020850137505f828201602090810191909152601f909101601f19169091010190565b83358152602080850135908201525f6001600160a01b0361057360408701610489565b166040830152606085013560ff8116811461058c575f5ffd5b60ff1660608301526080858101359083015260a080860135908301526105b460c08601610511565b67ffffffffffffffff1660c08301526105cf60e08601610511565b67ffffffffffffffff1660e0830152610100858101359083015261014061012083018190526106019083018486610528565b95945050505050565b5f6020828403121561061a575f5ffd5b61062382610489565b9392505050565b5f6020828403121561063a575f5ffd5b81518015158114610623575f5ffdfea264697066735822122046a182e3b975529d5da7db8263c96c4a805d3787efa74feab2977401cb48f6e564736f6c634300081c0033",
  "linkReferences": {},
  "deployedLinkReferences": {},
  "immutableReferences": {
    "6210": [
      {
        "length": 32,
        "start": 72
      },
      {
        "length": 32,
        "start": 209
      },
      {
        "length": 32,
        "start": 495
      }
    ]
  },
  "inputSourceName": "project/contracts/PayWithPayID.sol",
  "buildInfoId": "solc-0_8_28-4d7df8215a07346c674565521782c55ac700b431"
}