{
  "_format": "hh3-artifact-1",
  "contractName": "RuleAuthority",
  "sourceName": "contracts/core/RuleAuthority.sol",
  "abi": [
    {
      "inputs": [],
      "name": "AccessControlBadConfirmation",
      "type": "error"
    },
    {
      "inputs": [
        {
          "internalType": "address",
          "name": "account",
          "type": "address"
        },
        {
          "internalType": "bytes32",
          "name": "neededRole",
          "type": "bytes32"
        }
      ],
      "name": "AccessControlUnauthorizedAccount",
      "type": "error"
    },
    {
      "inputs": [],
      "name": "AlreadyInitialized",
      "type": "error"
    },
    {
      "inputs": [],
      "name": "NotInitialized",
      "type": "error"
    },
    {
      "anonymous": false,
      "inputs": [
        {
          "indexed": true,
          "internalType": "address",
          "name": "admin",
          "type": "address"
        }
      ],
      "name": "Initialized",
      "type": "event"
    },
    {
      "anonymous": false,
      "inputs": [
        {
          "indexed": true,
          "internalType": "bytes32",
          "name": "role",
          "type": "bytes32"
        },
        {
          "indexed": true,
          "internalType": "bytes32",
          "name": "previousAdminRole",
          "type": "bytes32"
        },
        {
          "indexed": true,
          "internalType": "bytes32",
          "name": "newAdminRole",
          "type": "bytes32"
        }
      ],
      "name": "RoleAdminChanged",
      "type": "event"
    },
    {
      "anonymous": false,
      "inputs": [
        {
          "indexed": true,
          "internalType": "bytes32",
          "name": "role",
          "type": "bytes32"
        },
        {
          "indexed": true,
          "internalType": "address",
          "name": "account",
          "type": "address"
        },
        {
          "indexed": true,
          "internalType": "address",
          "name": "sender",
          "type": "address"
        }
      ],
      "name": "RoleGranted",
      "type": "event"
    },
    {
      "anonymous": false,
      "inputs": [
        {
          "indexed": true,
          "internalType": "bytes32",
          "name": "role",
          "type": "bytes32"
        },
        {
          "indexed": true,
          "internalType": "address",
          "name": "account",
          "type": "address"
        },
        {
          "indexed": true,
          "internalType": "address",
          "name": "sender",
          "type": "address"
        }
      ],
      "name": "RoleRevoked",
      "type": "event"
    },
    {
      "anonymous": false,
      "inputs": [
        {
          "indexed": true,
          "internalType": "bytes32",
          "name": "ruleSetHash",
          "type": "bytes32"
        },
        {
          "indexed": true,
          "internalType": "address",
          "name": "owner",
          "type": "address"
        }
      ],
      "name": "RuleSetDeactivated",
      "type": "event"
    },
    {
      "anonymous": false,
      "inputs": [
        {
          "indexed": true,
          "internalType": "bytes32",
          "name": "ruleSetHash",
          "type": "bytes32"
        },
        {
          "indexed": true,
          "internalType": "address",
          "name": "owner",
          "type": "address"
        },
        {
          "indexed": false,
          "internalType": "uint64",
          "name": "version",
          "type": "uint64"
        }
      ],
      "name": "RuleSetRegistered",
      "type": "event"
    },
    {
      "anonymous": false,
      "inputs": [
        {
          "indexed": true,
          "internalType": "bytes32",
          "name": "oldHash",
          "type": "bytes32"
        },
        {
          "indexed": true,
          "internalType": "bytes32",
          "name": "newHash",
          "type": "bytes32"
        },
        {
          "indexed": true,
          "internalType": "address",
          "name": "owner",
          "type": "address"
        },
        {
          "indexed": false,
          "internalType": "uint64",
          "name": "newVersion",
          "type": "uint64"
        }
      ],
      "name": "RuleSetUpdated",
      "type": "event"
    },
    {
      "inputs": [],
      "name": "DEFAULT_ADMIN_ROLE",
      "outputs": [
        {
          "internalType": "bytes32",
          "name": "",
          "type": "bytes32"
        }
      ],
      "stateMutability": "view",
      "type": "function"
    },
    {
      "inputs": [
        {
          "internalType": "bytes32",
          "name": "ruleSetHash",
          "type": "bytes32"
        }
      ],
      "name": "deactivateRuleSet",
      "outputs": [],
      "stateMutability": "nonpayable",
      "type": "function"
    },
    {
      "inputs": [
        {
          "internalType": "address",
          "name": "owner",
          "type": "address"
        }
      ],
      "name": "getOwnerRuleSets",
      "outputs": [
        {
          "internalType": "bytes32[]",
          "name": "",
          "type": "bytes32[]"
        }
      ],
      "stateMutability": "view",
      "type": "function"
    },
    {
      "inputs": [
        {
          "internalType": "bytes32",
          "name": "role",
          "type": "bytes32"
        }
      ],
      "name": "getRoleAdmin",
      "outputs": [
        {
          "internalType": "bytes32",
          "name": "",
          "type": "bytes32"
        }
      ],
      "stateMutability": "view",
      "type": "function"
    },
    {
      "inputs": [
        {
          "internalType": "bytes32",
          "name": "ruleSetHash",
          "type": "bytes32"
        }
      ],
      "name": "getRuleByHash",
      "outputs": [
        {
          "internalType": "address",
          "name": "owner",
          "type": "address"
        },
        {
          "components": [
            {
              "internalType": "address",
              "name": "ruleNFT",
              "type": "address"
            },
            {
              "internalType": "uint256",
              "name": "tokenId",
              "type": "uint256"
            }
          ],
          "internalType": "struct IRuleAuthority.RuleRef[]",
          "name": "ruleRefs",
          "type": "tuple[]"
        },
        {
          "internalType": "uint64",
          "name": "version",
          "type": "uint64"
        }
      ],
      "stateMutability": "view",
      "type": "function"
    },
    {
      "inputs": [
        {
          "internalType": "bytes32",
          "name": "ruleSetHash",
          "type": "bytes32"
        },
        {
          "internalType": "uint256",
          "name": "index",
          "type": "uint256"
        }
      ],
      "name": "getRuleRef",
      "outputs": [
        {
          "internalType": "address",
          "name": "ruleNFT",
          "type": "address"
        },
        {
          "internalType": "uint256",
          "name": "tokenId",
          "type": "uint256"
        }
      ],
      "stateMutability": "view",
      "type": "function"
    },
    {
      "inputs": [
        {
          "internalType": "bytes32",
          "name": "ruleSetHash",
          "type": "bytes32"
        }
      ],
      "name": "getRuleSet",
      "outputs": [
        {
          "internalType": "address",
          "name": "owner",
          "type": "address"
        },
        {
          "internalType": "uint64",
          "name": "version",
          "type": "uint64"
        },
        {
          "internalType": "bool",
          "name": "active",
          "type": "bool"
        },
        {
          "internalType": "uint256",
          "name": "registeredAt",
          "type": "uint256"
        },
        {
          "internalType": "uint256",
          "name": "refCount",
          "type": "uint256"
        }
      ],
      "stateMutability": "view",
      "type": "function"
    },
    {
      "inputs": [
        {
          "internalType": "bytes32",
          "name": "role",
          "type": "bytes32"
        },
        {
          "internalType": "address",
          "name": "account",
          "type": "address"
        }
      ],
      "name": "grantRole",
      "outputs": [],
      "stateMutability": "nonpayable",
      "type": "function"
    },
    {
      "inputs": [
        {
          "internalType": "bytes32",
          "name": "role",
          "type": "bytes32"
        },
        {
          "internalType": "address",
          "name": "account",
          "type": "address"
        }
      ],
      "name": "hasRole",
      "outputs": [
        {
          "internalType": "bool",
          "name": "",
          "type": "bool"
        }
      ],
      "stateMutability": "view",
      "type": "function"
    },
    {
      "inputs": [
        {
          "internalType": "address",
          "name": "admin",
          "type": "address"
        }
      ],
      "name": "initialize",
      "outputs": [],
      "stateMutability": "nonpayable",
      "type": "function"
    },
    {
      "inputs": [],
      "name": "isInitialized",
      "outputs": [
        {
          "internalType": "bool",
          "name": "",
          "type": "bool"
        }
      ],
      "stateMutability": "view",
      "type": "function"
    },
    {
      "inputs": [
        {
          "internalType": "address",
          "name": "",
          "type": "address"
        },
        {
          "internalType": "uint256",
          "name": "",
          "type": "uint256"
        }
      ],
      "name": "ownerRuleSets",
      "outputs": [
        {
          "internalType": "bytes32",
          "name": "",
          "type": "bytes32"
        }
      ],
      "stateMutability": "view",
      "type": "function"
    },
    {
      "inputs": [
        {
          "internalType": "bytes32",
          "name": "ruleSetHash",
          "type": "bytes32"
        },
        {
          "components": [
            {
              "internalType": "address",
              "name": "ruleNFT",
              "type": "address"
            },
            {
              "internalType": "uint256",
              "name": "tokenId",
              "type": "uint256"
            }
          ],
          "internalType": "struct IRuleAuthority.RuleRef[]",
          "name": "ruleRefs",
          "type": "tuple[]"
        }
      ],
      "name": "registerRuleSet",
      "outputs": [],
      "stateMutability": "nonpayable",
      "type": "function"
    },
    {
      "inputs": [
        {
          "internalType": "bytes32",
          "name": "role",
          "type": "bytes32"
        },
        {
          "internalType": "address",
          "name": "callerConfirmation",
          "type": "address"
        }
      ],
      "name": "renounceRole",
      "outputs": [],
      "stateMutability": "nonpayable",
      "type": "function"
    },
    {
      "inputs": [
        {
          "internalType": "bytes32",
          "name": "role",
          "type": "bytes32"
        },
        {
          "internalType": "address",
          "name": "account",
          "type": "address"
        }
      ],
      "name": "revokeRole",
      "outputs": [],
      "stateMutability": "nonpayable",
      "type": "function"
    },
    {
      "inputs": [
        {
          "internalType": "bytes4",
          "name": "interfaceId",
          "type": "bytes4"
        }
      ],
      "name": "supportsInterface",
      "outputs": [
        {
          "internalType": "bool",
          "name": "",
          "type": "bool"
        }
      ],
      "stateMutability": "view",
      "type": "function"
    },
    {
      "inputs": [
        {
          "internalType": "bytes32",
          "name": "oldHash",
          "type": "bytes32"
        },
        {
          "internalType": "bytes32",
          "name": "newHash",
          "type": "bytes32"
        },
        {
          "components": [
            {
              "internalType": "address",
              "name": "ruleNFT",
              "type": "address"
            },
            {
              "internalType": "uint256",
              "name": "tokenId",
              "type": "uint256"
            }
          ],
          "internalType": "struct IRuleAuthority.RuleRef[]",
          "name": "newRefs",
          "type": "tuple[]"
        }
      ],
      "name": "updateRuleSet",
      "outputs": [],
      "stateMutability": "nonpayable",
      "type": "function"
    }
  ],
  "bytecode": "0x6080604052348015600e575f5ffd5b506115668061001c5f395ff3fe608060405234801561000f575f5ffd5b5060043610610106575f3560e01c8063392e53cd1161009e578063c4d66de81161006e578063c4d66de81461027d578063cf98fccb14610290578063d547741f146102a3578063ed386011146102b6578063f252591a146102d6575f5ffd5b8063392e53cd1461024557806391d14854146102505780639c42bc4714610263578063a217fddf14610276575f5ffd5b8063248a9ca3116100d9578063248a9ca3146101da57806328b0ffd81461020a5780632f2ff15d1461021f57806336568abe14610232575f5ffd5b806301ffc9a71461010a578063049fbcc5146101325780630eb7798a146101865780631b1d0133146101a8575b5f5ffd5b61011d6101183660046111f0565b6102e9565b60405190151581526020015b60405180910390f35b61014561014036600461121e565b61031f565b604080516001600160a01b03909616865267ffffffffffffffff9094166020860152911515928401929092526060830191909152608082015260a001610129565b61019961019436600461121e565b6103a6565b60405161012993929190611235565b6101bb6101b63660046112b2565b6104ca565b604080516001600160a01b039093168352602083019190915201610129565b6101fc6101e836600461121e565b5f9081526020819052604090206001015490565b604051908152602001610129565b61021d610218366004611313565b6105a4565b005b61021d61022d366004611376565b61092e565b61021d610240366004611376565b610958565b60035460ff1661011d565b61011d61025e366004611376565b610990565b61021d61027136600461121e565b6109b8565b6101fc5f81565b61021d61028b3660046113a4565b610b22565b6101fc61029e3660046113bf565b610c03565b61021d6102b1366004611376565b610c2e565b6102c96102c43660046113a4565b610c52565b60405161012991906113e9565b61021d6102e436600461142b565b610cbb565b5f6001600160e01b03198216637965db0b60e01b148061031957506301ffc9a760e01b6001600160e01b03198316145b92915050565b5f818152600160205260408120805482918291829182916001600160a01b03166103645760405162461bcd60e51b815260040161035b90611473565b60405180910390fd5b8054600282015460038301546001909301546001600160a01b039092169967ffffffffffffffff82169950600160401b90910460ff1697509195509350915050565b5f818152600160205260408120805460609183916001600160a01b03166103df5760405162461bcd60e51b815260040161035b90611473565b6002810154600160401b900460ff1661042e5760405162461bcd60e51b815260206004820152601160248201527052554c455f5345545f494e41435449564560781b604482015260640161035b565b80546002820154600183018054604080516020808402820181019092528281526001600160a01b0390951694929367ffffffffffffffff16929184915f9084015b828210156104b6575f848152602090819020604080518082019091526002850290910180546001600160a01b0316825260019081015482840152908352909201910161046f565b505050509150935093509350509193909250565b5f82815260016020526040812080548291906001600160a01b03166105015760405162461bcd60e51b815260040161035b90611473565b6001810154841061054a5760405162461bcd60e51b8152602060048201526013602482015272494e4445585f4f55545f4f465f424f554e445360681b604482015260640161035b565b5f8160010185815481106105605761056061149f565b5f9182526020918290206040805180820190915260029092020180546001600160a01b031680835260019091015491909201819052909450925050505b9250929050565b60035460ff166105c7576040516321c4e35760e21b815260040160405180910390fd5b5f84815260016020526040902080546001600160a01b031633146106195760405162461bcd60e51b81526020600482015260096024820152682727aa2fa7aba722a960b91b604482015260640161035b565b6002810154600160401b900460ff166106675760405162461bcd60e51b815260206004820152601060248201526f414c52454144595f494e41435449564560801b604482015260640161035b565b836106a75760405162461bcd60e51b815260206004820152601060248201526f0929cac82989288be9c8aaebe9082a6960831b604482015260640161035b565b8484036106e25760405162461bcd60e51b81526020600482015260096024820152680a6829a8abe9082a6960bb1b604482015260640161035b565b5f848152600160205260409020546001600160a01b0316156107465760405162461bcd60e51b815260206004820152601b60248201527f4e45575f484153485f414c52454144595f524547495354455245440000000000604482015260640161035b565b816107855760405162461bcd60e51b815260206004820152600f60248201526e454d5054595f52554c455f5245465360881b604482015260640161035b565b600a8211156107c65760405162461bcd60e51b815260206004820152600d60248201526c544f4f5f4d414e595f5245465360981b604482015260640161035b565b60028101545f906107e29067ffffffffffffffff1660016114b3565b60028301805460ff60401b19169055604051909150339087907f397b533bd79c7fb896e5cf2d38b0ed93ee3c92ab67a9a4a04ec418468e5d59f4905f90a35f85815260016020526040812080546001600160a01b0319163317815560028101805468ffffffffffffffffff191667ffffffffffffffff851617600160401b179055426003820155905b848110156108c057816001018686838181106108895761088961149f565b83546001810185555f94855260209094206040909102929092019260020290910190506108b682826114df565b505060010161086b565b50335f818152600260209081526040808320805460018101825590845292829020909201899055905167ffffffffffffffff8516815288918a917f496c1355917548e0a21ffe960a117aabb8fab91da0c2d8c0154370d39643bfa2910160405180910390a450505050505050565b5f82815260208190526040902060010154610948816110ae565b61095283836110bb565b50505050565b6001600160a01b03811633146109815760405163334bd91960e11b815260040160405180910390fd5b61098b828261114a565b505050565b5f918252602082815260408084206001600160a01b0393909316845291905290205460ff1690565b60035460ff166109db576040516321c4e35760e21b815260040160405180910390fd5b5f81815260016020526040902080546001600160a01b0316610a0f5760405162461bcd60e51b815260040161035b90611473565b80546001600160a01b0316331480610a4c5750610a4c7fedcc084d3dcd65a1f7f23c65c46722faca6953d28e43150a467cf43e5c30923833610990565b610a895760405162461bcd60e51b815260206004820152600e60248201526d1393d517d055551213d49256915160921b604482015260640161035b565b6002810154600160401b900460ff16610ad75760405162461bcd60e51b815260206004820152601060248201526f414c52454144595f494e41435449564560801b604482015260640161035b565b60028101805460ff60401b1916905580546040516001600160a01b039091169083907f397b533bd79c7fb896e5cf2d38b0ed93ee3c92ab67a9a4a04ec418468e5d59f4905f90a35050565b60035460ff1615610b455760405162dc149f60e41b815260040160405180910390fd5b6001600160a01b038116610b8a5760405162461bcd60e51b815260206004820152600c60248201526b5a45524f5f4144445245535360a01b604482015260640161035b565b6003805460ff19166001179055610ba15f826110bb565b50610bcc7fedcc084d3dcd65a1f7f23c65c46722faca6953d28e43150a467cf43e5c309238826110bb565b506040516001600160a01b038216907f908408e307fc569b417f6cbec5d5a06f44a0a505ac0479b47d421a4b2fd6a1e6905f90a250565b6002602052815f5260405f208181548110610c1c575f80fd5b905f5260205f20015f91509150505481565b5f82815260208190526040902060010154610c48816110ae565b610952838361114a565b6001600160a01b0381165f90815260026020908152604091829020805483518184028101840190945280845260609392830182828015610caf57602002820191905f5260205f20905b815481526020019060010190808311610c9b575b50505050509050919050565b60035460ff16610cde576040516321c4e35760e21b815260040160405180910390fd5b82610d1a5760405162461bcd60e51b815260206004820152600c60248201526b0929cac82989288be9082a6960a31b604482015260640161035b565b80610d595760405162461bcd60e51b815260206004820152600f60248201526e454d5054595f52554c455f5245465360881b604482015260640161035b565b600a811115610d9a5760405162461bcd60e51b815260206004820152600d60248201526c544f4f5f4d414e595f5245465360981b604482015260640161035b565b5f838152600160205260409020546001600160a01b031615610dfe5760405162461bcd60e51b815260206004820152601760248201527f484153485f414c52454144595f52454749535445524544000000000000000000604482015260640161035b565b5f5b81811015610fb3575f838383818110610e1b57610e1b61149f565b610e3192602060409092020190810191506113a4565b90505f848484818110610e4657610e4661149f565b9050604002016020013590505f826001600160a01b03163b11610ea35760405162461bcd60e51b81526020600482015260156024820152741495531157d3919517d393d517d0d3d395149050d5605a1b604482015260640161035b565b6040516331a9108f60e11b8152600481018290526001600160a01b03831690636352211e90602401602060405180830381865afa925050508015610f04575060408051601f3d908101601f19168201909252610f0191810190611515565b60015b610f505760405162461bcd60e51b815260206004820152601a60248201527f52554c455f4e46545f494e56414c49445f494e54455246414345000000000000604482015260640161035b565b6001600160a01b0381163314610fa85760405162461bcd60e51b815260206004820152601c60248201527f52554c455f4e46545f4e4f545f4f574e45445f42595f43414c4c455200000000604482015260640161035b565b505050600101610e00565b505f83815260016020526040812080546001600160a01b031916331781556002810180546801000000000000000168ffffffffffffffffff19909116179055426003820155905b8281101561104f57816001018484838181106110185761101861149f565b83546001810185555f948552602090942060409091029290920192600202909101905061104582826114df565b5050600101610ffa565b50335f818152600260209081526040808320805460018082018355918552938390209093018890555191825286917f5760a0db896852aabe97ab76c9488143df97bd306f6d63cc5f47b4b814557909910160405180910390a350505050565b6110b881336111b3565b50565b5f6110c68383610990565b611143575f838152602081815260408083206001600160a01b03861684529091529020805460ff191660011790556110fb3390565b6001600160a01b0316826001600160a01b0316847f2f8788117e7eff1d82e926ec794901d17c78024a50270940304540a733656f0d60405160405180910390a4506001610319565b505f610319565b5f6111558383610990565b15611143575f838152602081815260408083206001600160a01b0386168085529252808320805460ff1916905551339286917ff6391f5c32d9c69d2a47ea670b442974b53935d1edc7fd64eb21e047a839171b9190a4506001610319565b6111bd8282610990565b6111ec5760405163e2517d3f60e01b81526001600160a01b03821660048201526024810183905260440161035b565b5050565b5f60208284031215611200575f5ffd5b81356001600160e01b031981168114611217575f5ffd5b9392505050565b5f6020828403121561122e575f5ffd5b5035919050565b6001600160a01b03841681526060602080830182905284519183018290525f91908501906080840190835b8181101561129357835180516001600160a01b031684526020908101518185015290930192604090920191600101611260565b5050809250505067ffffffffffffffff83166040830152949350505050565b5f5f604083850312156112c3575f5ffd5b50508035926020909101359150565b5f5f83601f8401126112e2575f5ffd5b50813567ffffffffffffffff8111156112f9575f5ffd5b6020830191508360208260061b850101111561059d575f5ffd5b5f5f5f5f60608587031215611326575f5ffd5b8435935060208501359250604085013567ffffffffffffffff81111561134a575f5ffd5b611356878288016112d2565b95989497509550505050565b6001600160a01b03811681146110b8575f5ffd5b5f5f60408385031215611387575f5ffd5b82359150602083013561139981611362565b809150509250929050565b5f602082840312156113b4575f5ffd5b813561121781611362565b5f5f604083850312156113d0575f5ffd5b82356113db81611362565b946020939093013593505050565b602080825282518282018190525f918401906040840190835b81811015611420578351835260209384019390920191600101611402565b509095945050505050565b5f5f5f6040848603121561143d575f5ffd5b83359250602084013567ffffffffffffffff81111561145a575f5ffd5b611466868287016112d2565b9497909650939450505050565b6020808252601290820152711495531157d4d15517d393d517d193d5539160721b604082015260600190565b634e487b7160e01b5f52603260045260245ffd5b67ffffffffffffffff818116838216019081111561031957634e487b7160e01b5f52601160045260245ffd5b81356114ea81611362565b81546001600160a01b0319166001600160a01b03919091161781556020919091013560019190910155565b5f60208284031215611525575f5ffd5b81516112178161136256fea264697066735822122080d5de537dde4affeed239542538479f1eafd736c09e5b9b6c85cb68d4d6679864736f6c634300081c0033",
  "linkReferences": {},
  "deployedLinkReferences": {},
  "immutableReferences": {},
  "inputSourceName": "project/contracts/core/RuleAuthority.sol",
  "buildInfoId": "solc-0_8_28-130490ec404b844bb48f1188c70ac7882f2c0aef"
}