{
  "_format": "hh3-artifact-1",
  "contractName": "MockAgentRegistry",
  "sourceName": "contracts/test/MockAgentRegistry.sol",
  "abi": [
    {
      "inputs": [
        {
          "internalType": "uint256",
          "name": "",
          "type": "uint256"
        }
      ],
      "name": "ownerOf",
      "outputs": [
        {
          "internalType": "address",
          "name": "",
          "type": "address"
        }
      ],
      "stateMutability": "view",
      "type": "function"
    },
    {
      "inputs": [
        {
          "internalType": "uint256",
          "name": "tokenId",
          "type": "uint256"
        },
        {
          "internalType": "address",
          "name": "owner",
          "type": "address"
        }
      ],
      "name": "setOwner",
      "outputs": [],
      "stateMutability": "nonpayable",
      "type": "function"
    }
  ],
  "bytecode": "0x6080604052348015600e575f5ffd5b506101328061001c5f395ff3fe6080604052348015600e575f5ffd5b50600436106030575f3560e01c80636352211e1460345780637fd39247146075575b5f5ffd5b6059603f36600460af565b5f602081905290815260409020546001600160a01b031681565b6040516001600160a01b03909116815260200160405180910390f35b60ad608036600460c5565b5f9182526020829052604090912080546001600160a01b0319166001600160a01b03909216919091179055565b005b5f6020828403121560be575f5ffd5b5035919050565b5f5f6040838503121560d5575f5ffd5b8235915060208301356001600160a01b038116811460f1575f5ffd5b80915050925092905056fea2646970667358221220f53dc000253c86932f7a2737bce40d3b1c49787cfd147caa5151b1b3913a6ed664736f6c634300081c0033",
  "linkReferences": {},
  "deployedLinkReferences": {},
  "immutableReferences": {},
  "inputSourceName": "project/contracts/test/MockAgentRegistry.sol",
  "buildInfoId": "solc-0_8_28-b7ea977804e1b3f61ff49b49b12bbbb928ab0230"
}