{
  "_format": "hh3-artifact-1",
  "contractName": "RecurringPayments",
  "sourceName": "contracts/core/RecurringPayments.sol",
  "abi": [
    {
      "inputs": [],
      "name": "ExceedsMax",
      "type": "error"
    },
    {
      "inputs": [],
      "name": "NotActive",
      "type": "error"
    },
    {
      "inputs": [],
      "name": "NotPayer",
      "type": "error"
    },
    {
      "inputs": [],
      "name": "NotReceiver",
      "type": "error"
    },
    {
      "inputs": [],
      "name": "TooSoon",
      "type": "error"
    },
    {
      "inputs": [],
      "name": "TransferFailed",
      "type": "error"
    },
    {
      "anonymous": false,
      "inputs": [
        {
          "indexed": true,
          "internalType": "uint256",
          "name": "subId",
          "type": "uint256"
        }
      ],
      "name": "Cancelled",
      "type": "event"
    },
    {
      "anonymous": false,
      "inputs": [
        {
          "indexed": true,
          "internalType": "uint256",
          "name": "subId",
          "type": "uint256"
        },
        {
          "indexed": false,
          "internalType": "uint256",
          "name": "amount",
          "type": "uint256"
        },
        {
          "indexed": false,
          "internalType": "uint256",
          "name": "timestamp",
          "type": "uint256"
        }
      ],
      "name": "Charged",
      "type": "event"
    },
    {
      "anonymous": false,
      "inputs": [
        {
          "indexed": true,
          "internalType": "uint256",
          "name": "subId",
          "type": "uint256"
        },
        {
          "indexed": true,
          "internalType": "address",
          "name": "payer",
          "type": "address"
        },
        {
          "indexed": true,
          "internalType": "address",
          "name": "receiver",
          "type": "address"
        },
        {
          "indexed": false,
          "internalType": "address",
          "name": "asset",
          "type": "address"
        },
        {
          "indexed": false,
          "internalType": "uint256",
          "name": "maxAmount",
          "type": "uint256"
        },
        {
          "indexed": false,
          "internalType": "uint256",
          "name": "period",
          "type": "uint256"
        }
      ],
      "name": "SubscriptionCreated",
      "type": "event"
    },
    {
      "inputs": [
        {
          "internalType": "uint256",
          "name": "subId",
          "type": "uint256"
        }
      ],
      "name": "cancel",
      "outputs": [],
      "stateMutability": "nonpayable",
      "type": "function"
    },
    {
      "inputs": [
        {
          "internalType": "uint256",
          "name": "subId",
          "type": "uint256"
        },
        {
          "components": [
            {
              "internalType": "bytes32",
              "name": "version",
              "type": "bytes32"
            },
            {
              "internalType": "bytes32",
              "name": "payId",
              "type": "bytes32"
            },
            {
              "internalType": "address",
              "name": "payer",
              "type": "address"
            },
            {
              "internalType": "address",
              "name": "receiver",
              "type": "address"
            },
            {
              "internalType": "address",
              "name": "asset",
              "type": "address"
            },
            {
              "internalType": "uint256",
              "name": "amount",
              "type": "uint256"
            },
            {
              "internalType": "bytes32",
              "name": "contextHash",
              "type": "bytes32"
            },
            {
              "internalType": "bytes32",
              "name": "ruleSetHash",
              "type": "bytes32"
            },
            {
              "internalType": "address",
              "name": "ruleAuthority",
              "type": "address"
            },
            {
              "internalType": "uint64",
              "name": "issuedAt",
              "type": "uint64"
            },
            {
              "internalType": "uint64",
              "name": "expiresAt",
              "type": "uint64"
            },
            {
              "internalType": "bytes32",
              "name": "nonce",
              "type": "bytes32"
            },
            {
              "internalType": "bool",
              "name": "requiresAttestation",
              "type": "bool"
            },
            {
              "internalType": "bytes32",
              "name": "attestationUIDsHash",
              "type": "bytes32"
            }
          ],
          "internalType": "struct PayIDVerifier.Decision",
          "name": "decision",
          "type": "tuple"
        },
        {
          "internalType": "bytes",
          "name": "sig",
          "type": "bytes"
        },
        {
          "internalType": "bytes32[]",
          "name": "attestationUIDs",
          "type": "bytes32[]"
        }
      ],
      "name": "charge",
      "outputs": [],
      "stateMutability": "nonpayable",
      "type": "function"
    },
    {
      "inputs": [
        {
          "internalType": "address",
          "name": "receiver",
          "type": "address"
        },
        {
          "internalType": "address",
          "name": "asset",
          "type": "address"
        },
        {
          "internalType": "uint256",
          "name": "maxAmount",
          "type": "uint256"
        },
        {
          "internalType": "uint256",
          "name": "period",
          "type": "uint256"
        }
      ],
      "name": "createSubscription",
      "outputs": [
        {
          "internalType": "uint256",
          "name": "subId",
          "type": "uint256"
        }
      ],
      "stateMutability": "payable",
      "type": "function"
    },
    {
      "inputs": [
        {
          "internalType": "address",
          "name": "payWithPayID_",
          "type": "address"
        }
      ],
      "name": "initialize",
      "outputs": [],
      "stateMutability": "nonpayable",
      "type": "function"
    },
    {
      "inputs": [],
      "name": "nextSubId",
      "outputs": [
        {
          "internalType": "uint256",
          "name": "",
          "type": "uint256"
        }
      ],
      "stateMutability": "view",
      "type": "function"
    },
    {
      "inputs": [],
      "name": "payWithPayID",
      "outputs": [
        {
          "internalType": "contract PayWithPayID",
          "name": "",
          "type": "address"
        }
      ],
      "stateMutability": "view",
      "type": "function"
    },
    {
      "inputs": [
        {
          "internalType": "uint256",
          "name": "",
          "type": "uint256"
        }
      ],
      "name": "subscriptions",
      "outputs": [
        {
          "internalType": "address",
          "name": "payer",
          "type": "address"
        },
        {
          "internalType": "address",
          "name": "receiver",
          "type": "address"
        },
        {
          "internalType": "address",
          "name": "asset",
          "type": "address"
        },
        {
          "internalType": "uint256",
          "name": "maxAmount",
          "type": "uint256"
        },
        {
          "internalType": "uint256",
          "name": "period",
          "type": "uint256"
        },
        {
          "internalType": "uint256",
          "name": "nextCharge",
          "type": "uint256"
        },
        {
          "internalType": "uint256",
          "name": "totalCharged",
          "type": "uint256"
        },
        {
          "internalType": "uint256",
          "name": "numCharges",
          "type": "uint256"
        },
        {
          "internalType": "bool",
          "name": "active",
          "type": "bool"
        }
      ],
      "stateMutability": "view",
      "type": "function"
    }
  ],
  "bytecode": "0x6080604052348015600e575f5ffd5b50610aab8061001c5f395ff3fe60806040526004361061006e575f3560e01c80638de8b9001161004c5780638de8b900146101815780639c99f37a146101a2578063c4d66de8146101b7578063ca185c3c146101d6575f5ffd5b80632d5bbf601461007257806340e58ee5146101415780636df1762714610162575b5f5ffd5b34801561007d575f5ffd5b506100e761008c3660046106de565b5f602081905290815260409020805460018201546002830154600384015460048501546005860154600687015460078801546008909801546001600160a01b0397881698968816979095169593949293919290919060ff1689565b604080516001600160a01b039a8b168152988a1660208a015296909816958701959095526060860193909352608085019190915260a084015260c083015260e0820152901515610100820152610120015b60405180910390f35b34801561014c575f5ffd5b5061016061015b3660046106de565b61020d565b005b34801561016d575f5ffd5b5061016061017c36600461073d565b610299565b61019461018f36600461081f565b610501565b604051908152602001610138565b3480156101ad575f5ffd5b5061019460015481565b3480156101c2575f5ffd5b506101606101d136600461085e565b610670565b3480156101e1575f5ffd5b506002546101f5906001600160a01b031681565b6040516001600160a01b039091168152602001610138565b5f81815260208190526040902080546001600160a01b03163314801590610241575060018101546001600160a01b03163314155b1561025f57604051631435e35760e01b815260040160405180910390fd5b60088101805460ff1916905560405182907fc41d93b8bfbf9fd7cf5bfe271fd649ab6a6fec0ea101c23b82a2a28eca2533a9905f90a25050565b5f868152602081905260409020600881015460ff166102cb57604051634065aaf160e11b815260040160405180910390fd5b80600501544210156102f057604051636fed7d8560e01b815260040160405180910390fd5b60018101546001600160a01b0316331461031d57604051635a06399f60e11b815260040160405180910390fd5b80600301548660a001351115610346576040516395e28b8560e01b815260040160405180910390fd5b80546001600160a01b0316610361606088016040890161085e565b6001600160a01b03161461038857604051631435e35760e01b815260040160405180910390fd5b60048101546103979042610892565b81600501819055508560a00135816006015f8282546103b69190610892565b9091555050600781018054905f6103cc836108ab565b909155505060028101546001600160a01b031661045457600254604051637030541560e01b81526001600160a01b039091169063703054159060a089013590610421908a908a908a908a908a90600401610941565b5f604051808303818588803b158015610438575f5ffd5b505af115801561044a573d5f5f3e3d5ffd5b50505050506104ba565b600254604051638f8c2f9560e01b81526001600160a01b0390911690638f8c2f959061048c9089908990899089908990600401610941565b5f604051808303815f87803b1580156104a3575f5ffd5b505af11580156104b5573d5f5f3e3d5ffd5b505050505b6040805160a0880135815242602082015288917f14183b622769815a441e21af3583653edf26cddd2e5c4197a600e6fdb7c7ac82910160405180910390a250505050505050565b600180545f9182610511836108ab565b919050559050604051806101200160405280336001600160a01b03168152602001866001600160a01b03168152602001856001600160a01b0316815260200184815260200183815260200183426105689190610892565b81525f602080830182905260408084018390526001606094850181905286845283835292819020855181546001600160a01b03199081166001600160a01b0392831617835587850151958301805482169683169690961790955586830151600283018054909616908216179094558585015160038201556080860151600482015560a0860151600582015560c0860151600682015560e08601516007820155610100909501516008909501805460ff19169515159590951790945583518883168152908101879052928301859052871691339184917f818ee5f93d6e5cd1e7c2a990db4ebb6cec0d4fb9f9a3b44720eb1ee90a10ad54910160405180910390a4949350505050565b6002546001600160a01b0316156106bc5760405162461bcd60e51b815260206004820152600c60248201526b1053149150511657d253925560a21b604482015260640160405180910390fd5b600280546001600160a01b0319166001600160a01b0392909216919091179055565b5f602082840312156106ee575f5ffd5b5035919050565b5f5f83601f840112610705575f5ffd5b50813567ffffffffffffffff81111561071c575f5ffd5b6020830191508360208260051b8501011115610736575f5ffd5b9250929050565b5f5f5f5f5f5f868803610220811215610754575f5ffd5b873596506101c0601f198201121561076a575f5ffd5b506020870194506101e087013567ffffffffffffffff81111561078b575f5ffd5b8701601f8101891361079b575f5ffd5b803567ffffffffffffffff8111156107b1575f5ffd5b8960208284010111156107c2575f5ffd5b6020919091019450925061020087013567ffffffffffffffff8111156107e6575f5ffd5b6107f289828a016106f5565b979a9699509497509295939492505050565b80356001600160a01b038116811461081a575f5ffd5b919050565b5f5f5f5f60808587031215610832575f5ffd5b61083b85610804565b935061084960208601610804565b93969395505050506040820135916060013590565b5f6020828403121561086e575f5ffd5b61087782610804565b9392505050565b634e487b7160e01b5f52601160045260245ffd5b808201808211156108a5576108a561087e565b92915050565b5f600182016108bc576108bc61087e565b5060010190565b803567ffffffffffffffff8116811461081a575f5ffd5b8035801515811461081a575f5ffd5b81835281816020850137505f828201602090810191909152601f909101601f19169091010190565b8183525f6001600160fb1b03831115610928575f5ffd5b8260051b80836020870137939093016020019392505050565b85358152602080870135908201525f61095c60408801610804565b6001600160a01b0316604083015261097660608801610804565b6001600160a01b0316606083015261099060808801610804565b6001600160a01b0316608083015260a0878101359083015260c0808801359083015260e080880135908301526109c96101008801610804565b6001600160a01b03166101008301526109e561012088016108c3565b67ffffffffffffffff16610120830152610a0261014088016108c3565b67ffffffffffffffff166101408301526101608781013590830152610a2a61018088016108da565b15156101808301526101a087810135908301526102006101c08301819052610a5590830186886108e9565b8281036101e0840152610a69818587610911565b9897505050505050505056fea2646970667358221220484b72001c302b6a05b42b27710f597c974d68c5248746ed14813f334485424f64736f6c634300081c0033",
  "linkReferences": {},
  "deployedLinkReferences": {},
  "immutableReferences": {},
  "inputSourceName": "project/contracts/core/RecurringPayments.sol",
  "buildInfoId": "solc-0_8_28-bb6b89cf2f4782f6cda66265e9580b2507d126ab"
}