{
  "_format": "hh3-artifact-1",
  "contractName": "AIAgentRuleManager",
  "sourceName": "contracts/core/AIAgentRuleManager.sol",
  "abi": [
    {
      "inputs": [
        {
          "internalType": "address",
          "name": "_agentRegistry",
          "type": "address"
        },
        {
          "internalType": "address",
          "name": "_combinedRuleStorage",
          "type": "address"
        }
      ],
      "stateMutability": "nonpayable",
      "type": "constructor"
    },
    {
      "inputs": [],
      "name": "AlreadySubscribed",
      "type": "error"
    },
    {
      "inputs": [],
      "name": "InvalidPrice",
      "type": "error"
    },
    {
      "inputs": [],
      "name": "NoActiveSubscription",
      "type": "error"
    },
    {
      "inputs": [],
      "name": "NotAdmin",
      "type": "error"
    },
    {
      "inputs": [],
      "name": "NotAgentOwner",
      "type": "error"
    },
    {
      "inputs": [],
      "name": "NotRegisteredAgent",
      "type": "error"
    },
    {
      "inputs": [],
      "name": "RuleNotFound",
      "type": "error"
    },
    {
      "inputs": [],
      "name": "RuleNotOwnedByAgent",
      "type": "error"
    },
    {
      "inputs": [],
      "name": "SameAgent",
      "type": "error"
    },
    {
      "inputs": [],
      "name": "SubscriptionExpired",
      "type": "error"
    },
    {
      "inputs": [],
      "name": "TransferFailed",
      "type": "error"
    },
    {
      "anonymous": false,
      "inputs": [
        {
          "indexed": true,
          "internalType": "address",
          "name": "agent",
          "type": "address"
        },
        {
          "indexed": true,
          "internalType": "bytes32",
          "name": "ruleSetHash",
          "type": "bytes32"
        }
      ],
      "name": "AgentRuleSet",
      "type": "event"
    },
    {
      "anonymous": false,
      "inputs": [
        {
          "indexed": true,
          "internalType": "address",
          "name": "agent",
          "type": "address"
        }
      ],
      "name": "AgentRuleUnset",
      "type": "event"
    },
    {
      "anonymous": false,
      "inputs": [
        {
          "indexed": true,
          "internalType": "address",
          "name": "user",
          "type": "address"
        },
        {
          "indexed": true,
          "internalType": "address",
          "name": "agent",
          "type": "address"
        }
      ],
      "name": "PreferredAgentSet",
      "type": "event"
    },
    {
      "anonymous": false,
      "inputs": [
        {
          "indexed": true,
          "internalType": "address",
          "name": "user",
          "type": "address"
        },
        {
          "indexed": true,
          "internalType": "address",
          "name": "agent",
          "type": "address"
        },
        {
          "indexed": false,
          "internalType": "uint256",
          "name": "expiry",
          "type": "uint256"
        }
      ],
      "name": "Subscribed",
      "type": "event"
    },
    {
      "anonymous": false,
      "inputs": [
        {
          "indexed": false,
          "internalType": "uint256",
          "name": "newPrice",
          "type": "uint256"
        }
      ],
      "name": "SubscriptionPriceUpdated",
      "type": "event"
    },
    {
      "anonymous": false,
      "inputs": [
        {
          "indexed": true,
          "internalType": "address",
          "name": "user",
          "type": "address"
        },
        {
          "indexed": true,
          "internalType": "address",
          "name": "agent",
          "type": "address"
        }
      ],
      "name": "Unsubscribed",
      "type": "event"
    },
    {
      "inputs": [],
      "name": "SUB_DURATION",
      "outputs": [
        {
          "internalType": "uint256",
          "name": "",
          "type": "uint256"
        }
      ],
      "stateMutability": "view",
      "type": "function"
    },
    {
      "inputs": [],
      "name": "admin",
      "outputs": [
        {
          "internalType": "address",
          "name": "",
          "type": "address"
        }
      ],
      "stateMutability": "view",
      "type": "function"
    },
    {
      "inputs": [],
      "name": "agentRegistry",
      "outputs": [
        {
          "internalType": "contract AIAgentRegistry",
          "name": "",
          "type": "address"
        }
      ],
      "stateMutability": "view",
      "type": "function"
    },
    {
      "inputs": [
        {
          "internalType": "address",
          "name": "",
          "type": "address"
        }
      ],
      "name": "agentRules",
      "outputs": [
        {
          "internalType": "bytes32",
          "name": "ruleSetHash",
          "type": "bytes32"
        },
        {
          "internalType": "uint256",
          "name": "setAt",
          "type": "uint256"
        },
        {
          "internalType": "bool",
          "name": "active",
          "type": "bool"
        }
      ],
      "stateMutability": "view",
      "type": "function"
    },
    {
      "inputs": [],
      "name": "combinedRuleStorage",
      "outputs": [
        {
          "internalType": "contract CombinedRuleStorage",
          "name": "",
          "type": "address"
        }
      ],
      "stateMutability": "view",
      "type": "function"
    },
    {
      "inputs": [
        {
          "internalType": "address",
          "name": "agent",
          "type": "address"
        }
      ],
      "name": "getAgentRule",
      "outputs": [
        {
          "components": [
            {
              "internalType": "bytes32",
              "name": "ruleSetHash",
              "type": "bytes32"
            },
            {
              "internalType": "uint256",
              "name": "setAt",
              "type": "uint256"
            },
            {
              "internalType": "bool",
              "name": "active",
              "type": "bool"
            }
          ],
          "internalType": "struct AIAgentRuleManager.AgentRuleInfo",
          "name": "",
          "type": "tuple"
        }
      ],
      "stateMutability": "view",
      "type": "function"
    },
    {
      "inputs": [],
      "name": "getAgentsWithRules",
      "outputs": [
        {
          "internalType": "address[]",
          "name": "agents",
          "type": "address[]"
        },
        {
          "internalType": "bytes32[]",
          "name": "hashes",
          "type": "bytes32[]"
        }
      ],
      "stateMutability": "view",
      "type": "function"
    },
    {
      "inputs": [
        {
          "internalType": "address",
          "name": "user",
          "type": "address"
        }
      ],
      "name": "getEffectiveAgentRule",
      "outputs": [
        {
          "internalType": "bytes32",
          "name": "ruleSetHash",
          "type": "bytes32"
        },
        {
          "internalType": "address",
          "name": "agent",
          "type": "address"
        }
      ],
      "stateMutability": "view",
      "type": "function"
    },
    {
      "inputs": [
        {
          "internalType": "address",
          "name": "user",
          "type": "address"
        },
        {
          "internalType": "address",
          "name": "agent",
          "type": "address"
        }
      ],
      "name": "getSubscription",
      "outputs": [
        {
          "components": [
            {
              "internalType": "uint256",
              "name": "expiry",
              "type": "uint256"
            },
            {
              "internalType": "bool",
              "name": "active",
              "type": "bool"
            }
          ],
          "internalType": "struct AIAgentRuleManager.Subscription",
          "name": "",
          "type": "tuple"
        }
      ],
      "stateMutability": "view",
      "type": "function"
    },
    {
      "inputs": [
        {
          "internalType": "address",
          "name": "user",
          "type": "address"
        },
        {
          "internalType": "address",
          "name": "agent",
          "type": "address"
        }
      ],
      "name": "isSubscribed",
      "outputs": [
        {
          "internalType": "bool",
          "name": "",
          "type": "bool"
        }
      ],
      "stateMutability": "view",
      "type": "function"
    },
    {
      "inputs": [
        {
          "internalType": "address",
          "name": "",
          "type": "address"
        }
      ],
      "name": "preferredAgentOf",
      "outputs": [
        {
          "internalType": "address",
          "name": "",
          "type": "address"
        }
      ],
      "stateMutability": "view",
      "type": "function"
    },
    {
      "inputs": [
        {
          "internalType": "bytes32",
          "name": "ruleSetHash",
          "type": "bytes32"
        }
      ],
      "name": "setAgentCombinedRule",
      "outputs": [],
      "stateMutability": "nonpayable",
      "type": "function"
    },
    {
      "inputs": [
        {
          "internalType": "address",
          "name": "agent",
          "type": "address"
        }
      ],
      "name": "setPreferredAgent",
      "outputs": [],
      "stateMutability": "nonpayable",
      "type": "function"
    },
    {
      "inputs": [
        {
          "internalType": "uint256",
          "name": "newPrice",
          "type": "uint256"
        }
      ],
      "name": "setSubscriptionPrice",
      "outputs": [],
      "stateMutability": "nonpayable",
      "type": "function"
    },
    {
      "inputs": [
        {
          "internalType": "address",
          "name": "agent",
          "type": "address"
        }
      ],
      "name": "subscribeToAgent",
      "outputs": [],
      "stateMutability": "payable",
      "type": "function"
    },
    {
      "inputs": [
        {
          "internalType": "address",
          "name": "",
          "type": "address"
        }
      ],
      "name": "subscriberCount",
      "outputs": [
        {
          "internalType": "uint256",
          "name": "",
          "type": "uint256"
        }
      ],
      "stateMutability": "view",
      "type": "function"
    },
    {
      "inputs": [],
      "name": "subscriptionPrice",
      "outputs": [
        {
          "internalType": "uint256",
          "name": "",
          "type": "uint256"
        }
      ],
      "stateMutability": "view",
      "type": "function"
    },
    {
      "inputs": [
        {
          "internalType": "address",
          "name": "",
          "type": "address"
        },
        {
          "internalType": "address",
          "name": "",
          "type": "address"
        }
      ],
      "name": "subscriptions",
      "outputs": [
        {
          "internalType": "uint256",
          "name": "expiry",
          "type": "uint256"
        },
        {
          "internalType": "bool",
          "name": "active",
          "type": "bool"
        }
      ],
      "stateMutability": "view",
      "type": "function"
    },
    {
      "inputs": [],
      "name": "unsetAgentCombinedRule",
      "outputs": [],
      "stateMutability": "nonpayable",
      "type": "function"
    },
    {
      "inputs": [
        {
          "internalType": "address",
          "name": "agent",
          "type": "address"
        }
      ],
      "name": "unsubscribeFromAgent",
      "outputs": [],
      "stateMutability": "nonpayable",
      "type": "function"
    },
    {
      "inputs": [],
      "name": "withdraw",
      "outputs": [],
      "stateMutability": "nonpayable",
      "type": "function"
    }
  ],
  "bytecode": "0x6080604052655af3107a40005f553480156017575f5ffd5b50604051611574380380611574833981016040819052603491608e565b600180546001600160a01b039384166001600160a01b031991821617909155600280549290931691811691909117909155600380549091163317905560ba565b80516001600160a01b03811681146089575f5ffd5b919050565b5f5f60408385031215609e575f5ffd5b60a5836074565b915060b1602084016074565b90509250929050565b6114ad806100c75f395ff3fe608060405260043610610126575f3560e01c8063aabd48d1116100a8578063cc5f193f1161006d578063cc5f193f146103d2578063d1ed294f14610415578063d2f2970714610437578063f401c86a1461044d578063f6416ef614610461578063f851a44014610490575f5ffd5b8063aabd48d1146102f6578063b929149c14610350578063bdc8e54c14610363578063bdf4aeb414610377578063c9905c3714610396575f5ffd5b80634582fba7116100ee5780634582fba7146101d95780635b75dd8d146101f85780635cf04d82146102345780636207d31b1461026d5780636f802cd3146102c2575f5ffd5b80630423b5531461012a5780630b13283b1461014b5780630d1cfcae1461016a5780631a5ee779146101a65780633ccfd60b146101c5575b5f5ffd5b348015610135575f5ffd5b5061014961014436600461113d565b6104af565b005b348015610156575f5ffd5b5061014961016536600461113d565b6105a1565b348015610175575f5ffd5b50600154610189906001600160a01b031681565b6040516001600160a01b0390911681526020015b60405180910390f35b3480156101b1575f5ffd5b506101496101c036600461115f565b6106e6565b3480156101d0575f5ffd5b5061014961074b565b3480156101e4575f5ffd5b506101496101f336600461115f565b6107ea565b348015610203575f5ffd5b50610217610212366004611176565b6109b9565b60408051825181526020928301511515928101929092520161019d565b34801561023f575f5ffd5b5061025f61024e36600461113d565b60076020525f908152604090205481565b60405190815260200161019d565b348015610278575f5ffd5b506102ad610287366004611176565b600560209081525f92835260408084209091529082529020805460019091015460ff1682565b6040805192835290151560208301520161019d565b3480156102cd575f5ffd5b506101896102dc36600461113d565b60066020525f90815260409020546001600160a01b031681565b348015610301575f5ffd5b5061033361031036600461113d565b60046020525f908152604090208054600182015460029092015490919060ff1683565b60408051938452602084019290925215159082015260600161019d565b61014961035e36600461113d565b610a0c565b34801561036e575f5ffd5b5061025f5f5481565b348015610382575f5ffd5b50600254610189906001600160a01b031681565b3480156103a1575f5ffd5b506103b56103b036600461113d565b610c38565b604080519283526001600160a01b0390911660208301520161019d565b3480156103dd575f5ffd5b506103f16103ec36600461113d565b610ce6565b6040805182518152602080840151908201529181015115159082015260600161019d565b348015610420575f5ffd5b50610429610d4f565b60405161019d9291906111ad565b348015610442575f5ffd5b5061025f62278d0081565b348015610458575f5ffd5b5061014961101f565b34801561046c575f5ffd5b5061048061047b366004611176565b6110e7565b604051901515815260200161019d565b34801561049b575f5ffd5b50600354610189906001600160a01b031681565b335f9081526005602090815260408083206001600160a01b03851684529091529020600181015460ff166104f657604051635eb2472560e01b815260040160405180910390fd5b60018101805460ff191690556001600160a01b0382165f9081526007602052604081208054916105258361124a565b9091555050335f908152600660205260409020546001600160a01b0380841691160361056857335f90815260066020526040902080546001600160a01b03191690555b6040516001600160a01b0383169033907f7773c30acd0762ed6b4b92a9aa2c6b3c074e29ad93b334cbed8ba807c596f13a905f90a35050565b6001600160a01b0381161561069057335f9081526005602090815260408083206001600160a01b03851684529091529020600181015460ff1615806105e7575080544210155b156106055760405163893dcecf60e01b815260040160405180910390fd5b60015460405163c3c5a54760e01b81526001600160a01b0384811660048301529091169063c3c5a54790602401602060405180830381865afa15801561064d573d5f5f3e3d5ffd5b505050506040513d601f19601f82011682018060405250810190610671919061125f565b61068e57604051637b5b95df60e11b815260040160405180910390fd5b505b335f8181526006602052604080822080546001600160a01b0319166001600160a01b03861690811790915590519092917f62fac77086b012f7651da6c679ee34dc66a86cda0555f4ceb24f5f12a111004a91a350565b6003546001600160a01b0316331461071157604051637bfa4b9f60e01b815260040160405180910390fd5b5f8190556040518181527f0d9810b5b5c21d58bf08bae7abbe92228efe90dc7ff94e38f1c6a32c6f4719a39060200160405180910390a150565b6003546001600160a01b0316331461077657604051637bfa4b9f60e01b815260040160405180910390fd5b6003546040515f916001600160a01b03169047908381818185875af1925050503d805f81146107c0576040519150601f19603f3d011682016040523d82523d5f602084013e6107c5565b606091505b50509050806107e7576040516312171d8360e31b815260040160405180910390fd5b50565b60015460405163c3c5a54760e01b81523360048201526001600160a01b039091169063c3c5a54790602401602060405180830381865afa158015610830573d5f5f3e3d5ffd5b505050506040513d601f19601f82011682018060405250810190610854919061125f565b61087157604051637b5b95df60e11b815260040160405180910390fd5b8061088f57604051631aa501d160e21b815260040160405180910390fd5b60025460405163075bbcc560e11b8152600481018390526001600160a01b0390911690630eb7798a906024015f60405180830381865afa9250505080156108f757506040513d5f823e601f3d908101601f191682016040526108f49190810190611308565b60015b61091457604051631aa501d160e21b815260040160405180910390fd5b6001600160a01b038316331461093d5760405163042628e960e11b815260040160405180910390fd5b5050604080516060810182528381524260208083019182526001838501818152335f818152600490945286842095518655935191850191909155516002909301805460ff19169315159390931790925591518493507f3dc20edbc5c6113a288c6e8777fec805868e0009390e950ba32246803c2c87d89190a350565b6040805180820182525f80825260209182018190526001600160a01b03858116825260058352838220908516825282528290208251808401909352805483526001015460ff161515908201525b92915050565b60015460405163c3c5a54760e01b81526001600160a01b0383811660048301529091169063c3c5a54790602401602060405180830381865afa158015610a54573d5f5f3e3d5ffd5b505050506040513d601f19601f82011682018060405250810190610a78919061125f565b610a9557604051637b5b95df60e11b815260040160405180910390fd5b336001600160a01b03821603610abe576040516304971f1f60e31b815260040160405180910390fd5b5f54341015610adf5760405162bfc92160e01b815260040160405180910390fd5b335f9081526005602090815260408083206001600160a01b03851684529091529020600181015460ff168015610b155750805442105b15610b3a5762278d00815f015f828254610b2f9190611406565b90915550610b829050565b610b4762278d0042611406565b81556001808201805460ff191690911790556001600160a01b0382165f908152600760205260408120805491610b7c83611419565b91905055505b335f908152600660205260409020546001600160a01b0316610bf257335f8181526006602052604080822080546001600160a01b0319166001600160a01b03871690811790915590519092917f62fac77086b012f7651da6c679ee34dc66a86cda0555f4ceb24f5f12a111004a91a35b80546040519081526001600160a01b0383169033907f1299b0ad0a8e7c2403716ae6507195ba96bd8cac7f49d8c129e18f9ae51374f09060200160405180910390a35050565b6001600160a01b038082165f9081526006602052604081205490911680610c6357505f928392509050565b6001600160a01b038084165f908152600560209081526040808320938516835292905220600181015460ff161580610c9c575080544210155b15610cac57505f93849350915050565b6001600160a01b0382165f908152600460205260409020600281015460ff16610cdb57505f9485945092505050565b549491935090915050565b610d0960405180606001604052805f81526020015f81526020015f151581525090565b506001600160a01b03165f908152600460209081526040918290208251606081018452815481526001820154928101929092526002015460ff1615159181019190915290565b6060805f60015f9054906101000a90046001600160a01b03166001600160a01b03166391cab63e6040518163ffffffff1660e01b8152600401602060405180830381865afa158015610da3573d5f5f3e3d5ffd5b505050506040513d601f19601f82011682018060405250810190610dc79190611431565b90505f805b82811015610e7c57600154604051632f80c54f60e01b8152600481018390525f916001600160a01b031690632f80c54f90602401602060405180830381865afa158015610e1b573d5f5f3e3d5ffd5b505050506040513d601f19601f82011682018060405250810190610e3f9190611448565b6001600160a01b0381165f9081526004602052604090206002015490915060ff1615610e735782610e6f81611419565b9350505b50600101610dcc565b508067ffffffffffffffff811115610e9657610e9661127e565b604051908082528060200260200182016040528015610ebf578160200160208202803683370190505b5093508067ffffffffffffffff811115610edb57610edb61127e565b604051908082528060200260200182016040528015610f04578160200160208202803683370190505b5092505f805b8381101561101757600154604051632f80c54f60e01b8152600481018390525f916001600160a01b031690632f80c54f90602401602060405180830381865afa158015610f59573d5f5f3e3d5ffd5b505050506040513d601f19601f82011682018060405250810190610f7d9190611448565b6001600160a01b0381165f9081526004602052604090206002015490915060ff161561100e5780878481518110610fb657610fb6611463565b6001600160a01b039283166020918202929092018101919091529082165f908152600490915260409020548651879085908110610ff557610ff5611463565b60209081029190910101528261100a81611419565b9350505b50600101610f0a565b505050509091565b60015460405163c3c5a54760e01b81523360048201526001600160a01b039091169063c3c5a54790602401602060405180830381865afa158015611065573d5f5f3e3d5ffd5b505050506040513d601f19601f82011682018060405250810190611089919061125f565b6110a657604051637b5b95df60e11b815260040160405180910390fd5b335f81815260046020526040808220600201805460ff19169055517fcf7cdc07bbb9cbe41adacebcc2c125ee91cdd740d5e96895e05918bb1b999a8a9190a2565b6001600160a01b038083165f9081526005602090815260408083209385168352929052908120600181015460ff1680156111215750805442105b949350505050565b6001600160a01b03811681146107e7575f5ffd5b5f6020828403121561114d575f5ffd5b813561115881611129565b9392505050565b5f6020828403121561116f575f5ffd5b5035919050565b5f5f60408385031215611187575f5ffd5b823561119281611129565b915060208301356111a281611129565b809150509250929050565b604080825283519082018190525f9060208501906060840190835b818110156111ef5783516001600160a01b03168352602093840193909201916001016111c8565b5050838103602080860191909152855180835291810192508501905f5b8181101561122a57825184526020938401939092019160010161120c565b50919695505050505050565b634e487b7160e01b5f52601160045260245ffd5b5f8161125857611258611236565b505f190190565b5f6020828403121561126f575f5ffd5b81518015158114611158575f5ffd5b634e487b7160e01b5f52604160045260245ffd5b6040805190810167ffffffffffffffff811182821017156112b5576112b561127e565b60405290565b604051601f8201601f1916810167ffffffffffffffff811182821017156112e4576112e461127e565b604052919050565b805167ffffffffffffffff81168114611303575f5ffd5b919050565b5f5f5f6060848603121561131a575f5ffd5b835161132581611129565b602085015190935067ffffffffffffffff811115611341575f5ffd5b8401601f81018613611351575f5ffd5b805167ffffffffffffffff81111561136b5761136b61127e565b61137a60208260051b016112bb565b8082825260208201915060208360061b85010192508883111561139b575f5ffd5b6020840193505b828410156113eb576040848a0312156113b9575f5ffd5b6113c1611292565b84516113cc81611129565b81526020858101518183015290835260409094019391909101906113a2565b94506113fd92505050604085016112ec565b90509250925092565b80820180821115610a0657610a06611236565b5f6001820161142a5761142a611236565b5060010190565b5f60208284031215611441575f5ffd5b5051919050565b5f60208284031215611458575f5ffd5b815161115881611129565b634e487b7160e01b5f52603260045260245ffdfea2646970667358221220bcd6aaafad9cb8965f3b84604e28f2a3cf36111464d83e0f9a5a6dacf1664ac164736f6c634300081c0033",
  "linkReferences": {},
  "deployedLinkReferences": {},
  "immutableReferences": {},
  "inputSourceName": "project/contracts/core/AIAgentRuleManager.sol",
  "buildInfoId": "solc-0_8_28-0f9c850e442fd4fa0abe65f7f50b821531548c15"
}