{
  "_format": "hh3-artifact-1",
  "contractName": "PayWithPayIDBatch",
  "sourceName": "contracts/core/PayWithPayIDBatch.sol",
  "abi": [
    {
      "inputs": [],
      "name": "BatchEmpty",
      "type": "error"
    },
    {
      "inputs": [
        {
          "internalType": "uint256",
          "name": "index",
          "type": "uint256"
        }
      ],
      "name": "BatchTransferFailed",
      "type": "error"
    },
    {
      "inputs": [],
      "name": "NotInitialized",
      "type": "error"
    },
    {
      "anonymous": false,
      "inputs": [
        {
          "indexed": true,
          "internalType": "address",
          "name": "payer",
          "type": "address"
        },
        {
          "indexed": true,
          "internalType": "address",
          "name": "asset",
          "type": "address"
        },
        {
          "indexed": false,
          "internalType": "uint256",
          "name": "count",
          "type": "uint256"
        },
        {
          "indexed": false,
          "internalType": "uint256",
          "name": "totalAmount",
          "type": "uint256"
        }
      ],
      "name": "BatchPaymentERC20",
      "type": "event"
    },
    {
      "anonymous": false,
      "inputs": [
        {
          "indexed": true,
          "internalType": "address",
          "name": "payer",
          "type": "address"
        },
        {
          "indexed": false,
          "internalType": "uint256",
          "name": "count",
          "type": "uint256"
        },
        {
          "indexed": false,
          "internalType": "uint256",
          "name": "totalAmount",
          "type": "uint256"
        }
      ],
      "name": "BatchPaymentETH",
      "type": "event"
    },
    {
      "inputs": [
        {
          "components": [
            {
              "internalType": "bytes32",
              "name": "version",
              "type": "bytes32"
            },
            {
              "internalType": "bytes32",
              "name": "payId",
              "type": "bytes32"
            },
            {
              "internalType": "address",
              "name": "payer",
              "type": "address"
            },
            {
              "internalType": "address",
              "name": "receiver",
              "type": "address"
            },
            {
              "internalType": "address",
              "name": "asset",
              "type": "address"
            },
            {
              "internalType": "uint256",
              "name": "amount",
              "type": "uint256"
            },
            {
              "internalType": "bytes32",
              "name": "contextHash",
              "type": "bytes32"
            },
            {
              "internalType": "bytes32",
              "name": "ruleSetHash",
              "type": "bytes32"
            },
            {
              "internalType": "address",
              "name": "ruleAuthority",
              "type": "address"
            },
            {
              "internalType": "uint64",
              "name": "issuedAt",
              "type": "uint64"
            },
            {
              "internalType": "uint64",
              "name": "expiresAt",
              "type": "uint64"
            },
            {
              "internalType": "bytes32",
              "name": "nonce",
              "type": "bytes32"
            },
            {
              "internalType": "bool",
              "name": "requiresAttestation",
              "type": "bool"
            },
            {
              "internalType": "bytes32",
              "name": "attestationUIDsHash",
              "type": "bytes32"
            }
          ],
          "internalType": "struct PayIDVerifier.Decision[]",
          "name": "decisions",
          "type": "tuple[]"
        },
        {
          "internalType": "bytes[]",
          "name": "sigs",
          "type": "bytes[]"
        },
        {
          "internalType": "bytes32[][]",
          "name": "attestationUIDs",
          "type": "bytes32[][]"
        }
      ],
      "name": "batchPayERC20",
      "outputs": [],
      "stateMutability": "nonpayable",
      "type": "function"
    },
    {
      "inputs": [
        {
          "components": [
            {
              "internalType": "bytes32",
              "name": "version",
              "type": "bytes32"
            },
            {
              "internalType": "bytes32",
              "name": "payId",
              "type": "bytes32"
            },
            {
              "internalType": "address",
              "name": "payer",
              "type": "address"
            },
            {
              "internalType": "address",
              "name": "receiver",
              "type": "address"
            },
            {
              "internalType": "address",
              "name": "asset",
              "type": "address"
            },
            {
              "internalType": "uint256",
              "name": "amount",
              "type": "uint256"
            },
            {
              "internalType": "bytes32",
              "name": "contextHash",
              "type": "bytes32"
            },
            {
              "internalType": "bytes32",
              "name": "ruleSetHash",
              "type": "bytes32"
            },
            {
              "internalType": "address",
              "name": "ruleAuthority",
              "type": "address"
            },
            {
              "internalType": "uint64",
              "name": "issuedAt",
              "type": "uint64"
            },
            {
              "internalType": "uint64",
              "name": "expiresAt",
              "type": "uint64"
            },
            {
              "internalType": "bytes32",
              "name": "nonce",
              "type": "bytes32"
            },
            {
              "internalType": "bool",
              "name": "requiresAttestation",
              "type": "bool"
            },
            {
              "internalType": "bytes32",
              "name": "attestationUIDsHash",
              "type": "bytes32"
            }
          ],
          "internalType": "struct PayIDVerifier.Decision[]",
          "name": "decisions",
          "type": "tuple[]"
        },
        {
          "internalType": "bytes[]",
          "name": "sigs",
          "type": "bytes[]"
        },
        {
          "internalType": "bytes32[][]",
          "name": "attestationUIDs",
          "type": "bytes32[][]"
        }
      ],
      "name": "batchPayNative",
      "outputs": [],
      "stateMutability": "payable",
      "type": "function"
    },
    {
      "inputs": [
        {
          "internalType": "address",
          "name": "payWithPayID_",
          "type": "address"
        }
      ],
      "name": "initialize",
      "outputs": [],
      "stateMutability": "nonpayable",
      "type": "function"
    },
    {
      "inputs": [],
      "name": "payWithPayID",
      "outputs": [
        {
          "internalType": "contract PayWithPayID",
          "name": "",
          "type": "address"
        }
      ],
      "stateMutability": "view",
      "type": "function"
    }
  ],
  "bytecode": "0x6080604052348015600e575f5ffd5b50610b938061001c5f395ff3fe60806040526004361061003e575f3560e01c80634cc4387314610042578063b8fe05e514610063578063c4d66de814610076578063ca185c3c14610095575b5f5ffd5b34801561004d575f5ffd5b5061006161005c3660046107a2565b6100cf565b005b6100616100713660046107a2565b610481565b348015610081575f5ffd5b5061006161009036600461088c565b6106f2565b3480156100a0575f5ffd5b505f546100b3906001600160a01b031681565b6040516001600160a01b03909116815260200160405180910390f35b845f8190036100f15760405163143a603360e21b815260040160405180910390fd5b80841415806101005750808214155b1561011e5760405163143a603360e21b815260040160405180910390fd5b5f87875f818110610131576101316108ac565b90506101c00201608001602081019061014a919061088c565b90505f5f5b8381101561020857826001600160a01b03168a8a83818110610173576101736108ac565b90506101c00201608001602081019061018c919061088c565b6001600160a01b0316146101d65760405162461bcd60e51b815260206004820152600c60248201526b4d495845445f41535345545360a01b60448201526064015b60405180910390fd5b8989828181106101e8576101e86108ac565b90506101c0020160a00135826101fe91906108c0565b915060010161014f565b506040516323b872dd60e01b8152336004820152306024820152604481018290526001600160a01b038316906323b872dd906064016020604051808303815f875af1158015610259573d5f5f3e3d5ffd5b505050506040513d601f19601f8201168201806040525081019061027d91906108f5565b505f5460405163095ea7b360e01b81526001600160a01b039182166004820152602481018390529083169063095ea7b3906044016020604051808303815f875af11580156102cd573d5f5f3e3d5ffd5b505050506040513d601f19601f820116820180604052508101906102f191906108f5565b505f5b8381101561042f575f80546001600160a01b0316638f8c2f9560e01b8c8c85818110610322576103226108ac565b90506101c002018b8b8681811061033b5761033b6108ac565b905060200281019061034d9190610910565b8b8b8881811061035f5761035f6108ac565b90506020028101906103719190610953565b604051602401610385959493929190610a13565b60408051601f198184030181529181526020820180516001600160e01b03166001600160e01b03199094169390931790925290516103c39190610b47565b5f604051808303815f865af19150503d805f81146103fc576040519150601f19603f3d011682016040523d82523d5f602084013e610401565b606091505b50509050806104265760405163647b090360e01b8152600481018390526024016101cd565b506001016102f4565b5060408051848152602081018390526001600160a01b0384169133917f9623d500264bc746048719bf3de6704688015ee24a1b136a715dc1df791bbb7b910160405180910390a3505050505050505050565b845f8190036104a35760405163143a603360e21b815260040160405180910390fd5b80841415806104b25750808214155b156104d05760405163143a603360e21b815260040160405180910390fd5b5f5f5b8281101561050d578888828181106104ed576104ed6108ac565b90506101c0020160a001358261050391906108c0565b91506001016104d3565b5080341461054e5760405162461bcd60e51b815260206004820152600e60248201526d0ac8298aa8abe9a92a69a82a886960931b60448201526064016101cd565b5f5b828110156106ac575f80546001600160a01b03168a8a84818110610576576105766108ac565b6101c0029190910160a001359050637030541560e01b8c8c8681811061059e5761059e6108ac565b90506101c002018b8b878181106105b7576105b76108ac565b90506020028101906105c99190610910565b8b8b898181106105db576105db6108ac565b90506020028101906105ed9190610953565b604051602401610601959493929190610a13565b60408051601f198184030181529181526020820180516001600160e01b03166001600160e01b031990941693909317909252905161063f9190610b47565b5f6040518083038185875af1925050503d805f8114610679576040519150601f19603f3d011682016040523d82523d5f602084013e61067e565b606091505b50509050806106a35760405163647b090360e01b8152600481018390526024016101cd565b50600101610550565b50604080518381526020810183905233917f6e2ae628cf91569edc18a42f1e6fdbc07ea2701a8e7945d95cef0acf027bf504910160405180910390a25050505050505050565b5f546001600160a01b0316156107395760405162461bcd60e51b815260206004820152600c60248201526b1053149150511657d253925560a21b60448201526064016101cd565b5f80546001600160a01b0319166001600160a01b0392909216919091179055565b5f5f83601f84011261076a575f5ffd5b50813567ffffffffffffffff811115610781575f5ffd5b6020830191508360208260051b850101111561079b575f5ffd5b9250929050565b5f5f5f5f5f5f606087890312156107b7575f5ffd5b863567ffffffffffffffff8111156107cd575f5ffd5b8701601f810189136107dd575f5ffd5b803567ffffffffffffffff8111156107f3575f5ffd5b8960206101c083028401011115610808575f5ffd5b60209182019750955087013567ffffffffffffffff811115610828575f5ffd5b61083489828a0161075a565b909550935050604087013567ffffffffffffffff811115610853575f5ffd5b61085f89828a0161075a565b979a9699509497509295939492505050565b80356001600160a01b0381168114610887575f5ffd5b919050565b5f6020828403121561089c575f5ffd5b6108a582610871565b9392505050565b634e487b7160e01b5f52603260045260245ffd5b808201808211156108df57634e487b7160e01b5f52601160045260245ffd5b92915050565b80151581146108f2575f5ffd5b50565b5f60208284031215610905575f5ffd5b81516108a5816108e5565b5f5f8335601e19843603018112610925575f5ffd5b83018035915067ffffffffffffffff82111561093f575f5ffd5b60200191503681900382131561079b575f5ffd5b5f5f8335601e19843603018112610968575f5ffd5b83018035915067ffffffffffffffff821115610982575f5ffd5b6020019150600581901b360382131561079b575f5ffd5b803567ffffffffffffffff81168114610887575f5ffd5b8035610887816108e5565b81835281816020850137505f828201602090810191909152601f909101601f19169091010190565b8183525f6001600160fb1b038311156109fa575f5ffd5b8260051b80836020870137939093016020019392505050565b85358152602080870135908201525f610a2e60408801610871565b6001600160a01b03166040830152610a4860608801610871565b6001600160a01b03166060830152610a6260808801610871565b6001600160a01b0316608083015260a0878101359083015260c0808801359083015260e08088013590830152610a9b6101008801610871565b6001600160a01b0316610100830152610ab76101208801610999565b67ffffffffffffffff16610120830152610ad46101408801610999565b67ffffffffffffffff166101408301526101608781013590830152610afc61018088016109b0565b15156101808301526101a087810135908301526102006101c08301819052610b2790830186886109bb565b8281036101e0840152610b3b8185876109e3565b98975050505050505050565b5f82518060208501845e5f92019182525091905056fea26469706673582212204eb19f78e4efc109dcc9c16326a7d96ea54a2a34013ec6e1b4307c7c627956e564736f6c634300081c0033",
  "linkReferences": {},
  "deployedLinkReferences": {},
  "immutableReferences": {},
  "inputSourceName": "project/contracts/core/PayWithPayIDBatch.sol",
  "buildInfoId": "solc-0_8_28-e74bcc63374ea6898e351fd60aa6421dc6150b70"
}