{
  "_format": "hh3-artifact-1",
  "contractName": "PayWithPayID",
  "sourceName": "contracts/PayWithPayID.sol",
  "abi": [
    {
      "inputs": [],
      "name": "AlreadyInitialized",
      "type": "error"
    },
    {
      "inputs": [],
      "name": "NotInitialized",
      "type": "error"
    },
    {
      "inputs": [],
      "name": "ZeroAddress",
      "type": "error"
    },
    {
      "anonymous": false,
      "inputs": [
        {
          "indexed": true,
          "internalType": "address",
          "name": "verifier",
          "type": "address"
        },
        {
          "indexed": true,
          "internalType": "address",
          "name": "attestationVerifier",
          "type": "address"
        }
      ],
      "name": "Initialized",
      "type": "event"
    },
    {
      "anonymous": false,
      "inputs": [
        {
          "indexed": true,
          "internalType": "address",
          "name": "payer",
          "type": "address"
        },
        {
          "indexed": true,
          "internalType": "address",
          "name": "receiver",
          "type": "address"
        },
        {
          "indexed": true,
          "internalType": "address",
          "name": "asset",
          "type": "address"
        },
        {
          "indexed": false,
          "internalType": "uint256",
          "name": "amount",
          "type": "uint256"
        },
        {
          "indexed": false,
          "internalType": "bytes32",
          "name": "payId",
          "type": "bytes32"
        },
        {
          "indexed": false,
          "internalType": "bytes32",
          "name": "nonce",
          "type": "bytes32"
        }
      ],
      "name": "PaymentERC20",
      "type": "event"
    },
    {
      "anonymous": false,
      "inputs": [
        {
          "indexed": true,
          "internalType": "address",
          "name": "payer",
          "type": "address"
        },
        {
          "indexed": true,
          "internalType": "address",
          "name": "receiver",
          "type": "address"
        },
        {
          "indexed": false,
          "internalType": "uint256",
          "name": "amount",
          "type": "uint256"
        },
        {
          "indexed": false,
          "internalType": "bytes32",
          "name": "payId",
          "type": "bytes32"
        },
        {
          "indexed": false,
          "internalType": "bytes32",
          "name": "nonce",
          "type": "bytes32"
        }
      ],
      "name": "PaymentETH",
      "type": "event"
    },
    {
      "inputs": [],
      "name": "attestationVerifier",
      "outputs": [
        {
          "internalType": "contract AttestationVerifier",
          "name": "",
          "type": "address"
        }
      ],
      "stateMutability": "view",
      "type": "function"
    },
    {
      "inputs": [
        {
          "internalType": "address",
          "name": "verifier_",
          "type": "address"
        },
        {
          "internalType": "address",
          "name": "attestationVerifier_",
          "type": "address"
        }
      ],
      "name": "initialize",
      "outputs": [],
      "stateMutability": "nonpayable",
      "type": "function"
    },
    {
      "inputs": [],
      "name": "isInitialized",
      "outputs": [
        {
          "internalType": "bool",
          "name": "",
          "type": "bool"
        }
      ],
      "stateMutability": "view",
      "type": "function"
    },
    {
      "inputs": [
        {
          "components": [
            {
              "internalType": "bytes32",
              "name": "version",
              "type": "bytes32"
            },
            {
              "internalType": "bytes32",
              "name": "payId",
              "type": "bytes32"
            },
            {
              "internalType": "address",
              "name": "payer",
              "type": "address"
            },
            {
              "internalType": "address",
              "name": "receiver",
              "type": "address"
            },
            {
              "internalType": "address",
              "name": "asset",
              "type": "address"
            },
            {
              "internalType": "uint256",
              "name": "amount",
              "type": "uint256"
            },
            {
              "internalType": "bytes32",
              "name": "contextHash",
              "type": "bytes32"
            },
            {
              "internalType": "bytes32",
              "name": "ruleSetHash",
              "type": "bytes32"
            },
            {
              "internalType": "address",
              "name": "ruleAuthority",
              "type": "address"
            },
            {
              "internalType": "uint64",
              "name": "issuedAt",
              "type": "uint64"
            },
            {
              "internalType": "uint64",
              "name": "expiresAt",
              "type": "uint64"
            },
            {
              "internalType": "bytes32",
              "name": "nonce",
              "type": "bytes32"
            },
            {
              "internalType": "bool",
              "name": "requiresAttestation",
              "type": "bool"
            }
          ],
          "internalType": "struct PayIDVerifier.Decision",
          "name": "d",
          "type": "tuple"
        },
        {
          "internalType": "bytes",
          "name": "sig",
          "type": "bytes"
        },
        {
          "internalType": "bytes32[]",
          "name": "attestationUIDs",
          "type": "bytes32[]"
        }
      ],
      "name": "payERC20",
      "outputs": [],
      "stateMutability": "nonpayable",
      "type": "function"
    },
    {
      "inputs": [
        {
          "components": [
            {
              "internalType": "bytes32",
              "name": "version",
              "type": "bytes32"
            },
            {
              "internalType": "bytes32",
              "name": "payId",
              "type": "bytes32"
            },
            {
              "internalType": "address",
              "name": "payer",
              "type": "address"
            },
            {
              "internalType": "address",
              "name": "receiver",
              "type": "address"
            },
            {
              "internalType": "address",
              "name": "asset",
              "type": "address"
            },
            {
              "internalType": "uint256",
              "name": "amount",
              "type": "uint256"
            },
            {
              "internalType": "bytes32",
              "name": "contextHash",
              "type": "bytes32"
            },
            {
              "internalType": "bytes32",
              "name": "ruleSetHash",
              "type": "bytes32"
            },
            {
              "internalType": "address",
              "name": "ruleAuthority",
              "type": "address"
            },
            {
              "internalType": "uint64",
              "name": "issuedAt",
              "type": "uint64"
            },
            {
              "internalType": "uint64",
              "name": "expiresAt",
              "type": "uint64"
            },
            {
              "internalType": "bytes32",
              "name": "nonce",
              "type": "bytes32"
            },
            {
              "internalType": "bool",
              "name": "requiresAttestation",
              "type": "bool"
            }
          ],
          "internalType": "struct PayIDVerifier.Decision",
          "name": "d",
          "type": "tuple"
        },
        {
          "internalType": "bytes",
          "name": "sig",
          "type": "bytes"
        },
        {
          "internalType": "bytes32[]",
          "name": "attestationUIDs",
          "type": "bytes32[]"
        }
      ],
      "name": "payETH",
      "outputs": [],
      "stateMutability": "payable",
      "type": "function"
    },
    {
      "inputs": [],
      "name": "verifier",
      "outputs": [
        {
          "internalType": "contract PayIDVerifier",
          "name": "",
          "type": "address"
        }
      ],
      "stateMutability": "view",
      "type": "function"
    }
  ],
  "bytecode": "0x6080604052348015600e575f5ffd5b50610c1b8061001c5f395ff3fe608060405260043610610054575f3560e01c8063060aa288146100585780632b7ac3f31461006d578063392e53cd146100a8578063485cc955146100d157806399f6a8c8146100f0578063b4b3c5a01461010f575b5f5ffd5b61006b6100663660046108d6565b61012e565b005b348015610078575f5ffd5b505f5461008b906001600160a01b031681565b6040516001600160a01b0390911681526020015b60405180910390f35b3480156100b3575f5ffd5b50600154600160a01b900460ff16604051901515815260200161009f565b3480156100dc575f5ffd5b5061006b6100eb3660046109ab565b61045b565b3480156100fb575f5ffd5b5061006b61010a3660046108d6565b61053c565b34801561011a575f5ffd5b5060015461008b906001600160a01b031681565b600154600160a01b900460ff16610158576040516321c4e35760e21b815260040160405180910390fd5b61016a6101a0860161018087016109f7565b1561022657806101b85760405162461bcd60e51b81526020600482015260146024820152731055151154d510551253d397d49154555254915160621b60448201526064015b60405180910390fd5b6001546001600160a01b031663cc600a9a83836101db60608a0160408b01610a19565b6040518463ffffffff1660e01b81526004016101f993929190610a32565b5f6040518083038186803b15801561020f575f5ffd5b505afa158015610221573d5f5f3e3d5ffd5b505050505b5f54604051632daff3d360e21b81526001600160a01b039091169063b6bfcf4c9061025990889088908890600401610ab6565b5f604051808303815f87803b158015610270575f5ffd5b505af1158015610282573d5f5f3e3d5ffd5b505f925061029991505060a0870160808801610a19565b6001600160a01b0316146102df5760405162461bcd60e51b815260206004820152600d60248201526c082a6a68aa8be9c9ea8be8aa89609b1b60448201526064016101af565b8460a0013534146103245760405162461bcd60e51b815260206004820152600f60248201526e0829a9eaa9ca8be9a92a69a82a8869608b1b60448201526064016101af565b5f6103356080870160608801610a19565b6001600160a01b0316346040515f6040518083038185875af1925050503d805f811461037c576040519150601f19603f3d011682016040523d82523d5f602084013e610381565b606091505b50509050806103c85760405162461bcd60e51b815260206004820152601360248201527211551217d514905394d1915497d19052531151606a1b60448201526064016101af565b6103d86080870160608801610a19565b6001600160a01b03166103f16060880160408901610a19565b6001600160a01b03167f024c9755552d5294bffc9fdfb51320404678375c011c29e4195dd33bd8de90718860a0013589602001358a610160013560405161044b939291909283526020830191909152604082015260600190565b60405180910390a3505050505050565b600154600160a01b900460ff16156104855760405162dc149f60e41b815260040160405180910390fd5b6001600160a01b0382166104ac5760405163d92e233d60e01b815260040160405180910390fd5b6001600160a01b0381166104d35760405163d92e233d60e01b815260040160405180910390fd5b600180545f80546001600160a01b038087166001600160a01b03199092168217835585166001600160a81b03199093168317600160a01b179093556040519192917f3cd5ec01b1ae7cfec6ca1863e2cd6aa25d6d1702825803ff2b7cc95010fffdc29190a35050565b600154600160a01b900460ff16610566576040516321c4e35760e21b815260040160405180910390fd5b6105786101a0860161018087016109f7565b1561062f57806105c15760405162461bcd60e51b81526020600482015260146024820152731055151154d510551253d397d49154555254915160621b60448201526064016101af565b6001546001600160a01b031663cc600a9a83836105e460608a0160408b01610a19565b6040518463ffffffff1660e01b815260040161060293929190610a32565b5f6040518083038186803b158015610618575f5ffd5b505afa15801561062a573d5f5f3e3d5ffd5b505050505b5f54604051632daff3d360e21b81526001600160a01b039091169063b6bfcf4c9061066290889088908890600401610ab6565b5f604051808303815f87803b158015610679575f5ffd5b505af115801561068b573d5f5f3e3d5ffd5b505f92506106a291505060a0870160808801610a19565b6001600160a01b0316036106ea5760405162461bcd60e51b815260206004820152600f60248201526e041535345545f4e4f545f455243323608c1b60448201526064016101af565b5f6106fb60a0870160808801610a19565b6001600160a01b03166323b872dd6107196060890160408a01610a19565b61072960808a0160608b01610a19565b6040516001600160e01b031960e085901b1681526001600160a01b0392831660048201529116602482015260a089013560448201526064016020604051808303815f875af115801561077d573d5f5f3e3d5ffd5b505050506040513d601f19601f820116820180604052508101906107a19190610bca565b9050806107e25760405162461bcd60e51b815260206004820152600f60248201526e1514905394d1915497d19052531151608a1b60448201526064016101af565b6107f260a0870160808801610a19565b6001600160a01b031661080b6080880160608901610a19565b6001600160a01b03166108246060890160408a01610a19565b6001600160a01b03167f0fffc78c87834dc5e7ba16e472767d7cde8dc6fd91db1cf448a929627dbe26388960a001358a602001358b610160013560405161087e939291909283526020830191909152604082015260600190565b60405180910390a4505050505050565b5f5f83601f84011261089e575f5ffd5b50813567ffffffffffffffff8111156108b5575f5ffd5b6020830191508360208260051b85010111156108cf575f5ffd5b9250929050565b5f5f5f5f5f8587036101e08112156108ec575f5ffd5b6101a08112156108fa575f5ffd5b508594506101a086013567ffffffffffffffff811115610918575f5ffd5b8601601f81018813610928575f5ffd5b803567ffffffffffffffff81111561093e575f5ffd5b88602082840101111561094f575f5ffd5b602091909101945092506101c086013567ffffffffffffffff811115610973575f5ffd5b61097f8882890161088e565b969995985093965092949392505050565b80356001600160a01b03811681146109a6575f5ffd5b919050565b5f5f604083850312156109bc575f5ffd5b6109c583610990565b91506109d360208401610990565b90509250929050565b80151581146109e9575f5ffd5b50565b80356109a6816109dc565b5f60208284031215610a07575f5ffd5b8135610a12816109dc565b9392505050565b5f60208284031215610a29575f5ffd5b610a1282610990565b604080825281018390525f6001600160fb1b03841115610a50575f5ffd5b8360051b808660608501376001600160a01b03939093166020830152500160600192915050565b803567ffffffffffffffff811681146109a6575f5ffd5b81835281816020850137505f828201602090810191909152601f909101601f19169091010190565b83358152602080850135908201525f610ad160408601610990565b6001600160a01b03166040830152610aeb60608601610990565b6001600160a01b03166060830152610b0560808601610990565b6001600160a01b0316608083015260a0858101359083015260c0808601359083015260e08086013590830152610b3e6101008601610990565b6001600160a01b0316610100830152610b5a6101208601610a77565b67ffffffffffffffff16610120830152610b776101408601610a77565b67ffffffffffffffff166101408301526101608581013590830152610b9f61018086016109ec565b801515610180840152506101c06101a0830152610bc16101c083018486610a8e565b95945050505050565b5f60208284031215610bda575f5ffd5b8151610a12816109dc56fea2646970667358221220d2b8f01883e5cb60a33d86a31fd75c555247c1ed548f0980d83e711cbc36c07c64736f6c634300081c0033",
  "linkReferences": {},
  "deployedLinkReferences": {},
  "immutableReferences": {},
  "inputSourceName": "project/contracts/PayWithPayID.sol",
  "buildInfoId": "solc-0_8_28-df4ab035b9f0cc8c2f71b58ad047984998d73cd2"
}