{
  "_format": "hh3-artifact-1",
  "contractName": "RuleAuthority",
  "sourceName": "contracts/RuleAuthority.sol",
  "abi": [
    {
      "inputs": [],
      "name": "AccessControlBadConfirmation",
      "type": "error"
    },
    {
      "inputs": [
        {
          "internalType": "address",
          "name": "account",
          "type": "address"
        },
        {
          "internalType": "bytes32",
          "name": "neededRole",
          "type": "bytes32"
        }
      ],
      "name": "AccessControlUnauthorizedAccount",
      "type": "error"
    },
    {
      "inputs": [],
      "name": "AlreadyInitialized",
      "type": "error"
    },
    {
      "inputs": [],
      "name": "NotInitialized",
      "type": "error"
    },
    {
      "anonymous": false,
      "inputs": [
        {
          "indexed": true,
          "internalType": "address",
          "name": "admin",
          "type": "address"
        }
      ],
      "name": "Initialized",
      "type": "event"
    },
    {
      "anonymous": false,
      "inputs": [
        {
          "indexed": true,
          "internalType": "bytes32",
          "name": "role",
          "type": "bytes32"
        },
        {
          "indexed": true,
          "internalType": "bytes32",
          "name": "previousAdminRole",
          "type": "bytes32"
        },
        {
          "indexed": true,
          "internalType": "bytes32",
          "name": "newAdminRole",
          "type": "bytes32"
        }
      ],
      "name": "RoleAdminChanged",
      "type": "event"
    },
    {
      "anonymous": false,
      "inputs": [
        {
          "indexed": true,
          "internalType": "bytes32",
          "name": "role",
          "type": "bytes32"
        },
        {
          "indexed": true,
          "internalType": "address",
          "name": "account",
          "type": "address"
        },
        {
          "indexed": true,
          "internalType": "address",
          "name": "sender",
          "type": "address"
        }
      ],
      "name": "RoleGranted",
      "type": "event"
    },
    {
      "anonymous": false,
      "inputs": [
        {
          "indexed": true,
          "internalType": "bytes32",
          "name": "role",
          "type": "bytes32"
        },
        {
          "indexed": true,
          "internalType": "address",
          "name": "account",
          "type": "address"
        },
        {
          "indexed": true,
          "internalType": "address",
          "name": "sender",
          "type": "address"
        }
      ],
      "name": "RoleRevoked",
      "type": "event"
    },
    {
      "anonymous": false,
      "inputs": [
        {
          "indexed": true,
          "internalType": "bytes32",
          "name": "ruleSetHash",
          "type": "bytes32"
        },
        {
          "indexed": true,
          "internalType": "address",
          "name": "owner",
          "type": "address"
        }
      ],
      "name": "RuleSetDeactivated",
      "type": "event"
    },
    {
      "anonymous": false,
      "inputs": [
        {
          "indexed": true,
          "internalType": "bytes32",
          "name": "ruleSetHash",
          "type": "bytes32"
        },
        {
          "indexed": true,
          "internalType": "address",
          "name": "owner",
          "type": "address"
        },
        {
          "indexed": false,
          "internalType": "uint64",
          "name": "version",
          "type": "uint64"
        }
      ],
      "name": "RuleSetRegistered",
      "type": "event"
    },
    {
      "anonymous": false,
      "inputs": [
        {
          "indexed": true,
          "internalType": "bytes32",
          "name": "oldHash",
          "type": "bytes32"
        },
        {
          "indexed": true,
          "internalType": "bytes32",
          "name": "newHash",
          "type": "bytes32"
        },
        {
          "indexed": true,
          "internalType": "address",
          "name": "owner",
          "type": "address"
        },
        {
          "indexed": false,
          "internalType": "uint64",
          "name": "newVersion",
          "type": "uint64"
        }
      ],
      "name": "RuleSetUpdated",
      "type": "event"
    },
    {
      "inputs": [],
      "name": "DEFAULT_ADMIN_ROLE",
      "outputs": [
        {
          "internalType": "bytes32",
          "name": "",
          "type": "bytes32"
        }
      ],
      "stateMutability": "view",
      "type": "function"
    },
    {
      "inputs": [],
      "name": "REGISTRAR_ROLE",
      "outputs": [
        {
          "internalType": "bytes32",
          "name": "",
          "type": "bytes32"
        }
      ],
      "stateMutability": "view",
      "type": "function"
    },
    {
      "inputs": [
        {
          "internalType": "bytes32",
          "name": "ruleSetHash",
          "type": "bytes32"
        }
      ],
      "name": "deactivateRuleSet",
      "outputs": [],
      "stateMutability": "nonpayable",
      "type": "function"
    },
    {
      "inputs": [
        {
          "internalType": "address",
          "name": "owner",
          "type": "address"
        }
      ],
      "name": "getOwnerRuleSets",
      "outputs": [
        {
          "internalType": "bytes32[]",
          "name": "",
          "type": "bytes32[]"
        }
      ],
      "stateMutability": "view",
      "type": "function"
    },
    {
      "inputs": [
        {
          "internalType": "bytes32",
          "name": "role",
          "type": "bytes32"
        }
      ],
      "name": "getRoleAdmin",
      "outputs": [
        {
          "internalType": "bytes32",
          "name": "",
          "type": "bytes32"
        }
      ],
      "stateMutability": "view",
      "type": "function"
    },
    {
      "inputs": [
        {
          "internalType": "bytes32",
          "name": "ruleSetHash",
          "type": "bytes32"
        }
      ],
      "name": "getRuleByHash",
      "outputs": [
        {
          "internalType": "address",
          "name": "owner",
          "type": "address"
        },
        {
          "components": [
            {
              "internalType": "address",
              "name": "ruleNFT",
              "type": "address"
            },
            {
              "internalType": "uint256",
              "name": "tokenId",
              "type": "uint256"
            }
          ],
          "internalType": "struct IRuleAuthority.RuleRef[]",
          "name": "ruleRefs",
          "type": "tuple[]"
        },
        {
          "internalType": "uint64",
          "name": "version",
          "type": "uint64"
        }
      ],
      "stateMutability": "view",
      "type": "function"
    },
    {
      "inputs": [
        {
          "internalType": "bytes32",
          "name": "ruleSetHash",
          "type": "bytes32"
        },
        {
          "internalType": "uint256",
          "name": "index",
          "type": "uint256"
        }
      ],
      "name": "getRuleRef",
      "outputs": [
        {
          "internalType": "address",
          "name": "ruleNFT",
          "type": "address"
        },
        {
          "internalType": "uint256",
          "name": "tokenId",
          "type": "uint256"
        }
      ],
      "stateMutability": "view",
      "type": "function"
    },
    {
      "inputs": [
        {
          "internalType": "bytes32",
          "name": "ruleSetHash",
          "type": "bytes32"
        }
      ],
      "name": "getRuleSet",
      "outputs": [
        {
          "internalType": "address",
          "name": "owner",
          "type": "address"
        },
        {
          "internalType": "uint64",
          "name": "version",
          "type": "uint64"
        },
        {
          "internalType": "bool",
          "name": "active",
          "type": "bool"
        },
        {
          "internalType": "uint256",
          "name": "registeredAt",
          "type": "uint256"
        },
        {
          "internalType": "uint256",
          "name": "refCount",
          "type": "uint256"
        }
      ],
      "stateMutability": "view",
      "type": "function"
    },
    {
      "inputs": [
        {
          "internalType": "bytes32",
          "name": "role",
          "type": "bytes32"
        },
        {
          "internalType": "address",
          "name": "account",
          "type": "address"
        }
      ],
      "name": "grantRole",
      "outputs": [],
      "stateMutability": "nonpayable",
      "type": "function"
    },
    {
      "inputs": [
        {
          "internalType": "bytes32",
          "name": "role",
          "type": "bytes32"
        },
        {
          "internalType": "address",
          "name": "account",
          "type": "address"
        }
      ],
      "name": "hasRole",
      "outputs": [
        {
          "internalType": "bool",
          "name": "",
          "type": "bool"
        }
      ],
      "stateMutability": "view",
      "type": "function"
    },
    {
      "inputs": [
        {
          "internalType": "address",
          "name": "admin",
          "type": "address"
        }
      ],
      "name": "initialize",
      "outputs": [],
      "stateMutability": "nonpayable",
      "type": "function"
    },
    {
      "inputs": [],
      "name": "isInitialized",
      "outputs": [
        {
          "internalType": "bool",
          "name": "",
          "type": "bool"
        }
      ],
      "stateMutability": "view",
      "type": "function"
    },
    {
      "inputs": [
        {
          "internalType": "address",
          "name": "",
          "type": "address"
        },
        {
          "internalType": "uint256",
          "name": "",
          "type": "uint256"
        }
      ],
      "name": "ownerRuleSets",
      "outputs": [
        {
          "internalType": "bytes32",
          "name": "",
          "type": "bytes32"
        }
      ],
      "stateMutability": "view",
      "type": "function"
    },
    {
      "inputs": [
        {
          "internalType": "bytes32",
          "name": "ruleSetHash",
          "type": "bytes32"
        },
        {
          "components": [
            {
              "internalType": "address",
              "name": "ruleNFT",
              "type": "address"
            },
            {
              "internalType": "uint256",
              "name": "tokenId",
              "type": "uint256"
            }
          ],
          "internalType": "struct IRuleAuthority.RuleRef[]",
          "name": "ruleRefs",
          "type": "tuple[]"
        }
      ],
      "name": "registerRuleSet",
      "outputs": [],
      "stateMutability": "nonpayable",
      "type": "function"
    },
    {
      "inputs": [
        {
          "internalType": "bytes32",
          "name": "role",
          "type": "bytes32"
        },
        {
          "internalType": "address",
          "name": "callerConfirmation",
          "type": "address"
        }
      ],
      "name": "renounceRole",
      "outputs": [],
      "stateMutability": "nonpayable",
      "type": "function"
    },
    {
      "inputs": [
        {
          "internalType": "bytes32",
          "name": "role",
          "type": "bytes32"
        },
        {
          "internalType": "address",
          "name": "account",
          "type": "address"
        }
      ],
      "name": "revokeRole",
      "outputs": [],
      "stateMutability": "nonpayable",
      "type": "function"
    },
    {
      "inputs": [
        {
          "internalType": "bytes4",
          "name": "interfaceId",
          "type": "bytes4"
        }
      ],
      "name": "supportsInterface",
      "outputs": [
        {
          "internalType": "bool",
          "name": "",
          "type": "bool"
        }
      ],
      "stateMutability": "view",
      "type": "function"
    },
    {
      "inputs": [
        {
          "internalType": "bytes32",
          "name": "oldHash",
          "type": "bytes32"
        },
        {
          "internalType": "bytes32",
          "name": "newHash",
          "type": "bytes32"
        },
        {
          "components": [
            {
              "internalType": "address",
              "name": "ruleNFT",
              "type": "address"
            },
            {
              "internalType": "uint256",
              "name": "tokenId",
              "type": "uint256"
            }
          ],
          "internalType": "struct IRuleAuthority.RuleRef[]",
          "name": "newRefs",
          "type": "tuple[]"
        }
      ],
      "name": "updateRuleSet",
      "outputs": [],
      "stateMutability": "nonpayable",
      "type": "function"
    }
  ],
  "bytecode": "0x6080604052348015600e575f5ffd5b5061142b8061001c5f395ff3fe608060405234801561000f575f5ffd5b5060043610610111575f3560e01c806391d148541161009e578063cf98fccb1161006e578063cf98fccb1461029b578063d547741f146102ae578063ed386011146102c1578063f252591a146102e1578063f68e9553146102f4575f5ffd5b806391d148541461025b5780639c42bc471461026e578063a217fddf14610281578063c4d66de814610288575f5ffd5b8063248a9ca3116100e4578063248a9ca3146101e557806328b0ffd8146102155780632f2ff15d1461022a57806336568abe1461023d578063392e53cd14610250575f5ffd5b806301ffc9a714610115578063049fbcc51461013d5780630eb7798a146101915780631b1d0133146101b3575b5f5ffd5b6101286101233660046110d0565b61031b565b60405190151581526020015b60405180910390f35b61015061014b3660046110fe565b610351565b604080516001600160a01b03909616865267ffffffffffffffff9094166020860152911515928401929092526060830191909152608082015260a001610134565b6101a461019f3660046110fe565b6103d8565b60405161013493929190611115565b6101c66101c1366004611192565b6104fc565b604080516001600160a01b039093168352602083019190915201610134565b6102076101f33660046110fe565b5f9081526020819052604090206001015490565b604051908152602001610134565b6102286102233660046111f3565b6105d6565b005b610228610238366004611256565b610960565b61022861024b366004611256565b61098a565b60035460ff16610128565b610128610269366004611256565b6109c2565b61022861027c3660046110fe565b6109ea565b6102075f81565b610228610296366004611284565b610b2d565b6102076102a936600461129f565b610c0e565b6102286102bc366004611256565b610c39565b6102d46102cf366004611284565b610c5d565b60405161013491906112c9565b6102286102ef36600461130b565b610cc6565b6102077fedcc084d3dcd65a1f7f23c65c46722faca6953d28e43150a467cf43e5c30923881565b5f6001600160e01b03198216637965db0b60e01b148061034b57506301ffc9a760e01b6001600160e01b03198316145b92915050565b5f818152600160205260408120805482918291829182916001600160a01b03166103965760405162461bcd60e51b815260040161038d90611353565b60405180910390fd5b8054600282015460038301546001909301546001600160a01b039092169967ffffffffffffffff82169950600160401b90910460ff1697509195509350915050565b5f818152600160205260408120805460609183916001600160a01b03166104115760405162461bcd60e51b815260040161038d90611353565b6002810154600160401b900460ff166104605760405162461bcd60e51b815260206004820152601160248201527052554c455f5345545f494e41435449564560781b604482015260640161038d565b80546002820154600183018054604080516020808402820181019092528281526001600160a01b0390951694929367ffffffffffffffff16929184915f9084015b828210156104e8575f848152602090819020604080518082019091526002850290910180546001600160a01b031682526001908101548284015290835290920191016104a1565b505050509150935093509350509193909250565b5f82815260016020526040812080548291906001600160a01b03166105335760405162461bcd60e51b815260040161038d90611353565b6001810154841061057c5760405162461bcd60e51b8152602060048201526013602482015272494e4445585f4f55545f4f465f424f554e445360681b604482015260640161038d565b5f8160010185815481106105925761059261137f565b5f9182526020918290206040805180820190915260029092020180546001600160a01b031680835260019091015491909201819052909450925050505b9250929050565b60035460ff166105f9576040516321c4e35760e21b815260040160405180910390fd5b5f84815260016020526040902080546001600160a01b0316331461064b5760405162461bcd60e51b81526020600482015260096024820152682727aa2fa7aba722a960b91b604482015260640161038d565b6002810154600160401b900460ff166106995760405162461bcd60e51b815260206004820152601060248201526f414c52454144595f494e41435449564560801b604482015260640161038d565b836106d95760405162461bcd60e51b815260206004820152601060248201526f0929cac82989288be9c8aaebe9082a6960831b604482015260640161038d565b8484036107145760405162461bcd60e51b81526020600482015260096024820152680a6829a8abe9082a6960bb1b604482015260640161038d565b5f848152600160205260409020546001600160a01b0316156107785760405162461bcd60e51b815260206004820152601b60248201527f4e45575f484153485f414c52454144595f524547495354455245440000000000604482015260640161038d565b816107b75760405162461bcd60e51b815260206004820152600f60248201526e454d5054595f52554c455f5245465360881b604482015260640161038d565b600a8211156107f85760405162461bcd60e51b815260206004820152600d60248201526c544f4f5f4d414e595f5245465360981b604482015260640161038d565b60028101545f906108149067ffffffffffffffff166001611393565b60028301805460ff60401b19169055604051909150339087907f397b533bd79c7fb896e5cf2d38b0ed93ee3c92ab67a9a4a04ec418468e5d59f4905f90a35f85815260016020526040812080546001600160a01b0319163317815560028101805468ffffffffffffffffff191667ffffffffffffffff851617600160401b179055426003820155905b848110156108f257816001018686838181106108bb576108bb61137f565b83546001810185555f94855260209094206040909102929092019260020290910190506108e882826113bf565b505060010161089d565b50335f818152600260209081526040808320805460018101825590845292829020909201899055905167ffffffffffffffff8516815288918a917f496c1355917548e0a21ffe960a117aabb8fab91da0c2d8c0154370d39643bfa2910160405180910390a450505050505050565b5f8281526020819052604090206001015461097a81610f8e565b6109848383610f9b565b50505050565b6001600160a01b03811633146109b35760405163334bd91960e11b815260040160405180910390fd5b6109bd828261102a565b505050565b5f918252602082815260408084206001600160a01b0393909316845291905290205460ff1690565b60035460ff16610a0d576040516321c4e35760e21b815260040160405180910390fd5b5f81815260016020526040902080546001600160a01b0316331480610a575750610a577fedcc084d3dcd65a1f7f23c65c46722faca6953d28e43150a467cf43e5c309238336109c2565b610a945760405162461bcd60e51b815260206004820152600e60248201526d1393d517d055551213d49256915160921b604482015260640161038d565b6002810154600160401b900460ff16610ae25760405162461bcd60e51b815260206004820152601060248201526f414c52454144595f494e41435449564560801b604482015260640161038d565b60028101805460ff60401b1916905580546040516001600160a01b039091169083907f397b533bd79c7fb896e5cf2d38b0ed93ee3c92ab67a9a4a04ec418468e5d59f4905f90a35050565b60035460ff1615610b505760405162dc149f60e41b815260040160405180910390fd5b6001600160a01b038116610b955760405162461bcd60e51b815260206004820152600c60248201526b5a45524f5f4144445245535360a01b604482015260640161038d565b6003805460ff19166001179055610bac5f82610f9b565b50610bd77fedcc084d3dcd65a1f7f23c65c46722faca6953d28e43150a467cf43e5c30923882610f9b565b506040516001600160a01b038216907f908408e307fc569b417f6cbec5d5a06f44a0a505ac0479b47d421a4b2fd6a1e6905f90a250565b6002602052815f5260405f208181548110610c27575f80fd5b905f5260205f20015f91509150505481565b5f82815260208190526040902060010154610c5381610f8e565b610984838361102a565b6001600160a01b0381165f90815260026020908152604091829020805483518184028101840190945280845260609392830182828015610cba57602002820191905f5260205f20905b815481526020019060010190808311610ca6575b50505050509050919050565b60035460ff16610ce9576040516321c4e35760e21b815260040160405180910390fd5b82610d255760405162461bcd60e51b815260206004820152600c60248201526b0929cac82989288be9082a6960a31b604482015260640161038d565b80610d645760405162461bcd60e51b815260206004820152600f60248201526e454d5054595f52554c455f5245465360881b604482015260640161038d565b600a811115610da55760405162461bcd60e51b815260206004820152600d60248201526c544f4f5f4d414e595f5245465360981b604482015260640161038d565b5f838152600160205260409020546001600160a01b031615610e095760405162461bcd60e51b815260206004820152601760248201527f484153485f414c52454144595f52454749535445524544000000000000000000604482015260640161038d565b5f5b81811015610e93575f838383818110610e2657610e2661137f565b610e3c9260206040909202019081019150611284565b6001600160a01b03163b11610e8b5760405162461bcd60e51b81526020600482015260156024820152741495531157d3919517d393d517d0d3d395149050d5605a1b604482015260640161038d565b600101610e0b565b505f83815260016020526040812080546001600160a01b031916331781556002810180546801000000000000000168ffffffffffffffffff19909116179055426003820155905b82811015610f2f5781600101848483818110610ef857610ef861137f565b83546001810185555f9485526020909420604090910292909201926002029091019050610f2582826113bf565b5050600101610eda565b50335f818152600260209081526040808320805460018082018355918552938390209093018890555191825286917f5760a0db896852aabe97ab76c9488143df97bd306f6d63cc5f47b4b814557909910160405180910390a350505050565b610f988133611093565b50565b5f610fa683836109c2565b611023575f838152602081815260408083206001600160a01b03861684529091529020805460ff19166001179055610fdb3390565b6001600160a01b0316826001600160a01b0316847f2f8788117e7eff1d82e926ec794901d17c78024a50270940304540a733656f0d60405160405180910390a450600161034b565b505f61034b565b5f61103583836109c2565b15611023575f838152602081815260408083206001600160a01b0386168085529252808320805460ff1916905551339286917ff6391f5c32d9c69d2a47ea670b442974b53935d1edc7fd64eb21e047a839171b9190a450600161034b565b61109d82826109c2565b6110cc5760405163e2517d3f60e01b81526001600160a01b03821660048201526024810183905260440161038d565b5050565b5f602082840312156110e0575f5ffd5b81356001600160e01b0319811681146110f7575f5ffd5b9392505050565b5f6020828403121561110e575f5ffd5b5035919050565b6001600160a01b03841681526060602080830182905284519183018290525f91908501906080840190835b8181101561117357835180516001600160a01b031684526020908101518185015290930192604090920191600101611140565b5050809250505067ffffffffffffffff83166040830152949350505050565b5f5f604083850312156111a3575f5ffd5b50508035926020909101359150565b5f5f83601f8401126111c2575f5ffd5b50813567ffffffffffffffff8111156111d9575f5ffd5b6020830191508360208260061b85010111156105cf575f5ffd5b5f5f5f5f60608587031215611206575f5ffd5b8435935060208501359250604085013567ffffffffffffffff81111561122a575f5ffd5b611236878288016111b2565b95989497509550505050565b6001600160a01b0381168114610f98575f5ffd5b5f5f60408385031215611267575f5ffd5b82359150602083013561127981611242565b809150509250929050565b5f60208284031215611294575f5ffd5b81356110f781611242565b5f5f604083850312156112b0575f5ffd5b82356112bb81611242565b946020939093013593505050565b602080825282518282018190525f918401906040840190835b818110156113005783518352602093840193909201916001016112e2565b509095945050505050565b5f5f5f6040848603121561131d575f5ffd5b83359250602084013567ffffffffffffffff81111561133a575f5ffd5b611346868287016111b2565b9497909650939450505050565b6020808252601290820152711495531157d4d15517d393d517d193d5539160721b604082015260600190565b634e487b7160e01b5f52603260045260245ffd5b67ffffffffffffffff818116838216019081111561034b57634e487b7160e01b5f52601160045260245ffd5b81356113ca81611242565b81546001600160a01b0319166001600160a01b0391909116178155602091909101356001919091015556fea26469706673582212201164fa43795ad934a1c853a58c2d925b9e02ad66f03d395dab077b93615a0c3f64736f6c634300081c0033",
  "linkReferences": {},
  "deployedLinkReferences": {},
  "immutableReferences": {},
  "inputSourceName": "project/contracts/RuleAuthority.sol",
  "buildInfoId": "solc-0_8_28-ef888c4929a189e688e36f7f6f5c2051711741c2"
}