{
  "_format": "hh3-artifact-1",
  "contractName": "AttestationVerifier",
  "sourceName": "contracts/AttestationVerifier.sol",
  "abi": [
    {
      "inputs": [],
      "name": "AlreadyInitialized",
      "type": "error"
    },
    {
      "inputs": [],
      "name": "AttestationExpired",
      "type": "error"
    },
    {
      "inputs": [],
      "name": "AttestationNotForPayer",
      "type": "error"
    },
    {
      "inputs": [],
      "name": "AttestationNotFound",
      "type": "error"
    },
    {
      "inputs": [],
      "name": "AttestationRevoked",
      "type": "error"
    },
    {
      "inputs": [],
      "name": "LengthMismatch",
      "type": "error"
    },
    {
      "inputs": [],
      "name": "NotInitialized",
      "type": "error"
    },
    {
      "inputs": [],
      "name": "NotOwner",
      "type": "error"
    },
    {
      "inputs": [],
      "name": "ReplayAttestation",
      "type": "error"
    },
    {
      "inputs": [],
      "name": "UntrustedAttester",
      "type": "error"
    },
    {
      "inputs": [],
      "name": "WrongSchema",
      "type": "error"
    },
    {
      "inputs": [],
      "name": "ZeroAddress",
      "type": "error"
    },
    {
      "anonymous": false,
      "inputs": [
        {
          "indexed": true,
          "internalType": "address",
          "name": "attester",
          "type": "address"
        },
        {
          "indexed": false,
          "internalType": "bool",
          "name": "trusted",
          "type": "bool"
        }
      ],
      "name": "AttesterUpdated",
      "type": "event"
    },
    {
      "anonymous": false,
      "inputs": [
        {
          "indexed": true,
          "internalType": "address",
          "name": "easAddress",
          "type": "address"
        }
      ],
      "name": "Initialized",
      "type": "event"
    },
    {
      "anonymous": false,
      "inputs": [
        {
          "indexed": true,
          "internalType": "address",
          "name": "prev",
          "type": "address"
        },
        {
          "indexed": true,
          "internalType": "address",
          "name": "next",
          "type": "address"
        }
      ],
      "name": "OwnershipTransferred",
      "type": "event"
    },
    {
      "anonymous": false,
      "inputs": [
        {
          "indexed": true,
          "internalType": "bytes32",
          "name": "schemaUID",
          "type": "bytes32"
        },
        {
          "indexed": false,
          "internalType": "bool",
          "name": "trusted",
          "type": "bool"
        }
      ],
      "name": "SchemaUpdated",
      "type": "event"
    },
    {
      "inputs": [],
      "name": "eas",
      "outputs": [
        {
          "internalType": "contract IEAS",
          "name": "",
          "type": "address"
        }
      ],
      "stateMutability": "view",
      "type": "function"
    },
    {
      "inputs": [
        {
          "internalType": "bytes32",
          "name": "attestationUID",
          "type": "bytes32"
        },
        {
          "internalType": "address",
          "name": "payer",
          "type": "address"
        }
      ],
      "name": "hasValidAttestation",
      "outputs": [
        {
          "internalType": "bool",
          "name": "",
          "type": "bool"
        }
      ],
      "stateMutability": "view",
      "type": "function"
    },
    {
      "inputs": [
        {
          "internalType": "address",
          "name": "easAddress",
          "type": "address"
        },
        {
          "internalType": "bytes32[]",
          "name": "initialSchemas",
          "type": "bytes32[]"
        },
        {
          "internalType": "address[]",
          "name": "initialAttesters",
          "type": "address[]"
        }
      ],
      "name": "initialize",
      "outputs": [],
      "stateMutability": "nonpayable",
      "type": "function"
    },
    {
      "inputs": [],
      "name": "isInitialized",
      "outputs": [
        {
          "internalType": "bool",
          "name": "",
          "type": "bool"
        }
      ],
      "stateMutability": "view",
      "type": "function"
    },
    {
      "inputs": [],
      "name": "owner",
      "outputs": [
        {
          "internalType": "address",
          "name": "",
          "type": "address"
        }
      ],
      "stateMutability": "view",
      "type": "function"
    },
    {
      "inputs": [
        {
          "internalType": "address",
          "name": "attester",
          "type": "address"
        },
        {
          "internalType": "bool",
          "name": "trusted",
          "type": "bool"
        }
      ],
      "name": "setTrustedAttester",
      "outputs": [],
      "stateMutability": "nonpayable",
      "type": "function"
    },
    {
      "inputs": [
        {
          "internalType": "bytes32",
          "name": "schemaUID",
          "type": "bytes32"
        },
        {
          "internalType": "bool",
          "name": "trusted",
          "type": "bool"
        }
      ],
      "name": "setTrustedSchema",
      "outputs": [],
      "stateMutability": "nonpayable",
      "type": "function"
    },
    {
      "inputs": [
        {
          "internalType": "address",
          "name": "newOwner",
          "type": "address"
        }
      ],
      "name": "transferOwnership",
      "outputs": [],
      "stateMutability": "nonpayable",
      "type": "function"
    },
    {
      "inputs": [
        {
          "internalType": "address",
          "name": "",
          "type": "address"
        }
      ],
      "name": "trustedAttesters",
      "outputs": [
        {
          "internalType": "bool",
          "name": "",
          "type": "bool"
        }
      ],
      "stateMutability": "view",
      "type": "function"
    },
    {
      "inputs": [
        {
          "internalType": "bytes32",
          "name": "",
          "type": "bytes32"
        }
      ],
      "name": "trustedSchemas",
      "outputs": [
        {
          "internalType": "bool",
          "name": "",
          "type": "bool"
        }
      ],
      "stateMutability": "view",
      "type": "function"
    },
    {
      "inputs": [
        {
          "internalType": "bytes32",
          "name": "",
          "type": "bytes32"
        }
      ],
      "name": "usedAttestations",
      "outputs": [
        {
          "internalType": "bool",
          "name": "",
          "type": "bool"
        }
      ],
      "stateMutability": "view",
      "type": "function"
    },
    {
      "inputs": [
        {
          "internalType": "bytes32",
          "name": "attestationUID",
          "type": "bytes32"
        },
        {
          "internalType": "address",
          "name": "payer",
          "type": "address"
        }
      ],
      "name": "verifyAttestation",
      "outputs": [],
      "stateMutability": "view",
      "type": "function"
    },
    {
      "inputs": [
        {
          "internalType": "bytes32[]",
          "name": "attestationUIDs",
          "type": "bytes32[]"
        },
        {
          "internalType": "address",
          "name": "payer",
          "type": "address"
        }
      ],
      "name": "verifyAttestationBatch",
      "outputs": [],
      "stateMutability": "view",
      "type": "function"
    },
    {
      "inputs": [
        {
          "internalType": "bytes32",
          "name": "attestationUID",
          "type": "bytes32"
        },
        {
          "internalType": "address",
          "name": "payer",
          "type": "address"
        }
      ],
      "name": "verifyAttestationOnce",
      "outputs": [],
      "stateMutability": "nonpayable",
      "type": "function"
    }
  ],
  "bytecode": "0x6080604052348015600e575f5ffd5b50610f2d8061001c5f395ff3fe608060405234801561000f575f5ffd5b50600436106100e5575f3560e01c8063c6e2624511610088578063e33d5c3711610063578063e33d5c37146101f2578063e36546fa14610205578063e4d01a4e14610218578063f2fde38b1461023a575f5ffd5b8063c6e26245146101b9578063cc600a9a146101cc578063d41b4e72146101df575f5ffd5b8063392e53cd116100c3578063392e53cd146101485780635a5535721461015a5780638150864d1461017c5780638da5cb5b146101a6575f5ffd5b80630ae7243a146100e95780631b16c61f1461012057806337fb91ad14610135575b5f5ffd5b61010b6100f7366004610a12565b60016020525f908152604090205460ff1681565b60405190151581526020015b60405180910390f35b61013361012e366004610a40565b61024d565b005b610133610143366004610a7b565b61025b565b600454600160a01b900460ff1661010b565b61010b610168366004610a12565b60036020525f908152604090205460ff1681565b5f5461018e906001600160a01b031681565b6040516001600160a01b039091168152602001610117565b60045461018e906001600160a01b031681565b6101336101c7366004610a40565b610307565b6101336101da366004610a9e565b61035b565b6101336101ed366004610c20565b610397565b61010b610200366004610a40565b6105c8565b610133610213366004610ceb565b610634565b61010b610226366004610d17565b60026020525f908152604090205460ff1681565b610133610248366004610d17565b610707565b61025782826107b4565b5050565b6004546001600160a01b03163314610286576040516330cd747160e01b815260040160405180910390fd5b600454600160a01b900460ff166102b0576040516321c4e35760e21b815260040160405180910390fd5b5f82815260016020908152604091829020805460ff1916841515908117909155915191825283917fbfe5a0ed847b5eac7ee1669313cce6cb83fcd715ae8b20f8ea6aff0686a0e3a691015b60405180910390a25050565b5f8281526003602052604090205460ff1615610336576040516304b070f360e51b815260040160405180910390fd5b61034082826107b4565b505f908152600360205260409020805460ff19166001179055565b815f5b818110156103905761038885858381811061037b5761037b610d39565b90506020020135846107b4565b60010161035e565b5050505050565b600454600160a01b900460ff16156103c15760405162dc149f60e41b815260040160405180910390fd5b6001600160a01b0383166103e85760405163d92e233d60e01b815260040160405180910390fd5b600480545f80546001600160a01b0387166001600160a01b03199091161781556001600160a81b03199091163317600160a01b179091555b82518110156104c8576001805f85848151811061043f5761043f610d39565b602002602001015181526020019081526020015f205f6101000a81548160ff02191690831515021790555082818151811061047c5761047c610d39565b60200260200101517fbfe5a0ed847b5eac7ee1669313cce6cb83fcd715ae8b20f8ea6aff0686a0e3a660016040516104b8911515815260200190565b60405180910390a2600101610420565b505f5b815181101561058f57600160025f8484815181106104eb576104eb610d39565b60200260200101516001600160a01b03166001600160a01b031681526020019081526020015f205f6101000a81548160ff02191690831515021790555081818151811061053a5761053a610d39565b60200260200101516001600160a01b03167f2f6baedf5d85c15bc97b3e106fb2c744a011c1a294456f6369281584f778fb00600160405161057f911515815260200190565b60405180910390a26001016104cb565b506040516001600160a01b038416907f908408e307fc569b417f6cbec5d5a06f44a0a505ac0479b47d421a4b2fd6a1e6905f90a2505050565b604051631b16c61f60e01b8152600481018390526001600160a01b03821660248201525f903090631b16c61f906044015f6040518083038186803b15801561060e575f5ffd5b505afa92505050801561061f575060015b61062a57505f61062e565b5060015b92915050565b6004546001600160a01b0316331461065f576040516330cd747160e01b815260040160405180910390fd5b600454600160a01b900460ff16610689576040516321c4e35760e21b815260040160405180910390fd5b6001600160a01b0382166106b05760405163d92e233d60e01b815260040160405180910390fd5b6001600160a01b0382165f81815260026020908152604091829020805460ff191685151590811790915591519182527f2f6baedf5d85c15bc97b3e106fb2c744a011c1a294456f6369281584f778fb0091016102fb565b6004546001600160a01b03163314610732576040516330cd747160e01b815260040160405180910390fd5b6001600160a01b0381166107595760405163d92e233d60e01b815260040160405180910390fd5b6004546040516001600160a01b038084169216907f8be0079c531659141344cd1fd0a4f28419497f9722a3daafe3b4186f6b6457e0905f90a3600480546001600160a01b0319166001600160a01b0392909216919091179055565b600454600160a01b900460ff166107de576040516321c4e35760e21b815260040160405180910390fd5b5f80546040516328c44a9960e21b8152600481018590526001600160a01b039091169063a3112a64906024015f60405180830381865afa158015610824573d5f5f3e3d5ffd5b505050506040513d5f823e601f3d908101601f1916820160405261084b9190810190610de9565b805190915061086d5760405163120a2e7760e01b815260040160405180910390fd5b6020808201515f9081526001909152604090205460ff166108a1576040516321b8eeb960e01b815260040160405180910390fd5b60c08101516001600160a01b03165f9081526002602052604090205460ff166108dd576040516317ada25b60e11b815260040160405180910390fd5b816001600160a01b03168160e001516001600160a01b031614610913576040516341e3f83160e01b815260040160405180910390fd5b60608101516001600160401b03161580159061093c57504281606001516001600160401b031611155b1561095a5760405163716dcc3960e01b815260040160405180910390fd5b60808101516001600160401b03161561098657604051637b6227e960e11b815260040160405180910390fd5b5f5460405163e30bb56360e01b8152600481018590526001600160a01b039091169063e30bb56390602401602060405180830381865afa1580156109cc573d5f5f3e3d5ffd5b505050506040513d601f19601f820116820180604052508101906109f09190610edc565b610a0d57604051637b6227e960e11b815260040160405180910390fd5b505050565b5f60208284031215610a22575f5ffd5b5035919050565b6001600160a01b0381168114610a3d575f5ffd5b50565b5f5f60408385031215610a51575f5ffd5b823591506020830135610a6381610a29565b809150509250929050565b8015158114610a3d575f5ffd5b5f5f60408385031215610a8c575f5ffd5b823591506020830135610a6381610a6e565b5f5f5f60408486031215610ab0575f5ffd5b83356001600160401b03811115610ac5575f5ffd5b8401601f81018613610ad5575f5ffd5b80356001600160401b03811115610aea575f5ffd5b8660208260051b8401011115610afe575f5ffd5b602091820194509250840135610b1381610a29565b809150509250925092565b634e487b7160e01b5f52604160045260245ffd5b60405161014081016001600160401b0381118282101715610b5557610b55610b1e565b60405290565b604051601f8201601f191681016001600160401b0381118282101715610b8357610b83610b1e565b604052919050565b5f6001600160401b03821115610ba357610ba3610b1e565b5060051b60200190565b5f82601f830112610bbc575f5ffd5b8135610bcf610bca82610b8b565b610b5b565b8082825260208201915060208360051b860101925085831115610bf0575f5ffd5b602085015b83811015610c16578035610c0881610a29565b835260209283019201610bf5565b5095945050505050565b5f5f5f60608486031215610c32575f5ffd5b8335610c3d81610a29565b925060208401356001600160401b03811115610c57575f5ffd5b8401601f81018613610c67575f5ffd5b8035610c75610bca82610b8b565b8082825260208201915060208360051b850101925088831115610c96575f5ffd5b6020840193505b82841015610cb8578335825260209384019390910190610c9d565b945050505060408401356001600160401b03811115610cd5575f5ffd5b610ce186828701610bad565b9150509250925092565b5f5f60408385031215610cfc575f5ffd5b8235610d0781610a29565b91506020830135610a6381610a6e565b5f60208284031215610d27575f5ffd5b8135610d3281610a29565b9392505050565b634e487b7160e01b5f52603260045260245ffd5b80516001600160401b0381168114610d63575f5ffd5b919050565b8051610d6381610a29565b8051610d6381610a6e565b5f82601f830112610d8d575f5ffd5b81516001600160401b03811115610da657610da6610b1e565b610db9601f8201601f1916602001610b5b565b818152846020838601011115610dcd575f5ffd5b8160208501602083015e5f918101602001919091529392505050565b5f60208284031215610df9575f5ffd5b81516001600160401b03811115610e0e575f5ffd5b82016101408185031215610e20575f5ffd5b610e28610b32565b8151815260208083015190820152610e4260408301610d4d565b6040820152610e5360608301610d4d565b6060820152610e6460808301610d4d565b608082015260a08281015190820152610e7f60c08301610d68565b60c0820152610e9060e08301610d68565b60e0820152610ea26101008301610d73565b6101008201526101208201516001600160401b03811115610ec1575f5ffd5b610ecd86828501610d7e565b61012083015250949350505050565b5f60208284031215610eec575f5ffd5b8151610d3281610a6e56fea26469706673582212206c7d7d1f32c8617cc24d46d0337b4e5fcc5a50dcf4af97d01844bf4dd371f6c364736f6c634300081c0033",
  "linkReferences": {},
  "deployedLinkReferences": {},
  "immutableReferences": {},
  "inputSourceName": "project/contracts/AttestationVerifier.sol",
  "buildInfoId": "solc-0_8_28-e279e8240a34576fb4b37733043274f2b5783981"
}