{
  "_format": "hh3-artifact-1",
  "contractName": "PayIDVerifier",
  "sourceName": "contracts/PayIDVerifier.sol",
  "abi": [
    {
      "inputs": [],
      "stateMutability": "nonpayable",
      "type": "constructor"
    },
    {
      "inputs": [],
      "name": "AlreadyInitialized",
      "type": "error"
    },
    {
      "inputs": [],
      "name": "ECDSAInvalidSignature",
      "type": "error"
    },
    {
      "inputs": [
        {
          "internalType": "uint256",
          "name": "length",
          "type": "uint256"
        }
      ],
      "name": "ECDSAInvalidSignatureLength",
      "type": "error"
    },
    {
      "inputs": [
        {
          "internalType": "bytes32",
          "name": "s",
          "type": "bytes32"
        }
      ],
      "name": "ECDSAInvalidSignatureS",
      "type": "error"
    },
    {
      "inputs": [],
      "name": "InvalidShortString",
      "type": "error"
    },
    {
      "inputs": [],
      "name": "NotInitialized",
      "type": "error"
    },
    {
      "inputs": [],
      "name": "NotOwner",
      "type": "error"
    },
    {
      "inputs": [
        {
          "internalType": "string",
          "name": "str",
          "type": "string"
        }
      ],
      "name": "StringTooLong",
      "type": "error"
    },
    {
      "inputs": [],
      "name": "ZeroAddress",
      "type": "error"
    },
    {
      "anonymous": false,
      "inputs": [
        {
          "indexed": true,
          "internalType": "address",
          "name": "authority",
          "type": "address"
        },
        {
          "indexed": false,
          "internalType": "bool",
          "name": "trusted",
          "type": "bool"
        }
      ],
      "name": "AuthorityUpdated",
      "type": "event"
    },
    {
      "anonymous": false,
      "inputs": [],
      "name": "EIP712DomainChanged",
      "type": "event"
    },
    {
      "anonymous": false,
      "inputs": [
        {
          "indexed": true,
          "internalType": "address",
          "name": "owner",
          "type": "address"
        }
      ],
      "name": "Initialized",
      "type": "event"
    },
    {
      "anonymous": false,
      "inputs": [
        {
          "indexed": true,
          "internalType": "address",
          "name": "previousOwner",
          "type": "address"
        },
        {
          "indexed": true,
          "internalType": "address",
          "name": "newOwner",
          "type": "address"
        }
      ],
      "name": "OwnershipTransferred",
      "type": "event"
    },
    {
      "inputs": [],
      "name": "DECISION_TYPEHASH",
      "outputs": [
        {
          "internalType": "bytes32",
          "name": "",
          "type": "bytes32"
        }
      ],
      "stateMutability": "view",
      "type": "function"
    },
    {
      "inputs": [],
      "name": "SIGNATURE_VERSION",
      "outputs": [
        {
          "internalType": "string",
          "name": "",
          "type": "string"
        }
      ],
      "stateMutability": "view",
      "type": "function"
    },
    {
      "inputs": [],
      "name": "SIGNING_DOMAIN",
      "outputs": [
        {
          "internalType": "string",
          "name": "",
          "type": "string"
        }
      ],
      "stateMutability": "view",
      "type": "function"
    },
    {
      "inputs": [],
      "name": "domainSeparator",
      "outputs": [
        {
          "internalType": "bytes32",
          "name": "",
          "type": "bytes32"
        }
      ],
      "stateMutability": "view",
      "type": "function"
    },
    {
      "inputs": [],
      "name": "eip712Domain",
      "outputs": [
        {
          "internalType": "bytes1",
          "name": "fields",
          "type": "bytes1"
        },
        {
          "internalType": "string",
          "name": "name",
          "type": "string"
        },
        {
          "internalType": "string",
          "name": "version",
          "type": "string"
        },
        {
          "internalType": "uint256",
          "name": "chainId",
          "type": "uint256"
        },
        {
          "internalType": "address",
          "name": "verifyingContract",
          "type": "address"
        },
        {
          "internalType": "bytes32",
          "name": "salt",
          "type": "bytes32"
        },
        {
          "internalType": "uint256[]",
          "name": "extensions",
          "type": "uint256[]"
        }
      ],
      "stateMutability": "view",
      "type": "function"
    },
    {
      "inputs": [
        {
          "components": [
            {
              "internalType": "bytes32",
              "name": "version",
              "type": "bytes32"
            },
            {
              "internalType": "bytes32",
              "name": "payId",
              "type": "bytes32"
            },
            {
              "internalType": "address",
              "name": "payer",
              "type": "address"
            },
            {
              "internalType": "address",
              "name": "receiver",
              "type": "address"
            },
            {
              "internalType": "address",
              "name": "asset",
              "type": "address"
            },
            {
              "internalType": "uint256",
              "name": "amount",
              "type": "uint256"
            },
            {
              "internalType": "bytes32",
              "name": "contextHash",
              "type": "bytes32"
            },
            {
              "internalType": "bytes32",
              "name": "ruleSetHash",
              "type": "bytes32"
            },
            {
              "internalType": "address",
              "name": "ruleAuthority",
              "type": "address"
            },
            {
              "internalType": "uint64",
              "name": "issuedAt",
              "type": "uint64"
            },
            {
              "internalType": "uint64",
              "name": "expiresAt",
              "type": "uint64"
            },
            {
              "internalType": "bytes32",
              "name": "nonce",
              "type": "bytes32"
            },
            {
              "internalType": "bool",
              "name": "requiresAttestation",
              "type": "bool"
            }
          ],
          "internalType": "struct PayIDVerifier.Decision",
          "name": "d",
          "type": "tuple"
        }
      ],
      "name": "hashDecision",
      "outputs": [
        {
          "internalType": "bytes32",
          "name": "",
          "type": "bytes32"
        }
      ],
      "stateMutability": "view",
      "type": "function"
    },
    {
      "inputs": [
        {
          "internalType": "address",
          "name": "initialOwner",
          "type": "address"
        }
      ],
      "name": "initialize",
      "outputs": [],
      "stateMutability": "nonpayable",
      "type": "function"
    },
    {
      "inputs": [],
      "name": "isInitialized",
      "outputs": [
        {
          "internalType": "bool",
          "name": "",
          "type": "bool"
        }
      ],
      "stateMutability": "view",
      "type": "function"
    },
    {
      "inputs": [],
      "name": "owner",
      "outputs": [
        {
          "internalType": "address",
          "name": "",
          "type": "address"
        }
      ],
      "stateMutability": "view",
      "type": "function"
    },
    {
      "inputs": [
        {
          "components": [
            {
              "internalType": "bytes32",
              "name": "version",
              "type": "bytes32"
            },
            {
              "internalType": "bytes32",
              "name": "payId",
              "type": "bytes32"
            },
            {
              "internalType": "address",
              "name": "payer",
              "type": "address"
            },
            {
              "internalType": "address",
              "name": "receiver",
              "type": "address"
            },
            {
              "internalType": "address",
              "name": "asset",
              "type": "address"
            },
            {
              "internalType": "uint256",
              "name": "amount",
              "type": "uint256"
            },
            {
              "internalType": "bytes32",
              "name": "contextHash",
              "type": "bytes32"
            },
            {
              "internalType": "bytes32",
              "name": "ruleSetHash",
              "type": "bytes32"
            },
            {
              "internalType": "address",
              "name": "ruleAuthority",
              "type": "address"
            },
            {
              "internalType": "uint64",
              "name": "issuedAt",
              "type": "uint64"
            },
            {
              "internalType": "uint64",
              "name": "expiresAt",
              "type": "uint64"
            },
            {
              "internalType": "bytes32",
              "name": "nonce",
              "type": "bytes32"
            },
            {
              "internalType": "bool",
              "name": "requiresAttestation",
              "type": "bool"
            }
          ],
          "internalType": "struct PayIDVerifier.Decision",
          "name": "d",
          "type": "tuple"
        },
        {
          "internalType": "bytes",
          "name": "sig",
          "type": "bytes"
        }
      ],
      "name": "requireAllowed",
      "outputs": [],
      "stateMutability": "nonpayable",
      "type": "function"
    },
    {
      "inputs": [
        {
          "internalType": "address[]",
          "name": "authorities",
          "type": "address[]"
        },
        {
          "internalType": "bool[]",
          "name": "trusted",
          "type": "bool[]"
        }
      ],
      "name": "setTrustedAuthorities",
      "outputs": [],
      "stateMutability": "nonpayable",
      "type": "function"
    },
    {
      "inputs": [
        {
          "internalType": "address",
          "name": "authority",
          "type": "address"
        },
        {
          "internalType": "bool",
          "name": "trusted",
          "type": "bool"
        }
      ],
      "name": "setTrustedAuthority",
      "outputs": [],
      "stateMutability": "nonpayable",
      "type": "function"
    },
    {
      "inputs": [
        {
          "internalType": "address",
          "name": "newOwner",
          "type": "address"
        }
      ],
      "name": "transferOwnership",
      "outputs": [],
      "stateMutability": "nonpayable",
      "type": "function"
    },
    {
      "inputs": [
        {
          "internalType": "address",
          "name": "",
          "type": "address"
        }
      ],
      "name": "trustedAuthorities",
      "outputs": [
        {
          "internalType": "bool",
          "name": "",
          "type": "bool"
        }
      ],
      "stateMutability": "view",
      "type": "function"
    },
    {
      "inputs": [
        {
          "internalType": "address",
          "name": "",
          "type": "address"
        },
        {
          "internalType": "bytes32",
          "name": "",
          "type": "bytes32"
        }
      ],
      "name": "usedNonce",
      "outputs": [
        {
          "internalType": "bool",
          "name": "",
          "type": "bool"
        }
      ],
      "stateMutability": "view",
      "type": "function"
    },
    {
      "inputs": [
        {
          "components": [
            {
              "internalType": "bytes32",
              "name": "version",
              "type": "bytes32"
            },
            {
              "internalType": "bytes32",
              "name": "payId",
              "type": "bytes32"
            },
            {
              "internalType": "address",
              "name": "payer",
              "type": "address"
            },
            {
              "internalType": "address",
              "name": "receiver",
              "type": "address"
            },
            {
              "internalType": "address",
              "name": "asset",
              "type": "address"
            },
            {
              "internalType": "uint256",
              "name": "amount",
              "type": "uint256"
            },
            {
              "internalType": "bytes32",
              "name": "contextHash",
              "type": "bytes32"
            },
            {
              "internalType": "bytes32",
              "name": "ruleSetHash",
              "type": "bytes32"
            },
            {
              "internalType": "address",
              "name": "ruleAuthority",
              "type": "address"
            },
            {
              "internalType": "uint64",
              "name": "issuedAt",
              "type": "uint64"
            },
            {
              "internalType": "uint64",
              "name": "expiresAt",
              "type": "uint64"
            },
            {
              "internalType": "bytes32",
              "name": "nonce",
              "type": "bytes32"
            },
            {
              "internalType": "bool",
              "name": "requiresAttestation",
              "type": "bool"
            }
          ],
          "internalType": "struct PayIDVerifier.Decision",
          "name": "d",
          "type": "tuple"
        },
        {
          "internalType": "bytes",
          "name": "sig",
          "type": "bytes"
        }
      ],
      "name": "verifyDecision",
      "outputs": [
        {
          "internalType": "bool",
          "name": "",
          "type": "bool"
        }
      ],
      "stateMutability": "view",
      "type": "function"
    }
  ],
  "bytecode": "0x610160604052348015610010575f5ffd5b50604080518082018252600f81526e2820ac9724a2102232b1b4b9b4b7b760891b602080830191909152825180840190935260018352601960f91b908301529061005a825f610103565b61012052610069816001610103565b61014052815160208084019190912060e052815190820120610100524660a0526100f560e05161010051604080517f8b73c3c69bb8fe3d512ecc4cf759cc79239f7b179b0ffacaa9a75d522b39400f60208201529081019290925260608201524660808201523060a08201525f9060c00160405160208183030381529060405280519060200120905090565b60805250503060c052610325565b5f60208351101561011e5761011783610135565b905061012f565b816101298482610213565b5060ff90505b92915050565b5f5f829050601f81511115610168578260405163305a27a960e01b815260040161015f91906102cd565b60405180910390fd5b805161017382610302565b179392505050565b634e487b7160e01b5f52604160045260245ffd5b600181811c908216806101a357607f821691505b6020821081036101c157634e487b7160e01b5f52602260045260245ffd5b50919050565b601f82111561020e57805f5260205f20601f840160051c810160208510156101ec5750805b601f840160051c820191505b8181101561020b575f81556001016101f8565b50505b505050565b81516001600160401b0381111561022c5761022c61017b565b6102408161023a845461018f565b846101c7565b6020601f821160018114610272575f831561025b5750848201515b5f19600385901b1c1916600184901b17845561020b565b5f84815260208120601f198516915b828110156102a15787850151825560209485019460019092019101610281565b50848210156102be57868401515f19600387901b60f8161c191681555b50505050600190811b01905550565b602081525f82518060208401528060208501604085015e5f604082850101526040601f19601f83011684010191505092915050565b805160208083015191908110156101c1575f1960209190910360031b1b16919050565b60805160a05160c05160e0516101005161012051610140516118e56103765f395f610e4801525f610e1c01525f610f7301525f610f4b01525f610ea601525f610ed001525f610efa01526118e55ff3fe608060405234801561000f575f5ffd5b50600436106100fb575f3560e01c8063a415729611610093578063e3faad9411610063578063e3faad941461027e578063f08e8a30146102ac578063f2fde38b146102bf578063f698da25146102d2575f5ffd5b8063a415729614610218578063ae6b9d0214610245578063b6bfcf4c14610258578063c4d66de81461026b575f5ffd5b80634dd4a168116100ce5780634dd4a1681461017057806384b0196e146101a55780638da5cb5b146101c05780638f9f07db146101eb575f5ffd5b80630b8274db146100ff578063148a92c9146101145780633077f71d1461013c578063392e53cd1461015e575b5f5ffd5b61011261010d3660046112c8565b6102da565b005b610127610122366004611312565b610391565b60405190151581526020015b60405180910390f35b61012761014a366004611391565b60036020525f908152604090205460ff1681565b600454600160a01b900460ff16610127565b6101977f08168eb48dd28df4c6083d3dd4aafa86d8eef003f5b394a1de9caa45aacb577e81565b604051908152602001610133565b6101ad610498565b60405161013397969594939291906113da565b6004546101d3906001600160a01b031681565b6040516001600160a01b039091168152602001610133565b6101276101f9366004611470565b600260209081525f928352604080842090915290825290205460ff1681565b610238604051806040016040528060018152602001601960f91b81525081565b604051610133919061149a565b6101126102533660046114f3565b6104da565b610112610266366004611312565b6106af565b610112610279366004611391565b610b98565b6102386040518060400160405280600f81526020016e2820ac9724a2102232b1b4b9b4b7b760891b81525081565b6101976102ba36600461155d565b610c39565b6101126102cd366004611391565b610d34565b610197610ddf565b6004546001600160a01b0316331461030d5760405162461bcd60e51b815260040161030490611578565b60405180910390fd5b6001600160a01b0382166103335760405162461bcd60e51b81526004016103049061159b565b6001600160a01b0382165f81815260036020908152604091829020805460ff191685151590811790915591519182527fc5238a63fa205f95e98807f6cbc91d2ad8555a2250075e47491f11d9c69db3bc910160405180910390a25050565b5f6103a4610160850161014086016115d5565b6001600160401b03164211156103bb57505f610491565b426103ce610140860161012087016115d5565b6001600160401b031611156103e457505f610491565b8360a001355f036103f657505f610491565b5f6104076080860160608701611391565b6001600160a01b03160361041c57505f610491565b5f61046784848080601f0160208091040260200160405190810160405280939291908181526020018383808284375f920191909152506104619250899150610c399050565b90610ded565b90506104796060860160408701611391565b6001600160a01b0316816001600160a01b0316149150505b9392505050565b5f6060805f5f5f60606104a9610e15565b6104b1610e41565b604080515f80825260208201909252600f60f81b9b939a50919850469750309650945092509050565b6004546001600160a01b031633146105045760405162461bcd60e51b815260040161030490611578565b8281146105455760405162461bcd60e51b815260206004820152600f60248201526e0988a9c8ea890be9a92a69a82a8869608b1b6044820152606401610304565b5f5b838110156106a8575f85858381811061056257610562611604565b90506020020160208101906105779190611391565b6001600160a01b03160361059d5760405162461bcd60e51b81526004016103049061159b565b8282828181106105af576105af611604565b90506020020160208101906105c49190611618565b60035f8787858181106105d9576105d9611604565b90506020020160208101906105ee9190611391565b6001600160a01b0316815260208101919091526040015f20805460ff191691151591909117905584848281811061062757610627611604565b905060200201602081019061063c9190611391565b6001600160a01b03167fc5238a63fa205f95e98807f6cbc91d2ad8555a2250075e47491f11d9c69db3bc84848481811061067857610678611604565b905060200201602081019061068d9190611618565b604051901515815260200160405180910390a2600101610547565b5050505050565b6106ba838383610391565b6106fd5760405162461bcd60e51b81526020600482015260146024820152732820aca4a21d1024a72b20a624a22fa82927a7a360611b6044820152606401610304565b60025f6107106060860160408701611391565b6001600160a01b0316815260208082019290925260409081015f908120610160870135825290925290205460ff16156107805760405162461bcd60e51b81526020600482015260126024820152711393d390d157d053149150511657d554d15160721b6044820152606401610304565b600160025f6107956060870160408801611391565b6001600160a01b0316815260208082019290925260409081015f90812061016088013582529092528120805460ff1916921515929092179091556107e161012085016101008601611391565b6001600160a01b031614610b93575f61080261012085016101008601611391565b6001600160a01b03163b116108595760405162461bcd60e51b815260206004820152601b60248201527f52554c455f415554484f524954595f4e4f545f434f4e545241435400000000006044820152606401610304565b60035f61086e61012086016101008701611391565b6001600160a01b0316815260208101919091526040015f205460ff166108d65760405162461bcd60e51b815260206004820152601a60248201527f52554c455f415554484f524954595f4e4f545f545255535445440000000000006044820152606401610304565b5f806108ea61012086016101008701611391565b60405163075bbcc560e11b815260e087013560048201526001600160a01b039190911690630eb7798a906024015f60405180830381865afa158015610931573d5f5f3e3d5ffd5b505050506040513d5f823e601f3d908101601f191682016040526109589190810190611694565b50909250905061096e6080860160608701611391565b6001600160a01b0316826001600160a01b0316146109c45760405162461bcd60e51b81526020600482015260136024820152720a4aa988abe9eae9c8aa4be9a92a69a82a8869606b1b6044820152606401610304565b5f5b8151811015610b8f575f8282815181106109e2576109e2611604565b60200260200101515f015190505f838381518110610a0257610a02611604565b602002602001015160200151905042826001600160a01b031663d9019020836040518263ffffffff1660e01b8152600401610a3f91815260200190565b602060405180830381865afa158015610a5a573d5f5f3e3d5ffd5b505050506040513d601f19601f82011682018060405250810190610a7e9190611790565b1015610ac35760405162461bcd60e51b81526020600482015260146024820152731495531157d31250d15394d157d156141254915160621b6044820152606401610304565b6040516331a9108f60e11b8152600481018290526001600160a01b038087169190841690636352211e90602401602060405180830381865afa158015610b0b573d5f5f3e3d5ffd5b505050506040513d601f19601f82011682018060405250810190610b2f91906117a7565b6001600160a01b031614610b855760405162461bcd60e51b815260206004820152601a60248201527f52554c455f4c4943454e53455f4f574e45525f4348414e4745440000000000006044820152606401610304565b50506001016109c6565b5050505b505050565b600454600160a01b900460ff1615610bc25760405162dc149f60e41b815260040160405180910390fd5b6001600160a01b038116610be95760405163d92e233d60e01b815260040160405180910390fd5b600480546001600160a01b0383166001600160a81b03199091168117600160a01b179091556040517f908408e307fc569b417f6cbec5d5a06f44a0a505ac0479b47d421a4b2fd6a1e6905f90a250565b5f610d2e7f08168eb48dd28df4c6083d3dd4aafa86d8eef003f5b394a1de9caa45aacb577e83356020850135610c756060870160408801611391565b610c856080880160608901611391565b610c9560a0890160808a01611391565b60a089013560c08a013560e08b0135610cb66101208d016101008e01611391565b610cc86101408e016101208f016115d5565b8d610140016020810190610cdc91906115d5565b8e61016001358f610180016020810190610cf69190611618565b604051602001610d139e9d9c9b9a999897969594939291906117c2565b60405160208183030381529060405280519060200120610e6e565b92915050565b6004546001600160a01b03163314610d5e5760405162461bcd60e51b815260040161030490611578565b6001600160a01b038116610d845760405162461bcd60e51b81526004016103049061159b565b6004546040516001600160a01b038084169216907f8be0079c531659141344cd1fd0a4f28419497f9722a3daafe3b4186f6b6457e0905f90a3600480546001600160a01b0319166001600160a01b0392909216919091179055565b5f610de8610e9a565b905090565b5f5f5f5f610dfb8686610fc3565b925092509250610e0b828261100c565b5090949350505050565b6060610de87f00000000000000000000000000000000000000000000000000000000000000005f6110c8565b6060610de87f000000000000000000000000000000000000000000000000000000000000000060016110c8565b5f610d2e610e7a610e9a565b8360405161190160f01b8152600281019290925260228201526042902090565b5f306001600160a01b037f000000000000000000000000000000000000000000000000000000000000000016148015610ef257507f000000000000000000000000000000000000000000000000000000000000000046145b15610f1c57507f000000000000000000000000000000000000000000000000000000000000000090565b610de8604080517f8b73c3c69bb8fe3d512ecc4cf759cc79239f7b179b0ffacaa9a75d522b39400f60208201527f0000000000000000000000000000000000000000000000000000000000000000918101919091527f000000000000000000000000000000000000000000000000000000000000000060608201524660808201523060a08201525f9060c00160405160208183030381529060405280519060200120905090565b5f5f5f8351604103610ffa576020840151604085015160608601515f1a610fec88828585611171565b955095509550505050611005565b505081515f91506002905b9250925092565b5f82600381111561101f5761101f611869565b03611028575050565b600182600381111561103c5761103c611869565b0361105a5760405163f645eedf60e01b815260040160405180910390fd5b600282600381111561106e5761106e611869565b0361108f5760405163fce698f760e01b815260048101829052602401610304565b60038260038111156110a3576110a3611869565b036110c4576040516335e2f38360e21b815260048101829052602401610304565b5050565b606060ff83146110e2576110db83611239565b9050610d2e565b8180546110ee9061187d565b80601f016020809104026020016040519081016040528092919081815260200182805461111a9061187d565b80156111655780601f1061113c57610100808354040283529160200191611165565b820191905f5260205f20905b81548152906001019060200180831161114857829003601f168201915b50505050509050610d2e565b5f80807f7fffffffffffffffffffffffffffffff5d576e7357a4501ddfe92f46681b20a08411156111aa57505f9150600390508261122f565b604080515f808252602082018084528a905260ff891692820192909252606081018790526080810186905260019060a0016020604051602081039080840390855afa1580156111fb573d5f5f3e3d5ffd5b5050604051601f1901519150506001600160a01b03811661122657505f92506001915082905061122f565b92505f91508190505b9450945094915050565b60605f61124583611276565b6040805160208082528183019092529192505f91906020820181803683375050509182525060208101929092525090565b5f60ff8216601f811115610d2e57604051632cd44ac360e21b815260040160405180910390fd5b6001600160a01b03811681146112b1575f5ffd5b50565b803580151581146112c3575f5ffd5b919050565b5f5f604083850312156112d9575f5ffd5b82356112e48161129d565b91506112f2602084016112b4565b90509250929050565b5f6101a0828403121561130c575f5ffd5b50919050565b5f5f5f6101c08486031215611325575f5ffd5b61132f85856112fb565b92506101a08401356001600160401b0381111561134a575f5ffd5b8401601f8101861361135a575f5ffd5b80356001600160401b0381111561136f575f5ffd5b866020828401011115611380575f5ffd5b939660209190910195509293505050565b5f602082840312156113a1575f5ffd5b81356104918161129d565b5f81518084528060208401602086015e5f602082860101526020601f19601f83011685010191505092915050565b60ff60f81b8816815260e060208201525f6113f860e08301896113ac565b828103604084015261140a81896113ac565b606084018890526001600160a01b038716608085015260a0840186905283810360c0850152845180825260208087019350909101905f5b8181101561145f578351835260209384019390920191600101611441565b50909b9a5050505050505050505050565b5f5f60408385031215611481575f5ffd5b823561148c8161129d565b946020939093013593505050565b602081525f61049160208301846113ac565b5f5f83601f8401126114bc575f5ffd5b5081356001600160401b038111156114d2575f5ffd5b6020830191508360208260051b85010111156114ec575f5ffd5b9250929050565b5f5f5f5f60408587031215611506575f5ffd5b84356001600160401b0381111561151b575f5ffd5b611527878288016114ac565b90955093505060208501356001600160401b03811115611545575f5ffd5b611551878288016114ac565b95989497509550505050565b5f6101a0828403121561156e575f5ffd5b61049183836112fb565b6020808252600990820152682727aa2fa7aba722a960b91b604082015260600190565b6020808252600c908201526b5a45524f5f4144445245535360a01b604082015260600190565b6001600160401b03811681146112b1575f5ffd5b5f602082840312156115e5575f5ffd5b8135610491816115c1565b634e487b7160e01b5f52604160045260245ffd5b634e487b7160e01b5f52603260045260245ffd5b5f60208284031215611628575f5ffd5b610491826112b4565b604080519081016001600160401b0381118282101715611653576116536115f0565b60405290565b604051601f8201601f191681016001600160401b0381118282101715611681576116816115f0565b604052919050565b80516112c3816115c1565b5f5f5f606084860312156116a6575f5ffd5b83516116b18161129d565b60208501519093506001600160401b038111156116cc575f5ffd5b8401601f810186136116dc575f5ffd5b80516001600160401b038111156116f5576116f56115f0565b61170460208260051b01611659565b8082825260208201915060208360061b850101925088831115611725575f5ffd5b6020840193505b82841015611775576040848a031215611743575f5ffd5b61174b611631565b84516117568161129d565b815260208581015181830152908352604090940193919091019061172c565b94506117879250505060408501611689565b90509250925092565b5f602082840312156117a0575f5ffd5b5051919050565b5f602082840312156117b7575f5ffd5b81516104918161129d565b8e8152602081018e9052604081018d90526001600160a01b038c811660608301528b811660808301528a1660a08201526101c081018960c08301528860e0830152876101008301526118206101208301886001600160a01b03169052565b6001600160401b0386166101408301526001600160401b038516610160830152836101808301526118566101a083018415159052565b9f9e505050505050505050505050505050565b634e487b7160e01b5f52602160045260245ffd5b600181811c9082168061189157607f821691505b60208210810361130c57634e487b7160e01b5f52602260045260245ffdfea2646970667358221220c7454b4c1ab8c1c4ff38b1054908bd490ee48b69ff976b2ac6396eaa96543d5164736f6c634300081c0033",
  "linkReferences": {},
  "deployedLinkReferences": {},
  "immutableReferences": {
    "2188": [
      {
        "length": 32,
        "start": 3834
      }
    ],
    "2190": [
      {
        "length": 32,
        "start": 3792
      }
    ],
    "2192": [
      {
        "length": 32,
        "start": 3750
      }
    ],
    "2194": [
      {
        "length": 32,
        "start": 3915
      }
    ],
    "2196": [
      {
        "length": 32,
        "start": 3955
      }
    ],
    "2199": [
      {
        "length": 32,
        "start": 3612
      }
    ],
    "2202": [
      {
        "length": 32,
        "start": 3656
      }
    ]
  },
  "inputSourceName": "project/contracts/PayIDVerifier.sol",
  "buildInfoId": "solc-0_8_28-ae69b0f519ff85b8c9ef33e82f8bc37b14af7d05"
}